{
	"gameprofits-galactic-spdgcs-contracts/networkERC20/gameCash.sol": {
		"MyAdvancedToken": {
			"abi": [
				{
					"inputs": [
						{
							"internalType": "uint256",
							"name": "initialSupply",
							"type": "uint256"
						},
						{
							"internalType": "string",
							"name": "tokenName",
							"type": "string"
						},
						{
							"internalType": "string",
							"name": "tokenSymbol",
							"type": "string"
						}
					],
					"payable": false,
					"stateMutability": "nonpayable",
					"type": "constructor"
				},
				{
					"anonymous": false,
					"inputs": [
						{
							"indexed": true,
							"internalType": "address",
							"name": "_owner",
							"type": "address"
						},
						{
							"indexed": true,
							"internalType": "address",
							"name": "_spender",
							"type": "address"
						},
						{
							"indexed": false,
							"internalType": "uint256",
							"name": "_value",
							"type": "uint256"
						}
					],
					"name": "Approval",
					"type": "event"
				},
				{
					"anonymous": false,
					"inputs": [
						{
							"indexed": true,
							"internalType": "address",
							"name": "from",
							"type": "address"
						},
						{
							"indexed": false,
							"internalType": "uint256",
							"name": "value",
							"type": "uint256"
						}
					],
					"name": "Burn",
					"type": "event"
				},
				{
					"anonymous": false,
					"inputs": [
						{
							"indexed": false,
							"internalType": "address",
							"name": "target",
							"type": "address"
						},
						{
							"indexed": false,
							"internalType": "bool",
							"name": "frozen",
							"type": "bool"
						}
					],
					"name": "FrozenFunds",
					"type": "event"
				},
				{
					"anonymous": false,
					"inputs": [
						{
							"indexed": true,
							"internalType": "address",
							"name": "from",
							"type": "address"
						},
						{
							"indexed": true,
							"internalType": "address",
							"name": "to",
							"type": "address"
						},
						{
							"indexed": false,
							"internalType": "uint256",
							"name": "value",
							"type": "uint256"
						}
					],
					"name": "Transfer",
					"type": "event"
				},
				{
					"constant": true,
					"inputs": [
						{
							"internalType": "address",
							"name": "",
							"type": "address"
						},
						{
							"internalType": "address",
							"name": "",
							"type": "address"
						}
					],
					"name": "allowance",
					"outputs": [
						{
							"internalType": "uint256",
							"name": "",
							"type": "uint256"
						}
					],
					"payable": false,
					"stateMutability": "view",
					"type": "function"
				},
				{
					"constant": false,
					"inputs": [
						{
							"internalType": "address",
							"name": "_spender",
							"type": "address"
						},
						{
							"internalType": "uint256",
							"name": "_value",
							"type": "uint256"
						}
					],
					"name": "approve",
					"outputs": [
						{
							"internalType": "bool",
							"name": "success",
							"type": "bool"
						}
					],
					"payable": false,
					"stateMutability": "nonpayable",
					"type": "function"
				},
				{
					"constant": false,
					"inputs": [
						{
							"internalType": "address",
							"name": "_spender",
							"type": "address"
						},
						{
							"internalType": "uint256",
							"name": "_value",
							"type": "uint256"
						},
						{
							"internalType": "bytes",
							"name": "_extraData",
							"type": "bytes"
						}
					],
					"name": "approveAndCall",
					"outputs": [
						{
							"internalType": "bool",
							"name": "success",
							"type": "bool"
						}
					],
					"payable": false,
					"stateMutability": "nonpayable",
					"type": "function"
				},
				{
					"constant": true,
					"inputs": [
						{
							"internalType": "address",
							"name": "",
							"type": "address"
						}
					],
					"name": "balanceOf",
					"outputs": [
						{
							"internalType": "uint256",
							"name": "",
							"type": "uint256"
						}
					],
					"payable": false,
					"stateMutability": "view",
					"type": "function"
				},
				{
					"constant": false,
					"inputs": [
						{
							"internalType": "uint256",
							"name": "_value",
							"type": "uint256"
						}
					],
					"name": "burn",
					"outputs": [
						{
							"internalType": "bool",
							"name": "success",
							"type": "bool"
						}
					],
					"payable": false,
					"stateMutability": "nonpayable",
					"type": "function"
				},
				{
					"constant": false,
					"inputs": [
						{
							"internalType": "address",
							"name": "_from",
							"type": "address"
						},
						{
							"internalType": "uint256",
							"name": "_value",
							"type": "uint256"
						}
					],
					"name": "burnFrom",
					"outputs": [
						{
							"internalType": "bool",
							"name": "success",
							"type": "bool"
						}
					],
					"payable": false,
					"stateMutability": "nonpayable",
					"type": "function"
				},
				{
					"constant": false,
					"inputs": [],
					"name": "buy",
					"outputs": [],
					"payable": true,
					"stateMutability": "payable",
					"type": "function"
				},
				{
					"constant": true,
					"inputs": [],
					"name": "buyPrice",
					"outputs": [
						{
							"internalType": "uint256",
							"name": "",
							"type": "uint256"
						}
					],
					"payable": false,
					"stateMutability": "view",
					"type": "function"
				},
				{
					"constant": true,
					"inputs": [],
					"name": "decimals",
					"outputs": [
						{
							"internalType": "uint8",
							"name": "",
							"type": "uint8"
						}
					],
					"payable": false,
					"stateMutability": "view",
					"type": "function"
				},
				{
					"constant": false,
					"inputs": [
						{
							"internalType": "address",
							"name": "target",
							"type": "address"
						},
						{
							"internalType": "bool",
							"name": "freeze",
							"type": "bool"
						}
					],
					"name": "freezeAccount",
					"outputs": [],
					"payable": false,
					"stateMutability": "nonpayable",
					"type": "function"
				},
				{
					"constant": true,
					"inputs": [
						{
							"internalType": "address",
							"name": "",
							"type": "address"
						}
					],
					"name": "frozenAccount",
					"outputs": [
						{
							"internalType": "bool",
							"name": "",
							"type": "bool"
						}
					],
					"payable": false,
					"stateMutability": "view",
					"type": "function"
				},
				{
					"constant": false,
					"inputs": [
						{
							"internalType": "address",
							"name": "target",
							"type": "address"
						},
						{
							"internalType": "uint256",
							"name": "mintedAmount",
							"type": "uint256"
						}
					],
					"name": "mintToken",
					"outputs": [],
					"payable": false,
					"stateMutability": "nonpayable",
					"type": "function"
				},
				{
					"constant": true,
					"inputs": [],
					"name": "name",
					"outputs": [
						{
							"internalType": "string",
							"name": "",
							"type": "string"
						}
					],
					"payable": false,
					"stateMutability": "view",
					"type": "function"
				},
				{
					"constant": true,
					"inputs": [],
					"name": "owner",
					"outputs": [
						{
							"internalType": "address",
							"name": "",
							"type": "address"
						}
					],
					"payable": false,
					"stateMutability": "view",
					"type": "function"
				},
				{
					"constant": false,
					"inputs": [
						{
							"internalType": "uint256",
							"name": "amount",
							"type": "uint256"
						}
					],
					"name": "sell",
					"outputs": [],
					"payable": false,
					"stateMutability": "nonpayable",
					"type": "function"
				},
				{
					"constant": true,
					"inputs": [],
					"name": "sellPrice",
					"outputs": [
						{
							"internalType": "uint256",
							"name": "",
							"type": "uint256"
						}
					],
					"payable": false,
					"stateMutability": "view",
					"type": "function"
				},
				{
					"constant": false,
					"inputs": [
						{
							"internalType": "uint256",
							"name": "newSellPrice",
							"type": "uint256"
						},
						{
							"internalType": "uint256",
							"name": "newBuyPrice",
							"type": "uint256"
						}
					],
					"name": "setPrices",
					"outputs": [],
					"payable": false,
					"stateMutability": "nonpayable",
					"type": "function"
				},
				{
					"constant": true,
					"inputs": [],
					"name": "symbol",
					"outputs": [
						{
							"internalType": "string",
							"name": "",
							"type": "string"
						}
					],
					"payable": false,
					"stateMutability": "view",
					"type": "function"
				},
				{
					"constant": true,
					"inputs": [],
					"name": "totalSupply",
					"outputs": [
						{
							"internalType": "uint256",
							"name": "",
							"type": "uint256"
						}
					],
					"payable": false,
					"stateMutability": "view",
					"type": "function"
				},
				{
					"constant": false,
					"inputs": [
						{
							"internalType": "address",
							"name": "_to",
							"type": "address"
						},
						{
							"internalType": "uint256",
							"name": "_value",
							"type": "uint256"
						}
					],
					"name": "transfer",
					"outputs": [
						{
							"internalType": "bool",
							"name": "success",
							"type": "bool"
						}
					],
					"payable": false,
					"stateMutability": "nonpayable",
					"type": "function"
				},
				{
					"constant": false,
					"inputs": [
						{
							"internalType": "address",
							"name": "_from",
							"type": "address"
						},
						{
							"internalType": "address",
							"name": "_to",
							"type": "address"
						},
						{
							"internalType": "uint256",
							"name": "_value",
							"type": "uint256"
						}
					],
					"name": "transferFrom",
					"outputs": [
						{
							"internalType": "bool",
							"name": "success",
							"type": "bool"
						}
					],
					"payable": false,
					"stateMutability": "nonpayable",
					"type": "function"
				},
				{
					"constant": false,
					"inputs": [
						{
							"internalType": "address",
							"name": "newOwner",
							"type": "address"
						}
					],
					"name": "transferOwnership",
					"outputs": [],
					"payable": false,
					"stateMutability": "nonpayable",
					"type": "function"
				}
			],
			"devdoc": {
				"methods": {
					"approve(address,uint256)": {
						"params": {
							"_spender": "The address authorized to spend",
							"_value": "the max amount they can spend"
						}
					},
					"approveAndCall(address,uint256,bytes)": {
						"params": {
							"_extraData": "some extra information to send to the approved contract",
							"_spender": "The address authorized to spend",
							"_value": "the max amount they can spend"
						}
					},
					"burn(uint256)": {
						"params": {
							"_value": "the amount of money to burn"
						}
					},
					"burnFrom(address,uint256)": {
						"params": {
							"_from": "the address of the sender",
							"_value": "the amount of money to burn"
						}
					},
					"freezeAccount(address,bool)": {
						"params": {
							"freeze": "either to freeze it or not",
							"target": "Address to be frozen"
						}
					},
					"mintToken(address,uint256)": {
						"params": {
							"mintedAmount": "the amount of tokens it will receive",
							"target": "Address to receive the tokens"
						}
					},
					"sell(uint256)": {
						"params": {
							"amount": "amount of tokens to be sold"
						}
					},
					"setPrices(uint256,uint256)": {
						"params": {
							"newBuyPrice": "Price users can buy from the contract",
							"newSellPrice": "Price the users can sell to the contract"
						}
					},
					"transfer(address,uint256)": {
						"params": {
							"_to": "The address of the recipient",
							"_value": "the amount to send"
						}
					},
					"transferFrom(address,address,uint256)": {
						"params": {
							"_from": "The address of the sender",
							"_to": "The address of the recipient",
							"_value": "the amount to send"
						}
					}
				}
			},
			"evm": {
				"assembly": "    /* \"gameprofits-galactic-spdgcs-contracts/networkERC20/gameCash.sol\":6765:10288  contract MyAdvancedToken is owned, TokenERC20 {\r... */\n  mstore(0x40, 0x80)\n    /* \"gameprofits-galactic-spdgcs-contracts/networkERC20/gameCash.sol\":625:627  18 */\n  0x12\n    /* \"gameprofits-galactic-spdgcs-contracts/networkERC20/gameCash.sol\":601:627  uint8 public decimals = 18 */\n  0x03\n  exp(0x0100, 0x00)\n  dup2\n  sload\n  dup2\n  0xff\n  mul\n  not\n  and\n  swap1\n  dup4\n  0xff\n  and\n  mul\n  or\n  swap1\n  sstore\n  pop\n    /* \"gameprofits-galactic-spdgcs-contracts/networkERC20/gameCash.sol\":7167:7347  constructor(\r... */\n  callvalue\n    /* \"--CODEGEN--\":8:17   */\n  dup1\n    /* \"--CODEGEN--\":5:7   */\n  iszero\n  tag_1\n  jumpi\n    /* \"--CODEGEN--\":30:31   */\n  0x00\n    /* \"--CODEGEN--\":27:28   */\n  dup1\n    /* \"--CODEGEN--\":20:32   */\n  revert\n    /* \"--CODEGEN--\":5:7   */\ntag_1:\n    /* \"gameprofits-galactic-spdgcs-contracts/networkERC20/gameCash.sol\":7167:7347  constructor(\r... */\n  pop\n  mload(0x40)\n  sub(codesize, bytecodeSize)\n  dup1\n  bytecodeSize\n  dup4\n  codecopy\n  dup2\n  dup2\n  add\n  0x40\n  mstore\n    /* \"--CODEGEN--\":13:15   */\n  0x60\n    /* \"--CODEGEN--\":8:11   */\n  dup2\n    /* \"--CODEGEN--\":5:16   */\n  lt\n    /* \"--CODEGEN--\":2:4   */\n  iszero\n  tag_2\n  jumpi\n    /* \"--CODEGEN--\":29:30   */\n  0x00\n    /* \"--CODEGEN--\":26:27   */\n  dup1\n    /* \"--CODEGEN--\":19:31   */\n  revert\n    /* \"--CODEGEN--\":2:4   */\ntag_2:\n    /* \"gameprofits-galactic-spdgcs-contracts/networkERC20/gameCash.sol\":7167:7347  constructor(\r... */\n  dup2\n  add\n  swap1\n  dup1\n  dup1\n  mload\n  swap1\n  0x20\n  add\n  swap1\n  swap3\n  swap2\n  swap1\n  dup1\n  mload\n  mload(0x40)\n  swap4\n  swap3\n  swap2\n  swap1\n  dup5\n    /* \"--CODEGEN--\":19:30   */\n  0x0100000000\n    /* \"--CODEGEN--\":14:17   */\n  dup3\n    /* \"--CODEGEN--\":11:31   */\n  gt\n    /* \"--CODEGEN--\":8:10   */\n  iszero\n  tag_3\n  jumpi\n    /* \"--CODEGEN--\":44:45   */\n  0x00\n    /* \"--CODEGEN--\":41:42   */\n  dup1\n    /* \"--CODEGEN--\":34:46   */\n  revert\n    /* \"--CODEGEN--\":8:10   */\ntag_3:\n    /* \"--CODEGEN--\":71:82   */\n  dup4\n    /* \"--CODEGEN--\":66:69   */\n  dup3\n    /* \"--CODEGEN--\":62:83   */\n  add\n    /* \"--CODEGEN--\":55:83   */\n  swap2\n  pop\n    /* \"--CODEGEN--\":123:127   */\n  0x20\n    /* \"--CODEGEN--\":118:121   */\n  dup3\n    /* \"--CODEGEN--\":114:128   */\n  add\n    /* \"--CODEGEN--\":159:168   */\n  dup6\n    /* \"--CODEGEN--\":141:157   */\n  dup2\n    /* \"--CODEGEN--\":138:169   */\n  gt\n    /* \"--CODEGEN--\":135:137   */\n  iszero\n  tag_4\n  jumpi\n    /* \"--CODEGEN--\":182:183   */\n  0x00\n    /* \"--CODEGEN--\":179:180   */\n  dup1\n    /* \"--CODEGEN--\":172:184   */\n  revert\n    /* \"--CODEGEN--\":135:137   */\ntag_4:\n    /* \"--CODEGEN--\":219:222   */\n  dup3\n    /* \"--CODEGEN--\":213:223   */\n  mload\n    /* \"--CODEGEN--\":330:339   */\n  dup7\n    /* \"--CODEGEN--\":325:326   */\n  0x01\n    /* \"--CODEGEN--\":311:323   */\n  dup3\n    /* \"--CODEGEN--\":307:327   */\n  mul\n    /* \"--CODEGEN--\":289:305   */\n  dup4\n    /* \"--CODEGEN--\":285:328   */\n  add\n    /* \"--CODEGEN--\":282:340   */\n  gt\n    /* \"--CODEGEN--\":261:272   */\n  0x0100000000\n    /* \"--CODEGEN--\":247:259   */\n  dup3\n    /* \"--CODEGEN--\":244:273   */\n  gt\n    /* \"--CODEGEN--\":233:348   */\n  or\n    /* \"--CODEGEN--\":230:232   */\n  iszero\n  tag_5\n  jumpi\n    /* \"--CODEGEN--\":361:362   */\n  0x00\n    /* \"--CODEGEN--\":358:359   */\n  dup1\n    /* \"--CODEGEN--\":351:363   */\n  revert\n    /* \"--CODEGEN--\":230:232   */\ntag_5:\n    /* \"--CODEGEN--\":384:396   */\n  dup1\n    /* \"--CODEGEN--\":379:382   */\n  dup4\n    /* \"--CODEGEN--\":372:397   */\n  mstore\n    /* \"--CODEGEN--\":420:424   */\n  0x20\n    /* \"--CODEGEN--\":415:418   */\n  dup4\n    /* \"--CODEGEN--\":411:425   */\n  add\n    /* \"--CODEGEN--\":404:425   */\n  swap3\n  pop\n    /* \"--CODEGEN--\":0:432   */\n  pop\n  pop\n    /* \"gameprofits-galactic-spdgcs-contracts/networkERC20/gameCash.sol\":7167:7347  constructor(\r... */\n  swap1\n  dup1\n  mload\n  swap1\n  0x20\n  add\n  swap1\n  dup1\n  dup4\n  dup4\n    /* \"--CODEGEN--\":23:24   */\n  0x00\n    /* \"--CODEGEN--\":8:108   */\ntag_6:\n    /* \"--CODEGEN--\":33:36   */\n  dup4\n    /* \"--CODEGEN--\":30:31   */\n  dup2\n    /* \"--CODEGEN--\":27:37   */\n  lt\n    /* \"--CODEGEN--\":8:108   */\n  iszero\n  tag_8\n  jumpi\n    /* \"--CODEGEN--\":99:100   */\n  dup1\n    /* \"--CODEGEN--\":94:97   */\n  dup3\n    /* \"--CODEGEN--\":90:101   */\n  add\n    /* \"--CODEGEN--\":84:102   */\n  mload\n    /* \"--CODEGEN--\":80:81   */\n  dup2\n    /* \"--CODEGEN--\":75:78   */\n  dup5\n    /* \"--CODEGEN--\":71:82   */\n  add\n    /* \"--CODEGEN--\":64:103   */\n  mstore\n    /* \"--CODEGEN--\":52:54   */\n  0x20\n    /* \"--CODEGEN--\":49:50   */\n  dup2\n    /* \"--CODEGEN--\":45:55   */\n  add\n    /* \"--CODEGEN--\":40:55   */\n  swap1\n  pop\n    /* \"--CODEGEN--\":8:108   */\n  jump(tag_6)\ntag_8:\n    /* \"--CODEGEN--\":12:26   */\n  pop\n    /* \"gameprofits-galactic-spdgcs-contracts/networkERC20/gameCash.sol\":7167:7347  constructor(\r... */\n  pop\n  pop\n  pop\n  swap1\n  pop\n  swap1\n  dup2\n  add\n  swap1\n  0x1f\n  and\n  dup1\n  iszero\n  tag_9\n  jumpi\n  dup1\n  dup3\n  sub\n  dup1\n  mload\n  0x01\n  dup4\n  0x20\n  sub\n  0x0100\n  exp\n  sub\n  not\n  and\n  dup2\n  mstore\n  0x20\n  add\n  swap2\n  pop\ntag_9:\n  pop\n  0x40\n  mstore\n  0x20\n  add\n  dup1\n  mload\n  mload(0x40)\n  swap4\n  swap3\n  swap2\n  swap1\n  dup5\n    /* \"--CODEGEN--\":19:30   */\n  0x0100000000\n    /* \"--CODEGEN--\":14:17   */\n  dup3\n    /* \"--CODEGEN--\":11:31   */\n  gt\n    /* \"--CODEGEN--\":8:10   */\n  iszero\n  tag_10\n  jumpi\n    /* \"--CODEGEN--\":44:45   */\n  0x00\n    /* \"--CODEGEN--\":41:42   */\n  dup1\n    /* \"--CODEGEN--\":34:46   */\n  revert\n    /* \"--CODEGEN--\":8:10   */\ntag_10:\n    /* \"--CODEGEN--\":71:82   */\n  dup4\n    /* \"--CODEGEN--\":66:69   */\n  dup3\n    /* \"--CODEGEN--\":62:83   */\n  add\n    /* \"--CODEGEN--\":55:83   */\n  swap2\n  pop\n    /* \"--CODEGEN--\":123:127   */\n  0x20\n    /* \"--CODEGEN--\":118:121   */\n  dup3\n    /* \"--CODEGEN--\":114:128   */\n  add\n    /* \"--CODEGEN--\":159:168   */\n  dup6\n    /* \"--CODEGEN--\":141:157   */\n  dup2\n    /* \"--CODEGEN--\":138:169   */\n  gt\n    /* \"--CODEGEN--\":135:137   */\n  iszero\n  tag_11\n  jumpi\n    /* \"--CODEGEN--\":182:183   */\n  0x00\n    /* \"--CODEGEN--\":179:180   */\n  dup1\n    /* \"--CODEGEN--\":172:184   */\n  revert\n    /* \"--CODEGEN--\":135:137   */\ntag_11:\n    /* \"--CODEGEN--\":219:222   */\n  dup3\n    /* \"--CODEGEN--\":213:223   */\n  mload\n    /* \"--CODEGEN--\":330:339   */\n  dup7\n    /* \"--CODEGEN--\":325:326   */\n  0x01\n    /* \"--CODEGEN--\":311:323   */\n  dup3\n    /* \"--CODEGEN--\":307:327   */\n  mul\n    /* \"--CODEGEN--\":289:305   */\n  dup4\n    /* \"--CODEGEN--\":285:328   */\n  add\n    /* \"--CODEGEN--\":282:340   */\n  gt\n    /* \"--CODEGEN--\":261:272   */\n  0x0100000000\n    /* \"--CODEGEN--\":247:259   */\n  dup3\n    /* \"--CODEGEN--\":244:273   */\n  gt\n    /* \"--CODEGEN--\":233:348   */\n  or\n    /* \"--CODEGEN--\":230:232   */\n  iszero\n  tag_12\n  jumpi\n    /* \"--CODEGEN--\":361:362   */\n  0x00\n    /* \"--CODEGEN--\":358:359   */\n  dup1\n    /* \"--CODEGEN--\":351:363   */\n  revert\n    /* \"--CODEGEN--\":230:232   */\ntag_12:\n    /* \"--CODEGEN--\":384:396   */\n  dup1\n    /* \"--CODEGEN--\":379:382   */\n  dup4\n    /* \"--CODEGEN--\":372:397   */\n  mstore\n    /* \"--CODEGEN--\":420:424   */\n  0x20\n    /* \"--CODEGEN--\":415:418   */\n  dup4\n    /* \"--CODEGEN--\":411:425   */\n  add\n    /* \"--CODEGEN--\":404:425   */\n  swap3\n  pop\n    /* \"--CODEGEN--\":0:432   */\n  pop\n  pop\n    /* \"gameprofits-galactic-spdgcs-contracts/networkERC20/gameCash.sol\":7167:7347  constructor(\r... */\n  swap1\n  dup1\n  mload\n  swap1\n  0x20\n  add\n  swap1\n  dup1\n  dup4\n  dup4\n    /* \"--CODEGEN--\":23:24   */\n  0x00\n    /* \"--CODEGEN--\":8:108   */\ntag_13:\n    /* \"--CODEGEN--\":33:36   */\n  dup4\n    /* \"--CODEGEN--\":30:31   */\n  dup2\n    /* \"--CODEGEN--\":27:37   */\n  lt\n    /* \"--CODEGEN--\":8:108   */\n  iszero\n  tag_15\n  jumpi\n    /* \"--CODEGEN--\":99:100   */\n  dup1\n    /* \"--CODEGEN--\":94:97   */\n  dup3\n    /* \"--CODEGEN--\":90:101   */\n  add\n    /* \"--CODEGEN--\":84:102   */\n  mload\n    /* \"--CODEGEN--\":80:81   */\n  dup2\n    /* \"--CODEGEN--\":75:78   */\n  dup5\n    /* \"--CODEGEN--\":71:82   */\n  add\n    /* \"--CODEGEN--\":64:103   */\n  mstore\n    /* \"--CODEGEN--\":52:54   */\n  0x20\n    /* \"--CODEGEN--\":49:50   */\n  dup2\n    /* \"--CODEGEN--\":45:55   */\n  add\n    /* \"--CODEGEN--\":40:55   */\n  swap1\n  pop\n    /* \"--CODEGEN--\":8:108   */\n  jump(tag_13)\ntag_15:\n    /* \"--CODEGEN--\":12:26   */\n  pop\n    /* \"gameprofits-galactic-spdgcs-contracts/networkERC20/gameCash.sol\":7167:7347  constructor(\r... */\n  pop\n  pop\n  pop\n  swap1\n  pop\n  swap1\n  dup2\n  add\n  swap1\n  0x1f\n  and\n  dup1\n  iszero\n  tag_16\n  jumpi\n  dup1\n  dup3\n  sub\n  dup1\n  mload\n  0x01\n  dup4\n  0x20\n  sub\n  0x0100\n  exp\n  sub\n  not\n  and\n  dup2\n  mstore\n  0x20\n  add\n  swap2\n  pop\ntag_16:\n  pop\n  0x40\n  mstore\n  pop\n  pop\n  pop\n    /* \"gameprofits-galactic-spdgcs-contracts/networkERC20/gameCash.sol\":7299:7312  initialSupply */\n  dup3\n    /* \"gameprofits-galactic-spdgcs-contracts/networkERC20/gameCash.sol\":7314:7323  tokenName */\n  dup3\n    /* \"gameprofits-galactic-spdgcs-contracts/networkERC20/gameCash.sol\":7325:7336  tokenSymbol */\n  dup3\n    /* \"gameprofits-galactic-spdgcs-contracts/networkERC20/gameCash.sol\":127:137  msg.sender */\n  caller\n    /* \"gameprofits-galactic-spdgcs-contracts/networkERC20/gameCash.sol\":119:124  owner */\n  0x00\n  dup1\n    /* \"gameprofits-galactic-spdgcs-contracts/networkERC20/gameCash.sol\":119:137  owner = msg.sender */\n  0x0100\n  exp\n  dup2\n  sload\n  dup2\n  0xffffffffffffffffffffffffffffffffffffffff\n  mul\n  not\n  and\n  swap1\n  dup4\n  0xffffffffffffffffffffffffffffffffffffffff\n  and\n  mul\n  or\n  swap1\n  sstore\n  pop\n    /* \"gameprofits-galactic-spdgcs-contracts/networkERC20/gameCash.sol\":1685:1693  decimals */\n  0x03\n  0x00\n  swap1\n  sload\n  swap1\n  0x0100\n  exp\n  swap1\n  div\n  0xff\n  and\n    /* \"gameprofits-galactic-spdgcs-contracts/networkERC20/gameCash.sol\":1677:1694  uint256(decimals) */\n  0xff\n  and\n    /* \"gameprofits-galactic-spdgcs-contracts/networkERC20/gameCash.sol\":1671:1673  10 */\n  0x0a\n    /* \"gameprofits-galactic-spdgcs-contracts/networkERC20/gameCash.sol\":1671:1694  10 ** uint256(decimals) */\n  exp\n    /* \"gameprofits-galactic-spdgcs-contracts/networkERC20/gameCash.sol\":1655:1668  initialSupply */\n  dup4\n    /* \"gameprofits-galactic-spdgcs-contracts/networkERC20/gameCash.sol\":1655:1694  initialSupply * 10 ** uint256(decimals) */\n  mul\n    /* \"gameprofits-galactic-spdgcs-contracts/networkERC20/gameCash.sol\":1641:1652  totalSupply */\n  0x04\n    /* \"gameprofits-galactic-spdgcs-contracts/networkERC20/gameCash.sol\":1641:1694  totalSupply = initialSupply * 10 ** uint256(decimals) */\n  dup2\n  swap1\n  sstore\n  pop\n    /* \"gameprofits-galactic-spdgcs-contracts/networkERC20/gameCash.sol\":1777:1788  totalSupply */\n  sload(0x04)\n    /* \"gameprofits-galactic-spdgcs-contracts/networkERC20/gameCash.sol\":1753:1762  balanceOf */\n  0x05\n    /* \"gameprofits-galactic-spdgcs-contracts/networkERC20/gameCash.sol\":1753:1774  balanceOf[msg.sender] */\n  0x00\n    /* \"gameprofits-galactic-spdgcs-contracts/networkERC20/gameCash.sol\":1763:1773  msg.sender */\n  caller\n    /* \"gameprofits-galactic-spdgcs-contracts/networkERC20/gameCash.sol\":1753:1774  balanceOf[msg.sender] */\n  0xffffffffffffffffffffffffffffffffffffffff\n  and\n  0xffffffffffffffffffffffffffffffffffffffff\n  and\n  dup2\n  mstore\n  0x20\n  add\n  swap1\n  dup2\n  mstore\n  0x20\n  add\n  0x00\n  keccak256\n    /* \"gameprofits-galactic-spdgcs-contracts/networkERC20/gameCash.sol\":1753:1788  balanceOf[msg.sender] = totalSupply */\n  dup2\n  swap1\n  sstore\n  pop\n    /* \"gameprofits-galactic-spdgcs-contracts/networkERC20/gameCash.sol\":1864:1873  tokenName */\n  dup2\n    /* \"gameprofits-galactic-spdgcs-contracts/networkERC20/gameCash.sol\":1857:1861  name */\n  0x01\n    /* \"gameprofits-galactic-spdgcs-contracts/networkERC20/gameCash.sol\":1857:1873  name = tokenName */\n  swap1\n  dup1\n  mload\n  swap1\n  0x20\n  add\n  swap1\n  tag_22\n  swap3\n  swap2\n  swap1\n  tag_23\n  jump\t// in\ntag_22:\n  pop\n    /* \"gameprofits-galactic-spdgcs-contracts/networkERC20/gameCash.sol\":1968:1979  tokenSymbol */\n  dup1\n    /* \"gameprofits-galactic-spdgcs-contracts/networkERC20/gameCash.sol\":1959:1965  symbol */\n  0x02\n    /* \"gameprofits-galactic-spdgcs-contracts/networkERC20/gameCash.sol\":1959:1979  symbol = tokenSymbol */\n  swap1\n  dup1\n  mload\n  swap1\n  0x20\n  add\n  swap1\n  tag_24\n  swap3\n  swap2\n  swap1\n  tag_23\n  jump\t// in\ntag_24:\n  pop\n    /* \"gameprofits-galactic-spdgcs-contracts/networkERC20/gameCash.sol\":1502:2060  constructor(\r... */\n  pop\n  pop\n  pop\n    /* \"gameprofits-galactic-spdgcs-contracts/networkERC20/gameCash.sol\":7167:7347  constructor(\r... */\n  pop\n  pop\n  pop\n    /* \"gameprofits-galactic-spdgcs-contracts/networkERC20/gameCash.sol\":6765:10288  contract MyAdvancedToken is owned, TokenERC20 {\r... */\n  jump(tag_26)\ntag_23:\n  dup3\n  dup1\n  sload\n  0x01\n  dup2\n  0x01\n  and\n  iszero\n  0x0100\n  mul\n  sub\n  and\n  0x02\n  swap1\n  div\n  swap1\n  0x00\n  mstore\n  keccak256(0x00, 0x20)\n  swap1\n  0x1f\n  add\n  0x20\n  swap1\n  div\n  dup2\n  add\n  swap3\n  dup3\n  0x1f\n  lt\n  tag_28\n  jumpi\n  dup1\n  mload\n  not(0xff)\n  and\n  dup4\n  dup1\n  add\n  or\n  dup6\n  sstore\n  jump(tag_27)\ntag_28:\n  dup3\n  dup1\n  add\n  0x01\n  add\n  dup6\n  sstore\n  dup3\n  iszero\n  tag_27\n  jumpi\n  swap2\n  dup3\n  add\ntag_29:\n  dup3\n  dup2\n  gt\n  iszero\n  tag_30\n  jumpi\n  dup3\n  mload\n  dup3\n  sstore\n  swap2\n  0x20\n  add\n  swap2\n  swap1\n  0x01\n  add\n  swap1\n  jump(tag_29)\ntag_30:\ntag_27:\n  pop\n  swap1\n  pop\n  tag_31\n  swap2\n  swap1\n  tag_32\n  jump\t// in\ntag_31:\n  pop\n  swap1\n  jump\t// out\ntag_32:\n  tag_33\n  swap2\n  swap1\ntag_34:\n  dup1\n  dup3\n  gt\n  iszero\n  tag_35\n  jumpi\n  0x00\n  dup2\n  0x00\n  swap1\n  sstore\n  pop\n  0x01\n  add\n  jump(tag_34)\ntag_35:\n  pop\n  swap1\n  jump\ntag_33:\n  swap1\n  jump\t// out\ntag_26:\n  dataSize(sub_0)\n  dup1\n  dataOffset(sub_0)\n  0x00\n  codecopy\n  0x00\n  return\nstop\n\nsub_0: assembly {\n        /* \"gameprofits-galactic-spdgcs-contracts/networkERC20/gameCash.sol\":6765:10288  contract MyAdvancedToken is owned, TokenERC20 {\r... */\n      mstore(0x40, 0x80)\n      jumpi(tag_1, lt(calldatasize, 0x04))\n      shr(0xe0, calldataload(0x00))\n      dup1\n      0x8620410b\n      gt\n      tag_24\n      jumpi\n      dup1\n      0xb414d4b6\n      gt\n      tag_25\n      jumpi\n      dup1\n      0xb414d4b6\n      eq\n      tag_18\n      jumpi\n      dup1\n      0xcae9ca51\n      eq\n      tag_19\n      jumpi\n      dup1\n      0xdd62ed3e\n      eq\n      tag_20\n      jumpi\n      dup1\n      0xe4849b32\n      eq\n      tag_21\n      jumpi\n      dup1\n      0xe724529c\n      eq\n      tag_22\n      jumpi\n      dup1\n      0xf2fde38b\n      eq\n      tag_23\n      jumpi\n      jump(tag_1)\n    tag_25:\n      dup1\n      0x8620410b\n      eq\n      tag_13\n      jumpi\n      dup1\n      0x8da5cb5b\n      eq\n      tag_14\n      jumpi\n      dup1\n      0x95d89b41\n      eq\n      tag_15\n      jumpi\n      dup1\n      0xa6f2ae3a\n      eq\n      tag_16\n      jumpi\n      dup1\n      0xa9059cbb\n      eq\n      tag_17\n      jumpi\n      jump(tag_1)\n    tag_24:\n      dup1\n      0x313ce567\n      gt\n      tag_26\n      jumpi\n      dup1\n      0x313ce567\n      eq\n      tag_7\n      jumpi\n      dup1\n      0x42966c68\n      eq\n      tag_8\n      jumpi\n      dup1\n      0x4b750334\n      eq\n      tag_9\n      jumpi\n      dup1\n      0x70a08231\n      eq\n      tag_10\n      jumpi\n      dup1\n      0x79c65068\n      eq\n      tag_11\n      jumpi\n      dup1\n      0x79cc6790\n      eq\n      tag_12\n      jumpi\n      jump(tag_1)\n    tag_26:\n      dup1\n      0x05fefda7\n      eq\n      tag_2\n      jumpi\n      dup1\n      0x06fdde03\n      eq\n      tag_3\n      jumpi\n      dup1\n      0x095ea7b3\n      eq\n      tag_4\n      jumpi\n      dup1\n      0x18160ddd\n      eq\n      tag_5\n      jumpi\n      dup1\n      0x23b872dd\n      eq\n      tag_6\n      jumpi\n    tag_1:\n      0x00\n      dup1\n      revert\n        /* \"gameprofits-galactic-spdgcs-contracts/networkERC20/gameCash.sol\":9313:9468  function setPrices(uint256 newSellPrice, uint256 newBuyPrice) onlyOwner public {\r... */\n    tag_2:\n      callvalue\n        /* \"--CODEGEN--\":8:17   */\n      dup1\n        /* \"--CODEGEN--\":5:7   */\n      iszero\n      tag_27\n      jumpi\n        /* \"--CODEGEN--\":30:31   */\n      0x00\n        /* \"--CODEGEN--\":27:28   */\n      dup1\n        /* \"--CODEGEN--\":20:32   */\n      revert\n        /* \"--CODEGEN--\":5:7   */\n    tag_27:\n        /* \"gameprofits-galactic-spdgcs-contracts/networkERC20/gameCash.sol\":9313:9468  function setPrices(uint256 newSellPrice, uint256 newBuyPrice) onlyOwner public {\r... */\n      pop\n      tag_28\n      0x04\n      dup1\n      calldatasize\n      sub\n        /* \"--CODEGEN--\":13:15   */\n      0x40\n        /* \"--CODEGEN--\":8:11   */\n      dup2\n        /* \"--CODEGEN--\":5:16   */\n      lt\n        /* \"--CODEGEN--\":2:4   */\n      iszero\n      tag_29\n      jumpi\n        /* \"--CODEGEN--\":29:30   */\n      0x00\n        /* \"--CODEGEN--\":26:27   */\n      dup1\n        /* \"--CODEGEN--\":19:31   */\n      revert\n        /* \"--CODEGEN--\":2:4   */\n    tag_29:\n        /* \"gameprofits-galactic-spdgcs-contracts/networkERC20/gameCash.sol\":9313:9468  function setPrices(uint256 newSellPrice, uint256 newBuyPrice) onlyOwner public {\r... */\n      dup2\n      add\n      swap1\n      dup1\n      dup1\n      calldataload\n      swap1\n      0x20\n      add\n      swap1\n      swap3\n      swap2\n      swap1\n      dup1\n      calldataload\n      swap1\n      0x20\n      add\n      swap1\n      swap3\n      swap2\n      swap1\n      pop\n      pop\n      pop\n      tag_30\n      jump\t// in\n    tag_28:\n      stop\n        /* \"gameprofits-galactic-spdgcs-contracts/networkERC20/gameCash.sol\":549:567  string public name */\n    tag_3:\n      callvalue\n        /* \"--CODEGEN--\":8:17   */\n      dup1\n        /* \"--CODEGEN--\":5:7   */\n      iszero\n      tag_31\n      jumpi\n        /* \"--CODEGEN--\":30:31   */\n      0x00\n        /* \"--CODEGEN--\":27:28   */\n      dup1\n        /* \"--CODEGEN--\":20:32   */\n      revert\n        /* \"--CODEGEN--\":5:7   */\n    tag_31:\n        /* \"gameprofits-galactic-spdgcs-contracts/networkERC20/gameCash.sol\":549:567  string public name */\n      pop\n      tag_32\n      tag_33\n      jump\t// in\n    tag_32:\n      mload(0x40)\n      dup1\n      dup1\n      0x20\n      add\n      dup3\n      dup2\n      sub\n      dup3\n      mstore\n      dup4\n      dup2\n      dup2\n      mload\n      dup2\n      mstore\n      0x20\n      add\n      swap2\n      pop\n      dup1\n      mload\n      swap1\n      0x20\n      add\n      swap1\n      dup1\n      dup4\n      dup4\n        /* \"--CODEGEN--\":23:24   */\n      0x00\n        /* \"--CODEGEN--\":8:108   */\n    tag_34:\n        /* \"--CODEGEN--\":33:36   */\n      dup4\n        /* \"--CODEGEN--\":30:31   */\n      dup2\n        /* \"--CODEGEN--\":27:37   */\n      lt\n        /* \"--CODEGEN--\":8:108   */\n      iszero\n      tag_36\n      jumpi\n        /* \"--CODEGEN--\":99:100   */\n      dup1\n        /* \"--CODEGEN--\":94:97   */\n      dup3\n        /* \"--CODEGEN--\":90:101   */\n      add\n        /* \"--CODEGEN--\":84:102   */\n      mload\n        /* \"--CODEGEN--\":80:81   */\n      dup2\n        /* \"--CODEGEN--\":75:78   */\n      dup5\n        /* \"--CODEGEN--\":71:82   */\n      add\n        /* \"--CODEGEN--\":64:103   */\n      mstore\n        /* \"--CODEGEN--\":52:54   */\n      0x20\n        /* \"--CODEGEN--\":49:50   */\n      dup2\n        /* \"--CODEGEN--\":45:55   */\n      add\n        /* \"--CODEGEN--\":40:55   */\n      swap1\n      pop\n        /* \"--CODEGEN--\":8:108   */\n      jump(tag_34)\n    tag_36:\n        /* \"--CODEGEN--\":12:26   */\n      pop\n        /* \"gameprofits-galactic-spdgcs-contracts/networkERC20/gameCash.sol\":549:567  string public name */\n      pop\n      pop\n      pop\n      swap1\n      pop\n      swap1\n      dup2\n      add\n      swap1\n      0x1f\n      and\n      dup1\n      iszero\n      tag_37\n      jumpi\n      dup1\n      dup3\n      sub\n      dup1\n      mload\n      0x01\n      dup4\n      0x20\n      sub\n      0x0100\n      exp\n      sub\n      not\n      and\n      dup2\n      mstore\n      0x20\n      add\n      swap2\n      pop\n    tag_37:\n      pop\n      swap3\n      pop\n      pop\n      pop\n      mload(0x40)\n      dup1\n      swap2\n      sub\n      swap1\n      return\n        /* \"gameprofits-galactic-spdgcs-contracts/networkERC20/gameCash.sol\":4208:4433  function approve(address _spender, uint256 _value) public\r... */\n    tag_4:\n      callvalue\n        /* \"--CODEGEN--\":8:17   */\n      dup1\n        /* \"--CODEGEN--\":5:7   */\n      iszero\n      tag_38\n      jumpi\n        /* \"--CODEGEN--\":30:31   */\n      0x00\n        /* \"--CODEGEN--\":27:28   */\n      dup1\n        /* \"--CODEGEN--\":20:32   */\n      revert\n        /* \"--CODEGEN--\":5:7   */\n    tag_38:\n        /* \"gameprofits-galactic-spdgcs-contracts/networkERC20/gameCash.sol\":4208:4433  function approve(address _spender, uint256 _value) public\r... */\n      pop\n      tag_39\n      0x04\n      dup1\n      calldatasize\n      sub\n        /* \"--CODEGEN--\":13:15   */\n      0x40\n        /* \"--CODEGEN--\":8:11   */\n      dup2\n        /* \"--CODEGEN--\":5:16   */\n      lt\n        /* \"--CODEGEN--\":2:4   */\n      iszero\n      tag_40\n      jumpi\n        /* \"--CODEGEN--\":29:30   */\n      0x00\n        /* \"--CODEGEN--\":26:27   */\n      dup1\n        /* \"--CODEGEN--\":19:31   */\n      revert\n        /* \"--CODEGEN--\":2:4   */\n    tag_40:\n        /* \"gameprofits-galactic-spdgcs-contracts/networkERC20/gameCash.sol\":4208:4433  function approve(address _spender, uint256 _value) public\r... */\n      dup2\n      add\n      swap1\n      dup1\n      dup1\n      calldataload\n      0xffffffffffffffffffffffffffffffffffffffff\n      and\n      swap1\n      0x20\n      add\n      swap1\n      swap3\n      swap2\n      swap1\n      dup1\n      calldataload\n      swap1\n      0x20\n      add\n      swap1\n      swap3\n      swap2\n      swap1\n      pop\n      pop\n      pop\n      tag_41\n      jump\t// in\n    tag_39:\n      mload(0x40)\n      dup1\n      dup3\n      iszero\n      iszero\n      iszero\n      iszero\n      dup2\n      mstore\n      0x20\n      add\n      swap2\n      pop\n      pop\n      mload(0x40)\n      dup1\n      swap2\n      sub\n      swap1\n      return\n        /* \"gameprofits-galactic-spdgcs-contracts/networkERC20/gameCash.sol\":707:733  uint256 public totalSupply */\n    tag_5:\n      callvalue\n        /* \"--CODEGEN--\":8:17   */\n      dup1\n        /* \"--CODEGEN--\":5:7   */\n      iszero\n      tag_42\n      jumpi\n        /* \"--CODEGEN--\":30:31   */\n      0x00\n        /* \"--CODEGEN--\":27:28   */\n      dup1\n        /* \"--CODEGEN--\":20:32   */\n      revert\n        /* \"--CODEGEN--\":5:7   */\n    tag_42:\n        /* \"gameprofits-galactic-spdgcs-contracts/networkERC20/gameCash.sol\":707:733  uint256 public totalSupply */\n      pop\n      tag_43\n      tag_44\n      jump\t// in\n    tag_43:\n      mload(0x40)\n      dup1\n      dup3\n      dup2\n      mstore\n      0x20\n      add\n      swap2\n      pop\n      pop\n      mload(0x40)\n      dup1\n      swap2\n      sub\n      swap1\n      return\n        /* \"gameprofits-galactic-spdgcs-contracts/networkERC20/gameCash.sol\":3643:3939  function transferFrom(address _from, address _to, uint256 _value) public returns (bool success) {\r... */\n    tag_6:\n      callvalue\n        /* \"--CODEGEN--\":8:17   */\n      dup1\n        /* \"--CODEGEN--\":5:7   */\n      iszero\n      tag_45\n      jumpi\n        /* \"--CODEGEN--\":30:31   */\n      0x00\n        /* \"--CODEGEN--\":27:28   */\n      dup1\n        /* \"--CODEGEN--\":20:32   */\n      revert\n        /* \"--CODEGEN--\":5:7   */\n    tag_45:\n        /* \"gameprofits-galactic-spdgcs-contracts/networkERC20/gameCash.sol\":3643:3939  function transferFrom(address _from, address _to, uint256 _value) public returns (bool success) {\r... */\n      pop\n      tag_46\n      0x04\n      dup1\n      calldatasize\n      sub\n        /* \"--CODEGEN--\":13:15   */\n      0x60\n        /* \"--CODEGEN--\":8:11   */\n      dup2\n        /* \"--CODEGEN--\":5:16   */\n      lt\n        /* \"--CODEGEN--\":2:4   */\n      iszero\n      tag_47\n      jumpi\n        /* \"--CODEGEN--\":29:30   */\n      0x00\n        /* \"--CODEGEN--\":26:27   */\n      dup1\n        /* \"--CODEGEN--\":19:31   */\n      revert\n        /* \"--CODEGEN--\":2:4   */\n    tag_47:\n        /* \"gameprofits-galactic-spdgcs-contracts/networkERC20/gameCash.sol\":3643:3939  function transferFrom(address _from, address _to, uint256 _value) public returns (bool success) {\r... */\n      dup2\n      add\n      swap1\n      dup1\n      dup1\n      calldataload\n      0xffffffffffffffffffffffffffffffffffffffff\n      and\n      swap1\n      0x20\n      add\n      swap1\n      swap3\n      swap2\n      swap1\n      dup1\n      calldataload\n      0xffffffffffffffffffffffffffffffffffffffff\n      and\n      swap1\n      0x20\n      add\n      swap1\n      swap3\n      swap2\n      swap1\n      dup1\n      calldataload\n      swap1\n      0x20\n      add\n      swap1\n      swap3\n      swap2\n      swap1\n      pop\n      pop\n      pop\n      tag_48\n      jump\t// in\n    tag_46:\n      mload(0x40)\n      dup1\n      dup3\n      iszero\n      iszero\n      iszero\n      iszero\n      dup2\n      mstore\n      0x20\n      add\n      swap2\n      pop\n      pop\n      mload(0x40)\n      dup1\n      swap2\n      sub\n      swap1\n      return\n        /* \"gameprofits-galactic-spdgcs-contracts/networkERC20/gameCash.sol\":601:627  uint8 public decimals = 18 */\n    tag_7:\n      callvalue\n        /* \"--CODEGEN--\":8:17   */\n      dup1\n        /* \"--CODEGEN--\":5:7   */\n      iszero\n      tag_49\n      jumpi\n        /* \"--CODEGEN--\":30:31   */\n      0x00\n        /* \"--CODEGEN--\":27:28   */\n      dup1\n        /* \"--CODEGEN--\":20:32   */\n      revert\n        /* \"--CODEGEN--\":5:7   */\n    tag_49:\n        /* \"gameprofits-galactic-spdgcs-contracts/networkERC20/gameCash.sol\":601:627  uint8 public decimals = 18 */\n      pop\n      tag_50\n      tag_51\n      jump\t// in\n    tag_50:\n      mload(0x40)\n      dup1\n      dup3\n      0xff\n      and\n      0xff\n      and\n      dup2\n      mstore\n      0x20\n      add\n      swap2\n      pop\n      pop\n      mload(0x40)\n      dup1\n      swap2\n      sub\n      swap1\n      return\n        /* \"gameprofits-galactic-spdgcs-contracts/networkERC20/gameCash.sol\":5370:5744  function burn(uint256 _value) public returns (bool success) {\r... */\n    tag_8:\n      callvalue\n        /* \"--CODEGEN--\":8:17   */\n      dup1\n        /* \"--CODEGEN--\":5:7   */\n      iszero\n      tag_52\n      jumpi\n        /* \"--CODEGEN--\":30:31   */\n      0x00\n        /* \"--CODEGEN--\":27:28   */\n      dup1\n        /* \"--CODEGEN--\":20:32   */\n      revert\n        /* \"--CODEGEN--\":5:7   */\n    tag_52:\n        /* \"gameprofits-galactic-spdgcs-contracts/networkERC20/gameCash.sol\":5370:5744  function burn(uint256 _value) public returns (bool success) {\r... */\n      pop\n      tag_53\n      0x04\n      dup1\n      calldatasize\n      sub\n        /* \"--CODEGEN--\":13:15   */\n      0x20\n        /* \"--CODEGEN--\":8:11   */\n      dup2\n        /* \"--CODEGEN--\":5:16   */\n      lt\n        /* \"--CODEGEN--\":2:4   */\n      iszero\n      tag_54\n      jumpi\n        /* \"--CODEGEN--\":29:30   */\n      0x00\n        /* \"--CODEGEN--\":26:27   */\n      dup1\n        /* \"--CODEGEN--\":19:31   */\n      revert\n        /* \"--CODEGEN--\":2:4   */\n    tag_54:\n        /* \"gameprofits-galactic-spdgcs-contracts/networkERC20/gameCash.sol\":5370:5744  function burn(uint256 _value) public returns (bool success) {\r... */\n      dup2\n      add\n      swap1\n      dup1\n      dup1\n      calldataload\n      swap1\n      0x20\n      add\n      swap1\n      swap3\n      swap2\n      swap1\n      pop\n      pop\n      pop\n      tag_55\n      jump\t// in\n    tag_53:\n      mload(0x40)\n      dup1\n      dup3\n      iszero\n      iszero\n      iszero\n      iszero\n      dup2\n      mstore\n      0x20\n      add\n      swap2\n      pop\n      pop\n      mload(0x40)\n      dup1\n      swap2\n      sub\n      swap1\n      return\n        /* \"gameprofits-galactic-spdgcs-contracts/networkERC20/gameCash.sol\":6820:6844  uint256 public sellPrice */\n    tag_9:\n      callvalue\n        /* \"--CODEGEN--\":8:17   */\n      dup1\n        /* \"--CODEGEN--\":5:7   */\n      iszero\n      tag_56\n      jumpi\n        /* \"--CODEGEN--\":30:31   */\n      0x00\n        /* \"--CODEGEN--\":27:28   */\n      dup1\n        /* \"--CODEGEN--\":20:32   */\n      revert\n        /* \"--CODEGEN--\":5:7   */\n    tag_56:\n        /* \"gameprofits-galactic-spdgcs-contracts/networkERC20/gameCash.sol\":6820:6844  uint256 public sellPrice */\n      pop\n      tag_57\n      tag_58\n      jump\t// in\n    tag_57:\n      mload(0x40)\n      dup1\n      dup3\n      dup2\n      mstore\n      0x20\n      add\n      swap2\n      pop\n      pop\n      mload(0x40)\n      dup1\n      swap2\n      sub\n      swap1\n      return\n        /* \"gameprofits-galactic-spdgcs-contracts/networkERC20/gameCash.sol\":790:835  mapping (address => uint256) public balanceOf */\n    tag_10:\n      callvalue\n        /* \"--CODEGEN--\":8:17   */\n      dup1\n        /* \"--CODEGEN--\":5:7   */\n      iszero\n      tag_59\n      jumpi\n        /* \"--CODEGEN--\":30:31   */\n      0x00\n        /* \"--CODEGEN--\":27:28   */\n      dup1\n        /* \"--CODEGEN--\":20:32   */\n      revert\n        /* \"--CODEGEN--\":5:7   */\n    tag_59:\n        /* \"gameprofits-galactic-spdgcs-contracts/networkERC20/gameCash.sol\":790:835  mapping (address => uint256) public balanceOf */\n      pop\n      tag_60\n      0x04\n      dup1\n      calldatasize\n      sub\n        /* \"--CODEGEN--\":13:15   */\n      0x20\n        /* \"--CODEGEN--\":8:11   */\n      dup2\n        /* \"--CODEGEN--\":5:16   */\n      lt\n        /* \"--CODEGEN--\":2:4   */\n      iszero\n      tag_61\n      jumpi\n        /* \"--CODEGEN--\":29:30   */\n      0x00\n        /* \"--CODEGEN--\":26:27   */\n      dup1\n        /* \"--CODEGEN--\":19:31   */\n      revert\n        /* \"--CODEGEN--\":2:4   */\n    tag_61:\n        /* \"gameprofits-galactic-spdgcs-contracts/networkERC20/gameCash.sol\":790:835  mapping (address => uint256) public balanceOf */\n      dup2\n      add\n      swap1\n      dup1\n      dup1\n      calldataload\n      0xffffffffffffffffffffffffffffffffffffffff\n      and\n      swap1\n      0x20\n      add\n      swap1\n      swap3\n      swap2\n      swap1\n      pop\n      pop\n      pop\n      tag_62\n      jump\t// in\n    tag_60:\n      mload(0x40)\n      dup1\n      dup3\n      dup2\n      mstore\n      0x20\n      add\n      swap2\n      pop\n      pop\n      mload(0x40)\n      dup1\n      swap2\n      sub\n      swap1\n      return\n        /* \"gameprofits-galactic-spdgcs-contracts/networkERC20/gameCash.sol\":8428:8718  function mintToken(address target, uint256 mintedAmount) onlyOwner public {\r... */\n    tag_11:\n      callvalue\n        /* \"--CODEGEN--\":8:17   */\n      dup1\n        /* \"--CODEGEN--\":5:7   */\n      iszero\n      tag_63\n      jumpi\n        /* \"--CODEGEN--\":30:31   */\n      0x00\n        /* \"--CODEGEN--\":27:28   */\n      dup1\n        /* \"--CODEGEN--\":20:32   */\n      revert\n        /* \"--CODEGEN--\":5:7   */\n    tag_63:\n        /* \"gameprofits-galactic-spdgcs-contracts/networkERC20/gameCash.sol\":8428:8718  function mintToken(address target, uint256 mintedAmount) onlyOwner public {\r... */\n      pop\n      tag_64\n      0x04\n      dup1\n      calldatasize\n      sub\n        /* \"--CODEGEN--\":13:15   */\n      0x40\n        /* \"--CODEGEN--\":8:11   */\n      dup2\n        /* \"--CODEGEN--\":5:16   */\n      lt\n        /* \"--CODEGEN--\":2:4   */\n      iszero\n      tag_65\n      jumpi\n        /* \"--CODEGEN--\":29:30   */\n      0x00\n        /* \"--CODEGEN--\":26:27   */\n      dup1\n        /* \"--CODEGEN--\":19:31   */\n      revert\n        /* \"--CODEGEN--\":2:4   */\n    tag_65:\n        /* \"gameprofits-galactic-spdgcs-contracts/networkERC20/gameCash.sol\":8428:8718  function mintToken(address target, uint256 mintedAmount) onlyOwner public {\r... */\n      dup2\n      add\n      swap1\n      dup1\n      dup1\n      calldataload\n      0xffffffffffffffffffffffffffffffffffffffff\n      and\n      swap1\n      0x20\n      add\n      swap1\n      swap3\n      swap2\n      swap1\n      dup1\n      calldataload\n      swap1\n      0x20\n      add\n      swap1\n      swap3\n      swap2\n      swap1\n      pop\n      pop\n      pop\n      tag_66\n      jump\t// in\n    tag_64:\n      stop\n        /* \"gameprofits-galactic-spdgcs-contracts/networkERC20/gameCash.sol\":6007:6618  function burnFrom(address _from, uint256 _value) public returns (bool success) {\r... */\n    tag_12:\n      callvalue\n        /* \"--CODEGEN--\":8:17   */\n      dup1\n        /* \"--CODEGEN--\":5:7   */\n      iszero\n      tag_67\n      jumpi\n        /* \"--CODEGEN--\":30:31   */\n      0x00\n        /* \"--CODEGEN--\":27:28   */\n      dup1\n        /* \"--CODEGEN--\":20:32   */\n      revert\n        /* \"--CODEGEN--\":5:7   */\n    tag_67:\n        /* \"gameprofits-galactic-spdgcs-contracts/networkERC20/gameCash.sol\":6007:6618  function burnFrom(address _from, uint256 _value) public returns (bool success) {\r... */\n      pop\n      tag_68\n      0x04\n      dup1\n      calldatasize\n      sub\n        /* \"--CODEGEN--\":13:15   */\n      0x40\n        /* \"--CODEGEN--\":8:11   */\n      dup2\n        /* \"--CODEGEN--\":5:16   */\n      lt\n        /* \"--CODEGEN--\":2:4   */\n      iszero\n      tag_69\n      jumpi\n        /* \"--CODEGEN--\":29:30   */\n      0x00\n        /* \"--CODEGEN--\":26:27   */\n      dup1\n        /* \"--CODEGEN--\":19:31   */\n      revert\n        /* \"--CODEGEN--\":2:4   */\n    tag_69:\n        /* \"gameprofits-galactic-spdgcs-contracts/networkERC20/gameCash.sol\":6007:6618  function burnFrom(address _from, uint256 _value) public returns (bool success) {\r... */\n      dup2\n      add\n      swap1\n      dup1\n      dup1\n      calldataload\n      0xffffffffffffffffffffffffffffffffffffffff\n      and\n      swap1\n      0x20\n      add\n      swap1\n      swap3\n      swap2\n      swap1\n      dup1\n      calldataload\n      swap1\n      0x20\n      add\n      swap1\n      swap3\n      swap2\n      swap1\n      pop\n      pop\n      pop\n      tag_70\n      jump\t// in\n    tag_68:\n      mload(0x40)\n      dup1\n      dup3\n      iszero\n      iszero\n      iszero\n      iszero\n      dup2\n      mstore\n      0x20\n      add\n      swap2\n      pop\n      pop\n      mload(0x40)\n      dup1\n      swap2\n      sub\n      swap1\n      return\n        /* \"gameprofits-galactic-spdgcs-contracts/networkERC20/gameCash.sol\":6851:6874  uint256 public buyPrice */\n    tag_13:\n      callvalue\n        /* \"--CODEGEN--\":8:17   */\n      dup1\n        /* \"--CODEGEN--\":5:7   */\n      iszero\n      tag_71\n      jumpi\n        /* \"--CODEGEN--\":30:31   */\n      0x00\n        /* \"--CODEGEN--\":27:28   */\n      dup1\n        /* \"--CODEGEN--\":20:32   */\n      revert\n        /* \"--CODEGEN--\":5:7   */\n    tag_71:\n        /* \"gameprofits-galactic-spdgcs-contracts/networkERC20/gameCash.sol\":6851:6874  uint256 public buyPrice */\n      pop\n      tag_72\n      tag_73\n      jump\t// in\n    tag_72:\n      mload(0x40)\n      dup1\n      dup3\n      dup2\n      mstore\n      0x20\n      add\n      swap2\n      pop\n      pop\n      mload(0x40)\n      dup1\n      swap2\n      sub\n      swap1\n      return\n        /* \"gameprofits-galactic-spdgcs-contracts/networkERC20/gameCash.sol\":58:78  address public owner */\n    tag_14:\n      callvalue\n        /* \"--CODEGEN--\":8:17   */\n      dup1\n        /* \"--CODEGEN--\":5:7   */\n      iszero\n      tag_74\n      jumpi\n        /* \"--CODEGEN--\":30:31   */\n      0x00\n        /* \"--CODEGEN--\":27:28   */\n      dup1\n        /* \"--CODEGEN--\":20:32   */\n      revert\n        /* \"--CODEGEN--\":5:7   */\n    tag_74:\n        /* \"gameprofits-galactic-spdgcs-contracts/networkERC20/gameCash.sol\":58:78  address public owner */\n      pop\n      tag_75\n      tag_76\n      jump\t// in\n    tag_75:\n      mload(0x40)\n      dup1\n      dup3\n      0xffffffffffffffffffffffffffffffffffffffff\n      and\n      0xffffffffffffffffffffffffffffffffffffffff\n      and\n      dup2\n      mstore\n      0x20\n      add\n      swap2\n      pop\n      pop\n      mload(0x40)\n      dup1\n      swap2\n      sub\n      swap1\n      return\n        /* \"gameprofits-galactic-spdgcs-contracts/networkERC20/gameCash.sol\":574:594  string public symbol */\n    tag_15:\n      callvalue\n        /* \"--CODEGEN--\":8:17   */\n      dup1\n        /* \"--CODEGEN--\":5:7   */\n      iszero\n      tag_77\n      jumpi\n        /* \"--CODEGEN--\":30:31   */\n      0x00\n        /* \"--CODEGEN--\":27:28   */\n      dup1\n        /* \"--CODEGEN--\":20:32   */\n      revert\n        /* \"--CODEGEN--\":5:7   */\n    tag_77:\n        /* \"gameprofits-galactic-spdgcs-contracts/networkERC20/gameCash.sol\":574:594  string public symbol */\n      pop\n      tag_78\n      tag_79\n      jump\t// in\n    tag_78:\n      mload(0x40)\n      dup1\n      dup1\n      0x20\n      add\n      dup3\n      dup2\n      sub\n      dup3\n      mstore\n      dup4\n      dup2\n      dup2\n      mload\n      dup2\n      mstore\n      0x20\n      add\n      swap2\n      pop\n      dup1\n      mload\n      swap1\n      0x20\n      add\n      swap1\n      dup1\n      dup4\n      dup4\n        /* \"--CODEGEN--\":23:24   */\n      0x00\n        /* \"--CODEGEN--\":8:108   */\n    tag_80:\n        /* \"--CODEGEN--\":33:36   */\n      dup4\n        /* \"--CODEGEN--\":30:31   */\n      dup2\n        /* \"--CODEGEN--\":27:37   */\n      lt\n        /* \"--CODEGEN--\":8:108   */\n      iszero\n      tag_82\n      jumpi\n        /* \"--CODEGEN--\":99:100   */\n      dup1\n        /* \"--CODEGEN--\":94:97   */\n      dup3\n        /* \"--CODEGEN--\":90:101   */\n      add\n        /* \"--CODEGEN--\":84:102   */\n      mload\n        /* \"--CODEGEN--\":80:81   */\n      dup2\n        /* \"--CODEGEN--\":75:78   */\n      dup5\n        /* \"--CODEGEN--\":71:82   */\n      add\n        /* \"--CODEGEN--\":64:103   */\n      mstore\n        /* \"--CODEGEN--\":52:54   */\n      0x20\n        /* \"--CODEGEN--\":49:50   */\n      dup2\n        /* \"--CODEGEN--\":45:55   */\n      add\n        /* \"--CODEGEN--\":40:55   */\n      swap1\n      pop\n        /* \"--CODEGEN--\":8:108   */\n      jump(tag_80)\n    tag_82:\n        /* \"--CODEGEN--\":12:26   */\n      pop\n        /* \"gameprofits-galactic-spdgcs-contracts/networkERC20/gameCash.sol\":574:594  string public symbol */\n      pop\n      pop\n      pop\n      swap1\n      pop\n      swap1\n      dup2\n      add\n      swap1\n      0x1f\n      and\n      dup1\n      iszero\n      tag_83\n      jumpi\n      dup1\n      dup3\n      sub\n      dup1\n      mload\n      0x01\n      dup4\n      0x20\n      sub\n      0x0100\n      exp\n      sub\n      not\n      and\n      dup2\n      mstore\n      0x20\n      add\n      swap2\n      pop\n    tag_83:\n      pop\n      swap3\n      pop\n      pop\n      pop\n      mload(0x40)\n      dup1\n      swap2\n      sub\n      swap1\n      return\n        /* \"gameprofits-galactic-spdgcs-contracts/networkERC20/gameCash.sol\":9535:9743  function buy() payable public {\r... */\n    tag_16:\n      tag_84\n      tag_85\n      jump\t// in\n    tag_84:\n      stop\n        /* \"gameprofits-galactic-spdgcs-contracts/networkERC20/gameCash.sol\":3211:3363  function transfer(address _to, uint256 _value) public returns (bool success) {\r... */\n    tag_17:\n      callvalue\n        /* \"--CODEGEN--\":8:17   */\n      dup1\n        /* \"--CODEGEN--\":5:7   */\n      iszero\n      tag_86\n      jumpi\n        /* \"--CODEGEN--\":30:31   */\n      0x00\n        /* \"--CODEGEN--\":27:28   */\n      dup1\n        /* \"--CODEGEN--\":20:32   */\n      revert\n        /* \"--CODEGEN--\":5:7   */\n    tag_86:\n        /* \"gameprofits-galactic-spdgcs-contracts/networkERC20/gameCash.sol\":3211:3363  function transfer(address _to, uint256 _value) public returns (bool success) {\r... */\n      pop\n      tag_87\n      0x04\n      dup1\n      calldatasize\n      sub\n        /* \"--CODEGEN--\":13:15   */\n      0x40\n        /* \"--CODEGEN--\":8:11   */\n      dup2\n        /* \"--CODEGEN--\":5:16   */\n      lt\n        /* \"--CODEGEN--\":2:4   */\n      iszero\n      tag_88\n      jumpi\n        /* \"--CODEGEN--\":29:30   */\n      0x00\n        /* \"--CODEGEN--\":26:27   */\n      dup1\n        /* \"--CODEGEN--\":19:31   */\n      revert\n        /* \"--CODEGEN--\":2:4   */\n    tag_88:\n        /* \"gameprofits-galactic-spdgcs-contracts/networkERC20/gameCash.sol\":3211:3363  function transfer(address _to, uint256 _value) public returns (bool success) {\r... */\n      dup2\n      add\n      swap1\n      dup1\n      dup1\n      calldataload\n      0xffffffffffffffffffffffffffffffffffffffff\n      and\n      swap1\n      0x20\n      add\n      swap1\n      swap3\n      swap2\n      swap1\n      dup1\n      calldataload\n      swap1\n      0x20\n      add\n      swap1\n      swap3\n      swap2\n      swap1\n      pop\n      pop\n      pop\n      tag_89\n      jump\t// in\n    tag_87:\n      mload(0x40)\n      dup1\n      dup3\n      iszero\n      iszero\n      iszero\n      iszero\n      dup2\n      mstore\n      0x20\n      add\n      swap2\n      pop\n      pop\n      mload(0x40)\n      dup1\n      swap2\n      sub\n      swap1\n      return\n        /* \"gameprofits-galactic-spdgcs-contracts/networkERC20/gameCash.sol\":6883:6929  mapping (address => bool) public frozenAccount */\n    tag_18:\n      callvalue\n        /* \"--CODEGEN--\":8:17   */\n      dup1\n        /* \"--CODEGEN--\":5:7   */\n      iszero\n      tag_90\n      jumpi\n        /* \"--CODEGEN--\":30:31   */\n      0x00\n        /* \"--CODEGEN--\":27:28   */\n      dup1\n        /* \"--CODEGEN--\":20:32   */\n      revert\n        /* \"--CODEGEN--\":5:7   */\n    tag_90:\n        /* \"gameprofits-galactic-spdgcs-contracts/networkERC20/gameCash.sol\":6883:6929  mapping (address => bool) public frozenAccount */\n      pop\n      tag_91\n      0x04\n      dup1\n      calldatasize\n      sub\n        /* \"--CODEGEN--\":13:15   */\n      0x20\n        /* \"--CODEGEN--\":8:11   */\n      dup2\n        /* \"--CODEGEN--\":5:16   */\n      lt\n        /* \"--CODEGEN--\":2:4   */\n      iszero\n      tag_92\n      jumpi\n        /* \"--CODEGEN--\":29:30   */\n      0x00\n        /* \"--CODEGEN--\":26:27   */\n      dup1\n        /* \"--CODEGEN--\":19:31   */\n      revert\n        /* \"--CODEGEN--\":2:4   */\n    tag_92:\n        /* \"gameprofits-galactic-spdgcs-contracts/networkERC20/gameCash.sol\":6883:6929  mapping (address => bool) public frozenAccount */\n      dup2\n      add\n      swap1\n      dup1\n      dup1\n      calldataload\n      0xffffffffffffffffffffffffffffffffffffffff\n      and\n      swap1\n      0x20\n      add\n      swap1\n      swap3\n      swap2\n      swap1\n      pop\n      pop\n      pop\n      tag_93\n      jump\t// in\n    tag_91:\n      mload(0x40)\n      dup1\n      dup3\n      iszero\n      iszero\n      iszero\n      iszero\n      dup2\n      mstore\n      0x20\n      add\n      swap2\n      pop\n      pop\n      mload(0x40)\n      dup1\n      swap2\n      sub\n      swap1\n      return\n        /* \"gameprofits-galactic-spdgcs-contracts/networkERC20/gameCash.sol\":4832:5195  function approveAndCall(address _spender, uint256 _value, bytes memory _extraData)\r... */\n    tag_19:\n      callvalue\n        /* \"--CODEGEN--\":8:17   */\n      dup1\n        /* \"--CODEGEN--\":5:7   */\n      iszero\n      tag_94\n      jumpi\n        /* \"--CODEGEN--\":30:31   */\n      0x00\n        /* \"--CODEGEN--\":27:28   */\n      dup1\n        /* \"--CODEGEN--\":20:32   */\n      revert\n        /* \"--CODEGEN--\":5:7   */\n    tag_94:\n        /* \"gameprofits-galactic-spdgcs-contracts/networkERC20/gameCash.sol\":4832:5195  function approveAndCall(address _spender, uint256 _value, bytes memory _extraData)\r... */\n      pop\n      tag_95\n      0x04\n      dup1\n      calldatasize\n      sub\n        /* \"--CODEGEN--\":13:15   */\n      0x60\n        /* \"--CODEGEN--\":8:11   */\n      dup2\n        /* \"--CODEGEN--\":5:16   */\n      lt\n        /* \"--CODEGEN--\":2:4   */\n      iszero\n      tag_96\n      jumpi\n        /* \"--CODEGEN--\":29:30   */\n      0x00\n        /* \"--CODEGEN--\":26:27   */\n      dup1\n        /* \"--CODEGEN--\":19:31   */\n      revert\n        /* \"--CODEGEN--\":2:4   */\n    tag_96:\n        /* \"gameprofits-galactic-spdgcs-contracts/networkERC20/gameCash.sol\":4832:5195  function approveAndCall(address _spender, uint256 _value, bytes memory _extraData)\r... */\n      dup2\n      add\n      swap1\n      dup1\n      dup1\n      calldataload\n      0xffffffffffffffffffffffffffffffffffffffff\n      and\n      swap1\n      0x20\n      add\n      swap1\n      swap3\n      swap2\n      swap1\n      dup1\n      calldataload\n      swap1\n      0x20\n      add\n      swap1\n      swap3\n      swap2\n      swap1\n      dup1\n      calldataload\n      swap1\n      0x20\n      add\n      swap1\n        /* \"--CODEGEN--\":21:32   */\n      0x0100000000\n        /* \"--CODEGEN--\":8:19   */\n      dup2\n        /* \"--CODEGEN--\":5:33   */\n      gt\n        /* \"--CODEGEN--\":2:4   */\n      iszero\n      tag_97\n      jumpi\n        /* \"--CODEGEN--\":46:47   */\n      0x00\n        /* \"--CODEGEN--\":43:44   */\n      dup1\n        /* \"--CODEGEN--\":36:48   */\n      revert\n        /* \"--CODEGEN--\":2:4   */\n    tag_97:\n        /* \"gameprofits-galactic-spdgcs-contracts/networkERC20/gameCash.sol\":4832:5195  function approveAndCall(address _spender, uint256 _value, bytes memory _extraData)\r... */\n      dup3\n      add\n        /* \"--CODEGEN--\":35:44   */\n      dup4\n        /* \"--CODEGEN--\":28:32   */\n      0x20\n        /* \"--CODEGEN--\":12:26   */\n      dup3\n        /* \"--CODEGEN--\":8:33   */\n      add\n        /* \"--CODEGEN--\":5:45   */\n      gt\n        /* \"--CODEGEN--\":2:4   */\n      iszero\n      tag_98\n      jumpi\n        /* \"--CODEGEN--\":58:59   */\n      0x00\n        /* \"--CODEGEN--\":55:56   */\n      dup1\n        /* \"--CODEGEN--\":48:60   */\n      revert\n        /* \"--CODEGEN--\":2:4   */\n    tag_98:\n        /* \"gameprofits-galactic-spdgcs-contracts/networkERC20/gameCash.sol\":4832:5195  function approveAndCall(address _spender, uint256 _value, bytes memory _extraData)\r... */\n      dup1\n      calldataload\n      swap1\n      0x20\n      add\n      swap2\n        /* \"--CODEGEN--\":100:109   */\n      dup5\n        /* \"--CODEGEN--\":95:96   */\n      0x01\n        /* \"--CODEGEN--\":81:93   */\n      dup4\n        /* \"--CODEGEN--\":77:97   */\n      mul\n        /* \"--CODEGEN--\":67:75   */\n      dup5\n        /* \"--CODEGEN--\":63:98   */\n      add\n        /* \"--CODEGEN--\":60:110   */\n      gt\n        /* \"--CODEGEN--\":39:50   */\n      0x0100000000\n        /* \"--CODEGEN--\":25:37   */\n      dup4\n        /* \"--CODEGEN--\":22:51   */\n      gt\n        /* \"--CODEGEN--\":11:118   */\n      or\n        /* \"--CODEGEN--\":8:10   */\n      iszero\n      tag_99\n      jumpi\n        /* \"--CODEGEN--\":131:132   */\n      0x00\n        /* \"--CODEGEN--\":128:129   */\n      dup1\n        /* \"--CODEGEN--\":121:133   */\n      revert\n        /* \"--CODEGEN--\":8:10   */\n    tag_99:\n        /* \"gameprofits-galactic-spdgcs-contracts/networkERC20/gameCash.sol\":4832:5195  function approveAndCall(address _spender, uint256 _value, bytes memory _extraData)\r... */\n      swap2\n      swap1\n      dup1\n      dup1\n      0x1f\n      add\n      0x20\n      dup1\n      swap2\n      div\n      mul\n      0x20\n      add\n      mload(0x40)\n      swap1\n      dup2\n      add\n      0x40\n      mstore\n      dup1\n      swap4\n      swap3\n      swap2\n      swap1\n      dup2\n      dup2\n      mstore\n      0x20\n      add\n      dup4\n      dup4\n        /* \"--CODEGEN--\":30:33   */\n      dup1\n        /* \"--CODEGEN--\":22:28   */\n      dup3\n        /* \"--CODEGEN--\":14:20   */\n      dup5\n        /* \"--CODEGEN--\":1:34   */\n      calldatacopy\n        /* \"--CODEGEN--\":99:100   */\n      0x00\n        /* \"--CODEGEN--\":93:96   */\n      dup2\n        /* \"--CODEGEN--\":85:91   */\n      dup5\n        /* \"--CODEGEN--\":81:97   */\n      add\n        /* \"--CODEGEN--\":74:101   */\n      mstore\n        /* \"--CODEGEN--\":137:141   */\n      0x1f\n        /* \"--CODEGEN--\":133:142   */\n      not\n        /* \"--CODEGEN--\":126:130   */\n      0x1f\n        /* \"--CODEGEN--\":121:124   */\n      dup3\n        /* \"--CODEGEN--\":117:131   */\n      add\n        /* \"--CODEGEN--\":113:143   */\n      and\n        /* \"--CODEGEN--\":106:143   */\n      swap1\n      pop\n        /* \"--CODEGEN--\":169:172   */\n      dup1\n        /* \"--CODEGEN--\":161:167   */\n      dup4\n        /* \"--CODEGEN--\":157:173   */\n      add\n        /* \"--CODEGEN--\":147:173   */\n      swap3\n      pop\n        /* \"gameprofits-galactic-spdgcs-contracts/networkERC20/gameCash.sol\":4832:5195  function approveAndCall(address _spender, uint256 _value, bytes memory _extraData)\r... */\n      pop\n      pop\n      pop\n      pop\n      pop\n      pop\n      swap2\n      swap3\n      swap2\n      swap3\n      swap1\n      pop\n      pop\n      pop\n      tag_100\n      jump\t// in\n    tag_95:\n      mload(0x40)\n      dup1\n      dup3\n      iszero\n      iszero\n      iszero\n      iszero\n      dup2\n      mstore\n      0x20\n      add\n      swap2\n      pop\n      pop\n      mload(0x40)\n      dup1\n      swap2\n      sub\n      swap1\n      return\n        /* \"gameprofits-galactic-spdgcs-contracts/networkERC20/gameCash.sol\":842:908  mapping (address => mapping (address => uint256)) public allowance */\n    tag_20:\n      callvalue\n        /* \"--CODEGEN--\":8:17   */\n      dup1\n        /* \"--CODEGEN--\":5:7   */\n      iszero\n      tag_101\n      jumpi\n        /* \"--CODEGEN--\":30:31   */\n      0x00\n        /* \"--CODEGEN--\":27:28   */\n      dup1\n        /* \"--CODEGEN--\":20:32   */\n      revert\n        /* \"--CODEGEN--\":5:7   */\n    tag_101:\n        /* \"gameprofits-galactic-spdgcs-contracts/networkERC20/gameCash.sol\":842:908  mapping (address => mapping (address => uint256)) public allowance */\n      pop\n      tag_102\n      0x04\n      dup1\n      calldatasize\n      sub\n        /* \"--CODEGEN--\":13:15   */\n      0x40\n        /* \"--CODEGEN--\":8:11   */\n      dup2\n        /* \"--CODEGEN--\":5:16   */\n      lt\n        /* \"--CODEGEN--\":2:4   */\n      iszero\n      tag_103\n      jumpi\n        /* \"--CODEGEN--\":29:30   */\n      0x00\n        /* \"--CODEGEN--\":26:27   */\n      dup1\n        /* \"--CODEGEN--\":19:31   */\n      revert\n        /* \"--CODEGEN--\":2:4   */\n    tag_103:\n        /* \"gameprofits-galactic-spdgcs-contracts/networkERC20/gameCash.sol\":842:908  mapping (address => mapping (address => uint256)) public allowance */\n      dup2\n      add\n      swap1\n      dup1\n      dup1\n      calldataload\n      0xffffffffffffffffffffffffffffffffffffffff\n      and\n      swap1\n      0x20\n      add\n      swap1\n      swap3\n      swap2\n      swap1\n      dup1\n      calldataload\n      0xffffffffffffffffffffffffffffffffffffffff\n      and\n      swap1\n      0x20\n      add\n      swap1\n      swap3\n      swap2\n      swap1\n      pop\n      pop\n      pop\n      tag_104\n      jump\t// in\n    tag_102:\n      mload(0x40)\n      dup1\n      dup3\n      dup2\n      mstore\n      0x20\n      add\n      swap2\n      pop\n      pop\n      mload(0x40)\n      dup1\n      swap2\n      sub\n      swap1\n      return\n        /* \"gameprofits-galactic-spdgcs-contracts/networkERC20/gameCash.sol\":9852:10285  function sell(uint256 amount) public {\r... */\n    tag_21:\n      callvalue\n        /* \"--CODEGEN--\":8:17   */\n      dup1\n        /* \"--CODEGEN--\":5:7   */\n      iszero\n      tag_105\n      jumpi\n        /* \"--CODEGEN--\":30:31   */\n      0x00\n        /* \"--CODEGEN--\":27:28   */\n      dup1\n        /* \"--CODEGEN--\":20:32   */\n      revert\n        /* \"--CODEGEN--\":5:7   */\n    tag_105:\n        /* \"gameprofits-galactic-spdgcs-contracts/networkERC20/gameCash.sol\":9852:10285  function sell(uint256 amount) public {\r... */\n      pop\n      tag_106\n      0x04\n      dup1\n      calldatasize\n      sub\n        /* \"--CODEGEN--\":13:15   */\n      0x20\n        /* \"--CODEGEN--\":8:11   */\n      dup2\n        /* \"--CODEGEN--\":5:16   */\n      lt\n        /* \"--CODEGEN--\":2:4   */\n      iszero\n      tag_107\n      jumpi\n        /* \"--CODEGEN--\":29:30   */\n      0x00\n        /* \"--CODEGEN--\":26:27   */\n      dup1\n        /* \"--CODEGEN--\":19:31   */\n      revert\n        /* \"--CODEGEN--\":2:4   */\n    tag_107:\n        /* \"gameprofits-galactic-spdgcs-contracts/networkERC20/gameCash.sol\":9852:10285  function sell(uint256 amount) public {\r... */\n      dup2\n      add\n      swap1\n      dup1\n      dup1\n      calldataload\n      swap1\n      0x20\n      add\n      swap1\n      swap3\n      swap2\n      swap1\n      pop\n      pop\n      pop\n      tag_108\n      jump\t// in\n    tag_106:\n      stop\n        /* \"gameprofits-galactic-spdgcs-contracts/networkERC20/gameCash.sol\":8904:9065  function freezeAccount(address target, bool freeze) onlyOwner public {\r... */\n    tag_22:\n      callvalue\n        /* \"--CODEGEN--\":8:17   */\n      dup1\n        /* \"--CODEGEN--\":5:7   */\n      iszero\n      tag_109\n      jumpi\n        /* \"--CODEGEN--\":30:31   */\n      0x00\n        /* \"--CODEGEN--\":27:28   */\n      dup1\n        /* \"--CODEGEN--\":20:32   */\n      revert\n        /* \"--CODEGEN--\":5:7   */\n    tag_109:\n        /* \"gameprofits-galactic-spdgcs-contracts/networkERC20/gameCash.sol\":8904:9065  function freezeAccount(address target, bool freeze) onlyOwner public {\r... */\n      pop\n      tag_110\n      0x04\n      dup1\n      calldatasize\n      sub\n        /* \"--CODEGEN--\":13:15   */\n      0x40\n        /* \"--CODEGEN--\":8:11   */\n      dup2\n        /* \"--CODEGEN--\":5:16   */\n      lt\n        /* \"--CODEGEN--\":2:4   */\n      iszero\n      tag_111\n      jumpi\n        /* \"--CODEGEN--\":29:30   */\n      0x00\n        /* \"--CODEGEN--\":26:27   */\n      dup1\n        /* \"--CODEGEN--\":19:31   */\n      revert\n        /* \"--CODEGEN--\":2:4   */\n    tag_111:\n        /* \"gameprofits-galactic-spdgcs-contracts/networkERC20/gameCash.sol\":8904:9065  function freezeAccount(address target, bool freeze) onlyOwner public {\r... */\n      dup2\n      add\n      swap1\n      dup1\n      dup1\n      calldataload\n      0xffffffffffffffffffffffffffffffffffffffff\n      and\n      swap1\n      0x20\n      add\n      swap1\n      swap3\n      swap2\n      swap1\n      dup1\n      calldataload\n      iszero\n      iszero\n      swap1\n      0x20\n      add\n      swap1\n      swap3\n      swap2\n      swap1\n      pop\n      pop\n      pop\n      tag_112\n      jump\t// in\n    tag_110:\n      stop\n        /* \"gameprofits-galactic-spdgcs-contracts/networkERC20/gameCash.sol\":239:336  function transferOwnership(address newOwner) onlyOwner public {\r... */\n    tag_23:\n      callvalue\n        /* \"--CODEGEN--\":8:17   */\n      dup1\n        /* \"--CODEGEN--\":5:7   */\n      iszero\n      tag_113\n      jumpi\n        /* \"--CODEGEN--\":30:31   */\n      0x00\n        /* \"--CODEGEN--\":27:28   */\n      dup1\n        /* \"--CODEGEN--\":20:32   */\n      revert\n        /* \"--CODEGEN--\":5:7   */\n    tag_113:\n        /* \"gameprofits-galactic-spdgcs-contracts/networkERC20/gameCash.sol\":239:336  function transferOwnership(address newOwner) onlyOwner public {\r... */\n      pop\n      tag_114\n      0x04\n      dup1\n      calldatasize\n      sub\n        /* \"--CODEGEN--\":13:15   */\n      0x20\n        /* \"--CODEGEN--\":8:11   */\n      dup2\n        /* \"--CODEGEN--\":5:16   */\n      lt\n        /* \"--CODEGEN--\":2:4   */\n      iszero\n      tag_115\n      jumpi\n        /* \"--CODEGEN--\":29:30   */\n      0x00\n        /* \"--CODEGEN--\":26:27   */\n      dup1\n        /* \"--CODEGEN--\":19:31   */\n      revert\n        /* \"--CODEGEN--\":2:4   */\n    tag_115:\n        /* \"gameprofits-galactic-spdgcs-contracts/networkERC20/gameCash.sol\":239:336  function transferOwnership(address newOwner) onlyOwner public {\r... */\n      dup2\n      add\n      swap1\n      dup1\n      dup1\n      calldataload\n      0xffffffffffffffffffffffffffffffffffffffff\n      and\n      swap1\n      0x20\n      add\n      swap1\n      swap3\n      swap2\n      swap1\n      pop\n      pop\n      pop\n      tag_116\n      jump\t// in\n    tag_114:\n      stop\n        /* \"gameprofits-galactic-spdgcs-contracts/networkERC20/gameCash.sol\":9313:9468  function setPrices(uint256 newSellPrice, uint256 newBuyPrice) onlyOwner public {\r... */\n    tag_30:\n        /* \"gameprofits-galactic-spdgcs-contracts/networkERC20/gameCash.sol\":205:210  owner */\n      0x00\n      dup1\n      swap1\n      sload\n      swap1\n      0x0100\n      exp\n      swap1\n      div\n      0xffffffffffffffffffffffffffffffffffffffff\n      and\n        /* \"gameprofits-galactic-spdgcs-contracts/networkERC20/gameCash.sol\":191:210  msg.sender == owner */\n      0xffffffffffffffffffffffffffffffffffffffff\n      and\n        /* \"gameprofits-galactic-spdgcs-contracts/networkERC20/gameCash.sol\":191:201  msg.sender */\n      caller\n        /* \"gameprofits-galactic-spdgcs-contracts/networkERC20/gameCash.sol\":191:210  msg.sender == owner */\n      0xffffffffffffffffffffffffffffffffffffffff\n      and\n      eq\n        /* \"gameprofits-galactic-spdgcs-contracts/networkERC20/gameCash.sol\":183:211  require(msg.sender == owner) */\n      tag_118\n      jumpi\n      0x00\n      dup1\n      revert\n    tag_118:\n        /* \"gameprofits-galactic-spdgcs-contracts/networkERC20/gameCash.sol\":9415:9427  newSellPrice */\n      dup2\n        /* \"gameprofits-galactic-spdgcs-contracts/networkERC20/gameCash.sol\":9403:9412  sellPrice */\n      0x07\n        /* \"gameprofits-galactic-spdgcs-contracts/networkERC20/gameCash.sol\":9403:9427  sellPrice = newSellPrice */\n      dup2\n      swap1\n      sstore\n      pop\n        /* \"gameprofits-galactic-spdgcs-contracts/networkERC20/gameCash.sol\":9449:9460  newBuyPrice */\n      dup1\n        /* \"gameprofits-galactic-spdgcs-contracts/networkERC20/gameCash.sol\":9438:9446  buyPrice */\n      0x08\n        /* \"gameprofits-galactic-spdgcs-contracts/networkERC20/gameCash.sol\":9438:9460  buyPrice = newBuyPrice */\n      dup2\n      swap1\n      sstore\n      pop\n        /* \"gameprofits-galactic-spdgcs-contracts/networkERC20/gameCash.sol\":9313:9468  function setPrices(uint256 newSellPrice, uint256 newBuyPrice) onlyOwner public {\r... */\n      pop\n      pop\n      jump\t// out\n        /* \"gameprofits-galactic-spdgcs-contracts/networkERC20/gameCash.sol\":549:567  string public name */\n    tag_33:\n      0x01\n      dup1\n      sload\n      0x01\n      dup2\n      0x01\n      and\n      iszero\n      0x0100\n      mul\n      sub\n      and\n      0x02\n      swap1\n      div\n      dup1\n      0x1f\n      add\n      0x20\n      dup1\n      swap2\n      div\n      mul\n      0x20\n      add\n      mload(0x40)\n      swap1\n      dup2\n      add\n      0x40\n      mstore\n      dup1\n      swap3\n      swap2\n      swap1\n      dup2\n      dup2\n      mstore\n      0x20\n      add\n      dup3\n      dup1\n      sload\n      0x01\n      dup2\n      0x01\n      and\n      iszero\n      0x0100\n      mul\n      sub\n      and\n      0x02\n      swap1\n      div\n      dup1\n      iszero\n      tag_120\n      jumpi\n      dup1\n      0x1f\n      lt\n      tag_121\n      jumpi\n      0x0100\n      dup1\n      dup4\n      sload\n      div\n      mul\n      dup4\n      mstore\n      swap2\n      0x20\n      add\n      swap2\n      jump(tag_120)\n    tag_121:\n      dup3\n      add\n      swap2\n      swap1\n      0x00\n      mstore\n      keccak256(0x00, 0x20)\n      swap1\n    tag_122:\n      dup2\n      sload\n      dup2\n      mstore\n      swap1\n      0x01\n      add\n      swap1\n      0x20\n      add\n      dup1\n      dup4\n      gt\n      tag_122\n      jumpi\n      dup3\n      swap1\n      sub\n      0x1f\n      and\n      dup3\n      add\n      swap2\n    tag_120:\n      pop\n      pop\n      pop\n      pop\n      pop\n      dup2\n      jump\t// out\n        /* \"gameprofits-galactic-spdgcs-contracts/networkERC20/gameCash.sol\":4208:4433  function approve(address _spender, uint256 _value) public\r... */\n    tag_41:\n        /* \"gameprofits-galactic-spdgcs-contracts/networkERC20/gameCash.sol\":4284:4296  bool success */\n      0x00\n        /* \"gameprofits-galactic-spdgcs-contracts/networkERC20/gameCash.sol\":4343:4349  _value */\n      dup2\n        /* \"gameprofits-galactic-spdgcs-contracts/networkERC20/gameCash.sol\":4309:4318  allowance */\n      0x06\n        /* \"gameprofits-galactic-spdgcs-contracts/networkERC20/gameCash.sol\":4309:4330  allowance[msg.sender] */\n      0x00\n        /* \"gameprofits-galactic-spdgcs-contracts/networkERC20/gameCash.sol\":4319:4329  msg.sender */\n      caller\n        /* \"gameprofits-galactic-spdgcs-contracts/networkERC20/gameCash.sol\":4309:4330  allowance[msg.sender] */\n      0xffffffffffffffffffffffffffffffffffffffff\n      and\n      0xffffffffffffffffffffffffffffffffffffffff\n      and\n      dup2\n      mstore\n      0x20\n      add\n      swap1\n      dup2\n      mstore\n      0x20\n      add\n      0x00\n      keccak256\n        /* \"gameprofits-galactic-spdgcs-contracts/networkERC20/gameCash.sol\":4309:4340  allowance[msg.sender][_spender] */\n      0x00\n        /* \"gameprofits-galactic-spdgcs-contracts/networkERC20/gameCash.sol\":4331:4339  _spender */\n      dup6\n        /* \"gameprofits-galactic-spdgcs-contracts/networkERC20/gameCash.sol\":4309:4340  allowance[msg.sender][_spender] */\n      0xffffffffffffffffffffffffffffffffffffffff\n      and\n      0xffffffffffffffffffffffffffffffffffffffff\n      and\n      dup2\n      mstore\n      0x20\n      add\n      swap1\n      dup2\n      mstore\n      0x20\n      add\n      0x00\n      keccak256\n        /* \"gameprofits-galactic-spdgcs-contracts/networkERC20/gameCash.sol\":4309:4349  allowance[msg.sender][_spender] = _value */\n      dup2\n      swap1\n      sstore\n      pop\n        /* \"gameprofits-galactic-spdgcs-contracts/networkERC20/gameCash.sol\":4386:4394  _spender */\n      dup3\n        /* \"gameprofits-galactic-spdgcs-contracts/networkERC20/gameCash.sol\":4365:4403  Approval(msg.sender, _spender, _value) */\n      0xffffffffffffffffffffffffffffffffffffffff\n      and\n        /* \"gameprofits-galactic-spdgcs-contracts/networkERC20/gameCash.sol\":4374:4384  msg.sender */\n      caller\n        /* \"gameprofits-galactic-spdgcs-contracts/networkERC20/gameCash.sol\":4365:4403  Approval(msg.sender, _spender, _value) */\n      0xffffffffffffffffffffffffffffffffffffffff\n      and\n      0x8c5be1e5ebec7d5bd14f71427d1e84f3dd0314c0f7b2291e5b200ac8c7c3b925\n        /* \"gameprofits-galactic-spdgcs-contracts/networkERC20/gameCash.sol\":4396:4402  _value */\n      dup5\n        /* \"gameprofits-galactic-spdgcs-contracts/networkERC20/gameCash.sol\":4365:4403  Approval(msg.sender, _spender, _value) */\n      mload(0x40)\n      dup1\n      dup3\n      dup2\n      mstore\n      0x20\n      add\n      swap2\n      pop\n      pop\n      mload(0x40)\n      dup1\n      swap2\n      sub\n      swap1\n      log3\n        /* \"gameprofits-galactic-spdgcs-contracts/networkERC20/gameCash.sol\":4421:4425  true */\n      0x01\n        /* \"gameprofits-galactic-spdgcs-contracts/networkERC20/gameCash.sol\":4414:4425  return true */\n      swap1\n      pop\n        /* \"gameprofits-galactic-spdgcs-contracts/networkERC20/gameCash.sol\":4208:4433  function approve(address _spender, uint256 _value) public\r... */\n      swap3\n      swap2\n      pop\n      pop\n      jump\t// out\n        /* \"gameprofits-galactic-spdgcs-contracts/networkERC20/gameCash.sol\":707:733  uint256 public totalSupply */\n    tag_44:\n      sload(0x04)\n      dup2\n      jump\t// out\n        /* \"gameprofits-galactic-spdgcs-contracts/networkERC20/gameCash.sol\":3643:3939  function transferFrom(address _from, address _to, uint256 _value) public returns (bool success) {\r... */\n    tag_48:\n        /* \"gameprofits-galactic-spdgcs-contracts/networkERC20/gameCash.sol\":3725:3737  bool success */\n      0x00\n        /* \"gameprofits-galactic-spdgcs-contracts/networkERC20/gameCash.sol\":3768:3777  allowance */\n      0x06\n        /* \"gameprofits-galactic-spdgcs-contracts/networkERC20/gameCash.sol\":3768:3784  allowance[_from] */\n      0x00\n        /* \"gameprofits-galactic-spdgcs-contracts/networkERC20/gameCash.sol\":3778:3783  _from */\n      dup6\n        /* \"gameprofits-galactic-spdgcs-contracts/networkERC20/gameCash.sol\":3768:3784  allowance[_from] */\n      0xffffffffffffffffffffffffffffffffffffffff\n      and\n      0xffffffffffffffffffffffffffffffffffffffff\n      and\n      dup2\n      mstore\n      0x20\n      add\n      swap1\n      dup2\n      mstore\n      0x20\n      add\n      0x00\n      keccak256\n        /* \"gameprofits-galactic-spdgcs-contracts/networkERC20/gameCash.sol\":3768:3796  allowance[_from][msg.sender] */\n      0x00\n        /* \"gameprofits-galactic-spdgcs-contracts/networkERC20/gameCash.sol\":3785:3795  msg.sender */\n      caller\n        /* \"gameprofits-galactic-spdgcs-contracts/networkERC20/gameCash.sol\":3768:3796  allowance[_from][msg.sender] */\n      0xffffffffffffffffffffffffffffffffffffffff\n      and\n      0xffffffffffffffffffffffffffffffffffffffff\n      and\n      dup2\n      mstore\n      0x20\n      add\n      swap1\n      dup2\n      mstore\n      0x20\n      add\n      0x00\n      keccak256\n      sload\n        /* \"gameprofits-galactic-spdgcs-contracts/networkERC20/gameCash.sol\":3758:3764  _value */\n      dup3\n        /* \"gameprofits-galactic-spdgcs-contracts/networkERC20/gameCash.sol\":3758:3796  _value <= allowance[_from][msg.sender] */\n      gt\n      iszero\n        /* \"gameprofits-galactic-spdgcs-contracts/networkERC20/gameCash.sol\":3750:3797  require(_value <= allowance[_from][msg.sender]) */\n      tag_125\n      jumpi\n      0x00\n      dup1\n      revert\n    tag_125:\n        /* \"gameprofits-galactic-spdgcs-contracts/networkERC20/gameCash.sol\":3863:3869  _value */\n      dup2\n        /* \"gameprofits-galactic-spdgcs-contracts/networkERC20/gameCash.sol\":3831:3840  allowance */\n      0x06\n        /* \"gameprofits-galactic-spdgcs-contracts/networkERC20/gameCash.sol\":3831:3847  allowance[_from] */\n      0x00\n        /* \"gameprofits-galactic-spdgcs-contracts/networkERC20/gameCash.sol\":3841:3846  _from */\n      dup7\n        /* \"gameprofits-galactic-spdgcs-contracts/networkERC20/gameCash.sol\":3831:3847  allowance[_from] */\n      0xffffffffffffffffffffffffffffffffffffffff\n      and\n      0xffffffffffffffffffffffffffffffffffffffff\n      and\n      dup2\n      mstore\n      0x20\n      add\n      swap1\n      dup2\n      mstore\n      0x20\n      add\n      0x00\n      keccak256\n        /* \"gameprofits-galactic-spdgcs-contracts/networkERC20/gameCash.sol\":3831:3859  allowance[_from][msg.sender] */\n      0x00\n        /* \"gameprofits-galactic-spdgcs-contracts/networkERC20/gameCash.sol\":3848:3858  msg.sender */\n      caller\n        /* \"gameprofits-galactic-spdgcs-contracts/networkERC20/gameCash.sol\":3831:3859  allowance[_from][msg.sender] */\n      0xffffffffffffffffffffffffffffffffffffffff\n      and\n      0xffffffffffffffffffffffffffffffffffffffff\n      and\n      dup2\n      mstore\n      0x20\n      add\n      swap1\n      dup2\n      mstore\n      0x20\n      add\n      0x00\n      keccak256\n      0x00\n        /* \"gameprofits-galactic-spdgcs-contracts/networkERC20/gameCash.sol\":3831:3869  allowance[_from][msg.sender] -= _value */\n      dup3\n      dup3\n      sload\n      sub\n      swap3\n      pop\n      pop\n      dup2\n      swap1\n      sstore\n      pop\n        /* \"gameprofits-galactic-spdgcs-contracts/networkERC20/gameCash.sol\":3880:3909  _transfer(_from, _to, _value) */\n      tag_126\n        /* \"gameprofits-galactic-spdgcs-contracts/networkERC20/gameCash.sol\":3890:3895  _from */\n      dup5\n        /* \"gameprofits-galactic-spdgcs-contracts/networkERC20/gameCash.sol\":3897:3900  _to */\n      dup5\n        /* \"gameprofits-galactic-spdgcs-contracts/networkERC20/gameCash.sol\":3902:3908  _value */\n      dup5\n        /* \"gameprofits-galactic-spdgcs-contracts/networkERC20/gameCash.sol\":3880:3889  _transfer */\n      tag_127\n        /* \"gameprofits-galactic-spdgcs-contracts/networkERC20/gameCash.sol\":3880:3909  _transfer(_from, _to, _value) */\n      jump\t// in\n    tag_126:\n        /* \"gameprofits-galactic-spdgcs-contracts/networkERC20/gameCash.sol\":3927:3931  true */\n      0x01\n        /* \"gameprofits-galactic-spdgcs-contracts/networkERC20/gameCash.sol\":3920:3931  return true */\n      swap1\n      pop\n        /* \"gameprofits-galactic-spdgcs-contracts/networkERC20/gameCash.sol\":3643:3939  function transferFrom(address _from, address _to, uint256 _value) public returns (bool success) {\r... */\n      swap4\n      swap3\n      pop\n      pop\n      pop\n      jump\t// out\n        /* \"gameprofits-galactic-spdgcs-contracts/networkERC20/gameCash.sol\":601:627  uint8 public decimals = 18 */\n    tag_51:\n      0x03\n      0x00\n      swap1\n      sload\n      swap1\n      0x0100\n      exp\n      swap1\n      div\n      0xff\n      and\n      dup2\n      jump\t// out\n        /* \"gameprofits-galactic-spdgcs-contracts/networkERC20/gameCash.sol\":5370:5744  function burn(uint256 _value) public returns (bool success) {\r... */\n    tag_55:\n        /* \"gameprofits-galactic-spdgcs-contracts/networkERC20/gameCash.sol\":5416:5428  bool success */\n      0x00\n        /* \"gameprofits-galactic-spdgcs-contracts/networkERC20/gameCash.sol\":5474:5480  _value */\n      dup2\n        /* \"gameprofits-galactic-spdgcs-contracts/networkERC20/gameCash.sol\":5449:5458  balanceOf */\n      0x05\n        /* \"gameprofits-galactic-spdgcs-contracts/networkERC20/gameCash.sol\":5449:5470  balanceOf[msg.sender] */\n      0x00\n        /* \"gameprofits-galactic-spdgcs-contracts/networkERC20/gameCash.sol\":5459:5469  msg.sender */\n      caller\n        /* \"gameprofits-galactic-spdgcs-contracts/networkERC20/gameCash.sol\":5449:5470  balanceOf[msg.sender] */\n      0xffffffffffffffffffffffffffffffffffffffff\n      and\n      0xffffffffffffffffffffffffffffffffffffffff\n      and\n      dup2\n      mstore\n      0x20\n      add\n      swap1\n      dup2\n      mstore\n      0x20\n      add\n      0x00\n      keccak256\n      sload\n        /* \"gameprofits-galactic-spdgcs-contracts/networkERC20/gameCash.sol\":5449:5480  balanceOf[msg.sender] >= _value */\n      lt\n      iszero\n        /* \"gameprofits-galactic-spdgcs-contracts/networkERC20/gameCash.sol\":5441:5481  require(balanceOf[msg.sender] >= _value) */\n      tag_129\n      jumpi\n      0x00\n      dup1\n      revert\n    tag_129:\n        /* \"gameprofits-galactic-spdgcs-contracts/networkERC20/gameCash.sol\":5553:5559  _value */\n      dup2\n        /* \"gameprofits-galactic-spdgcs-contracts/networkERC20/gameCash.sol\":5528:5537  balanceOf */\n      0x05\n        /* \"gameprofits-galactic-spdgcs-contracts/networkERC20/gameCash.sol\":5528:5549  balanceOf[msg.sender] */\n      0x00\n        /* \"gameprofits-galactic-spdgcs-contracts/networkERC20/gameCash.sol\":5538:5548  msg.sender */\n      caller\n        /* \"gameprofits-galactic-spdgcs-contracts/networkERC20/gameCash.sol\":5528:5549  balanceOf[msg.sender] */\n      0xffffffffffffffffffffffffffffffffffffffff\n      and\n      0xffffffffffffffffffffffffffffffffffffffff\n      and\n      dup2\n      mstore\n      0x20\n      add\n      swap1\n      dup2\n      mstore\n      0x20\n      add\n      0x00\n      keccak256\n      0x00\n        /* \"gameprofits-galactic-spdgcs-contracts/networkERC20/gameCash.sol\":5528:5559  balanceOf[msg.sender] -= _value */\n      dup3\n      dup3\n      sload\n      sub\n      swap3\n      pop\n      pop\n      dup2\n      swap1\n      sstore\n      pop\n        /* \"gameprofits-galactic-spdgcs-contracts/networkERC20/gameCash.sol\":5624:5630  _value */\n      dup2\n        /* \"gameprofits-galactic-spdgcs-contracts/networkERC20/gameCash.sol\":5609:5620  totalSupply */\n      0x04\n      0x00\n        /* \"gameprofits-galactic-spdgcs-contracts/networkERC20/gameCash.sol\":5609:5630  totalSupply -= _value */\n      dup3\n      dup3\n      sload\n      sub\n      swap3\n      pop\n      pop\n      dup2\n      swap1\n      sstore\n      pop\n        /* \"gameprofits-galactic-spdgcs-contracts/networkERC20/gameCash.sol\":5695:5705  msg.sender */\n      caller\n        /* \"gameprofits-galactic-spdgcs-contracts/networkERC20/gameCash.sol\":5690:5714  Burn(msg.sender, _value) */\n      0xffffffffffffffffffffffffffffffffffffffff\n      and\n      0xcc16f5dbb4873280815c1ee09dbd06736cffcc184412cf7a71a0fdb75d397ca5\n        /* \"gameprofits-galactic-spdgcs-contracts/networkERC20/gameCash.sol\":5707:5713  _value */\n      dup4\n        /* \"gameprofits-galactic-spdgcs-contracts/networkERC20/gameCash.sol\":5690:5714  Burn(msg.sender, _value) */\n      mload(0x40)\n      dup1\n      dup3\n      dup2\n      mstore\n      0x20\n      add\n      swap2\n      pop\n      pop\n      mload(0x40)\n      dup1\n      swap2\n      sub\n      swap1\n      log2\n        /* \"gameprofits-galactic-spdgcs-contracts/networkERC20/gameCash.sol\":5732:5736  true */\n      0x01\n        /* \"gameprofits-galactic-spdgcs-contracts/networkERC20/gameCash.sol\":5725:5736  return true */\n      swap1\n      pop\n        /* \"gameprofits-galactic-spdgcs-contracts/networkERC20/gameCash.sol\":5370:5744  function burn(uint256 _value) public returns (bool success) {\r... */\n      swap2\n      swap1\n      pop\n      jump\t// out\n        /* \"gameprofits-galactic-spdgcs-contracts/networkERC20/gameCash.sol\":6820:6844  uint256 public sellPrice */\n    tag_58:\n      sload(0x07)\n      dup2\n      jump\t// out\n        /* \"gameprofits-galactic-spdgcs-contracts/networkERC20/gameCash.sol\":790:835  mapping (address => uint256) public balanceOf */\n    tag_62:\n      mstore(0x20, 0x05)\n      dup1\n      0x00\n      mstore\n      keccak256(0x00, 0x40)\n      0x00\n      swap2\n      pop\n      swap1\n      pop\n      sload\n      dup2\n      jump\t// out\n        /* \"gameprofits-galactic-spdgcs-contracts/networkERC20/gameCash.sol\":8428:8718  function mintToken(address target, uint256 mintedAmount) onlyOwner public {\r... */\n    tag_66:\n        /* \"gameprofits-galactic-spdgcs-contracts/networkERC20/gameCash.sol\":205:210  owner */\n      0x00\n      dup1\n      swap1\n      sload\n      swap1\n      0x0100\n      exp\n      swap1\n      div\n      0xffffffffffffffffffffffffffffffffffffffff\n      and\n        /* \"gameprofits-galactic-spdgcs-contracts/networkERC20/gameCash.sol\":191:210  msg.sender == owner */\n      0xffffffffffffffffffffffffffffffffffffffff\n      and\n        /* \"gameprofits-galactic-spdgcs-contracts/networkERC20/gameCash.sol\":191:201  msg.sender */\n      caller\n        /* \"gameprofits-galactic-spdgcs-contracts/networkERC20/gameCash.sol\":191:210  msg.sender == owner */\n      0xffffffffffffffffffffffffffffffffffffffff\n      and\n      eq\n        /* \"gameprofits-galactic-spdgcs-contracts/networkERC20/gameCash.sol\":183:211  require(msg.sender == owner) */\n      tag_131\n      jumpi\n      0x00\n      dup1\n      revert\n    tag_131:\n        /* \"gameprofits-galactic-spdgcs-contracts/networkERC20/gameCash.sol\":8534:8546  mintedAmount */\n      dup1\n        /* \"gameprofits-galactic-spdgcs-contracts/networkERC20/gameCash.sol\":8513:8522  balanceOf */\n      0x05\n        /* \"gameprofits-galactic-spdgcs-contracts/networkERC20/gameCash.sol\":8513:8530  balanceOf[target] */\n      0x00\n        /* \"gameprofits-galactic-spdgcs-contracts/networkERC20/gameCash.sol\":8523:8529  target */\n      dup5\n        /* \"gameprofits-galactic-spdgcs-contracts/networkERC20/gameCash.sol\":8513:8530  balanceOf[target] */\n      0xffffffffffffffffffffffffffffffffffffffff\n      and\n      0xffffffffffffffffffffffffffffffffffffffff\n      and\n      dup2\n      mstore\n      0x20\n      add\n      swap1\n      dup2\n      mstore\n      0x20\n      add\n      0x00\n      keccak256\n      0x00\n        /* \"gameprofits-galactic-spdgcs-contracts/networkERC20/gameCash.sol\":8513:8546  balanceOf[target] += mintedAmount */\n      dup3\n      dup3\n      sload\n      add\n      swap3\n      pop\n      pop\n      dup2\n      swap1\n      sstore\n      pop\n        /* \"gameprofits-galactic-spdgcs-contracts/networkERC20/gameCash.sol\":8572:8584  mintedAmount */\n      dup1\n        /* \"gameprofits-galactic-spdgcs-contracts/networkERC20/gameCash.sol\":8557:8568  totalSupply */\n      0x04\n      0x00\n        /* \"gameprofits-galactic-spdgcs-contracts/networkERC20/gameCash.sol\":8557:8584  totalSupply += mintedAmount */\n      dup3\n      dup3\n      sload\n      add\n      swap3\n      pop\n      pop\n      dup2\n      swap1\n      sstore\n      pop\n        /* \"gameprofits-galactic-spdgcs-contracts/networkERC20/gameCash.sol\":8629:8633  this */\n      address\n        /* \"gameprofits-galactic-spdgcs-contracts/networkERC20/gameCash.sol\":8600:8649  Transfer(address(0), address(this), mintedAmount) */\n      0xffffffffffffffffffffffffffffffffffffffff\n      and\n        /* \"gameprofits-galactic-spdgcs-contracts/networkERC20/gameCash.sol\":8617:8618  0 */\n      0x00\n        /* \"gameprofits-galactic-spdgcs-contracts/networkERC20/gameCash.sol\":8600:8649  Transfer(address(0), address(this), mintedAmount) */\n      0xffffffffffffffffffffffffffffffffffffffff\n      and\n      0xddf252ad1be2c89b69c2b068fc378daa952ba7f163c4a11628f55a4df523b3ef\n        /* \"gameprofits-galactic-spdgcs-contracts/networkERC20/gameCash.sol\":8636:8648  mintedAmount */\n      dup4\n        /* \"gameprofits-galactic-spdgcs-contracts/networkERC20/gameCash.sol\":8600:8649  Transfer(address(0), address(this), mintedAmount) */\n      mload(0x40)\n      dup1\n      dup3\n      dup2\n      mstore\n      0x20\n      add\n      swap2\n      pop\n      pop\n      mload(0x40)\n      dup1\n      swap2\n      sub\n      swap1\n      log3\n        /* \"gameprofits-galactic-spdgcs-contracts/networkERC20/gameCash.sol\":8689:8695  target */\n      dup2\n        /* \"gameprofits-galactic-spdgcs-contracts/networkERC20/gameCash.sol\":8665:8710  Transfer(address(this), target, mintedAmount) */\n      0xffffffffffffffffffffffffffffffffffffffff\n      and\n        /* \"gameprofits-galactic-spdgcs-contracts/networkERC20/gameCash.sol\":8682:8686  this */\n      address\n        /* \"gameprofits-galactic-spdgcs-contracts/networkERC20/gameCash.sol\":8665:8710  Transfer(address(this), target, mintedAmount) */\n      0xffffffffffffffffffffffffffffffffffffffff\n      and\n      0xddf252ad1be2c89b69c2b068fc378daa952ba7f163c4a11628f55a4df523b3ef\n        /* \"gameprofits-galactic-spdgcs-contracts/networkERC20/gameCash.sol\":8697:8709  mintedAmount */\n      dup4\n        /* \"gameprofits-galactic-spdgcs-contracts/networkERC20/gameCash.sol\":8665:8710  Transfer(address(this), target, mintedAmount) */\n      mload(0x40)\n      dup1\n      dup3\n      dup2\n      mstore\n      0x20\n      add\n      swap2\n      pop\n      pop\n      mload(0x40)\n      dup1\n      swap2\n      sub\n      swap1\n      log3\n        /* \"gameprofits-galactic-spdgcs-contracts/networkERC20/gameCash.sol\":8428:8718  function mintToken(address target, uint256 mintedAmount) onlyOwner public {\r... */\n      pop\n      pop\n      jump\t// out\n        /* \"gameprofits-galactic-spdgcs-contracts/networkERC20/gameCash.sol\":6007:6618  function burnFrom(address _from, uint256 _value) public returns (bool success) {\r... */\n    tag_70:\n        /* \"gameprofits-galactic-spdgcs-contracts/networkERC20/gameCash.sol\":6072:6084  bool success */\n      0x00\n        /* \"gameprofits-galactic-spdgcs-contracts/networkERC20/gameCash.sol\":6125:6131  _value */\n      dup2\n        /* \"gameprofits-galactic-spdgcs-contracts/networkERC20/gameCash.sol\":6105:6114  balanceOf */\n      0x05\n        /* \"gameprofits-galactic-spdgcs-contracts/networkERC20/gameCash.sol\":6105:6121  balanceOf[_from] */\n      0x00\n        /* \"gameprofits-galactic-spdgcs-contracts/networkERC20/gameCash.sol\":6115:6120  _from */\n      dup6\n        /* \"gameprofits-galactic-spdgcs-contracts/networkERC20/gameCash.sol\":6105:6121  balanceOf[_from] */\n      0xffffffffffffffffffffffffffffffffffffffff\n      and\n      0xffffffffffffffffffffffffffffffffffffffff\n      and\n      dup2\n      mstore\n      0x20\n      add\n      swap1\n      dup2\n      mstore\n      0x20\n      add\n      0x00\n      keccak256\n      sload\n        /* \"gameprofits-galactic-spdgcs-contracts/networkERC20/gameCash.sol\":6105:6131  balanceOf[_from] >= _value */\n      lt\n      iszero\n        /* \"gameprofits-galactic-spdgcs-contracts/networkERC20/gameCash.sol\":6097:6132  require(balanceOf[_from] >= _value) */\n      tag_134\n      jumpi\n      0x00\n      dup1\n      revert\n    tag_134:\n        /* \"gameprofits-galactic-spdgcs-contracts/networkERC20/gameCash.sol\":6219:6228  allowance */\n      0x06\n        /* \"gameprofits-galactic-spdgcs-contracts/networkERC20/gameCash.sol\":6219:6235  allowance[_from] */\n      0x00\n        /* \"gameprofits-galactic-spdgcs-contracts/networkERC20/gameCash.sol\":6229:6234  _from */\n      dup5\n        /* \"gameprofits-galactic-spdgcs-contracts/networkERC20/gameCash.sol\":6219:6235  allowance[_from] */\n      0xffffffffffffffffffffffffffffffffffffffff\n      and\n      0xffffffffffffffffffffffffffffffffffffffff\n      and\n      dup2\n      mstore\n      0x20\n      add\n      swap1\n      dup2\n      mstore\n      0x20\n      add\n      0x00\n      keccak256\n        /* \"gameprofits-galactic-spdgcs-contracts/networkERC20/gameCash.sol\":6219:6247  allowance[_from][msg.sender] */\n      0x00\n        /* \"gameprofits-galactic-spdgcs-contracts/networkERC20/gameCash.sol\":6236:6246  msg.sender */\n      caller\n        /* \"gameprofits-galactic-spdgcs-contracts/networkERC20/gameCash.sol\":6219:6247  allowance[_from][msg.sender] */\n      0xffffffffffffffffffffffffffffffffffffffff\n      and\n      0xffffffffffffffffffffffffffffffffffffffff\n      and\n      dup2\n      mstore\n      0x20\n      add\n      swap1\n      dup2\n      mstore\n      0x20\n      add\n      0x00\n      keccak256\n      sload\n        /* \"gameprofits-galactic-spdgcs-contracts/networkERC20/gameCash.sol\":6209:6215  _value */\n      dup3\n        /* \"gameprofits-galactic-spdgcs-contracts/networkERC20/gameCash.sol\":6209:6247  _value <= allowance[_from][msg.sender] */\n      gt\n      iszero\n        /* \"gameprofits-galactic-spdgcs-contracts/networkERC20/gameCash.sol\":6201:6248  require(_value <= allowance[_from][msg.sender]) */\n      tag_135\n      jumpi\n      0x00\n      dup1\n      revert\n    tag_135:\n        /* \"gameprofits-galactic-spdgcs-contracts/networkERC20/gameCash.sol\":6301:6307  _value */\n      dup2\n        /* \"gameprofits-galactic-spdgcs-contracts/networkERC20/gameCash.sol\":6281:6290  balanceOf */\n      0x05\n        /* \"gameprofits-galactic-spdgcs-contracts/networkERC20/gameCash.sol\":6281:6297  balanceOf[_from] */\n      0x00\n        /* \"gameprofits-galactic-spdgcs-contracts/networkERC20/gameCash.sol\":6291:6296  _from */\n      dup6\n        /* \"gameprofits-galactic-spdgcs-contracts/networkERC20/gameCash.sol\":6281:6297  balanceOf[_from] */\n      0xffffffffffffffffffffffffffffffffffffffff\n      and\n      0xffffffffffffffffffffffffffffffffffffffff\n      and\n      dup2\n      mstore\n      0x20\n      add\n      swap1\n      dup2\n      mstore\n      0x20\n      add\n      0x00\n      keccak256\n      0x00\n        /* \"gameprofits-galactic-spdgcs-contracts/networkERC20/gameCash.sol\":6281:6307  balanceOf[_from] -= _value */\n      dup3\n      dup3\n      sload\n      sub\n      swap3\n      pop\n      pop\n      dup2\n      swap1\n      sstore\n      pop\n        /* \"gameprofits-galactic-spdgcs-contracts/networkERC20/gameCash.sol\":6412:6418  _value */\n      dup2\n        /* \"gameprofits-galactic-spdgcs-contracts/networkERC20/gameCash.sol\":6380:6389  allowance */\n      0x06\n        /* \"gameprofits-galactic-spdgcs-contracts/networkERC20/gameCash.sol\":6380:6396  allowance[_from] */\n      0x00\n        /* \"gameprofits-galactic-spdgcs-contracts/networkERC20/gameCash.sol\":6390:6395  _from */\n      dup6\n        /* \"gameprofits-galactic-spdgcs-contracts/networkERC20/gameCash.sol\":6380:6396  allowance[_from] */\n      0xffffffffffffffffffffffffffffffffffffffff\n      and\n      0xffffffffffffffffffffffffffffffffffffffff\n      and\n      dup2\n      mstore\n      0x20\n      add\n      swap1\n      dup2\n      mstore\n      0x20\n      add\n      0x00\n      keccak256\n        /* \"gameprofits-galactic-spdgcs-contracts/networkERC20/gameCash.sol\":6380:6408  allowance[_from][msg.sender] */\n      0x00\n        /* \"gameprofits-galactic-spdgcs-contracts/networkERC20/gameCash.sol\":6397:6407  msg.sender */\n      caller\n        /* \"gameprofits-galactic-spdgcs-contracts/networkERC20/gameCash.sol\":6380:6408  allowance[_from][msg.sender] */\n      0xffffffffffffffffffffffffffffffffffffffff\n      and\n      0xffffffffffffffffffffffffffffffffffffffff\n      and\n      dup2\n      mstore\n      0x20\n      add\n      swap1\n      dup2\n      mstore\n      0x20\n      add\n      0x00\n      keccak256\n      0x00\n        /* \"gameprofits-galactic-spdgcs-contracts/networkERC20/gameCash.sol\":6380:6418  allowance[_from][msg.sender] -= _value */\n      dup3\n      dup3\n      sload\n      sub\n      swap3\n      pop\n      pop\n      dup2\n      swap1\n      sstore\n      pop\n        /* \"gameprofits-galactic-spdgcs-contracts/networkERC20/gameCash.sol\":6496:6502  _value */\n      dup2\n        /* \"gameprofits-galactic-spdgcs-contracts/networkERC20/gameCash.sol\":6481:6492  totalSupply */\n      0x04\n      0x00\n        /* \"gameprofits-galactic-spdgcs-contracts/networkERC20/gameCash.sol\":6481:6502  totalSupply -= _value */\n      dup3\n      dup3\n      sload\n      sub\n      swap3\n      pop\n      pop\n      dup2\n      swap1\n      sstore\n      pop\n        /* \"gameprofits-galactic-spdgcs-contracts/networkERC20/gameCash.sol\":6574:6579  _from */\n      dup3\n        /* \"gameprofits-galactic-spdgcs-contracts/networkERC20/gameCash.sol\":6569:6588  Burn(_from, _value) */\n      0xffffffffffffffffffffffffffffffffffffffff\n      and\n      0xcc16f5dbb4873280815c1ee09dbd06736cffcc184412cf7a71a0fdb75d397ca5\n        /* \"gameprofits-galactic-spdgcs-contracts/networkERC20/gameCash.sol\":6581:6587  _value */\n      dup4\n        /* \"gameprofits-galactic-spdgcs-contracts/networkERC20/gameCash.sol\":6569:6588  Burn(_from, _value) */\n      mload(0x40)\n      dup1\n      dup3\n      dup2\n      mstore\n      0x20\n      add\n      swap2\n      pop\n      pop\n      mload(0x40)\n      dup1\n      swap2\n      sub\n      swap1\n      log2\n        /* \"gameprofits-galactic-spdgcs-contracts/networkERC20/gameCash.sol\":6606:6610  true */\n      0x01\n        /* \"gameprofits-galactic-spdgcs-contracts/networkERC20/gameCash.sol\":6599:6610  return true */\n      swap1\n      pop\n        /* \"gameprofits-galactic-spdgcs-contracts/networkERC20/gameCash.sol\":6007:6618  function burnFrom(address _from, uint256 _value) public returns (bool success) {\r... */\n      swap3\n      swap2\n      pop\n      pop\n      jump\t// out\n        /* \"gameprofits-galactic-spdgcs-contracts/networkERC20/gameCash.sol\":6851:6874  uint256 public buyPrice */\n    tag_73:\n      sload(0x08)\n      dup2\n      jump\t// out\n        /* \"gameprofits-galactic-spdgcs-contracts/networkERC20/gameCash.sol\":58:78  address public owner */\n    tag_76:\n      0x00\n      dup1\n      swap1\n      sload\n      swap1\n      0x0100\n      exp\n      swap1\n      div\n      0xffffffffffffffffffffffffffffffffffffffff\n      and\n      dup2\n      jump\t// out\n        /* \"gameprofits-galactic-spdgcs-contracts/networkERC20/gameCash.sol\":574:594  string public symbol */\n    tag_79:\n      0x02\n      dup1\n      sload\n      0x01\n      dup2\n      0x01\n      and\n      iszero\n      0x0100\n      mul\n      sub\n      and\n      0x02\n      swap1\n      div\n      dup1\n      0x1f\n      add\n      0x20\n      dup1\n      swap2\n      div\n      mul\n      0x20\n      add\n      mload(0x40)\n      swap1\n      dup2\n      add\n      0x40\n      mstore\n      dup1\n      swap3\n      swap2\n      swap1\n      dup2\n      dup2\n      mstore\n      0x20\n      add\n      dup3\n      dup1\n      sload\n      0x01\n      dup2\n      0x01\n      and\n      iszero\n      0x0100\n      mul\n      sub\n      and\n      0x02\n      swap1\n      div\n      dup1\n      iszero\n      tag_136\n      jumpi\n      dup1\n      0x1f\n      lt\n      tag_137\n      jumpi\n      0x0100\n      dup1\n      dup4\n      sload\n      div\n      mul\n      dup4\n      mstore\n      swap2\n      0x20\n      add\n      swap2\n      jump(tag_136)\n    tag_137:\n      dup3\n      add\n      swap2\n      swap1\n      0x00\n      mstore\n      keccak256(0x00, 0x20)\n      swap1\n    tag_138:\n      dup2\n      sload\n      dup2\n      mstore\n      swap1\n      0x01\n      add\n      swap1\n      0x20\n      add\n      dup1\n      dup4\n      gt\n      tag_138\n      jumpi\n      dup3\n      swap1\n      sub\n      0x1f\n      and\n      dup3\n      add\n      swap2\n    tag_136:\n      pop\n      pop\n      pop\n      pop\n      pop\n      dup2\n      jump\t// out\n        /* \"gameprofits-galactic-spdgcs-contracts/networkERC20/gameCash.sol\":9535:9743  function buy() payable public {\r... */\n    tag_85:\n        /* \"gameprofits-galactic-spdgcs-contracts/networkERC20/gameCash.sol\":9576:9587  uint amount */\n      0x00\n        /* \"gameprofits-galactic-spdgcs-contracts/networkERC20/gameCash.sol\":9602:9610  buyPrice */\n      sload(0x08)\n        /* \"gameprofits-galactic-spdgcs-contracts/networkERC20/gameCash.sol\":9590:9599  msg.value */\n      callvalue\n        /* \"gameprofits-galactic-spdgcs-contracts/networkERC20/gameCash.sol\":9590:9610  msg.value / buyPrice */\n      dup2\n      tag_140\n      jumpi\n      invalid\n    tag_140:\n      div\n        /* \"gameprofits-galactic-spdgcs-contracts/networkERC20/gameCash.sol\":9576:9610  uint amount = msg.value / buyPrice */\n      swap1\n      pop\n        /* \"gameprofits-galactic-spdgcs-contracts/networkERC20/gameCash.sol\":9662:9706  _transfer(address(this), msg.sender, amount) */\n      tag_141\n        /* \"gameprofits-galactic-spdgcs-contracts/networkERC20/gameCash.sol\":9680:9684  this */\n      address\n        /* \"gameprofits-galactic-spdgcs-contracts/networkERC20/gameCash.sol\":9687:9697  msg.sender */\n      caller\n        /* \"gameprofits-galactic-spdgcs-contracts/networkERC20/gameCash.sol\":9699:9705  amount */\n      dup4\n        /* \"gameprofits-galactic-spdgcs-contracts/networkERC20/gameCash.sol\":9662:9671  _transfer */\n      tag_127\n        /* \"gameprofits-galactic-spdgcs-contracts/networkERC20/gameCash.sol\":9662:9706  _transfer(address(this), msg.sender, amount) */\n      jump\t// in\n    tag_141:\n        /* \"gameprofits-galactic-spdgcs-contracts/networkERC20/gameCash.sol\":9535:9743  function buy() payable public {\r... */\n      pop\n      jump\t// out\n        /* \"gameprofits-galactic-spdgcs-contracts/networkERC20/gameCash.sol\":3211:3363  function transfer(address _to, uint256 _value) public returns (bool success) {\r... */\n    tag_89:\n        /* \"gameprofits-galactic-spdgcs-contracts/networkERC20/gameCash.sol\":3274:3286  bool success */\n      0x00\n        /* \"gameprofits-galactic-spdgcs-contracts/networkERC20/gameCash.sol\":3299:3333  _transfer(msg.sender, _to, _value) */\n      tag_143\n        /* \"gameprofits-galactic-spdgcs-contracts/networkERC20/gameCash.sol\":3309:3319  msg.sender */\n      caller\n        /* \"gameprofits-galactic-spdgcs-contracts/networkERC20/gameCash.sol\":3321:3324  _to */\n      dup5\n        /* \"gameprofits-galactic-spdgcs-contracts/networkERC20/gameCash.sol\":3326:3332  _value */\n      dup5\n        /* \"gameprofits-galactic-spdgcs-contracts/networkERC20/gameCash.sol\":3299:3308  _transfer */\n      tag_127\n        /* \"gameprofits-galactic-spdgcs-contracts/networkERC20/gameCash.sol\":3299:3333  _transfer(msg.sender, _to, _value) */\n      jump\t// in\n    tag_143:\n        /* \"gameprofits-galactic-spdgcs-contracts/networkERC20/gameCash.sol\":3351:3355  true */\n      0x01\n        /* \"gameprofits-galactic-spdgcs-contracts/networkERC20/gameCash.sol\":3344:3355  return true */\n      swap1\n      pop\n        /* \"gameprofits-galactic-spdgcs-contracts/networkERC20/gameCash.sol\":3211:3363  function transfer(address _to, uint256 _value) public returns (bool success) {\r... */\n      swap3\n      swap2\n      pop\n      pop\n      jump\t// out\n        /* \"gameprofits-galactic-spdgcs-contracts/networkERC20/gameCash.sol\":6883:6929  mapping (address => bool) public frozenAccount */\n    tag_93:\n      mstore(0x20, 0x09)\n      dup1\n      0x00\n      mstore\n      keccak256(0x00, 0x40)\n      0x00\n      swap2\n      pop\n      sload\n      swap1\n      0x0100\n      exp\n      swap1\n      div\n      0xff\n      and\n      dup2\n      jump\t// out\n        /* \"gameprofits-galactic-spdgcs-contracts/networkERC20/gameCash.sol\":4832:5195  function approveAndCall(address _spender, uint256 _value, bytes memory _extraData)\r... */\n    tag_100:\n        /* \"gameprofits-galactic-spdgcs-contracts/networkERC20/gameCash.sol\":4949:4961  bool success */\n      0x00\n        /* \"gameprofits-galactic-spdgcs-contracts/networkERC20/gameCash.sol\":4974:4996  tokenRecipient spender */\n      dup1\n        /* \"gameprofits-galactic-spdgcs-contracts/networkERC20/gameCash.sol\":5014:5022  _spender */\n      dup5\n        /* \"gameprofits-galactic-spdgcs-contracts/networkERC20/gameCash.sol\":4974:5023  tokenRecipient spender = tokenRecipient(_spender) */\n      swap1\n      pop\n        /* \"gameprofits-galactic-spdgcs-contracts/networkERC20/gameCash.sol\":5038:5063  approve(_spender, _value) */\n      tag_145\n        /* \"gameprofits-galactic-spdgcs-contracts/networkERC20/gameCash.sol\":5046:5054  _spender */\n      dup6\n        /* \"gameprofits-galactic-spdgcs-contracts/networkERC20/gameCash.sol\":5056:5062  _value */\n      dup6\n        /* \"gameprofits-galactic-spdgcs-contracts/networkERC20/gameCash.sol\":5038:5045  approve */\n      tag_41\n        /* \"gameprofits-galactic-spdgcs-contracts/networkERC20/gameCash.sol\":5038:5063  approve(_spender, _value) */\n      jump\t// in\n    tag_145:\n        /* \"gameprofits-galactic-spdgcs-contracts/networkERC20/gameCash.sol\":5034:5188  if (approve(_spender, _value)) {\r... */\n      iszero\n      tag_146\n      jumpi\n        /* \"gameprofits-galactic-spdgcs-contracts/networkERC20/gameCash.sol\":5080:5087  spender */\n      dup1\n        /* \"gameprofits-galactic-spdgcs-contracts/networkERC20/gameCash.sol\":5080:5103  spender.receiveApproval */\n      0xffffffffffffffffffffffffffffffffffffffff\n      and\n      0x8f4ffcb1\n        /* \"gameprofits-galactic-spdgcs-contracts/networkERC20/gameCash.sol\":5104:5114  msg.sender */\n      caller\n        /* \"gameprofits-galactic-spdgcs-contracts/networkERC20/gameCash.sol\":5116:5122  _value */\n      dup7\n        /* \"gameprofits-galactic-spdgcs-contracts/networkERC20/gameCash.sol\":5132:5136  this */\n      address\n        /* \"gameprofits-galactic-spdgcs-contracts/networkERC20/gameCash.sol\":5139:5149  _extraData */\n      dup8\n        /* \"gameprofits-galactic-spdgcs-contracts/networkERC20/gameCash.sol\":5080:5150  spender.receiveApproval(msg.sender, _value, address(this), _extraData) */\n      mload(0x40)\n      dup6\n      0xffffffff\n      and\n      0xe0\n      shl\n      dup2\n      mstore\n      0x04\n      add\n      dup1\n      dup6\n      0xffffffffffffffffffffffffffffffffffffffff\n      and\n      0xffffffffffffffffffffffffffffffffffffffff\n      and\n      dup2\n      mstore\n      0x20\n      add\n      dup5\n      dup2\n      mstore\n      0x20\n      add\n      dup4\n      0xffffffffffffffffffffffffffffffffffffffff\n      and\n      0xffffffffffffffffffffffffffffffffffffffff\n      and\n      dup2\n      mstore\n      0x20\n      add\n      dup1\n      0x20\n      add\n      dup3\n      dup2\n      sub\n      dup3\n      mstore\n      dup4\n      dup2\n      dup2\n      mload\n      dup2\n      mstore\n      0x20\n      add\n      swap2\n      pop\n      dup1\n      mload\n      swap1\n      0x20\n      add\n      swap1\n      dup1\n      dup4\n      dup4\n        /* \"--CODEGEN--\":23:24   */\n      0x00\n        /* \"--CODEGEN--\":8:108   */\n    tag_147:\n        /* \"--CODEGEN--\":33:36   */\n      dup4\n        /* \"--CODEGEN--\":30:31   */\n      dup2\n        /* \"--CODEGEN--\":27:37   */\n      lt\n        /* \"--CODEGEN--\":8:108   */\n      iszero\n      tag_149\n      jumpi\n        /* \"--CODEGEN--\":99:100   */\n      dup1\n        /* \"--CODEGEN--\":94:97   */\n      dup3\n        /* \"--CODEGEN--\":90:101   */\n      add\n        /* \"--CODEGEN--\":84:102   */\n      mload\n        /* \"--CODEGEN--\":80:81   */\n      dup2\n        /* \"--CODEGEN--\":75:78   */\n      dup5\n        /* \"--CODEGEN--\":71:82   */\n      add\n        /* \"--CODEGEN--\":64:103   */\n      mstore\n        /* \"--CODEGEN--\":52:54   */\n      0x20\n        /* \"--CODEGEN--\":49:50   */\n      dup2\n        /* \"--CODEGEN--\":45:55   */\n      add\n        /* \"--CODEGEN--\":40:55   */\n      swap1\n      pop\n        /* \"--CODEGEN--\":8:108   */\n      jump(tag_147)\n    tag_149:\n        /* \"--CODEGEN--\":12:26   */\n      pop\n        /* \"gameprofits-galactic-spdgcs-contracts/networkERC20/gameCash.sol\":5080:5150  spender.receiveApproval(msg.sender, _value, address(this), _extraData) */\n      pop\n      pop\n      pop\n      swap1\n      pop\n      swap1\n      dup2\n      add\n      swap1\n      0x1f\n      and\n      dup1\n      iszero\n      tag_150\n      jumpi\n      dup1\n      dup3\n      sub\n      dup1\n      mload\n      0x01\n      dup4\n      0x20\n      sub\n      0x0100\n      exp\n      sub\n      not\n      and\n      dup2\n      mstore\n      0x20\n      add\n      swap2\n      pop\n    tag_150:\n      pop\n      swap6\n      pop\n      pop\n      pop\n      pop\n      pop\n      pop\n      0x00\n      mload(0x40)\n      dup1\n      dup4\n      sub\n      dup2\n      0x00\n      dup8\n      dup1\n      extcodesize\n      iszero\n        /* \"--CODEGEN--\":8:17   */\n      dup1\n        /* \"--CODEGEN--\":5:7   */\n      iszero\n      tag_151\n      jumpi\n        /* \"--CODEGEN--\":30:31   */\n      0x00\n        /* \"--CODEGEN--\":27:28   */\n      dup1\n        /* \"--CODEGEN--\":20:32   */\n      revert\n        /* \"--CODEGEN--\":5:7   */\n    tag_151:\n        /* \"gameprofits-galactic-spdgcs-contracts/networkERC20/gameCash.sol\":5080:5150  spender.receiveApproval(msg.sender, _value, address(this), _extraData) */\n      pop\n      gas\n      call\n      iszero\n        /* \"--CODEGEN--\":8:17   */\n      dup1\n        /* \"--CODEGEN--\":5:7   */\n      iszero\n      tag_152\n      jumpi\n        /* \"--CODEGEN--\":45:61   */\n      returndatasize\n        /* \"--CODEGEN--\":42:43   */\n      0x00\n        /* \"--CODEGEN--\":39:40   */\n      dup1\n        /* \"--CODEGEN--\":24:62   */\n      returndatacopy\n        /* \"--CODEGEN--\":77:93   */\n      returndatasize\n        /* \"--CODEGEN--\":74:75   */\n      0x00\n        /* \"--CODEGEN--\":67:94   */\n      revert\n        /* \"--CODEGEN--\":5:7   */\n    tag_152:\n        /* \"gameprofits-galactic-spdgcs-contracts/networkERC20/gameCash.sol\":5080:5150  spender.receiveApproval(msg.sender, _value, address(this), _extraData) */\n      pop\n      pop\n      pop\n      pop\n        /* \"gameprofits-galactic-spdgcs-contracts/networkERC20/gameCash.sol\":5172:5176  true */\n      0x01\n        /* \"gameprofits-galactic-spdgcs-contracts/networkERC20/gameCash.sol\":5165:5176  return true */\n      swap2\n      pop\n      pop\n      jump(tag_144)\n        /* \"gameprofits-galactic-spdgcs-contracts/networkERC20/gameCash.sol\":5034:5188  if (approve(_spender, _value)) {\r... */\n    tag_146:\n        /* \"gameprofits-galactic-spdgcs-contracts/networkERC20/gameCash.sol\":4832:5195  function approveAndCall(address _spender, uint256 _value, bytes memory _extraData)\r... */\n      pop\n    tag_144:\n      swap4\n      swap3\n      pop\n      pop\n      pop\n      jump\t// out\n        /* \"gameprofits-galactic-spdgcs-contracts/networkERC20/gameCash.sol\":842:908  mapping (address => mapping (address => uint256)) public allowance */\n    tag_104:\n      mstore(0x20, 0x06)\n      dup2\n      0x00\n      mstore\n      mstore(0x20, keccak256(0x00, 0x40))\n      dup1\n      0x00\n      mstore\n      keccak256(0x00, 0x40)\n      0x00\n      swap2\n      pop\n      swap2\n      pop\n      pop\n      sload\n      dup2\n      jump\t// out\n        /* \"gameprofits-galactic-spdgcs-contracts/networkERC20/gameCash.sol\":9852:10285  function sell(uint256 amount) public {\r... */\n    tag_108:\n        /* \"gameprofits-galactic-spdgcs-contracts/networkERC20/gameCash.sol\":9900:9917  address myAddress */\n      0x00\n        /* \"gameprofits-galactic-spdgcs-contracts/networkERC20/gameCash.sol\":9928:9932  this */\n      address\n        /* \"gameprofits-galactic-spdgcs-contracts/networkERC20/gameCash.sol\":9900:9933  address myAddress = address(this) */\n      swap1\n      pop\n        /* \"gameprofits-galactic-spdgcs-contracts/networkERC20/gameCash.sol\":9982:9991  sellPrice */\n      sload(0x07)\n        /* \"gameprofits-galactic-spdgcs-contracts/networkERC20/gameCash.sol\":9973:9979  amount */\n      dup3\n        /* \"gameprofits-galactic-spdgcs-contracts/networkERC20/gameCash.sol\":9973:9991  amount * sellPrice */\n      mul\n        /* \"gameprofits-galactic-spdgcs-contracts/networkERC20/gameCash.sol\":9952:9961  myAddress */\n      dup2\n        /* \"gameprofits-galactic-spdgcs-contracts/networkERC20/gameCash.sol\":9952:9969  myAddress.balance */\n      0xffffffffffffffffffffffffffffffffffffffff\n      and\n      balance\n        /* \"gameprofits-galactic-spdgcs-contracts/networkERC20/gameCash.sol\":9952:9991  myAddress.balance >= amount * sellPrice */\n      lt\n      iszero\n        /* \"gameprofits-galactic-spdgcs-contracts/networkERC20/gameCash.sol\":9944:9992  require(myAddress.balance >= amount * sellPrice) */\n      tag_154\n      jumpi\n      0x00\n      dup1\n      revert\n    tag_154:\n        /* \"gameprofits-galactic-spdgcs-contracts/networkERC20/gameCash.sol\":10055:10099  _transfer(msg.sender, address(this), amount) */\n      tag_155\n        /* \"gameprofits-galactic-spdgcs-contracts/networkERC20/gameCash.sol\":10065:10075  msg.sender */\n      caller\n        /* \"gameprofits-galactic-spdgcs-contracts/networkERC20/gameCash.sol\":10085:10089  this */\n      address\n        /* \"gameprofits-galactic-spdgcs-contracts/networkERC20/gameCash.sol\":10092:10098  amount */\n      dup5\n        /* \"gameprofits-galactic-spdgcs-contracts/networkERC20/gameCash.sol\":10055:10064  _transfer */\n      tag_127\n        /* \"gameprofits-galactic-spdgcs-contracts/networkERC20/gameCash.sol\":10055:10099  _transfer(msg.sender, address(this), amount) */\n      jump\t// in\n    tag_155:\n        /* \"gameprofits-galactic-spdgcs-contracts/networkERC20/gameCash.sol\":10139:10149  msg.sender */\n      caller\n        /* \"gameprofits-galactic-spdgcs-contracts/networkERC20/gameCash.sol\":10139:10158  msg.sender.transfer */\n      0xffffffffffffffffffffffffffffffffffffffff\n      and\n        /* \"gameprofits-galactic-spdgcs-contracts/networkERC20/gameCash.sol\":10139:10178  msg.sender.transfer(amount * sellPrice) */\n      0x08fc\n        /* \"gameprofits-galactic-spdgcs-contracts/networkERC20/gameCash.sol\":10168:10177  sellPrice */\n      sload(0x07)\n        /* \"gameprofits-galactic-spdgcs-contracts/networkERC20/gameCash.sol\":10159:10165  amount */\n      dup5\n        /* \"gameprofits-galactic-spdgcs-contracts/networkERC20/gameCash.sol\":10159:10177  amount * sellPrice */\n      mul\n        /* \"gameprofits-galactic-spdgcs-contracts/networkERC20/gameCash.sol\":10139:10178  msg.sender.transfer(amount * sellPrice) */\n      swap1\n      dup2\n      iszero\n      mul\n      swap1\n      mload(0x40)\n      0x00\n      mload(0x40)\n      dup1\n      dup4\n      sub\n      dup2\n      dup6\n      dup9\n      dup9\n      call\n      swap4\n      pop\n      pop\n      pop\n      pop\n      iszero\n        /* \"--CODEGEN--\":8:17   */\n      dup1\n        /* \"--CODEGEN--\":5:7   */\n      iszero\n      tag_156\n      jumpi\n        /* \"--CODEGEN--\":45:61   */\n      returndatasize\n        /* \"--CODEGEN--\":42:43   */\n      0x00\n        /* \"--CODEGEN--\":39:40   */\n      dup1\n        /* \"--CODEGEN--\":24:62   */\n      returndatacopy\n        /* \"--CODEGEN--\":77:93   */\n      returndatasize\n        /* \"--CODEGEN--\":74:75   */\n      0x00\n        /* \"--CODEGEN--\":67:94   */\n      revert\n        /* \"--CODEGEN--\":5:7   */\n    tag_156:\n        /* \"gameprofits-galactic-spdgcs-contracts/networkERC20/gameCash.sol\":10139:10178  msg.sender.transfer(amount * sellPrice) */\n      pop\n        /* \"gameprofits-galactic-spdgcs-contracts/networkERC20/gameCash.sol\":9852:10285  function sell(uint256 amount) public {\r... */\n      pop\n      pop\n      jump\t// out\n        /* \"gameprofits-galactic-spdgcs-contracts/networkERC20/gameCash.sol\":8904:9065  function freezeAccount(address target, bool freeze) onlyOwner public {\r... */\n    tag_112:\n        /* \"gameprofits-galactic-spdgcs-contracts/networkERC20/gameCash.sol\":205:210  owner */\n      0x00\n      dup1\n      swap1\n      sload\n      swap1\n      0x0100\n      exp\n      swap1\n      div\n      0xffffffffffffffffffffffffffffffffffffffff\n      and\n        /* \"gameprofits-galactic-spdgcs-contracts/networkERC20/gameCash.sol\":191:210  msg.sender == owner */\n      0xffffffffffffffffffffffffffffffffffffffff\n      and\n        /* \"gameprofits-galactic-spdgcs-contracts/networkERC20/gameCash.sol\":191:201  msg.sender */\n      caller\n        /* \"gameprofits-galactic-spdgcs-contracts/networkERC20/gameCash.sol\":191:210  msg.sender == owner */\n      0xffffffffffffffffffffffffffffffffffffffff\n      and\n      eq\n        /* \"gameprofits-galactic-spdgcs-contracts/networkERC20/gameCash.sol\":183:211  require(msg.sender == owner) */\n      tag_158\n      jumpi\n      0x00\n      dup1\n      revert\n    tag_158:\n        /* \"gameprofits-galactic-spdgcs-contracts/networkERC20/gameCash.sol\":9008:9014  freeze */\n      dup1\n        /* \"gameprofits-galactic-spdgcs-contracts/networkERC20/gameCash.sol\":8984:8997  frozenAccount */\n      0x09\n        /* \"gameprofits-galactic-spdgcs-contracts/networkERC20/gameCash.sol\":8984:9005  frozenAccount[target] */\n      0x00\n        /* \"gameprofits-galactic-spdgcs-contracts/networkERC20/gameCash.sol\":8998:9004  target */\n      dup5\n        /* \"gameprofits-galactic-spdgcs-contracts/networkERC20/gameCash.sol\":8984:9005  frozenAccount[target] */\n      0xffffffffffffffffffffffffffffffffffffffff\n      and\n      0xffffffffffffffffffffffffffffffffffffffff\n      and\n      dup2\n      mstore\n      0x20\n      add\n      swap1\n      dup2\n      mstore\n      0x20\n      add\n      0x00\n      keccak256\n      0x00\n        /* \"gameprofits-galactic-spdgcs-contracts/networkERC20/gameCash.sol\":8984:9014  frozenAccount[target] = freeze */\n      0x0100\n      exp\n      dup2\n      sload\n      dup2\n      0xff\n      mul\n      not\n      and\n      swap1\n      dup4\n      iszero\n      iszero\n      mul\n      or\n      swap1\n      sstore\n      pop\n        /* \"gameprofits-galactic-spdgcs-contracts/networkERC20/gameCash.sol\":9030:9057  FrozenFunds(target, freeze) */\n      0x48335238b4855f35377ed80f164e8c6f3c366e54ac00b96a6402d4a9814a03a5\n        /* \"gameprofits-galactic-spdgcs-contracts/networkERC20/gameCash.sol\":9042:9048  target */\n      dup3\n        /* \"gameprofits-galactic-spdgcs-contracts/networkERC20/gameCash.sol\":9050:9056  freeze */\n      dup3\n        /* \"gameprofits-galactic-spdgcs-contracts/networkERC20/gameCash.sol\":9030:9057  FrozenFunds(target, freeze) */\n      mload(0x40)\n      dup1\n      dup4\n      0xffffffffffffffffffffffffffffffffffffffff\n      and\n      0xffffffffffffffffffffffffffffffffffffffff\n      and\n      dup2\n      mstore\n      0x20\n      add\n      dup3\n      iszero\n      iszero\n      iszero\n      iszero\n      dup2\n      mstore\n      0x20\n      add\n      swap3\n      pop\n      pop\n      pop\n      mload(0x40)\n      dup1\n      swap2\n      sub\n      swap1\n      log1\n        /* \"gameprofits-galactic-spdgcs-contracts/networkERC20/gameCash.sol\":8904:9065  function freezeAccount(address target, bool freeze) onlyOwner public {\r... */\n      pop\n      pop\n      jump\t// out\n        /* \"gameprofits-galactic-spdgcs-contracts/networkERC20/gameCash.sol\":239:336  function transferOwnership(address newOwner) onlyOwner public {\r... */\n    tag_116:\n        /* \"gameprofits-galactic-spdgcs-contracts/networkERC20/gameCash.sol\":205:210  owner */\n      0x00\n      dup1\n      swap1\n      sload\n      swap1\n      0x0100\n      exp\n      swap1\n      div\n      0xffffffffffffffffffffffffffffffffffffffff\n      and\n        /* \"gameprofits-galactic-spdgcs-contracts/networkERC20/gameCash.sol\":191:210  msg.sender == owner */\n      0xffffffffffffffffffffffffffffffffffffffff\n      and\n        /* \"gameprofits-galactic-spdgcs-contracts/networkERC20/gameCash.sol\":191:201  msg.sender */\n      caller\n        /* \"gameprofits-galactic-spdgcs-contracts/networkERC20/gameCash.sol\":191:210  msg.sender == owner */\n      0xffffffffffffffffffffffffffffffffffffffff\n      and\n      eq\n        /* \"gameprofits-galactic-spdgcs-contracts/networkERC20/gameCash.sol\":183:211  require(msg.sender == owner) */\n      tag_161\n      jumpi\n      0x00\n      dup1\n      revert\n    tag_161:\n        /* \"gameprofits-galactic-spdgcs-contracts/networkERC20/gameCash.sol\":320:328  newOwner */\n      dup1\n        /* \"gameprofits-galactic-spdgcs-contracts/networkERC20/gameCash.sol\":312:317  owner */\n      0x00\n      dup1\n        /* \"gameprofits-galactic-spdgcs-contracts/networkERC20/gameCash.sol\":312:328  owner = newOwner */\n      0x0100\n      exp\n      dup2\n      sload\n      dup2\n      0xffffffffffffffffffffffffffffffffffffffff\n      mul\n      not\n      and\n      swap1\n      dup4\n      0xffffffffffffffffffffffffffffffffffffffff\n      and\n      mul\n      or\n      swap1\n      sstore\n      pop\n        /* \"gameprofits-galactic-spdgcs-contracts/networkERC20/gameCash.sol\":239:336  function transferOwnership(address newOwner) onlyOwner public {\r... */\n      pop\n      jump\t// out\n        /* \"gameprofits-galactic-spdgcs-contracts/networkERC20/gameCash.sol\":7421:8231  function _transfer(address _from, address _to, uint _value) internal {\r... */\n    tag_127:\n        /* \"gameprofits-galactic-spdgcs-contracts/networkERC20/gameCash.sol\":7525:7528  0x0 */\n      0x00\n        /* \"gameprofits-galactic-spdgcs-contracts/networkERC20/gameCash.sol\":7510:7529  _to != address(0x0) */\n      0xffffffffffffffffffffffffffffffffffffffff\n      and\n        /* \"gameprofits-galactic-spdgcs-contracts/networkERC20/gameCash.sol\":7510:7513  _to */\n      dup3\n        /* \"gameprofits-galactic-spdgcs-contracts/networkERC20/gameCash.sol\":7510:7529  _to != address(0x0) */\n      0xffffffffffffffffffffffffffffffffffffffff\n      and\n      eq\n      iszero\n        /* \"gameprofits-galactic-spdgcs-contracts/networkERC20/gameCash.sol\":7501:7530  require (_to != address(0x0)) */\n      tag_164\n      jumpi\n      0x00\n      dup1\n      revert\n    tag_164:\n        /* \"gameprofits-galactic-spdgcs-contracts/networkERC20/gameCash.sol\":7650:7656  _value */\n      dup1\n        /* \"gameprofits-galactic-spdgcs-contracts/networkERC20/gameCash.sol\":7630:7639  balanceOf */\n      0x05\n        /* \"gameprofits-galactic-spdgcs-contracts/networkERC20/gameCash.sol\":7630:7646  balanceOf[_from] */\n      0x00\n        /* \"gameprofits-galactic-spdgcs-contracts/networkERC20/gameCash.sol\":7640:7645  _from */\n      dup6\n        /* \"gameprofits-galactic-spdgcs-contracts/networkERC20/gameCash.sol\":7630:7646  balanceOf[_from] */\n      0xffffffffffffffffffffffffffffffffffffffff\n      and\n      0xffffffffffffffffffffffffffffffffffffffff\n      and\n      dup2\n      mstore\n      0x20\n      add\n      swap1\n      dup2\n      mstore\n      0x20\n      add\n      0x00\n      keccak256\n      sload\n        /* \"gameprofits-galactic-spdgcs-contracts/networkERC20/gameCash.sol\":7630:7656  balanceOf[_from] >= _value */\n      lt\n      iszero\n        /* \"gameprofits-galactic-spdgcs-contracts/networkERC20/gameCash.sol\":7621:7657  require (balanceOf[_from] >= _value) */\n      tag_165\n      jumpi\n      0x00\n      dup1\n      revert\n    tag_165:\n        /* \"gameprofits-galactic-spdgcs-contracts/networkERC20/gameCash.sol\":7756:7765  balanceOf */\n      0x05\n        /* \"gameprofits-galactic-spdgcs-contracts/networkERC20/gameCash.sol\":7756:7770  balanceOf[_to] */\n      0x00\n        /* \"gameprofits-galactic-spdgcs-contracts/networkERC20/gameCash.sol\":7766:7769  _to */\n      dup4\n        /* \"gameprofits-galactic-spdgcs-contracts/networkERC20/gameCash.sol\":7756:7770  balanceOf[_to] */\n      0xffffffffffffffffffffffffffffffffffffffff\n      and\n      0xffffffffffffffffffffffffffffffffffffffff\n      and\n      dup2\n      mstore\n      0x20\n      add\n      swap1\n      dup2\n      mstore\n      0x20\n      add\n      0x00\n      keccak256\n      sload\n        /* \"gameprofits-galactic-spdgcs-contracts/networkERC20/gameCash.sol\":7746:7752  _value */\n      dup2\n        /* \"gameprofits-galactic-spdgcs-contracts/networkERC20/gameCash.sol\":7729:7738  balanceOf */\n      0x05\n        /* \"gameprofits-galactic-spdgcs-contracts/networkERC20/gameCash.sol\":7729:7743  balanceOf[_to] */\n      0x00\n        /* \"gameprofits-galactic-spdgcs-contracts/networkERC20/gameCash.sol\":7739:7742  _to */\n      dup6\n        /* \"gameprofits-galactic-spdgcs-contracts/networkERC20/gameCash.sol\":7729:7743  balanceOf[_to] */\n      0xffffffffffffffffffffffffffffffffffffffff\n      and\n      0xffffffffffffffffffffffffffffffffffffffff\n      and\n      dup2\n      mstore\n      0x20\n      add\n      swap1\n      dup2\n      mstore\n      0x20\n      add\n      0x00\n      keccak256\n      sload\n        /* \"gameprofits-galactic-spdgcs-contracts/networkERC20/gameCash.sol\":7729:7752  balanceOf[_to] + _value */\n      add\n        /* \"gameprofits-galactic-spdgcs-contracts/networkERC20/gameCash.sol\":7729:7770  balanceOf[_to] + _value >= balanceOf[_to] */\n      lt\n      iszero\n        /* \"gameprofits-galactic-spdgcs-contracts/networkERC20/gameCash.sol\":7720:7771  require (balanceOf[_to] + _value >= balanceOf[_to]) */\n      tag_166\n      jumpi\n      0x00\n      dup1\n      revert\n    tag_166:\n        /* \"gameprofits-galactic-spdgcs-contracts/networkERC20/gameCash.sol\":7817:7830  frozenAccount */\n      0x09\n        /* \"gameprofits-galactic-spdgcs-contracts/networkERC20/gameCash.sol\":7817:7837  frozenAccount[_from] */\n      0x00\n        /* \"gameprofits-galactic-spdgcs-contracts/networkERC20/gameCash.sol\":7831:7836  _from */\n      dup5\n        /* \"gameprofits-galactic-spdgcs-contracts/networkERC20/gameCash.sol\":7817:7837  frozenAccount[_from] */\n      0xffffffffffffffffffffffffffffffffffffffff\n      and\n      0xffffffffffffffffffffffffffffffffffffffff\n      and\n      dup2\n      mstore\n      0x20\n      add\n      swap1\n      dup2\n      mstore\n      0x20\n      add\n      0x00\n      keccak256\n      0x00\n      swap1\n      sload\n      swap1\n      0x0100\n      exp\n      swap1\n      div\n      0xff\n      and\n        /* \"gameprofits-galactic-spdgcs-contracts/networkERC20/gameCash.sol\":7816:7837  !frozenAccount[_from] */\n      iszero\n        /* \"gameprofits-galactic-spdgcs-contracts/networkERC20/gameCash.sol\":7808:7838  require(!frozenAccount[_from]) */\n      tag_167\n      jumpi\n      0x00\n      dup1\n      revert\n    tag_167:\n        /* \"gameprofits-galactic-spdgcs-contracts/networkERC20/gameCash.sol\":7911:7924  frozenAccount */\n      0x09\n        /* \"gameprofits-galactic-spdgcs-contracts/networkERC20/gameCash.sol\":7911:7929  frozenAccount[_to] */\n      0x00\n        /* \"gameprofits-galactic-spdgcs-contracts/networkERC20/gameCash.sol\":7925:7928  _to */\n      dup4\n        /* \"gameprofits-galactic-spdgcs-contracts/networkERC20/gameCash.sol\":7911:7929  frozenAccount[_to] */\n      0xffffffffffffffffffffffffffffffffffffffff\n      and\n      0xffffffffffffffffffffffffffffffffffffffff\n      and\n      dup2\n      mstore\n      0x20\n      add\n      swap1\n      dup2\n      mstore\n      0x20\n      add\n      0x00\n      keccak256\n      0x00\n      swap1\n      sload\n      swap1\n      0x0100\n      exp\n      swap1\n      div\n      0xff\n      and\n        /* \"gameprofits-galactic-spdgcs-contracts/networkERC20/gameCash.sol\":7910:7929  !frozenAccount[_to] */\n      iszero\n        /* \"gameprofits-galactic-spdgcs-contracts/networkERC20/gameCash.sol\":7902:7930  require(!frozenAccount[_to]) */\n      tag_168\n      jumpi\n      0x00\n      dup1\n      revert\n    tag_168:\n        /* \"gameprofits-galactic-spdgcs-contracts/networkERC20/gameCash.sol\":8019:8025  _value */\n      dup1\n        /* \"gameprofits-galactic-spdgcs-contracts/networkERC20/gameCash.sol\":7999:8008  balanceOf */\n      0x05\n        /* \"gameprofits-galactic-spdgcs-contracts/networkERC20/gameCash.sol\":7999:8015  balanceOf[_from] */\n      0x00\n        /* \"gameprofits-galactic-spdgcs-contracts/networkERC20/gameCash.sol\":8009:8014  _from */\n      dup6\n        /* \"gameprofits-galactic-spdgcs-contracts/networkERC20/gameCash.sol\":7999:8015  balanceOf[_from] */\n      0xffffffffffffffffffffffffffffffffffffffff\n      and\n      0xffffffffffffffffffffffffffffffffffffffff\n      and\n      dup2\n      mstore\n      0x20\n      add\n      swap1\n      dup2\n      mstore\n      0x20\n      add\n      0x00\n      keccak256\n      0x00\n        /* \"gameprofits-galactic-spdgcs-contracts/networkERC20/gameCash.sol\":7999:8025  balanceOf[_from] -= _value */\n      dup3\n      dup3\n      sload\n      sub\n      swap3\n      pop\n      pop\n      dup2\n      swap1\n      sstore\n      pop\n        /* \"gameprofits-galactic-spdgcs-contracts/networkERC20/gameCash.sol\":8110:8116  _value */\n      dup1\n        /* \"gameprofits-galactic-spdgcs-contracts/networkERC20/gameCash.sol\":8092:8101  balanceOf */\n      0x05\n        /* \"gameprofits-galactic-spdgcs-contracts/networkERC20/gameCash.sol\":8092:8106  balanceOf[_to] */\n      0x00\n        /* \"gameprofits-galactic-spdgcs-contracts/networkERC20/gameCash.sol\":8102:8105  _to */\n      dup5\n        /* \"gameprofits-galactic-spdgcs-contracts/networkERC20/gameCash.sol\":8092:8106  balanceOf[_to] */\n      0xffffffffffffffffffffffffffffffffffffffff\n      and\n      0xffffffffffffffffffffffffffffffffffffffff\n      and\n      dup2\n      mstore\n      0x20\n      add\n      swap1\n      dup2\n      mstore\n      0x20\n      add\n      0x00\n      keccak256\n      0x00\n        /* \"gameprofits-galactic-spdgcs-contracts/networkERC20/gameCash.sol\":8092:8116  balanceOf[_to] += _value */\n      dup3\n      dup3\n      sload\n      add\n      swap3\n      pop\n      pop\n      dup2\n      swap1\n      sstore\n      pop\n        /* \"gameprofits-galactic-spdgcs-contracts/networkERC20/gameCash.sol\":8211:8214  _to */\n      dup2\n        /* \"gameprofits-galactic-spdgcs-contracts/networkERC20/gameCash.sol\":8195:8223  Transfer(_from, _to, _value) */\n      0xffffffffffffffffffffffffffffffffffffffff\n      and\n        /* \"gameprofits-galactic-spdgcs-contracts/networkERC20/gameCash.sol\":8204:8209  _from */\n      dup4\n        /* \"gameprofits-galactic-spdgcs-contracts/networkERC20/gameCash.sol\":8195:8223  Transfer(_from, _to, _value) */\n      0xffffffffffffffffffffffffffffffffffffffff\n      and\n      0xddf252ad1be2c89b69c2b068fc378daa952ba7f163c4a11628f55a4df523b3ef\n        /* \"gameprofits-galactic-spdgcs-contracts/networkERC20/gameCash.sol\":8216:8222  _value */\n      dup4\n        /* \"gameprofits-galactic-spdgcs-contracts/networkERC20/gameCash.sol\":8195:8223  Transfer(_from, _to, _value) */\n      mload(0x40)\n      dup1\n      dup3\n      dup2\n      mstore\n      0x20\n      add\n      swap2\n      pop\n      pop\n      mload(0x40)\n      dup1\n      swap2\n      sub\n      swap1\n      log3\n        /* \"gameprofits-galactic-spdgcs-contracts/networkERC20/gameCash.sol\":7421:8231  function _transfer(address _from, address _to, uint _value) internal {\r... */\n      pop\n      pop\n      pop\n      jump\t// out\n\n    auxdata: 0xa265627a7a7231582067d3cdbd0cfe092a84f3cda3cf63a2f3e87c03c98b5671772fedc214f7b60fd564736f6c63430005110032\n}\n",
				"bytecode": {
					"linkReferences": {},
					"object": "60806040526012600360006101000a81548160ff021916908360ff1602179055503480156200002d57600080fd5b5060405162001cf638038062001cf6833981810160405260608110156200005357600080fd5b8101908080519060200190929190805160405193929190846401000000008211156200007e57600080fd5b838201915060208201858111156200009557600080fd5b8251866001820283011164010000000082111715620000b357600080fd5b8083526020830192505050908051906020019080838360005b83811015620000e9578082015181840152602081019050620000cc565b50505050905090810190601f168015620001175780820380516001836020036101000a031916815260200191505b50604052602001805160405193929190846401000000008211156200013b57600080fd5b838201915060208201858111156200015257600080fd5b82518660018202830111640100000000821117156200017057600080fd5b8083526020830192505050908051906020019080838360005b83811015620001a657808201518184015260208101905062000189565b50505050905090810190601f168015620001d45780820380516001836020036101000a031916815260200191505b50604052505050828282336000806101000a81548173ffffffffffffffffffffffffffffffffffffffff021916908373ffffffffffffffffffffffffffffffffffffffff160217905550600360009054906101000a900460ff1660ff16600a0a8302600481905550600454600560003373ffffffffffffffffffffffffffffffffffffffff1673ffffffffffffffffffffffffffffffffffffffff1681526020019081526020016000208190555081600190805190602001906200029a929190620002c0565b508060029080519060200190620002b3929190620002c0565b505050505050506200036f565b828054600181600116156101000203166002900490600052602060002090601f016020900481019282601f106200030357805160ff191683800117855562000334565b8280016001018555821562000334579182015b828111156200033357825182559160200191906001019062000316565b5b50905062000343919062000347565b5090565b6200036c91905b80821115620003685760008160009055506001016200034e565b5090565b90565b611977806200037f6000396000f3fe6080604052600436106101355760003560e01c80638620410b116100ab578063b414d4b61161006f578063b414d4b6146106b1578063cae9ca511461071a578063dd62ed3e14610824578063e4849b32146108a9578063e724529c146108e4578063f2fde38b1461094157610135565b80638620410b146105225780638da5cb5b1461054d57806395d89b41146105a4578063a6f2ae3a14610634578063a9059cbb1461063e57610135565b8063313ce567116100fd578063313ce5671461034057806342966c68146103715780634b750334146103c457806370a08231146103ef57806379c650681461045457806379cc6790146104af57610135565b806305fefda71461013a57806306fdde031461017f578063095ea7b31461020f57806318160ddd1461028257806323b872dd146102ad575b600080fd5b34801561014657600080fd5b5061017d6004803603604081101561015d57600080fd5b810190808035906020019092919080359060200190929190505050610992565b005b34801561018b57600080fd5b506101946109fd565b6040518080602001828103825283818151815260200191508051906020019080838360005b838110156101d45780820151818401526020810190506101b9565b50505050905090810190601f1680156102015780820380516001836020036101000a031916815260200191505b509250505060405180910390f35b34801561021b57600080fd5b506102686004803603604081101561023257600080fd5b81019080803573ffffffffffffffffffffffffffffffffffffffff16906020019092919080359060200190929190505050610a9b565b604051808215151515815260200191505060405180910390f35b34801561028e57600080fd5b50610297610b8d565b6040518082815260200191505060405180910390f35b3480156102b957600080fd5b50610326600480360360608110156102d057600080fd5b81019080803573ffffffffffffffffffffffffffffffffffffffff169060200190929190803573ffffffffffffffffffffffffffffffffffffffff16906020019092919080359060200190929190505050610b93565b604051808215151515815260200191505060405180910390f35b34801561034c57600080fd5b50610355610cbe565b604051808260ff1660ff16815260200191505060405180910390f35b34801561037d57600080fd5b506103aa6004803603602081101561039457600080fd5b8101908080359060200190929190505050610cd1565b604051808215151515815260200191505060405180910390f35b3480156103d057600080fd5b506103d9610dd3565b6040518082815260200191505060405180910390f35b3480156103fb57600080fd5b5061043e6004803603602081101561041257600080fd5b81019080803573ffffffffffffffffffffffffffffffffffffffff169060200190929190505050610dd9565b6040518082815260200191505060405180910390f35b34801561046057600080fd5b506104ad6004803603604081101561047757600080fd5b81019080803573ffffffffffffffffffffffffffffffffffffffff16906020019092919080359060200190929190505050610df1565b005b3480156104bb57600080fd5b50610508600480360360408110156104d257600080fd5b81019080803573ffffffffffffffffffffffffffffffffffffffff16906020019092919080359060200190929190505050610f76565b604051808215151515815260200191505060405180910390f35b34801561052e57600080fd5b5061053761118c565b6040518082815260200191505060405180910390f35b34801561055957600080fd5b50610562611192565b604051808273ffffffffffffffffffffffffffffffffffffffff1673ffffffffffffffffffffffffffffffffffffffff16815260200191505060405180910390f35b3480156105b057600080fd5b506105b96111b7565b6040518080602001828103825283818151815260200191508051906020019080838360005b838110156105f95780820151818401526020810190506105de565b50505050905090810190601f1680156106265780820380516001836020036101000a031916815260200191505b509250505060405180910390f35b61063c611255565b005b34801561064a57600080fd5b506106976004803603604081101561066157600080fd5b81019080803573ffffffffffffffffffffffffffffffffffffffff16906020019092919080359060200190929190505050611273565b604051808215151515815260200191505060405180910390f35b3480156106bd57600080fd5b50610700600480360360208110156106d457600080fd5b81019080803573ffffffffffffffffffffffffffffffffffffffff16906020019092919050505061128a565b604051808215151515815260200191505060405180910390f35b34801561072657600080fd5b5061080a6004803603606081101561073d57600080fd5b81019080803573ffffffffffffffffffffffffffffffffffffffff169060200190929190803590602001909291908035906020019064010000000081111561078457600080fd5b82018360208201111561079657600080fd5b803590602001918460018302840111640100000000831117156107b857600080fd5b91908080601f016020809104026020016040519081016040528093929190818152602001838380828437600081840152601f19601f8201169050808301925050505050505091929192905050506112aa565b604051808215151515815260200191505060405180910390f35b34801561083057600080fd5b506108936004803603604081101561084757600080fd5b81019080803573ffffffffffffffffffffffffffffffffffffffff169060200190929190803573ffffffffffffffffffffffffffffffffffffffff169060200190929190505050611412565b6040518082815260200191505060405180910390f35b3480156108b557600080fd5b506108e2600480360360208110156108cc57600080fd5b8101908080359060200190929190505050611437565b005b3480156108f057600080fd5b5061093f6004803603604081101561090757600080fd5b81019080803573ffffffffffffffffffffffffffffffffffffffff1690602001909291908035151590602001909291905050506114be565b005b34801561094d57600080fd5b506109906004803603602081101561096457600080fd5b81019080803573ffffffffffffffffffffffffffffffffffffffff1690602001909291905050506115e1565b005b6000809054906101000a900473ffffffffffffffffffffffffffffffffffffffff1673ffffffffffffffffffffffffffffffffffffffff163373ffffffffffffffffffffffffffffffffffffffff16146109eb57600080fd5b81600781905550806008819055505050565b60018054600181600116156101000203166002900480601f016020809104026020016040519081016040528092919081815260200182805460018160011615610100020316600290048015610a935780601f10610a6857610100808354040283529160200191610a93565b820191906000526020600020905b815481529060010190602001808311610a7657829003601f168201915b505050505081565b600081600660003373ffffffffffffffffffffffffffffffffffffffff1673ffffffffffffffffffffffffffffffffffffffff16815260200190815260200160002060008573ffffffffffffffffffffffffffffffffffffffff1673ffffffffffffffffffffffffffffffffffffffff168152602001908152602001600020819055508273ffffffffffffffffffffffffffffffffffffffff163373ffffffffffffffffffffffffffffffffffffffff167f8c5be1e5ebec7d5bd14f71427d1e84f3dd0314c0f7b2291e5b200ac8c7c3b925846040518082815260200191505060405180910390a36001905092915050565b60045481565b6000600660008573ffffffffffffffffffffffffffffffffffffffff1673ffffffffffffffffffffffffffffffffffffffff16815260200190815260200160002060003373ffffffffffffffffffffffffffffffffffffffff1673ffffffffffffffffffffffffffffffffffffffff16815260200190815260200160002054821115610c1e57600080fd5b81600660008673ffffffffffffffffffffffffffffffffffffffff1673ffffffffffffffffffffffffffffffffffffffff16815260200190815260200160002060003373ffffffffffffffffffffffffffffffffffffffff1673ffffffffffffffffffffffffffffffffffffffff16815260200190815260200160002060008282540392505081905550610cb384848461167d565b600190509392505050565b600360009054906101000a900460ff1681565b600081600560003373ffffffffffffffffffffffffffffffffffffffff1673ffffffffffffffffffffffffffffffffffffffff168152602001908152602001600020541015610d1f57600080fd5b81600560003373ffffffffffffffffffffffffffffffffffffffff1673ffffffffffffffffffffffffffffffffffffffff16815260200190815260200160002060008282540392505081905550816004600082825403925050819055503373ffffffffffffffffffffffffffffffffffffffff167fcc16f5dbb4873280815c1ee09dbd06736cffcc184412cf7a71a0fdb75d397ca5836040518082815260200191505060405180910390a260019050919050565b60075481565b60056020528060005260406000206000915090505481565b6000809054906101000a900473ffffffffffffffffffffffffffffffffffffffff1673ffffffffffffffffffffffffffffffffffffffff163373ffffffffffffffffffffffffffffffffffffffff1614610e4a57600080fd5b80600560008473ffffffffffffffffffffffffffffffffffffffff1673ffffffffffffffffffffffffffffffffffffffff16815260200190815260200160002060008282540192505081905550806004600082825401925050819055503073ffffffffffffffffffffffffffffffffffffffff16600073ffffffffffffffffffffffffffffffffffffffff167fddf252ad1be2c89b69c2b068fc378daa952ba7f163c4a11628f55a4df523b3ef836040518082815260200191505060405180910390a38173ffffffffffffffffffffffffffffffffffffffff163073ffffffffffffffffffffffffffffffffffffffff167fddf252ad1be2c89b69c2b068fc378daa952ba7f163c4a11628f55a4df523b3ef836040518082815260200191505060405180910390a35050565b600081600560008573ffffffffffffffffffffffffffffffffffffffff1673ffffffffffffffffffffffffffffffffffffffff168152602001908152602001600020541015610fc457600080fd5b600660008473ffffffffffffffffffffffffffffffffffffffff1673ffffffffffffffffffffffffffffffffffffffff16815260200190815260200160002060003373ffffffffffffffffffffffffffffffffffffffff1673ffffffffffffffffffffffffffffffffffffffff1681526020019081526020016000205482111561104d57600080fd5b81600560008573ffffffffffffffffffffffffffffffffffffffff1673ffffffffffffffffffffffffffffffffffffffff1681526020019081526020016000206000828254039250508190555081600660008573ffffffffffffffffffffffffffffffffffffffff1673ffffffffffffffffffffffffffffffffffffffff16815260200190815260200160002060003373ffffffffffffffffffffffffffffffffffffffff1673ffffffffffffffffffffffffffffffffffffffff16815260200190815260200160002060008282540392505081905550816004600082825403925050819055508273ffffffffffffffffffffffffffffffffffffffff167fcc16f5dbb4873280815c1ee09dbd06736cffcc184412cf7a71a0fdb75d397ca5836040518082815260200191505060405180910390a26001905092915050565b60085481565b6000809054906101000a900473ffffffffffffffffffffffffffffffffffffffff1681565b60028054600181600116156101000203166002900480601f01602080910402602001604051908101604052809291908181526020018280546001816001161561010002031660029004801561124d5780601f106112225761010080835404028352916020019161124d565b820191906000526020600020905b81548152906001019060200180831161123057829003601f168201915b505050505081565b6000600854348161126257fe5b04905061127030338361167d565b50565b600061128033848461167d565b6001905092915050565b60096020528060005260406000206000915054906101000a900460ff1681565b6000808490506112ba8585610a9b565b15611409578073ffffffffffffffffffffffffffffffffffffffff16638f4ffcb1338630876040518563ffffffff1660e01b8152600401808573ffffffffffffffffffffffffffffffffffffffff1673ffffffffffffffffffffffffffffffffffffffff1681526020018481526020018373ffffffffffffffffffffffffffffffffffffffff1673ffffffffffffffffffffffffffffffffffffffff16815260200180602001828103825283818151815260200191508051906020019080838360005b8381101561139857808201518184015260208101905061137d565b50505050905090810190601f1680156113c55780820380516001836020036101000a031916815260200191505b5095505050505050600060405180830381600087803b1580156113e757600080fd5b505af11580156113fb573d6000803e3d6000fd5b50505050600191505061140b565b505b9392505050565b6006602052816000526040600020602052806000526040600020600091509150505481565b600030905060075482028173ffffffffffffffffffffffffffffffffffffffff1631101561146457600080fd5b61146f33308461167d565b3373ffffffffffffffffffffffffffffffffffffffff166108fc60075484029081150290604051600060405180830381858888f193505050501580156114b9573d6000803e3d6000fd5b505050565b6000809054906101000a900473ffffffffffffffffffffffffffffffffffffffff1673ffffffffffffffffffffffffffffffffffffffff163373ffffffffffffffffffffffffffffffffffffffff161461151757600080fd5b80600960008473ffffffffffffffffffffffffffffffffffffffff1673ffffffffffffffffffffffffffffffffffffffff16815260200190815260200160002060006101000a81548160ff0219169083151502179055507f48335238b4855f35377ed80f164e8c6f3c366e54ac00b96a6402d4a9814a03a58282604051808373ffffffffffffffffffffffffffffffffffffffff1673ffffffffffffffffffffffffffffffffffffffff168152602001821515151581526020019250505060405180910390a15050565b6000809054906101000a900473ffffffffffffffffffffffffffffffffffffffff1673ffffffffffffffffffffffffffffffffffffffff163373ffffffffffffffffffffffffffffffffffffffff161461163a57600080fd5b806000806101000a81548173ffffffffffffffffffffffffffffffffffffffff021916908373ffffffffffffffffffffffffffffffffffffffff16021790555050565b600073ffffffffffffffffffffffffffffffffffffffff168273ffffffffffffffffffffffffffffffffffffffff1614156116b757600080fd5b80600560008573ffffffffffffffffffffffffffffffffffffffff1673ffffffffffffffffffffffffffffffffffffffff16815260200190815260200160002054101561170357600080fd5b600560008373ffffffffffffffffffffffffffffffffffffffff1673ffffffffffffffffffffffffffffffffffffffff1681526020019081526020016000205481600560008573ffffffffffffffffffffffffffffffffffffffff1673ffffffffffffffffffffffffffffffffffffffff1681526020019081526020016000205401101561179057600080fd5b600960008473ffffffffffffffffffffffffffffffffffffffff1673ffffffffffffffffffffffffffffffffffffffff16815260200190815260200160002060009054906101000a900460ff16156117e757600080fd5b600960008373ffffffffffffffffffffffffffffffffffffffff1673ffffffffffffffffffffffffffffffffffffffff16815260200190815260200160002060009054906101000a900460ff161561183e57600080fd5b80600560008573ffffffffffffffffffffffffffffffffffffffff1673ffffffffffffffffffffffffffffffffffffffff1681526020019081526020016000206000828254039250508190555080600560008473ffffffffffffffffffffffffffffffffffffffff1673ffffffffffffffffffffffffffffffffffffffff168152602001908152602001600020600082825401925050819055508173ffffffffffffffffffffffffffffffffffffffff168373ffffffffffffffffffffffffffffffffffffffff167fddf252ad1be2c89b69c2b068fc378daa952ba7f163c4a11628f55a4df523b3ef836040518082815260200191505060405180910390a350505056fea265627a7a7231582067d3cdbd0cfe092a84f3cda3cf63a2f3e87c03c98b5671772fedc214f7b60fd564736f6c63430005110032",
					"opcodes": "PUSH1 0x80 PUSH1 0x40 MSTORE PUSH1 0x12 PUSH1 0x3 PUSH1 0x0 PUSH2 0x100 EXP DUP2 SLOAD DUP2 PUSH1 0xFF MUL NOT AND SWAP1 DUP4 PUSH1 0xFF AND MUL OR SWAP1 SSTORE POP CALLVALUE DUP1 ISZERO PUSH3 0x2D JUMPI PUSH1 0x0 DUP1 REVERT JUMPDEST POP PUSH1 0x40 MLOAD PUSH3 0x1CF6 CODESIZE SUB DUP1 PUSH3 0x1CF6 DUP4 CODECOPY DUP2 DUP2 ADD PUSH1 0x40 MSTORE PUSH1 0x60 DUP2 LT ISZERO PUSH3 0x53 JUMPI PUSH1 0x0 DUP1 REVERT JUMPDEST DUP2 ADD SWAP1 DUP1 DUP1 MLOAD SWAP1 PUSH1 0x20 ADD SWAP1 SWAP3 SWAP2 SWAP1 DUP1 MLOAD PUSH1 0x40 MLOAD SWAP4 SWAP3 SWAP2 SWAP1 DUP5 PUSH5 0x100000000 DUP3 GT ISZERO PUSH3 0x7E JUMPI PUSH1 0x0 DUP1 REVERT JUMPDEST DUP4 DUP3 ADD SWAP2 POP PUSH1 0x20 DUP3 ADD DUP6 DUP2 GT ISZERO PUSH3 0x95 JUMPI PUSH1 0x0 DUP1 REVERT JUMPDEST DUP3 MLOAD DUP7 PUSH1 0x1 DUP3 MUL DUP4 ADD GT PUSH5 0x100000000 DUP3 GT OR ISZERO PUSH3 0xB3 JUMPI PUSH1 0x0 DUP1 REVERT JUMPDEST DUP1 DUP4 MSTORE PUSH1 0x20 DUP4 ADD SWAP3 POP POP POP SWAP1 DUP1 MLOAD SWAP1 PUSH1 0x20 ADD SWAP1 DUP1 DUP4 DUP4 PUSH1 0x0 JUMPDEST DUP4 DUP2 LT ISZERO PUSH3 0xE9 JUMPI DUP1 DUP3 ADD MLOAD DUP2 DUP5 ADD MSTORE PUSH1 0x20 DUP2 ADD SWAP1 POP PUSH3 0xCC JUMP JUMPDEST POP POP POP POP SWAP1 POP SWAP1 DUP2 ADD SWAP1 PUSH1 0x1F AND DUP1 ISZERO PUSH3 0x117 JUMPI DUP1 DUP3 SUB DUP1 MLOAD PUSH1 0x1 DUP4 PUSH1 0x20 SUB PUSH2 0x100 EXP SUB NOT AND DUP2 MSTORE PUSH1 0x20 ADD SWAP2 POP JUMPDEST POP PUSH1 0x40 MSTORE PUSH1 0x20 ADD DUP1 MLOAD PUSH1 0x40 MLOAD SWAP4 SWAP3 SWAP2 SWAP1 DUP5 PUSH5 0x100000000 DUP3 GT ISZERO PUSH3 0x13B JUMPI PUSH1 0x0 DUP1 REVERT JUMPDEST DUP4 DUP3 ADD SWAP2 POP PUSH1 0x20 DUP3 ADD DUP6 DUP2 GT ISZERO PUSH3 0x152 JUMPI PUSH1 0x0 DUP1 REVERT JUMPDEST DUP3 MLOAD DUP7 PUSH1 0x1 DUP3 MUL DUP4 ADD GT PUSH5 0x100000000 DUP3 GT OR ISZERO PUSH3 0x170 JUMPI PUSH1 0x0 DUP1 REVERT JUMPDEST DUP1 DUP4 MSTORE PUSH1 0x20 DUP4 ADD SWAP3 POP POP POP SWAP1 DUP1 MLOAD SWAP1 PUSH1 0x20 ADD SWAP1 DUP1 DUP4 DUP4 PUSH1 0x0 JUMPDEST DUP4 DUP2 LT ISZERO PUSH3 0x1A6 JUMPI DUP1 DUP3 ADD MLOAD DUP2 DUP5 ADD MSTORE PUSH1 0x20 DUP2 ADD SWAP1 POP PUSH3 0x189 JUMP JUMPDEST POP POP POP POP SWAP1 POP SWAP1 DUP2 ADD SWAP1 PUSH1 0x1F AND DUP1 ISZERO PUSH3 0x1D4 JUMPI DUP1 DUP3 SUB DUP1 MLOAD PUSH1 0x1 DUP4 PUSH1 0x20 SUB PUSH2 0x100 EXP SUB NOT AND DUP2 MSTORE PUSH1 0x20 ADD SWAP2 POP JUMPDEST POP PUSH1 0x40 MSTORE POP POP POP DUP3 DUP3 DUP3 CALLER PUSH1 0x0 DUP1 PUSH2 0x100 EXP DUP2 SLOAD DUP2 PUSH20 0xFFFFFFFFFFFFFFFFFFFFFFFFFFFFFFFFFFFFFFFF MUL NOT AND SWAP1 DUP4 PUSH20 0xFFFFFFFFFFFFFFFFFFFFFFFFFFFFFFFFFFFFFFFF AND MUL OR SWAP1 SSTORE POP PUSH1 0x3 PUSH1 0x0 SWAP1 SLOAD SWAP1 PUSH2 0x100 EXP SWAP1 DIV PUSH1 0xFF AND PUSH1 0xFF AND PUSH1 0xA EXP DUP4 MUL PUSH1 0x4 DUP2 SWAP1 SSTORE POP PUSH1 0x4 SLOAD PUSH1 0x5 PUSH1 0x0 CALLER PUSH20 0xFFFFFFFFFFFFFFFFFFFFFFFFFFFFFFFFFFFFFFFF AND PUSH20 0xFFFFFFFFFFFFFFFFFFFFFFFFFFFFFFFFFFFFFFFF AND DUP2 MSTORE PUSH1 0x20 ADD SWAP1 DUP2 MSTORE PUSH1 0x20 ADD PUSH1 0x0 KECCAK256 DUP2 SWAP1 SSTORE POP DUP2 PUSH1 0x1 SWAP1 DUP1 MLOAD SWAP1 PUSH1 0x20 ADD SWAP1 PUSH3 0x29A SWAP3 SWAP2 SWAP1 PUSH3 0x2C0 JUMP JUMPDEST POP DUP1 PUSH1 0x2 SWAP1 DUP1 MLOAD SWAP1 PUSH1 0x20 ADD SWAP1 PUSH3 0x2B3 SWAP3 SWAP2 SWAP1 PUSH3 0x2C0 JUMP JUMPDEST POP POP POP POP POP POP POP PUSH3 0x36F JUMP JUMPDEST DUP3 DUP1 SLOAD PUSH1 0x1 DUP2 PUSH1 0x1 AND ISZERO PUSH2 0x100 MUL SUB AND PUSH1 0x2 SWAP1 DIV SWAP1 PUSH1 0x0 MSTORE PUSH1 0x20 PUSH1 0x0 KECCAK256 SWAP1 PUSH1 0x1F ADD PUSH1 0x20 SWAP1 DIV DUP2 ADD SWAP3 DUP3 PUSH1 0x1F LT PUSH3 0x303 JUMPI DUP1 MLOAD PUSH1 0xFF NOT AND DUP4 DUP1 ADD OR DUP6 SSTORE PUSH3 0x334 JUMP JUMPDEST DUP3 DUP1 ADD PUSH1 0x1 ADD DUP6 SSTORE DUP3 ISZERO PUSH3 0x334 JUMPI SWAP2 DUP3 ADD JUMPDEST DUP3 DUP2 GT ISZERO PUSH3 0x333 JUMPI DUP3 MLOAD DUP3 SSTORE SWAP2 PUSH1 0x20 ADD SWAP2 SWAP1 PUSH1 0x1 ADD SWAP1 PUSH3 0x316 JUMP JUMPDEST JUMPDEST POP SWAP1 POP PUSH3 0x343 SWAP2 SWAP1 PUSH3 0x347 JUMP JUMPDEST POP SWAP1 JUMP JUMPDEST PUSH3 0x36C SWAP2 SWAP1 JUMPDEST DUP1 DUP3 GT ISZERO PUSH3 0x368 JUMPI PUSH1 0x0 DUP2 PUSH1 0x0 SWAP1 SSTORE POP PUSH1 0x1 ADD PUSH3 0x34E JUMP JUMPDEST POP SWAP1 JUMP JUMPDEST SWAP1 JUMP JUMPDEST PUSH2 0x1977 DUP1 PUSH3 0x37F PUSH1 0x0 CODECOPY PUSH1 0x0 RETURN INVALID PUSH1 0x80 PUSH1 0x40 MSTORE PUSH1 0x4 CALLDATASIZE LT PUSH2 0x135 JUMPI PUSH1 0x0 CALLDATALOAD PUSH1 0xE0 SHR DUP1 PUSH4 0x8620410B GT PUSH2 0xAB JUMPI DUP1 PUSH4 0xB414D4B6 GT PUSH2 0x6F JUMPI DUP1 PUSH4 0xB414D4B6 EQ PUSH2 0x6B1 JUMPI DUP1 PUSH4 0xCAE9CA51 EQ PUSH2 0x71A JUMPI DUP1 PUSH4 0xDD62ED3E EQ PUSH2 0x824 JUMPI DUP1 PUSH4 0xE4849B32 EQ PUSH2 0x8A9 JUMPI DUP1 PUSH4 0xE724529C EQ PUSH2 0x8E4 JUMPI DUP1 PUSH4 0xF2FDE38B EQ PUSH2 0x941 JUMPI PUSH2 0x135 JUMP JUMPDEST DUP1 PUSH4 0x8620410B EQ PUSH2 0x522 JUMPI DUP1 PUSH4 0x8DA5CB5B EQ PUSH2 0x54D JUMPI DUP1 PUSH4 0x95D89B41 EQ PUSH2 0x5A4 JUMPI DUP1 PUSH4 0xA6F2AE3A EQ PUSH2 0x634 JUMPI DUP1 PUSH4 0xA9059CBB EQ PUSH2 0x63E JUMPI PUSH2 0x135 JUMP JUMPDEST DUP1 PUSH4 0x313CE567 GT PUSH2 0xFD JUMPI DUP1 PUSH4 0x313CE567 EQ PUSH2 0x340 JUMPI DUP1 PUSH4 0x42966C68 EQ PUSH2 0x371 JUMPI DUP1 PUSH4 0x4B750334 EQ PUSH2 0x3C4 JUMPI DUP1 PUSH4 0x70A08231 EQ PUSH2 0x3EF JUMPI DUP1 PUSH4 0x79C65068 EQ PUSH2 0x454 JUMPI DUP1 PUSH4 0x79CC6790 EQ PUSH2 0x4AF JUMPI PUSH2 0x135 JUMP JUMPDEST DUP1 PUSH4 0x5FEFDA7 EQ PUSH2 0x13A JUMPI DUP1 PUSH4 0x6FDDE03 EQ PUSH2 0x17F JUMPI DUP1 PUSH4 0x95EA7B3 EQ PUSH2 0x20F JUMPI DUP1 PUSH4 0x18160DDD EQ PUSH2 0x282 JUMPI DUP1 PUSH4 0x23B872DD EQ PUSH2 0x2AD JUMPI JUMPDEST PUSH1 0x0 DUP1 REVERT JUMPDEST CALLVALUE DUP1 ISZERO PUSH2 0x146 JUMPI PUSH1 0x0 DUP1 REVERT JUMPDEST POP PUSH2 0x17D PUSH1 0x4 DUP1 CALLDATASIZE SUB PUSH1 0x40 DUP2 LT ISZERO PUSH2 0x15D JUMPI PUSH1 0x0 DUP1 REVERT JUMPDEST DUP2 ADD SWAP1 DUP1 DUP1 CALLDATALOAD SWAP1 PUSH1 0x20 ADD SWAP1 SWAP3 SWAP2 SWAP1 DUP1 CALLDATALOAD SWAP1 PUSH1 0x20 ADD SWAP1 SWAP3 SWAP2 SWAP1 POP POP POP PUSH2 0x992 JUMP JUMPDEST STOP JUMPDEST CALLVALUE DUP1 ISZERO PUSH2 0x18B JUMPI PUSH1 0x0 DUP1 REVERT JUMPDEST POP PUSH2 0x194 PUSH2 0x9FD JUMP JUMPDEST PUSH1 0x40 MLOAD DUP1 DUP1 PUSH1 0x20 ADD DUP3 DUP2 SUB DUP3 MSTORE DUP4 DUP2 DUP2 MLOAD DUP2 MSTORE PUSH1 0x20 ADD SWAP2 POP DUP1 MLOAD SWAP1 PUSH1 0x20 ADD SWAP1 DUP1 DUP4 DUP4 PUSH1 0x0 JUMPDEST DUP4 DUP2 LT ISZERO PUSH2 0x1D4 JUMPI DUP1 DUP3 ADD MLOAD DUP2 DUP5 ADD MSTORE PUSH1 0x20 DUP2 ADD SWAP1 POP PUSH2 0x1B9 JUMP JUMPDEST POP POP POP POP SWAP1 POP SWAP1 DUP2 ADD SWAP1 PUSH1 0x1F AND DUP1 ISZERO PUSH2 0x201 JUMPI DUP1 DUP3 SUB DUP1 MLOAD PUSH1 0x1 DUP4 PUSH1 0x20 SUB PUSH2 0x100 EXP SUB NOT AND DUP2 MSTORE PUSH1 0x20 ADD SWAP2 POP JUMPDEST POP SWAP3 POP POP POP PUSH1 0x40 MLOAD DUP1 SWAP2 SUB SWAP1 RETURN JUMPDEST CALLVALUE DUP1 ISZERO PUSH2 0x21B JUMPI PUSH1 0x0 DUP1 REVERT JUMPDEST POP PUSH2 0x268 PUSH1 0x4 DUP1 CALLDATASIZE SUB PUSH1 0x40 DUP2 LT ISZERO PUSH2 0x232 JUMPI PUSH1 0x0 DUP1 REVERT JUMPDEST DUP2 ADD SWAP1 DUP1 DUP1 CALLDATALOAD PUSH20 0xFFFFFFFFFFFFFFFFFFFFFFFFFFFFFFFFFFFFFFFF AND SWAP1 PUSH1 0x20 ADD SWAP1 SWAP3 SWAP2 SWAP1 DUP1 CALLDATALOAD SWAP1 PUSH1 0x20 ADD SWAP1 SWAP3 SWAP2 SWAP1 POP POP POP PUSH2 0xA9B JUMP JUMPDEST PUSH1 0x40 MLOAD DUP1 DUP3 ISZERO ISZERO ISZERO ISZERO DUP2 MSTORE PUSH1 0x20 ADD SWAP2 POP POP PUSH1 0x40 MLOAD DUP1 SWAP2 SUB SWAP1 RETURN JUMPDEST CALLVALUE DUP1 ISZERO PUSH2 0x28E JUMPI PUSH1 0x0 DUP1 REVERT JUMPDEST POP PUSH2 0x297 PUSH2 0xB8D JUMP JUMPDEST PUSH1 0x40 MLOAD DUP1 DUP3 DUP2 MSTORE PUSH1 0x20 ADD SWAP2 POP POP PUSH1 0x40 MLOAD DUP1 SWAP2 SUB SWAP1 RETURN JUMPDEST CALLVALUE DUP1 ISZERO PUSH2 0x2B9 JUMPI PUSH1 0x0 DUP1 REVERT JUMPDEST POP PUSH2 0x326 PUSH1 0x4 DUP1 CALLDATASIZE SUB PUSH1 0x60 DUP2 LT ISZERO PUSH2 0x2D0 JUMPI PUSH1 0x0 DUP1 REVERT JUMPDEST DUP2 ADD SWAP1 DUP1 DUP1 CALLDATALOAD PUSH20 0xFFFFFFFFFFFFFFFFFFFFFFFFFFFFFFFFFFFFFFFF AND SWAP1 PUSH1 0x20 ADD SWAP1 SWAP3 SWAP2 SWAP1 DUP1 CALLDATALOAD PUSH20 0xFFFFFFFFFFFFFFFFFFFFFFFFFFFFFFFFFFFFFFFF AND SWAP1 PUSH1 0x20 ADD SWAP1 SWAP3 SWAP2 SWAP1 DUP1 CALLDATALOAD SWAP1 PUSH1 0x20 ADD SWAP1 SWAP3 SWAP2 SWAP1 POP POP POP PUSH2 0xB93 JUMP JUMPDEST PUSH1 0x40 MLOAD DUP1 DUP3 ISZERO ISZERO ISZERO ISZERO DUP2 MSTORE PUSH1 0x20 ADD SWAP2 POP POP PUSH1 0x40 MLOAD DUP1 SWAP2 SUB SWAP1 RETURN JUMPDEST CALLVALUE DUP1 ISZERO PUSH2 0x34C JUMPI PUSH1 0x0 DUP1 REVERT JUMPDEST POP PUSH2 0x355 PUSH2 0xCBE JUMP JUMPDEST PUSH1 0x40 MLOAD DUP1 DUP3 PUSH1 0xFF AND PUSH1 0xFF AND DUP2 MSTORE PUSH1 0x20 ADD SWAP2 POP POP PUSH1 0x40 MLOAD DUP1 SWAP2 SUB SWAP1 RETURN JUMPDEST CALLVALUE DUP1 ISZERO PUSH2 0x37D JUMPI PUSH1 0x0 DUP1 REVERT JUMPDEST POP PUSH2 0x3AA PUSH1 0x4 DUP1 CALLDATASIZE SUB PUSH1 0x20 DUP2 LT ISZERO PUSH2 0x394 JUMPI PUSH1 0x0 DUP1 REVERT JUMPDEST DUP2 ADD SWAP1 DUP1 DUP1 CALLDATALOAD SWAP1 PUSH1 0x20 ADD SWAP1 SWAP3 SWAP2 SWAP1 POP POP POP PUSH2 0xCD1 JUMP JUMPDEST PUSH1 0x40 MLOAD DUP1 DUP3 ISZERO ISZERO ISZERO ISZERO DUP2 MSTORE PUSH1 0x20 ADD SWAP2 POP POP PUSH1 0x40 MLOAD DUP1 SWAP2 SUB SWAP1 RETURN JUMPDEST CALLVALUE DUP1 ISZERO PUSH2 0x3D0 JUMPI PUSH1 0x0 DUP1 REVERT JUMPDEST POP PUSH2 0x3D9 PUSH2 0xDD3 JUMP JUMPDEST PUSH1 0x40 MLOAD DUP1 DUP3 DUP2 MSTORE PUSH1 0x20 ADD SWAP2 POP POP PUSH1 0x40 MLOAD DUP1 SWAP2 SUB SWAP1 RETURN JUMPDEST CALLVALUE DUP1 ISZERO PUSH2 0x3FB JUMPI PUSH1 0x0 DUP1 REVERT JUMPDEST POP PUSH2 0x43E PUSH1 0x4 DUP1 CALLDATASIZE SUB PUSH1 0x20 DUP2 LT ISZERO PUSH2 0x412 JUMPI PUSH1 0x0 DUP1 REVERT JUMPDEST DUP2 ADD SWAP1 DUP1 DUP1 CALLDATALOAD PUSH20 0xFFFFFFFFFFFFFFFFFFFFFFFFFFFFFFFFFFFFFFFF AND SWAP1 PUSH1 0x20 ADD SWAP1 SWAP3 SWAP2 SWAP1 POP POP POP PUSH2 0xDD9 JUMP JUMPDEST PUSH1 0x40 MLOAD DUP1 DUP3 DUP2 MSTORE PUSH1 0x20 ADD SWAP2 POP POP PUSH1 0x40 MLOAD DUP1 SWAP2 SUB SWAP1 RETURN JUMPDEST CALLVALUE DUP1 ISZERO PUSH2 0x460 JUMPI PUSH1 0x0 DUP1 REVERT JUMPDEST POP PUSH2 0x4AD PUSH1 0x4 DUP1 CALLDATASIZE SUB PUSH1 0x40 DUP2 LT ISZERO PUSH2 0x477 JUMPI PUSH1 0x0 DUP1 REVERT JUMPDEST DUP2 ADD SWAP1 DUP1 DUP1 CALLDATALOAD PUSH20 0xFFFFFFFFFFFFFFFFFFFFFFFFFFFFFFFFFFFFFFFF AND SWAP1 PUSH1 0x20 ADD SWAP1 SWAP3 SWAP2 SWAP1 DUP1 CALLDATALOAD SWAP1 PUSH1 0x20 ADD SWAP1 SWAP3 SWAP2 SWAP1 POP POP POP PUSH2 0xDF1 JUMP JUMPDEST STOP JUMPDEST CALLVALUE DUP1 ISZERO PUSH2 0x4BB JUMPI PUSH1 0x0 DUP1 REVERT JUMPDEST POP PUSH2 0x508 PUSH1 0x4 DUP1 CALLDATASIZE SUB PUSH1 0x40 DUP2 LT ISZERO PUSH2 0x4D2 JUMPI PUSH1 0x0 DUP1 REVERT JUMPDEST DUP2 ADD SWAP1 DUP1 DUP1 CALLDATALOAD PUSH20 0xFFFFFFFFFFFFFFFFFFFFFFFFFFFFFFFFFFFFFFFF AND SWAP1 PUSH1 0x20 ADD SWAP1 SWAP3 SWAP2 SWAP1 DUP1 CALLDATALOAD SWAP1 PUSH1 0x20 ADD SWAP1 SWAP3 SWAP2 SWAP1 POP POP POP PUSH2 0xF76 JUMP JUMPDEST PUSH1 0x40 MLOAD DUP1 DUP3 ISZERO ISZERO ISZERO ISZERO DUP2 MSTORE PUSH1 0x20 ADD SWAP2 POP POP PUSH1 0x40 MLOAD DUP1 SWAP2 SUB SWAP1 RETURN JUMPDEST CALLVALUE DUP1 ISZERO PUSH2 0x52E JUMPI PUSH1 0x0 DUP1 REVERT JUMPDEST POP PUSH2 0x537 PUSH2 0x118C JUMP JUMPDEST PUSH1 0x40 MLOAD DUP1 DUP3 DUP2 MSTORE PUSH1 0x20 ADD SWAP2 POP POP PUSH1 0x40 MLOAD DUP1 SWAP2 SUB SWAP1 RETURN JUMPDEST CALLVALUE DUP1 ISZERO PUSH2 0x559 JUMPI PUSH1 0x0 DUP1 REVERT JUMPDEST POP PUSH2 0x562 PUSH2 0x1192 JUMP JUMPDEST PUSH1 0x40 MLOAD DUP1 DUP3 PUSH20 0xFFFFFFFFFFFFFFFFFFFFFFFFFFFFFFFFFFFFFFFF AND PUSH20 0xFFFFFFFFFFFFFFFFFFFFFFFFFFFFFFFFFFFFFFFF AND DUP2 MSTORE PUSH1 0x20 ADD SWAP2 POP POP PUSH1 0x40 MLOAD DUP1 SWAP2 SUB SWAP1 RETURN JUMPDEST CALLVALUE DUP1 ISZERO PUSH2 0x5B0 JUMPI PUSH1 0x0 DUP1 REVERT JUMPDEST POP PUSH2 0x5B9 PUSH2 0x11B7 JUMP JUMPDEST PUSH1 0x40 MLOAD DUP1 DUP1 PUSH1 0x20 ADD DUP3 DUP2 SUB DUP3 MSTORE DUP4 DUP2 DUP2 MLOAD DUP2 MSTORE PUSH1 0x20 ADD SWAP2 POP DUP1 MLOAD SWAP1 PUSH1 0x20 ADD SWAP1 DUP1 DUP4 DUP4 PUSH1 0x0 JUMPDEST DUP4 DUP2 LT ISZERO PUSH2 0x5F9 JUMPI DUP1 DUP3 ADD MLOAD DUP2 DUP5 ADD MSTORE PUSH1 0x20 DUP2 ADD SWAP1 POP PUSH2 0x5DE JUMP JUMPDEST POP POP POP POP SWAP1 POP SWAP1 DUP2 ADD SWAP1 PUSH1 0x1F AND DUP1 ISZERO PUSH2 0x626 JUMPI DUP1 DUP3 SUB DUP1 MLOAD PUSH1 0x1 DUP4 PUSH1 0x20 SUB PUSH2 0x100 EXP SUB NOT AND DUP2 MSTORE PUSH1 0x20 ADD SWAP2 POP JUMPDEST POP SWAP3 POP POP POP PUSH1 0x40 MLOAD DUP1 SWAP2 SUB SWAP1 RETURN JUMPDEST PUSH2 0x63C PUSH2 0x1255 JUMP JUMPDEST STOP JUMPDEST CALLVALUE DUP1 ISZERO PUSH2 0x64A JUMPI PUSH1 0x0 DUP1 REVERT JUMPDEST POP PUSH2 0x697 PUSH1 0x4 DUP1 CALLDATASIZE SUB PUSH1 0x40 DUP2 LT ISZERO PUSH2 0x661 JUMPI PUSH1 0x0 DUP1 REVERT JUMPDEST DUP2 ADD SWAP1 DUP1 DUP1 CALLDATALOAD PUSH20 0xFFFFFFFFFFFFFFFFFFFFFFFFFFFFFFFFFFFFFFFF AND SWAP1 PUSH1 0x20 ADD SWAP1 SWAP3 SWAP2 SWAP1 DUP1 CALLDATALOAD SWAP1 PUSH1 0x20 ADD SWAP1 SWAP3 SWAP2 SWAP1 POP POP POP PUSH2 0x1273 JUMP JUMPDEST PUSH1 0x40 MLOAD DUP1 DUP3 ISZERO ISZERO ISZERO ISZERO DUP2 MSTORE PUSH1 0x20 ADD SWAP2 POP POP PUSH1 0x40 MLOAD DUP1 SWAP2 SUB SWAP1 RETURN JUMPDEST CALLVALUE DUP1 ISZERO PUSH2 0x6BD JUMPI PUSH1 0x0 DUP1 REVERT JUMPDEST POP PUSH2 0x700 PUSH1 0x4 DUP1 CALLDATASIZE SUB PUSH1 0x20 DUP2 LT ISZERO PUSH2 0x6D4 JUMPI PUSH1 0x0 DUP1 REVERT JUMPDEST DUP2 ADD SWAP1 DUP1 DUP1 CALLDATALOAD PUSH20 0xFFFFFFFFFFFFFFFFFFFFFFFFFFFFFFFFFFFFFFFF AND SWAP1 PUSH1 0x20 ADD SWAP1 SWAP3 SWAP2 SWAP1 POP POP POP PUSH2 0x128A JUMP JUMPDEST PUSH1 0x40 MLOAD DUP1 DUP3 ISZERO ISZERO ISZERO ISZERO DUP2 MSTORE PUSH1 0x20 ADD SWAP2 POP POP PUSH1 0x40 MLOAD DUP1 SWAP2 SUB SWAP1 RETURN JUMPDEST CALLVALUE DUP1 ISZERO PUSH2 0x726 JUMPI PUSH1 0x0 DUP1 REVERT JUMPDEST POP PUSH2 0x80A PUSH1 0x4 DUP1 CALLDATASIZE SUB PUSH1 0x60 DUP2 LT ISZERO PUSH2 0x73D JUMPI PUSH1 0x0 DUP1 REVERT JUMPDEST DUP2 ADD SWAP1 DUP1 DUP1 CALLDATALOAD PUSH20 0xFFFFFFFFFFFFFFFFFFFFFFFFFFFFFFFFFFFFFFFF AND SWAP1 PUSH1 0x20 ADD SWAP1 SWAP3 SWAP2 SWAP1 DUP1 CALLDATALOAD SWAP1 PUSH1 0x20 ADD SWAP1 SWAP3 SWAP2 SWAP1 DUP1 CALLDATALOAD SWAP1 PUSH1 0x20 ADD SWAP1 PUSH5 0x100000000 DUP2 GT ISZERO PUSH2 0x784 JUMPI PUSH1 0x0 DUP1 REVERT JUMPDEST DUP3 ADD DUP4 PUSH1 0x20 DUP3 ADD GT ISZERO PUSH2 0x796 JUMPI PUSH1 0x0 DUP1 REVERT JUMPDEST DUP1 CALLDATALOAD SWAP1 PUSH1 0x20 ADD SWAP2 DUP5 PUSH1 0x1 DUP4 MUL DUP5 ADD GT PUSH5 0x100000000 DUP4 GT OR ISZERO PUSH2 0x7B8 JUMPI PUSH1 0x0 DUP1 REVERT JUMPDEST SWAP2 SWAP1 DUP1 DUP1 PUSH1 0x1F ADD PUSH1 0x20 DUP1 SWAP2 DIV MUL PUSH1 0x20 ADD PUSH1 0x40 MLOAD SWAP1 DUP2 ADD PUSH1 0x40 MSTORE DUP1 SWAP4 SWAP3 SWAP2 SWAP1 DUP2 DUP2 MSTORE PUSH1 0x20 ADD DUP4 DUP4 DUP1 DUP3 DUP5 CALLDATACOPY PUSH1 0x0 DUP2 DUP5 ADD MSTORE PUSH1 0x1F NOT PUSH1 0x1F DUP3 ADD AND SWAP1 POP DUP1 DUP4 ADD SWAP3 POP POP POP POP POP POP POP SWAP2 SWAP3 SWAP2 SWAP3 SWAP1 POP POP POP PUSH2 0x12AA JUMP JUMPDEST PUSH1 0x40 MLOAD DUP1 DUP3 ISZERO ISZERO ISZERO ISZERO DUP2 MSTORE PUSH1 0x20 ADD SWAP2 POP POP PUSH1 0x40 MLOAD DUP1 SWAP2 SUB SWAP1 RETURN JUMPDEST CALLVALUE DUP1 ISZERO PUSH2 0x830 JUMPI PUSH1 0x0 DUP1 REVERT JUMPDEST POP PUSH2 0x893 PUSH1 0x4 DUP1 CALLDATASIZE SUB PUSH1 0x40 DUP2 LT ISZERO PUSH2 0x847 JUMPI PUSH1 0x0 DUP1 REVERT JUMPDEST DUP2 ADD SWAP1 DUP1 DUP1 CALLDATALOAD PUSH20 0xFFFFFFFFFFFFFFFFFFFFFFFFFFFFFFFFFFFFFFFF AND SWAP1 PUSH1 0x20 ADD SWAP1 SWAP3 SWAP2 SWAP1 DUP1 CALLDATALOAD PUSH20 0xFFFFFFFFFFFFFFFFFFFFFFFFFFFFFFFFFFFFFFFF AND SWAP1 PUSH1 0x20 ADD SWAP1 SWAP3 SWAP2 SWAP1 POP POP POP PUSH2 0x1412 JUMP JUMPDEST PUSH1 0x40 MLOAD DUP1 DUP3 DUP2 MSTORE PUSH1 0x20 ADD SWAP2 POP POP PUSH1 0x40 MLOAD DUP1 SWAP2 SUB SWAP1 RETURN JUMPDEST CALLVALUE DUP1 ISZERO PUSH2 0x8B5 JUMPI PUSH1 0x0 DUP1 REVERT JUMPDEST POP PUSH2 0x8E2 PUSH1 0x4 DUP1 CALLDATASIZE SUB PUSH1 0x20 DUP2 LT ISZERO PUSH2 0x8CC JUMPI PUSH1 0x0 DUP1 REVERT JUMPDEST DUP2 ADD SWAP1 DUP1 DUP1 CALLDATALOAD SWAP1 PUSH1 0x20 ADD SWAP1 SWAP3 SWAP2 SWAP1 POP POP POP PUSH2 0x1437 JUMP JUMPDEST STOP JUMPDEST CALLVALUE DUP1 ISZERO PUSH2 0x8F0 JUMPI PUSH1 0x0 DUP1 REVERT JUMPDEST POP PUSH2 0x93F PUSH1 0x4 DUP1 CALLDATASIZE SUB PUSH1 0x40 DUP2 LT ISZERO PUSH2 0x907 JUMPI PUSH1 0x0 DUP1 REVERT JUMPDEST DUP2 ADD SWAP1 DUP1 DUP1 CALLDATALOAD PUSH20 0xFFFFFFFFFFFFFFFFFFFFFFFFFFFFFFFFFFFFFFFF AND SWAP1 PUSH1 0x20 ADD SWAP1 SWAP3 SWAP2 SWAP1 DUP1 CALLDATALOAD ISZERO ISZERO SWAP1 PUSH1 0x20 ADD SWAP1 SWAP3 SWAP2 SWAP1 POP POP POP PUSH2 0x14BE JUMP JUMPDEST STOP JUMPDEST CALLVALUE DUP1 ISZERO PUSH2 0x94D JUMPI PUSH1 0x0 DUP1 REVERT JUMPDEST POP PUSH2 0x990 PUSH1 0x4 DUP1 CALLDATASIZE SUB PUSH1 0x20 DUP2 LT ISZERO PUSH2 0x964 JUMPI PUSH1 0x0 DUP1 REVERT JUMPDEST DUP2 ADD SWAP1 DUP1 DUP1 CALLDATALOAD PUSH20 0xFFFFFFFFFFFFFFFFFFFFFFFFFFFFFFFFFFFFFFFF AND SWAP1 PUSH1 0x20 ADD SWAP1 SWAP3 SWAP2 SWAP1 POP POP POP PUSH2 0x15E1 JUMP JUMPDEST STOP JUMPDEST PUSH1 0x0 DUP1 SWAP1 SLOAD SWAP1 PUSH2 0x100 EXP SWAP1 DIV PUSH20 0xFFFFFFFFFFFFFFFFFFFFFFFFFFFFFFFFFFFFFFFF AND PUSH20 0xFFFFFFFFFFFFFFFFFFFFFFFFFFFFFFFFFFFFFFFF AND CALLER PUSH20 0xFFFFFFFFFFFFFFFFFFFFFFFFFFFFFFFFFFFFFFFF AND EQ PUSH2 0x9EB JUMPI PUSH1 0x0 DUP1 REVERT JUMPDEST DUP2 PUSH1 0x7 DUP2 SWAP1 SSTORE POP DUP1 PUSH1 0x8 DUP2 SWAP1 SSTORE POP POP POP JUMP JUMPDEST PUSH1 0x1 DUP1 SLOAD PUSH1 0x1 DUP2 PUSH1 0x1 AND ISZERO PUSH2 0x100 MUL SUB AND PUSH1 0x2 SWAP1 DIV DUP1 PUSH1 0x1F ADD PUSH1 0x20 DUP1 SWAP2 DIV MUL PUSH1 0x20 ADD PUSH1 0x40 MLOAD SWAP1 DUP2 ADD PUSH1 0x40 MSTORE DUP1 SWAP3 SWAP2 SWAP1 DUP2 DUP2 MSTORE PUSH1 0x20 ADD DUP3 DUP1 SLOAD PUSH1 0x1 DUP2 PUSH1 0x1 AND ISZERO PUSH2 0x100 MUL SUB AND PUSH1 0x2 SWAP1 DIV DUP1 ISZERO PUSH2 0xA93 JUMPI DUP1 PUSH1 0x1F LT PUSH2 0xA68 JUMPI PUSH2 0x100 DUP1 DUP4 SLOAD DIV MUL DUP4 MSTORE SWAP2 PUSH1 0x20 ADD SWAP2 PUSH2 0xA93 JUMP JUMPDEST DUP3 ADD SWAP2 SWAP1 PUSH1 0x0 MSTORE PUSH1 0x20 PUSH1 0x0 KECCAK256 SWAP1 JUMPDEST DUP2 SLOAD DUP2 MSTORE SWAP1 PUSH1 0x1 ADD SWAP1 PUSH1 0x20 ADD DUP1 DUP4 GT PUSH2 0xA76 JUMPI DUP3 SWAP1 SUB PUSH1 0x1F AND DUP3 ADD SWAP2 JUMPDEST POP POP POP POP POP DUP2 JUMP JUMPDEST PUSH1 0x0 DUP2 PUSH1 0x6 PUSH1 0x0 CALLER PUSH20 0xFFFFFFFFFFFFFFFFFFFFFFFFFFFFFFFFFFFFFFFF AND PUSH20 0xFFFFFFFFFFFFFFFFFFFFFFFFFFFFFFFFFFFFFFFF AND DUP2 MSTORE PUSH1 0x20 ADD SWAP1 DUP2 MSTORE PUSH1 0x20 ADD PUSH1 0x0 KECCAK256 PUSH1 0x0 DUP6 PUSH20 0xFFFFFFFFFFFFFFFFFFFFFFFFFFFFFFFFFFFFFFFF AND PUSH20 0xFFFFFFFFFFFFFFFFFFFFFFFFFFFFFFFFFFFFFFFF AND DUP2 MSTORE PUSH1 0x20 ADD SWAP1 DUP2 MSTORE PUSH1 0x20 ADD PUSH1 0x0 KECCAK256 DUP2 SWAP1 SSTORE POP DUP3 PUSH20 0xFFFFFFFFFFFFFFFFFFFFFFFFFFFFFFFFFFFFFFFF AND CALLER PUSH20 0xFFFFFFFFFFFFFFFFFFFFFFFFFFFFFFFFFFFFFFFF AND PUSH32 0x8C5BE1E5EBEC7D5BD14F71427D1E84F3DD0314C0F7B2291E5B200AC8C7C3B925 DUP5 PUSH1 0x40 MLOAD DUP1 DUP3 DUP2 MSTORE PUSH1 0x20 ADD SWAP2 POP POP PUSH1 0x40 MLOAD DUP1 SWAP2 SUB SWAP1 LOG3 PUSH1 0x1 SWAP1 POP SWAP3 SWAP2 POP POP JUMP JUMPDEST PUSH1 0x4 SLOAD DUP2 JUMP JUMPDEST PUSH1 0x0 PUSH1 0x6 PUSH1 0x0 DUP6 PUSH20 0xFFFFFFFFFFFFFFFFFFFFFFFFFFFFFFFFFFFFFFFF AND PUSH20 0xFFFFFFFFFFFFFFFFFFFFFFFFFFFFFFFFFFFFFFFF AND DUP2 MSTORE PUSH1 0x20 ADD SWAP1 DUP2 MSTORE PUSH1 0x20 ADD PUSH1 0x0 KECCAK256 PUSH1 0x0 CALLER PUSH20 0xFFFFFFFFFFFFFFFFFFFFFFFFFFFFFFFFFFFFFFFF AND PUSH20 0xFFFFFFFFFFFFFFFFFFFFFFFFFFFFFFFFFFFFFFFF AND DUP2 MSTORE PUSH1 0x20 ADD SWAP1 DUP2 MSTORE PUSH1 0x20 ADD PUSH1 0x0 KECCAK256 SLOAD DUP3 GT ISZERO PUSH2 0xC1E JUMPI PUSH1 0x0 DUP1 REVERT JUMPDEST DUP2 PUSH1 0x6 PUSH1 0x0 DUP7 PUSH20 0xFFFFFFFFFFFFFFFFFFFFFFFFFFFFFFFFFFFFFFFF AND PUSH20 0xFFFFFFFFFFFFFFFFFFFFFFFFFFFFFFFFFFFFFFFF AND DUP2 MSTORE PUSH1 0x20 ADD SWAP1 DUP2 MSTORE PUSH1 0x20 ADD PUSH1 0x0 KECCAK256 PUSH1 0x0 CALLER PUSH20 0xFFFFFFFFFFFFFFFFFFFFFFFFFFFFFFFFFFFFFFFF AND PUSH20 0xFFFFFFFFFFFFFFFFFFFFFFFFFFFFFFFFFFFFFFFF AND DUP2 MSTORE PUSH1 0x20 ADD SWAP1 DUP2 MSTORE PUSH1 0x20 ADD PUSH1 0x0 KECCAK256 PUSH1 0x0 DUP3 DUP3 SLOAD SUB SWAP3 POP POP DUP2 SWAP1 SSTORE POP PUSH2 0xCB3 DUP5 DUP5 DUP5 PUSH2 0x167D JUMP JUMPDEST PUSH1 0x1 SWAP1 POP SWAP4 SWAP3 POP POP POP JUMP JUMPDEST PUSH1 0x3 PUSH1 0x0 SWAP1 SLOAD SWAP1 PUSH2 0x100 EXP SWAP1 DIV PUSH1 0xFF AND DUP2 JUMP JUMPDEST PUSH1 0x0 DUP2 PUSH1 0x5 PUSH1 0x0 CALLER PUSH20 0xFFFFFFFFFFFFFFFFFFFFFFFFFFFFFFFFFFFFFFFF AND PUSH20 0xFFFFFFFFFFFFFFFFFFFFFFFFFFFFFFFFFFFFFFFF AND DUP2 MSTORE PUSH1 0x20 ADD SWAP1 DUP2 MSTORE PUSH1 0x20 ADD PUSH1 0x0 KECCAK256 SLOAD LT ISZERO PUSH2 0xD1F JUMPI PUSH1 0x0 DUP1 REVERT JUMPDEST DUP2 PUSH1 0x5 PUSH1 0x0 CALLER PUSH20 0xFFFFFFFFFFFFFFFFFFFFFFFFFFFFFFFFFFFFFFFF AND PUSH20 0xFFFFFFFFFFFFFFFFFFFFFFFFFFFFFFFFFFFFFFFF AND DUP2 MSTORE PUSH1 0x20 ADD SWAP1 DUP2 MSTORE PUSH1 0x20 ADD PUSH1 0x0 KECCAK256 PUSH1 0x0 DUP3 DUP3 SLOAD SUB SWAP3 POP POP DUP2 SWAP1 SSTORE POP DUP2 PUSH1 0x4 PUSH1 0x0 DUP3 DUP3 SLOAD SUB SWAP3 POP POP DUP2 SWAP1 SSTORE POP CALLER PUSH20 0xFFFFFFFFFFFFFFFFFFFFFFFFFFFFFFFFFFFFFFFF AND PUSH32 0xCC16F5DBB4873280815C1EE09DBD06736CFFCC184412CF7A71A0FDB75D397CA5 DUP4 PUSH1 0x40 MLOAD DUP1 DUP3 DUP2 MSTORE PUSH1 0x20 ADD SWAP2 POP POP PUSH1 0x40 MLOAD DUP1 SWAP2 SUB SWAP1 LOG2 PUSH1 0x1 SWAP1 POP SWAP2 SWAP1 POP JUMP JUMPDEST PUSH1 0x7 SLOAD DUP2 JUMP JUMPDEST PUSH1 0x5 PUSH1 0x20 MSTORE DUP1 PUSH1 0x0 MSTORE PUSH1 0x40 PUSH1 0x0 KECCAK256 PUSH1 0x0 SWAP2 POP SWAP1 POP SLOAD DUP2 JUMP JUMPDEST PUSH1 0x0 DUP1 SWAP1 SLOAD SWAP1 PUSH2 0x100 EXP SWAP1 DIV PUSH20 0xFFFFFFFFFFFFFFFFFFFFFFFFFFFFFFFFFFFFFFFF AND PUSH20 0xFFFFFFFFFFFFFFFFFFFFFFFFFFFFFFFFFFFFFFFF AND CALLER PUSH20 0xFFFFFFFFFFFFFFFFFFFFFFFFFFFFFFFFFFFFFFFF AND EQ PUSH2 0xE4A JUMPI PUSH1 0x0 DUP1 REVERT JUMPDEST DUP1 PUSH1 0x5 PUSH1 0x0 DUP5 PUSH20 0xFFFFFFFFFFFFFFFFFFFFFFFFFFFFFFFFFFFFFFFF AND PUSH20 0xFFFFFFFFFFFFFFFFFFFFFFFFFFFFFFFFFFFFFFFF AND DUP2 MSTORE PUSH1 0x20 ADD SWAP1 DUP2 MSTORE PUSH1 0x20 ADD PUSH1 0x0 KECCAK256 PUSH1 0x0 DUP3 DUP3 SLOAD ADD SWAP3 POP POP DUP2 SWAP1 SSTORE POP DUP1 PUSH1 0x4 PUSH1 0x0 DUP3 DUP3 SLOAD ADD SWAP3 POP POP DUP2 SWAP1 SSTORE POP ADDRESS PUSH20 0xFFFFFFFFFFFFFFFFFFFFFFFFFFFFFFFFFFFFFFFF AND PUSH1 0x0 PUSH20 0xFFFFFFFFFFFFFFFFFFFFFFFFFFFFFFFFFFFFFFFF AND PUSH32 0xDDF252AD1BE2C89B69C2B068FC378DAA952BA7F163C4A11628F55A4DF523B3EF DUP4 PUSH1 0x40 MLOAD DUP1 DUP3 DUP2 MSTORE PUSH1 0x20 ADD SWAP2 POP POP PUSH1 0x40 MLOAD DUP1 SWAP2 SUB SWAP1 LOG3 DUP2 PUSH20 0xFFFFFFFFFFFFFFFFFFFFFFFFFFFFFFFFFFFFFFFF AND ADDRESS PUSH20 0xFFFFFFFFFFFFFFFFFFFFFFFFFFFFFFFFFFFFFFFF AND PUSH32 0xDDF252AD1BE2C89B69C2B068FC378DAA952BA7F163C4A11628F55A4DF523B3EF DUP4 PUSH1 0x40 MLOAD DUP1 DUP3 DUP2 MSTORE PUSH1 0x20 ADD SWAP2 POP POP PUSH1 0x40 MLOAD DUP1 SWAP2 SUB SWAP1 LOG3 POP POP JUMP JUMPDEST PUSH1 0x0 DUP2 PUSH1 0x5 PUSH1 0x0 DUP6 PUSH20 0xFFFFFFFFFFFFFFFFFFFFFFFFFFFFFFFFFFFFFFFF AND PUSH20 0xFFFFFFFFFFFFFFFFFFFFFFFFFFFFFFFFFFFFFFFF AND DUP2 MSTORE PUSH1 0x20 ADD SWAP1 DUP2 MSTORE PUSH1 0x20 ADD PUSH1 0x0 KECCAK256 SLOAD LT ISZERO PUSH2 0xFC4 JUMPI PUSH1 0x0 DUP1 REVERT JUMPDEST PUSH1 0x6 PUSH1 0x0 DUP5 PUSH20 0xFFFFFFFFFFFFFFFFFFFFFFFFFFFFFFFFFFFFFFFF AND PUSH20 0xFFFFFFFFFFFFFFFFFFFFFFFFFFFFFFFFFFFFFFFF AND DUP2 MSTORE PUSH1 0x20 ADD SWAP1 DUP2 MSTORE PUSH1 0x20 ADD PUSH1 0x0 KECCAK256 PUSH1 0x0 CALLER PUSH20 0xFFFFFFFFFFFFFFFFFFFFFFFFFFFFFFFFFFFFFFFF AND PUSH20 0xFFFFFFFFFFFFFFFFFFFFFFFFFFFFFFFFFFFFFFFF AND DUP2 MSTORE PUSH1 0x20 ADD SWAP1 DUP2 MSTORE PUSH1 0x20 ADD PUSH1 0x0 KECCAK256 SLOAD DUP3 GT ISZERO PUSH2 0x104D JUMPI PUSH1 0x0 DUP1 REVERT JUMPDEST DUP2 PUSH1 0x5 PUSH1 0x0 DUP6 PUSH20 0xFFFFFFFFFFFFFFFFFFFFFFFFFFFFFFFFFFFFFFFF AND PUSH20 0xFFFFFFFFFFFFFFFFFFFFFFFFFFFFFFFFFFFFFFFF AND DUP2 MSTORE PUSH1 0x20 ADD SWAP1 DUP2 MSTORE PUSH1 0x20 ADD PUSH1 0x0 KECCAK256 PUSH1 0x0 DUP3 DUP3 SLOAD SUB SWAP3 POP POP DUP2 SWAP1 SSTORE POP DUP2 PUSH1 0x6 PUSH1 0x0 DUP6 PUSH20 0xFFFFFFFFFFFFFFFFFFFFFFFFFFFFFFFFFFFFFFFF AND PUSH20 0xFFFFFFFFFFFFFFFFFFFFFFFFFFFFFFFFFFFFFFFF AND DUP2 MSTORE PUSH1 0x20 ADD SWAP1 DUP2 MSTORE PUSH1 0x20 ADD PUSH1 0x0 KECCAK256 PUSH1 0x0 CALLER PUSH20 0xFFFFFFFFFFFFFFFFFFFFFFFFFFFFFFFFFFFFFFFF AND PUSH20 0xFFFFFFFFFFFFFFFFFFFFFFFFFFFFFFFFFFFFFFFF AND DUP2 MSTORE PUSH1 0x20 ADD SWAP1 DUP2 MSTORE PUSH1 0x20 ADD PUSH1 0x0 KECCAK256 PUSH1 0x0 DUP3 DUP3 SLOAD SUB SWAP3 POP POP DUP2 SWAP1 SSTORE POP DUP2 PUSH1 0x4 PUSH1 0x0 DUP3 DUP3 SLOAD SUB SWAP3 POP POP DUP2 SWAP1 SSTORE POP DUP3 PUSH20 0xFFFFFFFFFFFFFFFFFFFFFFFFFFFFFFFFFFFFFFFF AND PUSH32 0xCC16F5DBB4873280815C1EE09DBD06736CFFCC184412CF7A71A0FDB75D397CA5 DUP4 PUSH1 0x40 MLOAD DUP1 DUP3 DUP2 MSTORE PUSH1 0x20 ADD SWAP2 POP POP PUSH1 0x40 MLOAD DUP1 SWAP2 SUB SWAP1 LOG2 PUSH1 0x1 SWAP1 POP SWAP3 SWAP2 POP POP JUMP JUMPDEST PUSH1 0x8 SLOAD DUP2 JUMP JUMPDEST PUSH1 0x0 DUP1 SWAP1 SLOAD SWAP1 PUSH2 0x100 EXP SWAP1 DIV PUSH20 0xFFFFFFFFFFFFFFFFFFFFFFFFFFFFFFFFFFFFFFFF AND DUP2 JUMP JUMPDEST PUSH1 0x2 DUP1 SLOAD PUSH1 0x1 DUP2 PUSH1 0x1 AND ISZERO PUSH2 0x100 MUL SUB AND PUSH1 0x2 SWAP1 DIV DUP1 PUSH1 0x1F ADD PUSH1 0x20 DUP1 SWAP2 DIV MUL PUSH1 0x20 ADD PUSH1 0x40 MLOAD SWAP1 DUP2 ADD PUSH1 0x40 MSTORE DUP1 SWAP3 SWAP2 SWAP1 DUP2 DUP2 MSTORE PUSH1 0x20 ADD DUP3 DUP1 SLOAD PUSH1 0x1 DUP2 PUSH1 0x1 AND ISZERO PUSH2 0x100 MUL SUB AND PUSH1 0x2 SWAP1 DIV DUP1 ISZERO PUSH2 0x124D JUMPI DUP1 PUSH1 0x1F LT PUSH2 0x1222 JUMPI PUSH2 0x100 DUP1 DUP4 SLOAD DIV MUL DUP4 MSTORE SWAP2 PUSH1 0x20 ADD SWAP2 PUSH2 0x124D JUMP JUMPDEST DUP3 ADD SWAP2 SWAP1 PUSH1 0x0 MSTORE PUSH1 0x20 PUSH1 0x0 KECCAK256 SWAP1 JUMPDEST DUP2 SLOAD DUP2 MSTORE SWAP1 PUSH1 0x1 ADD SWAP1 PUSH1 0x20 ADD DUP1 DUP4 GT PUSH2 0x1230 JUMPI DUP3 SWAP1 SUB PUSH1 0x1F AND DUP3 ADD SWAP2 JUMPDEST POP POP POP POP POP DUP2 JUMP JUMPDEST PUSH1 0x0 PUSH1 0x8 SLOAD CALLVALUE DUP2 PUSH2 0x1262 JUMPI INVALID JUMPDEST DIV SWAP1 POP PUSH2 0x1270 ADDRESS CALLER DUP4 PUSH2 0x167D JUMP JUMPDEST POP JUMP JUMPDEST PUSH1 0x0 PUSH2 0x1280 CALLER DUP5 DUP5 PUSH2 0x167D JUMP JUMPDEST PUSH1 0x1 SWAP1 POP SWAP3 SWAP2 POP POP JUMP JUMPDEST PUSH1 0x9 PUSH1 0x20 MSTORE DUP1 PUSH1 0x0 MSTORE PUSH1 0x40 PUSH1 0x0 KECCAK256 PUSH1 0x0 SWAP2 POP SLOAD SWAP1 PUSH2 0x100 EXP SWAP1 DIV PUSH1 0xFF AND DUP2 JUMP JUMPDEST PUSH1 0x0 DUP1 DUP5 SWAP1 POP PUSH2 0x12BA DUP6 DUP6 PUSH2 0xA9B JUMP JUMPDEST ISZERO PUSH2 0x1409 JUMPI DUP1 PUSH20 0xFFFFFFFFFFFFFFFFFFFFFFFFFFFFFFFFFFFFFFFF AND PUSH4 0x8F4FFCB1 CALLER DUP7 ADDRESS DUP8 PUSH1 0x40 MLOAD DUP6 PUSH4 0xFFFFFFFF AND PUSH1 0xE0 SHL DUP2 MSTORE PUSH1 0x4 ADD DUP1 DUP6 PUSH20 0xFFFFFFFFFFFFFFFFFFFFFFFFFFFFFFFFFFFFFFFF AND PUSH20 0xFFFFFFFFFFFFFFFFFFFFFFFFFFFFFFFFFFFFFFFF AND DUP2 MSTORE PUSH1 0x20 ADD DUP5 DUP2 MSTORE PUSH1 0x20 ADD DUP4 PUSH20 0xFFFFFFFFFFFFFFFFFFFFFFFFFFFFFFFFFFFFFFFF AND PUSH20 0xFFFFFFFFFFFFFFFFFFFFFFFFFFFFFFFFFFFFFFFF AND DUP2 MSTORE PUSH1 0x20 ADD DUP1 PUSH1 0x20 ADD DUP3 DUP2 SUB DUP3 MSTORE DUP4 DUP2 DUP2 MLOAD DUP2 MSTORE PUSH1 0x20 ADD SWAP2 POP DUP1 MLOAD SWAP1 PUSH1 0x20 ADD SWAP1 DUP1 DUP4 DUP4 PUSH1 0x0 JUMPDEST DUP4 DUP2 LT ISZERO PUSH2 0x1398 JUMPI DUP1 DUP3 ADD MLOAD DUP2 DUP5 ADD MSTORE PUSH1 0x20 DUP2 ADD SWAP1 POP PUSH2 0x137D JUMP JUMPDEST POP POP POP POP SWAP1 POP SWAP1 DUP2 ADD SWAP1 PUSH1 0x1F AND DUP1 ISZERO PUSH2 0x13C5 JUMPI DUP1 DUP3 SUB DUP1 MLOAD PUSH1 0x1 DUP4 PUSH1 0x20 SUB PUSH2 0x100 EXP SUB NOT AND DUP2 MSTORE PUSH1 0x20 ADD SWAP2 POP JUMPDEST POP SWAP6 POP POP POP POP POP POP PUSH1 0x0 PUSH1 0x40 MLOAD DUP1 DUP4 SUB DUP2 PUSH1 0x0 DUP8 DUP1 EXTCODESIZE ISZERO DUP1 ISZERO PUSH2 0x13E7 JUMPI PUSH1 0x0 DUP1 REVERT JUMPDEST POP GAS CALL ISZERO DUP1 ISZERO PUSH2 0x13FB JUMPI RETURNDATASIZE PUSH1 0x0 DUP1 RETURNDATACOPY RETURNDATASIZE PUSH1 0x0 REVERT JUMPDEST POP POP POP POP PUSH1 0x1 SWAP2 POP POP PUSH2 0x140B JUMP JUMPDEST POP JUMPDEST SWAP4 SWAP3 POP POP POP JUMP JUMPDEST PUSH1 0x6 PUSH1 0x20 MSTORE DUP2 PUSH1 0x0 MSTORE PUSH1 0x40 PUSH1 0x0 KECCAK256 PUSH1 0x20 MSTORE DUP1 PUSH1 0x0 MSTORE PUSH1 0x40 PUSH1 0x0 KECCAK256 PUSH1 0x0 SWAP2 POP SWAP2 POP POP SLOAD DUP2 JUMP JUMPDEST PUSH1 0x0 ADDRESS SWAP1 POP PUSH1 0x7 SLOAD DUP3 MUL DUP2 PUSH20 0xFFFFFFFFFFFFFFFFFFFFFFFFFFFFFFFFFFFFFFFF AND BALANCE LT ISZERO PUSH2 0x1464 JUMPI PUSH1 0x0 DUP1 REVERT JUMPDEST PUSH2 0x146F CALLER ADDRESS DUP5 PUSH2 0x167D JUMP JUMPDEST CALLER PUSH20 0xFFFFFFFFFFFFFFFFFFFFFFFFFFFFFFFFFFFFFFFF AND PUSH2 0x8FC PUSH1 0x7 SLOAD DUP5 MUL SWAP1 DUP2 ISZERO MUL SWAP1 PUSH1 0x40 MLOAD PUSH1 0x0 PUSH1 0x40 MLOAD DUP1 DUP4 SUB DUP2 DUP6 DUP9 DUP9 CALL SWAP4 POP POP POP POP ISZERO DUP1 ISZERO PUSH2 0x14B9 JUMPI RETURNDATASIZE PUSH1 0x0 DUP1 RETURNDATACOPY RETURNDATASIZE PUSH1 0x0 REVERT JUMPDEST POP POP POP JUMP JUMPDEST PUSH1 0x0 DUP1 SWAP1 SLOAD SWAP1 PUSH2 0x100 EXP SWAP1 DIV PUSH20 0xFFFFFFFFFFFFFFFFFFFFFFFFFFFFFFFFFFFFFFFF AND PUSH20 0xFFFFFFFFFFFFFFFFFFFFFFFFFFFFFFFFFFFFFFFF AND CALLER PUSH20 0xFFFFFFFFFFFFFFFFFFFFFFFFFFFFFFFFFFFFFFFF AND EQ PUSH2 0x1517 JUMPI PUSH1 0x0 DUP1 REVERT JUMPDEST DUP1 PUSH1 0x9 PUSH1 0x0 DUP5 PUSH20 0xFFFFFFFFFFFFFFFFFFFFFFFFFFFFFFFFFFFFFFFF AND PUSH20 0xFFFFFFFFFFFFFFFFFFFFFFFFFFFFFFFFFFFFFFFF AND DUP2 MSTORE PUSH1 0x20 ADD SWAP1 DUP2 MSTORE PUSH1 0x20 ADD PUSH1 0x0 KECCAK256 PUSH1 0x0 PUSH2 0x100 EXP DUP2 SLOAD DUP2 PUSH1 0xFF MUL NOT AND SWAP1 DUP4 ISZERO ISZERO MUL OR SWAP1 SSTORE POP PUSH32 0x48335238B4855F35377ED80F164E8C6F3C366E54AC00B96A6402D4A9814A03A5 DUP3 DUP3 PUSH1 0x40 MLOAD DUP1 DUP4 PUSH20 0xFFFFFFFFFFFFFFFFFFFFFFFFFFFFFFFFFFFFFFFF AND PUSH20 0xFFFFFFFFFFFFFFFFFFFFFFFFFFFFFFFFFFFFFFFF AND DUP2 MSTORE PUSH1 0x20 ADD DUP3 ISZERO ISZERO ISZERO ISZERO DUP2 MSTORE PUSH1 0x20 ADD SWAP3 POP POP POP PUSH1 0x40 MLOAD DUP1 SWAP2 SUB SWAP1 LOG1 POP POP JUMP JUMPDEST PUSH1 0x0 DUP1 SWAP1 SLOAD SWAP1 PUSH2 0x100 EXP SWAP1 DIV PUSH20 0xFFFFFFFFFFFFFFFFFFFFFFFFFFFFFFFFFFFFFFFF AND PUSH20 0xFFFFFFFFFFFFFFFFFFFFFFFFFFFFFFFFFFFFFFFF AND CALLER PUSH20 0xFFFFFFFFFFFFFFFFFFFFFFFFFFFFFFFFFFFFFFFF AND EQ PUSH2 0x163A JUMPI PUSH1 0x0 DUP1 REVERT JUMPDEST DUP1 PUSH1 0x0 DUP1 PUSH2 0x100 EXP DUP2 SLOAD DUP2 PUSH20 0xFFFFFFFFFFFFFFFFFFFFFFFFFFFFFFFFFFFFFFFF MUL NOT AND SWAP1 DUP4 PUSH20 0xFFFFFFFFFFFFFFFFFFFFFFFFFFFFFFFFFFFFFFFF AND MUL OR SWAP1 SSTORE POP POP JUMP JUMPDEST PUSH1 0x0 PUSH20 0xFFFFFFFFFFFFFFFFFFFFFFFFFFFFFFFFFFFFFFFF AND DUP3 PUSH20 0xFFFFFFFFFFFFFFFFFFFFFFFFFFFFFFFFFFFFFFFF AND EQ ISZERO PUSH2 0x16B7 JUMPI PUSH1 0x0 DUP1 REVERT JUMPDEST DUP1 PUSH1 0x5 PUSH1 0x0 DUP6 PUSH20 0xFFFFFFFFFFFFFFFFFFFFFFFFFFFFFFFFFFFFFFFF AND PUSH20 0xFFFFFFFFFFFFFFFFFFFFFFFFFFFFFFFFFFFFFFFF AND DUP2 MSTORE PUSH1 0x20 ADD SWAP1 DUP2 MSTORE PUSH1 0x20 ADD PUSH1 0x0 KECCAK256 SLOAD LT ISZERO PUSH2 0x1703 JUMPI PUSH1 0x0 DUP1 REVERT JUMPDEST PUSH1 0x5 PUSH1 0x0 DUP4 PUSH20 0xFFFFFFFFFFFFFFFFFFFFFFFFFFFFFFFFFFFFFFFF AND PUSH20 0xFFFFFFFFFFFFFFFFFFFFFFFFFFFFFFFFFFFFFFFF AND DUP2 MSTORE PUSH1 0x20 ADD SWAP1 DUP2 MSTORE PUSH1 0x20 ADD PUSH1 0x0 KECCAK256 SLOAD DUP2 PUSH1 0x5 PUSH1 0x0 DUP6 PUSH20 0xFFFFFFFFFFFFFFFFFFFFFFFFFFFFFFFFFFFFFFFF AND PUSH20 0xFFFFFFFFFFFFFFFFFFFFFFFFFFFFFFFFFFFFFFFF AND DUP2 MSTORE PUSH1 0x20 ADD SWAP1 DUP2 MSTORE PUSH1 0x20 ADD PUSH1 0x0 KECCAK256 SLOAD ADD LT ISZERO PUSH2 0x1790 JUMPI PUSH1 0x0 DUP1 REVERT JUMPDEST PUSH1 0x9 PUSH1 0x0 DUP5 PUSH20 0xFFFFFFFFFFFFFFFFFFFFFFFFFFFFFFFFFFFFFFFF AND PUSH20 0xFFFFFFFFFFFFFFFFFFFFFFFFFFFFFFFFFFFFFFFF AND DUP2 MSTORE PUSH1 0x20 ADD SWAP1 DUP2 MSTORE PUSH1 0x20 ADD PUSH1 0x0 KECCAK256 PUSH1 0x0 SWAP1 SLOAD SWAP1 PUSH2 0x100 EXP SWAP1 DIV PUSH1 0xFF AND ISZERO PUSH2 0x17E7 JUMPI PUSH1 0x0 DUP1 REVERT JUMPDEST PUSH1 0x9 PUSH1 0x0 DUP4 PUSH20 0xFFFFFFFFFFFFFFFFFFFFFFFFFFFFFFFFFFFFFFFF AND PUSH20 0xFFFFFFFFFFFFFFFFFFFFFFFFFFFFFFFFFFFFFFFF AND DUP2 MSTORE PUSH1 0x20 ADD SWAP1 DUP2 MSTORE PUSH1 0x20 ADD PUSH1 0x0 KECCAK256 PUSH1 0x0 SWAP1 SLOAD SWAP1 PUSH2 0x100 EXP SWAP1 DIV PUSH1 0xFF AND ISZERO PUSH2 0x183E JUMPI PUSH1 0x0 DUP1 REVERT JUMPDEST DUP1 PUSH1 0x5 PUSH1 0x0 DUP6 PUSH20 0xFFFFFFFFFFFFFFFFFFFFFFFFFFFFFFFFFFFFFFFF AND PUSH20 0xFFFFFFFFFFFFFFFFFFFFFFFFFFFFFFFFFFFFFFFF AND DUP2 MSTORE PUSH1 0x20 ADD SWAP1 DUP2 MSTORE PUSH1 0x20 ADD PUSH1 0x0 KECCAK256 PUSH1 0x0 DUP3 DUP3 SLOAD SUB SWAP3 POP POP DUP2 SWAP1 SSTORE POP DUP1 PUSH1 0x5 PUSH1 0x0 DUP5 PUSH20 0xFFFFFFFFFFFFFFFFFFFFFFFFFFFFFFFFFFFFFFFF AND PUSH20 0xFFFFFFFFFFFFFFFFFFFFFFFFFFFFFFFFFFFFFFFF AND DUP2 MSTORE PUSH1 0x20 ADD SWAP1 DUP2 MSTORE PUSH1 0x20 ADD PUSH1 0x0 KECCAK256 PUSH1 0x0 DUP3 DUP3 SLOAD ADD SWAP3 POP POP DUP2 SWAP1 SSTORE POP DUP2 PUSH20 0xFFFFFFFFFFFFFFFFFFFFFFFFFFFFFFFFFFFFFFFF AND DUP4 PUSH20 0xFFFFFFFFFFFFFFFFFFFFFFFFFFFFFFFFFFFFFFFF AND PUSH32 0xDDF252AD1BE2C89B69C2B068FC378DAA952BA7F163C4A11628F55A4DF523B3EF DUP4 PUSH1 0x40 MLOAD DUP1 DUP3 DUP2 MSTORE PUSH1 0x20 ADD SWAP2 POP POP PUSH1 0x40 MLOAD DUP1 SWAP2 SUB SWAP1 LOG3 POP POP POP JUMP INVALID LOG2 PUSH6 0x627A7A723158 KECCAK256 PUSH8 0xD3CDBD0CFE092A84 RETURN 0xCD LOG3 0xCF PUSH4 0xA2F3E87C SUB 0xC9 DUP12 JUMP PUSH18 0x772FEDC214F7B60FD564736F6C6343000511 STOP ORIGIN "
				},
				"gasEstimates": {
					"creation": {
						"codeDepositCost": "1303800",
						"executionCost": "infinite",
						"totalCost": "infinite"
					},
					"external": {
						"allowance(address,address)": "1333",
						"approve(address,uint256)": "22436",
						"approveAndCall(address,uint256,bytes)": "infinite",
						"balanceOf(address)": "1258",
						"burn(uint256)": "44471",
						"burnFrom(address,uint256)": "66614",
						"buy()": "49422",
						"buyPrice()": "1028",
						"decimals()": "1076",
						"freezeAccount(address,bool)": "23576",
						"frozenAccount(address)": "1228",
						"mintToken(address,uint256)": "46662",
						"name()": "infinite",
						"owner()": "1098",
						"sell(uint256)": "infinite",
						"sellPrice()": "1072",
						"setPrices(uint256,uint256)": "41179",
						"symbol()": "infinite",
						"totalSupply()": "1095",
						"transfer(address,uint256)": "48829",
						"transferFrom(address,address,uint256)": "70883",
						"transferOwnership(address)": "22103"
					},
					"internal": {
						"_transfer(address,address,uint256)": "infinite"
					}
				},
				"methodIdentifiers": {
					"allowance(address,address)": "dd62ed3e",
					"approve(address,uint256)": "095ea7b3",
					"approveAndCall(address,uint256,bytes)": "cae9ca51",
					"balanceOf(address)": "70a08231",
					"burn(uint256)": "42966c68",
					"burnFrom(address,uint256)": "79cc6790",
					"buy()": "a6f2ae3a",
					"buyPrice()": "8620410b",
					"decimals()": "313ce567",
					"freezeAccount(address,bool)": "e724529c",
					"frozenAccount(address)": "b414d4b6",
					"mintToken(address,uint256)": "79c65068",
					"name()": "06fdde03",
					"owner()": "8da5cb5b",
					"sell(uint256)": "e4849b32",
					"sellPrice()": "4b750334",
					"setPrices(uint256,uint256)": "05fefda7",
					"symbol()": "95d89b41",
					"totalSupply()": "18160ddd",
					"transfer(address,uint256)": "a9059cbb",
					"transferFrom(address,address,uint256)": "23b872dd",
					"transferOwnership(address)": "f2fde38b"
				}
			},
			"storageLayout": {
				"storage": [
					{
						"astId": 3,
						"contract": "gameprofits-galactic-spdgcs-contracts/networkERC20/gameCash.sol:MyAdvancedToken",
						"label": "owner",
						"offset": 0,
						"slot": "0",
						"type": "t_address"
					},
					{
						"astId": 50,
						"contract": "gameprofits-galactic-spdgcs-contracts/networkERC20/gameCash.sol:MyAdvancedToken",
						"label": "name",
						"offset": 0,
						"slot": "1",
						"type": "t_string_storage"
					},
					{
						"astId": 52,
						"contract": "gameprofits-galactic-spdgcs-contracts/networkERC20/gameCash.sol:MyAdvancedToken",
						"label": "symbol",
						"offset": 0,
						"slot": "2",
						"type": "t_string_storage"
					},
					{
						"astId": 55,
						"contract": "gameprofits-galactic-spdgcs-contracts/networkERC20/gameCash.sol:MyAdvancedToken",
						"label": "decimals",
						"offset": 0,
						"slot": "3",
						"type": "t_uint8"
					},
					{
						"astId": 57,
						"contract": "gameprofits-galactic-spdgcs-contracts/networkERC20/gameCash.sol:MyAdvancedToken",
						"label": "totalSupply",
						"offset": 0,
						"slot": "4",
						"type": "t_uint256"
					},
					{
						"astId": 61,
						"contract": "gameprofits-galactic-spdgcs-contracts/networkERC20/gameCash.sol:MyAdvancedToken",
						"label": "balanceOf",
						"offset": 0,
						"slot": "5",
						"type": "t_mapping(t_address,t_uint256)"
					},
					{
						"astId": 67,
						"contract": "gameprofits-galactic-spdgcs-contracts/networkERC20/gameCash.sol:MyAdvancedToken",
						"label": "allowance",
						"offset": 0,
						"slot": "6",
						"type": "t_mapping(t_address,t_mapping(t_address,t_uint256))"
					},
					{
						"astId": 425,
						"contract": "gameprofits-galactic-spdgcs-contracts/networkERC20/gameCash.sol:MyAdvancedToken",
						"label": "sellPrice",
						"offset": 0,
						"slot": "7",
						"type": "t_uint256"
					},
					{
						"astId": 427,
						"contract": "gameprofits-galactic-spdgcs-contracts/networkERC20/gameCash.sol:MyAdvancedToken",
						"label": "buyPrice",
						"offset": 0,
						"slot": "8",
						"type": "t_uint256"
					},
					{
						"astId": 431,
						"contract": "gameprofits-galactic-spdgcs-contracts/networkERC20/gameCash.sol:MyAdvancedToken",
						"label": "frozenAccount",
						"offset": 0,
						"slot": "9",
						"type": "t_mapping(t_address,t_bool)"
					}
				],
				"types": {
					"t_address": {
						"encoding": "inplace",
						"label": "address",
						"numberOfBytes": "20"
					},
					"t_bool": {
						"encoding": "inplace",
						"label": "bool",
						"numberOfBytes": "1"
					},
					"t_mapping(t_address,t_bool)": {
						"encoding": "mapping",
						"key": "t_address",
						"label": "mapping(address => bool)",
						"numberOfBytes": "32",
						"value": "t_bool"
					},
					"t_mapping(t_address,t_mapping(t_address,t_uint256))": {
						"encoding": "mapping",
						"key": "t_address",
						"label": "mapping(address => mapping(address => uint256))",
						"numberOfBytes": "32",
						"value": "t_mapping(t_address,t_uint256)"
					},
					"t_mapping(t_address,t_uint256)": {
						"encoding": "mapping",
						"key": "t_address",
						"label": "mapping(address => uint256)",
						"numberOfBytes": "32",
						"value": "t_uint256"
					},
					"t_string_storage": {
						"encoding": "bytes",
						"label": "string",
						"numberOfBytes": "32"
					},
					"t_uint256": {
						"encoding": "inplace",
						"label": "uint256",
						"numberOfBytes": "32"
					},
					"t_uint8": {
						"encoding": "inplace",
						"label": "uint8",
						"numberOfBytes": "1"
					}
				}
			},
			"userdoc": {
				"methods": {
					"approve(address,uint256)": {
						"notice": "Set allowance for other address      * Allows `_spender` to spend no more than `_value` tokens in your behalf "
					},
					"approveAndCall(address,uint256,bytes)": {
						"notice": "Set allowance for other address and notify      * Allows `_spender` to spend no more than `_value` tokens in your behalf, and then ping the contract about it "
					},
					"burn(uint256)": {
						"notice": "Destroy tokens      * Remove `_value` tokens from the system irreversibly "
					},
					"burnFrom(address,uint256)": {
						"notice": "Destroy tokens from other account      * Remove `_value` tokens from the system irreversibly on behalf of `_from`. "
					},
					"buy()": {
						"notice": "Buy tokens from contract by sending ether"
					},
					"freezeAccount(address,bool)": {
						"notice": "`freeze? Prevent | Allow` `target` from sending & receiving tokens"
					},
					"mintToken(address,uint256)": {
						"notice": "Create `mintedAmount` tokens and send it to `target`"
					},
					"sell(uint256)": {
						"notice": "Sell `amount` tokens to contract"
					},
					"setPrices(uint256,uint256)": {
						"notice": "Allow users to buy tokens for `newBuyPrice` eth and sell tokens for `newSellPrice` eth"
					},
					"transfer(address,uint256)": {
						"notice": "Transfer tokens      * Send `_value` tokens to `_to` from your account "
					},
					"transferFrom(address,address,uint256)": {
						"notice": "Transfer tokens from other address      * Send `_value` tokens to `_to` in behalf of `_from` "
					}
				},
				"notice": "***************************************"
			}
		}
	}
}