{
	"gameprofits-galactic-spdgcs-contracts/governence/gameProfitsGalacticNetworkSettings.sol": {
		"gameprofitsGalacticNetworkSettings": {
			"abi": [
				{
					"inputs": [],
					"stateMutability": "nonpayable",
					"type": "constructor"
				},
				{
					"inputs": [],
					"name": "gameprofitsExperimentSettings",
					"outputs": [
						{
							"internalType": "address",
							"name": "",
							"type": "address"
						}
					],
					"stateMutability": "view",
					"type": "function"
				},
				{
					"inputs": [],
					"name": "gameprofitsFairPlaySettings",
					"outputs": [
						{
							"internalType": "address",
							"name": "",
							"type": "address"
						}
					],
					"stateMutability": "view",
					"type": "function"
				},
				{
					"inputs": [],
					"name": "gameprofitsFairSoulsActSettings",
					"outputs": [
						{
							"internalType": "address",
							"name": "",
							"type": "address"
						}
					],
					"stateMutability": "view",
					"type": "function"
				},
				{
					"inputs": [],
					"name": "gameprofitsFairValueSettings",
					"outputs": [
						{
							"internalType": "address",
							"name": "",
							"type": "address"
						}
					],
					"stateMutability": "view",
					"type": "function"
				},
				{
					"inputs": [],
					"name": "gameprofitsGoverenenceSettings",
					"outputs": [
						{
							"internalType": "address",
							"name": "",
							"type": "address"
						}
					],
					"stateMutability": "view",
					"type": "function"
				},
				{
					"inputs": [],
					"name": "gameprofitsIchoroniumTableSettings",
					"outputs": [
						{
							"internalType": "address",
							"name": "",
							"type": "address"
						}
					],
					"stateMutability": "view",
					"type": "function"
				},
				{
					"inputs": [],
					"name": "gameprofitsMasterVideoGamesSettings",
					"outputs": [
						{
							"internalType": "address",
							"name": "",
							"type": "address"
						}
					],
					"stateMutability": "view",
					"type": "function"
				},
				{
					"inputs": [],
					"name": "gameprofitsMetaVerseSettings",
					"outputs": [
						{
							"internalType": "address",
							"name": "",
							"type": "address"
						}
					],
					"stateMutability": "view",
					"type": "function"
				},
				{
					"inputs": [],
					"name": "gameprofitsMetaVerseUniverseItems",
					"outputs": [
						{
							"internalType": "address",
							"name": "",
							"type": "address"
						}
					],
					"stateMutability": "view",
					"type": "function"
				},
				{
					"inputs": [],
					"name": "gameprofitsPremiumExchangeTraderSettings",
					"outputs": [
						{
							"internalType": "address",
							"name": "",
							"type": "address"
						}
					],
					"stateMutability": "view",
					"type": "function"
				},
				{
					"inputs": [],
					"name": "gameprofitsReturnSettings",
					"outputs": [
						{
							"components": [
								{
									"internalType": "bool",
									"name": "gameNetworkActive",
									"type": "bool"
								},
								{
									"internalType": "bool",
									"name": "gamesAreOn",
									"type": "bool"
								},
								{
									"internalType": "bool",
									"name": "gamesAreDeactivated",
									"type": "bool"
								},
								{
									"internalType": "bool",
									"name": "gamesAreCoolingDown",
									"type": "bool"
								},
								{
									"internalType": "bool",
									"name": "gamesKillSwitch",
									"type": "bool"
								},
								{
									"internalType": "address",
									"name": "gameprofitsfinanceSettings",
									"type": "address"
								},
								{
									"internalType": "address",
									"name": "gameprofitsExperimentSettings",
									"type": "address"
								},
								{
									"internalType": "address",
									"name": "gameprofitsGoverenenceSettings",
									"type": "address"
								},
								{
									"internalType": "address",
									"name": "gameprofitsIchoroniumTableSettings",
									"type": "address"
								},
								{
									"internalType": "address",
									"name": "gameprofitsMetaVerseSettings",
									"type": "address"
								},
								{
									"internalType": "address",
									"name": "gameprofitsMetaVerseUniverseItems",
									"type": "address"
								},
								{
									"internalType": "address",
									"name": "gameprofitsFairPlaySettings",
									"type": "address"
								},
								{
									"internalType": "address",
									"name": "gameprofitsFairValueSettings",
									"type": "address"
								},
								{
									"internalType": "address",
									"name": "gameprofitsFairSoulsActSettings",
									"type": "address"
								},
								{
									"internalType": "address",
									"name": "gameprofitsPremiumExchangeTraderSettings",
									"type": "address"
								},
								{
									"internalType": "address",
									"name": "gameprofitsMasterVideoGamesSettings",
									"type": "address"
								}
							],
							"internalType": "struct gameprofitsGalacticNetworkSettings.gameprofitsSettings",
							"name": "networkSetting",
							"type": "tuple"
						}
					],
					"stateMutability": "view",
					"type": "function"
				},
				{
					"inputs": [],
					"name": "gameprofitsfinanceSettings",
					"outputs": [
						{
							"internalType": "address",
							"name": "",
							"type": "address"
						}
					],
					"stateMutability": "view",
					"type": "function"
				},
				{
					"inputs": [],
					"name": "isgameNetworkActive",
					"outputs": [
						{
							"internalType": "bool",
							"name": "",
							"type": "bool"
						}
					],
					"stateMutability": "view",
					"type": "function"
				},
				{
					"inputs": [],
					"name": "isgamesAreCoolingDown",
					"outputs": [
						{
							"internalType": "bool",
							"name": "",
							"type": "bool"
						}
					],
					"stateMutability": "view",
					"type": "function"
				},
				{
					"inputs": [],
					"name": "isgamesAreDeactivated",
					"outputs": [
						{
							"internalType": "bool",
							"name": "",
							"type": "bool"
						}
					],
					"stateMutability": "view",
					"type": "function"
				},
				{
					"inputs": [],
					"name": "isgamesAreOn",
					"outputs": [
						{
							"internalType": "bool",
							"name": "",
							"type": "bool"
						}
					],
					"stateMutability": "view",
					"type": "function"
				},
				{
					"inputs": [],
					"name": "isgamesKillSwitch",
					"outputs": [
						{
							"internalType": "bool",
							"name": "",
							"type": "bool"
						}
					],
					"stateMutability": "view",
					"type": "function"
				},
				{
					"inputs": [],
					"name": "switchgameNetworkActive",
					"outputs": [],
					"stateMutability": "nonpayable",
					"type": "function"
				},
				{
					"inputs": [
						{
							"internalType": "address",
							"name": "newSetting",
							"type": "address"
						}
					],
					"name": "switchgameprofitsExperimentSettings",
					"outputs": [],
					"stateMutability": "nonpayable",
					"type": "function"
				},
				{
					"inputs": [
						{
							"internalType": "address",
							"name": "newSetting",
							"type": "address"
						}
					],
					"name": "switchgameprofitsFairPlaySettings",
					"outputs": [],
					"stateMutability": "nonpayable",
					"type": "function"
				},
				{
					"inputs": [
						{
							"internalType": "address",
							"name": "newSetting",
							"type": "address"
						}
					],
					"name": "switchgameprofitsFairSoulsActSettings",
					"outputs": [],
					"stateMutability": "nonpayable",
					"type": "function"
				},
				{
					"inputs": [
						{
							"internalType": "address",
							"name": "newSetting",
							"type": "address"
						}
					],
					"name": "switchgameprofitsFairValueSettings",
					"outputs": [],
					"stateMutability": "nonpayable",
					"type": "function"
				},
				{
					"inputs": [
						{
							"internalType": "address",
							"name": "newSetting",
							"type": "address"
						}
					],
					"name": "switchgameprofitsGoverenenceSettings",
					"outputs": [],
					"stateMutability": "nonpayable",
					"type": "function"
				},
				{
					"inputs": [
						{
							"internalType": "address",
							"name": "newSetting",
							"type": "address"
						}
					],
					"name": "switchgameprofitsIchoroniumTableSettings",
					"outputs": [],
					"stateMutability": "nonpayable",
					"type": "function"
				},
				{
					"inputs": [
						{
							"internalType": "address",
							"name": "newSetting",
							"type": "address"
						}
					],
					"name": "switchgameprofitsMasterVideoGamesSettings",
					"outputs": [],
					"stateMutability": "nonpayable",
					"type": "function"
				},
				{
					"inputs": [
						{
							"internalType": "address",
							"name": "newSetting",
							"type": "address"
						}
					],
					"name": "switchgameprofitsMetaVerseSettings",
					"outputs": [],
					"stateMutability": "nonpayable",
					"type": "function"
				},
				{
					"inputs": [
						{
							"internalType": "address",
							"name": "newSetting",
							"type": "address"
						}
					],
					"name": "switchgameprofitsMetaVerseUniverseItems",
					"outputs": [],
					"stateMutability": "nonpayable",
					"type": "function"
				},
				{
					"inputs": [
						{
							"internalType": "address",
							"name": "newSetting",
							"type": "address"
						}
					],
					"name": "switchgameprofitsPremiumExchangeTraderSettings",
					"outputs": [],
					"stateMutability": "nonpayable",
					"type": "function"
				},
				{
					"inputs": [
						{
							"internalType": "address",
							"name": "newSetting",
							"type": "address"
						}
					],
					"name": "switchgameprofitsfinanceSettings",
					"outputs": [],
					"stateMutability": "nonpayable",
					"type": "function"
				},
				{
					"inputs": [],
					"name": "switchgamesAreCoolingDown",
					"outputs": [],
					"stateMutability": "nonpayable",
					"type": "function"
				},
				{
					"inputs": [],
					"name": "switchgamesAreDeactivated",
					"outputs": [],
					"stateMutability": "nonpayable",
					"type": "function"
				},
				{
					"inputs": [],
					"name": "switchgamesAreOn",
					"outputs": [],
					"stateMutability": "nonpayable",
					"type": "function"
				},
				{
					"inputs": [],
					"name": "switchgamesKillSwitch",
					"outputs": [],
					"stateMutability": "nonpayable",
					"type": "function"
				}
			],
			"devdoc": {
				"kind": "dev",
				"methods": {},
				"version": 1
			},
			"evm": {
				"assembly": "    /* \"gameprofits-galactic-spdgcs-contracts/governence/gameProfitsGalacticNetworkSettings.sol\":87:10490  contract gameprofitsGalacticNetworkSettings {... */\n  mstore(0x40, 0x80)\n    /* \"gameprofits-galactic-spdgcs-contracts/governence/gameProfitsGalacticNetworkSettings.sol\":822:1345  gameprofitsSettings(false,false,false,false,false,0x0000000000000000000000000000000000000000,0x0000000000000000000000000000000000000000,0x0000000000000000000000000000000000000000,0x0000000000000000000000000000000000000000,0x0000000000000000000000000000000000000000,0x0000000000000000000000000000000000000000,0x0000000000000000000000000000000000000000,0x0000000000000000000000000000000000000000,0x0000000000000000000000000000000000000000,0x0000000000000000000000000000000000000000,0x0000000000000000000000000000000000000000) */\n  mload(0x40)\n  dup1\n  0x0200\n  add\n  0x40\n  mstore\n  dup1\n    /* \"gameprofits-galactic-spdgcs-contracts/governence/gameProfitsGalacticNetworkSettings.sol\":842:847  false */\n  0x00\n    /* \"gameprofits-galactic-spdgcs-contracts/governence/gameProfitsGalacticNetworkSettings.sol\":822:1345  gameprofitsSettings(false,false,false,false,false,0x0000000000000000000000000000000000000000,0x0000000000000000000000000000000000000000,0x0000000000000000000000000000000000000000,0x0000000000000000000000000000000000000000,0x0000000000000000000000000000000000000000,0x0000000000000000000000000000000000000000,0x0000000000000000000000000000000000000000,0x0000000000000000000000000000000000000000,0x0000000000000000000000000000000000000000,0x0000000000000000000000000000000000000000,0x0000000000000000000000000000000000000000) */\n  iszero\n  iszero\n  dup2\n  mstore\n  0x20\n  add\n    /* \"gameprofits-galactic-spdgcs-contracts/governence/gameProfitsGalacticNetworkSettings.sol\":848:853  false */\n  0x00\n    /* \"gameprofits-galactic-spdgcs-contracts/governence/gameProfitsGalacticNetworkSettings.sol\":822:1345  gameprofitsSettings(false,false,false,false,false,0x0000000000000000000000000000000000000000,0x0000000000000000000000000000000000000000,0x0000000000000000000000000000000000000000,0x0000000000000000000000000000000000000000,0x0000000000000000000000000000000000000000,0x0000000000000000000000000000000000000000,0x0000000000000000000000000000000000000000,0x0000000000000000000000000000000000000000,0x0000000000000000000000000000000000000000,0x0000000000000000000000000000000000000000,0x0000000000000000000000000000000000000000) */\n  iszero\n  iszero\n  dup2\n  mstore\n  0x20\n  add\n    /* \"gameprofits-galactic-spdgcs-contracts/governence/gameProfitsGalacticNetworkSettings.sol\":854:859  false */\n  0x00\n    /* \"gameprofits-galactic-spdgcs-contracts/governence/gameProfitsGalacticNetworkSettings.sol\":822:1345  gameprofitsSettings(false,false,false,false,false,0x0000000000000000000000000000000000000000,0x0000000000000000000000000000000000000000,0x0000000000000000000000000000000000000000,0x0000000000000000000000000000000000000000,0x0000000000000000000000000000000000000000,0x0000000000000000000000000000000000000000,0x0000000000000000000000000000000000000000,0x0000000000000000000000000000000000000000,0x0000000000000000000000000000000000000000,0x0000000000000000000000000000000000000000,0x0000000000000000000000000000000000000000) */\n  iszero\n  iszero\n  dup2\n  mstore\n  0x20\n  add\n    /* \"gameprofits-galactic-spdgcs-contracts/governence/gameProfitsGalacticNetworkSettings.sol\":860:865  false */\n  0x00\n    /* \"gameprofits-galactic-spdgcs-contracts/governence/gameProfitsGalacticNetworkSettings.sol\":822:1345  gameprofitsSettings(false,false,false,false,false,0x0000000000000000000000000000000000000000,0x0000000000000000000000000000000000000000,0x0000000000000000000000000000000000000000,0x0000000000000000000000000000000000000000,0x0000000000000000000000000000000000000000,0x0000000000000000000000000000000000000000,0x0000000000000000000000000000000000000000,0x0000000000000000000000000000000000000000,0x0000000000000000000000000000000000000000,0x0000000000000000000000000000000000000000,0x0000000000000000000000000000000000000000) */\n  iszero\n  iszero\n  dup2\n  mstore\n  0x20\n  add\n    /* \"gameprofits-galactic-spdgcs-contracts/governence/gameProfitsGalacticNetworkSettings.sol\":866:871  false */\n  0x00\n    /* \"gameprofits-galactic-spdgcs-contracts/governence/gameProfitsGalacticNetworkSettings.sol\":822:1345  gameprofitsSettings(false,false,false,false,false,0x0000000000000000000000000000000000000000,0x0000000000000000000000000000000000000000,0x0000000000000000000000000000000000000000,0x0000000000000000000000000000000000000000,0x0000000000000000000000000000000000000000,0x0000000000000000000000000000000000000000,0x0000000000000000000000000000000000000000,0x0000000000000000000000000000000000000000,0x0000000000000000000000000000000000000000,0x0000000000000000000000000000000000000000,0x0000000000000000000000000000000000000000) */\n  iszero\n  iszero\n  dup2\n  mstore\n  0x20\n  add\n    /* \"gameprofits-galactic-spdgcs-contracts/governence/gameProfitsGalacticNetworkSettings.sol\":872:914  0x0000000000000000000000000000000000000000 */\n  0x00\n    /* \"gameprofits-galactic-spdgcs-contracts/governence/gameProfitsGalacticNetworkSettings.sol\":822:1345  gameprofitsSettings(false,false,false,false,false,0x0000000000000000000000000000000000000000,0x0000000000000000000000000000000000000000,0x0000000000000000000000000000000000000000,0x0000000000000000000000000000000000000000,0x0000000000000000000000000000000000000000,0x0000000000000000000000000000000000000000,0x0000000000000000000000000000000000000000,0x0000000000000000000000000000000000000000,0x0000000000000000000000000000000000000000,0x0000000000000000000000000000000000000000,0x0000000000000000000000000000000000000000) */\n  0xffffffffffffffffffffffffffffffffffffffff\n  and\n  dup2\n  mstore\n  0x20\n  add\n    /* \"gameprofits-galactic-spdgcs-contracts/governence/gameProfitsGalacticNetworkSettings.sol\":915:957  0x0000000000000000000000000000000000000000 */\n  0x00\n    /* \"gameprofits-galactic-spdgcs-contracts/governence/gameProfitsGalacticNetworkSettings.sol\":822:1345  gameprofitsSettings(false,false,false,false,false,0x0000000000000000000000000000000000000000,0x0000000000000000000000000000000000000000,0x0000000000000000000000000000000000000000,0x0000000000000000000000000000000000000000,0x0000000000000000000000000000000000000000,0x0000000000000000000000000000000000000000,0x0000000000000000000000000000000000000000,0x0000000000000000000000000000000000000000,0x0000000000000000000000000000000000000000,0x0000000000000000000000000000000000000000,0x0000000000000000000000000000000000000000) */\n  0xffffffffffffffffffffffffffffffffffffffff\n  and\n  dup2\n  mstore\n  0x20\n  add\n    /* \"gameprofits-galactic-spdgcs-contracts/governence/gameProfitsGalacticNetworkSettings.sol\":958:1000  0x0000000000000000000000000000000000000000 */\n  0x00\n    /* \"gameprofits-galactic-spdgcs-contracts/governence/gameProfitsGalacticNetworkSettings.sol\":822:1345  gameprofitsSettings(false,false,false,false,false,0x0000000000000000000000000000000000000000,0x0000000000000000000000000000000000000000,0x0000000000000000000000000000000000000000,0x0000000000000000000000000000000000000000,0x0000000000000000000000000000000000000000,0x0000000000000000000000000000000000000000,0x0000000000000000000000000000000000000000,0x0000000000000000000000000000000000000000,0x0000000000000000000000000000000000000000,0x0000000000000000000000000000000000000000,0x0000000000000000000000000000000000000000) */\n  0xffffffffffffffffffffffffffffffffffffffff\n  and\n  dup2\n  mstore\n  0x20\n  add\n    /* \"gameprofits-galactic-spdgcs-contracts/governence/gameProfitsGalacticNetworkSettings.sol\":1001:1043  0x0000000000000000000000000000000000000000 */\n  0x00\n    /* \"gameprofits-galactic-spdgcs-contracts/governence/gameProfitsGalacticNetworkSettings.sol\":822:1345  gameprofitsSettings(false,false,false,false,false,0x0000000000000000000000000000000000000000,0x0000000000000000000000000000000000000000,0x0000000000000000000000000000000000000000,0x0000000000000000000000000000000000000000,0x0000000000000000000000000000000000000000,0x0000000000000000000000000000000000000000,0x0000000000000000000000000000000000000000,0x0000000000000000000000000000000000000000,0x0000000000000000000000000000000000000000,0x0000000000000000000000000000000000000000,0x0000000000000000000000000000000000000000) */\n  0xffffffffffffffffffffffffffffffffffffffff\n  and\n  dup2\n  mstore\n  0x20\n  add\n    /* \"gameprofits-galactic-spdgcs-contracts/governence/gameProfitsGalacticNetworkSettings.sol\":1044:1086  0x0000000000000000000000000000000000000000 */\n  0x00\n    /* \"gameprofits-galactic-spdgcs-contracts/governence/gameProfitsGalacticNetworkSettings.sol\":822:1345  gameprofitsSettings(false,false,false,false,false,0x0000000000000000000000000000000000000000,0x0000000000000000000000000000000000000000,0x0000000000000000000000000000000000000000,0x0000000000000000000000000000000000000000,0x0000000000000000000000000000000000000000,0x0000000000000000000000000000000000000000,0x0000000000000000000000000000000000000000,0x0000000000000000000000000000000000000000,0x0000000000000000000000000000000000000000,0x0000000000000000000000000000000000000000,0x0000000000000000000000000000000000000000) */\n  0xffffffffffffffffffffffffffffffffffffffff\n  and\n  dup2\n  mstore\n  0x20\n  add\n    /* \"gameprofits-galactic-spdgcs-contracts/governence/gameProfitsGalacticNetworkSettings.sol\":1087:1129  0x0000000000000000000000000000000000000000 */\n  0x00\n    /* \"gameprofits-galactic-spdgcs-contracts/governence/gameProfitsGalacticNetworkSettings.sol\":822:1345  gameprofitsSettings(false,false,false,false,false,0x0000000000000000000000000000000000000000,0x0000000000000000000000000000000000000000,0x0000000000000000000000000000000000000000,0x0000000000000000000000000000000000000000,0x0000000000000000000000000000000000000000,0x0000000000000000000000000000000000000000,0x0000000000000000000000000000000000000000,0x0000000000000000000000000000000000000000,0x0000000000000000000000000000000000000000,0x0000000000000000000000000000000000000000,0x0000000000000000000000000000000000000000) */\n  0xffffffffffffffffffffffffffffffffffffffff\n  and\n  dup2\n  mstore\n  0x20\n  add\n    /* \"gameprofits-galactic-spdgcs-contracts/governence/gameProfitsGalacticNetworkSettings.sol\":1130:1172  0x0000000000000000000000000000000000000000 */\n  0x00\n    /* \"gameprofits-galactic-spdgcs-contracts/governence/gameProfitsGalacticNetworkSettings.sol\":822:1345  gameprofitsSettings(false,false,false,false,false,0x0000000000000000000000000000000000000000,0x0000000000000000000000000000000000000000,0x0000000000000000000000000000000000000000,0x0000000000000000000000000000000000000000,0x0000000000000000000000000000000000000000,0x0000000000000000000000000000000000000000,0x0000000000000000000000000000000000000000,0x0000000000000000000000000000000000000000,0x0000000000000000000000000000000000000000,0x0000000000000000000000000000000000000000,0x0000000000000000000000000000000000000000) */\n  0xffffffffffffffffffffffffffffffffffffffff\n  and\n  dup2\n  mstore\n  0x20\n  add\n    /* \"gameprofits-galactic-spdgcs-contracts/governence/gameProfitsGalacticNetworkSettings.sol\":1173:1215  0x0000000000000000000000000000000000000000 */\n  0x00\n    /* \"gameprofits-galactic-spdgcs-contracts/governence/gameProfitsGalacticNetworkSettings.sol\":822:1345  gameprofitsSettings(false,false,false,false,false,0x0000000000000000000000000000000000000000,0x0000000000000000000000000000000000000000,0x0000000000000000000000000000000000000000,0x0000000000000000000000000000000000000000,0x0000000000000000000000000000000000000000,0x0000000000000000000000000000000000000000,0x0000000000000000000000000000000000000000,0x0000000000000000000000000000000000000000,0x0000000000000000000000000000000000000000,0x0000000000000000000000000000000000000000,0x0000000000000000000000000000000000000000) */\n  0xffffffffffffffffffffffffffffffffffffffff\n  and\n  dup2\n  mstore\n  0x20\n  add\n    /* \"gameprofits-galactic-spdgcs-contracts/governence/gameProfitsGalacticNetworkSettings.sol\":1216:1258  0x0000000000000000000000000000000000000000 */\n  0x00\n    /* \"gameprofits-galactic-spdgcs-contracts/governence/gameProfitsGalacticNetworkSettings.sol\":822:1345  gameprofitsSettings(false,false,false,false,false,0x0000000000000000000000000000000000000000,0x0000000000000000000000000000000000000000,0x0000000000000000000000000000000000000000,0x0000000000000000000000000000000000000000,0x0000000000000000000000000000000000000000,0x0000000000000000000000000000000000000000,0x0000000000000000000000000000000000000000,0x0000000000000000000000000000000000000000,0x0000000000000000000000000000000000000000,0x0000000000000000000000000000000000000000,0x0000000000000000000000000000000000000000) */\n  0xffffffffffffffffffffffffffffffffffffffff\n  and\n  dup2\n  mstore\n  0x20\n  add\n    /* \"gameprofits-galactic-spdgcs-contracts/governence/gameProfitsGalacticNetworkSettings.sol\":1259:1301  0x0000000000000000000000000000000000000000 */\n  0x00\n    /* \"gameprofits-galactic-spdgcs-contracts/governence/gameProfitsGalacticNetworkSettings.sol\":822:1345  gameprofitsSettings(false,false,false,false,false,0x0000000000000000000000000000000000000000,0x0000000000000000000000000000000000000000,0x0000000000000000000000000000000000000000,0x0000000000000000000000000000000000000000,0x0000000000000000000000000000000000000000,0x0000000000000000000000000000000000000000,0x0000000000000000000000000000000000000000,0x0000000000000000000000000000000000000000,0x0000000000000000000000000000000000000000,0x0000000000000000000000000000000000000000,0x0000000000000000000000000000000000000000) */\n  0xffffffffffffffffffffffffffffffffffffffff\n  and\n  dup2\n  mstore\n  0x20\n  add\n    /* \"gameprofits-galactic-spdgcs-contracts/governence/gameProfitsGalacticNetworkSettings.sol\":1302:1344  0x0000000000000000000000000000000000000000 */\n  0x00\n    /* \"gameprofits-galactic-spdgcs-contracts/governence/gameProfitsGalacticNetworkSettings.sol\":822:1345  gameprofitsSettings(false,false,false,false,false,0x0000000000000000000000000000000000000000,0x0000000000000000000000000000000000000000,0x0000000000000000000000000000000000000000,0x0000000000000000000000000000000000000000,0x0000000000000000000000000000000000000000,0x0000000000000000000000000000000000000000,0x0000000000000000000000000000000000000000,0x0000000000000000000000000000000000000000,0x0000000000000000000000000000000000000000,0x0000000000000000000000000000000000000000,0x0000000000000000000000000000000000000000) */\n  0xffffffffffffffffffffffffffffffffffffffff\n  and\n  dup2\n  mstore\n  pop\n    /* \"gameprofits-galactic-spdgcs-contracts/governence/gameProfitsGalacticNetworkSettings.sol\":772:1345  gameprofitsSettings  gameprofitsNetworkSettings = gameprofitsSettings(false,false,false,false,false,0x0000000000000000000000000000000000000000,0x0000000000000000000000000000000000000000,0x0000000000000000000000000000000000000000,0x0000000000000000000000000000000000000000,0x0000000000000000000000000000000000000000,0x0000000000000000000000000000000000000000,0x0000000000000000000000000000000000000000,0x0000000000000000000000000000000000000000,0x0000000000000000000000000000000000000000,0x0000000000000000000000000000000000000000,0x0000000000000000000000000000000000000000) */\n  0x01\n  0x00\n  dup3\n  add\n  mload\n  dup2\n  0x00\n  add\n  exp(0x0100, 0x00)\n  dup2\n  sload\n  dup2\n  0xff\n  mul\n  not\n  and\n  swap1\n  dup4\n  iszero\n  iszero\n  mul\n  or\n  swap1\n  sstore\n  pop\n  0x20\n  dup3\n  add\n  mload\n  dup2\n  0x00\n  add\n  exp(0x0100, 0x01)\n  dup2\n  sload\n  dup2\n  0xff\n  mul\n  not\n  and\n  swap1\n  dup4\n  iszero\n  iszero\n  mul\n  or\n  swap1\n  sstore\n  pop\n  0x40\n  dup3\n  add\n  mload\n  dup2\n  0x00\n  add\n  exp(0x0100, 0x02)\n  dup2\n  sload\n  dup2\n  0xff\n  mul\n  not\n  and\n  swap1\n  dup4\n  iszero\n  iszero\n  mul\n  or\n  swap1\n  sstore\n  pop\n  0x60\n  dup3\n  add\n  mload\n  dup2\n  0x00\n  add\n  exp(0x0100, 0x03)\n  dup2\n  sload\n  dup2\n  0xff\n  mul\n  not\n  and\n  swap1\n  dup4\n  iszero\n  iszero\n  mul\n  or\n  swap1\n  sstore\n  pop\n  0x80\n  dup3\n  add\n  mload\n  dup2\n  0x00\n  add\n  exp(0x0100, 0x04)\n  dup2\n  sload\n  dup2\n  0xff\n  mul\n  not\n  and\n  swap1\n  dup4\n  iszero\n  iszero\n  mul\n  or\n  swap1\n  sstore\n  pop\n  0xa0\n  dup3\n  add\n  mload\n  dup2\n  0x00\n  add\n  exp(0x0100, 0x05)\n  dup2\n  sload\n  dup2\n  0xffffffffffffffffffffffffffffffffffffffff\n  mul\n  not\n  and\n  swap1\n  dup4\n  0xffffffffffffffffffffffffffffffffffffffff\n  and\n  mul\n  or\n  swap1\n  sstore\n  pop\n  0xc0\n  dup3\n  add\n  mload\n  dup2\n  0x01\n  add\n  exp(0x0100, 0x00)\n  dup2\n  sload\n  dup2\n  0xffffffffffffffffffffffffffffffffffffffff\n  mul\n  not\n  and\n  swap1\n  dup4\n  0xffffffffffffffffffffffffffffffffffffffff\n  and\n  mul\n  or\n  swap1\n  sstore\n  pop\n  0xe0\n  dup3\n  add\n  mload\n  dup2\n  0x02\n  add\n  exp(0x0100, 0x00)\n  dup2\n  sload\n  dup2\n  0xffffffffffffffffffffffffffffffffffffffff\n  mul\n  not\n  and\n  swap1\n  dup4\n  0xffffffffffffffffffffffffffffffffffffffff\n  and\n  mul\n  or\n  swap1\n  sstore\n  pop\n  0x0100\n  dup3\n  add\n  mload\n  dup2\n  0x03\n  add\n  exp(0x0100, 0x00)\n  dup2\n  sload\n  dup2\n  0xffffffffffffffffffffffffffffffffffffffff\n  mul\n  not\n  and\n  swap1\n  dup4\n  0xffffffffffffffffffffffffffffffffffffffff\n  and\n  mul\n  or\n  swap1\n  sstore\n  pop\n  0x0120\n  dup3\n  add\n  mload\n  dup2\n  0x04\n  add\n  exp(0x0100, 0x00)\n  dup2\n  sload\n  dup2\n  0xffffffffffffffffffffffffffffffffffffffff\n  mul\n  not\n  and\n  swap1\n  dup4\n  0xffffffffffffffffffffffffffffffffffffffff\n  and\n  mul\n  or\n  swap1\n  sstore\n  pop\n  0x0140\n  dup3\n  add\n  mload\n  dup2\n  0x05\n  add\n  exp(0x0100, 0x00)\n  dup2\n  sload\n  dup2\n  0xffffffffffffffffffffffffffffffffffffffff\n  mul\n  not\n  and\n  swap1\n  dup4\n  0xffffffffffffffffffffffffffffffffffffffff\n  and\n  mul\n  or\n  swap1\n  sstore\n  pop\n  0x0160\n  dup3\n  add\n  mload\n  dup2\n  0x06\n  add\n  exp(0x0100, 0x00)\n  dup2\n  sload\n  dup2\n  0xffffffffffffffffffffffffffffffffffffffff\n  mul\n  not\n  and\n  swap1\n  dup4\n  0xffffffffffffffffffffffffffffffffffffffff\n  and\n  mul\n  or\n  swap1\n  sstore\n  pop\n  0x0180\n  dup3\n  add\n  mload\n  dup2\n  0x07\n  add\n  exp(0x0100, 0x00)\n  dup2\n  sload\n  dup2\n  0xffffffffffffffffffffffffffffffffffffffff\n  mul\n  not\n  and\n  swap1\n  dup4\n  0xffffffffffffffffffffffffffffffffffffffff\n  and\n  mul\n  or\n  swap1\n  sstore\n  pop\n  0x01a0\n  dup3\n  add\n  mload\n  dup2\n  0x08\n  add\n  exp(0x0100, 0x00)\n  dup2\n  sload\n  dup2\n  0xffffffffffffffffffffffffffffffffffffffff\n  mul\n  not\n  and\n  swap1\n  dup4\n  0xffffffffffffffffffffffffffffffffffffffff\n  and\n  mul\n  or\n  swap1\n  sstore\n  pop\n  0x01c0\n  dup3\n  add\n  mload\n  dup2\n  0x09\n  add\n  exp(0x0100, 0x00)\n  dup2\n  sload\n  dup2\n  0xffffffffffffffffffffffffffffffffffffffff\n  mul\n  not\n  and\n  swap1\n  dup4\n  0xffffffffffffffffffffffffffffffffffffffff\n  and\n  mul\n  or\n  swap1\n  sstore\n  pop\n  0x01e0\n  dup3\n  add\n  mload\n  dup2\n  0x0a\n  add\n  exp(0x0100, 0x00)\n  dup2\n  sload\n  dup2\n  0xffffffffffffffffffffffffffffffffffffffff\n  mul\n  not\n  and\n  swap1\n  dup4\n  0xffffffffffffffffffffffffffffffffffffffff\n  and\n  mul\n  or\n  swap1\n  sstore\n  pop\n  pop\n  pop\n    /* \"gameprofits-galactic-spdgcs-contracts/governence/gameProfitsGalacticNetworkSettings.sol\":10373:10477  constructor() public... */\n  callvalue\n  dup1\n  iszero\n  tag_1\n  jumpi\n  0x00\n  dup1\n  revert\ntag_1:\n  pop\n    /* \"gameprofits-galactic-spdgcs-contracts/governence/gameProfitsGalacticNetworkSettings.sol\":10438:10448  msg.sender */\n  caller\n    /* \"gameprofits-galactic-spdgcs-contracts/governence/gameProfitsGalacticNetworkSettings.sol\":10430:10435  owner */\n  0x00\n  dup1\n    /* \"gameprofits-galactic-spdgcs-contracts/governence/gameProfitsGalacticNetworkSettings.sol\":10430:10448  owner = msg.sender */\n  0x0100\n  exp\n  dup2\n  sload\n  dup2\n  0xffffffffffffffffffffffffffffffffffffffff\n  mul\n  not\n  and\n  swap1\n  dup4\n  0xffffffffffffffffffffffffffffffffffffffff\n  and\n  mul\n  or\n  swap1\n  sstore\n  pop\n    /* \"gameprofits-galactic-spdgcs-contracts/governence/gameProfitsGalacticNetworkSettings.sol\":87:10490  contract gameprofitsGalacticNetworkSettings {... */\n  dataSize(sub_0)\n  dup1\n  dataOffset(sub_0)\n  0x00\n  codecopy\n  0x00\n  return\nstop\n\nsub_0: assembly {\n        /* \"gameprofits-galactic-spdgcs-contracts/governence/gameProfitsGalacticNetworkSettings.sol\":87:10490  contract gameprofitsGalacticNetworkSettings {... */\n      mstore(0x40, 0x80)\n      callvalue\n      dup1\n      iszero\n      tag_1\n      jumpi\n      0x00\n      dup1\n      revert\n    tag_1:\n      pop\n      jumpi(tag_2, lt(calldatasize, 0x04))\n      shr(0xe0, calldataload(0x00))\n      dup1\n      0x7a22890a\n      gt\n      tag_36\n      jumpi\n      dup1\n      0xa87a86aa\n      gt\n      tag_37\n      jumpi\n      dup1\n      0xc461089c\n      gt\n      tag_38\n      jumpi\n      dup1\n      0xc461089c\n      eq\n      tag_31\n      jumpi\n      dup1\n      0xd2871723\n      eq\n      tag_32\n      jumpi\n      dup1\n      0xe2c6cc7a\n      eq\n      tag_33\n      jumpi\n      dup1\n      0xe62b246c\n      eq\n      tag_34\n      jumpi\n      dup1\n      0xfa0d08ec\n      eq\n      tag_35\n      jumpi\n      jump(tag_2)\n    tag_38:\n      dup1\n      0xa87a86aa\n      eq\n      tag_27\n      jumpi\n      dup1\n      0xb985accb\n      eq\n      tag_28\n      jumpi\n      dup1\n      0xba08d5e1\n      eq\n      tag_29\n      jumpi\n      dup1\n      0xc1b2456d\n      eq\n      tag_30\n      jumpi\n      jump(tag_2)\n    tag_37:\n      dup1\n      0x941e32b6\n      gt\n      tag_39\n      jumpi\n      dup1\n      0x941e32b6\n      eq\n      tag_23\n      jumpi\n      dup1\n      0x94d5bdff\n      eq\n      tag_24\n      jumpi\n      dup1\n      0x97cf27b8\n      eq\n      tag_25\n      jumpi\n      dup1\n      0xa775088b\n      eq\n      tag_26\n      jumpi\n      jump(tag_2)\n    tag_39:\n      dup1\n      0x7a22890a\n      eq\n      tag_19\n      jumpi\n      dup1\n      0x860249e4\n      eq\n      tag_20\n      jumpi\n      dup1\n      0x88f8a9a3\n      eq\n      tag_21\n      jumpi\n      dup1\n      0x8991e441\n      eq\n      tag_22\n      jumpi\n      jump(tag_2)\n    tag_36:\n      dup1\n      0x49e8216a\n      gt\n      tag_40\n      jumpi\n      dup1\n      0x54584199\n      gt\n      tag_41\n      jumpi\n      dup1\n      0x54584199\n      eq\n      tag_15\n      jumpi\n      dup1\n      0x5d246bad\n      eq\n      tag_16\n      jumpi\n      dup1\n      0x6ae73038\n      eq\n      tag_17\n      jumpi\n      dup1\n      0x79f760a7\n      eq\n      tag_18\n      jumpi\n      jump(tag_2)\n    tag_41:\n      dup1\n      0x49e8216a\n      eq\n      tag_11\n      jumpi\n      dup1\n      0x4a2690b9\n      eq\n      tag_12\n      jumpi\n      dup1\n      0x50b8f5eb\n      eq\n      tag_13\n      jumpi\n      dup1\n      0x52bac077\n      eq\n      tag_14\n      jumpi\n      jump(tag_2)\n    tag_40:\n      dup1\n      0x1fae9693\n      gt\n      tag_42\n      jumpi\n      dup1\n      0x1fae9693\n      eq\n      tag_7\n      jumpi\n      dup1\n      0x35d355ab\n      eq\n      tag_8\n      jumpi\n      dup1\n      0x3c49c63e\n      eq\n      tag_9\n      jumpi\n      dup1\n      0x41daf6ba\n      eq\n      tag_10\n      jumpi\n      jump(tag_2)\n    tag_42:\n      dup1\n      0x097ee368\n      eq\n      tag_3\n      jumpi\n      dup1\n      0x0d19de6f\n      eq\n      tag_4\n      jumpi\n      dup1\n      0x1c7ac31b\n      eq\n      tag_5\n      jumpi\n      dup1\n      0x1dd28782\n      eq\n      tag_6\n      jumpi\n    tag_2:\n      0x00\n      dup1\n      revert\n        /* \"gameprofits-galactic-spdgcs-contracts/governence/gameProfitsGalacticNetworkSettings.sol\":5194:5468  function switchgameprofitsGoverenenceSettings(address newSetting... */\n    tag_3:\n      tag_43\n      0x04\n      dup1\n      calldatasize\n      sub\n      dup2\n      add\n      swap1\n      tag_44\n      swap2\n      swap1\n      tag_45\n      jump\t// in\n    tag_44:\n      tag_46\n      jump\t// in\n    tag_43:\n      stop\n        /* \"gameprofits-galactic-spdgcs-contracts/governence/gameProfitsGalacticNetworkSettings.sol\":4428:4673  function gameprofitsPremiumExchangeTraderSettings() public view returns (address) {... */\n    tag_4:\n      tag_47\n      tag_48\n      jump\t// in\n    tag_47:\n      mload(0x40)\n      tag_49\n      swap2\n      swap1\n      tag_50\n      jump\t// in\n    tag_49:\n      mload(0x40)\n      dup1\n      swap2\n      sub\n      swap1\n      return\n        /* \"gameprofits-galactic-spdgcs-contracts/governence/gameProfitsGalacticNetworkSettings.sol\":3744:3963  function gameprofitsFairPlaySettings() public view returns (address) {... */\n    tag_5:\n      tag_51\n      tag_52\n      jump\t// in\n    tag_51:\n      mload(0x40)\n      tag_53\n      swap2\n      swap1\n      tag_50\n      jump\t// in\n    tag_53:\n      mload(0x40)\n      dup1\n      swap2\n      sub\n      swap1\n      return\n        /* \"gameprofits-galactic-spdgcs-contracts/governence/gameProfitsGalacticNetworkSettings.sol\":1352:1550  function isgameNetworkActive() public view returns (bool) {... */\n    tag_6:\n      tag_54\n      tag_55\n      jump\t// in\n    tag_54:\n      mload(0x40)\n      tag_56\n      swap2\n      swap1\n      tag_57\n      jump\t// in\n    tag_56:\n      mload(0x40)\n      dup1\n      swap2\n      sub\n      swap1\n      return\n        /* \"gameprofits-galactic-spdgcs-contracts/governence/gameProfitsGalacticNetworkSettings.sol\":1954:2156  function isgamesAreCoolingDown() public view returns (bool) {... */\n    tag_7:\n      tag_58\n      tag_59\n      jump\t// in\n    tag_58:\n      mload(0x40)\n      tag_60\n      swap2\n      swap1\n      tag_57\n      jump\t// in\n    tag_60:\n      mload(0x40)\n      dup1\n      swap2\n      sub\n      swap1\n      return\n        /* \"gameprofits-galactic-spdgcs-contracts/governence/gameProfitsGalacticNetworkSettings.sol\":8724:8990  function switchgamesAreDeactivated(... */\n    tag_8:\n      tag_61\n      tag_62\n      jump\t// in\n    tag_61:\n      stop\n        /* \"gameprofits-galactic-spdgcs-contracts/governence/gameProfitsGalacticNetworkSettings.sol\":9260:10286  function switchgamesKillSwitch(... */\n    tag_9:\n      tag_63\n      tag_64\n      jump\t// in\n    tag_63:\n      stop\n        /* \"gameprofits-galactic-spdgcs-contracts/governence/gameProfitsGalacticNetworkSettings.sol\":6316:6584  function switchgameprofitsFairPlaySettings(address newSetting... */\n    tag_10:\n      tag_65\n      0x04\n      dup1\n      calldatasize\n      sub\n      dup2\n      add\n      swap1\n      tag_66\n      swap2\n      swap1\n      tag_45\n      jump\t// in\n    tag_66:\n      tag_67\n      jump\t// in\n    tag_65:\n      stop\n        /* \"gameprofits-galactic-spdgcs-contracts/governence/gameProfitsGalacticNetworkSettings.sol\":1554:1738  function isgamesAreOn() public view returns (bool) {... */\n    tag_11:\n      tag_68\n      tag_69\n      jump\t// in\n    tag_68:\n      mload(0x40)\n      tag_70\n      swap2\n      swap1\n      tag_57\n      jump\t// in\n    tag_70:\n      mload(0x40)\n      dup1\n      swap2\n      sub\n      swap1\n      return\n        /* \"gameprofits-galactic-spdgcs-contracts/governence/gameProfitsGalacticNetworkSettings.sol\":3507:3738  function gameprofitsMetaVerseUniverseItems() public view returns (address) {... */\n    tag_12:\n      tag_71\n      tag_72\n      jump\t// in\n    tag_71:\n      mload(0x40)\n      tag_73\n      swap2\n      swap1\n      tag_50\n      jump\t// in\n    tag_73:\n      mload(0x40)\n      dup1\n      swap2\n      sub\n      swap1\n      return\n        /* \"gameprofits-galactic-spdgcs-contracts/governence/gameProfitsGalacticNetworkSettings.sol\":2581:2804  function gameprofitsExperimentSettings() public view returns (address) {... */\n    tag_13:\n      tag_74\n      tag_75\n      jump\t// in\n    tag_74:\n      mload(0x40)\n      tag_76\n      swap2\n      swap1\n      tag_50\n      jump\t// in\n    tag_76:\n      mload(0x40)\n      dup1\n      swap2\n      sub\n      swap1\n      return\n        /* \"gameprofits-galactic-spdgcs-contracts/governence/gameProfitsGalacticNetworkSettings.sol\":1744:1946  function isgamesAreDeactivated() public view returns (bool) {... */\n    tag_14:\n      tag_77\n      tag_78\n      jump\t// in\n    tag_77:\n      mload(0x40)\n      tag_79\n      swap2\n      swap1\n      tag_57\n      jump\t// in\n    tag_79:\n      mload(0x40)\n      dup1\n      swap2\n      sub\n      swap1\n      return\n        /* \"gameprofits-galactic-spdgcs-contracts/governence/gameProfitsGalacticNetworkSettings.sol\":7142:7436  function switchgameprofitsPremiumExchangeTraderSettings(address newSetting... */\n    tag_15:\n      tag_80\n      0x04\n      dup1\n      calldatasize\n      sub\n      dup2\n      add\n      swap1\n      tag_81\n      swap2\n      swap1\n      tag_45\n      jump\t// in\n    tag_81:\n      tag_82\n      jump\t// in\n    tag_80:\n      stop\n        /* \"gameprofits-galactic-spdgcs-contracts/governence/gameProfitsGalacticNetworkSettings.sol\":6588:6858  function switchgameprofitsFairValueSettings(address newSetting... */\n    tag_16:\n      tag_83\n      0x04\n      dup1\n      calldatasize\n      sub\n      dup2\n      add\n      swap1\n      tag_84\n      swap2\n      swap1\n      tag_45\n      jump\t// in\n    tag_84:\n      tag_85\n      jump\t// in\n    tag_83:\n      stop\n        /* \"gameprofits-galactic-spdgcs-contracts/governence/gameProfitsGalacticNetworkSettings.sol\":4195:4422  function gameprofitsFairSoulsActSettings() public view returns (address) {... */\n    tag_17:\n      tag_86\n      tag_87\n      jump\t// in\n    tag_86:\n      mload(0x40)\n      tag_88\n      swap2\n      swap1\n      tag_50\n      jump\t// in\n    tag_88:\n      mload(0x40)\n      dup1\n      swap2\n      sub\n      swap1\n      return\n        /* \"gameprofits-galactic-spdgcs-contracts/governence/gameProfitsGalacticNetworkSettings.sol\":6862:7138  function switchgameprofitsFairSoulsActSettings(address newSetting... */\n    tag_18:\n      tag_89\n      0x04\n      dup1\n      calldatasize\n      sub\n      dup2\n      add\n      swap1\n      tag_90\n      swap2\n      swap1\n      tag_45\n      jump\t// in\n    tag_90:\n      tag_91\n      jump\t// in\n    tag_89:\n      stop\n        /* \"gameprofits-galactic-spdgcs-contracts/governence/gameProfitsGalacticNetworkSettings.sol\":8992:9258  function switchgamesAreCoolingDown(... */\n    tag_19:\n      tag_92\n      tag_93\n      jump\t// in\n    tag_92:\n      stop\n        /* \"gameprofits-galactic-spdgcs-contracts/governence/gameProfitsGalacticNetworkSettings.sol\":7726:7992  function switchgameprofitsfinanceSettings(address newSetting... */\n    tag_20:\n      tag_94\n      0x04\n      dup1\n      calldatasize\n      sub\n      dup2\n      add\n      swap1\n      tag_95\n      swap2\n      swap1\n      tag_45\n      jump\t// in\n    tag_95:\n      tag_96\n      jump\t// in\n    tag_94:\n      stop\n        /* \"gameprofits-galactic-spdgcs-contracts/governence/gameProfitsGalacticNetworkSettings.sol\":8221:8481  function switchgameNetworkActive(... */\n    tag_21:\n      tag_97\n      tag_98\n      jump\t// in\n    tag_97:\n      stop\n        /* \"gameprofits-galactic-spdgcs-contracts/governence/gameProfitsGalacticNetworkSettings.sol\":2810:3035  function gameprofitsGoverenenceSettings() public view returns (address) {... */\n    tag_22:\n      tag_99\n      tag_100\n      jump\t// in\n    tag_99:\n      mload(0x40)\n      tag_101\n      swap2\n      swap1\n      tag_50\n      jump\t// in\n    tag_101:\n      mload(0x40)\n      dup1\n      swap2\n      sub\n      swap1\n      return\n        /* \"gameprofits-galactic-spdgcs-contracts/governence/gameProfitsGalacticNetworkSettings.sol\":2160:2354  function isgamesKillSwitch() public view returns (bool) {... */\n    tag_23:\n      tag_102\n      tag_103\n      jump\t// in\n    tag_102:\n      mload(0x40)\n      tag_104\n      swap2\n      swap1\n      tag_57\n      jump\t// in\n    tag_104:\n      mload(0x40)\n      dup1\n      swap2\n      sub\n      swap1\n      return\n        /* \"gameprofits-galactic-spdgcs-contracts/governence/gameProfitsGalacticNetworkSettings.sol\":3280:3501  function gameprofitsMetaVerseSettings() public view returns (address) {... */\n    tag_24:\n      tag_105\n      tag_106\n      jump\t// in\n    tag_105:\n      mload(0x40)\n      tag_107\n      swap2\n      swap1\n      tag_50\n      jump\t// in\n    tag_107:\n      mload(0x40)\n      dup1\n      swap2\n      sub\n      swap1\n      return\n        /* \"gameprofits-galactic-spdgcs-contracts/governence/gameProfitsGalacticNetworkSettings.sol\":3041:3274  function gameprofitsIchoroniumTableSettings() public view returns (address) {... */\n    tag_25:\n      tag_108\n      tag_109\n      jump\t// in\n    tag_108:\n      mload(0x40)\n      tag_110\n      swap2\n      swap1\n      tag_50\n      jump\t// in\n    tag_110:\n      mload(0x40)\n      dup1\n      swap2\n      sub\n      swap1\n      return\n        /* \"gameprofits-galactic-spdgcs-contracts/governence/gameProfitsGalacticNetworkSettings.sol\":7440:7724  function switchgameprofitsMasterVideoGamesSettings(address newSetting... */\n    tag_26:\n      tag_111\n      0x04\n      dup1\n      calldatasize\n      sub\n      dup2\n      add\n      swap1\n      tag_112\n      swap2\n      swap1\n      tag_45\n      jump\t// in\n    tag_112:\n      tag_113\n      jump\t// in\n    tag_111:\n      stop\n        /* \"gameprofits-galactic-spdgcs-contracts/governence/gameProfitsGalacticNetworkSettings.sol\":4679:4914  function gameprofitsMasterVideoGamesSettings() public view returns (address) {... */\n    tag_27:\n      tag_114\n      tag_115\n      jump\t// in\n    tag_114:\n      mload(0x40)\n      tag_116\n      swap2\n      swap1\n      tag_50\n      jump\t// in\n    tag_116:\n      mload(0x40)\n      dup1\n      swap2\n      sub\n      swap1\n      return\n        /* \"gameprofits-galactic-spdgcs-contracts/governence/gameProfitsGalacticNetworkSettings.sol\":6032:6312  function switchgameprofitsMetaVerseUniverseItems(address newSetting... */\n    tag_28:\n      tag_117\n      0x04\n      dup1\n      calldatasize\n      sub\n      dup2\n      add\n      swap1\n      tag_118\n      swap2\n      swap1\n      tag_45\n      jump\t// in\n    tag_118:\n      tag_119\n      jump\t// in\n    tag_117:\n      stop\n        /* \"gameprofits-galactic-spdgcs-contracts/governence/gameProfitsGalacticNetworkSettings.sol\":4918:5190  function switchgameprofitsExperimentSettings(address newSetting... */\n    tag_29:\n      tag_120\n      0x04\n      dup1\n      calldatasize\n      sub\n      dup2\n      add\n      swap1\n      tag_121\n      swap2\n      swap1\n      tag_45\n      jump\t// in\n    tag_121:\n      tag_122\n      jump\t// in\n    tag_120:\n      stop\n        /* \"gameprofits-galactic-spdgcs-contracts/governence/gameProfitsGalacticNetworkSettings.sol\":5758:6028  function switchgameprofitsMetaVerseSettings(address newSetting... */\n    tag_30:\n      tag_123\n      0x04\n      dup1\n      calldatasize\n      sub\n      dup2\n      add\n      swap1\n      tag_124\n      swap2\n      swap1\n      tag_45\n      jump\t// in\n    tag_124:\n      tag_125\n      jump\t// in\n    tag_123:\n      stop\n        /* \"gameprofits-galactic-spdgcs-contracts/governence/gameProfitsGalacticNetworkSettings.sol\":2358:2575  function gameprofitsfinanceSettings() public view returns (address) {... */\n    tag_31:\n      tag_126\n      tag_127\n      jump\t// in\n    tag_126:\n      mload(0x40)\n      tag_128\n      swap2\n      swap1\n      tag_50\n      jump\t// in\n    tag_128:\n      mload(0x40)\n      dup1\n      swap2\n      sub\n      swap1\n      return\n        /* \"gameprofits-galactic-spdgcs-contracts/governence/gameProfitsGalacticNetworkSettings.sol\":8483:8722  function switchgamesAreOn(... */\n    tag_32:\n      tag_129\n      tag_130\n      jump\t// in\n    tag_129:\n      stop\n        /* \"gameprofits-galactic-spdgcs-contracts/governence/gameProfitsGalacticNetworkSettings.sol\":3969:4190  function gameprofitsFairValueSettings() public view returns (address) {... */\n    tag_33:\n      tag_131\n      tag_132\n      jump\t// in\n    tag_131:\n      mload(0x40)\n      tag_133\n      swap2\n      swap1\n      tag_50\n      jump\t// in\n    tag_133:\n      mload(0x40)\n      dup1\n      swap2\n      sub\n      swap1\n      return\n        /* \"gameprofits-galactic-spdgcs-contracts/governence/gameProfitsGalacticNetworkSettings.sol\":7994:8217  function gameprofitsReturnSettings() public view returns (gameprofitsSettings memory networkSetting) {... */\n    tag_34:\n      tag_134\n      tag_135\n      jump\t// in\n    tag_134:\n      mload(0x40)\n      tag_136\n      swap2\n      swap1\n      tag_137\n      jump\t// in\n    tag_136:\n      mload(0x40)\n      dup1\n      swap2\n      sub\n      swap1\n      return\n        /* \"gameprofits-galactic-spdgcs-contracts/governence/gameProfitsGalacticNetworkSettings.sol\":5472:5754  function switchgameprofitsIchoroniumTableSettings(address newSetting... */\n    tag_35:\n      tag_138\n      0x04\n      dup1\n      calldatasize\n      sub\n      dup2\n      add\n      swap1\n      tag_139\n      swap2\n      swap1\n      tag_45\n      jump\t// in\n    tag_139:\n      tag_140\n      jump\t// in\n    tag_138:\n      stop\n        /* \"gameprofits-galactic-spdgcs-contracts/governence/gameProfitsGalacticNetworkSettings.sol\":5194:5468  function switchgameprofitsGoverenenceSettings(address newSetting... */\n    tag_46:\n        /* \"gameprofits-galactic-spdgcs-contracts/governence/gameProfitsGalacticNetworkSettings.sol\":10343:10348  owner */\n      0x00\n      dup1\n      sload\n      swap1\n      0x0100\n      exp\n      swap1\n      div\n      0xffffffffffffffffffffffffffffffffffffffff\n      and\n        /* \"gameprofits-galactic-spdgcs-contracts/governence/gameProfitsGalacticNetworkSettings.sol\":10329:10348  msg.sender == owner */\n      0xffffffffffffffffffffffffffffffffffffffff\n      and\n        /* \"gameprofits-galactic-spdgcs-contracts/governence/gameProfitsGalacticNetworkSettings.sol\":10329:10339  msg.sender */\n      caller\n        /* \"gameprofits-galactic-spdgcs-contracts/governence/gameProfitsGalacticNetworkSettings.sol\":10329:10348  msg.sender == owner */\n      0xffffffffffffffffffffffffffffffffffffffff\n      and\n      eq\n        /* \"gameprofits-galactic-spdgcs-contracts/governence/gameProfitsGalacticNetworkSettings.sol\":10320:10349  require (msg.sender == owner) */\n      tag_142\n      jumpi\n      0x00\n      dup1\n      revert\n    tag_142:\n        /* \"gameprofits-galactic-spdgcs-contracts/governence/gameProfitsGalacticNetworkSettings.sol\":5415:5425  newSetting */\n      dup1\n        /* \"gameprofits-galactic-spdgcs-contracts/governence/gameProfitsGalacticNetworkSettings.sol\":5355:5381  gameprofitsNetworkSettings */\n      0x01\n        /* \"gameprofits-galactic-spdgcs-contracts/governence/gameProfitsGalacticNetworkSettings.sol\":5355:5412  gameprofitsNetworkSettings.gameprofitsGoverenenceSettings */\n      0x02\n      add\n      0x00\n        /* \"gameprofits-galactic-spdgcs-contracts/governence/gameProfitsGalacticNetworkSettings.sol\":5355:5425  gameprofitsNetworkSettings.gameprofitsGoverenenceSettings = newSetting */\n      0x0100\n      exp\n      dup2\n      sload\n      dup2\n      0xffffffffffffffffffffffffffffffffffffffff\n      mul\n      not\n      and\n      swap1\n      dup4\n      0xffffffffffffffffffffffffffffffffffffffff\n      and\n      mul\n      or\n      swap1\n      sstore\n      pop\n        /* \"gameprofits-galactic-spdgcs-contracts/governence/gameProfitsGalacticNetworkSettings.sol\":5194:5468  function switchgameprofitsGoverenenceSettings(address newSetting... */\n      pop\n      jump\t// out\n        /* \"gameprofits-galactic-spdgcs-contracts/governence/gameProfitsGalacticNetworkSettings.sol\":4428:4673  function gameprofitsPremiumExchangeTraderSettings() public view returns (address) {... */\n    tag_48:\n        /* \"gameprofits-galactic-spdgcs-contracts/governence/gameProfitsGalacticNetworkSettings.sol\":4501:4508  address */\n      0x00\n        /* \"gameprofits-galactic-spdgcs-contracts/governence/gameProfitsGalacticNetworkSettings.sol\":4521:4563  gameprofitsSettings storage networksetting */\n      dup1\n        /* \"gameprofits-galactic-spdgcs-contracts/governence/gameProfitsGalacticNetworkSettings.sol\":4566:4592  gameprofitsNetworkSettings */\n      0x01\n        /* \"gameprofits-galactic-spdgcs-contracts/governence/gameProfitsGalacticNetworkSettings.sol\":4521:4592  gameprofitsSettings storage networksetting = gameprofitsNetworkSettings */\n      swap1\n      pop\n        /* \"gameprofits-galactic-spdgcs-contracts/governence/gameProfitsGalacticNetworkSettings.sol\":4610:4624  networksetting */\n      dup1\n        /* \"gameprofits-galactic-spdgcs-contracts/governence/gameProfitsGalacticNetworkSettings.sol\":4610:4665  networksetting.gameprofitsPremiumExchangeTraderSettings */\n      0x09\n      add\n      0x00\n      swap1\n      sload\n      swap1\n      0x0100\n      exp\n      swap1\n      div\n      0xffffffffffffffffffffffffffffffffffffffff\n      and\n        /* \"gameprofits-galactic-spdgcs-contracts/governence/gameProfitsGalacticNetworkSettings.sol\":4603:4665  return networksetting.gameprofitsPremiumExchangeTraderSettings */\n      swap2\n      pop\n      pop\n        /* \"gameprofits-galactic-spdgcs-contracts/governence/gameProfitsGalacticNetworkSettings.sol\":4428:4673  function gameprofitsPremiumExchangeTraderSettings() public view returns (address) {... */\n      swap1\n      jump\t// out\n        /* \"gameprofits-galactic-spdgcs-contracts/governence/gameProfitsGalacticNetworkSettings.sol\":3744:3963  function gameprofitsFairPlaySettings() public view returns (address) {... */\n    tag_52:\n        /* \"gameprofits-galactic-spdgcs-contracts/governence/gameProfitsGalacticNetworkSettings.sol\":3804:3811  address */\n      0x00\n        /* \"gameprofits-galactic-spdgcs-contracts/governence/gameProfitsGalacticNetworkSettings.sol\":3824:3866  gameprofitsSettings storage networksetting */\n      dup1\n        /* \"gameprofits-galactic-spdgcs-contracts/governence/gameProfitsGalacticNetworkSettings.sol\":3869:3895  gameprofitsNetworkSettings */\n      0x01\n        /* \"gameprofits-galactic-spdgcs-contracts/governence/gameProfitsGalacticNetworkSettings.sol\":3824:3895  gameprofitsSettings storage networksetting = gameprofitsNetworkSettings */\n      swap1\n      pop\n        /* \"gameprofits-galactic-spdgcs-contracts/governence/gameProfitsGalacticNetworkSettings.sol\":3913:3927  networksetting */\n      dup1\n        /* \"gameprofits-galactic-spdgcs-contracts/governence/gameProfitsGalacticNetworkSettings.sol\":3913:3955  networksetting.gameprofitsFairPlaySettings */\n      0x06\n      add\n      0x00\n      swap1\n      sload\n      swap1\n      0x0100\n      exp\n      swap1\n      div\n      0xffffffffffffffffffffffffffffffffffffffff\n      and\n        /* \"gameprofits-galactic-spdgcs-contracts/governence/gameProfitsGalacticNetworkSettings.sol\":3906:3955  return networksetting.gameprofitsFairPlaySettings */\n      swap2\n      pop\n      pop\n        /* \"gameprofits-galactic-spdgcs-contracts/governence/gameProfitsGalacticNetworkSettings.sol\":3744:3963  function gameprofitsFairPlaySettings() public view returns (address) {... */\n      swap1\n      jump\t// out\n        /* \"gameprofits-galactic-spdgcs-contracts/governence/gameProfitsGalacticNetworkSettings.sol\":1352:1550  function isgameNetworkActive() public view returns (bool) {... */\n    tag_55:\n        /* \"gameprofits-galactic-spdgcs-contracts/governence/gameProfitsGalacticNetworkSettings.sol\":1404:1408  bool */\n      0x00\n        /* \"gameprofits-galactic-spdgcs-contracts/governence/gameProfitsGalacticNetworkSettings.sol\":1421:1463  gameprofitsSettings storage networksetting */\n      dup1\n        /* \"gameprofits-galactic-spdgcs-contracts/governence/gameProfitsGalacticNetworkSettings.sol\":1466:1492  gameprofitsNetworkSettings */\n      0x01\n        /* \"gameprofits-galactic-spdgcs-contracts/governence/gameProfitsGalacticNetworkSettings.sol\":1421:1492  gameprofitsSettings storage networksetting = gameprofitsNetworkSettings */\n      swap1\n      pop\n        /* \"gameprofits-galactic-spdgcs-contracts/governence/gameProfitsGalacticNetworkSettings.sol\":1510:1524  networksetting */\n      dup1\n        /* \"gameprofits-galactic-spdgcs-contracts/governence/gameProfitsGalacticNetworkSettings.sol\":1510:1542  networksetting.gameNetworkActive */\n      0x00\n      add\n      0x00\n      swap1\n      sload\n      swap1\n      0x0100\n      exp\n      swap1\n      div\n      0xff\n      and\n        /* \"gameprofits-galactic-spdgcs-contracts/governence/gameProfitsGalacticNetworkSettings.sol\":1503:1542  return networksetting.gameNetworkActive */\n      swap2\n      pop\n      pop\n        /* \"gameprofits-galactic-spdgcs-contracts/governence/gameProfitsGalacticNetworkSettings.sol\":1352:1550  function isgameNetworkActive() public view returns (bool) {... */\n      swap1\n      jump\t// out\n        /* \"gameprofits-galactic-spdgcs-contracts/governence/gameProfitsGalacticNetworkSettings.sol\":1954:2156  function isgamesAreCoolingDown() public view returns (bool) {... */\n    tag_59:\n        /* \"gameprofits-galactic-spdgcs-contracts/governence/gameProfitsGalacticNetworkSettings.sol\":2008:2012  bool */\n      0x00\n        /* \"gameprofits-galactic-spdgcs-contracts/governence/gameProfitsGalacticNetworkSettings.sol\":2025:2067  gameprofitsSettings storage networksetting */\n      dup1\n        /* \"gameprofits-galactic-spdgcs-contracts/governence/gameProfitsGalacticNetworkSettings.sol\":2070:2096  gameprofitsNetworkSettings */\n      0x01\n        /* \"gameprofits-galactic-spdgcs-contracts/governence/gameProfitsGalacticNetworkSettings.sol\":2025:2096  gameprofitsSettings storage networksetting = gameprofitsNetworkSettings */\n      swap1\n      pop\n        /* \"gameprofits-galactic-spdgcs-contracts/governence/gameProfitsGalacticNetworkSettings.sol\":2114:2128  networksetting */\n      dup1\n        /* \"gameprofits-galactic-spdgcs-contracts/governence/gameProfitsGalacticNetworkSettings.sol\":2114:2148  networksetting.gamesAreCoolingDown */\n      0x00\n      add\n      0x03\n      swap1\n      sload\n      swap1\n      0x0100\n      exp\n      swap1\n      div\n      0xff\n      and\n        /* \"gameprofits-galactic-spdgcs-contracts/governence/gameProfitsGalacticNetworkSettings.sol\":2107:2148  return networksetting.gamesAreCoolingDown */\n      swap2\n      pop\n      pop\n        /* \"gameprofits-galactic-spdgcs-contracts/governence/gameProfitsGalacticNetworkSettings.sol\":1954:2156  function isgamesAreCoolingDown() public view returns (bool) {... */\n      swap1\n      jump\t// out\n        /* \"gameprofits-galactic-spdgcs-contracts/governence/gameProfitsGalacticNetworkSettings.sol\":8724:8990  function switchgamesAreDeactivated(... */\n    tag_62:\n        /* \"gameprofits-galactic-spdgcs-contracts/governence/gameProfitsGalacticNetworkSettings.sol\":10343:10348  owner */\n      0x00\n      dup1\n      sload\n      swap1\n      0x0100\n      exp\n      swap1\n      div\n      0xffffffffffffffffffffffffffffffffffffffff\n      and\n        /* \"gameprofits-galactic-spdgcs-contracts/governence/gameProfitsGalacticNetworkSettings.sol\":10329:10348  msg.sender == owner */\n      0xffffffffffffffffffffffffffffffffffffffff\n      and\n        /* \"gameprofits-galactic-spdgcs-contracts/governence/gameProfitsGalacticNetworkSettings.sol\":10329:10339  msg.sender */\n      caller\n        /* \"gameprofits-galactic-spdgcs-contracts/governence/gameProfitsGalacticNetworkSettings.sol\":10329:10348  msg.sender == owner */\n      0xffffffffffffffffffffffffffffffffffffffff\n      and\n      eq\n        /* \"gameprofits-galactic-spdgcs-contracts/governence/gameProfitsGalacticNetworkSettings.sol\":10320:10349  require (msg.sender == owner) */\n      tag_149\n      jumpi\n      0x00\n      dup1\n      revert\n    tag_149:\n        /* \"gameprofits-galactic-spdgcs-contracts/governence/gameProfitsGalacticNetworkSettings.sol\":8926:8952  gameprofitsNetworkSettings */\n      0x01\n        /* \"gameprofits-galactic-spdgcs-contracts/governence/gameProfitsGalacticNetworkSettings.sol\":8926:8972  gameprofitsNetworkSettings.gamesAreDeactivated */\n      0x00\n      add\n      0x02\n      swap1\n      sload\n      swap1\n      0x0100\n      exp\n      swap1\n      div\n      0xff\n      and\n        /* \"gameprofits-galactic-spdgcs-contracts/governence/gameProfitsGalacticNetworkSettings.sol\":8925:8972  !gameprofitsNetworkSettings.gamesAreDeactivated */\n      iszero\n        /* \"gameprofits-galactic-spdgcs-contracts/governence/gameProfitsGalacticNetworkSettings.sol\":8876:8902  gameprofitsNetworkSettings */\n      0x01\n        /* \"gameprofits-galactic-spdgcs-contracts/governence/gameProfitsGalacticNetworkSettings.sol\":8876:8922  gameprofitsNetworkSettings.gamesAreDeactivated */\n      0x00\n      add\n      0x02\n        /* \"gameprofits-galactic-spdgcs-contracts/governence/gameProfitsGalacticNetworkSettings.sol\":8876:8972  gameprofitsNetworkSettings.gamesAreDeactivated = !gameprofitsNetworkSettings.gamesAreDeactivated */\n      0x0100\n      exp\n      dup2\n      sload\n      dup2\n      0xff\n      mul\n      not\n      and\n      swap1\n      dup4\n      iszero\n      iszero\n      mul\n      or\n      swap1\n      sstore\n      pop\n        /* \"gameprofits-galactic-spdgcs-contracts/governence/gameProfitsGalacticNetworkSettings.sol\":8724:8990  function switchgamesAreDeactivated(... */\n      jump\t// out\n        /* \"gameprofits-galactic-spdgcs-contracts/governence/gameProfitsGalacticNetworkSettings.sol\":9260:10286  function switchgamesKillSwitch(... */\n    tag_64:\n        /* \"gameprofits-galactic-spdgcs-contracts/governence/gameProfitsGalacticNetworkSettings.sol\":10343:10348  owner */\n      0x00\n      dup1\n      sload\n      swap1\n      0x0100\n      exp\n      swap1\n      div\n      0xffffffffffffffffffffffffffffffffffffffff\n      and\n        /* \"gameprofits-galactic-spdgcs-contracts/governence/gameProfitsGalacticNetworkSettings.sol\":10329:10348  msg.sender == owner */\n      0xffffffffffffffffffffffffffffffffffffffff\n      and\n        /* \"gameprofits-galactic-spdgcs-contracts/governence/gameProfitsGalacticNetworkSettings.sol\":10329:10339  msg.sender */\n      caller\n        /* \"gameprofits-galactic-spdgcs-contracts/governence/gameProfitsGalacticNetworkSettings.sol\":10329:10348  msg.sender == owner */\n      0xffffffffffffffffffffffffffffffffffffffff\n      and\n      eq\n        /* \"gameprofits-galactic-spdgcs-contracts/governence/gameProfitsGalacticNetworkSettings.sol\":10320:10349  require (msg.sender == owner) */\n      tag_152\n      jumpi\n      0x00\n      dup1\n      revert\n    tag_152:\n        /* \"gameprofits-galactic-spdgcs-contracts/governence/gameProfitsGalacticNetworkSettings.sol\":9450:9455  false */\n      0x00\n        /* \"gameprofits-galactic-spdgcs-contracts/governence/gameProfitsGalacticNetworkSettings.sol\":9406:9455  gameprofitsNetworkSettings.gamesKillSwitch==false */\n      iszero\n      iszero\n        /* \"gameprofits-galactic-spdgcs-contracts/governence/gameProfitsGalacticNetworkSettings.sol\":9406:9432  gameprofitsNetworkSettings */\n      0x01\n        /* \"gameprofits-galactic-spdgcs-contracts/governence/gameProfitsGalacticNetworkSettings.sol\":9406:9448  gameprofitsNetworkSettings.gamesKillSwitch */\n      0x00\n      add\n      0x04\n      swap1\n      sload\n      swap1\n      0x0100\n      exp\n      swap1\n      div\n      0xff\n      and\n        /* \"gameprofits-galactic-spdgcs-contracts/governence/gameProfitsGalacticNetworkSettings.sol\":9406:9455  gameprofitsNetworkSettings.gamesKillSwitch==false */\n      iszero\n      iszero\n      sub\n        /* \"gameprofits-galactic-spdgcs-contracts/governence/gameProfitsGalacticNetworkSettings.sol\":9403:10243  if(gameprofitsNetworkSettings.gamesKillSwitch==false){... */\n      tag_154\n      jumpi\n        /* \"gameprofits-galactic-spdgcs-contracts/governence/gameProfitsGalacticNetworkSettings.sol\":9526:9552  gameprofitsNetworkSettings */\n      0x01\n        /* \"gameprofits-galactic-spdgcs-contracts/governence/gameProfitsGalacticNetworkSettings.sol\":9526:9568  gameprofitsNetworkSettings.gamesKillSwitch */\n      0x00\n      add\n      0x04\n      swap1\n      sload\n      swap1\n      0x0100\n      exp\n      swap1\n      div\n      0xff\n      and\n        /* \"gameprofits-galactic-spdgcs-contracts/governence/gameProfitsGalacticNetworkSettings.sol\":9525:9568  !gameprofitsNetworkSettings.gamesKillSwitch */\n      iszero\n        /* \"gameprofits-galactic-spdgcs-contracts/governence/gameProfitsGalacticNetworkSettings.sol\":9480:9506  gameprofitsNetworkSettings */\n      0x01\n        /* \"gameprofits-galactic-spdgcs-contracts/governence/gameProfitsGalacticNetworkSettings.sol\":9480:9522  gameprofitsNetworkSettings.gamesKillSwitch */\n      0x00\n      add\n      0x04\n        /* \"gameprofits-galactic-spdgcs-contracts/governence/gameProfitsGalacticNetworkSettings.sol\":9480:9568  gameprofitsNetworkSettings.gamesKillSwitch = !gameprofitsNetworkSettings.gamesKillSwitch */\n      0x0100\n      exp\n      dup2\n      sload\n      dup2\n      0xff\n      mul\n      not\n      and\n      swap1\n      dup4\n      iszero\n      iszero\n      mul\n      or\n      swap1\n      sstore\n      pop\n        /* \"gameprofits-galactic-spdgcs-contracts/governence/gameProfitsGalacticNetworkSettings.sol\":9641:9645  true */\n      0x01\n        /* \"gameprofits-galactic-spdgcs-contracts/governence/gameProfitsGalacticNetworkSettings.sol\":9592:9618  gameprofitsNetworkSettings */\n      dup1\n        /* \"gameprofits-galactic-spdgcs-contracts/governence/gameProfitsGalacticNetworkSettings.sol\":9592:9638  gameprofitsNetworkSettings.gamesAreCoolingDown */\n      0x00\n      add\n      0x03\n        /* \"gameprofits-galactic-spdgcs-contracts/governence/gameProfitsGalacticNetworkSettings.sol\":9592:9645  gameprofitsNetworkSettings.gamesAreCoolingDown = true */\n      0x0100\n      exp\n      dup2\n      sload\n      dup2\n      0xff\n      mul\n      not\n      and\n      swap1\n      dup4\n      iszero\n      iszero\n      mul\n      or\n      swap1\n      sstore\n      pop\n        /* \"gameprofits-galactic-spdgcs-contracts/governence/gameProfitsGalacticNetworkSettings.sol\":9709:9714  false */\n      0x00\n        /* \"gameprofits-galactic-spdgcs-contracts/governence/gameProfitsGalacticNetworkSettings.sol\":9669:9695  gameprofitsNetworkSettings */\n      0x01\n        /* \"gameprofits-galactic-spdgcs-contracts/governence/gameProfitsGalacticNetworkSettings.sol\":9669:9706  gameprofitsNetworkSettings.gamesAreOn */\n      0x00\n      add\n      0x01\n        /* \"gameprofits-galactic-spdgcs-contracts/governence/gameProfitsGalacticNetworkSettings.sol\":9669:9714  gameprofitsNetworkSettings.gamesAreOn = false */\n      0x0100\n      exp\n      dup2\n      sload\n      dup2\n      0xff\n      mul\n      not\n      and\n      swap1\n      dup4\n      iszero\n      iszero\n      mul\n      or\n      swap1\n      sstore\n      pop\n        /* \"gameprofits-galactic-spdgcs-contracts/governence/gameProfitsGalacticNetworkSettings.sol\":9787:9791  true */\n      0x01\n        /* \"gameprofits-galactic-spdgcs-contracts/governence/gameProfitsGalacticNetworkSettings.sol\":9738:9764  gameprofitsNetworkSettings */\n      dup1\n        /* \"gameprofits-galactic-spdgcs-contracts/governence/gameProfitsGalacticNetworkSettings.sol\":9738:9784  gameprofitsNetworkSettings.gamesAreDeactivated */\n      0x00\n      add\n      0x02\n        /* \"gameprofits-galactic-spdgcs-contracts/governence/gameProfitsGalacticNetworkSettings.sol\":9738:9791  gameprofitsNetworkSettings.gamesAreDeactivated = true */\n      0x0100\n      exp\n      dup2\n      sload\n      dup2\n      0xff\n      mul\n      not\n      and\n      swap1\n      dup4\n      iszero\n      iszero\n      mul\n      or\n      swap1\n      sstore\n      pop\n        /* \"gameprofits-galactic-spdgcs-contracts/governence/gameProfitsGalacticNetworkSettings.sol\":9403:10243  if(gameprofitsNetworkSettings.gamesKillSwitch==false){... */\n      jump(tag_155)\n    tag_154:\n        /* \"gameprofits-galactic-spdgcs-contracts/governence/gameProfitsGalacticNetworkSettings.sol\":9881:9885  true */\n      0x01\n        /* \"gameprofits-galactic-spdgcs-contracts/governence/gameProfitsGalacticNetworkSettings.sol\":9837:9885  gameprofitsNetworkSettings.gamesKillSwitch==true */\n      iszero\n      iszero\n        /* \"gameprofits-galactic-spdgcs-contracts/governence/gameProfitsGalacticNetworkSettings.sol\":9837:9863  gameprofitsNetworkSettings */\n      0x01\n        /* \"gameprofits-galactic-spdgcs-contracts/governence/gameProfitsGalacticNetworkSettings.sol\":9837:9879  gameprofitsNetworkSettings.gamesKillSwitch */\n      0x00\n      add\n      0x04\n      swap1\n      sload\n      swap1\n      0x0100\n      exp\n      swap1\n      div\n      0xff\n      and\n        /* \"gameprofits-galactic-spdgcs-contracts/governence/gameProfitsGalacticNetworkSettings.sol\":9837:9885  gameprofitsNetworkSettings.gamesKillSwitch==true */\n      iszero\n      iszero\n      sub\n        /* \"gameprofits-galactic-spdgcs-contracts/governence/gameProfitsGalacticNetworkSettings.sol\":9834:10243  if(gameprofitsNetworkSettings.gamesKillSwitch==true){... */\n      tag_156\n      jumpi\n        /* \"gameprofits-galactic-spdgcs-contracts/governence/gameProfitsGalacticNetworkSettings.sol\":9956:9982  gameprofitsNetworkSettings */\n      0x01\n        /* \"gameprofits-galactic-spdgcs-contracts/governence/gameProfitsGalacticNetworkSettings.sol\":9956:9998  gameprofitsNetworkSettings.gamesKillSwitch */\n      0x00\n      add\n      0x04\n      swap1\n      sload\n      swap1\n      0x0100\n      exp\n      swap1\n      div\n      0xff\n      and\n        /* \"gameprofits-galactic-spdgcs-contracts/governence/gameProfitsGalacticNetworkSettings.sol\":9955:9998  !gameprofitsNetworkSettings.gamesKillSwitch */\n      iszero\n        /* \"gameprofits-galactic-spdgcs-contracts/governence/gameProfitsGalacticNetworkSettings.sol\":9910:9936  gameprofitsNetworkSettings */\n      0x01\n        /* \"gameprofits-galactic-spdgcs-contracts/governence/gameProfitsGalacticNetworkSettings.sol\":9910:9952  gameprofitsNetworkSettings.gamesKillSwitch */\n      0x00\n      add\n      0x04\n        /* \"gameprofits-galactic-spdgcs-contracts/governence/gameProfitsGalacticNetworkSettings.sol\":9910:9998  gameprofitsNetworkSettings.gamesKillSwitch = !gameprofitsNetworkSettings.gamesKillSwitch */\n      0x0100\n      exp\n      dup2\n      sload\n      dup2\n      0xff\n      mul\n      not\n      and\n      swap1\n      dup4\n      iszero\n      iszero\n      mul\n      or\n      swap1\n      sstore\n      pop\n        /* \"gameprofits-galactic-spdgcs-contracts/governence/gameProfitsGalacticNetworkSettings.sol\":10071:10076  false */\n      0x00\n        /* \"gameprofits-galactic-spdgcs-contracts/governence/gameProfitsGalacticNetworkSettings.sol\":10022:10048  gameprofitsNetworkSettings */\n      0x01\n        /* \"gameprofits-galactic-spdgcs-contracts/governence/gameProfitsGalacticNetworkSettings.sol\":10022:10068  gameprofitsNetworkSettings.gamesAreCoolingDown */\n      0x00\n      add\n      0x03\n        /* \"gameprofits-galactic-spdgcs-contracts/governence/gameProfitsGalacticNetworkSettings.sol\":10022:10076  gameprofitsNetworkSettings.gamesAreCoolingDown = false */\n      0x0100\n      exp\n      dup2\n      sload\n      dup2\n      0xff\n      mul\n      not\n      and\n      swap1\n      dup4\n      iszero\n      iszero\n      mul\n      or\n      swap1\n      sstore\n      pop\n        /* \"gameprofits-galactic-spdgcs-contracts/governence/gameProfitsGalacticNetworkSettings.sol\":10140:10145  false */\n      0x00\n        /* \"gameprofits-galactic-spdgcs-contracts/governence/gameProfitsGalacticNetworkSettings.sol\":10100:10126  gameprofitsNetworkSettings */\n      0x01\n        /* \"gameprofits-galactic-spdgcs-contracts/governence/gameProfitsGalacticNetworkSettings.sol\":10100:10137  gameprofitsNetworkSettings.gamesAreOn */\n      0x00\n      add\n      0x01\n        /* \"gameprofits-galactic-spdgcs-contracts/governence/gameProfitsGalacticNetworkSettings.sol\":10100:10145  gameprofitsNetworkSettings.gamesAreOn = false */\n      0x0100\n      exp\n      dup2\n      sload\n      dup2\n      0xff\n      mul\n      not\n      and\n      swap1\n      dup4\n      iszero\n      iszero\n      mul\n      or\n      swap1\n      sstore\n      pop\n        /* \"gameprofits-galactic-spdgcs-contracts/governence/gameProfitsGalacticNetworkSettings.sol\":10218:10223  false */\n      0x00\n        /* \"gameprofits-galactic-spdgcs-contracts/governence/gameProfitsGalacticNetworkSettings.sol\":10169:10195  gameprofitsNetworkSettings */\n      0x01\n        /* \"gameprofits-galactic-spdgcs-contracts/governence/gameProfitsGalacticNetworkSettings.sol\":10169:10215  gameprofitsNetworkSettings.gamesAreDeactivated */\n      0x00\n      add\n      0x02\n        /* \"gameprofits-galactic-spdgcs-contracts/governence/gameProfitsGalacticNetworkSettings.sol\":10169:10223  gameprofitsNetworkSettings.gamesAreDeactivated = false */\n      0x0100\n      exp\n      dup2\n      sload\n      dup2\n      0xff\n      mul\n      not\n      and\n      swap1\n      dup4\n      iszero\n      iszero\n      mul\n      or\n      swap1\n      sstore\n      pop\n        /* \"gameprofits-galactic-spdgcs-contracts/governence/gameProfitsGalacticNetworkSettings.sol\":9834:10243  if(gameprofitsNetworkSettings.gamesKillSwitch==true){... */\n    tag_156:\n        /* \"gameprofits-galactic-spdgcs-contracts/governence/gameProfitsGalacticNetworkSettings.sol\":9403:10243  if(gameprofitsNetworkSettings.gamesKillSwitch==false){... */\n    tag_155:\n        /* \"gameprofits-galactic-spdgcs-contracts/governence/gameProfitsGalacticNetworkSettings.sol\":9260:10286  function switchgamesKillSwitch(... */\n      jump\t// out\n        /* \"gameprofits-galactic-spdgcs-contracts/governence/gameProfitsGalacticNetworkSettings.sol\":6316:6584  function switchgameprofitsFairPlaySettings(address newSetting... */\n    tag_67:\n        /* \"gameprofits-galactic-spdgcs-contracts/governence/gameProfitsGalacticNetworkSettings.sol\":10343:10348  owner */\n      0x00\n      dup1\n      sload\n      swap1\n      0x0100\n      exp\n      swap1\n      div\n      0xffffffffffffffffffffffffffffffffffffffff\n      and\n        /* \"gameprofits-galactic-spdgcs-contracts/governence/gameProfitsGalacticNetworkSettings.sol\":10329:10348  msg.sender == owner */\n      0xffffffffffffffffffffffffffffffffffffffff\n      and\n        /* \"gameprofits-galactic-spdgcs-contracts/governence/gameProfitsGalacticNetworkSettings.sol\":10329:10339  msg.sender */\n      caller\n        /* \"gameprofits-galactic-spdgcs-contracts/governence/gameProfitsGalacticNetworkSettings.sol\":10329:10348  msg.sender == owner */\n      0xffffffffffffffffffffffffffffffffffffffff\n      and\n      eq\n        /* \"gameprofits-galactic-spdgcs-contracts/governence/gameProfitsGalacticNetworkSettings.sol\":10320:10349  require (msg.sender == owner) */\n      tag_158\n      jumpi\n      0x00\n      dup1\n      revert\n    tag_158:\n        /* \"gameprofits-galactic-spdgcs-contracts/governence/gameProfitsGalacticNetworkSettings.sol\":6531:6541  newSetting */\n      dup1\n        /* \"gameprofits-galactic-spdgcs-contracts/governence/gameProfitsGalacticNetworkSettings.sol\":6474:6500  gameprofitsNetworkSettings */\n      0x01\n        /* \"gameprofits-galactic-spdgcs-contracts/governence/gameProfitsGalacticNetworkSettings.sol\":6474:6528  gameprofitsNetworkSettings.gameprofitsFairPlaySettings */\n      0x06\n      add\n      0x00\n        /* \"gameprofits-galactic-spdgcs-contracts/governence/gameProfitsGalacticNetworkSettings.sol\":6474:6541  gameprofitsNetworkSettings.gameprofitsFairPlaySettings = newSetting */\n      0x0100\n      exp\n      dup2\n      sload\n      dup2\n      0xffffffffffffffffffffffffffffffffffffffff\n      mul\n      not\n      and\n      swap1\n      dup4\n      0xffffffffffffffffffffffffffffffffffffffff\n      and\n      mul\n      or\n      swap1\n      sstore\n      pop\n        /* \"gameprofits-galactic-spdgcs-contracts/governence/gameProfitsGalacticNetworkSettings.sol\":6316:6584  function switchgameprofitsFairPlaySettings(address newSetting... */\n      pop\n      jump\t// out\n        /* \"gameprofits-galactic-spdgcs-contracts/governence/gameProfitsGalacticNetworkSettings.sol\":1554:1738  function isgamesAreOn() public view returns (bool) {... */\n    tag_69:\n        /* \"gameprofits-galactic-spdgcs-contracts/governence/gameProfitsGalacticNetworkSettings.sol\":1599:1603  bool */\n      0x00\n        /* \"gameprofits-galactic-spdgcs-contracts/governence/gameProfitsGalacticNetworkSettings.sol\":1616:1658  gameprofitsSettings storage networksetting */\n      dup1\n        /* \"gameprofits-galactic-spdgcs-contracts/governence/gameProfitsGalacticNetworkSettings.sol\":1661:1687  gameprofitsNetworkSettings */\n      0x01\n        /* \"gameprofits-galactic-spdgcs-contracts/governence/gameProfitsGalacticNetworkSettings.sol\":1616:1687  gameprofitsSettings storage networksetting = gameprofitsNetworkSettings */\n      swap1\n      pop\n        /* \"gameprofits-galactic-spdgcs-contracts/governence/gameProfitsGalacticNetworkSettings.sol\":1705:1719  networksetting */\n      dup1\n        /* \"gameprofits-galactic-spdgcs-contracts/governence/gameProfitsGalacticNetworkSettings.sol\":1705:1730  networksetting.gamesAreOn */\n      0x00\n      add\n      0x01\n      swap1\n      sload\n      swap1\n      0x0100\n      exp\n      swap1\n      div\n      0xff\n      and\n        /* \"gameprofits-galactic-spdgcs-contracts/governence/gameProfitsGalacticNetworkSettings.sol\":1698:1730  return networksetting.gamesAreOn */\n      swap2\n      pop\n      pop\n        /* \"gameprofits-galactic-spdgcs-contracts/governence/gameProfitsGalacticNetworkSettings.sol\":1554:1738  function isgamesAreOn() public view returns (bool) {... */\n      swap1\n      jump\t// out\n        /* \"gameprofits-galactic-spdgcs-contracts/governence/gameProfitsGalacticNetworkSettings.sol\":3507:3738  function gameprofitsMetaVerseUniverseItems() public view returns (address) {... */\n    tag_72:\n        /* \"gameprofits-galactic-spdgcs-contracts/governence/gameProfitsGalacticNetworkSettings.sol\":3573:3580  address */\n      0x00\n        /* \"gameprofits-galactic-spdgcs-contracts/governence/gameProfitsGalacticNetworkSettings.sol\":3593:3635  gameprofitsSettings storage networksetting */\n      dup1\n        /* \"gameprofits-galactic-spdgcs-contracts/governence/gameProfitsGalacticNetworkSettings.sol\":3638:3664  gameprofitsNetworkSettings */\n      0x01\n        /* \"gameprofits-galactic-spdgcs-contracts/governence/gameProfitsGalacticNetworkSettings.sol\":3593:3664  gameprofitsSettings storage networksetting = gameprofitsNetworkSettings */\n      swap1\n      pop\n        /* \"gameprofits-galactic-spdgcs-contracts/governence/gameProfitsGalacticNetworkSettings.sol\":3682:3696  networksetting */\n      dup1\n        /* \"gameprofits-galactic-spdgcs-contracts/governence/gameProfitsGalacticNetworkSettings.sol\":3682:3730  networksetting.gameprofitsMetaVerseUniverseItems */\n      0x05\n      add\n      0x00\n      swap1\n      sload\n      swap1\n      0x0100\n      exp\n      swap1\n      div\n      0xffffffffffffffffffffffffffffffffffffffff\n      and\n        /* \"gameprofits-galactic-spdgcs-contracts/governence/gameProfitsGalacticNetworkSettings.sol\":3675:3730  return networksetting.gameprofitsMetaVerseUniverseItems */\n      swap2\n      pop\n      pop\n        /* \"gameprofits-galactic-spdgcs-contracts/governence/gameProfitsGalacticNetworkSettings.sol\":3507:3738  function gameprofitsMetaVerseUniverseItems() public view returns (address) {... */\n      swap1\n      jump\t// out\n        /* \"gameprofits-galactic-spdgcs-contracts/governence/gameProfitsGalacticNetworkSettings.sol\":2581:2804  function gameprofitsExperimentSettings() public view returns (address) {... */\n    tag_75:\n        /* \"gameprofits-galactic-spdgcs-contracts/governence/gameProfitsGalacticNetworkSettings.sol\":2643:2650  address */\n      0x00\n        /* \"gameprofits-galactic-spdgcs-contracts/governence/gameProfitsGalacticNetworkSettings.sol\":2663:2705  gameprofitsSettings storage networksetting */\n      dup1\n        /* \"gameprofits-galactic-spdgcs-contracts/governence/gameProfitsGalacticNetworkSettings.sol\":2708:2734  gameprofitsNetworkSettings */\n      0x01\n        /* \"gameprofits-galactic-spdgcs-contracts/governence/gameProfitsGalacticNetworkSettings.sol\":2663:2734  gameprofitsSettings storage networksetting = gameprofitsNetworkSettings */\n      swap1\n      pop\n        /* \"gameprofits-galactic-spdgcs-contracts/governence/gameProfitsGalacticNetworkSettings.sol\":2752:2766  networksetting */\n      dup1\n        /* \"gameprofits-galactic-spdgcs-contracts/governence/gameProfitsGalacticNetworkSettings.sol\":2752:2796  networksetting.gameprofitsExperimentSettings */\n      0x01\n      add\n      0x00\n      swap1\n      sload\n      swap1\n      0x0100\n      exp\n      swap1\n      div\n      0xffffffffffffffffffffffffffffffffffffffff\n      and\n        /* \"gameprofits-galactic-spdgcs-contracts/governence/gameProfitsGalacticNetworkSettings.sol\":2745:2796  return networksetting.gameprofitsExperimentSettings */\n      swap2\n      pop\n      pop\n        /* \"gameprofits-galactic-spdgcs-contracts/governence/gameProfitsGalacticNetworkSettings.sol\":2581:2804  function gameprofitsExperimentSettings() public view returns (address) {... */\n      swap1\n      jump\t// out\n        /* \"gameprofits-galactic-spdgcs-contracts/governence/gameProfitsGalacticNetworkSettings.sol\":1744:1946  function isgamesAreDeactivated() public view returns (bool) {... */\n    tag_78:\n        /* \"gameprofits-galactic-spdgcs-contracts/governence/gameProfitsGalacticNetworkSettings.sol\":1798:1802  bool */\n      0x00\n        /* \"gameprofits-galactic-spdgcs-contracts/governence/gameProfitsGalacticNetworkSettings.sol\":1815:1857  gameprofitsSettings storage networksetting */\n      dup1\n        /* \"gameprofits-galactic-spdgcs-contracts/governence/gameProfitsGalacticNetworkSettings.sol\":1860:1886  gameprofitsNetworkSettings */\n      0x01\n        /* \"gameprofits-galactic-spdgcs-contracts/governence/gameProfitsGalacticNetworkSettings.sol\":1815:1886  gameprofitsSettings storage networksetting = gameprofitsNetworkSettings */\n      swap1\n      pop\n        /* \"gameprofits-galactic-spdgcs-contracts/governence/gameProfitsGalacticNetworkSettings.sol\":1904:1918  networksetting */\n      dup1\n        /* \"gameprofits-galactic-spdgcs-contracts/governence/gameProfitsGalacticNetworkSettings.sol\":1904:1938  networksetting.gamesAreDeactivated */\n      0x00\n      add\n      0x02\n      swap1\n      sload\n      swap1\n      0x0100\n      exp\n      swap1\n      div\n      0xff\n      and\n        /* \"gameprofits-galactic-spdgcs-contracts/governence/gameProfitsGalacticNetworkSettings.sol\":1897:1938  return networksetting.gamesAreDeactivated */\n      swap2\n      pop\n      pop\n        /* \"gameprofits-galactic-spdgcs-contracts/governence/gameProfitsGalacticNetworkSettings.sol\":1744:1946  function isgamesAreDeactivated() public view returns (bool) {... */\n      swap1\n      jump\t// out\n        /* \"gameprofits-galactic-spdgcs-contracts/governence/gameProfitsGalacticNetworkSettings.sol\":7142:7436  function switchgameprofitsPremiumExchangeTraderSettings(address newSetting... */\n    tag_82:\n        /* \"gameprofits-galactic-spdgcs-contracts/governence/gameProfitsGalacticNetworkSettings.sol\":10343:10348  owner */\n      0x00\n      dup1\n      sload\n      swap1\n      0x0100\n      exp\n      swap1\n      div\n      0xffffffffffffffffffffffffffffffffffffffff\n      and\n        /* \"gameprofits-galactic-spdgcs-contracts/governence/gameProfitsGalacticNetworkSettings.sol\":10329:10348  msg.sender == owner */\n      0xffffffffffffffffffffffffffffffffffffffff\n      and\n        /* \"gameprofits-galactic-spdgcs-contracts/governence/gameProfitsGalacticNetworkSettings.sol\":10329:10339  msg.sender */\n      caller\n        /* \"gameprofits-galactic-spdgcs-contracts/governence/gameProfitsGalacticNetworkSettings.sol\":10329:10348  msg.sender == owner */\n      0xffffffffffffffffffffffffffffffffffffffff\n      and\n      eq\n        /* \"gameprofits-galactic-spdgcs-contracts/governence/gameProfitsGalacticNetworkSettings.sol\":10320:10349  require (msg.sender == owner) */\n      tag_165\n      jumpi\n      0x00\n      dup1\n      revert\n    tag_165:\n        /* \"gameprofits-galactic-spdgcs-contracts/governence/gameProfitsGalacticNetworkSettings.sol\":7383:7393  newSetting */\n      dup1\n        /* \"gameprofits-galactic-spdgcs-contracts/governence/gameProfitsGalacticNetworkSettings.sol\":7313:7339  gameprofitsNetworkSettings */\n      0x01\n        /* \"gameprofits-galactic-spdgcs-contracts/governence/gameProfitsGalacticNetworkSettings.sol\":7313:7380  gameprofitsNetworkSettings.gameprofitsPremiumExchangeTraderSettings */\n      0x09\n      add\n      0x00\n        /* \"gameprofits-galactic-spdgcs-contracts/governence/gameProfitsGalacticNetworkSettings.sol\":7313:7393  gameprofitsNetworkSettings.gameprofitsPremiumExchangeTraderSettings = newSetting */\n      0x0100\n      exp\n      dup2\n      sload\n      dup2\n      0xffffffffffffffffffffffffffffffffffffffff\n      mul\n      not\n      and\n      swap1\n      dup4\n      0xffffffffffffffffffffffffffffffffffffffff\n      and\n      mul\n      or\n      swap1\n      sstore\n      pop\n        /* \"gameprofits-galactic-spdgcs-contracts/governence/gameProfitsGalacticNetworkSettings.sol\":7142:7436  function switchgameprofitsPremiumExchangeTraderSettings(address newSetting... */\n      pop\n      jump\t// out\n        /* \"gameprofits-galactic-spdgcs-contracts/governence/gameProfitsGalacticNetworkSettings.sol\":6588:6858  function switchgameprofitsFairValueSettings(address newSetting... */\n    tag_85:\n        /* \"gameprofits-galactic-spdgcs-contracts/governence/gameProfitsGalacticNetworkSettings.sol\":10343:10348  owner */\n      0x00\n      dup1\n      sload\n      swap1\n      0x0100\n      exp\n      swap1\n      div\n      0xffffffffffffffffffffffffffffffffffffffff\n      and\n        /* \"gameprofits-galactic-spdgcs-contracts/governence/gameProfitsGalacticNetworkSettings.sol\":10329:10348  msg.sender == owner */\n      0xffffffffffffffffffffffffffffffffffffffff\n      and\n        /* \"gameprofits-galactic-spdgcs-contracts/governence/gameProfitsGalacticNetworkSettings.sol\":10329:10339  msg.sender */\n      caller\n        /* \"gameprofits-galactic-spdgcs-contracts/governence/gameProfitsGalacticNetworkSettings.sol\":10329:10348  msg.sender == owner */\n      0xffffffffffffffffffffffffffffffffffffffff\n      and\n      eq\n        /* \"gameprofits-galactic-spdgcs-contracts/governence/gameProfitsGalacticNetworkSettings.sol\":10320:10349  require (msg.sender == owner) */\n      tag_168\n      jumpi\n      0x00\n      dup1\n      revert\n    tag_168:\n        /* \"gameprofits-galactic-spdgcs-contracts/governence/gameProfitsGalacticNetworkSettings.sol\":6805:6815  newSetting */\n      dup1\n        /* \"gameprofits-galactic-spdgcs-contracts/governence/gameProfitsGalacticNetworkSettings.sol\":6747:6773  gameprofitsNetworkSettings */\n      0x01\n        /* \"gameprofits-galactic-spdgcs-contracts/governence/gameProfitsGalacticNetworkSettings.sol\":6747:6802  gameprofitsNetworkSettings.gameprofitsFairValueSettings */\n      0x07\n      add\n      0x00\n        /* \"gameprofits-galactic-spdgcs-contracts/governence/gameProfitsGalacticNetworkSettings.sol\":6747:6815  gameprofitsNetworkSettings.gameprofitsFairValueSettings = newSetting */\n      0x0100\n      exp\n      dup2\n      sload\n      dup2\n      0xffffffffffffffffffffffffffffffffffffffff\n      mul\n      not\n      and\n      swap1\n      dup4\n      0xffffffffffffffffffffffffffffffffffffffff\n      and\n      mul\n      or\n      swap1\n      sstore\n      pop\n        /* \"gameprofits-galactic-spdgcs-contracts/governence/gameProfitsGalacticNetworkSettings.sol\":6588:6858  function switchgameprofitsFairValueSettings(address newSetting... */\n      pop\n      jump\t// out\n        /* \"gameprofits-galactic-spdgcs-contracts/governence/gameProfitsGalacticNetworkSettings.sol\":4195:4422  function gameprofitsFairSoulsActSettings() public view returns (address) {... */\n    tag_87:\n        /* \"gameprofits-galactic-spdgcs-contracts/governence/gameProfitsGalacticNetworkSettings.sol\":4259:4266  address */\n      0x00\n        /* \"gameprofits-galactic-spdgcs-contracts/governence/gameProfitsGalacticNetworkSettings.sol\":4279:4321  gameprofitsSettings storage networksetting */\n      dup1\n        /* \"gameprofits-galactic-spdgcs-contracts/governence/gameProfitsGalacticNetworkSettings.sol\":4324:4350  gameprofitsNetworkSettings */\n      0x01\n        /* \"gameprofits-galactic-spdgcs-contracts/governence/gameProfitsGalacticNetworkSettings.sol\":4279:4350  gameprofitsSettings storage networksetting = gameprofitsNetworkSettings */\n      swap1\n      pop\n        /* \"gameprofits-galactic-spdgcs-contracts/governence/gameProfitsGalacticNetworkSettings.sol\":4368:4382  networksetting */\n      dup1\n        /* \"gameprofits-galactic-spdgcs-contracts/governence/gameProfitsGalacticNetworkSettings.sol\":4368:4414  networksetting.gameprofitsFairSoulsActSettings */\n      0x08\n      add\n      0x00\n      swap1\n      sload\n      swap1\n      0x0100\n      exp\n      swap1\n      div\n      0xffffffffffffffffffffffffffffffffffffffff\n      and\n        /* \"gameprofits-galactic-spdgcs-contracts/governence/gameProfitsGalacticNetworkSettings.sol\":4361:4414  return networksetting.gameprofitsFairSoulsActSettings */\n      swap2\n      pop\n      pop\n        /* \"gameprofits-galactic-spdgcs-contracts/governence/gameProfitsGalacticNetworkSettings.sol\":4195:4422  function gameprofitsFairSoulsActSettings() public view returns (address) {... */\n      swap1\n      jump\t// out\n        /* \"gameprofits-galactic-spdgcs-contracts/governence/gameProfitsGalacticNetworkSettings.sol\":6862:7138  function switchgameprofitsFairSoulsActSettings(address newSetting... */\n    tag_91:\n        /* \"gameprofits-galactic-spdgcs-contracts/governence/gameProfitsGalacticNetworkSettings.sol\":10343:10348  owner */\n      0x00\n      dup1\n      sload\n      swap1\n      0x0100\n      exp\n      swap1\n      div\n      0xffffffffffffffffffffffffffffffffffffffff\n      and\n        /* \"gameprofits-galactic-spdgcs-contracts/governence/gameProfitsGalacticNetworkSettings.sol\":10329:10348  msg.sender == owner */\n      0xffffffffffffffffffffffffffffffffffffffff\n      and\n        /* \"gameprofits-galactic-spdgcs-contracts/governence/gameProfitsGalacticNetworkSettings.sol\":10329:10339  msg.sender */\n      caller\n        /* \"gameprofits-galactic-spdgcs-contracts/governence/gameProfitsGalacticNetworkSettings.sol\":10329:10348  msg.sender == owner */\n      0xffffffffffffffffffffffffffffffffffffffff\n      and\n      eq\n        /* \"gameprofits-galactic-spdgcs-contracts/governence/gameProfitsGalacticNetworkSettings.sol\":10320:10349  require (msg.sender == owner) */\n      tag_172\n      jumpi\n      0x00\n      dup1\n      revert\n    tag_172:\n        /* \"gameprofits-galactic-spdgcs-contracts/governence/gameProfitsGalacticNetworkSettings.sol\":7085:7095  newSetting */\n      dup1\n        /* \"gameprofits-galactic-spdgcs-contracts/governence/gameProfitsGalacticNetworkSettings.sol\":7024:7050  gameprofitsNetworkSettings */\n      0x01\n        /* \"gameprofits-galactic-spdgcs-contracts/governence/gameProfitsGalacticNetworkSettings.sol\":7024:7082  gameprofitsNetworkSettings.gameprofitsFairSoulsActSettings */\n      0x08\n      add\n      0x00\n        /* \"gameprofits-galactic-spdgcs-contracts/governence/gameProfitsGalacticNetworkSettings.sol\":7024:7095  gameprofitsNetworkSettings.gameprofitsFairSoulsActSettings = newSetting */\n      0x0100\n      exp\n      dup2\n      sload\n      dup2\n      0xffffffffffffffffffffffffffffffffffffffff\n      mul\n      not\n      and\n      swap1\n      dup4\n      0xffffffffffffffffffffffffffffffffffffffff\n      and\n      mul\n      or\n      swap1\n      sstore\n      pop\n        /* \"gameprofits-galactic-spdgcs-contracts/governence/gameProfitsGalacticNetworkSettings.sol\":6862:7138  function switchgameprofitsFairSoulsActSettings(address newSetting... */\n      pop\n      jump\t// out\n        /* \"gameprofits-galactic-spdgcs-contracts/governence/gameProfitsGalacticNetworkSettings.sol\":8992:9258  function switchgamesAreCoolingDown(... */\n    tag_93:\n        /* \"gameprofits-galactic-spdgcs-contracts/governence/gameProfitsGalacticNetworkSettings.sol\":10343:10348  owner */\n      0x00\n      dup1\n      sload\n      swap1\n      0x0100\n      exp\n      swap1\n      div\n      0xffffffffffffffffffffffffffffffffffffffff\n      and\n        /* \"gameprofits-galactic-spdgcs-contracts/governence/gameProfitsGalacticNetworkSettings.sol\":10329:10348  msg.sender == owner */\n      0xffffffffffffffffffffffffffffffffffffffff\n      and\n        /* \"gameprofits-galactic-spdgcs-contracts/governence/gameProfitsGalacticNetworkSettings.sol\":10329:10339  msg.sender */\n      caller\n        /* \"gameprofits-galactic-spdgcs-contracts/governence/gameProfitsGalacticNetworkSettings.sol\":10329:10348  msg.sender == owner */\n      0xffffffffffffffffffffffffffffffffffffffff\n      and\n      eq\n        /* \"gameprofits-galactic-spdgcs-contracts/governence/gameProfitsGalacticNetworkSettings.sol\":10320:10349  require (msg.sender == owner) */\n      tag_175\n      jumpi\n      0x00\n      dup1\n      revert\n    tag_175:\n        /* \"gameprofits-galactic-spdgcs-contracts/governence/gameProfitsGalacticNetworkSettings.sol\":9194:9220  gameprofitsNetworkSettings */\n      0x01\n        /* \"gameprofits-galactic-spdgcs-contracts/governence/gameProfitsGalacticNetworkSettings.sol\":9194:9240  gameprofitsNetworkSettings.gamesAreCoolingDown */\n      0x00\n      add\n      0x03\n      swap1\n      sload\n      swap1\n      0x0100\n      exp\n      swap1\n      div\n      0xff\n      and\n        /* \"gameprofits-galactic-spdgcs-contracts/governence/gameProfitsGalacticNetworkSettings.sol\":9193:9240  !gameprofitsNetworkSettings.gamesAreCoolingDown */\n      iszero\n        /* \"gameprofits-galactic-spdgcs-contracts/governence/gameProfitsGalacticNetworkSettings.sol\":9144:9170  gameprofitsNetworkSettings */\n      0x01\n        /* \"gameprofits-galactic-spdgcs-contracts/governence/gameProfitsGalacticNetworkSettings.sol\":9144:9190  gameprofitsNetworkSettings.gamesAreCoolingDown */\n      0x00\n      add\n      0x03\n        /* \"gameprofits-galactic-spdgcs-contracts/governence/gameProfitsGalacticNetworkSettings.sol\":9144:9240  gameprofitsNetworkSettings.gamesAreCoolingDown = !gameprofitsNetworkSettings.gamesAreCoolingDown */\n      0x0100\n      exp\n      dup2\n      sload\n      dup2\n      0xff\n      mul\n      not\n      and\n      swap1\n      dup4\n      iszero\n      iszero\n      mul\n      or\n      swap1\n      sstore\n      pop\n        /* \"gameprofits-galactic-spdgcs-contracts/governence/gameProfitsGalacticNetworkSettings.sol\":8992:9258  function switchgamesAreCoolingDown(... */\n      jump\t// out\n        /* \"gameprofits-galactic-spdgcs-contracts/governence/gameProfitsGalacticNetworkSettings.sol\":7726:7992  function switchgameprofitsfinanceSettings(address newSetting... */\n    tag_96:\n        /* \"gameprofits-galactic-spdgcs-contracts/governence/gameProfitsGalacticNetworkSettings.sol\":10343:10348  owner */\n      0x00\n      dup1\n      sload\n      swap1\n      0x0100\n      exp\n      swap1\n      div\n      0xffffffffffffffffffffffffffffffffffffffff\n      and\n        /* \"gameprofits-galactic-spdgcs-contracts/governence/gameProfitsGalacticNetworkSettings.sol\":10329:10348  msg.sender == owner */\n      0xffffffffffffffffffffffffffffffffffffffff\n      and\n        /* \"gameprofits-galactic-spdgcs-contracts/governence/gameProfitsGalacticNetworkSettings.sol\":10329:10339  msg.sender */\n      caller\n        /* \"gameprofits-galactic-spdgcs-contracts/governence/gameProfitsGalacticNetworkSettings.sol\":10329:10348  msg.sender == owner */\n      0xffffffffffffffffffffffffffffffffffffffff\n      and\n      eq\n        /* \"gameprofits-galactic-spdgcs-contracts/governence/gameProfitsGalacticNetworkSettings.sol\":10320:10349  require (msg.sender == owner) */\n      tag_178\n      jumpi\n      0x00\n      dup1\n      revert\n    tag_178:\n        /* \"gameprofits-galactic-spdgcs-contracts/governence/gameProfitsGalacticNetworkSettings.sol\":7939:7949  newSetting */\n      dup1\n        /* \"gameprofits-galactic-spdgcs-contracts/governence/gameProfitsGalacticNetworkSettings.sol\":7883:7909  gameprofitsNetworkSettings */\n      0x01\n        /* \"gameprofits-galactic-spdgcs-contracts/governence/gameProfitsGalacticNetworkSettings.sol\":7883:7936  gameprofitsNetworkSettings.gameprofitsfinanceSettings */\n      0x00\n      add\n      0x05\n        /* \"gameprofits-galactic-spdgcs-contracts/governence/gameProfitsGalacticNetworkSettings.sol\":7883:7949  gameprofitsNetworkSettings.gameprofitsfinanceSettings = newSetting */\n      0x0100\n      exp\n      dup2\n      sload\n      dup2\n      0xffffffffffffffffffffffffffffffffffffffff\n      mul\n      not\n      and\n      swap1\n      dup4\n      0xffffffffffffffffffffffffffffffffffffffff\n      and\n      mul\n      or\n      swap1\n      sstore\n      pop\n        /* \"gameprofits-galactic-spdgcs-contracts/governence/gameProfitsGalacticNetworkSettings.sol\":7726:7992  function switchgameprofitsfinanceSettings(address newSetting... */\n      pop\n      jump\t// out\n        /* \"gameprofits-galactic-spdgcs-contracts/governence/gameProfitsGalacticNetworkSettings.sol\":8221:8481  function switchgameNetworkActive(... */\n    tag_98:\n        /* \"gameprofits-galactic-spdgcs-contracts/governence/gameProfitsGalacticNetworkSettings.sol\":10343:10348  owner */\n      0x00\n      dup1\n      sload\n      swap1\n      0x0100\n      exp\n      swap1\n      div\n      0xffffffffffffffffffffffffffffffffffffffff\n      and\n        /* \"gameprofits-galactic-spdgcs-contracts/governence/gameProfitsGalacticNetworkSettings.sol\":10329:10348  msg.sender == owner */\n      0xffffffffffffffffffffffffffffffffffffffff\n      and\n        /* \"gameprofits-galactic-spdgcs-contracts/governence/gameProfitsGalacticNetworkSettings.sol\":10329:10339  msg.sender */\n      caller\n        /* \"gameprofits-galactic-spdgcs-contracts/governence/gameProfitsGalacticNetworkSettings.sol\":10329:10348  msg.sender == owner */\n      0xffffffffffffffffffffffffffffffffffffffff\n      and\n      eq\n        /* \"gameprofits-galactic-spdgcs-contracts/governence/gameProfitsGalacticNetworkSettings.sol\":10320:10349  require (msg.sender == owner) */\n      tag_181\n      jumpi\n      0x00\n      dup1\n      revert\n    tag_181:\n        /* \"gameprofits-galactic-spdgcs-contracts/governence/gameProfitsGalacticNetworkSettings.sol\":8419:8445  gameprofitsNetworkSettings */\n      0x01\n        /* \"gameprofits-galactic-spdgcs-contracts/governence/gameProfitsGalacticNetworkSettings.sol\":8419:8463  gameprofitsNetworkSettings.gameNetworkActive */\n      0x00\n      add\n      0x00\n      swap1\n      sload\n      swap1\n      0x0100\n      exp\n      swap1\n      div\n      0xff\n      and\n        /* \"gameprofits-galactic-spdgcs-contracts/governence/gameProfitsGalacticNetworkSettings.sol\":8418:8463  !gameprofitsNetworkSettings.gameNetworkActive */\n      iszero\n        /* \"gameprofits-galactic-spdgcs-contracts/governence/gameProfitsGalacticNetworkSettings.sol\":8371:8397  gameprofitsNetworkSettings */\n      0x01\n        /* \"gameprofits-galactic-spdgcs-contracts/governence/gameProfitsGalacticNetworkSettings.sol\":8371:8415  gameprofitsNetworkSettings.gameNetworkActive */\n      0x00\n      add\n      0x00\n        /* \"gameprofits-galactic-spdgcs-contracts/governence/gameProfitsGalacticNetworkSettings.sol\":8371:8463  gameprofitsNetworkSettings.gameNetworkActive = !gameprofitsNetworkSettings.gameNetworkActive */\n      0x0100\n      exp\n      dup2\n      sload\n      dup2\n      0xff\n      mul\n      not\n      and\n      swap1\n      dup4\n      iszero\n      iszero\n      mul\n      or\n      swap1\n      sstore\n      pop\n        /* \"gameprofits-galactic-spdgcs-contracts/governence/gameProfitsGalacticNetworkSettings.sol\":8221:8481  function switchgameNetworkActive(... */\n      jump\t// out\n        /* \"gameprofits-galactic-spdgcs-contracts/governence/gameProfitsGalacticNetworkSettings.sol\":2810:3035  function gameprofitsGoverenenceSettings() public view returns (address) {... */\n    tag_100:\n        /* \"gameprofits-galactic-spdgcs-contracts/governence/gameProfitsGalacticNetworkSettings.sol\":2873:2880  address */\n      0x00\n        /* \"gameprofits-galactic-spdgcs-contracts/governence/gameProfitsGalacticNetworkSettings.sol\":2893:2935  gameprofitsSettings storage networksetting */\n      dup1\n        /* \"gameprofits-galactic-spdgcs-contracts/governence/gameProfitsGalacticNetworkSettings.sol\":2938:2964  gameprofitsNetworkSettings */\n      0x01\n        /* \"gameprofits-galactic-spdgcs-contracts/governence/gameProfitsGalacticNetworkSettings.sol\":2893:2964  gameprofitsSettings storage networksetting = gameprofitsNetworkSettings */\n      swap1\n      pop\n        /* \"gameprofits-galactic-spdgcs-contracts/governence/gameProfitsGalacticNetworkSettings.sol\":2982:2996  networksetting */\n      dup1\n        /* \"gameprofits-galactic-spdgcs-contracts/governence/gameProfitsGalacticNetworkSettings.sol\":2982:3027  networksetting.gameprofitsGoverenenceSettings */\n      0x02\n      add\n      0x00\n      swap1\n      sload\n      swap1\n      0x0100\n      exp\n      swap1\n      div\n      0xffffffffffffffffffffffffffffffffffffffff\n      and\n        /* \"gameprofits-galactic-spdgcs-contracts/governence/gameProfitsGalacticNetworkSettings.sol\":2975:3027  return networksetting.gameprofitsGoverenenceSettings */\n      swap2\n      pop\n      pop\n        /* \"gameprofits-galactic-spdgcs-contracts/governence/gameProfitsGalacticNetworkSettings.sol\":2810:3035  function gameprofitsGoverenenceSettings() public view returns (address) {... */\n      swap1\n      jump\t// out\n        /* \"gameprofits-galactic-spdgcs-contracts/governence/gameProfitsGalacticNetworkSettings.sol\":2160:2354  function isgamesKillSwitch() public view returns (bool) {... */\n    tag_103:\n        /* \"gameprofits-galactic-spdgcs-contracts/governence/gameProfitsGalacticNetworkSettings.sol\":2210:2214  bool */\n      0x00\n        /* \"gameprofits-galactic-spdgcs-contracts/governence/gameProfitsGalacticNetworkSettings.sol\":2227:2269  gameprofitsSettings storage networksetting */\n      dup1\n        /* \"gameprofits-galactic-spdgcs-contracts/governence/gameProfitsGalacticNetworkSettings.sol\":2272:2298  gameprofitsNetworkSettings */\n      0x01\n        /* \"gameprofits-galactic-spdgcs-contracts/governence/gameProfitsGalacticNetworkSettings.sol\":2227:2298  gameprofitsSettings storage networksetting = gameprofitsNetworkSettings */\n      swap1\n      pop\n        /* \"gameprofits-galactic-spdgcs-contracts/governence/gameProfitsGalacticNetworkSettings.sol\":2316:2330  networksetting */\n      dup1\n        /* \"gameprofits-galactic-spdgcs-contracts/governence/gameProfitsGalacticNetworkSettings.sol\":2316:2346  networksetting.gamesKillSwitch */\n      0x00\n      add\n      0x04\n      swap1\n      sload\n      swap1\n      0x0100\n      exp\n      swap1\n      div\n      0xff\n      and\n        /* \"gameprofits-galactic-spdgcs-contracts/governence/gameProfitsGalacticNetworkSettings.sol\":2309:2346  return networksetting.gamesKillSwitch */\n      swap2\n      pop\n      pop\n        /* \"gameprofits-galactic-spdgcs-contracts/governence/gameProfitsGalacticNetworkSettings.sol\":2160:2354  function isgamesKillSwitch() public view returns (bool) {... */\n      swap1\n      jump\t// out\n        /* \"gameprofits-galactic-spdgcs-contracts/governence/gameProfitsGalacticNetworkSettings.sol\":3280:3501  function gameprofitsMetaVerseSettings() public view returns (address) {... */\n    tag_106:\n        /* \"gameprofits-galactic-spdgcs-contracts/governence/gameProfitsGalacticNetworkSettings.sol\":3341:3348  address */\n      0x00\n        /* \"gameprofits-galactic-spdgcs-contracts/governence/gameProfitsGalacticNetworkSettings.sol\":3361:3403  gameprofitsSettings storage networksetting */\n      dup1\n        /* \"gameprofits-galactic-spdgcs-contracts/governence/gameProfitsGalacticNetworkSettings.sol\":3406:3432  gameprofitsNetworkSettings */\n      0x01\n        /* \"gameprofits-galactic-spdgcs-contracts/governence/gameProfitsGalacticNetworkSettings.sol\":3361:3432  gameprofitsSettings storage networksetting = gameprofitsNetworkSettings */\n      swap1\n      pop\n        /* \"gameprofits-galactic-spdgcs-contracts/governence/gameProfitsGalacticNetworkSettings.sol\":3450:3464  networksetting */\n      dup1\n        /* \"gameprofits-galactic-spdgcs-contracts/governence/gameProfitsGalacticNetworkSettings.sol\":3450:3493  networksetting.gameprofitsMetaVerseSettings */\n      0x04\n      add\n      0x00\n      swap1\n      sload\n      swap1\n      0x0100\n      exp\n      swap1\n      div\n      0xffffffffffffffffffffffffffffffffffffffff\n      and\n        /* \"gameprofits-galactic-spdgcs-contracts/governence/gameProfitsGalacticNetworkSettings.sol\":3443:3493  return networksetting.gameprofitsMetaVerseSettings */\n      swap2\n      pop\n      pop\n        /* \"gameprofits-galactic-spdgcs-contracts/governence/gameProfitsGalacticNetworkSettings.sol\":3280:3501  function gameprofitsMetaVerseSettings() public view returns (address) {... */\n      swap1\n      jump\t// out\n        /* \"gameprofits-galactic-spdgcs-contracts/governence/gameProfitsGalacticNetworkSettings.sol\":3041:3274  function gameprofitsIchoroniumTableSettings() public view returns (address) {... */\n    tag_109:\n        /* \"gameprofits-galactic-spdgcs-contracts/governence/gameProfitsGalacticNetworkSettings.sol\":3108:3115  address */\n      0x00\n        /* \"gameprofits-galactic-spdgcs-contracts/governence/gameProfitsGalacticNetworkSettings.sol\":3128:3170  gameprofitsSettings storage networksetting */\n      dup1\n        /* \"gameprofits-galactic-spdgcs-contracts/governence/gameProfitsGalacticNetworkSettings.sol\":3173:3199  gameprofitsNetworkSettings */\n      0x01\n        /* \"gameprofits-galactic-spdgcs-contracts/governence/gameProfitsGalacticNetworkSettings.sol\":3128:3199  gameprofitsSettings storage networksetting = gameprofitsNetworkSettings */\n      swap1\n      pop\n        /* \"gameprofits-galactic-spdgcs-contracts/governence/gameProfitsGalacticNetworkSettings.sol\":3217:3231  networksetting */\n      dup1\n        /* \"gameprofits-galactic-spdgcs-contracts/governence/gameProfitsGalacticNetworkSettings.sol\":3217:3266  networksetting.gameprofitsIchoroniumTableSettings */\n      0x03\n      add\n      0x00\n      swap1\n      sload\n      swap1\n      0x0100\n      exp\n      swap1\n      div\n      0xffffffffffffffffffffffffffffffffffffffff\n      and\n        /* \"gameprofits-galactic-spdgcs-contracts/governence/gameProfitsGalacticNetworkSettings.sol\":3210:3266  return networksetting.gameprofitsIchoroniumTableSettings */\n      swap2\n      pop\n      pop\n        /* \"gameprofits-galactic-spdgcs-contracts/governence/gameProfitsGalacticNetworkSettings.sol\":3041:3274  function gameprofitsIchoroniumTableSettings() public view returns (address) {... */\n      swap1\n      jump\t// out\n        /* \"gameprofits-galactic-spdgcs-contracts/governence/gameProfitsGalacticNetworkSettings.sol\":7440:7724  function switchgameprofitsMasterVideoGamesSettings(address newSetting... */\n    tag_113:\n        /* \"gameprofits-galactic-spdgcs-contracts/governence/gameProfitsGalacticNetworkSettings.sol\":10343:10348  owner */\n      0x00\n      dup1\n      sload\n      swap1\n      0x0100\n      exp\n      swap1\n      div\n      0xffffffffffffffffffffffffffffffffffffffff\n      and\n        /* \"gameprofits-galactic-spdgcs-contracts/governence/gameProfitsGalacticNetworkSettings.sol\":10329:10348  msg.sender == owner */\n      0xffffffffffffffffffffffffffffffffffffffff\n      and\n        /* \"gameprofits-galactic-spdgcs-contracts/governence/gameProfitsGalacticNetworkSettings.sol\":10329:10339  msg.sender */\n      caller\n        /* \"gameprofits-galactic-spdgcs-contracts/governence/gameProfitsGalacticNetworkSettings.sol\":10329:10348  msg.sender == owner */\n      0xffffffffffffffffffffffffffffffffffffffff\n      and\n      eq\n        /* \"gameprofits-galactic-spdgcs-contracts/governence/gameProfitsGalacticNetworkSettings.sol\":10320:10349  require (msg.sender == owner) */\n      tag_188\n      jumpi\n      0x00\n      dup1\n      revert\n    tag_188:\n        /* \"gameprofits-galactic-spdgcs-contracts/governence/gameProfitsGalacticNetworkSettings.sol\":7671:7681  newSetting */\n      dup1\n        /* \"gameprofits-galactic-spdgcs-contracts/governence/gameProfitsGalacticNetworkSettings.sol\":7606:7632  gameprofitsNetworkSettings */\n      0x01\n        /* \"gameprofits-galactic-spdgcs-contracts/governence/gameProfitsGalacticNetworkSettings.sol\":7606:7668  gameprofitsNetworkSettings.gameprofitsMasterVideoGamesSettings */\n      0x0a\n      add\n      0x00\n        /* \"gameprofits-galactic-spdgcs-contracts/governence/gameProfitsGalacticNetworkSettings.sol\":7606:7681  gameprofitsNetworkSettings.gameprofitsMasterVideoGamesSettings = newSetting */\n      0x0100\n      exp\n      dup2\n      sload\n      dup2\n      0xffffffffffffffffffffffffffffffffffffffff\n      mul\n      not\n      and\n      swap1\n      dup4\n      0xffffffffffffffffffffffffffffffffffffffff\n      and\n      mul\n      or\n      swap1\n      sstore\n      pop\n        /* \"gameprofits-galactic-spdgcs-contracts/governence/gameProfitsGalacticNetworkSettings.sol\":7440:7724  function switchgameprofitsMasterVideoGamesSettings(address newSetting... */\n      pop\n      jump\t// out\n        /* \"gameprofits-galactic-spdgcs-contracts/governence/gameProfitsGalacticNetworkSettings.sol\":4679:4914  function gameprofitsMasterVideoGamesSettings() public view returns (address) {... */\n    tag_115:\n        /* \"gameprofits-galactic-spdgcs-contracts/governence/gameProfitsGalacticNetworkSettings.sol\":4747:4754  address */\n      0x00\n        /* \"gameprofits-galactic-spdgcs-contracts/governence/gameProfitsGalacticNetworkSettings.sol\":4767:4809  gameprofitsSettings storage networksetting */\n      dup1\n        /* \"gameprofits-galactic-spdgcs-contracts/governence/gameProfitsGalacticNetworkSettings.sol\":4812:4838  gameprofitsNetworkSettings */\n      0x01\n        /* \"gameprofits-galactic-spdgcs-contracts/governence/gameProfitsGalacticNetworkSettings.sol\":4767:4838  gameprofitsSettings storage networksetting = gameprofitsNetworkSettings */\n      swap1\n      pop\n        /* \"gameprofits-galactic-spdgcs-contracts/governence/gameProfitsGalacticNetworkSettings.sol\":4856:4870  networksetting */\n      dup1\n        /* \"gameprofits-galactic-spdgcs-contracts/governence/gameProfitsGalacticNetworkSettings.sol\":4856:4906  networksetting.gameprofitsMasterVideoGamesSettings */\n      0x0a\n      add\n      0x00\n      swap1\n      sload\n      swap1\n      0x0100\n      exp\n      swap1\n      div\n      0xffffffffffffffffffffffffffffffffffffffff\n      and\n        /* \"gameprofits-galactic-spdgcs-contracts/governence/gameProfitsGalacticNetworkSettings.sol\":4849:4906  return networksetting.gameprofitsMasterVideoGamesSettings */\n      swap2\n      pop\n      pop\n        /* \"gameprofits-galactic-spdgcs-contracts/governence/gameProfitsGalacticNetworkSettings.sol\":4679:4914  function gameprofitsMasterVideoGamesSettings() public view returns (address) {... */\n      swap1\n      jump\t// out\n        /* \"gameprofits-galactic-spdgcs-contracts/governence/gameProfitsGalacticNetworkSettings.sol\":6032:6312  function switchgameprofitsMetaVerseUniverseItems(address newSetting... */\n    tag_119:\n        /* \"gameprofits-galactic-spdgcs-contracts/governence/gameProfitsGalacticNetworkSettings.sol\":10343:10348  owner */\n      0x00\n      dup1\n      sload\n      swap1\n      0x0100\n      exp\n      swap1\n      div\n      0xffffffffffffffffffffffffffffffffffffffff\n      and\n        /* \"gameprofits-galactic-spdgcs-contracts/governence/gameProfitsGalacticNetworkSettings.sol\":10329:10348  msg.sender == owner */\n      0xffffffffffffffffffffffffffffffffffffffff\n      and\n        /* \"gameprofits-galactic-spdgcs-contracts/governence/gameProfitsGalacticNetworkSettings.sol\":10329:10339  msg.sender */\n      caller\n        /* \"gameprofits-galactic-spdgcs-contracts/governence/gameProfitsGalacticNetworkSettings.sol\":10329:10348  msg.sender == owner */\n      0xffffffffffffffffffffffffffffffffffffffff\n      and\n      eq\n        /* \"gameprofits-galactic-spdgcs-contracts/governence/gameProfitsGalacticNetworkSettings.sol\":10320:10349  require (msg.sender == owner) */\n      tag_192\n      jumpi\n      0x00\n      dup1\n      revert\n    tag_192:\n        /* \"gameprofits-galactic-spdgcs-contracts/governence/gameProfitsGalacticNetworkSettings.sol\":6259:6269  newSetting */\n      dup1\n        /* \"gameprofits-galactic-spdgcs-contracts/governence/gameProfitsGalacticNetworkSettings.sol\":6196:6222  gameprofitsNetworkSettings */\n      0x01\n        /* \"gameprofits-galactic-spdgcs-contracts/governence/gameProfitsGalacticNetworkSettings.sol\":6196:6256  gameprofitsNetworkSettings.gameprofitsMetaVerseUniverseItems */\n      0x05\n      add\n      0x00\n        /* \"gameprofits-galactic-spdgcs-contracts/governence/gameProfitsGalacticNetworkSettings.sol\":6196:6269  gameprofitsNetworkSettings.gameprofitsMetaVerseUniverseItems = newSetting */\n      0x0100\n      exp\n      dup2\n      sload\n      dup2\n      0xffffffffffffffffffffffffffffffffffffffff\n      mul\n      not\n      and\n      swap1\n      dup4\n      0xffffffffffffffffffffffffffffffffffffffff\n      and\n      mul\n      or\n      swap1\n      sstore\n      pop\n        /* \"gameprofits-galactic-spdgcs-contracts/governence/gameProfitsGalacticNetworkSettings.sol\":6032:6312  function switchgameprofitsMetaVerseUniverseItems(address newSetting... */\n      pop\n      jump\t// out\n        /* \"gameprofits-galactic-spdgcs-contracts/governence/gameProfitsGalacticNetworkSettings.sol\":4918:5190  function switchgameprofitsExperimentSettings(address newSetting... */\n    tag_122:\n        /* \"gameprofits-galactic-spdgcs-contracts/governence/gameProfitsGalacticNetworkSettings.sol\":10343:10348  owner */\n      0x00\n      dup1\n      sload\n      swap1\n      0x0100\n      exp\n      swap1\n      div\n      0xffffffffffffffffffffffffffffffffffffffff\n      and\n        /* \"gameprofits-galactic-spdgcs-contracts/governence/gameProfitsGalacticNetworkSettings.sol\":10329:10348  msg.sender == owner */\n      0xffffffffffffffffffffffffffffffffffffffff\n      and\n        /* \"gameprofits-galactic-spdgcs-contracts/governence/gameProfitsGalacticNetworkSettings.sol\":10329:10339  msg.sender */\n      caller\n        /* \"gameprofits-galactic-spdgcs-contracts/governence/gameProfitsGalacticNetworkSettings.sol\":10329:10348  msg.sender == owner */\n      0xffffffffffffffffffffffffffffffffffffffff\n      and\n      eq\n        /* \"gameprofits-galactic-spdgcs-contracts/governence/gameProfitsGalacticNetworkSettings.sol\":10320:10349  require (msg.sender == owner) */\n      tag_195\n      jumpi\n      0x00\n      dup1\n      revert\n    tag_195:\n        /* \"gameprofits-galactic-spdgcs-contracts/governence/gameProfitsGalacticNetworkSettings.sol\":5137:5147  newSetting */\n      dup1\n        /* \"gameprofits-galactic-spdgcs-contracts/governence/gameProfitsGalacticNetworkSettings.sol\":5078:5104  gameprofitsNetworkSettings */\n      0x01\n        /* \"gameprofits-galactic-spdgcs-contracts/governence/gameProfitsGalacticNetworkSettings.sol\":5078:5134  gameprofitsNetworkSettings.gameprofitsExperimentSettings */\n      dup1\n      add\n      0x00\n        /* \"gameprofits-galactic-spdgcs-contracts/governence/gameProfitsGalacticNetworkSettings.sol\":5078:5147  gameprofitsNetworkSettings.gameprofitsExperimentSettings = newSetting */\n      0x0100\n      exp\n      dup2\n      sload\n      dup2\n      0xffffffffffffffffffffffffffffffffffffffff\n      mul\n      not\n      and\n      swap1\n      dup4\n      0xffffffffffffffffffffffffffffffffffffffff\n      and\n      mul\n      or\n      swap1\n      sstore\n      pop\n        /* \"gameprofits-galactic-spdgcs-contracts/governence/gameProfitsGalacticNetworkSettings.sol\":4918:5190  function switchgameprofitsExperimentSettings(address newSetting... */\n      pop\n      jump\t// out\n        /* \"gameprofits-galactic-spdgcs-contracts/governence/gameProfitsGalacticNetworkSettings.sol\":5758:6028  function switchgameprofitsMetaVerseSettings(address newSetting... */\n    tag_125:\n        /* \"gameprofits-galactic-spdgcs-contracts/governence/gameProfitsGalacticNetworkSettings.sol\":10343:10348  owner */\n      0x00\n      dup1\n      sload\n      swap1\n      0x0100\n      exp\n      swap1\n      div\n      0xffffffffffffffffffffffffffffffffffffffff\n      and\n        /* \"gameprofits-galactic-spdgcs-contracts/governence/gameProfitsGalacticNetworkSettings.sol\":10329:10348  msg.sender == owner */\n      0xffffffffffffffffffffffffffffffffffffffff\n      and\n        /* \"gameprofits-galactic-spdgcs-contracts/governence/gameProfitsGalacticNetworkSettings.sol\":10329:10339  msg.sender */\n      caller\n        /* \"gameprofits-galactic-spdgcs-contracts/governence/gameProfitsGalacticNetworkSettings.sol\":10329:10348  msg.sender == owner */\n      0xffffffffffffffffffffffffffffffffffffffff\n      and\n      eq\n        /* \"gameprofits-galactic-spdgcs-contracts/governence/gameProfitsGalacticNetworkSettings.sol\":10320:10349  require (msg.sender == owner) */\n      tag_198\n      jumpi\n      0x00\n      dup1\n      revert\n    tag_198:\n        /* \"gameprofits-galactic-spdgcs-contracts/governence/gameProfitsGalacticNetworkSettings.sol\":5975:5985  newSetting */\n      dup1\n        /* \"gameprofits-galactic-spdgcs-contracts/governence/gameProfitsGalacticNetworkSettings.sol\":5917:5943  gameprofitsNetworkSettings */\n      0x01\n        /* \"gameprofits-galactic-spdgcs-contracts/governence/gameProfitsGalacticNetworkSettings.sol\":5917:5972  gameprofitsNetworkSettings.gameprofitsMetaVerseSettings */\n      0x04\n      add\n      0x00\n        /* \"gameprofits-galactic-spdgcs-contracts/governence/gameProfitsGalacticNetworkSettings.sol\":5917:5985  gameprofitsNetworkSettings.gameprofitsMetaVerseSettings = newSetting */\n      0x0100\n      exp\n      dup2\n      sload\n      dup2\n      0xffffffffffffffffffffffffffffffffffffffff\n      mul\n      not\n      and\n      swap1\n      dup4\n      0xffffffffffffffffffffffffffffffffffffffff\n      and\n      mul\n      or\n      swap1\n      sstore\n      pop\n        /* \"gameprofits-galactic-spdgcs-contracts/governence/gameProfitsGalacticNetworkSettings.sol\":5758:6028  function switchgameprofitsMetaVerseSettings(address newSetting... */\n      pop\n      jump\t// out\n        /* \"gameprofits-galactic-spdgcs-contracts/governence/gameProfitsGalacticNetworkSettings.sol\":2358:2575  function gameprofitsfinanceSettings() public view returns (address) {... */\n    tag_127:\n        /* \"gameprofits-galactic-spdgcs-contracts/governence/gameProfitsGalacticNetworkSettings.sol\":2417:2424  address */\n      0x00\n        /* \"gameprofits-galactic-spdgcs-contracts/governence/gameProfitsGalacticNetworkSettings.sol\":2437:2479  gameprofitsSettings storage networksetting */\n      dup1\n        /* \"gameprofits-galactic-spdgcs-contracts/governence/gameProfitsGalacticNetworkSettings.sol\":2482:2508  gameprofitsNetworkSettings */\n      0x01\n        /* \"gameprofits-galactic-spdgcs-contracts/governence/gameProfitsGalacticNetworkSettings.sol\":2437:2508  gameprofitsSettings storage networksetting = gameprofitsNetworkSettings */\n      swap1\n      pop\n        /* \"gameprofits-galactic-spdgcs-contracts/governence/gameProfitsGalacticNetworkSettings.sol\":2526:2540  networksetting */\n      dup1\n        /* \"gameprofits-galactic-spdgcs-contracts/governence/gameProfitsGalacticNetworkSettings.sol\":2526:2567  networksetting.gameprofitsfinanceSettings */\n      0x00\n      add\n      0x05\n      swap1\n      sload\n      swap1\n      0x0100\n      exp\n      swap1\n      div\n      0xffffffffffffffffffffffffffffffffffffffff\n      and\n        /* \"gameprofits-galactic-spdgcs-contracts/governence/gameProfitsGalacticNetworkSettings.sol\":2519:2567  return networksetting.gameprofitsfinanceSettings */\n      swap2\n      pop\n      pop\n        /* \"gameprofits-galactic-spdgcs-contracts/governence/gameProfitsGalacticNetworkSettings.sol\":2358:2575  function gameprofitsfinanceSettings() public view returns (address) {... */\n      swap1\n      jump\t// out\n        /* \"gameprofits-galactic-spdgcs-contracts/governence/gameProfitsGalacticNetworkSettings.sol\":8483:8722  function switchgamesAreOn(... */\n    tag_130:\n        /* \"gameprofits-galactic-spdgcs-contracts/governence/gameProfitsGalacticNetworkSettings.sol\":10343:10348  owner */\n      0x00\n      dup1\n      sload\n      swap1\n      0x0100\n      exp\n      swap1\n      div\n      0xffffffffffffffffffffffffffffffffffffffff\n      and\n        /* \"gameprofits-galactic-spdgcs-contracts/governence/gameProfitsGalacticNetworkSettings.sol\":10329:10348  msg.sender == owner */\n      0xffffffffffffffffffffffffffffffffffffffff\n      and\n        /* \"gameprofits-galactic-spdgcs-contracts/governence/gameProfitsGalacticNetworkSettings.sol\":10329:10339  msg.sender */\n      caller\n        /* \"gameprofits-galactic-spdgcs-contracts/governence/gameProfitsGalacticNetworkSettings.sol\":10329:10348  msg.sender == owner */\n      0xffffffffffffffffffffffffffffffffffffffff\n      and\n      eq\n        /* \"gameprofits-galactic-spdgcs-contracts/governence/gameProfitsGalacticNetworkSettings.sol\":10320:10349  require (msg.sender == owner) */\n      tag_202\n      jumpi\n      0x00\n      dup1\n      revert\n    tag_202:\n        /* \"gameprofits-galactic-spdgcs-contracts/governence/gameProfitsGalacticNetworkSettings.sol\":8667:8693  gameprofitsNetworkSettings */\n      0x01\n        /* \"gameprofits-galactic-spdgcs-contracts/governence/gameProfitsGalacticNetworkSettings.sol\":8667:8704  gameprofitsNetworkSettings.gamesAreOn */\n      0x00\n      add\n      0x01\n      swap1\n      sload\n      swap1\n      0x0100\n      exp\n      swap1\n      div\n      0xff\n      and\n        /* \"gameprofits-galactic-spdgcs-contracts/governence/gameProfitsGalacticNetworkSettings.sol\":8666:8704  !gameprofitsNetworkSettings.gamesAreOn */\n      iszero\n        /* \"gameprofits-galactic-spdgcs-contracts/governence/gameProfitsGalacticNetworkSettings.sol\":8626:8652  gameprofitsNetworkSettings */\n      0x01\n        /* \"gameprofits-galactic-spdgcs-contracts/governence/gameProfitsGalacticNetworkSettings.sol\":8626:8663  gameprofitsNetworkSettings.gamesAreOn */\n      0x00\n      add\n      0x01\n        /* \"gameprofits-galactic-spdgcs-contracts/governence/gameProfitsGalacticNetworkSettings.sol\":8626:8704  gameprofitsNetworkSettings.gamesAreOn = !gameprofitsNetworkSettings.gamesAreOn */\n      0x0100\n      exp\n      dup2\n      sload\n      dup2\n      0xff\n      mul\n      not\n      and\n      swap1\n      dup4\n      iszero\n      iszero\n      mul\n      or\n      swap1\n      sstore\n      pop\n        /* \"gameprofits-galactic-spdgcs-contracts/governence/gameProfitsGalacticNetworkSettings.sol\":8483:8722  function switchgamesAreOn(... */\n      jump\t// out\n        /* \"gameprofits-galactic-spdgcs-contracts/governence/gameProfitsGalacticNetworkSettings.sol\":3969:4190  function gameprofitsFairValueSettings() public view returns (address) {... */\n    tag_132:\n        /* \"gameprofits-galactic-spdgcs-contracts/governence/gameProfitsGalacticNetworkSettings.sol\":4030:4037  address */\n      0x00\n        /* \"gameprofits-galactic-spdgcs-contracts/governence/gameProfitsGalacticNetworkSettings.sol\":4050:4092  gameprofitsSettings storage networksetting */\n      dup1\n        /* \"gameprofits-galactic-spdgcs-contracts/governence/gameProfitsGalacticNetworkSettings.sol\":4095:4121  gameprofitsNetworkSettings */\n      0x01\n        /* \"gameprofits-galactic-spdgcs-contracts/governence/gameProfitsGalacticNetworkSettings.sol\":4050:4121  gameprofitsSettings storage networksetting = gameprofitsNetworkSettings */\n      swap1\n      pop\n        /* \"gameprofits-galactic-spdgcs-contracts/governence/gameProfitsGalacticNetworkSettings.sol\":4139:4153  networksetting */\n      dup1\n        /* \"gameprofits-galactic-spdgcs-contracts/governence/gameProfitsGalacticNetworkSettings.sol\":4139:4182  networksetting.gameprofitsFairValueSettings */\n      0x07\n      add\n      0x00\n      swap1\n      sload\n      swap1\n      0x0100\n      exp\n      swap1\n      div\n      0xffffffffffffffffffffffffffffffffffffffff\n      and\n        /* \"gameprofits-galactic-spdgcs-contracts/governence/gameProfitsGalacticNetworkSettings.sol\":4132:4182  return networksetting.gameprofitsFairValueSettings */\n      swap2\n      pop\n      pop\n        /* \"gameprofits-galactic-spdgcs-contracts/governence/gameProfitsGalacticNetworkSettings.sol\":3969:4190  function gameprofitsFairValueSettings() public view returns (address) {... */\n      swap1\n      jump\t// out\n        /* \"gameprofits-galactic-spdgcs-contracts/governence/gameProfitsGalacticNetworkSettings.sol\":7994:8217  function gameprofitsReturnSettings() public view returns (gameprofitsSettings memory networkSetting) {... */\n    tag_135:\n        /* \"gameprofits-galactic-spdgcs-contracts/governence/gameProfitsGalacticNetworkSettings.sol\":8052:8093  gameprofitsSettings memory networkSetting */\n      tag_205\n      tag_206\n      jump\t// in\n    tag_205:\n        /* \"gameprofits-galactic-spdgcs-contracts/governence/gameProfitsGalacticNetworkSettings.sol\":8106:8148  gameprofitsSettings storage networksetting */\n      0x00\n        /* \"gameprofits-galactic-spdgcs-contracts/governence/gameProfitsGalacticNetworkSettings.sol\":8151:8177  gameprofitsNetworkSettings */\n      0x01\n        /* \"gameprofits-galactic-spdgcs-contracts/governence/gameProfitsGalacticNetworkSettings.sol\":8106:8177  gameprofitsSettings storage networksetting = gameprofitsNetworkSettings */\n      swap1\n      pop\n        /* \"gameprofits-galactic-spdgcs-contracts/governence/gameProfitsGalacticNetworkSettings.sol\":8195:8209  networksetting */\n      dup1\n        /* \"gameprofits-galactic-spdgcs-contracts/governence/gameProfitsGalacticNetworkSettings.sol\":8188:8209  return networksetting */\n      mload(0x40)\n      dup1\n      0x0200\n      add\n      0x40\n      mstore\n      swap1\n      dup2\n      0x00\n      dup3\n      add\n      0x00\n      swap1\n      sload\n      swap1\n      0x0100\n      exp\n      swap1\n      div\n      0xff\n      and\n      iszero\n      iszero\n      iszero\n      iszero\n      dup2\n      mstore\n      0x20\n      add\n      0x00\n      dup3\n      add\n      0x01\n      swap1\n      sload\n      swap1\n      0x0100\n      exp\n      swap1\n      div\n      0xff\n      and\n      iszero\n      iszero\n      iszero\n      iszero\n      dup2\n      mstore\n      0x20\n      add\n      0x00\n      dup3\n      add\n      0x02\n      swap1\n      sload\n      swap1\n      0x0100\n      exp\n      swap1\n      div\n      0xff\n      and\n      iszero\n      iszero\n      iszero\n      iszero\n      dup2\n      mstore\n      0x20\n      add\n      0x00\n      dup3\n      add\n      0x03\n      swap1\n      sload\n      swap1\n      0x0100\n      exp\n      swap1\n      div\n      0xff\n      and\n      iszero\n      iszero\n      iszero\n      iszero\n      dup2\n      mstore\n      0x20\n      add\n      0x00\n      dup3\n      add\n      0x04\n      swap1\n      sload\n      swap1\n      0x0100\n      exp\n      swap1\n      div\n      0xff\n      and\n      iszero\n      iszero\n      iszero\n      iszero\n      dup2\n      mstore\n      0x20\n      add\n      0x00\n      dup3\n      add\n      0x05\n      swap1\n      sload\n      swap1\n      0x0100\n      exp\n      swap1\n      div\n      0xffffffffffffffffffffffffffffffffffffffff\n      and\n      0xffffffffffffffffffffffffffffffffffffffff\n      and\n      0xffffffffffffffffffffffffffffffffffffffff\n      and\n      dup2\n      mstore\n      0x20\n      add\n      0x01\n      dup3\n      add\n      0x00\n      swap1\n      sload\n      swap1\n      0x0100\n      exp\n      swap1\n      div\n      0xffffffffffffffffffffffffffffffffffffffff\n      and\n      0xffffffffffffffffffffffffffffffffffffffff\n      and\n      0xffffffffffffffffffffffffffffffffffffffff\n      and\n      dup2\n      mstore\n      0x20\n      add\n      0x02\n      dup3\n      add\n      0x00\n      swap1\n      sload\n      swap1\n      0x0100\n      exp\n      swap1\n      div\n      0xffffffffffffffffffffffffffffffffffffffff\n      and\n      0xffffffffffffffffffffffffffffffffffffffff\n      and\n      0xffffffffffffffffffffffffffffffffffffffff\n      and\n      dup2\n      mstore\n      0x20\n      add\n      0x03\n      dup3\n      add\n      0x00\n      swap1\n      sload\n      swap1\n      0x0100\n      exp\n      swap1\n      div\n      0xffffffffffffffffffffffffffffffffffffffff\n      and\n      0xffffffffffffffffffffffffffffffffffffffff\n      and\n      0xffffffffffffffffffffffffffffffffffffffff\n      and\n      dup2\n      mstore\n      0x20\n      add\n      0x04\n      dup3\n      add\n      0x00\n      swap1\n      sload\n      swap1\n      0x0100\n      exp\n      swap1\n      div\n      0xffffffffffffffffffffffffffffffffffffffff\n      and\n      0xffffffffffffffffffffffffffffffffffffffff\n      and\n      0xffffffffffffffffffffffffffffffffffffffff\n      and\n      dup2\n      mstore\n      0x20\n      add\n      0x05\n      dup3\n      add\n      0x00\n      swap1\n      sload\n      swap1\n      0x0100\n      exp\n      swap1\n      div\n      0xffffffffffffffffffffffffffffffffffffffff\n      and\n      0xffffffffffffffffffffffffffffffffffffffff\n      and\n      0xffffffffffffffffffffffffffffffffffffffff\n      and\n      dup2\n      mstore\n      0x20\n      add\n      0x06\n      dup3\n      add\n      0x00\n      swap1\n      sload\n      swap1\n      0x0100\n      exp\n      swap1\n      div\n      0xffffffffffffffffffffffffffffffffffffffff\n      and\n      0xffffffffffffffffffffffffffffffffffffffff\n      and\n      0xffffffffffffffffffffffffffffffffffffffff\n      and\n      dup2\n      mstore\n      0x20\n      add\n      0x07\n      dup3\n      add\n      0x00\n      swap1\n      sload\n      swap1\n      0x0100\n      exp\n      swap1\n      div\n      0xffffffffffffffffffffffffffffffffffffffff\n      and\n      0xffffffffffffffffffffffffffffffffffffffff\n      and\n      0xffffffffffffffffffffffffffffffffffffffff\n      and\n      dup2\n      mstore\n      0x20\n      add\n      0x08\n      dup3\n      add\n      0x00\n      swap1\n      sload\n      swap1\n      0x0100\n      exp\n      swap1\n      div\n      0xffffffffffffffffffffffffffffffffffffffff\n      and\n      0xffffffffffffffffffffffffffffffffffffffff\n      and\n      0xffffffffffffffffffffffffffffffffffffffff\n      and\n      dup2\n      mstore\n      0x20\n      add\n      0x09\n      dup3\n      add\n      0x00\n      swap1\n      sload\n      swap1\n      0x0100\n      exp\n      swap1\n      div\n      0xffffffffffffffffffffffffffffffffffffffff\n      and\n      0xffffffffffffffffffffffffffffffffffffffff\n      and\n      0xffffffffffffffffffffffffffffffffffffffff\n      and\n      dup2\n      mstore\n      0x20\n      add\n      0x0a\n      dup3\n      add\n      0x00\n      swap1\n      sload\n      swap1\n      0x0100\n      exp\n      swap1\n      div\n      0xffffffffffffffffffffffffffffffffffffffff\n      and\n      0xffffffffffffffffffffffffffffffffffffffff\n      and\n      0xffffffffffffffffffffffffffffffffffffffff\n      and\n      dup2\n      mstore\n      pop\n      pop\n      swap2\n      pop\n      pop\n        /* \"gameprofits-galactic-spdgcs-contracts/governence/gameProfitsGalacticNetworkSettings.sol\":7994:8217  function gameprofitsReturnSettings() public view returns (gameprofitsSettings memory networkSetting) {... */\n      swap1\n      jump\t// out\n        /* \"gameprofits-galactic-spdgcs-contracts/governence/gameProfitsGalacticNetworkSettings.sol\":5472:5754  function switchgameprofitsIchoroniumTableSettings(address newSetting... */\n    tag_140:\n        /* \"gameprofits-galactic-spdgcs-contracts/governence/gameProfitsGalacticNetworkSettings.sol\":10343:10348  owner */\n      0x00\n      dup1\n      sload\n      swap1\n      0x0100\n      exp\n      swap1\n      div\n      0xffffffffffffffffffffffffffffffffffffffff\n      and\n        /* \"gameprofits-galactic-spdgcs-contracts/governence/gameProfitsGalacticNetworkSettings.sol\":10329:10348  msg.sender == owner */\n      0xffffffffffffffffffffffffffffffffffffffff\n      and\n        /* \"gameprofits-galactic-spdgcs-contracts/governence/gameProfitsGalacticNetworkSettings.sol\":10329:10339  msg.sender */\n      caller\n        /* \"gameprofits-galactic-spdgcs-contracts/governence/gameProfitsGalacticNetworkSettings.sol\":10329:10348  msg.sender == owner */\n      0xffffffffffffffffffffffffffffffffffffffff\n      and\n      eq\n        /* \"gameprofits-galactic-spdgcs-contracts/governence/gameProfitsGalacticNetworkSettings.sol\":10320:10349  require (msg.sender == owner) */\n      tag_209\n      jumpi\n      0x00\n      dup1\n      revert\n    tag_209:\n        /* \"gameprofits-galactic-spdgcs-contracts/governence/gameProfitsGalacticNetworkSettings.sol\":5701:5711  newSetting */\n      dup1\n        /* \"gameprofits-galactic-spdgcs-contracts/governence/gameProfitsGalacticNetworkSettings.sol\":5637:5663  gameprofitsNetworkSettings */\n      0x01\n        /* \"gameprofits-galactic-spdgcs-contracts/governence/gameProfitsGalacticNetworkSettings.sol\":5637:5698  gameprofitsNetworkSettings.gameprofitsIchoroniumTableSettings */\n      0x03\n      add\n      0x00\n        /* \"gameprofits-galactic-spdgcs-contracts/governence/gameProfitsGalacticNetworkSettings.sol\":5637:5711  gameprofitsNetworkSettings.gameprofitsIchoroniumTableSettings = newSetting */\n      0x0100\n      exp\n      dup2\n      sload\n      dup2\n      0xffffffffffffffffffffffffffffffffffffffff\n      mul\n      not\n      and\n      swap1\n      dup4\n      0xffffffffffffffffffffffffffffffffffffffff\n      and\n      mul\n      or\n      swap1\n      sstore\n      pop\n        /* \"gameprofits-galactic-spdgcs-contracts/governence/gameProfitsGalacticNetworkSettings.sol\":5472:5754  function switchgameprofitsIchoroniumTableSettings(address newSetting... */\n      pop\n      jump\t// out\n    tag_206:\n      mload(0x40)\n      dup1\n      0x0200\n      add\n      0x40\n      mstore\n      dup1\n      iszero(iszero(0x00))\n      dup2\n      mstore\n      0x20\n      add\n      iszero(iszero(0x00))\n      dup2\n      mstore\n      0x20\n      add\n      iszero(iszero(0x00))\n      dup2\n      mstore\n      0x20\n      add\n      iszero(iszero(0x00))\n      dup2\n      mstore\n      0x20\n      add\n      iszero(iszero(0x00))\n      dup2\n      mstore\n      0x20\n      add\n      and(0xffffffffffffffffffffffffffffffffffffffff, 0x00)\n      dup2\n      mstore\n      0x20\n      add\n      and(0xffffffffffffffffffffffffffffffffffffffff, 0x00)\n      dup2\n      mstore\n      0x20\n      add\n      and(0xffffffffffffffffffffffffffffffffffffffff, 0x00)\n      dup2\n      mstore\n      0x20\n      add\n      and(0xffffffffffffffffffffffffffffffffffffffff, 0x00)\n      dup2\n      mstore\n      0x20\n      add\n      and(0xffffffffffffffffffffffffffffffffffffffff, 0x00)\n      dup2\n      mstore\n      0x20\n      add\n      and(0xffffffffffffffffffffffffffffffffffffffff, 0x00)\n      dup2\n      mstore\n      0x20\n      add\n      and(0xffffffffffffffffffffffffffffffffffffffff, 0x00)\n      dup2\n      mstore\n      0x20\n      add\n      and(0xffffffffffffffffffffffffffffffffffffffff, 0x00)\n      dup2\n      mstore\n      0x20\n      add\n      and(0xffffffffffffffffffffffffffffffffffffffff, 0x00)\n      dup2\n      mstore\n      0x20\n      add\n      and(0xffffffffffffffffffffffffffffffffffffffff, 0x00)\n      dup2\n      mstore\n      0x20\n      add\n      and(0xffffffffffffffffffffffffffffffffffffffff, 0x00)\n      dup2\n      mstore\n      pop\n      swap1\n      jump\t// out\n        /* \"#utility.yul\":88:205   */\n    tag_212:\n        /* \"#utility.yul\":197:198   */\n      0x00\n        /* \"#utility.yul\":194:195   */\n      dup1\n        /* \"#utility.yul\":187:199   */\n      revert\n        /* \"#utility.yul\":334:460   */\n    tag_214:\n        /* \"#utility.yul\":371:378   */\n      0x00\n        /* \"#utility.yul\":411:453   */\n      0xffffffffffffffffffffffffffffffffffffffff\n        /* \"#utility.yul\":404:409   */\n      dup3\n        /* \"#utility.yul\":400:454   */\n      and\n        /* \"#utility.yul\":389:454   */\n      swap1\n      pop\n        /* \"#utility.yul\":334:460   */\n      swap2\n      swap1\n      pop\n      jump\t// out\n        /* \"#utility.yul\":466:562   */\n    tag_215:\n        /* \"#utility.yul\":503:510   */\n      0x00\n        /* \"#utility.yul\":532:556   */\n      tag_230\n        /* \"#utility.yul\":550:555   */\n      dup3\n        /* \"#utility.yul\":532:556   */\n      tag_214\n      jump\t// in\n    tag_230:\n        /* \"#utility.yul\":521:556   */\n      swap1\n      pop\n        /* \"#utility.yul\":466:562   */\n      swap2\n      swap1\n      pop\n      jump\t// out\n        /* \"#utility.yul\":568:690   */\n    tag_216:\n        /* \"#utility.yul\":641:665   */\n      tag_232\n        /* \"#utility.yul\":659:664   */\n      dup2\n        /* \"#utility.yul\":641:665   */\n      tag_215\n      jump\t// in\n    tag_232:\n        /* \"#utility.yul\":634:639   */\n      dup2\n        /* \"#utility.yul\":631:666   */\n      eq\n        /* \"#utility.yul\":621:684   */\n      tag_233\n      jumpi\n        /* \"#utility.yul\":680:681   */\n      0x00\n        /* \"#utility.yul\":677:678   */\n      dup1\n        /* \"#utility.yul\":670:682   */\n      revert\n        /* \"#utility.yul\":621:684   */\n    tag_233:\n        /* \"#utility.yul\":568:690   */\n      pop\n      jump\t// out\n        /* \"#utility.yul\":696:835   */\n    tag_217:\n        /* \"#utility.yul\":742:747   */\n      0x00\n        /* \"#utility.yul\":780:786   */\n      dup2\n        /* \"#utility.yul\":767:787   */\n      calldataload\n        /* \"#utility.yul\":758:787   */\n      swap1\n      pop\n        /* \"#utility.yul\":796:829   */\n      tag_235\n        /* \"#utility.yul\":823:828   */\n      dup2\n        /* \"#utility.yul\":796:829   */\n      tag_216\n      jump\t// in\n    tag_235:\n        /* \"#utility.yul\":696:835   */\n      swap3\n      swap2\n      pop\n      pop\n      jump\t// out\n        /* \"#utility.yul\":841:1170   */\n    tag_45:\n        /* \"#utility.yul\":900:906   */\n      0x00\n        /* \"#utility.yul\":949:951   */\n      0x20\n        /* \"#utility.yul\":937:946   */\n      dup3\n        /* \"#utility.yul\":928:935   */\n      dup5\n        /* \"#utility.yul\":924:947   */\n      sub\n        /* \"#utility.yul\":920:952   */\n      slt\n        /* \"#utility.yul\":917:1036   */\n      iszero\n      tag_237\n      jumpi\n        /* \"#utility.yul\":955:1034   */\n      tag_238\n      tag_212\n      jump\t// in\n    tag_238:\n        /* \"#utility.yul\":917:1036   */\n    tag_237:\n        /* \"#utility.yul\":1075:1076   */\n      0x00\n        /* \"#utility.yul\":1100:1153   */\n      tag_239\n        /* \"#utility.yul\":1145:1152   */\n      dup5\n        /* \"#utility.yul\":1136:1142   */\n      dup3\n        /* \"#utility.yul\":1125:1134   */\n      dup6\n        /* \"#utility.yul\":1121:1143   */\n      add\n        /* \"#utility.yul\":1100:1153   */\n      tag_217\n      jump\t// in\n    tag_239:\n        /* \"#utility.yul\":1090:1153   */\n      swap2\n      pop\n        /* \"#utility.yul\":1046:1163   */\n      pop\n        /* \"#utility.yul\":841:1170   */\n      swap3\n      swap2\n      pop\n      pop\n      jump\t// out\n        /* \"#utility.yul\":1176:1294   */\n    tag_218:\n        /* \"#utility.yul\":1263:1287   */\n      tag_241\n        /* \"#utility.yul\":1281:1286   */\n      dup2\n        /* \"#utility.yul\":1263:1287   */\n      tag_215\n      jump\t// in\n    tag_241:\n        /* \"#utility.yul\":1258:1261   */\n      dup3\n        /* \"#utility.yul\":1251:1288   */\n      mstore\n        /* \"#utility.yul\":1176:1294   */\n      pop\n      pop\n      jump\t// out\n        /* \"#utility.yul\":1300:1522   */\n    tag_50:\n        /* \"#utility.yul\":1393:1397   */\n      0x00\n        /* \"#utility.yul\":1431:1433   */\n      0x20\n        /* \"#utility.yul\":1420:1429   */\n      dup3\n        /* \"#utility.yul\":1416:1434   */\n      add\n        /* \"#utility.yul\":1408:1434   */\n      swap1\n      pop\n        /* \"#utility.yul\":1444:1515   */\n      tag_243\n        /* \"#utility.yul\":1512:1513   */\n      0x00\n        /* \"#utility.yul\":1501:1510   */\n      dup4\n        /* \"#utility.yul\":1497:1514   */\n      add\n        /* \"#utility.yul\":1488:1494   */\n      dup5\n        /* \"#utility.yul\":1444:1515   */\n      tag_218\n      jump\t// in\n    tag_243:\n        /* \"#utility.yul\":1300:1522   */\n      swap3\n      swap2\n      pop\n      pop\n      jump\t// out\n        /* \"#utility.yul\":1528:1618   */\n    tag_219:\n        /* \"#utility.yul\":1562:1569   */\n      0x00\n        /* \"#utility.yul\":1605:1610   */\n      dup2\n        /* \"#utility.yul\":1598:1611   */\n      iszero\n        /* \"#utility.yul\":1591:1612   */\n      iszero\n        /* \"#utility.yul\":1580:1612   */\n      swap1\n      pop\n        /* \"#utility.yul\":1528:1618   */\n      swap2\n      swap1\n      pop\n      jump\t// out\n        /* \"#utility.yul\":1624:1733   */\n    tag_220:\n        /* \"#utility.yul\":1705:1726   */\n      tag_246\n        /* \"#utility.yul\":1720:1725   */\n      dup2\n        /* \"#utility.yul\":1705:1726   */\n      tag_219\n      jump\t// in\n    tag_246:\n        /* \"#utility.yul\":1700:1703   */\n      dup3\n        /* \"#utility.yul\":1693:1727   */\n      mstore\n        /* \"#utility.yul\":1624:1733   */\n      pop\n      pop\n      jump\t// out\n        /* \"#utility.yul\":1739:1949   */\n    tag_57:\n        /* \"#utility.yul\":1826:1830   */\n      0x00\n        /* \"#utility.yul\":1864:1866   */\n      0x20\n        /* \"#utility.yul\":1853:1862   */\n      dup3\n        /* \"#utility.yul\":1849:1867   */\n      add\n        /* \"#utility.yul\":1841:1867   */\n      swap1\n      pop\n        /* \"#utility.yul\":1877:1942   */\n      tag_248\n        /* \"#utility.yul\":1939:1940   */\n      0x00\n        /* \"#utility.yul\":1928:1937   */\n      dup4\n        /* \"#utility.yul\":1924:1941   */\n      add\n        /* \"#utility.yul\":1915:1921   */\n      dup5\n        /* \"#utility.yul\":1877:1942   */\n      tag_220\n      jump\t// in\n    tag_248:\n        /* \"#utility.yul\":1739:1949   */\n      swap3\n      swap2\n      pop\n      pop\n      jump\t// out\n        /* \"#utility.yul\":1955:2054   */\n    tag_221:\n        /* \"#utility.yul\":2026:2047   */\n      tag_250\n        /* \"#utility.yul\":2041:2046   */\n      dup2\n        /* \"#utility.yul\":2026:2047   */\n      tag_219\n      jump\t// in\n    tag_250:\n        /* \"#utility.yul\":2021:2024   */\n      dup3\n        /* \"#utility.yul\":2014:2048   */\n      mstore\n        /* \"#utility.yul\":1955:2054   */\n      pop\n      pop\n      jump\t// out\n        /* \"#utility.yul\":2060:2168   */\n    tag_222:\n        /* \"#utility.yul\":2137:2161   */\n      tag_252\n        /* \"#utility.yul\":2155:2160   */\n      dup2\n        /* \"#utility.yul\":2137:2161   */\n      tag_215\n      jump\t// in\n    tag_252:\n        /* \"#utility.yul\":2132:2135   */\n      dup3\n        /* \"#utility.yul\":2125:2162   */\n      mstore\n        /* \"#utility.yul\":2060:2168   */\n      pop\n      pop\n      jump\t// out\n        /* \"#utility.yul\":2308:5632   */\n    tag_223:\n        /* \"#utility.yul\":2475:2481   */\n      0x0200\n        /* \"#utility.yul\":2470:2473   */\n      dup3\n        /* \"#utility.yul\":2466:2482   */\n      add\n        /* \"#utility.yul\":2577:2581   */\n      0x00\n        /* \"#utility.yul\":2570:2575   */\n      dup3\n        /* \"#utility.yul\":2566:2582   */\n      add\n        /* \"#utility.yul\":2560:2583   */\n      mload\n        /* \"#utility.yul\":2596:2653   */\n      tag_254\n        /* \"#utility.yul\":2647:2651   */\n      0x00\n        /* \"#utility.yul\":2642:2645   */\n      dup6\n        /* \"#utility.yul\":2638:2652   */\n      add\n        /* \"#utility.yul\":2624:2636   */\n      dup3\n        /* \"#utility.yul\":2596:2653   */\n      tag_221\n      jump\t// in\n    tag_254:\n        /* \"#utility.yul\":2492:2663   */\n      pop\n        /* \"#utility.yul\":2751:2755   */\n      0x20\n        /* \"#utility.yul\":2744:2749   */\n      dup3\n        /* \"#utility.yul\":2740:2756   */\n      add\n        /* \"#utility.yul\":2734:2757   */\n      mload\n        /* \"#utility.yul\":2770:2827   */\n      tag_255\n        /* \"#utility.yul\":2821:2825   */\n      0x20\n        /* \"#utility.yul\":2816:2819   */\n      dup6\n        /* \"#utility.yul\":2812:2826   */\n      add\n        /* \"#utility.yul\":2798:2810   */\n      dup3\n        /* \"#utility.yul\":2770:2827   */\n      tag_221\n      jump\t// in\n    tag_255:\n        /* \"#utility.yul\":2673:2837   */\n      pop\n        /* \"#utility.yul\":2934:2938   */\n      0x40\n        /* \"#utility.yul\":2927:2932   */\n      dup3\n        /* \"#utility.yul\":2923:2939   */\n      add\n        /* \"#utility.yul\":2917:2940   */\n      mload\n        /* \"#utility.yul\":2953:3010   */\n      tag_256\n        /* \"#utility.yul\":3004:3008   */\n      0x40\n        /* \"#utility.yul\":2999:3002   */\n      dup6\n        /* \"#utility.yul\":2995:3009   */\n      add\n        /* \"#utility.yul\":2981:2993   */\n      dup3\n        /* \"#utility.yul\":2953:3010   */\n      tag_221\n      jump\t// in\n    tag_256:\n        /* \"#utility.yul\":2847:3020   */\n      pop\n        /* \"#utility.yul\":3117:3121   */\n      0x60\n        /* \"#utility.yul\":3110:3115   */\n      dup3\n        /* \"#utility.yul\":3106:3122   */\n      add\n        /* \"#utility.yul\":3100:3123   */\n      mload\n        /* \"#utility.yul\":3136:3193   */\n      tag_257\n        /* \"#utility.yul\":3187:3191   */\n      0x60\n        /* \"#utility.yul\":3182:3185   */\n      dup6\n        /* \"#utility.yul\":3178:3192   */\n      add\n        /* \"#utility.yul\":3164:3176   */\n      dup3\n        /* \"#utility.yul\":3136:3193   */\n      tag_221\n      jump\t// in\n    tag_257:\n        /* \"#utility.yul\":3030:3203   */\n      pop\n        /* \"#utility.yul\":3296:3300   */\n      0x80\n        /* \"#utility.yul\":3289:3294   */\n      dup3\n        /* \"#utility.yul\":3285:3301   */\n      add\n        /* \"#utility.yul\":3279:3302   */\n      mload\n        /* \"#utility.yul\":3315:3372   */\n      tag_258\n        /* \"#utility.yul\":3366:3370   */\n      0x80\n        /* \"#utility.yul\":3361:3364   */\n      dup6\n        /* \"#utility.yul\":3357:3371   */\n      add\n        /* \"#utility.yul\":3343:3355   */\n      dup3\n        /* \"#utility.yul\":3315:3372   */\n      tag_221\n      jump\t// in\n    tag_258:\n        /* \"#utility.yul\":3213:3382   */\n      pop\n        /* \"#utility.yul\":3486:3490   */\n      0xa0\n        /* \"#utility.yul\":3479:3484   */\n      dup3\n        /* \"#utility.yul\":3475:3491   */\n      add\n        /* \"#utility.yul\":3469:3492   */\n      mload\n        /* \"#utility.yul\":3505:3568   */\n      tag_259\n        /* \"#utility.yul\":3562:3566   */\n      0xa0\n        /* \"#utility.yul\":3557:3560   */\n      dup6\n        /* \"#utility.yul\":3553:3567   */\n      add\n        /* \"#utility.yul\":3539:3551   */\n      dup3\n        /* \"#utility.yul\":3505:3568   */\n      tag_222\n      jump\t// in\n    tag_259:\n        /* \"#utility.yul\":3392:3578   */\n      pop\n        /* \"#utility.yul\":3685:3689   */\n      0xc0\n        /* \"#utility.yul\":3678:3683   */\n      dup3\n        /* \"#utility.yul\":3674:3690   */\n      add\n        /* \"#utility.yul\":3668:3691   */\n      mload\n        /* \"#utility.yul\":3704:3767   */\n      tag_260\n        /* \"#utility.yul\":3761:3765   */\n      0xc0\n        /* \"#utility.yul\":3756:3759   */\n      dup6\n        /* \"#utility.yul\":3752:3766   */\n      add\n        /* \"#utility.yul\":3738:3750   */\n      dup3\n        /* \"#utility.yul\":3704:3767   */\n      tag_222\n      jump\t// in\n    tag_260:\n        /* \"#utility.yul\":3588:3777   */\n      pop\n        /* \"#utility.yul\":3885:3889   */\n      0xe0\n        /* \"#utility.yul\":3878:3883   */\n      dup3\n        /* \"#utility.yul\":3874:3890   */\n      add\n        /* \"#utility.yul\":3868:3891   */\n      mload\n        /* \"#utility.yul\":3904:3967   */\n      tag_261\n        /* \"#utility.yul\":3961:3965   */\n      0xe0\n        /* \"#utility.yul\":3956:3959   */\n      dup6\n        /* \"#utility.yul\":3952:3966   */\n      add\n        /* \"#utility.yul\":3938:3950   */\n      dup3\n        /* \"#utility.yul\":3904:3967   */\n      tag_222\n      jump\t// in\n    tag_261:\n        /* \"#utility.yul\":3787:3977   */\n      pop\n        /* \"#utility.yul\":4089:4095   */\n      0x0100\n        /* \"#utility.yul\":4082:4087   */\n      dup3\n        /* \"#utility.yul\":4078:4096   */\n      add\n        /* \"#utility.yul\":4072:4097   */\n      mload\n        /* \"#utility.yul\":4110:4175   */\n      tag_262\n        /* \"#utility.yul\":4167:4173   */\n      0x0100\n        /* \"#utility.yul\":4162:4165   */\n      dup6\n        /* \"#utility.yul\":4158:4174   */\n      add\n        /* \"#utility.yul\":4144:4156   */\n      dup3\n        /* \"#utility.yul\":4110:4175   */\n      tag_222\n      jump\t// in\n    tag_262:\n        /* \"#utility.yul\":3987:4185   */\n      pop\n        /* \"#utility.yul\":4291:4297   */\n      0x0120\n        /* \"#utility.yul\":4284:4289   */\n      dup3\n        /* \"#utility.yul\":4280:4298   */\n      add\n        /* \"#utility.yul\":4274:4299   */\n      mload\n        /* \"#utility.yul\":4312:4377   */\n      tag_263\n        /* \"#utility.yul\":4369:4375   */\n      0x0120\n        /* \"#utility.yul\":4364:4367   */\n      dup6\n        /* \"#utility.yul\":4360:4376   */\n      add\n        /* \"#utility.yul\":4346:4358   */\n      dup3\n        /* \"#utility.yul\":4312:4377   */\n      tag_222\n      jump\t// in\n    tag_263:\n        /* \"#utility.yul\":4195:4387   */\n      pop\n        /* \"#utility.yul\":4498:4504   */\n      0x0140\n        /* \"#utility.yul\":4491:4496   */\n      dup3\n        /* \"#utility.yul\":4487:4505   */\n      add\n        /* \"#utility.yul\":4481:4506   */\n      mload\n        /* \"#utility.yul\":4519:4584   */\n      tag_264\n        /* \"#utility.yul\":4576:4582   */\n      0x0140\n        /* \"#utility.yul\":4571:4574   */\n      dup6\n        /* \"#utility.yul\":4567:4583   */\n      add\n        /* \"#utility.yul\":4553:4565   */\n      dup3\n        /* \"#utility.yul\":4519:4584   */\n      tag_222\n      jump\t// in\n    tag_264:\n        /* \"#utility.yul\":4397:4594   */\n      pop\n        /* \"#utility.yul\":4699:4705   */\n      0x0160\n        /* \"#utility.yul\":4692:4697   */\n      dup3\n        /* \"#utility.yul\":4688:4706   */\n      add\n        /* \"#utility.yul\":4682:4707   */\n      mload\n        /* \"#utility.yul\":4720:4785   */\n      tag_265\n        /* \"#utility.yul\":4777:4783   */\n      0x0160\n        /* \"#utility.yul\":4772:4775   */\n      dup6\n        /* \"#utility.yul\":4768:4784   */\n      add\n        /* \"#utility.yul\":4754:4766   */\n      dup3\n        /* \"#utility.yul\":4720:4785   */\n      tag_222\n      jump\t// in\n    tag_265:\n        /* \"#utility.yul\":4604:4795   */\n      pop\n        /* \"#utility.yul\":4901:4907   */\n      0x0180\n        /* \"#utility.yul\":4894:4899   */\n      dup3\n        /* \"#utility.yul\":4890:4908   */\n      add\n        /* \"#utility.yul\":4884:4909   */\n      mload\n        /* \"#utility.yul\":4922:4987   */\n      tag_266\n        /* \"#utility.yul\":4979:4985   */\n      0x0180\n        /* \"#utility.yul\":4974:4977   */\n      dup6\n        /* \"#utility.yul\":4970:4986   */\n      add\n        /* \"#utility.yul\":4956:4968   */\n      dup3\n        /* \"#utility.yul\":4922:4987   */\n      tag_222\n      jump\t// in\n    tag_266:\n        /* \"#utility.yul\":4805:4997   */\n      pop\n        /* \"#utility.yul\":5106:5112   */\n      0x01a0\n        /* \"#utility.yul\":5099:5104   */\n      dup3\n        /* \"#utility.yul\":5095:5113   */\n      add\n        /* \"#utility.yul\":5089:5114   */\n      mload\n        /* \"#utility.yul\":5127:5192   */\n      tag_267\n        /* \"#utility.yul\":5184:5190   */\n      0x01a0\n        /* \"#utility.yul\":5179:5182   */\n      dup6\n        /* \"#utility.yul\":5175:5191   */\n      add\n        /* \"#utility.yul\":5161:5173   */\n      dup3\n        /* \"#utility.yul\":5127:5192   */\n      tag_222\n      jump\t// in\n    tag_267:\n        /* \"#utility.yul\":5007:5202   */\n      pop\n        /* \"#utility.yul\":5320:5326   */\n      0x01c0\n        /* \"#utility.yul\":5313:5318   */\n      dup3\n        /* \"#utility.yul\":5309:5327   */\n      add\n        /* \"#utility.yul\":5303:5328   */\n      mload\n        /* \"#utility.yul\":5341:5406   */\n      tag_268\n        /* \"#utility.yul\":5398:5404   */\n      0x01c0\n        /* \"#utility.yul\":5393:5396   */\n      dup6\n        /* \"#utility.yul\":5389:5405   */\n      add\n        /* \"#utility.yul\":5375:5387   */\n      dup3\n        /* \"#utility.yul\":5341:5406   */\n      tag_222\n      jump\t// in\n    tag_268:\n        /* \"#utility.yul\":5212:5416   */\n      pop\n        /* \"#utility.yul\":5529:5535   */\n      0x01e0\n        /* \"#utility.yul\":5522:5527   */\n      dup3\n        /* \"#utility.yul\":5518:5536   */\n      add\n        /* \"#utility.yul\":5512:5537   */\n      mload\n        /* \"#utility.yul\":5550:5615   */\n      tag_269\n        /* \"#utility.yul\":5607:5613   */\n      0x01e0\n        /* \"#utility.yul\":5602:5605   */\n      dup6\n        /* \"#utility.yul\":5598:5614   */\n      add\n        /* \"#utility.yul\":5584:5596   */\n      dup3\n        /* \"#utility.yul\":5550:5615   */\n      tag_222\n      jump\t// in\n    tag_269:\n        /* \"#utility.yul\":5426:5625   */\n      pop\n        /* \"#utility.yul\":2444:5632   */\n      pop\n        /* \"#utility.yul\":2308:5632   */\n      pop\n      pop\n      jump\t// out\n        /* \"#utility.yul\":5638:6001   */\n    tag_137:\n        /* \"#utility.yul\":5801:5805   */\n      0x00\n        /* \"#utility.yul\":5839:5842   */\n      0x0200\n        /* \"#utility.yul\":5828:5837   */\n      dup3\n        /* \"#utility.yul\":5824:5843   */\n      add\n        /* \"#utility.yul\":5816:5843   */\n      swap1\n      pop\n        /* \"#utility.yul\":5853:5994   */\n      tag_271\n        /* \"#utility.yul\":5991:5992   */\n      0x00\n        /* \"#utility.yul\":5980:5989   */\n      dup4\n        /* \"#utility.yul\":5976:5993   */\n      add\n        /* \"#utility.yul\":5967:5973   */\n      dup5\n        /* \"#utility.yul\":5853:5994   */\n      tag_223\n      jump\t// in\n    tag_271:\n        /* \"#utility.yul\":5638:6001   */\n      swap3\n      swap2\n      pop\n      pop\n      jump\t// out\n\n    auxdata: 0xa2646970667358221220ba6ccb8f8f8aedd6803d83d57faa121beafae63ee2b9ef1c68afbeb5abf49bb964736f6c63430008100033\n}\n",
				"bytecode": {
					"linkReferences": {},
					"object": "6080604052604051806102000160405280600015158152602001600015158152602001600015158152602001600015158152602001600015158152602001600073ffffffffffffffffffffffffffffffffffffffff168152602001600073ffffffffffffffffffffffffffffffffffffffff168152602001600073ffffffffffffffffffffffffffffffffffffffff168152602001600073ffffffffffffffffffffffffffffffffffffffff168152602001600073ffffffffffffffffffffffffffffffffffffffff168152602001600073ffffffffffffffffffffffffffffffffffffffff168152602001600073ffffffffffffffffffffffffffffffffffffffff168152602001600073ffffffffffffffffffffffffffffffffffffffff168152602001600073ffffffffffffffffffffffffffffffffffffffff168152602001600073ffffffffffffffffffffffffffffffffffffffff168152602001600073ffffffffffffffffffffffffffffffffffffffff16815250600160008201518160000160006101000a81548160ff02191690831515021790555060208201518160000160016101000a81548160ff02191690831515021790555060408201518160000160026101000a81548160ff02191690831515021790555060608201518160000160036101000a81548160ff02191690831515021790555060808201518160000160046101000a81548160ff02191690831515021790555060a08201518160000160056101000a81548173ffffffffffffffffffffffffffffffffffffffff021916908373ffffffffffffffffffffffffffffffffffffffff16021790555060c08201518160010160006101000a81548173ffffffffffffffffffffffffffffffffffffffff021916908373ffffffffffffffffffffffffffffffffffffffff16021790555060e08201518160020160006101000a81548173ffffffffffffffffffffffffffffffffffffffff021916908373ffffffffffffffffffffffffffffffffffffffff1602179055506101008201518160030160006101000a81548173ffffffffffffffffffffffffffffffffffffffff021916908373ffffffffffffffffffffffffffffffffffffffff1602179055506101208201518160040160006101000a81548173ffffffffffffffffffffffffffffffffffffffff021916908373ffffffffffffffffffffffffffffffffffffffff1602179055506101408201518160050160006101000a81548173ffffffffffffffffffffffffffffffffffffffff021916908373ffffffffffffffffffffffffffffffffffffffff1602179055506101608201518160060160006101000a81548173ffffffffffffffffffffffffffffffffffffffff021916908373ffffffffffffffffffffffffffffffffffffffff1602179055506101808201518160070160006101000a81548173ffffffffffffffffffffffffffffffffffffffff021916908373ffffffffffffffffffffffffffffffffffffffff1602179055506101a08201518160080160006101000a81548173ffffffffffffffffffffffffffffffffffffffff021916908373ffffffffffffffffffffffffffffffffffffffff1602179055506101c08201518160090160006101000a81548173ffffffffffffffffffffffffffffffffffffffff021916908373ffffffffffffffffffffffffffffffffffffffff1602179055506101e082015181600a0160006101000a81548173ffffffffffffffffffffffffffffffffffffffff021916908373ffffffffffffffffffffffffffffffffffffffff160217905550505034801561053f57600080fd5b50336000806101000a81548173ffffffffffffffffffffffffffffffffffffffff021916908373ffffffffffffffffffffffffffffffffffffffff160217905550611b4d8061058f6000396000f3fe608060405234801561001057600080fd5b50600436106101fb5760003560e01c80637a22890a1161011a578063a87a86aa116100ad578063c461089c1161007c578063c461089c146104e4578063d287172314610502578063e2c6cc7a1461050c578063e62b246c1461052a578063fa0d08ec14610548576101fb565b8063a87a86aa14610472578063b985accb14610490578063ba08d5e1146104ac578063c1b2456d146104c8576101fb565b8063941e32b6116100e9578063941e32b6146103fc57806394d5bdff1461041a57806397cf27b814610438578063a775088b14610456576101fb565b80637a22890a146103ae578063860249e4146103b857806388f8a9a3146103d45780638991e441146103de576101fb565b806349e8216a116101925780635458419911610161578063545841991461033c5780635d246bad146103585780636ae730381461037457806379f760a714610392576101fb565b806349e8216a146102c45780634a2690b9146102e257806350b8f5eb1461030057806352bac0771461031e576101fb565b80631fae9693116101ce5780631fae96931461027657806335d355ab146102945780633c49c63e1461029e57806341daf6ba146102a8576101fb565b8063097ee368146102005780630d19de6f1461021c5780631c7ac31b1461023a5780631dd2878214610258575b600080fd5b61021a60048036038101906102159190611906565b610564565b005b610224610603565b6040516102319190611942565b60405180910390f35b610242610635565b60405161024f9190611942565b60405180910390f35b610260610667565b60405161026d9190611978565b60405180910390f35b61027e610686565b60405161028b9190611978565b60405180910390f35b61029c6106a5565b005b6102a661072f565b005b6102c260048036038101906102bd9190611906565b6108de565b005b6102cc61097d565b6040516102d99190611978565b60405180910390f35b6102ea61099c565b6040516102f79190611942565b60405180910390f35b6103086109ce565b6040516103159190611942565b60405180910390f35b610326610a00565b6040516103339190611978565b60405180910390f35b61035660048036038101906103519190611906565b610a1f565b005b610372600480360381019061036d9190611906565b610abe565b005b61037c610b5d565b6040516103899190611942565b60405180910390f35b6103ac60048036038101906103a79190611906565b610b8f565b005b6103b6610c2e565b005b6103d260048036038101906103cd9190611906565b610cb8565b005b6103dc610d57565b005b6103e6610de1565b6040516103f39190611942565b60405180910390f35b610404610e13565b6040516104119190611978565b60405180910390f35b610422610e32565b60405161042f9190611942565b60405180910390f35b610440610e64565b60405161044d9190611942565b60405180910390f35b610470600480360381019061046b9190611906565b610e96565b005b61047a610f35565b6040516104879190611942565b60405180910390f35b6104aa60048036038101906104a59190611906565b610f67565b005b6104c660048036038101906104c19190611906565b611006565b005b6104e260048036038101906104dd9190611906565b6110a4565b005b6104ec611143565b6040516104f99190611942565b60405180910390f35b61050a611175565b005b6105146111ff565b6040516105219190611942565b60405180910390f35b610532611231565b60405161053f9190611afb565b60405180910390f35b610562600480360381019061055d9190611906565b61168b565b005b60008054906101000a900473ffffffffffffffffffffffffffffffffffffffff1673ffffffffffffffffffffffffffffffffffffffff163373ffffffffffffffffffffffffffffffffffffffff16146105bc57600080fd5b80600160020160006101000a81548173ffffffffffffffffffffffffffffffffffffffff021916908373ffffffffffffffffffffffffffffffffffffffff16021790555050565b600080600190508060090160009054906101000a900473ffffffffffffffffffffffffffffffffffffffff1691505090565b600080600190508060060160009054906101000a900473ffffffffffffffffffffffffffffffffffffffff1691505090565b600080600190508060000160009054906101000a900460ff1691505090565b600080600190508060000160039054906101000a900460ff1691505090565b60008054906101000a900473ffffffffffffffffffffffffffffffffffffffff1673ffffffffffffffffffffffffffffffffffffffff163373ffffffffffffffffffffffffffffffffffffffff16146106fd57600080fd5b600160000160029054906101000a900460ff1615600160000160026101000a81548160ff021916908315150217905550565b60008054906101000a900473ffffffffffffffffffffffffffffffffffffffff1673ffffffffffffffffffffffffffffffffffffffff163373ffffffffffffffffffffffffffffffffffffffff161461078757600080fd5b60001515600160000160049054906101000a900460ff1615150361083257600160000160049054906101000a900460ff1615600160000160046101000a81548160ff02191690831515021790555060018060000160036101000a81548160ff0219169083151502179055506000600160000160016101000a81548160ff02191690831515021790555060018060000160026101000a81548160ff0219169083151502179055506108dc565b60011515600160000160049054906101000a900460ff161515036108db57600160000160049054906101000a900460ff1615600160000160046101000a81548160ff0219169083151502179055506000600160000160036101000a81548160ff0219169083151502179055506000600160000160016101000a81548160ff0219169083151502179055506000600160000160026101000a81548160ff0219169083151502179055505b5b565b60008054906101000a900473ffffffffffffffffffffffffffffffffffffffff1673ffffffffffffffffffffffffffffffffffffffff163373ffffffffffffffffffffffffffffffffffffffff161461093657600080fd5b80600160060160006101000a81548173ffffffffffffffffffffffffffffffffffffffff021916908373ffffffffffffffffffffffffffffffffffffffff16021790555050565b600080600190508060000160019054906101000a900460ff1691505090565b600080600190508060050160009054906101000a900473ffffffffffffffffffffffffffffffffffffffff1691505090565b600080600190508060010160009054906101000a900473ffffffffffffffffffffffffffffffffffffffff1691505090565b600080600190508060000160029054906101000a900460ff1691505090565b60008054906101000a900473ffffffffffffffffffffffffffffffffffffffff1673ffffffffffffffffffffffffffffffffffffffff163373ffffffffffffffffffffffffffffffffffffffff1614610a7757600080fd5b80600160090160006101000a81548173ffffffffffffffffffffffffffffffffffffffff021916908373ffffffffffffffffffffffffffffffffffffffff16021790555050565b60008054906101000a900473ffffffffffffffffffffffffffffffffffffffff1673ffffffffffffffffffffffffffffffffffffffff163373ffffffffffffffffffffffffffffffffffffffff1614610b1657600080fd5b80600160070160006101000a81548173ffffffffffffffffffffffffffffffffffffffff021916908373ffffffffffffffffffffffffffffffffffffffff16021790555050565b600080600190508060080160009054906101000a900473ffffffffffffffffffffffffffffffffffffffff1691505090565b60008054906101000a900473ffffffffffffffffffffffffffffffffffffffff1673ffffffffffffffffffffffffffffffffffffffff163373ffffffffffffffffffffffffffffffffffffffff1614610be757600080fd5b80600160080160006101000a81548173ffffffffffffffffffffffffffffffffffffffff021916908373ffffffffffffffffffffffffffffffffffffffff16021790555050565b60008054906101000a900473ffffffffffffffffffffffffffffffffffffffff1673ffffffffffffffffffffffffffffffffffffffff163373ffffffffffffffffffffffffffffffffffffffff1614610c8657600080fd5b600160000160039054906101000a900460ff1615600160000160036101000a81548160ff021916908315150217905550565b60008054906101000a900473ffffffffffffffffffffffffffffffffffffffff1673ffffffffffffffffffffffffffffffffffffffff163373ffffffffffffffffffffffffffffffffffffffff1614610d1057600080fd5b80600160000160056101000a81548173ffffffffffffffffffffffffffffffffffffffff021916908373ffffffffffffffffffffffffffffffffffffffff16021790555050565b60008054906101000a900473ffffffffffffffffffffffffffffffffffffffff1673ffffffffffffffffffffffffffffffffffffffff163373ffffffffffffffffffffffffffffffffffffffff1614610daf57600080fd5b600160000160009054906101000a900460ff1615600160000160006101000a81548160ff021916908315150217905550565b600080600190508060020160009054906101000a900473ffffffffffffffffffffffffffffffffffffffff1691505090565b600080600190508060000160049054906101000a900460ff1691505090565b600080600190508060040160009054906101000a900473ffffffffffffffffffffffffffffffffffffffff1691505090565b600080600190508060030160009054906101000a900473ffffffffffffffffffffffffffffffffffffffff1691505090565b60008054906101000a900473ffffffffffffffffffffffffffffffffffffffff1673ffffffffffffffffffffffffffffffffffffffff163373ffffffffffffffffffffffffffffffffffffffff1614610eee57600080fd5b806001600a0160006101000a81548173ffffffffffffffffffffffffffffffffffffffff021916908373ffffffffffffffffffffffffffffffffffffffff16021790555050565b6000806001905080600a0160009054906101000a900473ffffffffffffffffffffffffffffffffffffffff1691505090565b60008054906101000a900473ffffffffffffffffffffffffffffffffffffffff1673ffffffffffffffffffffffffffffffffffffffff163373ffffffffffffffffffffffffffffffffffffffff1614610fbf57600080fd5b80600160050160006101000a81548173ffffffffffffffffffffffffffffffffffffffff021916908373ffffffffffffffffffffffffffffffffffffffff16021790555050565b60008054906101000a900473ffffffffffffffffffffffffffffffffffffffff1673ffffffffffffffffffffffffffffffffffffffff163373ffffffffffffffffffffffffffffffffffffffff161461105e57600080fd5b806001800160006101000a81548173ffffffffffffffffffffffffffffffffffffffff021916908373ffffffffffffffffffffffffffffffffffffffff16021790555050565b60008054906101000a900473ffffffffffffffffffffffffffffffffffffffff1673ffffffffffffffffffffffffffffffffffffffff163373ffffffffffffffffffffffffffffffffffffffff16146110fc57600080fd5b80600160040160006101000a81548173ffffffffffffffffffffffffffffffffffffffff021916908373ffffffffffffffffffffffffffffffffffffffff16021790555050565b600080600190508060000160059054906101000a900473ffffffffffffffffffffffffffffffffffffffff1691505090565b60008054906101000a900473ffffffffffffffffffffffffffffffffffffffff1673ffffffffffffffffffffffffffffffffffffffff163373ffffffffffffffffffffffffffffffffffffffff16146111cd57600080fd5b600160000160019054906101000a900460ff1615600160000160016101000a81548160ff021916908315150217905550565b600080600190508060070160009054906101000a900473ffffffffffffffffffffffffffffffffffffffff1691505090565b61123961172a565b60006001905080604051806102000160405290816000820160009054906101000a900460ff161515151581526020016000820160019054906101000a900460ff161515151581526020016000820160029054906101000a900460ff161515151581526020016000820160039054906101000a900460ff161515151581526020016000820160049054906101000a900460ff161515151581526020016000820160059054906101000a900473ffffffffffffffffffffffffffffffffffffffff1673ffffffffffffffffffffffffffffffffffffffff1673ffffffffffffffffffffffffffffffffffffffff1681526020016001820160009054906101000a900473ffffffffffffffffffffffffffffffffffffffff1673ffffffffffffffffffffffffffffffffffffffff1673ffffffffffffffffffffffffffffffffffffffff1681526020016002820160009054906101000a900473ffffffffffffffffffffffffffffffffffffffff1673ffffffffffffffffffffffffffffffffffffffff1673ffffffffffffffffffffffffffffffffffffffff1681526020016003820160009054906101000a900473ffffffffffffffffffffffffffffffffffffffff1673ffffffffffffffffffffffffffffffffffffffff1673ffffffffffffffffffffffffffffffffffffffff1681526020016004820160009054906101000a900473ffffffffffffffffffffffffffffffffffffffff1673ffffffffffffffffffffffffffffffffffffffff1673ffffffffffffffffffffffffffffffffffffffff1681526020016005820160009054906101000a900473ffffffffffffffffffffffffffffffffffffffff1673ffffffffffffffffffffffffffffffffffffffff1673ffffffffffffffffffffffffffffffffffffffff1681526020016006820160009054906101000a900473ffffffffffffffffffffffffffffffffffffffff1673ffffffffffffffffffffffffffffffffffffffff1673ffffffffffffffffffffffffffffffffffffffff1681526020016007820160009054906101000a900473ffffffffffffffffffffffffffffffffffffffff1673ffffffffffffffffffffffffffffffffffffffff1673ffffffffffffffffffffffffffffffffffffffff1681526020016008820160009054906101000a900473ffffffffffffffffffffffffffffffffffffffff1673ffffffffffffffffffffffffffffffffffffffff1673ffffffffffffffffffffffffffffffffffffffff1681526020016009820160009054906101000a900473ffffffffffffffffffffffffffffffffffffffff1673ffffffffffffffffffffffffffffffffffffffff1673ffffffffffffffffffffffffffffffffffffffff168152602001600a820160009054906101000a900473ffffffffffffffffffffffffffffffffffffffff1673ffffffffffffffffffffffffffffffffffffffff1673ffffffffffffffffffffffffffffffffffffffff168152505091505090565b60008054906101000a900473ffffffffffffffffffffffffffffffffffffffff1673ffffffffffffffffffffffffffffffffffffffff163373ffffffffffffffffffffffffffffffffffffffff16146116e357600080fd5b80600160030160006101000a81548173ffffffffffffffffffffffffffffffffffffffff021916908373ffffffffffffffffffffffffffffffffffffffff16021790555050565b604051806102000160405280600015158152602001600015158152602001600015158152602001600015158152602001600015158152602001600073ffffffffffffffffffffffffffffffffffffffff168152602001600073ffffffffffffffffffffffffffffffffffffffff168152602001600073ffffffffffffffffffffffffffffffffffffffff168152602001600073ffffffffffffffffffffffffffffffffffffffff168152602001600073ffffffffffffffffffffffffffffffffffffffff168152602001600073ffffffffffffffffffffffffffffffffffffffff168152602001600073ffffffffffffffffffffffffffffffffffffffff168152602001600073ffffffffffffffffffffffffffffffffffffffff168152602001600073ffffffffffffffffffffffffffffffffffffffff168152602001600073ffffffffffffffffffffffffffffffffffffffff168152602001600073ffffffffffffffffffffffffffffffffffffffff1681525090565b600080fd5b600073ffffffffffffffffffffffffffffffffffffffff82169050919050565b60006118d3826118a8565b9050919050565b6118e3816118c8565b81146118ee57600080fd5b50565b600081359050611900816118da565b92915050565b60006020828403121561191c5761191b6118a3565b5b600061192a848285016118f1565b91505092915050565b61193c816118c8565b82525050565b60006020820190506119576000830184611933565b92915050565b60008115159050919050565b6119728161195d565b82525050565b600060208201905061198d6000830184611969565b92915050565b61199c8161195d565b82525050565b6119ab816118c8565b82525050565b610200820160008201516119c86000850182611993565b5060208201516119db6020850182611993565b5060408201516119ee6040850182611993565b506060820151611a016060850182611993565b506080820151611a146080850182611993565b5060a0820151611a2760a08501826119a2565b5060c0820151611a3a60c08501826119a2565b5060e0820151611a4d60e08501826119a2565b50610100820151611a626101008501826119a2565b50610120820151611a776101208501826119a2565b50610140820151611a8c6101408501826119a2565b50610160820151611aa16101608501826119a2565b50610180820151611ab66101808501826119a2565b506101a0820151611acb6101a08501826119a2565b506101c0820151611ae06101c08501826119a2565b506101e0820151611af56101e08501826119a2565b50505050565b600061020082019050611b1160008301846119b1565b9291505056fea2646970667358221220ba6ccb8f8f8aedd6803d83d57faa121beafae63ee2b9ef1c68afbeb5abf49bb964736f6c63430008100033",
					"opcodes": "PUSH1 0x80 PUSH1 0x40 MSTORE PUSH1 0x40 MLOAD DUP1 PUSH2 0x200 ADD PUSH1 0x40 MSTORE DUP1 PUSH1 0x0 ISZERO ISZERO DUP2 MSTORE PUSH1 0x20 ADD PUSH1 0x0 ISZERO ISZERO DUP2 MSTORE PUSH1 0x20 ADD PUSH1 0x0 ISZERO ISZERO DUP2 MSTORE PUSH1 0x20 ADD PUSH1 0x0 ISZERO ISZERO DUP2 MSTORE PUSH1 0x20 ADD PUSH1 0x0 ISZERO ISZERO DUP2 MSTORE PUSH1 0x20 ADD PUSH1 0x0 PUSH20 0xFFFFFFFFFFFFFFFFFFFFFFFFFFFFFFFFFFFFFFFF AND DUP2 MSTORE PUSH1 0x20 ADD PUSH1 0x0 PUSH20 0xFFFFFFFFFFFFFFFFFFFFFFFFFFFFFFFFFFFFFFFF AND DUP2 MSTORE PUSH1 0x20 ADD PUSH1 0x0 PUSH20 0xFFFFFFFFFFFFFFFFFFFFFFFFFFFFFFFFFFFFFFFF AND DUP2 MSTORE PUSH1 0x20 ADD PUSH1 0x0 PUSH20 0xFFFFFFFFFFFFFFFFFFFFFFFFFFFFFFFFFFFFFFFF AND DUP2 MSTORE PUSH1 0x20 ADD PUSH1 0x0 PUSH20 0xFFFFFFFFFFFFFFFFFFFFFFFFFFFFFFFFFFFFFFFF AND DUP2 MSTORE PUSH1 0x20 ADD PUSH1 0x0 PUSH20 0xFFFFFFFFFFFFFFFFFFFFFFFFFFFFFFFFFFFFFFFF AND DUP2 MSTORE PUSH1 0x20 ADD PUSH1 0x0 PUSH20 0xFFFFFFFFFFFFFFFFFFFFFFFFFFFFFFFFFFFFFFFF AND DUP2 MSTORE PUSH1 0x20 ADD PUSH1 0x0 PUSH20 0xFFFFFFFFFFFFFFFFFFFFFFFFFFFFFFFFFFFFFFFF AND DUP2 MSTORE PUSH1 0x20 ADD PUSH1 0x0 PUSH20 0xFFFFFFFFFFFFFFFFFFFFFFFFFFFFFFFFFFFFFFFF AND DUP2 MSTORE PUSH1 0x20 ADD PUSH1 0x0 PUSH20 0xFFFFFFFFFFFFFFFFFFFFFFFFFFFFFFFFFFFFFFFF AND DUP2 MSTORE PUSH1 0x20 ADD PUSH1 0x0 PUSH20 0xFFFFFFFFFFFFFFFFFFFFFFFFFFFFFFFFFFFFFFFF AND DUP2 MSTORE POP PUSH1 0x1 PUSH1 0x0 DUP3 ADD MLOAD DUP2 PUSH1 0x0 ADD PUSH1 0x0 PUSH2 0x100 EXP DUP2 SLOAD DUP2 PUSH1 0xFF MUL NOT AND SWAP1 DUP4 ISZERO ISZERO MUL OR SWAP1 SSTORE POP PUSH1 0x20 DUP3 ADD MLOAD DUP2 PUSH1 0x0 ADD PUSH1 0x1 PUSH2 0x100 EXP DUP2 SLOAD DUP2 PUSH1 0xFF MUL NOT AND SWAP1 DUP4 ISZERO ISZERO MUL OR SWAP1 SSTORE POP PUSH1 0x40 DUP3 ADD MLOAD DUP2 PUSH1 0x0 ADD PUSH1 0x2 PUSH2 0x100 EXP DUP2 SLOAD DUP2 PUSH1 0xFF MUL NOT AND SWAP1 DUP4 ISZERO ISZERO MUL OR SWAP1 SSTORE POP PUSH1 0x60 DUP3 ADD MLOAD DUP2 PUSH1 0x0 ADD PUSH1 0x3 PUSH2 0x100 EXP DUP2 SLOAD DUP2 PUSH1 0xFF MUL NOT AND SWAP1 DUP4 ISZERO ISZERO MUL OR SWAP1 SSTORE POP PUSH1 0x80 DUP3 ADD MLOAD DUP2 PUSH1 0x0 ADD PUSH1 0x4 PUSH2 0x100 EXP DUP2 SLOAD DUP2 PUSH1 0xFF MUL NOT AND SWAP1 DUP4 ISZERO ISZERO MUL OR SWAP1 SSTORE POP PUSH1 0xA0 DUP3 ADD MLOAD DUP2 PUSH1 0x0 ADD PUSH1 0x5 PUSH2 0x100 EXP DUP2 SLOAD DUP2 PUSH20 0xFFFFFFFFFFFFFFFFFFFFFFFFFFFFFFFFFFFFFFFF MUL NOT AND SWAP1 DUP4 PUSH20 0xFFFFFFFFFFFFFFFFFFFFFFFFFFFFFFFFFFFFFFFF AND MUL OR SWAP1 SSTORE POP PUSH1 0xC0 DUP3 ADD MLOAD DUP2 PUSH1 0x1 ADD PUSH1 0x0 PUSH2 0x100 EXP DUP2 SLOAD DUP2 PUSH20 0xFFFFFFFFFFFFFFFFFFFFFFFFFFFFFFFFFFFFFFFF MUL NOT AND SWAP1 DUP4 PUSH20 0xFFFFFFFFFFFFFFFFFFFFFFFFFFFFFFFFFFFFFFFF AND MUL OR SWAP1 SSTORE POP PUSH1 0xE0 DUP3 ADD MLOAD DUP2 PUSH1 0x2 ADD PUSH1 0x0 PUSH2 0x100 EXP DUP2 SLOAD DUP2 PUSH20 0xFFFFFFFFFFFFFFFFFFFFFFFFFFFFFFFFFFFFFFFF MUL NOT AND SWAP1 DUP4 PUSH20 0xFFFFFFFFFFFFFFFFFFFFFFFFFFFFFFFFFFFFFFFF AND MUL OR SWAP1 SSTORE POP PUSH2 0x100 DUP3 ADD MLOAD DUP2 PUSH1 0x3 ADD PUSH1 0x0 PUSH2 0x100 EXP DUP2 SLOAD DUP2 PUSH20 0xFFFFFFFFFFFFFFFFFFFFFFFFFFFFFFFFFFFFFFFF MUL NOT AND SWAP1 DUP4 PUSH20 0xFFFFFFFFFFFFFFFFFFFFFFFFFFFFFFFFFFFFFFFF AND MUL OR SWAP1 SSTORE POP PUSH2 0x120 DUP3 ADD MLOAD DUP2 PUSH1 0x4 ADD PUSH1 0x0 PUSH2 0x100 EXP DUP2 SLOAD DUP2 PUSH20 0xFFFFFFFFFFFFFFFFFFFFFFFFFFFFFFFFFFFFFFFF MUL NOT AND SWAP1 DUP4 PUSH20 0xFFFFFFFFFFFFFFFFFFFFFFFFFFFFFFFFFFFFFFFF AND MUL OR SWAP1 SSTORE POP PUSH2 0x140 DUP3 ADD MLOAD DUP2 PUSH1 0x5 ADD PUSH1 0x0 PUSH2 0x100 EXP DUP2 SLOAD DUP2 PUSH20 0xFFFFFFFFFFFFFFFFFFFFFFFFFFFFFFFFFFFFFFFF MUL NOT AND SWAP1 DUP4 PUSH20 0xFFFFFFFFFFFFFFFFFFFFFFFFFFFFFFFFFFFFFFFF AND MUL OR SWAP1 SSTORE POP PUSH2 0x160 DUP3 ADD MLOAD DUP2 PUSH1 0x6 ADD PUSH1 0x0 PUSH2 0x100 EXP DUP2 SLOAD DUP2 PUSH20 0xFFFFFFFFFFFFFFFFFFFFFFFFFFFFFFFFFFFFFFFF MUL NOT AND SWAP1 DUP4 PUSH20 0xFFFFFFFFFFFFFFFFFFFFFFFFFFFFFFFFFFFFFFFF AND MUL OR SWAP1 SSTORE POP PUSH2 0x180 DUP3 ADD MLOAD DUP2 PUSH1 0x7 ADD PUSH1 0x0 PUSH2 0x100 EXP DUP2 SLOAD DUP2 PUSH20 0xFFFFFFFFFFFFFFFFFFFFFFFFFFFFFFFFFFFFFFFF MUL NOT AND SWAP1 DUP4 PUSH20 0xFFFFFFFFFFFFFFFFFFFFFFFFFFFFFFFFFFFFFFFF AND MUL OR SWAP1 SSTORE POP PUSH2 0x1A0 DUP3 ADD MLOAD DUP2 PUSH1 0x8 ADD PUSH1 0x0 PUSH2 0x100 EXP DUP2 SLOAD DUP2 PUSH20 0xFFFFFFFFFFFFFFFFFFFFFFFFFFFFFFFFFFFFFFFF MUL NOT AND SWAP1 DUP4 PUSH20 0xFFFFFFFFFFFFFFFFFFFFFFFFFFFFFFFFFFFFFFFF AND MUL OR SWAP1 SSTORE POP PUSH2 0x1C0 DUP3 ADD MLOAD DUP2 PUSH1 0x9 ADD PUSH1 0x0 PUSH2 0x100 EXP DUP2 SLOAD DUP2 PUSH20 0xFFFFFFFFFFFFFFFFFFFFFFFFFFFFFFFFFFFFFFFF MUL NOT AND SWAP1 DUP4 PUSH20 0xFFFFFFFFFFFFFFFFFFFFFFFFFFFFFFFFFFFFFFFF AND MUL OR SWAP1 SSTORE POP PUSH2 0x1E0 DUP3 ADD MLOAD DUP2 PUSH1 0xA ADD PUSH1 0x0 PUSH2 0x100 EXP DUP2 SLOAD DUP2 PUSH20 0xFFFFFFFFFFFFFFFFFFFFFFFFFFFFFFFFFFFFFFFF MUL NOT AND SWAP1 DUP4 PUSH20 0xFFFFFFFFFFFFFFFFFFFFFFFFFFFFFFFFFFFFFFFF AND MUL OR SWAP1 SSTORE POP POP POP CALLVALUE DUP1 ISZERO PUSH2 0x53F JUMPI PUSH1 0x0 DUP1 REVERT JUMPDEST POP CALLER PUSH1 0x0 DUP1 PUSH2 0x100 EXP DUP2 SLOAD DUP2 PUSH20 0xFFFFFFFFFFFFFFFFFFFFFFFFFFFFFFFFFFFFFFFF MUL NOT AND SWAP1 DUP4 PUSH20 0xFFFFFFFFFFFFFFFFFFFFFFFFFFFFFFFFFFFFFFFF AND MUL OR SWAP1 SSTORE POP PUSH2 0x1B4D DUP1 PUSH2 0x58F PUSH1 0x0 CODECOPY PUSH1 0x0 RETURN INVALID PUSH1 0x80 PUSH1 0x40 MSTORE CALLVALUE DUP1 ISZERO PUSH2 0x10 JUMPI PUSH1 0x0 DUP1 REVERT JUMPDEST POP PUSH1 0x4 CALLDATASIZE LT PUSH2 0x1FB JUMPI PUSH1 0x0 CALLDATALOAD PUSH1 0xE0 SHR DUP1 PUSH4 0x7A22890A GT PUSH2 0x11A JUMPI DUP1 PUSH4 0xA87A86AA GT PUSH2 0xAD JUMPI DUP1 PUSH4 0xC461089C GT PUSH2 0x7C JUMPI DUP1 PUSH4 0xC461089C EQ PUSH2 0x4E4 JUMPI DUP1 PUSH4 0xD2871723 EQ PUSH2 0x502 JUMPI DUP1 PUSH4 0xE2C6CC7A EQ PUSH2 0x50C JUMPI DUP1 PUSH4 0xE62B246C EQ PUSH2 0x52A JUMPI DUP1 PUSH4 0xFA0D08EC EQ PUSH2 0x548 JUMPI PUSH2 0x1FB JUMP JUMPDEST DUP1 PUSH4 0xA87A86AA EQ PUSH2 0x472 JUMPI DUP1 PUSH4 0xB985ACCB EQ PUSH2 0x490 JUMPI DUP1 PUSH4 0xBA08D5E1 EQ PUSH2 0x4AC JUMPI DUP1 PUSH4 0xC1B2456D EQ PUSH2 0x4C8 JUMPI PUSH2 0x1FB JUMP JUMPDEST DUP1 PUSH4 0x941E32B6 GT PUSH2 0xE9 JUMPI DUP1 PUSH4 0x941E32B6 EQ PUSH2 0x3FC JUMPI DUP1 PUSH4 0x94D5BDFF EQ PUSH2 0x41A JUMPI DUP1 PUSH4 0x97CF27B8 EQ PUSH2 0x438 JUMPI DUP1 PUSH4 0xA775088B EQ PUSH2 0x456 JUMPI PUSH2 0x1FB JUMP JUMPDEST DUP1 PUSH4 0x7A22890A EQ PUSH2 0x3AE JUMPI DUP1 PUSH4 0x860249E4 EQ PUSH2 0x3B8 JUMPI DUP1 PUSH4 0x88F8A9A3 EQ PUSH2 0x3D4 JUMPI DUP1 PUSH4 0x8991E441 EQ PUSH2 0x3DE JUMPI PUSH2 0x1FB JUMP JUMPDEST DUP1 PUSH4 0x49E8216A GT PUSH2 0x192 JUMPI DUP1 PUSH4 0x54584199 GT PUSH2 0x161 JUMPI DUP1 PUSH4 0x54584199 EQ PUSH2 0x33C JUMPI DUP1 PUSH4 0x5D246BAD EQ PUSH2 0x358 JUMPI DUP1 PUSH4 0x6AE73038 EQ PUSH2 0x374 JUMPI DUP1 PUSH4 0x79F760A7 EQ PUSH2 0x392 JUMPI PUSH2 0x1FB JUMP JUMPDEST DUP1 PUSH4 0x49E8216A EQ PUSH2 0x2C4 JUMPI DUP1 PUSH4 0x4A2690B9 EQ PUSH2 0x2E2 JUMPI DUP1 PUSH4 0x50B8F5EB EQ PUSH2 0x300 JUMPI DUP1 PUSH4 0x52BAC077 EQ PUSH2 0x31E JUMPI PUSH2 0x1FB JUMP JUMPDEST DUP1 PUSH4 0x1FAE9693 GT PUSH2 0x1CE JUMPI DUP1 PUSH4 0x1FAE9693 EQ PUSH2 0x276 JUMPI DUP1 PUSH4 0x35D355AB EQ PUSH2 0x294 JUMPI DUP1 PUSH4 0x3C49C63E EQ PUSH2 0x29E JUMPI DUP1 PUSH4 0x41DAF6BA EQ PUSH2 0x2A8 JUMPI PUSH2 0x1FB JUMP JUMPDEST DUP1 PUSH4 0x97EE368 EQ PUSH2 0x200 JUMPI DUP1 PUSH4 0xD19DE6F EQ PUSH2 0x21C JUMPI DUP1 PUSH4 0x1C7AC31B EQ PUSH2 0x23A JUMPI DUP1 PUSH4 0x1DD28782 EQ PUSH2 0x258 JUMPI JUMPDEST PUSH1 0x0 DUP1 REVERT JUMPDEST PUSH2 0x21A PUSH1 0x4 DUP1 CALLDATASIZE SUB DUP2 ADD SWAP1 PUSH2 0x215 SWAP2 SWAP1 PUSH2 0x1906 JUMP JUMPDEST PUSH2 0x564 JUMP JUMPDEST STOP JUMPDEST PUSH2 0x224 PUSH2 0x603 JUMP JUMPDEST PUSH1 0x40 MLOAD PUSH2 0x231 SWAP2 SWAP1 PUSH2 0x1942 JUMP JUMPDEST PUSH1 0x40 MLOAD DUP1 SWAP2 SUB SWAP1 RETURN JUMPDEST PUSH2 0x242 PUSH2 0x635 JUMP JUMPDEST PUSH1 0x40 MLOAD PUSH2 0x24F SWAP2 SWAP1 PUSH2 0x1942 JUMP JUMPDEST PUSH1 0x40 MLOAD DUP1 SWAP2 SUB SWAP1 RETURN JUMPDEST PUSH2 0x260 PUSH2 0x667 JUMP JUMPDEST PUSH1 0x40 MLOAD PUSH2 0x26D SWAP2 SWAP1 PUSH2 0x1978 JUMP JUMPDEST PUSH1 0x40 MLOAD DUP1 SWAP2 SUB SWAP1 RETURN JUMPDEST PUSH2 0x27E PUSH2 0x686 JUMP JUMPDEST PUSH1 0x40 MLOAD PUSH2 0x28B SWAP2 SWAP1 PUSH2 0x1978 JUMP JUMPDEST PUSH1 0x40 MLOAD DUP1 SWAP2 SUB SWAP1 RETURN JUMPDEST PUSH2 0x29C PUSH2 0x6A5 JUMP JUMPDEST STOP JUMPDEST PUSH2 0x2A6 PUSH2 0x72F JUMP JUMPDEST STOP JUMPDEST PUSH2 0x2C2 PUSH1 0x4 DUP1 CALLDATASIZE SUB DUP2 ADD SWAP1 PUSH2 0x2BD SWAP2 SWAP1 PUSH2 0x1906 JUMP JUMPDEST PUSH2 0x8DE JUMP JUMPDEST STOP JUMPDEST PUSH2 0x2CC PUSH2 0x97D JUMP JUMPDEST PUSH1 0x40 MLOAD PUSH2 0x2D9 SWAP2 SWAP1 PUSH2 0x1978 JUMP JUMPDEST PUSH1 0x40 MLOAD DUP1 SWAP2 SUB SWAP1 RETURN JUMPDEST PUSH2 0x2EA PUSH2 0x99C JUMP JUMPDEST PUSH1 0x40 MLOAD PUSH2 0x2F7 SWAP2 SWAP1 PUSH2 0x1942 JUMP JUMPDEST PUSH1 0x40 MLOAD DUP1 SWAP2 SUB SWAP1 RETURN JUMPDEST PUSH2 0x308 PUSH2 0x9CE JUMP JUMPDEST PUSH1 0x40 MLOAD PUSH2 0x315 SWAP2 SWAP1 PUSH2 0x1942 JUMP JUMPDEST PUSH1 0x40 MLOAD DUP1 SWAP2 SUB SWAP1 RETURN JUMPDEST PUSH2 0x326 PUSH2 0xA00 JUMP JUMPDEST PUSH1 0x40 MLOAD PUSH2 0x333 SWAP2 SWAP1 PUSH2 0x1978 JUMP JUMPDEST PUSH1 0x40 MLOAD DUP1 SWAP2 SUB SWAP1 RETURN JUMPDEST PUSH2 0x356 PUSH1 0x4 DUP1 CALLDATASIZE SUB DUP2 ADD SWAP1 PUSH2 0x351 SWAP2 SWAP1 PUSH2 0x1906 JUMP JUMPDEST PUSH2 0xA1F JUMP JUMPDEST STOP JUMPDEST PUSH2 0x372 PUSH1 0x4 DUP1 CALLDATASIZE SUB DUP2 ADD SWAP1 PUSH2 0x36D SWAP2 SWAP1 PUSH2 0x1906 JUMP JUMPDEST PUSH2 0xABE JUMP JUMPDEST STOP JUMPDEST PUSH2 0x37C PUSH2 0xB5D JUMP JUMPDEST PUSH1 0x40 MLOAD PUSH2 0x389 SWAP2 SWAP1 PUSH2 0x1942 JUMP JUMPDEST PUSH1 0x40 MLOAD DUP1 SWAP2 SUB SWAP1 RETURN JUMPDEST PUSH2 0x3AC PUSH1 0x4 DUP1 CALLDATASIZE SUB DUP2 ADD SWAP1 PUSH2 0x3A7 SWAP2 SWAP1 PUSH2 0x1906 JUMP JUMPDEST PUSH2 0xB8F JUMP JUMPDEST STOP JUMPDEST PUSH2 0x3B6 PUSH2 0xC2E JUMP JUMPDEST STOP JUMPDEST PUSH2 0x3D2 PUSH1 0x4 DUP1 CALLDATASIZE SUB DUP2 ADD SWAP1 PUSH2 0x3CD SWAP2 SWAP1 PUSH2 0x1906 JUMP JUMPDEST PUSH2 0xCB8 JUMP JUMPDEST STOP JUMPDEST PUSH2 0x3DC PUSH2 0xD57 JUMP JUMPDEST STOP JUMPDEST PUSH2 0x3E6 PUSH2 0xDE1 JUMP JUMPDEST PUSH1 0x40 MLOAD PUSH2 0x3F3 SWAP2 SWAP1 PUSH2 0x1942 JUMP JUMPDEST PUSH1 0x40 MLOAD DUP1 SWAP2 SUB SWAP1 RETURN JUMPDEST PUSH2 0x404 PUSH2 0xE13 JUMP JUMPDEST PUSH1 0x40 MLOAD PUSH2 0x411 SWAP2 SWAP1 PUSH2 0x1978 JUMP JUMPDEST PUSH1 0x40 MLOAD DUP1 SWAP2 SUB SWAP1 RETURN JUMPDEST PUSH2 0x422 PUSH2 0xE32 JUMP JUMPDEST PUSH1 0x40 MLOAD PUSH2 0x42F SWAP2 SWAP1 PUSH2 0x1942 JUMP JUMPDEST PUSH1 0x40 MLOAD DUP1 SWAP2 SUB SWAP1 RETURN JUMPDEST PUSH2 0x440 PUSH2 0xE64 JUMP JUMPDEST PUSH1 0x40 MLOAD PUSH2 0x44D SWAP2 SWAP1 PUSH2 0x1942 JUMP JUMPDEST PUSH1 0x40 MLOAD DUP1 SWAP2 SUB SWAP1 RETURN JUMPDEST PUSH2 0x470 PUSH1 0x4 DUP1 CALLDATASIZE SUB DUP2 ADD SWAP1 PUSH2 0x46B SWAP2 SWAP1 PUSH2 0x1906 JUMP JUMPDEST PUSH2 0xE96 JUMP JUMPDEST STOP JUMPDEST PUSH2 0x47A PUSH2 0xF35 JUMP JUMPDEST PUSH1 0x40 MLOAD PUSH2 0x487 SWAP2 SWAP1 PUSH2 0x1942 JUMP JUMPDEST PUSH1 0x40 MLOAD DUP1 SWAP2 SUB SWAP1 RETURN JUMPDEST PUSH2 0x4AA PUSH1 0x4 DUP1 CALLDATASIZE SUB DUP2 ADD SWAP1 PUSH2 0x4A5 SWAP2 SWAP1 PUSH2 0x1906 JUMP JUMPDEST PUSH2 0xF67 JUMP JUMPDEST STOP JUMPDEST PUSH2 0x4C6 PUSH1 0x4 DUP1 CALLDATASIZE SUB DUP2 ADD SWAP1 PUSH2 0x4C1 SWAP2 SWAP1 PUSH2 0x1906 JUMP JUMPDEST PUSH2 0x1006 JUMP JUMPDEST STOP JUMPDEST PUSH2 0x4E2 PUSH1 0x4 DUP1 CALLDATASIZE SUB DUP2 ADD SWAP1 PUSH2 0x4DD SWAP2 SWAP1 PUSH2 0x1906 JUMP JUMPDEST PUSH2 0x10A4 JUMP JUMPDEST STOP JUMPDEST PUSH2 0x4EC PUSH2 0x1143 JUMP JUMPDEST PUSH1 0x40 MLOAD PUSH2 0x4F9 SWAP2 SWAP1 PUSH2 0x1942 JUMP JUMPDEST PUSH1 0x40 MLOAD DUP1 SWAP2 SUB SWAP1 RETURN JUMPDEST PUSH2 0x50A PUSH2 0x1175 JUMP JUMPDEST STOP JUMPDEST PUSH2 0x514 PUSH2 0x11FF JUMP JUMPDEST PUSH1 0x40 MLOAD PUSH2 0x521 SWAP2 SWAP1 PUSH2 0x1942 JUMP JUMPDEST PUSH1 0x40 MLOAD DUP1 SWAP2 SUB SWAP1 RETURN JUMPDEST PUSH2 0x532 PUSH2 0x1231 JUMP JUMPDEST PUSH1 0x40 MLOAD PUSH2 0x53F SWAP2 SWAP1 PUSH2 0x1AFB JUMP JUMPDEST PUSH1 0x40 MLOAD DUP1 SWAP2 SUB SWAP1 RETURN JUMPDEST PUSH2 0x562 PUSH1 0x4 DUP1 CALLDATASIZE SUB DUP2 ADD SWAP1 PUSH2 0x55D SWAP2 SWAP1 PUSH2 0x1906 JUMP JUMPDEST PUSH2 0x168B JUMP JUMPDEST STOP JUMPDEST PUSH1 0x0 DUP1 SLOAD SWAP1 PUSH2 0x100 EXP SWAP1 DIV PUSH20 0xFFFFFFFFFFFFFFFFFFFFFFFFFFFFFFFFFFFFFFFF AND PUSH20 0xFFFFFFFFFFFFFFFFFFFFFFFFFFFFFFFFFFFFFFFF AND CALLER PUSH20 0xFFFFFFFFFFFFFFFFFFFFFFFFFFFFFFFFFFFFFFFF AND EQ PUSH2 0x5BC JUMPI PUSH1 0x0 DUP1 REVERT JUMPDEST DUP1 PUSH1 0x1 PUSH1 0x2 ADD PUSH1 0x0 PUSH2 0x100 EXP DUP2 SLOAD DUP2 PUSH20 0xFFFFFFFFFFFFFFFFFFFFFFFFFFFFFFFFFFFFFFFF MUL NOT AND SWAP1 DUP4 PUSH20 0xFFFFFFFFFFFFFFFFFFFFFFFFFFFFFFFFFFFFFFFF AND MUL OR SWAP1 SSTORE POP POP JUMP JUMPDEST PUSH1 0x0 DUP1 PUSH1 0x1 SWAP1 POP DUP1 PUSH1 0x9 ADD PUSH1 0x0 SWAP1 SLOAD SWAP1 PUSH2 0x100 EXP SWAP1 DIV PUSH20 0xFFFFFFFFFFFFFFFFFFFFFFFFFFFFFFFFFFFFFFFF AND SWAP2 POP POP SWAP1 JUMP JUMPDEST PUSH1 0x0 DUP1 PUSH1 0x1 SWAP1 POP DUP1 PUSH1 0x6 ADD PUSH1 0x0 SWAP1 SLOAD SWAP1 PUSH2 0x100 EXP SWAP1 DIV PUSH20 0xFFFFFFFFFFFFFFFFFFFFFFFFFFFFFFFFFFFFFFFF AND SWAP2 POP POP SWAP1 JUMP JUMPDEST PUSH1 0x0 DUP1 PUSH1 0x1 SWAP1 POP DUP1 PUSH1 0x0 ADD PUSH1 0x0 SWAP1 SLOAD SWAP1 PUSH2 0x100 EXP SWAP1 DIV PUSH1 0xFF AND SWAP2 POP POP SWAP1 JUMP JUMPDEST PUSH1 0x0 DUP1 PUSH1 0x1 SWAP1 POP DUP1 PUSH1 0x0 ADD PUSH1 0x3 SWAP1 SLOAD SWAP1 PUSH2 0x100 EXP SWAP1 DIV PUSH1 0xFF AND SWAP2 POP POP SWAP1 JUMP JUMPDEST PUSH1 0x0 DUP1 SLOAD SWAP1 PUSH2 0x100 EXP SWAP1 DIV PUSH20 0xFFFFFFFFFFFFFFFFFFFFFFFFFFFFFFFFFFFFFFFF AND PUSH20 0xFFFFFFFFFFFFFFFFFFFFFFFFFFFFFFFFFFFFFFFF AND CALLER PUSH20 0xFFFFFFFFFFFFFFFFFFFFFFFFFFFFFFFFFFFFFFFF AND EQ PUSH2 0x6FD JUMPI PUSH1 0x0 DUP1 REVERT JUMPDEST PUSH1 0x1 PUSH1 0x0 ADD PUSH1 0x2 SWAP1 SLOAD SWAP1 PUSH2 0x100 EXP SWAP1 DIV PUSH1 0xFF AND ISZERO PUSH1 0x1 PUSH1 0x0 ADD PUSH1 0x2 PUSH2 0x100 EXP DUP2 SLOAD DUP2 PUSH1 0xFF MUL NOT AND SWAP1 DUP4 ISZERO ISZERO MUL OR SWAP1 SSTORE POP JUMP JUMPDEST PUSH1 0x0 DUP1 SLOAD SWAP1 PUSH2 0x100 EXP SWAP1 DIV PUSH20 0xFFFFFFFFFFFFFFFFFFFFFFFFFFFFFFFFFFFFFFFF AND PUSH20 0xFFFFFFFFFFFFFFFFFFFFFFFFFFFFFFFFFFFFFFFF AND CALLER PUSH20 0xFFFFFFFFFFFFFFFFFFFFFFFFFFFFFFFFFFFFFFFF AND EQ PUSH2 0x787 JUMPI PUSH1 0x0 DUP1 REVERT JUMPDEST PUSH1 0x0 ISZERO ISZERO PUSH1 0x1 PUSH1 0x0 ADD PUSH1 0x4 SWAP1 SLOAD SWAP1 PUSH2 0x100 EXP SWAP1 DIV PUSH1 0xFF AND ISZERO ISZERO SUB PUSH2 0x832 JUMPI PUSH1 0x1 PUSH1 0x0 ADD PUSH1 0x4 SWAP1 SLOAD SWAP1 PUSH2 0x100 EXP SWAP1 DIV PUSH1 0xFF AND ISZERO PUSH1 0x1 PUSH1 0x0 ADD PUSH1 0x4 PUSH2 0x100 EXP DUP2 SLOAD DUP2 PUSH1 0xFF MUL NOT AND SWAP1 DUP4 ISZERO ISZERO MUL OR SWAP1 SSTORE POP PUSH1 0x1 DUP1 PUSH1 0x0 ADD PUSH1 0x3 PUSH2 0x100 EXP DUP2 SLOAD DUP2 PUSH1 0xFF MUL NOT AND SWAP1 DUP4 ISZERO ISZERO MUL OR SWAP1 SSTORE POP PUSH1 0x0 PUSH1 0x1 PUSH1 0x0 ADD PUSH1 0x1 PUSH2 0x100 EXP DUP2 SLOAD DUP2 PUSH1 0xFF MUL NOT AND SWAP1 DUP4 ISZERO ISZERO MUL OR SWAP1 SSTORE POP PUSH1 0x1 DUP1 PUSH1 0x0 ADD PUSH1 0x2 PUSH2 0x100 EXP DUP2 SLOAD DUP2 PUSH1 0xFF MUL NOT AND SWAP1 DUP4 ISZERO ISZERO MUL OR SWAP1 SSTORE POP PUSH2 0x8DC JUMP JUMPDEST PUSH1 0x1 ISZERO ISZERO PUSH1 0x1 PUSH1 0x0 ADD PUSH1 0x4 SWAP1 SLOAD SWAP1 PUSH2 0x100 EXP SWAP1 DIV PUSH1 0xFF AND ISZERO ISZERO SUB PUSH2 0x8DB JUMPI PUSH1 0x1 PUSH1 0x0 ADD PUSH1 0x4 SWAP1 SLOAD SWAP1 PUSH2 0x100 EXP SWAP1 DIV PUSH1 0xFF AND ISZERO PUSH1 0x1 PUSH1 0x0 ADD PUSH1 0x4 PUSH2 0x100 EXP DUP2 SLOAD DUP2 PUSH1 0xFF MUL NOT AND SWAP1 DUP4 ISZERO ISZERO MUL OR SWAP1 SSTORE POP PUSH1 0x0 PUSH1 0x1 PUSH1 0x0 ADD PUSH1 0x3 PUSH2 0x100 EXP DUP2 SLOAD DUP2 PUSH1 0xFF MUL NOT AND SWAP1 DUP4 ISZERO ISZERO MUL OR SWAP1 SSTORE POP PUSH1 0x0 PUSH1 0x1 PUSH1 0x0 ADD PUSH1 0x1 PUSH2 0x100 EXP DUP2 SLOAD DUP2 PUSH1 0xFF MUL NOT AND SWAP1 DUP4 ISZERO ISZERO MUL OR SWAP1 SSTORE POP PUSH1 0x0 PUSH1 0x1 PUSH1 0x0 ADD PUSH1 0x2 PUSH2 0x100 EXP DUP2 SLOAD DUP2 PUSH1 0xFF MUL NOT AND SWAP1 DUP4 ISZERO ISZERO MUL OR SWAP1 SSTORE POP JUMPDEST JUMPDEST JUMP JUMPDEST PUSH1 0x0 DUP1 SLOAD SWAP1 PUSH2 0x100 EXP SWAP1 DIV PUSH20 0xFFFFFFFFFFFFFFFFFFFFFFFFFFFFFFFFFFFFFFFF AND PUSH20 0xFFFFFFFFFFFFFFFFFFFFFFFFFFFFFFFFFFFFFFFF AND CALLER PUSH20 0xFFFFFFFFFFFFFFFFFFFFFFFFFFFFFFFFFFFFFFFF AND EQ PUSH2 0x936 JUMPI PUSH1 0x0 DUP1 REVERT JUMPDEST DUP1 PUSH1 0x1 PUSH1 0x6 ADD PUSH1 0x0 PUSH2 0x100 EXP DUP2 SLOAD DUP2 PUSH20 0xFFFFFFFFFFFFFFFFFFFFFFFFFFFFFFFFFFFFFFFF MUL NOT AND SWAP1 DUP4 PUSH20 0xFFFFFFFFFFFFFFFFFFFFFFFFFFFFFFFFFFFFFFFF AND MUL OR SWAP1 SSTORE POP POP JUMP JUMPDEST PUSH1 0x0 DUP1 PUSH1 0x1 SWAP1 POP DUP1 PUSH1 0x0 ADD PUSH1 0x1 SWAP1 SLOAD SWAP1 PUSH2 0x100 EXP SWAP1 DIV PUSH1 0xFF AND SWAP2 POP POP SWAP1 JUMP JUMPDEST PUSH1 0x0 DUP1 PUSH1 0x1 SWAP1 POP DUP1 PUSH1 0x5 ADD PUSH1 0x0 SWAP1 SLOAD SWAP1 PUSH2 0x100 EXP SWAP1 DIV PUSH20 0xFFFFFFFFFFFFFFFFFFFFFFFFFFFFFFFFFFFFFFFF AND SWAP2 POP POP SWAP1 JUMP JUMPDEST PUSH1 0x0 DUP1 PUSH1 0x1 SWAP1 POP DUP1 PUSH1 0x1 ADD PUSH1 0x0 SWAP1 SLOAD SWAP1 PUSH2 0x100 EXP SWAP1 DIV PUSH20 0xFFFFFFFFFFFFFFFFFFFFFFFFFFFFFFFFFFFFFFFF AND SWAP2 POP POP SWAP1 JUMP JUMPDEST PUSH1 0x0 DUP1 PUSH1 0x1 SWAP1 POP DUP1 PUSH1 0x0 ADD PUSH1 0x2 SWAP1 SLOAD SWAP1 PUSH2 0x100 EXP SWAP1 DIV PUSH1 0xFF AND SWAP2 POP POP SWAP1 JUMP JUMPDEST PUSH1 0x0 DUP1 SLOAD SWAP1 PUSH2 0x100 EXP SWAP1 DIV PUSH20 0xFFFFFFFFFFFFFFFFFFFFFFFFFFFFFFFFFFFFFFFF AND PUSH20 0xFFFFFFFFFFFFFFFFFFFFFFFFFFFFFFFFFFFFFFFF AND CALLER PUSH20 0xFFFFFFFFFFFFFFFFFFFFFFFFFFFFFFFFFFFFFFFF AND EQ PUSH2 0xA77 JUMPI PUSH1 0x0 DUP1 REVERT JUMPDEST DUP1 PUSH1 0x1 PUSH1 0x9 ADD PUSH1 0x0 PUSH2 0x100 EXP DUP2 SLOAD DUP2 PUSH20 0xFFFFFFFFFFFFFFFFFFFFFFFFFFFFFFFFFFFFFFFF MUL NOT AND SWAP1 DUP4 PUSH20 0xFFFFFFFFFFFFFFFFFFFFFFFFFFFFFFFFFFFFFFFF AND MUL OR SWAP1 SSTORE POP POP JUMP JUMPDEST PUSH1 0x0 DUP1 SLOAD SWAP1 PUSH2 0x100 EXP SWAP1 DIV PUSH20 0xFFFFFFFFFFFFFFFFFFFFFFFFFFFFFFFFFFFFFFFF AND PUSH20 0xFFFFFFFFFFFFFFFFFFFFFFFFFFFFFFFFFFFFFFFF AND CALLER PUSH20 0xFFFFFFFFFFFFFFFFFFFFFFFFFFFFFFFFFFFFFFFF AND EQ PUSH2 0xB16 JUMPI PUSH1 0x0 DUP1 REVERT JUMPDEST DUP1 PUSH1 0x1 PUSH1 0x7 ADD PUSH1 0x0 PUSH2 0x100 EXP DUP2 SLOAD DUP2 PUSH20 0xFFFFFFFFFFFFFFFFFFFFFFFFFFFFFFFFFFFFFFFF MUL NOT AND SWAP1 DUP4 PUSH20 0xFFFFFFFFFFFFFFFFFFFFFFFFFFFFFFFFFFFFFFFF AND MUL OR SWAP1 SSTORE POP POP JUMP JUMPDEST PUSH1 0x0 DUP1 PUSH1 0x1 SWAP1 POP DUP1 PUSH1 0x8 ADD PUSH1 0x0 SWAP1 SLOAD SWAP1 PUSH2 0x100 EXP SWAP1 DIV PUSH20 0xFFFFFFFFFFFFFFFFFFFFFFFFFFFFFFFFFFFFFFFF AND SWAP2 POP POP SWAP1 JUMP JUMPDEST PUSH1 0x0 DUP1 SLOAD SWAP1 PUSH2 0x100 EXP SWAP1 DIV PUSH20 0xFFFFFFFFFFFFFFFFFFFFFFFFFFFFFFFFFFFFFFFF AND PUSH20 0xFFFFFFFFFFFFFFFFFFFFFFFFFFFFFFFFFFFFFFFF AND CALLER PUSH20 0xFFFFFFFFFFFFFFFFFFFFFFFFFFFFFFFFFFFFFFFF AND EQ PUSH2 0xBE7 JUMPI PUSH1 0x0 DUP1 REVERT JUMPDEST DUP1 PUSH1 0x1 PUSH1 0x8 ADD PUSH1 0x0 PUSH2 0x100 EXP DUP2 SLOAD DUP2 PUSH20 0xFFFFFFFFFFFFFFFFFFFFFFFFFFFFFFFFFFFFFFFF MUL NOT AND SWAP1 DUP4 PUSH20 0xFFFFFFFFFFFFFFFFFFFFFFFFFFFFFFFFFFFFFFFF AND MUL OR SWAP1 SSTORE POP POP JUMP JUMPDEST PUSH1 0x0 DUP1 SLOAD SWAP1 PUSH2 0x100 EXP SWAP1 DIV PUSH20 0xFFFFFFFFFFFFFFFFFFFFFFFFFFFFFFFFFFFFFFFF AND PUSH20 0xFFFFFFFFFFFFFFFFFFFFFFFFFFFFFFFFFFFFFFFF AND CALLER PUSH20 0xFFFFFFFFFFFFFFFFFFFFFFFFFFFFFFFFFFFFFFFF AND EQ PUSH2 0xC86 JUMPI PUSH1 0x0 DUP1 REVERT JUMPDEST PUSH1 0x1 PUSH1 0x0 ADD PUSH1 0x3 SWAP1 SLOAD SWAP1 PUSH2 0x100 EXP SWAP1 DIV PUSH1 0xFF AND ISZERO PUSH1 0x1 PUSH1 0x0 ADD PUSH1 0x3 PUSH2 0x100 EXP DUP2 SLOAD DUP2 PUSH1 0xFF MUL NOT AND SWAP1 DUP4 ISZERO ISZERO MUL OR SWAP1 SSTORE POP JUMP JUMPDEST PUSH1 0x0 DUP1 SLOAD SWAP1 PUSH2 0x100 EXP SWAP1 DIV PUSH20 0xFFFFFFFFFFFFFFFFFFFFFFFFFFFFFFFFFFFFFFFF AND PUSH20 0xFFFFFFFFFFFFFFFFFFFFFFFFFFFFFFFFFFFFFFFF AND CALLER PUSH20 0xFFFFFFFFFFFFFFFFFFFFFFFFFFFFFFFFFFFFFFFF AND EQ PUSH2 0xD10 JUMPI PUSH1 0x0 DUP1 REVERT JUMPDEST DUP1 PUSH1 0x1 PUSH1 0x0 ADD PUSH1 0x5 PUSH2 0x100 EXP DUP2 SLOAD DUP2 PUSH20 0xFFFFFFFFFFFFFFFFFFFFFFFFFFFFFFFFFFFFFFFF MUL NOT AND SWAP1 DUP4 PUSH20 0xFFFFFFFFFFFFFFFFFFFFFFFFFFFFFFFFFFFFFFFF AND MUL OR SWAP1 SSTORE POP POP JUMP JUMPDEST PUSH1 0x0 DUP1 SLOAD SWAP1 PUSH2 0x100 EXP SWAP1 DIV PUSH20 0xFFFFFFFFFFFFFFFFFFFFFFFFFFFFFFFFFFFFFFFF AND PUSH20 0xFFFFFFFFFFFFFFFFFFFFFFFFFFFFFFFFFFFFFFFF AND CALLER PUSH20 0xFFFFFFFFFFFFFFFFFFFFFFFFFFFFFFFFFFFFFFFF AND EQ PUSH2 0xDAF JUMPI PUSH1 0x0 DUP1 REVERT JUMPDEST PUSH1 0x1 PUSH1 0x0 ADD PUSH1 0x0 SWAP1 SLOAD SWAP1 PUSH2 0x100 EXP SWAP1 DIV PUSH1 0xFF AND ISZERO PUSH1 0x1 PUSH1 0x0 ADD PUSH1 0x0 PUSH2 0x100 EXP DUP2 SLOAD DUP2 PUSH1 0xFF MUL NOT AND SWAP1 DUP4 ISZERO ISZERO MUL OR SWAP1 SSTORE POP JUMP JUMPDEST PUSH1 0x0 DUP1 PUSH1 0x1 SWAP1 POP DUP1 PUSH1 0x2 ADD PUSH1 0x0 SWAP1 SLOAD SWAP1 PUSH2 0x100 EXP SWAP1 DIV PUSH20 0xFFFFFFFFFFFFFFFFFFFFFFFFFFFFFFFFFFFFFFFF AND SWAP2 POP POP SWAP1 JUMP JUMPDEST PUSH1 0x0 DUP1 PUSH1 0x1 SWAP1 POP DUP1 PUSH1 0x0 ADD PUSH1 0x4 SWAP1 SLOAD SWAP1 PUSH2 0x100 EXP SWAP1 DIV PUSH1 0xFF AND SWAP2 POP POP SWAP1 JUMP JUMPDEST PUSH1 0x0 DUP1 PUSH1 0x1 SWAP1 POP DUP1 PUSH1 0x4 ADD PUSH1 0x0 SWAP1 SLOAD SWAP1 PUSH2 0x100 EXP SWAP1 DIV PUSH20 0xFFFFFFFFFFFFFFFFFFFFFFFFFFFFFFFFFFFFFFFF AND SWAP2 POP POP SWAP1 JUMP JUMPDEST PUSH1 0x0 DUP1 PUSH1 0x1 SWAP1 POP DUP1 PUSH1 0x3 ADD PUSH1 0x0 SWAP1 SLOAD SWAP1 PUSH2 0x100 EXP SWAP1 DIV PUSH20 0xFFFFFFFFFFFFFFFFFFFFFFFFFFFFFFFFFFFFFFFF AND SWAP2 POP POP SWAP1 JUMP JUMPDEST PUSH1 0x0 DUP1 SLOAD SWAP1 PUSH2 0x100 EXP SWAP1 DIV PUSH20 0xFFFFFFFFFFFFFFFFFFFFFFFFFFFFFFFFFFFFFFFF AND PUSH20 0xFFFFFFFFFFFFFFFFFFFFFFFFFFFFFFFFFFFFFFFF AND CALLER PUSH20 0xFFFFFFFFFFFFFFFFFFFFFFFFFFFFFFFFFFFFFFFF AND EQ PUSH2 0xEEE JUMPI PUSH1 0x0 DUP1 REVERT JUMPDEST DUP1 PUSH1 0x1 PUSH1 0xA ADD PUSH1 0x0 PUSH2 0x100 EXP DUP2 SLOAD DUP2 PUSH20 0xFFFFFFFFFFFFFFFFFFFFFFFFFFFFFFFFFFFFFFFF MUL NOT AND SWAP1 DUP4 PUSH20 0xFFFFFFFFFFFFFFFFFFFFFFFFFFFFFFFFFFFFFFFF AND MUL OR SWAP1 SSTORE POP POP JUMP JUMPDEST PUSH1 0x0 DUP1 PUSH1 0x1 SWAP1 POP DUP1 PUSH1 0xA ADD PUSH1 0x0 SWAP1 SLOAD SWAP1 PUSH2 0x100 EXP SWAP1 DIV PUSH20 0xFFFFFFFFFFFFFFFFFFFFFFFFFFFFFFFFFFFFFFFF AND SWAP2 POP POP SWAP1 JUMP JUMPDEST PUSH1 0x0 DUP1 SLOAD SWAP1 PUSH2 0x100 EXP SWAP1 DIV PUSH20 0xFFFFFFFFFFFFFFFFFFFFFFFFFFFFFFFFFFFFFFFF AND PUSH20 0xFFFFFFFFFFFFFFFFFFFFFFFFFFFFFFFFFFFFFFFF AND CALLER PUSH20 0xFFFFFFFFFFFFFFFFFFFFFFFFFFFFFFFFFFFFFFFF AND EQ PUSH2 0xFBF JUMPI PUSH1 0x0 DUP1 REVERT JUMPDEST DUP1 PUSH1 0x1 PUSH1 0x5 ADD PUSH1 0x0 PUSH2 0x100 EXP DUP2 SLOAD DUP2 PUSH20 0xFFFFFFFFFFFFFFFFFFFFFFFFFFFFFFFFFFFFFFFF MUL NOT AND SWAP1 DUP4 PUSH20 0xFFFFFFFFFFFFFFFFFFFFFFFFFFFFFFFFFFFFFFFF AND MUL OR SWAP1 SSTORE POP POP JUMP JUMPDEST PUSH1 0x0 DUP1 SLOAD SWAP1 PUSH2 0x100 EXP SWAP1 DIV PUSH20 0xFFFFFFFFFFFFFFFFFFFFFFFFFFFFFFFFFFFFFFFF AND PUSH20 0xFFFFFFFFFFFFFFFFFFFFFFFFFFFFFFFFFFFFFFFF AND CALLER PUSH20 0xFFFFFFFFFFFFFFFFFFFFFFFFFFFFFFFFFFFFFFFF AND EQ PUSH2 0x105E JUMPI PUSH1 0x0 DUP1 REVERT JUMPDEST DUP1 PUSH1 0x1 DUP1 ADD PUSH1 0x0 PUSH2 0x100 EXP DUP2 SLOAD DUP2 PUSH20 0xFFFFFFFFFFFFFFFFFFFFFFFFFFFFFFFFFFFFFFFF MUL NOT AND SWAP1 DUP4 PUSH20 0xFFFFFFFFFFFFFFFFFFFFFFFFFFFFFFFFFFFFFFFF AND MUL OR SWAP1 SSTORE POP POP JUMP JUMPDEST PUSH1 0x0 DUP1 SLOAD SWAP1 PUSH2 0x100 EXP SWAP1 DIV PUSH20 0xFFFFFFFFFFFFFFFFFFFFFFFFFFFFFFFFFFFFFFFF AND PUSH20 0xFFFFFFFFFFFFFFFFFFFFFFFFFFFFFFFFFFFFFFFF AND CALLER PUSH20 0xFFFFFFFFFFFFFFFFFFFFFFFFFFFFFFFFFFFFFFFF AND EQ PUSH2 0x10FC JUMPI PUSH1 0x0 DUP1 REVERT JUMPDEST DUP1 PUSH1 0x1 PUSH1 0x4 ADD PUSH1 0x0 PUSH2 0x100 EXP DUP2 SLOAD DUP2 PUSH20 0xFFFFFFFFFFFFFFFFFFFFFFFFFFFFFFFFFFFFFFFF MUL NOT AND SWAP1 DUP4 PUSH20 0xFFFFFFFFFFFFFFFFFFFFFFFFFFFFFFFFFFFFFFFF AND MUL OR SWAP1 SSTORE POP POP JUMP JUMPDEST PUSH1 0x0 DUP1 PUSH1 0x1 SWAP1 POP DUP1 PUSH1 0x0 ADD PUSH1 0x5 SWAP1 SLOAD SWAP1 PUSH2 0x100 EXP SWAP1 DIV PUSH20 0xFFFFFFFFFFFFFFFFFFFFFFFFFFFFFFFFFFFFFFFF AND SWAP2 POP POP SWAP1 JUMP JUMPDEST PUSH1 0x0 DUP1 SLOAD SWAP1 PUSH2 0x100 EXP SWAP1 DIV PUSH20 0xFFFFFFFFFFFFFFFFFFFFFFFFFFFFFFFFFFFFFFFF AND PUSH20 0xFFFFFFFFFFFFFFFFFFFFFFFFFFFFFFFFFFFFFFFF AND CALLER PUSH20 0xFFFFFFFFFFFFFFFFFFFFFFFFFFFFFFFFFFFFFFFF AND EQ PUSH2 0x11CD JUMPI PUSH1 0x0 DUP1 REVERT JUMPDEST PUSH1 0x1 PUSH1 0x0 ADD PUSH1 0x1 SWAP1 SLOAD SWAP1 PUSH2 0x100 EXP SWAP1 DIV PUSH1 0xFF AND ISZERO PUSH1 0x1 PUSH1 0x0 ADD PUSH1 0x1 PUSH2 0x100 EXP DUP2 SLOAD DUP2 PUSH1 0xFF MUL NOT AND SWAP1 DUP4 ISZERO ISZERO MUL OR SWAP1 SSTORE POP JUMP JUMPDEST PUSH1 0x0 DUP1 PUSH1 0x1 SWAP1 POP DUP1 PUSH1 0x7 ADD PUSH1 0x0 SWAP1 SLOAD SWAP1 PUSH2 0x100 EXP SWAP1 DIV PUSH20 0xFFFFFFFFFFFFFFFFFFFFFFFFFFFFFFFFFFFFFFFF AND SWAP2 POP POP SWAP1 JUMP JUMPDEST PUSH2 0x1239 PUSH2 0x172A JUMP JUMPDEST PUSH1 0x0 PUSH1 0x1 SWAP1 POP DUP1 PUSH1 0x40 MLOAD DUP1 PUSH2 0x200 ADD PUSH1 0x40 MSTORE SWAP1 DUP2 PUSH1 0x0 DUP3 ADD PUSH1 0x0 SWAP1 SLOAD SWAP1 PUSH2 0x100 EXP SWAP1 DIV PUSH1 0xFF AND ISZERO ISZERO ISZERO ISZERO DUP2 MSTORE PUSH1 0x20 ADD PUSH1 0x0 DUP3 ADD PUSH1 0x1 SWAP1 SLOAD SWAP1 PUSH2 0x100 EXP SWAP1 DIV PUSH1 0xFF AND ISZERO ISZERO ISZERO ISZERO DUP2 MSTORE PUSH1 0x20 ADD PUSH1 0x0 DUP3 ADD PUSH1 0x2 SWAP1 SLOAD SWAP1 PUSH2 0x100 EXP SWAP1 DIV PUSH1 0xFF AND ISZERO ISZERO ISZERO ISZERO DUP2 MSTORE PUSH1 0x20 ADD PUSH1 0x0 DUP3 ADD PUSH1 0x3 SWAP1 SLOAD SWAP1 PUSH2 0x100 EXP SWAP1 DIV PUSH1 0xFF AND ISZERO ISZERO ISZERO ISZERO DUP2 MSTORE PUSH1 0x20 ADD PUSH1 0x0 DUP3 ADD PUSH1 0x4 SWAP1 SLOAD SWAP1 PUSH2 0x100 EXP SWAP1 DIV PUSH1 0xFF AND ISZERO ISZERO ISZERO ISZERO DUP2 MSTORE PUSH1 0x20 ADD PUSH1 0x0 DUP3 ADD PUSH1 0x5 SWAP1 SLOAD SWAP1 PUSH2 0x100 EXP SWAP1 DIV PUSH20 0xFFFFFFFFFFFFFFFFFFFFFFFFFFFFFFFFFFFFFFFF AND PUSH20 0xFFFFFFFFFFFFFFFFFFFFFFFFFFFFFFFFFFFFFFFF AND PUSH20 0xFFFFFFFFFFFFFFFFFFFFFFFFFFFFFFFFFFFFFFFF AND DUP2 MSTORE PUSH1 0x20 ADD PUSH1 0x1 DUP3 ADD PUSH1 0x0 SWAP1 SLOAD SWAP1 PUSH2 0x100 EXP SWAP1 DIV PUSH20 0xFFFFFFFFFFFFFFFFFFFFFFFFFFFFFFFFFFFFFFFF AND PUSH20 0xFFFFFFFFFFFFFFFFFFFFFFFFFFFFFFFFFFFFFFFF AND PUSH20 0xFFFFFFFFFFFFFFFFFFFFFFFFFFFFFFFFFFFFFFFF AND DUP2 MSTORE PUSH1 0x20 ADD PUSH1 0x2 DUP3 ADD PUSH1 0x0 SWAP1 SLOAD SWAP1 PUSH2 0x100 EXP SWAP1 DIV PUSH20 0xFFFFFFFFFFFFFFFFFFFFFFFFFFFFFFFFFFFFFFFF AND PUSH20 0xFFFFFFFFFFFFFFFFFFFFFFFFFFFFFFFFFFFFFFFF AND PUSH20 0xFFFFFFFFFFFFFFFFFFFFFFFFFFFFFFFFFFFFFFFF AND DUP2 MSTORE PUSH1 0x20 ADD PUSH1 0x3 DUP3 ADD PUSH1 0x0 SWAP1 SLOAD SWAP1 PUSH2 0x100 EXP SWAP1 DIV PUSH20 0xFFFFFFFFFFFFFFFFFFFFFFFFFFFFFFFFFFFFFFFF AND PUSH20 0xFFFFFFFFFFFFFFFFFFFFFFFFFFFFFFFFFFFFFFFF AND PUSH20 0xFFFFFFFFFFFFFFFFFFFFFFFFFFFFFFFFFFFFFFFF AND DUP2 MSTORE PUSH1 0x20 ADD PUSH1 0x4 DUP3 ADD PUSH1 0x0 SWAP1 SLOAD SWAP1 PUSH2 0x100 EXP SWAP1 DIV PUSH20 0xFFFFFFFFFFFFFFFFFFFFFFFFFFFFFFFFFFFFFFFF AND PUSH20 0xFFFFFFFFFFFFFFFFFFFFFFFFFFFFFFFFFFFFFFFF AND PUSH20 0xFFFFFFFFFFFFFFFFFFFFFFFFFFFFFFFFFFFFFFFF AND DUP2 MSTORE PUSH1 0x20 ADD PUSH1 0x5 DUP3 ADD PUSH1 0x0 SWAP1 SLOAD SWAP1 PUSH2 0x100 EXP SWAP1 DIV PUSH20 0xFFFFFFFFFFFFFFFFFFFFFFFFFFFFFFFFFFFFFFFF AND PUSH20 0xFFFFFFFFFFFFFFFFFFFFFFFFFFFFFFFFFFFFFFFF AND PUSH20 0xFFFFFFFFFFFFFFFFFFFFFFFFFFFFFFFFFFFFFFFF AND DUP2 MSTORE PUSH1 0x20 ADD PUSH1 0x6 DUP3 ADD PUSH1 0x0 SWAP1 SLOAD SWAP1 PUSH2 0x100 EXP SWAP1 DIV PUSH20 0xFFFFFFFFFFFFFFFFFFFFFFFFFFFFFFFFFFFFFFFF AND PUSH20 0xFFFFFFFFFFFFFFFFFFFFFFFFFFFFFFFFFFFFFFFF AND PUSH20 0xFFFFFFFFFFFFFFFFFFFFFFFFFFFFFFFFFFFFFFFF AND DUP2 MSTORE PUSH1 0x20 ADD PUSH1 0x7 DUP3 ADD PUSH1 0x0 SWAP1 SLOAD SWAP1 PUSH2 0x100 EXP SWAP1 DIV PUSH20 0xFFFFFFFFFFFFFFFFFFFFFFFFFFFFFFFFFFFFFFFF AND PUSH20 0xFFFFFFFFFFFFFFFFFFFFFFFFFFFFFFFFFFFFFFFF AND PUSH20 0xFFFFFFFFFFFFFFFFFFFFFFFFFFFFFFFFFFFFFFFF AND DUP2 MSTORE PUSH1 0x20 ADD PUSH1 0x8 DUP3 ADD PUSH1 0x0 SWAP1 SLOAD SWAP1 PUSH2 0x100 EXP SWAP1 DIV PUSH20 0xFFFFFFFFFFFFFFFFFFFFFFFFFFFFFFFFFFFFFFFF AND PUSH20 0xFFFFFFFFFFFFFFFFFFFFFFFFFFFFFFFFFFFFFFFF AND PUSH20 0xFFFFFFFFFFFFFFFFFFFFFFFFFFFFFFFFFFFFFFFF AND DUP2 MSTORE PUSH1 0x20 ADD PUSH1 0x9 DUP3 ADD PUSH1 0x0 SWAP1 SLOAD SWAP1 PUSH2 0x100 EXP SWAP1 DIV PUSH20 0xFFFFFFFFFFFFFFFFFFFFFFFFFFFFFFFFFFFFFFFF AND PUSH20 0xFFFFFFFFFFFFFFFFFFFFFFFFFFFFFFFFFFFFFFFF AND PUSH20 0xFFFFFFFFFFFFFFFFFFFFFFFFFFFFFFFFFFFFFFFF AND DUP2 MSTORE PUSH1 0x20 ADD PUSH1 0xA DUP3 ADD PUSH1 0x0 SWAP1 SLOAD SWAP1 PUSH2 0x100 EXP SWAP1 DIV PUSH20 0xFFFFFFFFFFFFFFFFFFFFFFFFFFFFFFFFFFFFFFFF AND PUSH20 0xFFFFFFFFFFFFFFFFFFFFFFFFFFFFFFFFFFFFFFFF AND PUSH20 0xFFFFFFFFFFFFFFFFFFFFFFFFFFFFFFFFFFFFFFFF AND DUP2 MSTORE POP POP SWAP2 POP POP SWAP1 JUMP JUMPDEST PUSH1 0x0 DUP1 SLOAD SWAP1 PUSH2 0x100 EXP SWAP1 DIV PUSH20 0xFFFFFFFFFFFFFFFFFFFFFFFFFFFFFFFFFFFFFFFF AND PUSH20 0xFFFFFFFFFFFFFFFFFFFFFFFFFFFFFFFFFFFFFFFF AND CALLER PUSH20 0xFFFFFFFFFFFFFFFFFFFFFFFFFFFFFFFFFFFFFFFF AND EQ PUSH2 0x16E3 JUMPI PUSH1 0x0 DUP1 REVERT JUMPDEST DUP1 PUSH1 0x1 PUSH1 0x3 ADD PUSH1 0x0 PUSH2 0x100 EXP DUP2 SLOAD DUP2 PUSH20 0xFFFFFFFFFFFFFFFFFFFFFFFFFFFFFFFFFFFFFFFF MUL NOT AND SWAP1 DUP4 PUSH20 0xFFFFFFFFFFFFFFFFFFFFFFFFFFFFFFFFFFFFFFFF AND MUL OR SWAP1 SSTORE POP POP JUMP JUMPDEST PUSH1 0x40 MLOAD DUP1 PUSH2 0x200 ADD PUSH1 0x40 MSTORE DUP1 PUSH1 0x0 ISZERO ISZERO DUP2 MSTORE PUSH1 0x20 ADD PUSH1 0x0 ISZERO ISZERO DUP2 MSTORE PUSH1 0x20 ADD PUSH1 0x0 ISZERO ISZERO DUP2 MSTORE PUSH1 0x20 ADD PUSH1 0x0 ISZERO ISZERO DUP2 MSTORE PUSH1 0x20 ADD PUSH1 0x0 ISZERO ISZERO DUP2 MSTORE PUSH1 0x20 ADD PUSH1 0x0 PUSH20 0xFFFFFFFFFFFFFFFFFFFFFFFFFFFFFFFFFFFFFFFF AND DUP2 MSTORE PUSH1 0x20 ADD PUSH1 0x0 PUSH20 0xFFFFFFFFFFFFFFFFFFFFFFFFFFFFFFFFFFFFFFFF AND DUP2 MSTORE PUSH1 0x20 ADD PUSH1 0x0 PUSH20 0xFFFFFFFFFFFFFFFFFFFFFFFFFFFFFFFFFFFFFFFF AND DUP2 MSTORE PUSH1 0x20 ADD PUSH1 0x0 PUSH20 0xFFFFFFFFFFFFFFFFFFFFFFFFFFFFFFFFFFFFFFFF AND DUP2 MSTORE PUSH1 0x20 ADD PUSH1 0x0 PUSH20 0xFFFFFFFFFFFFFFFFFFFFFFFFFFFFFFFFFFFFFFFF AND DUP2 MSTORE PUSH1 0x20 ADD PUSH1 0x0 PUSH20 0xFFFFFFFFFFFFFFFFFFFFFFFFFFFFFFFFFFFFFFFF AND DUP2 MSTORE PUSH1 0x20 ADD PUSH1 0x0 PUSH20 0xFFFFFFFFFFFFFFFFFFFFFFFFFFFFFFFFFFFFFFFF AND DUP2 MSTORE PUSH1 0x20 ADD PUSH1 0x0 PUSH20 0xFFFFFFFFFFFFFFFFFFFFFFFFFFFFFFFFFFFFFFFF AND DUP2 MSTORE PUSH1 0x20 ADD PUSH1 0x0 PUSH20 0xFFFFFFFFFFFFFFFFFFFFFFFFFFFFFFFFFFFFFFFF AND DUP2 MSTORE PUSH1 0x20 ADD PUSH1 0x0 PUSH20 0xFFFFFFFFFFFFFFFFFFFFFFFFFFFFFFFFFFFFFFFF AND DUP2 MSTORE PUSH1 0x20 ADD PUSH1 0x0 PUSH20 0xFFFFFFFFFFFFFFFFFFFFFFFFFFFFFFFFFFFFFFFF AND DUP2 MSTORE POP SWAP1 JUMP JUMPDEST PUSH1 0x0 DUP1 REVERT JUMPDEST PUSH1 0x0 PUSH20 0xFFFFFFFFFFFFFFFFFFFFFFFFFFFFFFFFFFFFFFFF DUP3 AND SWAP1 POP SWAP2 SWAP1 POP JUMP JUMPDEST PUSH1 0x0 PUSH2 0x18D3 DUP3 PUSH2 0x18A8 JUMP JUMPDEST SWAP1 POP SWAP2 SWAP1 POP JUMP JUMPDEST PUSH2 0x18E3 DUP2 PUSH2 0x18C8 JUMP JUMPDEST DUP2 EQ PUSH2 0x18EE JUMPI PUSH1 0x0 DUP1 REVERT JUMPDEST POP JUMP JUMPDEST PUSH1 0x0 DUP2 CALLDATALOAD SWAP1 POP PUSH2 0x1900 DUP2 PUSH2 0x18DA JUMP JUMPDEST SWAP3 SWAP2 POP POP JUMP JUMPDEST PUSH1 0x0 PUSH1 0x20 DUP3 DUP5 SUB SLT ISZERO PUSH2 0x191C JUMPI PUSH2 0x191B PUSH2 0x18A3 JUMP JUMPDEST JUMPDEST PUSH1 0x0 PUSH2 0x192A DUP5 DUP3 DUP6 ADD PUSH2 0x18F1 JUMP JUMPDEST SWAP2 POP POP SWAP3 SWAP2 POP POP JUMP JUMPDEST PUSH2 0x193C DUP2 PUSH2 0x18C8 JUMP JUMPDEST DUP3 MSTORE POP POP JUMP JUMPDEST PUSH1 0x0 PUSH1 0x20 DUP3 ADD SWAP1 POP PUSH2 0x1957 PUSH1 0x0 DUP4 ADD DUP5 PUSH2 0x1933 JUMP JUMPDEST SWAP3 SWAP2 POP POP JUMP JUMPDEST PUSH1 0x0 DUP2 ISZERO ISZERO SWAP1 POP SWAP2 SWAP1 POP JUMP JUMPDEST PUSH2 0x1972 DUP2 PUSH2 0x195D JUMP JUMPDEST DUP3 MSTORE POP POP JUMP JUMPDEST PUSH1 0x0 PUSH1 0x20 DUP3 ADD SWAP1 POP PUSH2 0x198D PUSH1 0x0 DUP4 ADD DUP5 PUSH2 0x1969 JUMP JUMPDEST SWAP3 SWAP2 POP POP JUMP JUMPDEST PUSH2 0x199C DUP2 PUSH2 0x195D JUMP JUMPDEST DUP3 MSTORE POP POP JUMP JUMPDEST PUSH2 0x19AB DUP2 PUSH2 0x18C8 JUMP JUMPDEST DUP3 MSTORE POP POP JUMP JUMPDEST PUSH2 0x200 DUP3 ADD PUSH1 0x0 DUP3 ADD MLOAD PUSH2 0x19C8 PUSH1 0x0 DUP6 ADD DUP3 PUSH2 0x1993 JUMP JUMPDEST POP PUSH1 0x20 DUP3 ADD MLOAD PUSH2 0x19DB PUSH1 0x20 DUP6 ADD DUP3 PUSH2 0x1993 JUMP JUMPDEST POP PUSH1 0x40 DUP3 ADD MLOAD PUSH2 0x19EE PUSH1 0x40 DUP6 ADD DUP3 PUSH2 0x1993 JUMP JUMPDEST POP PUSH1 0x60 DUP3 ADD MLOAD PUSH2 0x1A01 PUSH1 0x60 DUP6 ADD DUP3 PUSH2 0x1993 JUMP JUMPDEST POP PUSH1 0x80 DUP3 ADD MLOAD PUSH2 0x1A14 PUSH1 0x80 DUP6 ADD DUP3 PUSH2 0x1993 JUMP JUMPDEST POP PUSH1 0xA0 DUP3 ADD MLOAD PUSH2 0x1A27 PUSH1 0xA0 DUP6 ADD DUP3 PUSH2 0x19A2 JUMP JUMPDEST POP PUSH1 0xC0 DUP3 ADD MLOAD PUSH2 0x1A3A PUSH1 0xC0 DUP6 ADD DUP3 PUSH2 0x19A2 JUMP JUMPDEST POP PUSH1 0xE0 DUP3 ADD MLOAD PUSH2 0x1A4D PUSH1 0xE0 DUP6 ADD DUP3 PUSH2 0x19A2 JUMP JUMPDEST POP PUSH2 0x100 DUP3 ADD MLOAD PUSH2 0x1A62 PUSH2 0x100 DUP6 ADD DUP3 PUSH2 0x19A2 JUMP JUMPDEST POP PUSH2 0x120 DUP3 ADD MLOAD PUSH2 0x1A77 PUSH2 0x120 DUP6 ADD DUP3 PUSH2 0x19A2 JUMP JUMPDEST POP PUSH2 0x140 DUP3 ADD MLOAD PUSH2 0x1A8C PUSH2 0x140 DUP6 ADD DUP3 PUSH2 0x19A2 JUMP JUMPDEST POP PUSH2 0x160 DUP3 ADD MLOAD PUSH2 0x1AA1 PUSH2 0x160 DUP6 ADD DUP3 PUSH2 0x19A2 JUMP JUMPDEST POP PUSH2 0x180 DUP3 ADD MLOAD PUSH2 0x1AB6 PUSH2 0x180 DUP6 ADD DUP3 PUSH2 0x19A2 JUMP JUMPDEST POP PUSH2 0x1A0 DUP3 ADD MLOAD PUSH2 0x1ACB PUSH2 0x1A0 DUP6 ADD DUP3 PUSH2 0x19A2 JUMP JUMPDEST POP PUSH2 0x1C0 DUP3 ADD MLOAD PUSH2 0x1AE0 PUSH2 0x1C0 DUP6 ADD DUP3 PUSH2 0x19A2 JUMP JUMPDEST POP PUSH2 0x1E0 DUP3 ADD MLOAD PUSH2 0x1AF5 PUSH2 0x1E0 DUP6 ADD DUP3 PUSH2 0x19A2 JUMP JUMPDEST POP POP POP POP JUMP JUMPDEST PUSH1 0x0 PUSH2 0x200 DUP3 ADD SWAP1 POP PUSH2 0x1B11 PUSH1 0x0 DUP4 ADD DUP5 PUSH2 0x19B1 JUMP JUMPDEST SWAP3 SWAP2 POP POP JUMP INVALID LOG2 PUSH5 0x6970667358 0x22 SLT KECCAK256 0xBA PUSH13 0xCB8F8F8AEDD6803D83D57FAA12 SHL 0xEA STATICCALL 0xE6 RETURNDATACOPY 0xE2 0xB9 0xEF SHR PUSH9 0xAFBEB5ABF49BB96473 PUSH16 0x6C634300081000330000000000000000 "
				},
				"gasEstimates": {
					"creation": {
						"codeDepositCost": "1397800",
						"executionCost": "414849",
						"totalCost": "1812649"
					},
					"external": {
						"gameprofitsExperimentSettings()": "2631",
						"gameprofitsFairPlaySettings()": "2632",
						"gameprofitsFairSoulsActSettings()": "2630",
						"gameprofitsFairValueSettings()": "2629",
						"gameprofitsGoverenenceSettings()": "2653",
						"gameprofitsIchoroniumTableSettings()": "2630",
						"gameprofitsMasterVideoGamesSettings()": "2586",
						"gameprofitsMetaVerseSettings()": "2608",
						"gameprofitsMetaVerseUniverseItems()": "2609",
						"gameprofitsPremiumExchangeTraderSettings()": "2610",
						"gameprofitsReturnSettings()": "infinite",
						"gameprofitsfinanceSettings()": "2635",
						"isgameNetworkActive()": "2611",
						"isgamesAreCoolingDown()": "2594",
						"isgamesAreDeactivated()": "2660",
						"isgamesAreOn()": "2594",
						"isgamesKillSwitch()": "2593",
						"switchgameNetworkActive()": "28819",
						"switchgameprofitsExperimentSettings(address)": "26984",
						"switchgameprofitsFairPlaySettings(address)": "27007",
						"switchgameprofitsFairSoulsActSettings(address)": "27006",
						"switchgameprofitsFairValueSettings(address)": "26962",
						"switchgameprofitsGoverenenceSettings(address)": "26942",
						"switchgameprofitsIchoroniumTableSettings(address)": "27027",
						"switchgameprofitsMasterVideoGamesSettings(address)": "27006",
						"switchgameprofitsMetaVerseSettings(address)": "27006",
						"switchgameprofitsMetaVerseUniverseItems(address)": "26962",
						"switchgameprofitsPremiumExchangeTraderSettings(address)": "26940",
						"switchgameprofitsfinanceSettings(address)": "27013",
						"switchgamesAreCoolingDown()": "28875",
						"switchgamesAreDeactivated()": "28897",
						"switchgamesAreOn()": "28895",
						"switchgamesKillSwitch()": "106343"
					}
				},
				"methodIdentifiers": {
					"gameprofitsExperimentSettings()": "50b8f5eb",
					"gameprofitsFairPlaySettings()": "1c7ac31b",
					"gameprofitsFairSoulsActSettings()": "6ae73038",
					"gameprofitsFairValueSettings()": "e2c6cc7a",
					"gameprofitsGoverenenceSettings()": "8991e441",
					"gameprofitsIchoroniumTableSettings()": "97cf27b8",
					"gameprofitsMasterVideoGamesSettings()": "a87a86aa",
					"gameprofitsMetaVerseSettings()": "94d5bdff",
					"gameprofitsMetaVerseUniverseItems()": "4a2690b9",
					"gameprofitsPremiumExchangeTraderSettings()": "0d19de6f",
					"gameprofitsReturnSettings()": "e62b246c",
					"gameprofitsfinanceSettings()": "c461089c",
					"isgameNetworkActive()": "1dd28782",
					"isgamesAreCoolingDown()": "1fae9693",
					"isgamesAreDeactivated()": "52bac077",
					"isgamesAreOn()": "49e8216a",
					"isgamesKillSwitch()": "941e32b6",
					"switchgameNetworkActive()": "88f8a9a3",
					"switchgameprofitsExperimentSettings(address)": "ba08d5e1",
					"switchgameprofitsFairPlaySettings(address)": "41daf6ba",
					"switchgameprofitsFairSoulsActSettings(address)": "79f760a7",
					"switchgameprofitsFairValueSettings(address)": "5d246bad",
					"switchgameprofitsGoverenenceSettings(address)": "097ee368",
					"switchgameprofitsIchoroniumTableSettings(address)": "fa0d08ec",
					"switchgameprofitsMasterVideoGamesSettings(address)": "a775088b",
					"switchgameprofitsMetaVerseSettings(address)": "c1b2456d",
					"switchgameprofitsMetaVerseUniverseItems(address)": "b985accb",
					"switchgameprofitsPremiumExchangeTraderSettings(address)": "54584199",
					"switchgameprofitsfinanceSettings(address)": "860249e4",
					"switchgamesAreCoolingDown()": "7a22890a",
					"switchgamesAreDeactivated()": "35d355ab",
					"switchgamesAreOn()": "d2871723",
					"switchgamesKillSwitch()": "3c49c63e"
				}
			},
			"storageLayout": {
				"storage": [
					{
						"astId": 3,
						"contract": "gameprofits-galactic-spdgcs-contracts/governence/gameProfitsGalacticNetworkSettings.sol:gameprofitsGalacticNetworkSettings",
						"label": "owner",
						"offset": 0,
						"slot": "0",
						"type": "t_address"
					},
					{
						"astId": 57,
						"contract": "gameprofits-galactic-spdgcs-contracts/governence/gameProfitsGalacticNetworkSettings.sol:gameprofitsGalacticNetworkSettings",
						"label": "gameprofitsNetworkSettings",
						"offset": 0,
						"slot": "1",
						"type": "t_struct(gameprofitsSettings)36_storage"
					}
				],
				"types": {
					"t_address": {
						"encoding": "inplace",
						"label": "address",
						"numberOfBytes": "20"
					},
					"t_bool": {
						"encoding": "inplace",
						"label": "bool",
						"numberOfBytes": "1"
					},
					"t_struct(gameprofitsSettings)36_storage": {
						"encoding": "inplace",
						"label": "struct gameprofitsGalacticNetworkSettings.gameprofitsSettings",
						"members": [
							{
								"astId": 5,
								"contract": "gameprofits-galactic-spdgcs-contracts/governence/gameProfitsGalacticNetworkSettings.sol:gameprofitsGalacticNetworkSettings",
								"label": "gameNetworkActive",
								"offset": 0,
								"slot": "0",
								"type": "t_bool"
							},
							{
								"astId": 7,
								"contract": "gameprofits-galactic-spdgcs-contracts/governence/gameProfitsGalacticNetworkSettings.sol:gameprofitsGalacticNetworkSettings",
								"label": "gamesAreOn",
								"offset": 1,
								"slot": "0",
								"type": "t_bool"
							},
							{
								"astId": 9,
								"contract": "gameprofits-galactic-spdgcs-contracts/governence/gameProfitsGalacticNetworkSettings.sol:gameprofitsGalacticNetworkSettings",
								"label": "gamesAreDeactivated",
								"offset": 2,
								"slot": "0",
								"type": "t_bool"
							},
							{
								"astId": 11,
								"contract": "gameprofits-galactic-spdgcs-contracts/governence/gameProfitsGalacticNetworkSettings.sol:gameprofitsGalacticNetworkSettings",
								"label": "gamesAreCoolingDown",
								"offset": 3,
								"slot": "0",
								"type": "t_bool"
							},
							{
								"astId": 13,
								"contract": "gameprofits-galactic-spdgcs-contracts/governence/gameProfitsGalacticNetworkSettings.sol:gameprofitsGalacticNetworkSettings",
								"label": "gamesKillSwitch",
								"offset": 4,
								"slot": "0",
								"type": "t_bool"
							},
							{
								"astId": 15,
								"contract": "gameprofits-galactic-spdgcs-contracts/governence/gameProfitsGalacticNetworkSettings.sol:gameprofitsGalacticNetworkSettings",
								"label": "gameprofitsfinanceSettings",
								"offset": 5,
								"slot": "0",
								"type": "t_address"
							},
							{
								"astId": 17,
								"contract": "gameprofits-galactic-spdgcs-contracts/governence/gameProfitsGalacticNetworkSettings.sol:gameprofitsGalacticNetworkSettings",
								"label": "gameprofitsExperimentSettings",
								"offset": 0,
								"slot": "1",
								"type": "t_address"
							},
							{
								"astId": 19,
								"contract": "gameprofits-galactic-spdgcs-contracts/governence/gameProfitsGalacticNetworkSettings.sol:gameprofitsGalacticNetworkSettings",
								"label": "gameprofitsGoverenenceSettings",
								"offset": 0,
								"slot": "2",
								"type": "t_address"
							},
							{
								"astId": 21,
								"contract": "gameprofits-galactic-spdgcs-contracts/governence/gameProfitsGalacticNetworkSettings.sol:gameprofitsGalacticNetworkSettings",
								"label": "gameprofitsIchoroniumTableSettings",
								"offset": 0,
								"slot": "3",
								"type": "t_address"
							},
							{
								"astId": 23,
								"contract": "gameprofits-galactic-spdgcs-contracts/governence/gameProfitsGalacticNetworkSettings.sol:gameprofitsGalacticNetworkSettings",
								"label": "gameprofitsMetaVerseSettings",
								"offset": 0,
								"slot": "4",
								"type": "t_address"
							},
							{
								"astId": 25,
								"contract": "gameprofits-galactic-spdgcs-contracts/governence/gameProfitsGalacticNetworkSettings.sol:gameprofitsGalacticNetworkSettings",
								"label": "gameprofitsMetaVerseUniverseItems",
								"offset": 0,
								"slot": "5",
								"type": "t_address"
							},
							{
								"astId": 27,
								"contract": "gameprofits-galactic-spdgcs-contracts/governence/gameProfitsGalacticNetworkSettings.sol:gameprofitsGalacticNetworkSettings",
								"label": "gameprofitsFairPlaySettings",
								"offset": 0,
								"slot": "6",
								"type": "t_address"
							},
							{
								"astId": 29,
								"contract": "gameprofits-galactic-spdgcs-contracts/governence/gameProfitsGalacticNetworkSettings.sol:gameprofitsGalacticNetworkSettings",
								"label": "gameprofitsFairValueSettings",
								"offset": 0,
								"slot": "7",
								"type": "t_address"
							},
							{
								"astId": 31,
								"contract": "gameprofits-galactic-spdgcs-contracts/governence/gameProfitsGalacticNetworkSettings.sol:gameprofitsGalacticNetworkSettings",
								"label": "gameprofitsFairSoulsActSettings",
								"offset": 0,
								"slot": "8",
								"type": "t_address"
							},
							{
								"astId": 33,
								"contract": "gameprofits-galactic-spdgcs-contracts/governence/gameProfitsGalacticNetworkSettings.sol:gameprofitsGalacticNetworkSettings",
								"label": "gameprofitsPremiumExchangeTraderSettings",
								"offset": 0,
								"slot": "9",
								"type": "t_address"
							},
							{
								"astId": 35,
								"contract": "gameprofits-galactic-spdgcs-contracts/governence/gameProfitsGalacticNetworkSettings.sol:gameprofitsGalacticNetworkSettings",
								"label": "gameprofitsMasterVideoGamesSettings",
								"offset": 0,
								"slot": "10",
								"type": "t_address"
							}
						],
						"numberOfBytes": "352"
					}
				}
			},
			"userdoc": {
				"kind": "user",
				"methods": {},
				"version": 1
			}
		}
	}
}