{
	"gameprofits-galactic-spdgcs-contracts/governence/gameProfitsGalacticNetworkSettings.sol": {
		"gameprofitsGalacticNetworkSettings": {
			"abi": [
				{
					"inputs": [],
					"stateMutability": "nonpayable",
					"type": "constructor"
				},
				{
					"inputs": [],
					"name": "gameprofitsExperimentSettings",
					"outputs": [
						{
							"internalType": "address",
							"name": "",
							"type": "address"
						}
					],
					"stateMutability": "view",
					"type": "function"
				},
				{
					"inputs": [],
					"name": "gameprofitsFairPlaySettings",
					"outputs": [
						{
							"internalType": "address",
							"name": "",
							"type": "address"
						}
					],
					"stateMutability": "view",
					"type": "function"
				},
				{
					"inputs": [],
					"name": "gameprofitsFairSoulsActSettings",
					"outputs": [
						{
							"internalType": "address",
							"name": "",
							"type": "address"
						}
					],
					"stateMutability": "view",
					"type": "function"
				},
				{
					"inputs": [],
					"name": "gameprofitsFairValueSettings",
					"outputs": [
						{
							"internalType": "address",
							"name": "",
							"type": "address"
						}
					],
					"stateMutability": "view",
					"type": "function"
				},
				{
					"inputs": [],
					"name": "gameprofitsGoverenenceSettings",
					"outputs": [
						{
							"internalType": "address",
							"name": "",
							"type": "address"
						}
					],
					"stateMutability": "view",
					"type": "function"
				},
				{
					"inputs": [],
					"name": "gameprofitsIchoroniumTableSettings",
					"outputs": [
						{
							"internalType": "address",
							"name": "",
							"type": "address"
						}
					],
					"stateMutability": "view",
					"type": "function"
				},
				{
					"inputs": [],
					"name": "gameprofitsMasterVideoGamesSettings",
					"outputs": [
						{
							"internalType": "address",
							"name": "",
							"type": "address"
						}
					],
					"stateMutability": "view",
					"type": "function"
				},
				{
					"inputs": [],
					"name": "gameprofitsMetaVerseSettings",
					"outputs": [
						{
							"internalType": "address",
							"name": "",
							"type": "address"
						}
					],
					"stateMutability": "view",
					"type": "function"
				},
				{
					"inputs": [],
					"name": "gameprofitsMetaVerseUniverseItems",
					"outputs": [
						{
							"internalType": "address",
							"name": "",
							"type": "address"
						}
					],
					"stateMutability": "view",
					"type": "function"
				},
				{
					"inputs": [],
					"name": "gameprofitsPremiumExchangeTraderSettings",
					"outputs": [
						{
							"internalType": "address",
							"name": "",
							"type": "address"
						}
					],
					"stateMutability": "view",
					"type": "function"
				},
				{
					"inputs": [],
					"name": "gameprofitsfinanceSettings",
					"outputs": [
						{
							"internalType": "address",
							"name": "",
							"type": "address"
						}
					],
					"stateMutability": "view",
					"type": "function"
				},
				{
					"inputs": [],
					"name": "isgameNetworkActive",
					"outputs": [
						{
							"internalType": "bool",
							"name": "",
							"type": "bool"
						}
					],
					"stateMutability": "view",
					"type": "function"
				},
				{
					"inputs": [],
					"name": "isgamesAreCoolingDown",
					"outputs": [
						{
							"internalType": "bool",
							"name": "",
							"type": "bool"
						}
					],
					"stateMutability": "view",
					"type": "function"
				},
				{
					"inputs": [],
					"name": "isgamesAreDeactivated",
					"outputs": [
						{
							"internalType": "bool",
							"name": "",
							"type": "bool"
						}
					],
					"stateMutability": "view",
					"type": "function"
				},
				{
					"inputs": [],
					"name": "isgamesAreOn",
					"outputs": [
						{
							"internalType": "bool",
							"name": "",
							"type": "bool"
						}
					],
					"stateMutability": "view",
					"type": "function"
				},
				{
					"inputs": [],
					"name": "isgamesKillSwitch",
					"outputs": [
						{
							"internalType": "bool",
							"name": "",
							"type": "bool"
						}
					],
					"stateMutability": "view",
					"type": "function"
				},
				{
					"inputs": [],
					"name": "switchgameNetworkActive",
					"outputs": [],
					"stateMutability": "nonpayable",
					"type": "function"
				},
				{
					"inputs": [
						{
							"internalType": "address",
							"name": "newSetting",
							"type": "address"
						}
					],
					"name": "switchgameprofitsExperimentSettings",
					"outputs": [],
					"stateMutability": "nonpayable",
					"type": "function"
				},
				{
					"inputs": [
						{
							"internalType": "address",
							"name": "newSetting",
							"type": "address"
						}
					],
					"name": "switchgameprofitsFairPlaySettings",
					"outputs": [],
					"stateMutability": "nonpayable",
					"type": "function"
				},
				{
					"inputs": [
						{
							"internalType": "address",
							"name": "newSetting",
							"type": "address"
						}
					],
					"name": "switchgameprofitsFairSoulsActSettings",
					"outputs": [],
					"stateMutability": "nonpayable",
					"type": "function"
				},
				{
					"inputs": [
						{
							"internalType": "address",
							"name": "newSetting",
							"type": "address"
						}
					],
					"name": "switchgameprofitsFairValueSettings",
					"outputs": [],
					"stateMutability": "nonpayable",
					"type": "function"
				},
				{
					"inputs": [
						{
							"internalType": "address",
							"name": "newSetting",
							"type": "address"
						}
					],
					"name": "switchgameprofitsGoverenenceSettings",
					"outputs": [],
					"stateMutability": "nonpayable",
					"type": "function"
				},
				{
					"inputs": [
						{
							"internalType": "address",
							"name": "newSetting",
							"type": "address"
						}
					],
					"name": "switchgameprofitsIchoroniumTableSettings",
					"outputs": [],
					"stateMutability": "nonpayable",
					"type": "function"
				},
				{
					"inputs": [
						{
							"internalType": "address",
							"name": "newSetting",
							"type": "address"
						}
					],
					"name": "switchgameprofitsMasterVideoGamesSettings",
					"outputs": [],
					"stateMutability": "nonpayable",
					"type": "function"
				},
				{
					"inputs": [
						{
							"internalType": "address",
							"name": "newSetting",
							"type": "address"
						}
					],
					"name": "switchgameprofitsMetaVerseSettings",
					"outputs": [],
					"stateMutability": "nonpayable",
					"type": "function"
				},
				{
					"inputs": [
						{
							"internalType": "address",
							"name": "newSetting",
							"type": "address"
						}
					],
					"name": "switchgameprofitsMetaVerseUniverseItems",
					"outputs": [],
					"stateMutability": "nonpayable",
					"type": "function"
				},
				{
					"inputs": [
						{
							"internalType": "address",
							"name": "newSetting",
							"type": "address"
						}
					],
					"name": "switchgameprofitsPremiumExchangeTraderSettings",
					"outputs": [],
					"stateMutability": "nonpayable",
					"type": "function"
				},
				{
					"inputs": [
						{
							"internalType": "address",
							"name": "newSetting",
							"type": "address"
						}
					],
					"name": "switchgameprofitsfinanceSettings",
					"outputs": [],
					"stateMutability": "nonpayable",
					"type": "function"
				},
				{
					"inputs": [],
					"name": "switchgamesAreCoolingDown",
					"outputs": [],
					"stateMutability": "nonpayable",
					"type": "function"
				},
				{
					"inputs": [],
					"name": "switchgamesAreDeactivated",
					"outputs": [],
					"stateMutability": "nonpayable",
					"type": "function"
				},
				{
					"inputs": [],
					"name": "switchgamesAreOn",
					"outputs": [],
					"stateMutability": "nonpayable",
					"type": "function"
				},
				{
					"inputs": [],
					"name": "switchgamesKillSwitch",
					"outputs": [],
					"stateMutability": "nonpayable",
					"type": "function"
				}
			],
			"devdoc": {
				"kind": "dev",
				"methods": {},
				"version": 1
			},
			"evm": {
				"assembly": "    /* \"gameprofits-galactic-spdgcs-contracts/governence/gameProfitsGalacticNetworkSettings.sol\":87:10267  contract gameprofitsGalacticNetworkSettings {... */\n  mstore(0x40, 0x80)\n    /* \"gameprofits-galactic-spdgcs-contracts/governence/gameProfitsGalacticNetworkSettings.sol\":822:1345  gameprofitsSettings(false,false,false,false,false,0x0000000000000000000000000000000000000000,0x0000000000000000000000000000000000000000,0x0000000000000000000000000000000000000000,0x0000000000000000000000000000000000000000,0x0000000000000000000000000000000000000000,0x0000000000000000000000000000000000000000,0x0000000000000000000000000000000000000000,0x0000000000000000000000000000000000000000,0x0000000000000000000000000000000000000000,0x0000000000000000000000000000000000000000,0x0000000000000000000000000000000000000000) */\n  mload(0x40)\n  dup1\n  0x0200\n  add\n  0x40\n  mstore\n  dup1\n    /* \"gameprofits-galactic-spdgcs-contracts/governence/gameProfitsGalacticNetworkSettings.sol\":842:847  false */\n  0x00\n    /* \"gameprofits-galactic-spdgcs-contracts/governence/gameProfitsGalacticNetworkSettings.sol\":822:1345  gameprofitsSettings(false,false,false,false,false,0x0000000000000000000000000000000000000000,0x0000000000000000000000000000000000000000,0x0000000000000000000000000000000000000000,0x0000000000000000000000000000000000000000,0x0000000000000000000000000000000000000000,0x0000000000000000000000000000000000000000,0x0000000000000000000000000000000000000000,0x0000000000000000000000000000000000000000,0x0000000000000000000000000000000000000000,0x0000000000000000000000000000000000000000,0x0000000000000000000000000000000000000000) */\n  iszero\n  iszero\n  dup2\n  mstore\n  0x20\n  add\n    /* \"gameprofits-galactic-spdgcs-contracts/governence/gameProfitsGalacticNetworkSettings.sol\":848:853  false */\n  0x00\n    /* \"gameprofits-galactic-spdgcs-contracts/governence/gameProfitsGalacticNetworkSettings.sol\":822:1345  gameprofitsSettings(false,false,false,false,false,0x0000000000000000000000000000000000000000,0x0000000000000000000000000000000000000000,0x0000000000000000000000000000000000000000,0x0000000000000000000000000000000000000000,0x0000000000000000000000000000000000000000,0x0000000000000000000000000000000000000000,0x0000000000000000000000000000000000000000,0x0000000000000000000000000000000000000000,0x0000000000000000000000000000000000000000,0x0000000000000000000000000000000000000000,0x0000000000000000000000000000000000000000) */\n  iszero\n  iszero\n  dup2\n  mstore\n  0x20\n  add\n    /* \"gameprofits-galactic-spdgcs-contracts/governence/gameProfitsGalacticNetworkSettings.sol\":854:859  false */\n  0x00\n    /* \"gameprofits-galactic-spdgcs-contracts/governence/gameProfitsGalacticNetworkSettings.sol\":822:1345  gameprofitsSettings(false,false,false,false,false,0x0000000000000000000000000000000000000000,0x0000000000000000000000000000000000000000,0x0000000000000000000000000000000000000000,0x0000000000000000000000000000000000000000,0x0000000000000000000000000000000000000000,0x0000000000000000000000000000000000000000,0x0000000000000000000000000000000000000000,0x0000000000000000000000000000000000000000,0x0000000000000000000000000000000000000000,0x0000000000000000000000000000000000000000,0x0000000000000000000000000000000000000000) */\n  iszero\n  iszero\n  dup2\n  mstore\n  0x20\n  add\n    /* \"gameprofits-galactic-spdgcs-contracts/governence/gameProfitsGalacticNetworkSettings.sol\":860:865  false */\n  0x00\n    /* \"gameprofits-galactic-spdgcs-contracts/governence/gameProfitsGalacticNetworkSettings.sol\":822:1345  gameprofitsSettings(false,false,false,false,false,0x0000000000000000000000000000000000000000,0x0000000000000000000000000000000000000000,0x0000000000000000000000000000000000000000,0x0000000000000000000000000000000000000000,0x0000000000000000000000000000000000000000,0x0000000000000000000000000000000000000000,0x0000000000000000000000000000000000000000,0x0000000000000000000000000000000000000000,0x0000000000000000000000000000000000000000,0x0000000000000000000000000000000000000000,0x0000000000000000000000000000000000000000) */\n  iszero\n  iszero\n  dup2\n  mstore\n  0x20\n  add\n    /* \"gameprofits-galactic-spdgcs-contracts/governence/gameProfitsGalacticNetworkSettings.sol\":866:871  false */\n  0x00\n    /* \"gameprofits-galactic-spdgcs-contracts/governence/gameProfitsGalacticNetworkSettings.sol\":822:1345  gameprofitsSettings(false,false,false,false,false,0x0000000000000000000000000000000000000000,0x0000000000000000000000000000000000000000,0x0000000000000000000000000000000000000000,0x0000000000000000000000000000000000000000,0x0000000000000000000000000000000000000000,0x0000000000000000000000000000000000000000,0x0000000000000000000000000000000000000000,0x0000000000000000000000000000000000000000,0x0000000000000000000000000000000000000000,0x0000000000000000000000000000000000000000,0x0000000000000000000000000000000000000000) */\n  iszero\n  iszero\n  dup2\n  mstore\n  0x20\n  add\n    /* \"gameprofits-galactic-spdgcs-contracts/governence/gameProfitsGalacticNetworkSettings.sol\":872:914  0x0000000000000000000000000000000000000000 */\n  0x00\n    /* \"gameprofits-galactic-spdgcs-contracts/governence/gameProfitsGalacticNetworkSettings.sol\":822:1345  gameprofitsSettings(false,false,false,false,false,0x0000000000000000000000000000000000000000,0x0000000000000000000000000000000000000000,0x0000000000000000000000000000000000000000,0x0000000000000000000000000000000000000000,0x0000000000000000000000000000000000000000,0x0000000000000000000000000000000000000000,0x0000000000000000000000000000000000000000,0x0000000000000000000000000000000000000000,0x0000000000000000000000000000000000000000,0x0000000000000000000000000000000000000000,0x0000000000000000000000000000000000000000) */\n  0xffffffffffffffffffffffffffffffffffffffff\n  and\n  dup2\n  mstore\n  0x20\n  add\n    /* \"gameprofits-galactic-spdgcs-contracts/governence/gameProfitsGalacticNetworkSettings.sol\":915:957  0x0000000000000000000000000000000000000000 */\n  0x00\n    /* \"gameprofits-galactic-spdgcs-contracts/governence/gameProfitsGalacticNetworkSettings.sol\":822:1345  gameprofitsSettings(false,false,false,false,false,0x0000000000000000000000000000000000000000,0x0000000000000000000000000000000000000000,0x0000000000000000000000000000000000000000,0x0000000000000000000000000000000000000000,0x0000000000000000000000000000000000000000,0x0000000000000000000000000000000000000000,0x0000000000000000000000000000000000000000,0x0000000000000000000000000000000000000000,0x0000000000000000000000000000000000000000,0x0000000000000000000000000000000000000000,0x0000000000000000000000000000000000000000) */\n  0xffffffffffffffffffffffffffffffffffffffff\n  and\n  dup2\n  mstore\n  0x20\n  add\n    /* \"gameprofits-galactic-spdgcs-contracts/governence/gameProfitsGalacticNetworkSettings.sol\":958:1000  0x0000000000000000000000000000000000000000 */\n  0x00\n    /* \"gameprofits-galactic-spdgcs-contracts/governence/gameProfitsGalacticNetworkSettings.sol\":822:1345  gameprofitsSettings(false,false,false,false,false,0x0000000000000000000000000000000000000000,0x0000000000000000000000000000000000000000,0x0000000000000000000000000000000000000000,0x0000000000000000000000000000000000000000,0x0000000000000000000000000000000000000000,0x0000000000000000000000000000000000000000,0x0000000000000000000000000000000000000000,0x0000000000000000000000000000000000000000,0x0000000000000000000000000000000000000000,0x0000000000000000000000000000000000000000,0x0000000000000000000000000000000000000000) */\n  0xffffffffffffffffffffffffffffffffffffffff\n  and\n  dup2\n  mstore\n  0x20\n  add\n    /* \"gameprofits-galactic-spdgcs-contracts/governence/gameProfitsGalacticNetworkSettings.sol\":1001:1043  0x0000000000000000000000000000000000000000 */\n  0x00\n    /* \"gameprofits-galactic-spdgcs-contracts/governence/gameProfitsGalacticNetworkSettings.sol\":822:1345  gameprofitsSettings(false,false,false,false,false,0x0000000000000000000000000000000000000000,0x0000000000000000000000000000000000000000,0x0000000000000000000000000000000000000000,0x0000000000000000000000000000000000000000,0x0000000000000000000000000000000000000000,0x0000000000000000000000000000000000000000,0x0000000000000000000000000000000000000000,0x0000000000000000000000000000000000000000,0x0000000000000000000000000000000000000000,0x0000000000000000000000000000000000000000,0x0000000000000000000000000000000000000000) */\n  0xffffffffffffffffffffffffffffffffffffffff\n  and\n  dup2\n  mstore\n  0x20\n  add\n    /* \"gameprofits-galactic-spdgcs-contracts/governence/gameProfitsGalacticNetworkSettings.sol\":1044:1086  0x0000000000000000000000000000000000000000 */\n  0x00\n    /* \"gameprofits-galactic-spdgcs-contracts/governence/gameProfitsGalacticNetworkSettings.sol\":822:1345  gameprofitsSettings(false,false,false,false,false,0x0000000000000000000000000000000000000000,0x0000000000000000000000000000000000000000,0x0000000000000000000000000000000000000000,0x0000000000000000000000000000000000000000,0x0000000000000000000000000000000000000000,0x0000000000000000000000000000000000000000,0x0000000000000000000000000000000000000000,0x0000000000000000000000000000000000000000,0x0000000000000000000000000000000000000000,0x0000000000000000000000000000000000000000,0x0000000000000000000000000000000000000000) */\n  0xffffffffffffffffffffffffffffffffffffffff\n  and\n  dup2\n  mstore\n  0x20\n  add\n    /* \"gameprofits-galactic-spdgcs-contracts/governence/gameProfitsGalacticNetworkSettings.sol\":1087:1129  0x0000000000000000000000000000000000000000 */\n  0x00\n    /* \"gameprofits-galactic-spdgcs-contracts/governence/gameProfitsGalacticNetworkSettings.sol\":822:1345  gameprofitsSettings(false,false,false,false,false,0x0000000000000000000000000000000000000000,0x0000000000000000000000000000000000000000,0x0000000000000000000000000000000000000000,0x0000000000000000000000000000000000000000,0x0000000000000000000000000000000000000000,0x0000000000000000000000000000000000000000,0x0000000000000000000000000000000000000000,0x0000000000000000000000000000000000000000,0x0000000000000000000000000000000000000000,0x0000000000000000000000000000000000000000,0x0000000000000000000000000000000000000000) */\n  0xffffffffffffffffffffffffffffffffffffffff\n  and\n  dup2\n  mstore\n  0x20\n  add\n    /* \"gameprofits-galactic-spdgcs-contracts/governence/gameProfitsGalacticNetworkSettings.sol\":1130:1172  0x0000000000000000000000000000000000000000 */\n  0x00\n    /* \"gameprofits-galactic-spdgcs-contracts/governence/gameProfitsGalacticNetworkSettings.sol\":822:1345  gameprofitsSettings(false,false,false,false,false,0x0000000000000000000000000000000000000000,0x0000000000000000000000000000000000000000,0x0000000000000000000000000000000000000000,0x0000000000000000000000000000000000000000,0x0000000000000000000000000000000000000000,0x0000000000000000000000000000000000000000,0x0000000000000000000000000000000000000000,0x0000000000000000000000000000000000000000,0x0000000000000000000000000000000000000000,0x0000000000000000000000000000000000000000,0x0000000000000000000000000000000000000000) */\n  0xffffffffffffffffffffffffffffffffffffffff\n  and\n  dup2\n  mstore\n  0x20\n  add\n    /* \"gameprofits-galactic-spdgcs-contracts/governence/gameProfitsGalacticNetworkSettings.sol\":1173:1215  0x0000000000000000000000000000000000000000 */\n  0x00\n    /* \"gameprofits-galactic-spdgcs-contracts/governence/gameProfitsGalacticNetworkSettings.sol\":822:1345  gameprofitsSettings(false,false,false,false,false,0x0000000000000000000000000000000000000000,0x0000000000000000000000000000000000000000,0x0000000000000000000000000000000000000000,0x0000000000000000000000000000000000000000,0x0000000000000000000000000000000000000000,0x0000000000000000000000000000000000000000,0x0000000000000000000000000000000000000000,0x0000000000000000000000000000000000000000,0x0000000000000000000000000000000000000000,0x0000000000000000000000000000000000000000,0x0000000000000000000000000000000000000000) */\n  0xffffffffffffffffffffffffffffffffffffffff\n  and\n  dup2\n  mstore\n  0x20\n  add\n    /* \"gameprofits-galactic-spdgcs-contracts/governence/gameProfitsGalacticNetworkSettings.sol\":1216:1258  0x0000000000000000000000000000000000000000 */\n  0x00\n    /* \"gameprofits-galactic-spdgcs-contracts/governence/gameProfitsGalacticNetworkSettings.sol\":822:1345  gameprofitsSettings(false,false,false,false,false,0x0000000000000000000000000000000000000000,0x0000000000000000000000000000000000000000,0x0000000000000000000000000000000000000000,0x0000000000000000000000000000000000000000,0x0000000000000000000000000000000000000000,0x0000000000000000000000000000000000000000,0x0000000000000000000000000000000000000000,0x0000000000000000000000000000000000000000,0x0000000000000000000000000000000000000000,0x0000000000000000000000000000000000000000,0x0000000000000000000000000000000000000000) */\n  0xffffffffffffffffffffffffffffffffffffffff\n  and\n  dup2\n  mstore\n  0x20\n  add\n    /* \"gameprofits-galactic-spdgcs-contracts/governence/gameProfitsGalacticNetworkSettings.sol\":1259:1301  0x0000000000000000000000000000000000000000 */\n  0x00\n    /* \"gameprofits-galactic-spdgcs-contracts/governence/gameProfitsGalacticNetworkSettings.sol\":822:1345  gameprofitsSettings(false,false,false,false,false,0x0000000000000000000000000000000000000000,0x0000000000000000000000000000000000000000,0x0000000000000000000000000000000000000000,0x0000000000000000000000000000000000000000,0x0000000000000000000000000000000000000000,0x0000000000000000000000000000000000000000,0x0000000000000000000000000000000000000000,0x0000000000000000000000000000000000000000,0x0000000000000000000000000000000000000000,0x0000000000000000000000000000000000000000,0x0000000000000000000000000000000000000000) */\n  0xffffffffffffffffffffffffffffffffffffffff\n  and\n  dup2\n  mstore\n  0x20\n  add\n    /* \"gameprofits-galactic-spdgcs-contracts/governence/gameProfitsGalacticNetworkSettings.sol\":1302:1344  0x0000000000000000000000000000000000000000 */\n  0x00\n    /* \"gameprofits-galactic-spdgcs-contracts/governence/gameProfitsGalacticNetworkSettings.sol\":822:1345  gameprofitsSettings(false,false,false,false,false,0x0000000000000000000000000000000000000000,0x0000000000000000000000000000000000000000,0x0000000000000000000000000000000000000000,0x0000000000000000000000000000000000000000,0x0000000000000000000000000000000000000000,0x0000000000000000000000000000000000000000,0x0000000000000000000000000000000000000000,0x0000000000000000000000000000000000000000,0x0000000000000000000000000000000000000000,0x0000000000000000000000000000000000000000,0x0000000000000000000000000000000000000000) */\n  0xffffffffffffffffffffffffffffffffffffffff\n  and\n  dup2\n  mstore\n  pop\n    /* \"gameprofits-galactic-spdgcs-contracts/governence/gameProfitsGalacticNetworkSettings.sol\":772:1345  gameprofitsSettings  gameprofitsNetworkSettings = gameprofitsSettings(false,false,false,false,false,0x0000000000000000000000000000000000000000,0x0000000000000000000000000000000000000000,0x0000000000000000000000000000000000000000,0x0000000000000000000000000000000000000000,0x0000000000000000000000000000000000000000,0x0000000000000000000000000000000000000000,0x0000000000000000000000000000000000000000,0x0000000000000000000000000000000000000000,0x0000000000000000000000000000000000000000,0x0000000000000000000000000000000000000000,0x0000000000000000000000000000000000000000) */\n  0x01\n  0x00\n  dup3\n  add\n  mload\n  dup2\n  0x00\n  add\n  exp(0x0100, 0x00)\n  dup2\n  sload\n  dup2\n  0xff\n  mul\n  not\n  and\n  swap1\n  dup4\n  iszero\n  iszero\n  mul\n  or\n  swap1\n  sstore\n  pop\n  0x20\n  dup3\n  add\n  mload\n  dup2\n  0x00\n  add\n  exp(0x0100, 0x01)\n  dup2\n  sload\n  dup2\n  0xff\n  mul\n  not\n  and\n  swap1\n  dup4\n  iszero\n  iszero\n  mul\n  or\n  swap1\n  sstore\n  pop\n  0x40\n  dup3\n  add\n  mload\n  dup2\n  0x00\n  add\n  exp(0x0100, 0x02)\n  dup2\n  sload\n  dup2\n  0xff\n  mul\n  not\n  and\n  swap1\n  dup4\n  iszero\n  iszero\n  mul\n  or\n  swap1\n  sstore\n  pop\n  0x60\n  dup3\n  add\n  mload\n  dup2\n  0x00\n  add\n  exp(0x0100, 0x03)\n  dup2\n  sload\n  dup2\n  0xff\n  mul\n  not\n  and\n  swap1\n  dup4\n  iszero\n  iszero\n  mul\n  or\n  swap1\n  sstore\n  pop\n  0x80\n  dup3\n  add\n  mload\n  dup2\n  0x00\n  add\n  exp(0x0100, 0x04)\n  dup2\n  sload\n  dup2\n  0xff\n  mul\n  not\n  and\n  swap1\n  dup4\n  iszero\n  iszero\n  mul\n  or\n  swap1\n  sstore\n  pop\n  0xa0\n  dup3\n  add\n  mload\n  dup2\n  0x00\n  add\n  exp(0x0100, 0x05)\n  dup2\n  sload\n  dup2\n  0xffffffffffffffffffffffffffffffffffffffff\n  mul\n  not\n  and\n  swap1\n  dup4\n  0xffffffffffffffffffffffffffffffffffffffff\n  and\n  mul\n  or\n  swap1\n  sstore\n  pop\n  0xc0\n  dup3\n  add\n  mload\n  dup2\n  0x01\n  add\n  exp(0x0100, 0x00)\n  dup2\n  sload\n  dup2\n  0xffffffffffffffffffffffffffffffffffffffff\n  mul\n  not\n  and\n  swap1\n  dup4\n  0xffffffffffffffffffffffffffffffffffffffff\n  and\n  mul\n  or\n  swap1\n  sstore\n  pop\n  0xe0\n  dup3\n  add\n  mload\n  dup2\n  0x02\n  add\n  exp(0x0100, 0x00)\n  dup2\n  sload\n  dup2\n  0xffffffffffffffffffffffffffffffffffffffff\n  mul\n  not\n  and\n  swap1\n  dup4\n  0xffffffffffffffffffffffffffffffffffffffff\n  and\n  mul\n  or\n  swap1\n  sstore\n  pop\n  0x0100\n  dup3\n  add\n  mload\n  dup2\n  0x03\n  add\n  exp(0x0100, 0x00)\n  dup2\n  sload\n  dup2\n  0xffffffffffffffffffffffffffffffffffffffff\n  mul\n  not\n  and\n  swap1\n  dup4\n  0xffffffffffffffffffffffffffffffffffffffff\n  and\n  mul\n  or\n  swap1\n  sstore\n  pop\n  0x0120\n  dup3\n  add\n  mload\n  dup2\n  0x04\n  add\n  exp(0x0100, 0x00)\n  dup2\n  sload\n  dup2\n  0xffffffffffffffffffffffffffffffffffffffff\n  mul\n  not\n  and\n  swap1\n  dup4\n  0xffffffffffffffffffffffffffffffffffffffff\n  and\n  mul\n  or\n  swap1\n  sstore\n  pop\n  0x0140\n  dup3\n  add\n  mload\n  dup2\n  0x05\n  add\n  exp(0x0100, 0x00)\n  dup2\n  sload\n  dup2\n  0xffffffffffffffffffffffffffffffffffffffff\n  mul\n  not\n  and\n  swap1\n  dup4\n  0xffffffffffffffffffffffffffffffffffffffff\n  and\n  mul\n  or\n  swap1\n  sstore\n  pop\n  0x0160\n  dup3\n  add\n  mload\n  dup2\n  0x06\n  add\n  exp(0x0100, 0x00)\n  dup2\n  sload\n  dup2\n  0xffffffffffffffffffffffffffffffffffffffff\n  mul\n  not\n  and\n  swap1\n  dup4\n  0xffffffffffffffffffffffffffffffffffffffff\n  and\n  mul\n  or\n  swap1\n  sstore\n  pop\n  0x0180\n  dup3\n  add\n  mload\n  dup2\n  0x07\n  add\n  exp(0x0100, 0x00)\n  dup2\n  sload\n  dup2\n  0xffffffffffffffffffffffffffffffffffffffff\n  mul\n  not\n  and\n  swap1\n  dup4\n  0xffffffffffffffffffffffffffffffffffffffff\n  and\n  mul\n  or\n  swap1\n  sstore\n  pop\n  0x01a0\n  dup3\n  add\n  mload\n  dup2\n  0x08\n  add\n  exp(0x0100, 0x00)\n  dup2\n  sload\n  dup2\n  0xffffffffffffffffffffffffffffffffffffffff\n  mul\n  not\n  and\n  swap1\n  dup4\n  0xffffffffffffffffffffffffffffffffffffffff\n  and\n  mul\n  or\n  swap1\n  sstore\n  pop\n  0x01c0\n  dup3\n  add\n  mload\n  dup2\n  0x09\n  add\n  exp(0x0100, 0x00)\n  dup2\n  sload\n  dup2\n  0xffffffffffffffffffffffffffffffffffffffff\n  mul\n  not\n  and\n  swap1\n  dup4\n  0xffffffffffffffffffffffffffffffffffffffff\n  and\n  mul\n  or\n  swap1\n  sstore\n  pop\n  0x01e0\n  dup3\n  add\n  mload\n  dup2\n  0x0a\n  add\n  exp(0x0100, 0x00)\n  dup2\n  sload\n  dup2\n  0xffffffffffffffffffffffffffffffffffffffff\n  mul\n  not\n  and\n  swap1\n  dup4\n  0xffffffffffffffffffffffffffffffffffffffff\n  and\n  mul\n  or\n  swap1\n  sstore\n  pop\n  pop\n  pop\n    /* \"gameprofits-galactic-spdgcs-contracts/governence/gameProfitsGalacticNetworkSettings.sol\":10150:10254  constructor() public... */\n  callvalue\n  dup1\n  iszero\n  tag_1\n  jumpi\n  0x00\n  dup1\n  revert\ntag_1:\n  pop\n    /* \"gameprofits-galactic-spdgcs-contracts/governence/gameProfitsGalacticNetworkSettings.sol\":10215:10225  msg.sender */\n  caller\n    /* \"gameprofits-galactic-spdgcs-contracts/governence/gameProfitsGalacticNetworkSettings.sol\":10207:10212  owner */\n  0x00\n  dup1\n    /* \"gameprofits-galactic-spdgcs-contracts/governence/gameProfitsGalacticNetworkSettings.sol\":10207:10225  owner = msg.sender */\n  0x0100\n  exp\n  dup2\n  sload\n  dup2\n  0xffffffffffffffffffffffffffffffffffffffff\n  mul\n  not\n  and\n  swap1\n  dup4\n  0xffffffffffffffffffffffffffffffffffffffff\n  and\n  mul\n  or\n  swap1\n  sstore\n  pop\n    /* \"gameprofits-galactic-spdgcs-contracts/governence/gameProfitsGalacticNetworkSettings.sol\":87:10267  contract gameprofitsGalacticNetworkSettings {... */\n  dataSize(sub_0)\n  dup1\n  dataOffset(sub_0)\n  0x00\n  codecopy\n  0x00\n  return\nstop\n\nsub_0: assembly {\n        /* \"gameprofits-galactic-spdgcs-contracts/governence/gameProfitsGalacticNetworkSettings.sol\":87:10267  contract gameprofitsGalacticNetworkSettings {... */\n      mstore(0x40, 0x80)\n      callvalue\n      dup1\n      iszero\n      tag_1\n      jumpi\n      0x00\n      dup1\n      revert\n    tag_1:\n      pop\n      jumpi(tag_2, lt(calldatasize, 0x04))\n      shr(0xe0, calldataload(0x00))\n      dup1\n      0x7a22890a\n      gt\n      tag_35\n      jumpi\n      dup1\n      0xa87a86aa\n      gt\n      tag_36\n      jumpi\n      dup1\n      0xc461089c\n      gt\n      tag_37\n      jumpi\n      dup1\n      0xc461089c\n      eq\n      tag_31\n      jumpi\n      dup1\n      0xd2871723\n      eq\n      tag_32\n      jumpi\n      dup1\n      0xe2c6cc7a\n      eq\n      tag_33\n      jumpi\n      dup1\n      0xfa0d08ec\n      eq\n      tag_34\n      jumpi\n      jump(tag_2)\n    tag_37:\n      dup1\n      0xa87a86aa\n      eq\n      tag_27\n      jumpi\n      dup1\n      0xb985accb\n      eq\n      tag_28\n      jumpi\n      dup1\n      0xba08d5e1\n      eq\n      tag_29\n      jumpi\n      dup1\n      0xc1b2456d\n      eq\n      tag_30\n      jumpi\n      jump(tag_2)\n    tag_36:\n      dup1\n      0x941e32b6\n      gt\n      tag_38\n      jumpi\n      dup1\n      0x941e32b6\n      eq\n      tag_23\n      jumpi\n      dup1\n      0x94d5bdff\n      eq\n      tag_24\n      jumpi\n      dup1\n      0x97cf27b8\n      eq\n      tag_25\n      jumpi\n      dup1\n      0xa775088b\n      eq\n      tag_26\n      jumpi\n      jump(tag_2)\n    tag_38:\n      dup1\n      0x7a22890a\n      eq\n      tag_19\n      jumpi\n      dup1\n      0x860249e4\n      eq\n      tag_20\n      jumpi\n      dup1\n      0x88f8a9a3\n      eq\n      tag_21\n      jumpi\n      dup1\n      0x8991e441\n      eq\n      tag_22\n      jumpi\n      jump(tag_2)\n    tag_35:\n      dup1\n      0x49e8216a\n      gt\n      tag_39\n      jumpi\n      dup1\n      0x54584199\n      gt\n      tag_40\n      jumpi\n      dup1\n      0x54584199\n      eq\n      tag_15\n      jumpi\n      dup1\n      0x5d246bad\n      eq\n      tag_16\n      jumpi\n      dup1\n      0x6ae73038\n      eq\n      tag_17\n      jumpi\n      dup1\n      0x79f760a7\n      eq\n      tag_18\n      jumpi\n      jump(tag_2)\n    tag_40:\n      dup1\n      0x49e8216a\n      eq\n      tag_11\n      jumpi\n      dup1\n      0x4a2690b9\n      eq\n      tag_12\n      jumpi\n      dup1\n      0x50b8f5eb\n      eq\n      tag_13\n      jumpi\n      dup1\n      0x52bac077\n      eq\n      tag_14\n      jumpi\n      jump(tag_2)\n    tag_39:\n      dup1\n      0x1fae9693\n      gt\n      tag_41\n      jumpi\n      dup1\n      0x1fae9693\n      eq\n      tag_7\n      jumpi\n      dup1\n      0x35d355ab\n      eq\n      tag_8\n      jumpi\n      dup1\n      0x3c49c63e\n      eq\n      tag_9\n      jumpi\n      dup1\n      0x41daf6ba\n      eq\n      tag_10\n      jumpi\n      jump(tag_2)\n    tag_41:\n      dup1\n      0x097ee368\n      eq\n      tag_3\n      jumpi\n      dup1\n      0x0d19de6f\n      eq\n      tag_4\n      jumpi\n      dup1\n      0x1c7ac31b\n      eq\n      tag_5\n      jumpi\n      dup1\n      0x1dd28782\n      eq\n      tag_6\n      jumpi\n    tag_2:\n      0x00\n      dup1\n      revert\n        /* \"gameprofits-galactic-spdgcs-contracts/governence/gameProfitsGalacticNetworkSettings.sol\":5194:5468  function switchgameprofitsGoverenenceSettings(address newSetting... */\n    tag_3:\n      tag_42\n      0x04\n      dup1\n      calldatasize\n      sub\n      dup2\n      add\n      swap1\n      tag_43\n      swap2\n      swap1\n      tag_44\n      jump\t// in\n    tag_43:\n      tag_45\n      jump\t// in\n    tag_42:\n      stop\n        /* \"gameprofits-galactic-spdgcs-contracts/governence/gameProfitsGalacticNetworkSettings.sol\":4428:4673  function gameprofitsPremiumExchangeTraderSettings() public view returns (address) {... */\n    tag_4:\n      tag_46\n      tag_47\n      jump\t// in\n    tag_46:\n      mload(0x40)\n      tag_48\n      swap2\n      swap1\n      tag_49\n      jump\t// in\n    tag_48:\n      mload(0x40)\n      dup1\n      swap2\n      sub\n      swap1\n      return\n        /* \"gameprofits-galactic-spdgcs-contracts/governence/gameProfitsGalacticNetworkSettings.sol\":3744:3963  function gameprofitsFairPlaySettings() public view returns (address) {... */\n    tag_5:\n      tag_50\n      tag_51\n      jump\t// in\n    tag_50:\n      mload(0x40)\n      tag_52\n      swap2\n      swap1\n      tag_49\n      jump\t// in\n    tag_52:\n      mload(0x40)\n      dup1\n      swap2\n      sub\n      swap1\n      return\n        /* \"gameprofits-galactic-spdgcs-contracts/governence/gameProfitsGalacticNetworkSettings.sol\":1352:1550  function isgameNetworkActive() public view returns (bool) {... */\n    tag_6:\n      tag_53\n      tag_54\n      jump\t// in\n    tag_53:\n      mload(0x40)\n      tag_55\n      swap2\n      swap1\n      tag_56\n      jump\t// in\n    tag_55:\n      mload(0x40)\n      dup1\n      swap2\n      sub\n      swap1\n      return\n        /* \"gameprofits-galactic-spdgcs-contracts/governence/gameProfitsGalacticNetworkSettings.sol\":1954:2156  function isgamesAreCoolingDown() public view returns (bool) {... */\n    tag_7:\n      tag_57\n      tag_58\n      jump\t// in\n    tag_57:\n      mload(0x40)\n      tag_59\n      swap2\n      swap1\n      tag_56\n      jump\t// in\n    tag_59:\n      mload(0x40)\n      dup1\n      swap2\n      sub\n      swap1\n      return\n        /* \"gameprofits-galactic-spdgcs-contracts/governence/gameProfitsGalacticNetworkSettings.sol\":8501:8767  function switchgamesAreDeactivated(... */\n    tag_8:\n      tag_60\n      tag_61\n      jump\t// in\n    tag_60:\n      stop\n        /* \"gameprofits-galactic-spdgcs-contracts/governence/gameProfitsGalacticNetworkSettings.sol\":9037:10063  function switchgamesKillSwitch(... */\n    tag_9:\n      tag_62\n      tag_63\n      jump\t// in\n    tag_62:\n      stop\n        /* \"gameprofits-galactic-spdgcs-contracts/governence/gameProfitsGalacticNetworkSettings.sol\":6316:6584  function switchgameprofitsFairPlaySettings(address newSetting... */\n    tag_10:\n      tag_64\n      0x04\n      dup1\n      calldatasize\n      sub\n      dup2\n      add\n      swap1\n      tag_65\n      swap2\n      swap1\n      tag_44\n      jump\t// in\n    tag_65:\n      tag_66\n      jump\t// in\n    tag_64:\n      stop\n        /* \"gameprofits-galactic-spdgcs-contracts/governence/gameProfitsGalacticNetworkSettings.sol\":1554:1738  function isgamesAreOn() public view returns (bool) {... */\n    tag_11:\n      tag_67\n      tag_68\n      jump\t// in\n    tag_67:\n      mload(0x40)\n      tag_69\n      swap2\n      swap1\n      tag_56\n      jump\t// in\n    tag_69:\n      mload(0x40)\n      dup1\n      swap2\n      sub\n      swap1\n      return\n        /* \"gameprofits-galactic-spdgcs-contracts/governence/gameProfitsGalacticNetworkSettings.sol\":3507:3738  function gameprofitsMetaVerseUniverseItems() public view returns (address) {... */\n    tag_12:\n      tag_70\n      tag_71\n      jump\t// in\n    tag_70:\n      mload(0x40)\n      tag_72\n      swap2\n      swap1\n      tag_49\n      jump\t// in\n    tag_72:\n      mload(0x40)\n      dup1\n      swap2\n      sub\n      swap1\n      return\n        /* \"gameprofits-galactic-spdgcs-contracts/governence/gameProfitsGalacticNetworkSettings.sol\":2581:2804  function gameprofitsExperimentSettings() public view returns (address) {... */\n    tag_13:\n      tag_73\n      tag_74\n      jump\t// in\n    tag_73:\n      mload(0x40)\n      tag_75\n      swap2\n      swap1\n      tag_49\n      jump\t// in\n    tag_75:\n      mload(0x40)\n      dup1\n      swap2\n      sub\n      swap1\n      return\n        /* \"gameprofits-galactic-spdgcs-contracts/governence/gameProfitsGalacticNetworkSettings.sol\":1744:1946  function isgamesAreDeactivated() public view returns (bool) {... */\n    tag_14:\n      tag_76\n      tag_77\n      jump\t// in\n    tag_76:\n      mload(0x40)\n      tag_78\n      swap2\n      swap1\n      tag_56\n      jump\t// in\n    tag_78:\n      mload(0x40)\n      dup1\n      swap2\n      sub\n      swap1\n      return\n        /* \"gameprofits-galactic-spdgcs-contracts/governence/gameProfitsGalacticNetworkSettings.sol\":7142:7436  function switchgameprofitsPremiumExchangeTraderSettings(address newSetting... */\n    tag_15:\n      tag_79\n      0x04\n      dup1\n      calldatasize\n      sub\n      dup2\n      add\n      swap1\n      tag_80\n      swap2\n      swap1\n      tag_44\n      jump\t// in\n    tag_80:\n      tag_81\n      jump\t// in\n    tag_79:\n      stop\n        /* \"gameprofits-galactic-spdgcs-contracts/governence/gameProfitsGalacticNetworkSettings.sol\":6588:6858  function switchgameprofitsFairValueSettings(address newSetting... */\n    tag_16:\n      tag_82\n      0x04\n      dup1\n      calldatasize\n      sub\n      dup2\n      add\n      swap1\n      tag_83\n      swap2\n      swap1\n      tag_44\n      jump\t// in\n    tag_83:\n      tag_84\n      jump\t// in\n    tag_82:\n      stop\n        /* \"gameprofits-galactic-spdgcs-contracts/governence/gameProfitsGalacticNetworkSettings.sol\":4195:4422  function gameprofitsFairSoulsActSettings() public view returns (address) {... */\n    tag_17:\n      tag_85\n      tag_86\n      jump\t// in\n    tag_85:\n      mload(0x40)\n      tag_87\n      swap2\n      swap1\n      tag_49\n      jump\t// in\n    tag_87:\n      mload(0x40)\n      dup1\n      swap2\n      sub\n      swap1\n      return\n        /* \"gameprofits-galactic-spdgcs-contracts/governence/gameProfitsGalacticNetworkSettings.sol\":6862:7138  function switchgameprofitsFairSoulsActSettings(address newSetting... */\n    tag_18:\n      tag_88\n      0x04\n      dup1\n      calldatasize\n      sub\n      dup2\n      add\n      swap1\n      tag_89\n      swap2\n      swap1\n      tag_44\n      jump\t// in\n    tag_89:\n      tag_90\n      jump\t// in\n    tag_88:\n      stop\n        /* \"gameprofits-galactic-spdgcs-contracts/governence/gameProfitsGalacticNetworkSettings.sol\":8769:9035  function switchgamesAreCoolingDown(... */\n    tag_19:\n      tag_91\n      tag_92\n      jump\t// in\n    tag_91:\n      stop\n        /* \"gameprofits-galactic-spdgcs-contracts/governence/gameProfitsGalacticNetworkSettings.sol\":7726:7992  function switchgameprofitsfinanceSettings(address newSetting... */\n    tag_20:\n      tag_93\n      0x04\n      dup1\n      calldatasize\n      sub\n      dup2\n      add\n      swap1\n      tag_94\n      swap2\n      swap1\n      tag_44\n      jump\t// in\n    tag_94:\n      tag_95\n      jump\t// in\n    tag_93:\n      stop\n        /* \"gameprofits-galactic-spdgcs-contracts/governence/gameProfitsGalacticNetworkSettings.sol\":7998:8258  function switchgameNetworkActive(... */\n    tag_21:\n      tag_96\n      tag_97\n      jump\t// in\n    tag_96:\n      stop\n        /* \"gameprofits-galactic-spdgcs-contracts/governence/gameProfitsGalacticNetworkSettings.sol\":2810:3035  function gameprofitsGoverenenceSettings() public view returns (address) {... */\n    tag_22:\n      tag_98\n      tag_99\n      jump\t// in\n    tag_98:\n      mload(0x40)\n      tag_100\n      swap2\n      swap1\n      tag_49\n      jump\t// in\n    tag_100:\n      mload(0x40)\n      dup1\n      swap2\n      sub\n      swap1\n      return\n        /* \"gameprofits-galactic-spdgcs-contracts/governence/gameProfitsGalacticNetworkSettings.sol\":2160:2354  function isgamesKillSwitch() public view returns (bool) {... */\n    tag_23:\n      tag_101\n      tag_102\n      jump\t// in\n    tag_101:\n      mload(0x40)\n      tag_103\n      swap2\n      swap1\n      tag_56\n      jump\t// in\n    tag_103:\n      mload(0x40)\n      dup1\n      swap2\n      sub\n      swap1\n      return\n        /* \"gameprofits-galactic-spdgcs-contracts/governence/gameProfitsGalacticNetworkSettings.sol\":3280:3501  function gameprofitsMetaVerseSettings() public view returns (address) {... */\n    tag_24:\n      tag_104\n      tag_105\n      jump\t// in\n    tag_104:\n      mload(0x40)\n      tag_106\n      swap2\n      swap1\n      tag_49\n      jump\t// in\n    tag_106:\n      mload(0x40)\n      dup1\n      swap2\n      sub\n      swap1\n      return\n        /* \"gameprofits-galactic-spdgcs-contracts/governence/gameProfitsGalacticNetworkSettings.sol\":3041:3274  function gameprofitsIchoroniumTableSettings() public view returns (address) {... */\n    tag_25:\n      tag_107\n      tag_108\n      jump\t// in\n    tag_107:\n      mload(0x40)\n      tag_109\n      swap2\n      swap1\n      tag_49\n      jump\t// in\n    tag_109:\n      mload(0x40)\n      dup1\n      swap2\n      sub\n      swap1\n      return\n        /* \"gameprofits-galactic-spdgcs-contracts/governence/gameProfitsGalacticNetworkSettings.sol\":7440:7724  function switchgameprofitsMasterVideoGamesSettings(address newSetting... */\n    tag_26:\n      tag_110\n      0x04\n      dup1\n      calldatasize\n      sub\n      dup2\n      add\n      swap1\n      tag_111\n      swap2\n      swap1\n      tag_44\n      jump\t// in\n    tag_111:\n      tag_112\n      jump\t// in\n    tag_110:\n      stop\n        /* \"gameprofits-galactic-spdgcs-contracts/governence/gameProfitsGalacticNetworkSettings.sol\":4679:4914  function gameprofitsMasterVideoGamesSettings() public view returns (address) {... */\n    tag_27:\n      tag_113\n      tag_114\n      jump\t// in\n    tag_113:\n      mload(0x40)\n      tag_115\n      swap2\n      swap1\n      tag_49\n      jump\t// in\n    tag_115:\n      mload(0x40)\n      dup1\n      swap2\n      sub\n      swap1\n      return\n        /* \"gameprofits-galactic-spdgcs-contracts/governence/gameProfitsGalacticNetworkSettings.sol\":6032:6312  function switchgameprofitsMetaVerseUniverseItems(address newSetting... */\n    tag_28:\n      tag_116\n      0x04\n      dup1\n      calldatasize\n      sub\n      dup2\n      add\n      swap1\n      tag_117\n      swap2\n      swap1\n      tag_44\n      jump\t// in\n    tag_117:\n      tag_118\n      jump\t// in\n    tag_116:\n      stop\n        /* \"gameprofits-galactic-spdgcs-contracts/governence/gameProfitsGalacticNetworkSettings.sol\":4918:5190  function switchgameprofitsExperimentSettings(address newSetting... */\n    tag_29:\n      tag_119\n      0x04\n      dup1\n      calldatasize\n      sub\n      dup2\n      add\n      swap1\n      tag_120\n      swap2\n      swap1\n      tag_44\n      jump\t// in\n    tag_120:\n      tag_121\n      jump\t// in\n    tag_119:\n      stop\n        /* \"gameprofits-galactic-spdgcs-contracts/governence/gameProfitsGalacticNetworkSettings.sol\":5758:6028  function switchgameprofitsMetaVerseSettings(address newSetting... */\n    tag_30:\n      tag_122\n      0x04\n      dup1\n      calldatasize\n      sub\n      dup2\n      add\n      swap1\n      tag_123\n      swap2\n      swap1\n      tag_44\n      jump\t// in\n    tag_123:\n      tag_124\n      jump\t// in\n    tag_122:\n      stop\n        /* \"gameprofits-galactic-spdgcs-contracts/governence/gameProfitsGalacticNetworkSettings.sol\":2358:2575  function gameprofitsfinanceSettings() public view returns (address) {... */\n    tag_31:\n      tag_125\n      tag_126\n      jump\t// in\n    tag_125:\n      mload(0x40)\n      tag_127\n      swap2\n      swap1\n      tag_49\n      jump\t// in\n    tag_127:\n      mload(0x40)\n      dup1\n      swap2\n      sub\n      swap1\n      return\n        /* \"gameprofits-galactic-spdgcs-contracts/governence/gameProfitsGalacticNetworkSettings.sol\":8260:8499  function switchgamesAreOn(... */\n    tag_32:\n      tag_128\n      tag_129\n      jump\t// in\n    tag_128:\n      stop\n        /* \"gameprofits-galactic-spdgcs-contracts/governence/gameProfitsGalacticNetworkSettings.sol\":3969:4190  function gameprofitsFairValueSettings() public view returns (address) {... */\n    tag_33:\n      tag_130\n      tag_131\n      jump\t// in\n    tag_130:\n      mload(0x40)\n      tag_132\n      swap2\n      swap1\n      tag_49\n      jump\t// in\n    tag_132:\n      mload(0x40)\n      dup1\n      swap2\n      sub\n      swap1\n      return\n        /* \"gameprofits-galactic-spdgcs-contracts/governence/gameProfitsGalacticNetworkSettings.sol\":5472:5754  function switchgameprofitsIchoroniumTableSettings(address newSetting... */\n    tag_34:\n      tag_133\n      0x04\n      dup1\n      calldatasize\n      sub\n      dup2\n      add\n      swap1\n      tag_134\n      swap2\n      swap1\n      tag_44\n      jump\t// in\n    tag_134:\n      tag_135\n      jump\t// in\n    tag_133:\n      stop\n        /* \"gameprofits-galactic-spdgcs-contracts/governence/gameProfitsGalacticNetworkSettings.sol\":5194:5468  function switchgameprofitsGoverenenceSettings(address newSetting... */\n    tag_45:\n        /* \"gameprofits-galactic-spdgcs-contracts/governence/gameProfitsGalacticNetworkSettings.sol\":10120:10125  owner */\n      0x00\n      dup1\n      sload\n      swap1\n      0x0100\n      exp\n      swap1\n      div\n      0xffffffffffffffffffffffffffffffffffffffff\n      and\n        /* \"gameprofits-galactic-spdgcs-contracts/governence/gameProfitsGalacticNetworkSettings.sol\":10106:10125  msg.sender == owner */\n      0xffffffffffffffffffffffffffffffffffffffff\n      and\n        /* \"gameprofits-galactic-spdgcs-contracts/governence/gameProfitsGalacticNetworkSettings.sol\":10106:10116  msg.sender */\n      caller\n        /* \"gameprofits-galactic-spdgcs-contracts/governence/gameProfitsGalacticNetworkSettings.sol\":10106:10125  msg.sender == owner */\n      0xffffffffffffffffffffffffffffffffffffffff\n      and\n      eq\n        /* \"gameprofits-galactic-spdgcs-contracts/governence/gameProfitsGalacticNetworkSettings.sol\":10097:10126  require (msg.sender == owner) */\n      tag_137\n      jumpi\n      0x00\n      dup1\n      revert\n    tag_137:\n        /* \"gameprofits-galactic-spdgcs-contracts/governence/gameProfitsGalacticNetworkSettings.sol\":5415:5425  newSetting */\n      dup1\n        /* \"gameprofits-galactic-spdgcs-contracts/governence/gameProfitsGalacticNetworkSettings.sol\":5355:5381  gameprofitsNetworkSettings */\n      0x01\n        /* \"gameprofits-galactic-spdgcs-contracts/governence/gameProfitsGalacticNetworkSettings.sol\":5355:5412  gameprofitsNetworkSettings.gameprofitsGoverenenceSettings */\n      0x02\n      add\n      0x00\n        /* \"gameprofits-galactic-spdgcs-contracts/governence/gameProfitsGalacticNetworkSettings.sol\":5355:5425  gameprofitsNetworkSettings.gameprofitsGoverenenceSettings = newSetting */\n      0x0100\n      exp\n      dup2\n      sload\n      dup2\n      0xffffffffffffffffffffffffffffffffffffffff\n      mul\n      not\n      and\n      swap1\n      dup4\n      0xffffffffffffffffffffffffffffffffffffffff\n      and\n      mul\n      or\n      swap1\n      sstore\n      pop\n        /* \"gameprofits-galactic-spdgcs-contracts/governence/gameProfitsGalacticNetworkSettings.sol\":5194:5468  function switchgameprofitsGoverenenceSettings(address newSetting... */\n      pop\n      jump\t// out\n        /* \"gameprofits-galactic-spdgcs-contracts/governence/gameProfitsGalacticNetworkSettings.sol\":4428:4673  function gameprofitsPremiumExchangeTraderSettings() public view returns (address) {... */\n    tag_47:\n        /* \"gameprofits-galactic-spdgcs-contracts/governence/gameProfitsGalacticNetworkSettings.sol\":4501:4508  address */\n      0x00\n        /* \"gameprofits-galactic-spdgcs-contracts/governence/gameProfitsGalacticNetworkSettings.sol\":4521:4563  gameprofitsSettings storage networksetting */\n      dup1\n        /* \"gameprofits-galactic-spdgcs-contracts/governence/gameProfitsGalacticNetworkSettings.sol\":4566:4592  gameprofitsNetworkSettings */\n      0x01\n        /* \"gameprofits-galactic-spdgcs-contracts/governence/gameProfitsGalacticNetworkSettings.sol\":4521:4592  gameprofitsSettings storage networksetting = gameprofitsNetworkSettings */\n      swap1\n      pop\n        /* \"gameprofits-galactic-spdgcs-contracts/governence/gameProfitsGalacticNetworkSettings.sol\":4610:4624  networksetting */\n      dup1\n        /* \"gameprofits-galactic-spdgcs-contracts/governence/gameProfitsGalacticNetworkSettings.sol\":4610:4665  networksetting.gameprofitsPremiumExchangeTraderSettings */\n      0x09\n      add\n      0x00\n      swap1\n      sload\n      swap1\n      0x0100\n      exp\n      swap1\n      div\n      0xffffffffffffffffffffffffffffffffffffffff\n      and\n        /* \"gameprofits-galactic-spdgcs-contracts/governence/gameProfitsGalacticNetworkSettings.sol\":4603:4665  return networksetting.gameprofitsPremiumExchangeTraderSettings */\n      swap2\n      pop\n      pop\n        /* \"gameprofits-galactic-spdgcs-contracts/governence/gameProfitsGalacticNetworkSettings.sol\":4428:4673  function gameprofitsPremiumExchangeTraderSettings() public view returns (address) {... */\n      swap1\n      jump\t// out\n        /* \"gameprofits-galactic-spdgcs-contracts/governence/gameProfitsGalacticNetworkSettings.sol\":3744:3963  function gameprofitsFairPlaySettings() public view returns (address) {... */\n    tag_51:\n        /* \"gameprofits-galactic-spdgcs-contracts/governence/gameProfitsGalacticNetworkSettings.sol\":3804:3811  address */\n      0x00\n        /* \"gameprofits-galactic-spdgcs-contracts/governence/gameProfitsGalacticNetworkSettings.sol\":3824:3866  gameprofitsSettings storage networksetting */\n      dup1\n        /* \"gameprofits-galactic-spdgcs-contracts/governence/gameProfitsGalacticNetworkSettings.sol\":3869:3895  gameprofitsNetworkSettings */\n      0x01\n        /* \"gameprofits-galactic-spdgcs-contracts/governence/gameProfitsGalacticNetworkSettings.sol\":3824:3895  gameprofitsSettings storage networksetting = gameprofitsNetworkSettings */\n      swap1\n      pop\n        /* \"gameprofits-galactic-spdgcs-contracts/governence/gameProfitsGalacticNetworkSettings.sol\":3913:3927  networksetting */\n      dup1\n        /* \"gameprofits-galactic-spdgcs-contracts/governence/gameProfitsGalacticNetworkSettings.sol\":3913:3955  networksetting.gameprofitsFairPlaySettings */\n      0x06\n      add\n      0x00\n      swap1\n      sload\n      swap1\n      0x0100\n      exp\n      swap1\n      div\n      0xffffffffffffffffffffffffffffffffffffffff\n      and\n        /* \"gameprofits-galactic-spdgcs-contracts/governence/gameProfitsGalacticNetworkSettings.sol\":3906:3955  return networksetting.gameprofitsFairPlaySettings */\n      swap2\n      pop\n      pop\n        /* \"gameprofits-galactic-spdgcs-contracts/governence/gameProfitsGalacticNetworkSettings.sol\":3744:3963  function gameprofitsFairPlaySettings() public view returns (address) {... */\n      swap1\n      jump\t// out\n        /* \"gameprofits-galactic-spdgcs-contracts/governence/gameProfitsGalacticNetworkSettings.sol\":1352:1550  function isgameNetworkActive() public view returns (bool) {... */\n    tag_54:\n        /* \"gameprofits-galactic-spdgcs-contracts/governence/gameProfitsGalacticNetworkSettings.sol\":1404:1408  bool */\n      0x00\n        /* \"gameprofits-galactic-spdgcs-contracts/governence/gameProfitsGalacticNetworkSettings.sol\":1421:1463  gameprofitsSettings storage networksetting */\n      dup1\n        /* \"gameprofits-galactic-spdgcs-contracts/governence/gameProfitsGalacticNetworkSettings.sol\":1466:1492  gameprofitsNetworkSettings */\n      0x01\n        /* \"gameprofits-galactic-spdgcs-contracts/governence/gameProfitsGalacticNetworkSettings.sol\":1421:1492  gameprofitsSettings storage networksetting = gameprofitsNetworkSettings */\n      swap1\n      pop\n        /* \"gameprofits-galactic-spdgcs-contracts/governence/gameProfitsGalacticNetworkSettings.sol\":1510:1524  networksetting */\n      dup1\n        /* \"gameprofits-galactic-spdgcs-contracts/governence/gameProfitsGalacticNetworkSettings.sol\":1510:1542  networksetting.gameNetworkActive */\n      0x00\n      add\n      0x00\n      swap1\n      sload\n      swap1\n      0x0100\n      exp\n      swap1\n      div\n      0xff\n      and\n        /* \"gameprofits-galactic-spdgcs-contracts/governence/gameProfitsGalacticNetworkSettings.sol\":1503:1542  return networksetting.gameNetworkActive */\n      swap2\n      pop\n      pop\n        /* \"gameprofits-galactic-spdgcs-contracts/governence/gameProfitsGalacticNetworkSettings.sol\":1352:1550  function isgameNetworkActive() public view returns (bool) {... */\n      swap1\n      jump\t// out\n        /* \"gameprofits-galactic-spdgcs-contracts/governence/gameProfitsGalacticNetworkSettings.sol\":1954:2156  function isgamesAreCoolingDown() public view returns (bool) {... */\n    tag_58:\n        /* \"gameprofits-galactic-spdgcs-contracts/governence/gameProfitsGalacticNetworkSettings.sol\":2008:2012  bool */\n      0x00\n        /* \"gameprofits-galactic-spdgcs-contracts/governence/gameProfitsGalacticNetworkSettings.sol\":2025:2067  gameprofitsSettings storage networksetting */\n      dup1\n        /* \"gameprofits-galactic-spdgcs-contracts/governence/gameProfitsGalacticNetworkSettings.sol\":2070:2096  gameprofitsNetworkSettings */\n      0x01\n        /* \"gameprofits-galactic-spdgcs-contracts/governence/gameProfitsGalacticNetworkSettings.sol\":2025:2096  gameprofitsSettings storage networksetting = gameprofitsNetworkSettings */\n      swap1\n      pop\n        /* \"gameprofits-galactic-spdgcs-contracts/governence/gameProfitsGalacticNetworkSettings.sol\":2114:2128  networksetting */\n      dup1\n        /* \"gameprofits-galactic-spdgcs-contracts/governence/gameProfitsGalacticNetworkSettings.sol\":2114:2148  networksetting.gamesAreCoolingDown */\n      0x00\n      add\n      0x03\n      swap1\n      sload\n      swap1\n      0x0100\n      exp\n      swap1\n      div\n      0xff\n      and\n        /* \"gameprofits-galactic-spdgcs-contracts/governence/gameProfitsGalacticNetworkSettings.sol\":2107:2148  return networksetting.gamesAreCoolingDown */\n      swap2\n      pop\n      pop\n        /* \"gameprofits-galactic-spdgcs-contracts/governence/gameProfitsGalacticNetworkSettings.sol\":1954:2156  function isgamesAreCoolingDown() public view returns (bool) {... */\n      swap1\n      jump\t// out\n        /* \"gameprofits-galactic-spdgcs-contracts/governence/gameProfitsGalacticNetworkSettings.sol\":8501:8767  function switchgamesAreDeactivated(... */\n    tag_61:\n        /* \"gameprofits-galactic-spdgcs-contracts/governence/gameProfitsGalacticNetworkSettings.sol\":10120:10125  owner */\n      0x00\n      dup1\n      sload\n      swap1\n      0x0100\n      exp\n      swap1\n      div\n      0xffffffffffffffffffffffffffffffffffffffff\n      and\n        /* \"gameprofits-galactic-spdgcs-contracts/governence/gameProfitsGalacticNetworkSettings.sol\":10106:10125  msg.sender == owner */\n      0xffffffffffffffffffffffffffffffffffffffff\n      and\n        /* \"gameprofits-galactic-spdgcs-contracts/governence/gameProfitsGalacticNetworkSettings.sol\":10106:10116  msg.sender */\n      caller\n        /* \"gameprofits-galactic-spdgcs-contracts/governence/gameProfitsGalacticNetworkSettings.sol\":10106:10125  msg.sender == owner */\n      0xffffffffffffffffffffffffffffffffffffffff\n      and\n      eq\n        /* \"gameprofits-galactic-spdgcs-contracts/governence/gameProfitsGalacticNetworkSettings.sol\":10097:10126  require (msg.sender == owner) */\n      tag_144\n      jumpi\n      0x00\n      dup1\n      revert\n    tag_144:\n        /* \"gameprofits-galactic-spdgcs-contracts/governence/gameProfitsGalacticNetworkSettings.sol\":8703:8729  gameprofitsNetworkSettings */\n      0x01\n        /* \"gameprofits-galactic-spdgcs-contracts/governence/gameProfitsGalacticNetworkSettings.sol\":8703:8749  gameprofitsNetworkSettings.gamesAreDeactivated */\n      0x00\n      add\n      0x02\n      swap1\n      sload\n      swap1\n      0x0100\n      exp\n      swap1\n      div\n      0xff\n      and\n        /* \"gameprofits-galactic-spdgcs-contracts/governence/gameProfitsGalacticNetworkSettings.sol\":8702:8749  !gameprofitsNetworkSettings.gamesAreDeactivated */\n      iszero\n        /* \"gameprofits-galactic-spdgcs-contracts/governence/gameProfitsGalacticNetworkSettings.sol\":8653:8679  gameprofitsNetworkSettings */\n      0x01\n        /* \"gameprofits-galactic-spdgcs-contracts/governence/gameProfitsGalacticNetworkSettings.sol\":8653:8699  gameprofitsNetworkSettings.gamesAreDeactivated */\n      0x00\n      add\n      0x02\n        /* \"gameprofits-galactic-spdgcs-contracts/governence/gameProfitsGalacticNetworkSettings.sol\":8653:8749  gameprofitsNetworkSettings.gamesAreDeactivated = !gameprofitsNetworkSettings.gamesAreDeactivated */\n      0x0100\n      exp\n      dup2\n      sload\n      dup2\n      0xff\n      mul\n      not\n      and\n      swap1\n      dup4\n      iszero\n      iszero\n      mul\n      or\n      swap1\n      sstore\n      pop\n        /* \"gameprofits-galactic-spdgcs-contracts/governence/gameProfitsGalacticNetworkSettings.sol\":8501:8767  function switchgamesAreDeactivated(... */\n      jump\t// out\n        /* \"gameprofits-galactic-spdgcs-contracts/governence/gameProfitsGalacticNetworkSettings.sol\":9037:10063  function switchgamesKillSwitch(... */\n    tag_63:\n        /* \"gameprofits-galactic-spdgcs-contracts/governence/gameProfitsGalacticNetworkSettings.sol\":10120:10125  owner */\n      0x00\n      dup1\n      sload\n      swap1\n      0x0100\n      exp\n      swap1\n      div\n      0xffffffffffffffffffffffffffffffffffffffff\n      and\n        /* \"gameprofits-galactic-spdgcs-contracts/governence/gameProfitsGalacticNetworkSettings.sol\":10106:10125  msg.sender == owner */\n      0xffffffffffffffffffffffffffffffffffffffff\n      and\n        /* \"gameprofits-galactic-spdgcs-contracts/governence/gameProfitsGalacticNetworkSettings.sol\":10106:10116  msg.sender */\n      caller\n        /* \"gameprofits-galactic-spdgcs-contracts/governence/gameProfitsGalacticNetworkSettings.sol\":10106:10125  msg.sender == owner */\n      0xffffffffffffffffffffffffffffffffffffffff\n      and\n      eq\n        /* \"gameprofits-galactic-spdgcs-contracts/governence/gameProfitsGalacticNetworkSettings.sol\":10097:10126  require (msg.sender == owner) */\n      tag_147\n      jumpi\n      0x00\n      dup1\n      revert\n    tag_147:\n        /* \"gameprofits-galactic-spdgcs-contracts/governence/gameProfitsGalacticNetworkSettings.sol\":9227:9232  false */\n      0x00\n        /* \"gameprofits-galactic-spdgcs-contracts/governence/gameProfitsGalacticNetworkSettings.sol\":9183:9232  gameprofitsNetworkSettings.gamesKillSwitch==false */\n      iszero\n      iszero\n        /* \"gameprofits-galactic-spdgcs-contracts/governence/gameProfitsGalacticNetworkSettings.sol\":9183:9209  gameprofitsNetworkSettings */\n      0x01\n        /* \"gameprofits-galactic-spdgcs-contracts/governence/gameProfitsGalacticNetworkSettings.sol\":9183:9225  gameprofitsNetworkSettings.gamesKillSwitch */\n      0x00\n      add\n      0x04\n      swap1\n      sload\n      swap1\n      0x0100\n      exp\n      swap1\n      div\n      0xff\n      and\n        /* \"gameprofits-galactic-spdgcs-contracts/governence/gameProfitsGalacticNetworkSettings.sol\":9183:9232  gameprofitsNetworkSettings.gamesKillSwitch==false */\n      iszero\n      iszero\n      sub\n        /* \"gameprofits-galactic-spdgcs-contracts/governence/gameProfitsGalacticNetworkSettings.sol\":9180:10020  if(gameprofitsNetworkSettings.gamesKillSwitch==false){... */\n      tag_149\n      jumpi\n        /* \"gameprofits-galactic-spdgcs-contracts/governence/gameProfitsGalacticNetworkSettings.sol\":9303:9329  gameprofitsNetworkSettings */\n      0x01\n        /* \"gameprofits-galactic-spdgcs-contracts/governence/gameProfitsGalacticNetworkSettings.sol\":9303:9345  gameprofitsNetworkSettings.gamesKillSwitch */\n      0x00\n      add\n      0x04\n      swap1\n      sload\n      swap1\n      0x0100\n      exp\n      swap1\n      div\n      0xff\n      and\n        /* \"gameprofits-galactic-spdgcs-contracts/governence/gameProfitsGalacticNetworkSettings.sol\":9302:9345  !gameprofitsNetworkSettings.gamesKillSwitch */\n      iszero\n        /* \"gameprofits-galactic-spdgcs-contracts/governence/gameProfitsGalacticNetworkSettings.sol\":9257:9283  gameprofitsNetworkSettings */\n      0x01\n        /* \"gameprofits-galactic-spdgcs-contracts/governence/gameProfitsGalacticNetworkSettings.sol\":9257:9299  gameprofitsNetworkSettings.gamesKillSwitch */\n      0x00\n      add\n      0x04\n        /* \"gameprofits-galactic-spdgcs-contracts/governence/gameProfitsGalacticNetworkSettings.sol\":9257:9345  gameprofitsNetworkSettings.gamesKillSwitch = !gameprofitsNetworkSettings.gamesKillSwitch */\n      0x0100\n      exp\n      dup2\n      sload\n      dup2\n      0xff\n      mul\n      not\n      and\n      swap1\n      dup4\n      iszero\n      iszero\n      mul\n      or\n      swap1\n      sstore\n      pop\n        /* \"gameprofits-galactic-spdgcs-contracts/governence/gameProfitsGalacticNetworkSettings.sol\":9418:9422  true */\n      0x01\n        /* \"gameprofits-galactic-spdgcs-contracts/governence/gameProfitsGalacticNetworkSettings.sol\":9369:9395  gameprofitsNetworkSettings */\n      dup1\n        /* \"gameprofits-galactic-spdgcs-contracts/governence/gameProfitsGalacticNetworkSettings.sol\":9369:9415  gameprofitsNetworkSettings.gamesAreCoolingDown */\n      0x00\n      add\n      0x03\n        /* \"gameprofits-galactic-spdgcs-contracts/governence/gameProfitsGalacticNetworkSettings.sol\":9369:9422  gameprofitsNetworkSettings.gamesAreCoolingDown = true */\n      0x0100\n      exp\n      dup2\n      sload\n      dup2\n      0xff\n      mul\n      not\n      and\n      swap1\n      dup4\n      iszero\n      iszero\n      mul\n      or\n      swap1\n      sstore\n      pop\n        /* \"gameprofits-galactic-spdgcs-contracts/governence/gameProfitsGalacticNetworkSettings.sol\":9486:9491  false */\n      0x00\n        /* \"gameprofits-galactic-spdgcs-contracts/governence/gameProfitsGalacticNetworkSettings.sol\":9446:9472  gameprofitsNetworkSettings */\n      0x01\n        /* \"gameprofits-galactic-spdgcs-contracts/governence/gameProfitsGalacticNetworkSettings.sol\":9446:9483  gameprofitsNetworkSettings.gamesAreOn */\n      0x00\n      add\n      0x01\n        /* \"gameprofits-galactic-spdgcs-contracts/governence/gameProfitsGalacticNetworkSettings.sol\":9446:9491  gameprofitsNetworkSettings.gamesAreOn = false */\n      0x0100\n      exp\n      dup2\n      sload\n      dup2\n      0xff\n      mul\n      not\n      and\n      swap1\n      dup4\n      iszero\n      iszero\n      mul\n      or\n      swap1\n      sstore\n      pop\n        /* \"gameprofits-galactic-spdgcs-contracts/governence/gameProfitsGalacticNetworkSettings.sol\":9564:9568  true */\n      0x01\n        /* \"gameprofits-galactic-spdgcs-contracts/governence/gameProfitsGalacticNetworkSettings.sol\":9515:9541  gameprofitsNetworkSettings */\n      dup1\n        /* \"gameprofits-galactic-spdgcs-contracts/governence/gameProfitsGalacticNetworkSettings.sol\":9515:9561  gameprofitsNetworkSettings.gamesAreDeactivated */\n      0x00\n      add\n      0x02\n        /* \"gameprofits-galactic-spdgcs-contracts/governence/gameProfitsGalacticNetworkSettings.sol\":9515:9568  gameprofitsNetworkSettings.gamesAreDeactivated = true */\n      0x0100\n      exp\n      dup2\n      sload\n      dup2\n      0xff\n      mul\n      not\n      and\n      swap1\n      dup4\n      iszero\n      iszero\n      mul\n      or\n      swap1\n      sstore\n      pop\n        /* \"gameprofits-galactic-spdgcs-contracts/governence/gameProfitsGalacticNetworkSettings.sol\":9180:10020  if(gameprofitsNetworkSettings.gamesKillSwitch==false){... */\n      jump(tag_150)\n    tag_149:\n        /* \"gameprofits-galactic-spdgcs-contracts/governence/gameProfitsGalacticNetworkSettings.sol\":9658:9662  true */\n      0x01\n        /* \"gameprofits-galactic-spdgcs-contracts/governence/gameProfitsGalacticNetworkSettings.sol\":9614:9662  gameprofitsNetworkSettings.gamesKillSwitch==true */\n      iszero\n      iszero\n        /* \"gameprofits-galactic-spdgcs-contracts/governence/gameProfitsGalacticNetworkSettings.sol\":9614:9640  gameprofitsNetworkSettings */\n      0x01\n        /* \"gameprofits-galactic-spdgcs-contracts/governence/gameProfitsGalacticNetworkSettings.sol\":9614:9656  gameprofitsNetworkSettings.gamesKillSwitch */\n      0x00\n      add\n      0x04\n      swap1\n      sload\n      swap1\n      0x0100\n      exp\n      swap1\n      div\n      0xff\n      and\n        /* \"gameprofits-galactic-spdgcs-contracts/governence/gameProfitsGalacticNetworkSettings.sol\":9614:9662  gameprofitsNetworkSettings.gamesKillSwitch==true */\n      iszero\n      iszero\n      sub\n        /* \"gameprofits-galactic-spdgcs-contracts/governence/gameProfitsGalacticNetworkSettings.sol\":9611:10020  if(gameprofitsNetworkSettings.gamesKillSwitch==true){... */\n      tag_151\n      jumpi\n        /* \"gameprofits-galactic-spdgcs-contracts/governence/gameProfitsGalacticNetworkSettings.sol\":9733:9759  gameprofitsNetworkSettings */\n      0x01\n        /* \"gameprofits-galactic-spdgcs-contracts/governence/gameProfitsGalacticNetworkSettings.sol\":9733:9775  gameprofitsNetworkSettings.gamesKillSwitch */\n      0x00\n      add\n      0x04\n      swap1\n      sload\n      swap1\n      0x0100\n      exp\n      swap1\n      div\n      0xff\n      and\n        /* \"gameprofits-galactic-spdgcs-contracts/governence/gameProfitsGalacticNetworkSettings.sol\":9732:9775  !gameprofitsNetworkSettings.gamesKillSwitch */\n      iszero\n        /* \"gameprofits-galactic-spdgcs-contracts/governence/gameProfitsGalacticNetworkSettings.sol\":9687:9713  gameprofitsNetworkSettings */\n      0x01\n        /* \"gameprofits-galactic-spdgcs-contracts/governence/gameProfitsGalacticNetworkSettings.sol\":9687:9729  gameprofitsNetworkSettings.gamesKillSwitch */\n      0x00\n      add\n      0x04\n        /* \"gameprofits-galactic-spdgcs-contracts/governence/gameProfitsGalacticNetworkSettings.sol\":9687:9775  gameprofitsNetworkSettings.gamesKillSwitch = !gameprofitsNetworkSettings.gamesKillSwitch */\n      0x0100\n      exp\n      dup2\n      sload\n      dup2\n      0xff\n      mul\n      not\n      and\n      swap1\n      dup4\n      iszero\n      iszero\n      mul\n      or\n      swap1\n      sstore\n      pop\n        /* \"gameprofits-galactic-spdgcs-contracts/governence/gameProfitsGalacticNetworkSettings.sol\":9848:9853  false */\n      0x00\n        /* \"gameprofits-galactic-spdgcs-contracts/governence/gameProfitsGalacticNetworkSettings.sol\":9799:9825  gameprofitsNetworkSettings */\n      0x01\n        /* \"gameprofits-galactic-spdgcs-contracts/governence/gameProfitsGalacticNetworkSettings.sol\":9799:9845  gameprofitsNetworkSettings.gamesAreCoolingDown */\n      0x00\n      add\n      0x03\n        /* \"gameprofits-galactic-spdgcs-contracts/governence/gameProfitsGalacticNetworkSettings.sol\":9799:9853  gameprofitsNetworkSettings.gamesAreCoolingDown = false */\n      0x0100\n      exp\n      dup2\n      sload\n      dup2\n      0xff\n      mul\n      not\n      and\n      swap1\n      dup4\n      iszero\n      iszero\n      mul\n      or\n      swap1\n      sstore\n      pop\n        /* \"gameprofits-galactic-spdgcs-contracts/governence/gameProfitsGalacticNetworkSettings.sol\":9917:9922  false */\n      0x00\n        /* \"gameprofits-galactic-spdgcs-contracts/governence/gameProfitsGalacticNetworkSettings.sol\":9877:9903  gameprofitsNetworkSettings */\n      0x01\n        /* \"gameprofits-galactic-spdgcs-contracts/governence/gameProfitsGalacticNetworkSettings.sol\":9877:9914  gameprofitsNetworkSettings.gamesAreOn */\n      0x00\n      add\n      0x01\n        /* \"gameprofits-galactic-spdgcs-contracts/governence/gameProfitsGalacticNetworkSettings.sol\":9877:9922  gameprofitsNetworkSettings.gamesAreOn = false */\n      0x0100\n      exp\n      dup2\n      sload\n      dup2\n      0xff\n      mul\n      not\n      and\n      swap1\n      dup4\n      iszero\n      iszero\n      mul\n      or\n      swap1\n      sstore\n      pop\n        /* \"gameprofits-galactic-spdgcs-contracts/governence/gameProfitsGalacticNetworkSettings.sol\":9995:10000  false */\n      0x00\n        /* \"gameprofits-galactic-spdgcs-contracts/governence/gameProfitsGalacticNetworkSettings.sol\":9946:9972  gameprofitsNetworkSettings */\n      0x01\n        /* \"gameprofits-galactic-spdgcs-contracts/governence/gameProfitsGalacticNetworkSettings.sol\":9946:9992  gameprofitsNetworkSettings.gamesAreDeactivated */\n      0x00\n      add\n      0x02\n        /* \"gameprofits-galactic-spdgcs-contracts/governence/gameProfitsGalacticNetworkSettings.sol\":9946:10000  gameprofitsNetworkSettings.gamesAreDeactivated = false */\n      0x0100\n      exp\n      dup2\n      sload\n      dup2\n      0xff\n      mul\n      not\n      and\n      swap1\n      dup4\n      iszero\n      iszero\n      mul\n      or\n      swap1\n      sstore\n      pop\n        /* \"gameprofits-galactic-spdgcs-contracts/governence/gameProfitsGalacticNetworkSettings.sol\":9611:10020  if(gameprofitsNetworkSettings.gamesKillSwitch==true){... */\n    tag_151:\n        /* \"gameprofits-galactic-spdgcs-contracts/governence/gameProfitsGalacticNetworkSettings.sol\":9180:10020  if(gameprofitsNetworkSettings.gamesKillSwitch==false){... */\n    tag_150:\n        /* \"gameprofits-galactic-spdgcs-contracts/governence/gameProfitsGalacticNetworkSettings.sol\":9037:10063  function switchgamesKillSwitch(... */\n      jump\t// out\n        /* \"gameprofits-galactic-spdgcs-contracts/governence/gameProfitsGalacticNetworkSettings.sol\":6316:6584  function switchgameprofitsFairPlaySettings(address newSetting... */\n    tag_66:\n        /* \"gameprofits-galactic-spdgcs-contracts/governence/gameProfitsGalacticNetworkSettings.sol\":10120:10125  owner */\n      0x00\n      dup1\n      sload\n      swap1\n      0x0100\n      exp\n      swap1\n      div\n      0xffffffffffffffffffffffffffffffffffffffff\n      and\n        /* \"gameprofits-galactic-spdgcs-contracts/governence/gameProfitsGalacticNetworkSettings.sol\":10106:10125  msg.sender == owner */\n      0xffffffffffffffffffffffffffffffffffffffff\n      and\n        /* \"gameprofits-galactic-spdgcs-contracts/governence/gameProfitsGalacticNetworkSettings.sol\":10106:10116  msg.sender */\n      caller\n        /* \"gameprofits-galactic-spdgcs-contracts/governence/gameProfitsGalacticNetworkSettings.sol\":10106:10125  msg.sender == owner */\n      0xffffffffffffffffffffffffffffffffffffffff\n      and\n      eq\n        /* \"gameprofits-galactic-spdgcs-contracts/governence/gameProfitsGalacticNetworkSettings.sol\":10097:10126  require (msg.sender == owner) */\n      tag_153\n      jumpi\n      0x00\n      dup1\n      revert\n    tag_153:\n        /* \"gameprofits-galactic-spdgcs-contracts/governence/gameProfitsGalacticNetworkSettings.sol\":6531:6541  newSetting */\n      dup1\n        /* \"gameprofits-galactic-spdgcs-contracts/governence/gameProfitsGalacticNetworkSettings.sol\":6474:6500  gameprofitsNetworkSettings */\n      0x01\n        /* \"gameprofits-galactic-spdgcs-contracts/governence/gameProfitsGalacticNetworkSettings.sol\":6474:6528  gameprofitsNetworkSettings.gameprofitsFairPlaySettings */\n      0x06\n      add\n      0x00\n        /* \"gameprofits-galactic-spdgcs-contracts/governence/gameProfitsGalacticNetworkSettings.sol\":6474:6541  gameprofitsNetworkSettings.gameprofitsFairPlaySettings = newSetting */\n      0x0100\n      exp\n      dup2\n      sload\n      dup2\n      0xffffffffffffffffffffffffffffffffffffffff\n      mul\n      not\n      and\n      swap1\n      dup4\n      0xffffffffffffffffffffffffffffffffffffffff\n      and\n      mul\n      or\n      swap1\n      sstore\n      pop\n        /* \"gameprofits-galactic-spdgcs-contracts/governence/gameProfitsGalacticNetworkSettings.sol\":6316:6584  function switchgameprofitsFairPlaySettings(address newSetting... */\n      pop\n      jump\t// out\n        /* \"gameprofits-galactic-spdgcs-contracts/governence/gameProfitsGalacticNetworkSettings.sol\":1554:1738  function isgamesAreOn() public view returns (bool) {... */\n    tag_68:\n        /* \"gameprofits-galactic-spdgcs-contracts/governence/gameProfitsGalacticNetworkSettings.sol\":1599:1603  bool */\n      0x00\n        /* \"gameprofits-galactic-spdgcs-contracts/governence/gameProfitsGalacticNetworkSettings.sol\":1616:1658  gameprofitsSettings storage networksetting */\n      dup1\n        /* \"gameprofits-galactic-spdgcs-contracts/governence/gameProfitsGalacticNetworkSettings.sol\":1661:1687  gameprofitsNetworkSettings */\n      0x01\n        /* \"gameprofits-galactic-spdgcs-contracts/governence/gameProfitsGalacticNetworkSettings.sol\":1616:1687  gameprofitsSettings storage networksetting = gameprofitsNetworkSettings */\n      swap1\n      pop\n        /* \"gameprofits-galactic-spdgcs-contracts/governence/gameProfitsGalacticNetworkSettings.sol\":1705:1719  networksetting */\n      dup1\n        /* \"gameprofits-galactic-spdgcs-contracts/governence/gameProfitsGalacticNetworkSettings.sol\":1705:1730  networksetting.gamesAreOn */\n      0x00\n      add\n      0x01\n      swap1\n      sload\n      swap1\n      0x0100\n      exp\n      swap1\n      div\n      0xff\n      and\n        /* \"gameprofits-galactic-spdgcs-contracts/governence/gameProfitsGalacticNetworkSettings.sol\":1698:1730  return networksetting.gamesAreOn */\n      swap2\n      pop\n      pop\n        /* \"gameprofits-galactic-spdgcs-contracts/governence/gameProfitsGalacticNetworkSettings.sol\":1554:1738  function isgamesAreOn() public view returns (bool) {... */\n      swap1\n      jump\t// out\n        /* \"gameprofits-galactic-spdgcs-contracts/governence/gameProfitsGalacticNetworkSettings.sol\":3507:3738  function gameprofitsMetaVerseUniverseItems() public view returns (address) {... */\n    tag_71:\n        /* \"gameprofits-galactic-spdgcs-contracts/governence/gameProfitsGalacticNetworkSettings.sol\":3573:3580  address */\n      0x00\n        /* \"gameprofits-galactic-spdgcs-contracts/governence/gameProfitsGalacticNetworkSettings.sol\":3593:3635  gameprofitsSettings storage networksetting */\n      dup1\n        /* \"gameprofits-galactic-spdgcs-contracts/governence/gameProfitsGalacticNetworkSettings.sol\":3638:3664  gameprofitsNetworkSettings */\n      0x01\n        /* \"gameprofits-galactic-spdgcs-contracts/governence/gameProfitsGalacticNetworkSettings.sol\":3593:3664  gameprofitsSettings storage networksetting = gameprofitsNetworkSettings */\n      swap1\n      pop\n        /* \"gameprofits-galactic-spdgcs-contracts/governence/gameProfitsGalacticNetworkSettings.sol\":3682:3696  networksetting */\n      dup1\n        /* \"gameprofits-galactic-spdgcs-contracts/governence/gameProfitsGalacticNetworkSettings.sol\":3682:3730  networksetting.gameprofitsMetaVerseUniverseItems */\n      0x05\n      add\n      0x00\n      swap1\n      sload\n      swap1\n      0x0100\n      exp\n      swap1\n      div\n      0xffffffffffffffffffffffffffffffffffffffff\n      and\n        /* \"gameprofits-galactic-spdgcs-contracts/governence/gameProfitsGalacticNetworkSettings.sol\":3675:3730  return networksetting.gameprofitsMetaVerseUniverseItems */\n      swap2\n      pop\n      pop\n        /* \"gameprofits-galactic-spdgcs-contracts/governence/gameProfitsGalacticNetworkSettings.sol\":3507:3738  function gameprofitsMetaVerseUniverseItems() public view returns (address) {... */\n      swap1\n      jump\t// out\n        /* \"gameprofits-galactic-spdgcs-contracts/governence/gameProfitsGalacticNetworkSettings.sol\":2581:2804  function gameprofitsExperimentSettings() public view returns (address) {... */\n    tag_74:\n        /* \"gameprofits-galactic-spdgcs-contracts/governence/gameProfitsGalacticNetworkSettings.sol\":2643:2650  address */\n      0x00\n        /* \"gameprofits-galactic-spdgcs-contracts/governence/gameProfitsGalacticNetworkSettings.sol\":2663:2705  gameprofitsSettings storage networksetting */\n      dup1\n        /* \"gameprofits-galactic-spdgcs-contracts/governence/gameProfitsGalacticNetworkSettings.sol\":2708:2734  gameprofitsNetworkSettings */\n      0x01\n        /* \"gameprofits-galactic-spdgcs-contracts/governence/gameProfitsGalacticNetworkSettings.sol\":2663:2734  gameprofitsSettings storage networksetting = gameprofitsNetworkSettings */\n      swap1\n      pop\n        /* \"gameprofits-galactic-spdgcs-contracts/governence/gameProfitsGalacticNetworkSettings.sol\":2752:2766  networksetting */\n      dup1\n        /* \"gameprofits-galactic-spdgcs-contracts/governence/gameProfitsGalacticNetworkSettings.sol\":2752:2796  networksetting.gameprofitsExperimentSettings */\n      0x01\n      add\n      0x00\n      swap1\n      sload\n      swap1\n      0x0100\n      exp\n      swap1\n      div\n      0xffffffffffffffffffffffffffffffffffffffff\n      and\n        /* \"gameprofits-galactic-spdgcs-contracts/governence/gameProfitsGalacticNetworkSettings.sol\":2745:2796  return networksetting.gameprofitsExperimentSettings */\n      swap2\n      pop\n      pop\n        /* \"gameprofits-galactic-spdgcs-contracts/governence/gameProfitsGalacticNetworkSettings.sol\":2581:2804  function gameprofitsExperimentSettings() public view returns (address) {... */\n      swap1\n      jump\t// out\n        /* \"gameprofits-galactic-spdgcs-contracts/governence/gameProfitsGalacticNetworkSettings.sol\":1744:1946  function isgamesAreDeactivated() public view returns (bool) {... */\n    tag_77:\n        /* \"gameprofits-galactic-spdgcs-contracts/governence/gameProfitsGalacticNetworkSettings.sol\":1798:1802  bool */\n      0x00\n        /* \"gameprofits-galactic-spdgcs-contracts/governence/gameProfitsGalacticNetworkSettings.sol\":1815:1857  gameprofitsSettings storage networksetting */\n      dup1\n        /* \"gameprofits-galactic-spdgcs-contracts/governence/gameProfitsGalacticNetworkSettings.sol\":1860:1886  gameprofitsNetworkSettings */\n      0x01\n        /* \"gameprofits-galactic-spdgcs-contracts/governence/gameProfitsGalacticNetworkSettings.sol\":1815:1886  gameprofitsSettings storage networksetting = gameprofitsNetworkSettings */\n      swap1\n      pop\n        /* \"gameprofits-galactic-spdgcs-contracts/governence/gameProfitsGalacticNetworkSettings.sol\":1904:1918  networksetting */\n      dup1\n        /* \"gameprofits-galactic-spdgcs-contracts/governence/gameProfitsGalacticNetworkSettings.sol\":1904:1938  networksetting.gamesAreDeactivated */\n      0x00\n      add\n      0x02\n      swap1\n      sload\n      swap1\n      0x0100\n      exp\n      swap1\n      div\n      0xff\n      and\n        /* \"gameprofits-galactic-spdgcs-contracts/governence/gameProfitsGalacticNetworkSettings.sol\":1897:1938  return networksetting.gamesAreDeactivated */\n      swap2\n      pop\n      pop\n        /* \"gameprofits-galactic-spdgcs-contracts/governence/gameProfitsGalacticNetworkSettings.sol\":1744:1946  function isgamesAreDeactivated() public view returns (bool) {... */\n      swap1\n      jump\t// out\n        /* \"gameprofits-galactic-spdgcs-contracts/governence/gameProfitsGalacticNetworkSettings.sol\":7142:7436  function switchgameprofitsPremiumExchangeTraderSettings(address newSetting... */\n    tag_81:\n        /* \"gameprofits-galactic-spdgcs-contracts/governence/gameProfitsGalacticNetworkSettings.sol\":10120:10125  owner */\n      0x00\n      dup1\n      sload\n      swap1\n      0x0100\n      exp\n      swap1\n      div\n      0xffffffffffffffffffffffffffffffffffffffff\n      and\n        /* \"gameprofits-galactic-spdgcs-contracts/governence/gameProfitsGalacticNetworkSettings.sol\":10106:10125  msg.sender == owner */\n      0xffffffffffffffffffffffffffffffffffffffff\n      and\n        /* \"gameprofits-galactic-spdgcs-contracts/governence/gameProfitsGalacticNetworkSettings.sol\":10106:10116  msg.sender */\n      caller\n        /* \"gameprofits-galactic-spdgcs-contracts/governence/gameProfitsGalacticNetworkSettings.sol\":10106:10125  msg.sender == owner */\n      0xffffffffffffffffffffffffffffffffffffffff\n      and\n      eq\n        /* \"gameprofits-galactic-spdgcs-contracts/governence/gameProfitsGalacticNetworkSettings.sol\":10097:10126  require (msg.sender == owner) */\n      tag_160\n      jumpi\n      0x00\n      dup1\n      revert\n    tag_160:\n        /* \"gameprofits-galactic-spdgcs-contracts/governence/gameProfitsGalacticNetworkSettings.sol\":7383:7393  newSetting */\n      dup1\n        /* \"gameprofits-galactic-spdgcs-contracts/governence/gameProfitsGalacticNetworkSettings.sol\":7313:7339  gameprofitsNetworkSettings */\n      0x01\n        /* \"gameprofits-galactic-spdgcs-contracts/governence/gameProfitsGalacticNetworkSettings.sol\":7313:7380  gameprofitsNetworkSettings.gameprofitsPremiumExchangeTraderSettings */\n      0x09\n      add\n      0x00\n        /* \"gameprofits-galactic-spdgcs-contracts/governence/gameProfitsGalacticNetworkSettings.sol\":7313:7393  gameprofitsNetworkSettings.gameprofitsPremiumExchangeTraderSettings = newSetting */\n      0x0100\n      exp\n      dup2\n      sload\n      dup2\n      0xffffffffffffffffffffffffffffffffffffffff\n      mul\n      not\n      and\n      swap1\n      dup4\n      0xffffffffffffffffffffffffffffffffffffffff\n      and\n      mul\n      or\n      swap1\n      sstore\n      pop\n        /* \"gameprofits-galactic-spdgcs-contracts/governence/gameProfitsGalacticNetworkSettings.sol\":7142:7436  function switchgameprofitsPremiumExchangeTraderSettings(address newSetting... */\n      pop\n      jump\t// out\n        /* \"gameprofits-galactic-spdgcs-contracts/governence/gameProfitsGalacticNetworkSettings.sol\":6588:6858  function switchgameprofitsFairValueSettings(address newSetting... */\n    tag_84:\n        /* \"gameprofits-galactic-spdgcs-contracts/governence/gameProfitsGalacticNetworkSettings.sol\":10120:10125  owner */\n      0x00\n      dup1\n      sload\n      swap1\n      0x0100\n      exp\n      swap1\n      div\n      0xffffffffffffffffffffffffffffffffffffffff\n      and\n        /* \"gameprofits-galactic-spdgcs-contracts/governence/gameProfitsGalacticNetworkSettings.sol\":10106:10125  msg.sender == owner */\n      0xffffffffffffffffffffffffffffffffffffffff\n      and\n        /* \"gameprofits-galactic-spdgcs-contracts/governence/gameProfitsGalacticNetworkSettings.sol\":10106:10116  msg.sender */\n      caller\n        /* \"gameprofits-galactic-spdgcs-contracts/governence/gameProfitsGalacticNetworkSettings.sol\":10106:10125  msg.sender == owner */\n      0xffffffffffffffffffffffffffffffffffffffff\n      and\n      eq\n        /* \"gameprofits-galactic-spdgcs-contracts/governence/gameProfitsGalacticNetworkSettings.sol\":10097:10126  require (msg.sender == owner) */\n      tag_163\n      jumpi\n      0x00\n      dup1\n      revert\n    tag_163:\n        /* \"gameprofits-galactic-spdgcs-contracts/governence/gameProfitsGalacticNetworkSettings.sol\":6805:6815  newSetting */\n      dup1\n        /* \"gameprofits-galactic-spdgcs-contracts/governence/gameProfitsGalacticNetworkSettings.sol\":6747:6773  gameprofitsNetworkSettings */\n      0x01\n        /* \"gameprofits-galactic-spdgcs-contracts/governence/gameProfitsGalacticNetworkSettings.sol\":6747:6802  gameprofitsNetworkSettings.gameprofitsFairValueSettings */\n      0x07\n      add\n      0x00\n        /* \"gameprofits-galactic-spdgcs-contracts/governence/gameProfitsGalacticNetworkSettings.sol\":6747:6815  gameprofitsNetworkSettings.gameprofitsFairValueSettings = newSetting */\n      0x0100\n      exp\n      dup2\n      sload\n      dup2\n      0xffffffffffffffffffffffffffffffffffffffff\n      mul\n      not\n      and\n      swap1\n      dup4\n      0xffffffffffffffffffffffffffffffffffffffff\n      and\n      mul\n      or\n      swap1\n      sstore\n      pop\n        /* \"gameprofits-galactic-spdgcs-contracts/governence/gameProfitsGalacticNetworkSettings.sol\":6588:6858  function switchgameprofitsFairValueSettings(address newSetting... */\n      pop\n      jump\t// out\n        /* \"gameprofits-galactic-spdgcs-contracts/governence/gameProfitsGalacticNetworkSettings.sol\":4195:4422  function gameprofitsFairSoulsActSettings() public view returns (address) {... */\n    tag_86:\n        /* \"gameprofits-galactic-spdgcs-contracts/governence/gameProfitsGalacticNetworkSettings.sol\":4259:4266  address */\n      0x00\n        /* \"gameprofits-galactic-spdgcs-contracts/governence/gameProfitsGalacticNetworkSettings.sol\":4279:4321  gameprofitsSettings storage networksetting */\n      dup1\n        /* \"gameprofits-galactic-spdgcs-contracts/governence/gameProfitsGalacticNetworkSettings.sol\":4324:4350  gameprofitsNetworkSettings */\n      0x01\n        /* \"gameprofits-galactic-spdgcs-contracts/governence/gameProfitsGalacticNetworkSettings.sol\":4279:4350  gameprofitsSettings storage networksetting = gameprofitsNetworkSettings */\n      swap1\n      pop\n        /* \"gameprofits-galactic-spdgcs-contracts/governence/gameProfitsGalacticNetworkSettings.sol\":4368:4382  networksetting */\n      dup1\n        /* \"gameprofits-galactic-spdgcs-contracts/governence/gameProfitsGalacticNetworkSettings.sol\":4368:4414  networksetting.gameprofitsFairSoulsActSettings */\n      0x08\n      add\n      0x00\n      swap1\n      sload\n      swap1\n      0x0100\n      exp\n      swap1\n      div\n      0xffffffffffffffffffffffffffffffffffffffff\n      and\n        /* \"gameprofits-galactic-spdgcs-contracts/governence/gameProfitsGalacticNetworkSettings.sol\":4361:4414  return networksetting.gameprofitsFairSoulsActSettings */\n      swap2\n      pop\n      pop\n        /* \"gameprofits-galactic-spdgcs-contracts/governence/gameProfitsGalacticNetworkSettings.sol\":4195:4422  function gameprofitsFairSoulsActSettings() public view returns (address) {... */\n      swap1\n      jump\t// out\n        /* \"gameprofits-galactic-spdgcs-contracts/governence/gameProfitsGalacticNetworkSettings.sol\":6862:7138  function switchgameprofitsFairSoulsActSettings(address newSetting... */\n    tag_90:\n        /* \"gameprofits-galactic-spdgcs-contracts/governence/gameProfitsGalacticNetworkSettings.sol\":10120:10125  owner */\n      0x00\n      dup1\n      sload\n      swap1\n      0x0100\n      exp\n      swap1\n      div\n      0xffffffffffffffffffffffffffffffffffffffff\n      and\n        /* \"gameprofits-galactic-spdgcs-contracts/governence/gameProfitsGalacticNetworkSettings.sol\":10106:10125  msg.sender == owner */\n      0xffffffffffffffffffffffffffffffffffffffff\n      and\n        /* \"gameprofits-galactic-spdgcs-contracts/governence/gameProfitsGalacticNetworkSettings.sol\":10106:10116  msg.sender */\n      caller\n        /* \"gameprofits-galactic-spdgcs-contracts/governence/gameProfitsGalacticNetworkSettings.sol\":10106:10125  msg.sender == owner */\n      0xffffffffffffffffffffffffffffffffffffffff\n      and\n      eq\n        /* \"gameprofits-galactic-spdgcs-contracts/governence/gameProfitsGalacticNetworkSettings.sol\":10097:10126  require (msg.sender == owner) */\n      tag_167\n      jumpi\n      0x00\n      dup1\n      revert\n    tag_167:\n        /* \"gameprofits-galactic-spdgcs-contracts/governence/gameProfitsGalacticNetworkSettings.sol\":7085:7095  newSetting */\n      dup1\n        /* \"gameprofits-galactic-spdgcs-contracts/governence/gameProfitsGalacticNetworkSettings.sol\":7024:7050  gameprofitsNetworkSettings */\n      0x01\n        /* \"gameprofits-galactic-spdgcs-contracts/governence/gameProfitsGalacticNetworkSettings.sol\":7024:7082  gameprofitsNetworkSettings.gameprofitsFairSoulsActSettings */\n      0x08\n      add\n      0x00\n        /* \"gameprofits-galactic-spdgcs-contracts/governence/gameProfitsGalacticNetworkSettings.sol\":7024:7095  gameprofitsNetworkSettings.gameprofitsFairSoulsActSettings = newSetting */\n      0x0100\n      exp\n      dup2\n      sload\n      dup2\n      0xffffffffffffffffffffffffffffffffffffffff\n      mul\n      not\n      and\n      swap1\n      dup4\n      0xffffffffffffffffffffffffffffffffffffffff\n      and\n      mul\n      or\n      swap1\n      sstore\n      pop\n        /* \"gameprofits-galactic-spdgcs-contracts/governence/gameProfitsGalacticNetworkSettings.sol\":6862:7138  function switchgameprofitsFairSoulsActSettings(address newSetting... */\n      pop\n      jump\t// out\n        /* \"gameprofits-galactic-spdgcs-contracts/governence/gameProfitsGalacticNetworkSettings.sol\":8769:9035  function switchgamesAreCoolingDown(... */\n    tag_92:\n        /* \"gameprofits-galactic-spdgcs-contracts/governence/gameProfitsGalacticNetworkSettings.sol\":10120:10125  owner */\n      0x00\n      dup1\n      sload\n      swap1\n      0x0100\n      exp\n      swap1\n      div\n      0xffffffffffffffffffffffffffffffffffffffff\n      and\n        /* \"gameprofits-galactic-spdgcs-contracts/governence/gameProfitsGalacticNetworkSettings.sol\":10106:10125  msg.sender == owner */\n      0xffffffffffffffffffffffffffffffffffffffff\n      and\n        /* \"gameprofits-galactic-spdgcs-contracts/governence/gameProfitsGalacticNetworkSettings.sol\":10106:10116  msg.sender */\n      caller\n        /* \"gameprofits-galactic-spdgcs-contracts/governence/gameProfitsGalacticNetworkSettings.sol\":10106:10125  msg.sender == owner */\n      0xffffffffffffffffffffffffffffffffffffffff\n      and\n      eq\n        /* \"gameprofits-galactic-spdgcs-contracts/governence/gameProfitsGalacticNetworkSettings.sol\":10097:10126  require (msg.sender == owner) */\n      tag_170\n      jumpi\n      0x00\n      dup1\n      revert\n    tag_170:\n        /* \"gameprofits-galactic-spdgcs-contracts/governence/gameProfitsGalacticNetworkSettings.sol\":8971:8997  gameprofitsNetworkSettings */\n      0x01\n        /* \"gameprofits-galactic-spdgcs-contracts/governence/gameProfitsGalacticNetworkSettings.sol\":8971:9017  gameprofitsNetworkSettings.gamesAreCoolingDown */\n      0x00\n      add\n      0x03\n      swap1\n      sload\n      swap1\n      0x0100\n      exp\n      swap1\n      div\n      0xff\n      and\n        /* \"gameprofits-galactic-spdgcs-contracts/governence/gameProfitsGalacticNetworkSettings.sol\":8970:9017  !gameprofitsNetworkSettings.gamesAreCoolingDown */\n      iszero\n        /* \"gameprofits-galactic-spdgcs-contracts/governence/gameProfitsGalacticNetworkSettings.sol\":8921:8947  gameprofitsNetworkSettings */\n      0x01\n        /* \"gameprofits-galactic-spdgcs-contracts/governence/gameProfitsGalacticNetworkSettings.sol\":8921:8967  gameprofitsNetworkSettings.gamesAreCoolingDown */\n      0x00\n      add\n      0x03\n        /* \"gameprofits-galactic-spdgcs-contracts/governence/gameProfitsGalacticNetworkSettings.sol\":8921:9017  gameprofitsNetworkSettings.gamesAreCoolingDown = !gameprofitsNetworkSettings.gamesAreCoolingDown */\n      0x0100\n      exp\n      dup2\n      sload\n      dup2\n      0xff\n      mul\n      not\n      and\n      swap1\n      dup4\n      iszero\n      iszero\n      mul\n      or\n      swap1\n      sstore\n      pop\n        /* \"gameprofits-galactic-spdgcs-contracts/governence/gameProfitsGalacticNetworkSettings.sol\":8769:9035  function switchgamesAreCoolingDown(... */\n      jump\t// out\n        /* \"gameprofits-galactic-spdgcs-contracts/governence/gameProfitsGalacticNetworkSettings.sol\":7726:7992  function switchgameprofitsfinanceSettings(address newSetting... */\n    tag_95:\n        /* \"gameprofits-galactic-spdgcs-contracts/governence/gameProfitsGalacticNetworkSettings.sol\":10120:10125  owner */\n      0x00\n      dup1\n      sload\n      swap1\n      0x0100\n      exp\n      swap1\n      div\n      0xffffffffffffffffffffffffffffffffffffffff\n      and\n        /* \"gameprofits-galactic-spdgcs-contracts/governence/gameProfitsGalacticNetworkSettings.sol\":10106:10125  msg.sender == owner */\n      0xffffffffffffffffffffffffffffffffffffffff\n      and\n        /* \"gameprofits-galactic-spdgcs-contracts/governence/gameProfitsGalacticNetworkSettings.sol\":10106:10116  msg.sender */\n      caller\n        /* \"gameprofits-galactic-spdgcs-contracts/governence/gameProfitsGalacticNetworkSettings.sol\":10106:10125  msg.sender == owner */\n      0xffffffffffffffffffffffffffffffffffffffff\n      and\n      eq\n        /* \"gameprofits-galactic-spdgcs-contracts/governence/gameProfitsGalacticNetworkSettings.sol\":10097:10126  require (msg.sender == owner) */\n      tag_173\n      jumpi\n      0x00\n      dup1\n      revert\n    tag_173:\n        /* \"gameprofits-galactic-spdgcs-contracts/governence/gameProfitsGalacticNetworkSettings.sol\":7939:7949  newSetting */\n      dup1\n        /* \"gameprofits-galactic-spdgcs-contracts/governence/gameProfitsGalacticNetworkSettings.sol\":7883:7909  gameprofitsNetworkSettings */\n      0x01\n        /* \"gameprofits-galactic-spdgcs-contracts/governence/gameProfitsGalacticNetworkSettings.sol\":7883:7936  gameprofitsNetworkSettings.gameprofitsfinanceSettings */\n      0x00\n      add\n      0x05\n        /* \"gameprofits-galactic-spdgcs-contracts/governence/gameProfitsGalacticNetworkSettings.sol\":7883:7949  gameprofitsNetworkSettings.gameprofitsfinanceSettings = newSetting */\n      0x0100\n      exp\n      dup2\n      sload\n      dup2\n      0xffffffffffffffffffffffffffffffffffffffff\n      mul\n      not\n      and\n      swap1\n      dup4\n      0xffffffffffffffffffffffffffffffffffffffff\n      and\n      mul\n      or\n      swap1\n      sstore\n      pop\n        /* \"gameprofits-galactic-spdgcs-contracts/governence/gameProfitsGalacticNetworkSettings.sol\":7726:7992  function switchgameprofitsfinanceSettings(address newSetting... */\n      pop\n      jump\t// out\n        /* \"gameprofits-galactic-spdgcs-contracts/governence/gameProfitsGalacticNetworkSettings.sol\":7998:8258  function switchgameNetworkActive(... */\n    tag_97:\n        /* \"gameprofits-galactic-spdgcs-contracts/governence/gameProfitsGalacticNetworkSettings.sol\":10120:10125  owner */\n      0x00\n      dup1\n      sload\n      swap1\n      0x0100\n      exp\n      swap1\n      div\n      0xffffffffffffffffffffffffffffffffffffffff\n      and\n        /* \"gameprofits-galactic-spdgcs-contracts/governence/gameProfitsGalacticNetworkSettings.sol\":10106:10125  msg.sender == owner */\n      0xffffffffffffffffffffffffffffffffffffffff\n      and\n        /* \"gameprofits-galactic-spdgcs-contracts/governence/gameProfitsGalacticNetworkSettings.sol\":10106:10116  msg.sender */\n      caller\n        /* \"gameprofits-galactic-spdgcs-contracts/governence/gameProfitsGalacticNetworkSettings.sol\":10106:10125  msg.sender == owner */\n      0xffffffffffffffffffffffffffffffffffffffff\n      and\n      eq\n        /* \"gameprofits-galactic-spdgcs-contracts/governence/gameProfitsGalacticNetworkSettings.sol\":10097:10126  require (msg.sender == owner) */\n      tag_176\n      jumpi\n      0x00\n      dup1\n      revert\n    tag_176:\n        /* \"gameprofits-galactic-spdgcs-contracts/governence/gameProfitsGalacticNetworkSettings.sol\":8196:8222  gameprofitsNetworkSettings */\n      0x01\n        /* \"gameprofits-galactic-spdgcs-contracts/governence/gameProfitsGalacticNetworkSettings.sol\":8196:8240  gameprofitsNetworkSettings.gameNetworkActive */\n      0x00\n      add\n      0x00\n      swap1\n      sload\n      swap1\n      0x0100\n      exp\n      swap1\n      div\n      0xff\n      and\n        /* \"gameprofits-galactic-spdgcs-contracts/governence/gameProfitsGalacticNetworkSettings.sol\":8195:8240  !gameprofitsNetworkSettings.gameNetworkActive */\n      iszero\n        /* \"gameprofits-galactic-spdgcs-contracts/governence/gameProfitsGalacticNetworkSettings.sol\":8148:8174  gameprofitsNetworkSettings */\n      0x01\n        /* \"gameprofits-galactic-spdgcs-contracts/governence/gameProfitsGalacticNetworkSettings.sol\":8148:8192  gameprofitsNetworkSettings.gameNetworkActive */\n      0x00\n      add\n      0x00\n        /* \"gameprofits-galactic-spdgcs-contracts/governence/gameProfitsGalacticNetworkSettings.sol\":8148:8240  gameprofitsNetworkSettings.gameNetworkActive = !gameprofitsNetworkSettings.gameNetworkActive */\n      0x0100\n      exp\n      dup2\n      sload\n      dup2\n      0xff\n      mul\n      not\n      and\n      swap1\n      dup4\n      iszero\n      iszero\n      mul\n      or\n      swap1\n      sstore\n      pop\n        /* \"gameprofits-galactic-spdgcs-contracts/governence/gameProfitsGalacticNetworkSettings.sol\":7998:8258  function switchgameNetworkActive(... */\n      jump\t// out\n        /* \"gameprofits-galactic-spdgcs-contracts/governence/gameProfitsGalacticNetworkSettings.sol\":2810:3035  function gameprofitsGoverenenceSettings() public view returns (address) {... */\n    tag_99:\n        /* \"gameprofits-galactic-spdgcs-contracts/governence/gameProfitsGalacticNetworkSettings.sol\":2873:2880  address */\n      0x00\n        /* \"gameprofits-galactic-spdgcs-contracts/governence/gameProfitsGalacticNetworkSettings.sol\":2893:2935  gameprofitsSettings storage networksetting */\n      dup1\n        /* \"gameprofits-galactic-spdgcs-contracts/governence/gameProfitsGalacticNetworkSettings.sol\":2938:2964  gameprofitsNetworkSettings */\n      0x01\n        /* \"gameprofits-galactic-spdgcs-contracts/governence/gameProfitsGalacticNetworkSettings.sol\":2893:2964  gameprofitsSettings storage networksetting = gameprofitsNetworkSettings */\n      swap1\n      pop\n        /* \"gameprofits-galactic-spdgcs-contracts/governence/gameProfitsGalacticNetworkSettings.sol\":2982:2996  networksetting */\n      dup1\n        /* \"gameprofits-galactic-spdgcs-contracts/governence/gameProfitsGalacticNetworkSettings.sol\":2982:3027  networksetting.gameprofitsGoverenenceSettings */\n      0x02\n      add\n      0x00\n      swap1\n      sload\n      swap1\n      0x0100\n      exp\n      swap1\n      div\n      0xffffffffffffffffffffffffffffffffffffffff\n      and\n        /* \"gameprofits-galactic-spdgcs-contracts/governence/gameProfitsGalacticNetworkSettings.sol\":2975:3027  return networksetting.gameprofitsGoverenenceSettings */\n      swap2\n      pop\n      pop\n        /* \"gameprofits-galactic-spdgcs-contracts/governence/gameProfitsGalacticNetworkSettings.sol\":2810:3035  function gameprofitsGoverenenceSettings() public view returns (address) {... */\n      swap1\n      jump\t// out\n        /* \"gameprofits-galactic-spdgcs-contracts/governence/gameProfitsGalacticNetworkSettings.sol\":2160:2354  function isgamesKillSwitch() public view returns (bool) {... */\n    tag_102:\n        /* \"gameprofits-galactic-spdgcs-contracts/governence/gameProfitsGalacticNetworkSettings.sol\":2210:2214  bool */\n      0x00\n        /* \"gameprofits-galactic-spdgcs-contracts/governence/gameProfitsGalacticNetworkSettings.sol\":2227:2269  gameprofitsSettings storage networksetting */\n      dup1\n        /* \"gameprofits-galactic-spdgcs-contracts/governence/gameProfitsGalacticNetworkSettings.sol\":2272:2298  gameprofitsNetworkSettings */\n      0x01\n        /* \"gameprofits-galactic-spdgcs-contracts/governence/gameProfitsGalacticNetworkSettings.sol\":2227:2298  gameprofitsSettings storage networksetting = gameprofitsNetworkSettings */\n      swap1\n      pop\n        /* \"gameprofits-galactic-spdgcs-contracts/governence/gameProfitsGalacticNetworkSettings.sol\":2316:2330  networksetting */\n      dup1\n        /* \"gameprofits-galactic-spdgcs-contracts/governence/gameProfitsGalacticNetworkSettings.sol\":2316:2346  networksetting.gamesKillSwitch */\n      0x00\n      add\n      0x04\n      swap1\n      sload\n      swap1\n      0x0100\n      exp\n      swap1\n      div\n      0xff\n      and\n        /* \"gameprofits-galactic-spdgcs-contracts/governence/gameProfitsGalacticNetworkSettings.sol\":2309:2346  return networksetting.gamesKillSwitch */\n      swap2\n      pop\n      pop\n        /* \"gameprofits-galactic-spdgcs-contracts/governence/gameProfitsGalacticNetworkSettings.sol\":2160:2354  function isgamesKillSwitch() public view returns (bool) {... */\n      swap1\n      jump\t// out\n        /* \"gameprofits-galactic-spdgcs-contracts/governence/gameProfitsGalacticNetworkSettings.sol\":3280:3501  function gameprofitsMetaVerseSettings() public view returns (address) {... */\n    tag_105:\n        /* \"gameprofits-galactic-spdgcs-contracts/governence/gameProfitsGalacticNetworkSettings.sol\":3341:3348  address */\n      0x00\n        /* \"gameprofits-galactic-spdgcs-contracts/governence/gameProfitsGalacticNetworkSettings.sol\":3361:3403  gameprofitsSettings storage networksetting */\n      dup1\n        /* \"gameprofits-galactic-spdgcs-contracts/governence/gameProfitsGalacticNetworkSettings.sol\":3406:3432  gameprofitsNetworkSettings */\n      0x01\n        /* \"gameprofits-galactic-spdgcs-contracts/governence/gameProfitsGalacticNetworkSettings.sol\":3361:3432  gameprofitsSettings storage networksetting = gameprofitsNetworkSettings */\n      swap1\n      pop\n        /* \"gameprofits-galactic-spdgcs-contracts/governence/gameProfitsGalacticNetworkSettings.sol\":3450:3464  networksetting */\n      dup1\n        /* \"gameprofits-galactic-spdgcs-contracts/governence/gameProfitsGalacticNetworkSettings.sol\":3450:3493  networksetting.gameprofitsMetaVerseSettings */\n      0x04\n      add\n      0x00\n      swap1\n      sload\n      swap1\n      0x0100\n      exp\n      swap1\n      div\n      0xffffffffffffffffffffffffffffffffffffffff\n      and\n        /* \"gameprofits-galactic-spdgcs-contracts/governence/gameProfitsGalacticNetworkSettings.sol\":3443:3493  return networksetting.gameprofitsMetaVerseSettings */\n      swap2\n      pop\n      pop\n        /* \"gameprofits-galactic-spdgcs-contracts/governence/gameProfitsGalacticNetworkSettings.sol\":3280:3501  function gameprofitsMetaVerseSettings() public view returns (address) {... */\n      swap1\n      jump\t// out\n        /* \"gameprofits-galactic-spdgcs-contracts/governence/gameProfitsGalacticNetworkSettings.sol\":3041:3274  function gameprofitsIchoroniumTableSettings() public view returns (address) {... */\n    tag_108:\n        /* \"gameprofits-galactic-spdgcs-contracts/governence/gameProfitsGalacticNetworkSettings.sol\":3108:3115  address */\n      0x00\n        /* \"gameprofits-galactic-spdgcs-contracts/governence/gameProfitsGalacticNetworkSettings.sol\":3128:3170  gameprofitsSettings storage networksetting */\n      dup1\n        /* \"gameprofits-galactic-spdgcs-contracts/governence/gameProfitsGalacticNetworkSettings.sol\":3173:3199  gameprofitsNetworkSettings */\n      0x01\n        /* \"gameprofits-galactic-spdgcs-contracts/governence/gameProfitsGalacticNetworkSettings.sol\":3128:3199  gameprofitsSettings storage networksetting = gameprofitsNetworkSettings */\n      swap1\n      pop\n        /* \"gameprofits-galactic-spdgcs-contracts/governence/gameProfitsGalacticNetworkSettings.sol\":3217:3231  networksetting */\n      dup1\n        /* \"gameprofits-galactic-spdgcs-contracts/governence/gameProfitsGalacticNetworkSettings.sol\":3217:3266  networksetting.gameprofitsIchoroniumTableSettings */\n      0x03\n      add\n      0x00\n      swap1\n      sload\n      swap1\n      0x0100\n      exp\n      swap1\n      div\n      0xffffffffffffffffffffffffffffffffffffffff\n      and\n        /* \"gameprofits-galactic-spdgcs-contracts/governence/gameProfitsGalacticNetworkSettings.sol\":3210:3266  return networksetting.gameprofitsIchoroniumTableSettings */\n      swap2\n      pop\n      pop\n        /* \"gameprofits-galactic-spdgcs-contracts/governence/gameProfitsGalacticNetworkSettings.sol\":3041:3274  function gameprofitsIchoroniumTableSettings() public view returns (address) {... */\n      swap1\n      jump\t// out\n        /* \"gameprofits-galactic-spdgcs-contracts/governence/gameProfitsGalacticNetworkSettings.sol\":7440:7724  function switchgameprofitsMasterVideoGamesSettings(address newSetting... */\n    tag_112:\n        /* \"gameprofits-galactic-spdgcs-contracts/governence/gameProfitsGalacticNetworkSettings.sol\":10120:10125  owner */\n      0x00\n      dup1\n      sload\n      swap1\n      0x0100\n      exp\n      swap1\n      div\n      0xffffffffffffffffffffffffffffffffffffffff\n      and\n        /* \"gameprofits-galactic-spdgcs-contracts/governence/gameProfitsGalacticNetworkSettings.sol\":10106:10125  msg.sender == owner */\n      0xffffffffffffffffffffffffffffffffffffffff\n      and\n        /* \"gameprofits-galactic-spdgcs-contracts/governence/gameProfitsGalacticNetworkSettings.sol\":10106:10116  msg.sender */\n      caller\n        /* \"gameprofits-galactic-spdgcs-contracts/governence/gameProfitsGalacticNetworkSettings.sol\":10106:10125  msg.sender == owner */\n      0xffffffffffffffffffffffffffffffffffffffff\n      and\n      eq\n        /* \"gameprofits-galactic-spdgcs-contracts/governence/gameProfitsGalacticNetworkSettings.sol\":10097:10126  require (msg.sender == owner) */\n      tag_183\n      jumpi\n      0x00\n      dup1\n      revert\n    tag_183:\n        /* \"gameprofits-galactic-spdgcs-contracts/governence/gameProfitsGalacticNetworkSettings.sol\":7671:7681  newSetting */\n      dup1\n        /* \"gameprofits-galactic-spdgcs-contracts/governence/gameProfitsGalacticNetworkSettings.sol\":7606:7632  gameprofitsNetworkSettings */\n      0x01\n        /* \"gameprofits-galactic-spdgcs-contracts/governence/gameProfitsGalacticNetworkSettings.sol\":7606:7668  gameprofitsNetworkSettings.gameprofitsMasterVideoGamesSettings */\n      0x0a\n      add\n      0x00\n        /* \"gameprofits-galactic-spdgcs-contracts/governence/gameProfitsGalacticNetworkSettings.sol\":7606:7681  gameprofitsNetworkSettings.gameprofitsMasterVideoGamesSettings = newSetting */\n      0x0100\n      exp\n      dup2\n      sload\n      dup2\n      0xffffffffffffffffffffffffffffffffffffffff\n      mul\n      not\n      and\n      swap1\n      dup4\n      0xffffffffffffffffffffffffffffffffffffffff\n      and\n      mul\n      or\n      swap1\n      sstore\n      pop\n        /* \"gameprofits-galactic-spdgcs-contracts/governence/gameProfitsGalacticNetworkSettings.sol\":7440:7724  function switchgameprofitsMasterVideoGamesSettings(address newSetting... */\n      pop\n      jump\t// out\n        /* \"gameprofits-galactic-spdgcs-contracts/governence/gameProfitsGalacticNetworkSettings.sol\":4679:4914  function gameprofitsMasterVideoGamesSettings() public view returns (address) {... */\n    tag_114:\n        /* \"gameprofits-galactic-spdgcs-contracts/governence/gameProfitsGalacticNetworkSettings.sol\":4747:4754  address */\n      0x00\n        /* \"gameprofits-galactic-spdgcs-contracts/governence/gameProfitsGalacticNetworkSettings.sol\":4767:4809  gameprofitsSettings storage networksetting */\n      dup1\n        /* \"gameprofits-galactic-spdgcs-contracts/governence/gameProfitsGalacticNetworkSettings.sol\":4812:4838  gameprofitsNetworkSettings */\n      0x01\n        /* \"gameprofits-galactic-spdgcs-contracts/governence/gameProfitsGalacticNetworkSettings.sol\":4767:4838  gameprofitsSettings storage networksetting = gameprofitsNetworkSettings */\n      swap1\n      pop\n        /* \"gameprofits-galactic-spdgcs-contracts/governence/gameProfitsGalacticNetworkSettings.sol\":4856:4870  networksetting */\n      dup1\n        /* \"gameprofits-galactic-spdgcs-contracts/governence/gameProfitsGalacticNetworkSettings.sol\":4856:4906  networksetting.gameprofitsMasterVideoGamesSettings */\n      0x0a\n      add\n      0x00\n      swap1\n      sload\n      swap1\n      0x0100\n      exp\n      swap1\n      div\n      0xffffffffffffffffffffffffffffffffffffffff\n      and\n        /* \"gameprofits-galactic-spdgcs-contracts/governence/gameProfitsGalacticNetworkSettings.sol\":4849:4906  return networksetting.gameprofitsMasterVideoGamesSettings */\n      swap2\n      pop\n      pop\n        /* \"gameprofits-galactic-spdgcs-contracts/governence/gameProfitsGalacticNetworkSettings.sol\":4679:4914  function gameprofitsMasterVideoGamesSettings() public view returns (address) {... */\n      swap1\n      jump\t// out\n        /* \"gameprofits-galactic-spdgcs-contracts/governence/gameProfitsGalacticNetworkSettings.sol\":6032:6312  function switchgameprofitsMetaVerseUniverseItems(address newSetting... */\n    tag_118:\n        /* \"gameprofits-galactic-spdgcs-contracts/governence/gameProfitsGalacticNetworkSettings.sol\":10120:10125  owner */\n      0x00\n      dup1\n      sload\n      swap1\n      0x0100\n      exp\n      swap1\n      div\n      0xffffffffffffffffffffffffffffffffffffffff\n      and\n        /* \"gameprofits-galactic-spdgcs-contracts/governence/gameProfitsGalacticNetworkSettings.sol\":10106:10125  msg.sender == owner */\n      0xffffffffffffffffffffffffffffffffffffffff\n      and\n        /* \"gameprofits-galactic-spdgcs-contracts/governence/gameProfitsGalacticNetworkSettings.sol\":10106:10116  msg.sender */\n      caller\n        /* \"gameprofits-galactic-spdgcs-contracts/governence/gameProfitsGalacticNetworkSettings.sol\":10106:10125  msg.sender == owner */\n      0xffffffffffffffffffffffffffffffffffffffff\n      and\n      eq\n        /* \"gameprofits-galactic-spdgcs-contracts/governence/gameProfitsGalacticNetworkSettings.sol\":10097:10126  require (msg.sender == owner) */\n      tag_187\n      jumpi\n      0x00\n      dup1\n      revert\n    tag_187:\n        /* \"gameprofits-galactic-spdgcs-contracts/governence/gameProfitsGalacticNetworkSettings.sol\":6259:6269  newSetting */\n      dup1\n        /* \"gameprofits-galactic-spdgcs-contracts/governence/gameProfitsGalacticNetworkSettings.sol\":6196:6222  gameprofitsNetworkSettings */\n      0x01\n        /* \"gameprofits-galactic-spdgcs-contracts/governence/gameProfitsGalacticNetworkSettings.sol\":6196:6256  gameprofitsNetworkSettings.gameprofitsMetaVerseUniverseItems */\n      0x05\n      add\n      0x00\n        /* \"gameprofits-galactic-spdgcs-contracts/governence/gameProfitsGalacticNetworkSettings.sol\":6196:6269  gameprofitsNetworkSettings.gameprofitsMetaVerseUniverseItems = newSetting */\n      0x0100\n      exp\n      dup2\n      sload\n      dup2\n      0xffffffffffffffffffffffffffffffffffffffff\n      mul\n      not\n      and\n      swap1\n      dup4\n      0xffffffffffffffffffffffffffffffffffffffff\n      and\n      mul\n      or\n      swap1\n      sstore\n      pop\n        /* \"gameprofits-galactic-spdgcs-contracts/governence/gameProfitsGalacticNetworkSettings.sol\":6032:6312  function switchgameprofitsMetaVerseUniverseItems(address newSetting... */\n      pop\n      jump\t// out\n        /* \"gameprofits-galactic-spdgcs-contracts/governence/gameProfitsGalacticNetworkSettings.sol\":4918:5190  function switchgameprofitsExperimentSettings(address newSetting... */\n    tag_121:\n        /* \"gameprofits-galactic-spdgcs-contracts/governence/gameProfitsGalacticNetworkSettings.sol\":10120:10125  owner */\n      0x00\n      dup1\n      sload\n      swap1\n      0x0100\n      exp\n      swap1\n      div\n      0xffffffffffffffffffffffffffffffffffffffff\n      and\n        /* \"gameprofits-galactic-spdgcs-contracts/governence/gameProfitsGalacticNetworkSettings.sol\":10106:10125  msg.sender == owner */\n      0xffffffffffffffffffffffffffffffffffffffff\n      and\n        /* \"gameprofits-galactic-spdgcs-contracts/governence/gameProfitsGalacticNetworkSettings.sol\":10106:10116  msg.sender */\n      caller\n        /* \"gameprofits-galactic-spdgcs-contracts/governence/gameProfitsGalacticNetworkSettings.sol\":10106:10125  msg.sender == owner */\n      0xffffffffffffffffffffffffffffffffffffffff\n      and\n      eq\n        /* \"gameprofits-galactic-spdgcs-contracts/governence/gameProfitsGalacticNetworkSettings.sol\":10097:10126  require (msg.sender == owner) */\n      tag_190\n      jumpi\n      0x00\n      dup1\n      revert\n    tag_190:\n        /* \"gameprofits-galactic-spdgcs-contracts/governence/gameProfitsGalacticNetworkSettings.sol\":5137:5147  newSetting */\n      dup1\n        /* \"gameprofits-galactic-spdgcs-contracts/governence/gameProfitsGalacticNetworkSettings.sol\":5078:5104  gameprofitsNetworkSettings */\n      0x01\n        /* \"gameprofits-galactic-spdgcs-contracts/governence/gameProfitsGalacticNetworkSettings.sol\":5078:5134  gameprofitsNetworkSettings.gameprofitsExperimentSettings */\n      dup1\n      add\n      0x00\n        /* \"gameprofits-galactic-spdgcs-contracts/governence/gameProfitsGalacticNetworkSettings.sol\":5078:5147  gameprofitsNetworkSettings.gameprofitsExperimentSettings = newSetting */\n      0x0100\n      exp\n      dup2\n      sload\n      dup2\n      0xffffffffffffffffffffffffffffffffffffffff\n      mul\n      not\n      and\n      swap1\n      dup4\n      0xffffffffffffffffffffffffffffffffffffffff\n      and\n      mul\n      or\n      swap1\n      sstore\n      pop\n        /* \"gameprofits-galactic-spdgcs-contracts/governence/gameProfitsGalacticNetworkSettings.sol\":4918:5190  function switchgameprofitsExperimentSettings(address newSetting... */\n      pop\n      jump\t// out\n        /* \"gameprofits-galactic-spdgcs-contracts/governence/gameProfitsGalacticNetworkSettings.sol\":5758:6028  function switchgameprofitsMetaVerseSettings(address newSetting... */\n    tag_124:\n        /* \"gameprofits-galactic-spdgcs-contracts/governence/gameProfitsGalacticNetworkSettings.sol\":10120:10125  owner */\n      0x00\n      dup1\n      sload\n      swap1\n      0x0100\n      exp\n      swap1\n      div\n      0xffffffffffffffffffffffffffffffffffffffff\n      and\n        /* \"gameprofits-galactic-spdgcs-contracts/governence/gameProfitsGalacticNetworkSettings.sol\":10106:10125  msg.sender == owner */\n      0xffffffffffffffffffffffffffffffffffffffff\n      and\n        /* \"gameprofits-galactic-spdgcs-contracts/governence/gameProfitsGalacticNetworkSettings.sol\":10106:10116  msg.sender */\n      caller\n        /* \"gameprofits-galactic-spdgcs-contracts/governence/gameProfitsGalacticNetworkSettings.sol\":10106:10125  msg.sender == owner */\n      0xffffffffffffffffffffffffffffffffffffffff\n      and\n      eq\n        /* \"gameprofits-galactic-spdgcs-contracts/governence/gameProfitsGalacticNetworkSettings.sol\":10097:10126  require (msg.sender == owner) */\n      tag_193\n      jumpi\n      0x00\n      dup1\n      revert\n    tag_193:\n        /* \"gameprofits-galactic-spdgcs-contracts/governence/gameProfitsGalacticNetworkSettings.sol\":5975:5985  newSetting */\n      dup1\n        /* \"gameprofits-galactic-spdgcs-contracts/governence/gameProfitsGalacticNetworkSettings.sol\":5917:5943  gameprofitsNetworkSettings */\n      0x01\n        /* \"gameprofits-galactic-spdgcs-contracts/governence/gameProfitsGalacticNetworkSettings.sol\":5917:5972  gameprofitsNetworkSettings.gameprofitsMetaVerseSettings */\n      0x04\n      add\n      0x00\n        /* \"gameprofits-galactic-spdgcs-contracts/governence/gameProfitsGalacticNetworkSettings.sol\":5917:5985  gameprofitsNetworkSettings.gameprofitsMetaVerseSettings = newSetting */\n      0x0100\n      exp\n      dup2\n      sload\n      dup2\n      0xffffffffffffffffffffffffffffffffffffffff\n      mul\n      not\n      and\n      swap1\n      dup4\n      0xffffffffffffffffffffffffffffffffffffffff\n      and\n      mul\n      or\n      swap1\n      sstore\n      pop\n        /* \"gameprofits-galactic-spdgcs-contracts/governence/gameProfitsGalacticNetworkSettings.sol\":5758:6028  function switchgameprofitsMetaVerseSettings(address newSetting... */\n      pop\n      jump\t// out\n        /* \"gameprofits-galactic-spdgcs-contracts/governence/gameProfitsGalacticNetworkSettings.sol\":2358:2575  function gameprofitsfinanceSettings() public view returns (address) {... */\n    tag_126:\n        /* \"gameprofits-galactic-spdgcs-contracts/governence/gameProfitsGalacticNetworkSettings.sol\":2417:2424  address */\n      0x00\n        /* \"gameprofits-galactic-spdgcs-contracts/governence/gameProfitsGalacticNetworkSettings.sol\":2437:2479  gameprofitsSettings storage networksetting */\n      dup1\n        /* \"gameprofits-galactic-spdgcs-contracts/governence/gameProfitsGalacticNetworkSettings.sol\":2482:2508  gameprofitsNetworkSettings */\n      0x01\n        /* \"gameprofits-galactic-spdgcs-contracts/governence/gameProfitsGalacticNetworkSettings.sol\":2437:2508  gameprofitsSettings storage networksetting = gameprofitsNetworkSettings */\n      swap1\n      pop\n        /* \"gameprofits-galactic-spdgcs-contracts/governence/gameProfitsGalacticNetworkSettings.sol\":2526:2540  networksetting */\n      dup1\n        /* \"gameprofits-galactic-spdgcs-contracts/governence/gameProfitsGalacticNetworkSettings.sol\":2526:2567  networksetting.gameprofitsfinanceSettings */\n      0x00\n      add\n      0x05\n      swap1\n      sload\n      swap1\n      0x0100\n      exp\n      swap1\n      div\n      0xffffffffffffffffffffffffffffffffffffffff\n      and\n        /* \"gameprofits-galactic-spdgcs-contracts/governence/gameProfitsGalacticNetworkSettings.sol\":2519:2567  return networksetting.gameprofitsfinanceSettings */\n      swap2\n      pop\n      pop\n        /* \"gameprofits-galactic-spdgcs-contracts/governence/gameProfitsGalacticNetworkSettings.sol\":2358:2575  function gameprofitsfinanceSettings() public view returns (address) {... */\n      swap1\n      jump\t// out\n        /* \"gameprofits-galactic-spdgcs-contracts/governence/gameProfitsGalacticNetworkSettings.sol\":8260:8499  function switchgamesAreOn(... */\n    tag_129:\n        /* \"gameprofits-galactic-spdgcs-contracts/governence/gameProfitsGalacticNetworkSettings.sol\":10120:10125  owner */\n      0x00\n      dup1\n      sload\n      swap1\n      0x0100\n      exp\n      swap1\n      div\n      0xffffffffffffffffffffffffffffffffffffffff\n      and\n        /* \"gameprofits-galactic-spdgcs-contracts/governence/gameProfitsGalacticNetworkSettings.sol\":10106:10125  msg.sender == owner */\n      0xffffffffffffffffffffffffffffffffffffffff\n      and\n        /* \"gameprofits-galactic-spdgcs-contracts/governence/gameProfitsGalacticNetworkSettings.sol\":10106:10116  msg.sender */\n      caller\n        /* \"gameprofits-galactic-spdgcs-contracts/governence/gameProfitsGalacticNetworkSettings.sol\":10106:10125  msg.sender == owner */\n      0xffffffffffffffffffffffffffffffffffffffff\n      and\n      eq\n        /* \"gameprofits-galactic-spdgcs-contracts/governence/gameProfitsGalacticNetworkSettings.sol\":10097:10126  require (msg.sender == owner) */\n      tag_197\n      jumpi\n      0x00\n      dup1\n      revert\n    tag_197:\n        /* \"gameprofits-galactic-spdgcs-contracts/governence/gameProfitsGalacticNetworkSettings.sol\":8444:8470  gameprofitsNetworkSettings */\n      0x01\n        /* \"gameprofits-galactic-spdgcs-contracts/governence/gameProfitsGalacticNetworkSettings.sol\":8444:8481  gameprofitsNetworkSettings.gamesAreOn */\n      0x00\n      add\n      0x01\n      swap1\n      sload\n      swap1\n      0x0100\n      exp\n      swap1\n      div\n      0xff\n      and\n        /* \"gameprofits-galactic-spdgcs-contracts/governence/gameProfitsGalacticNetworkSettings.sol\":8443:8481  !gameprofitsNetworkSettings.gamesAreOn */\n      iszero\n        /* \"gameprofits-galactic-spdgcs-contracts/governence/gameProfitsGalacticNetworkSettings.sol\":8403:8429  gameprofitsNetworkSettings */\n      0x01\n        /* \"gameprofits-galactic-spdgcs-contracts/governence/gameProfitsGalacticNetworkSettings.sol\":8403:8440  gameprofitsNetworkSettings.gamesAreOn */\n      0x00\n      add\n      0x01\n        /* \"gameprofits-galactic-spdgcs-contracts/governence/gameProfitsGalacticNetworkSettings.sol\":8403:8481  gameprofitsNetworkSettings.gamesAreOn = !gameprofitsNetworkSettings.gamesAreOn */\n      0x0100\n      exp\n      dup2\n      sload\n      dup2\n      0xff\n      mul\n      not\n      and\n      swap1\n      dup4\n      iszero\n      iszero\n      mul\n      or\n      swap1\n      sstore\n      pop\n        /* \"gameprofits-galactic-spdgcs-contracts/governence/gameProfitsGalacticNetworkSettings.sol\":8260:8499  function switchgamesAreOn(... */\n      jump\t// out\n        /* \"gameprofits-galactic-spdgcs-contracts/governence/gameProfitsGalacticNetworkSettings.sol\":3969:4190  function gameprofitsFairValueSettings() public view returns (address) {... */\n    tag_131:\n        /* \"gameprofits-galactic-spdgcs-contracts/governence/gameProfitsGalacticNetworkSettings.sol\":4030:4037  address */\n      0x00\n        /* \"gameprofits-galactic-spdgcs-contracts/governence/gameProfitsGalacticNetworkSettings.sol\":4050:4092  gameprofitsSettings storage networksetting */\n      dup1\n        /* \"gameprofits-galactic-spdgcs-contracts/governence/gameProfitsGalacticNetworkSettings.sol\":4095:4121  gameprofitsNetworkSettings */\n      0x01\n        /* \"gameprofits-galactic-spdgcs-contracts/governence/gameProfitsGalacticNetworkSettings.sol\":4050:4121  gameprofitsSettings storage networksetting = gameprofitsNetworkSettings */\n      swap1\n      pop\n        /* \"gameprofits-galactic-spdgcs-contracts/governence/gameProfitsGalacticNetworkSettings.sol\":4139:4153  networksetting */\n      dup1\n        /* \"gameprofits-galactic-spdgcs-contracts/governence/gameProfitsGalacticNetworkSettings.sol\":4139:4182  networksetting.gameprofitsFairValueSettings */\n      0x07\n      add\n      0x00\n      swap1\n      sload\n      swap1\n      0x0100\n      exp\n      swap1\n      div\n      0xffffffffffffffffffffffffffffffffffffffff\n      and\n        /* \"gameprofits-galactic-spdgcs-contracts/governence/gameProfitsGalacticNetworkSettings.sol\":4132:4182  return networksetting.gameprofitsFairValueSettings */\n      swap2\n      pop\n      pop\n        /* \"gameprofits-galactic-spdgcs-contracts/governence/gameProfitsGalacticNetworkSettings.sol\":3969:4190  function gameprofitsFairValueSettings() public view returns (address) {... */\n      swap1\n      jump\t// out\n        /* \"gameprofits-galactic-spdgcs-contracts/governence/gameProfitsGalacticNetworkSettings.sol\":5472:5754  function switchgameprofitsIchoroniumTableSettings(address newSetting... */\n    tag_135:\n        /* \"gameprofits-galactic-spdgcs-contracts/governence/gameProfitsGalacticNetworkSettings.sol\":10120:10125  owner */\n      0x00\n      dup1\n      sload\n      swap1\n      0x0100\n      exp\n      swap1\n      div\n      0xffffffffffffffffffffffffffffffffffffffff\n      and\n        /* \"gameprofits-galactic-spdgcs-contracts/governence/gameProfitsGalacticNetworkSettings.sol\":10106:10125  msg.sender == owner */\n      0xffffffffffffffffffffffffffffffffffffffff\n      and\n        /* \"gameprofits-galactic-spdgcs-contracts/governence/gameProfitsGalacticNetworkSettings.sol\":10106:10116  msg.sender */\n      caller\n        /* \"gameprofits-galactic-spdgcs-contracts/governence/gameProfitsGalacticNetworkSettings.sol\":10106:10125  msg.sender == owner */\n      0xffffffffffffffffffffffffffffffffffffffff\n      and\n      eq\n        /* \"gameprofits-galactic-spdgcs-contracts/governence/gameProfitsGalacticNetworkSettings.sol\":10097:10126  require (msg.sender == owner) */\n      tag_201\n      jumpi\n      0x00\n      dup1\n      revert\n    tag_201:\n        /* \"gameprofits-galactic-spdgcs-contracts/governence/gameProfitsGalacticNetworkSettings.sol\":5701:5711  newSetting */\n      dup1\n        /* \"gameprofits-galactic-spdgcs-contracts/governence/gameProfitsGalacticNetworkSettings.sol\":5637:5663  gameprofitsNetworkSettings */\n      0x01\n        /* \"gameprofits-galactic-spdgcs-contracts/governence/gameProfitsGalacticNetworkSettings.sol\":5637:5698  gameprofitsNetworkSettings.gameprofitsIchoroniumTableSettings */\n      0x03\n      add\n      0x00\n        /* \"gameprofits-galactic-spdgcs-contracts/governence/gameProfitsGalacticNetworkSettings.sol\":5637:5711  gameprofitsNetworkSettings.gameprofitsIchoroniumTableSettings = newSetting */\n      0x0100\n      exp\n      dup2\n      sload\n      dup2\n      0xffffffffffffffffffffffffffffffffffffffff\n      mul\n      not\n      and\n      swap1\n      dup4\n      0xffffffffffffffffffffffffffffffffffffffff\n      and\n      mul\n      or\n      swap1\n      sstore\n      pop\n        /* \"gameprofits-galactic-spdgcs-contracts/governence/gameProfitsGalacticNetworkSettings.sol\":5472:5754  function switchgameprofitsIchoroniumTableSettings(address newSetting... */\n      pop\n      jump\t// out\n        /* \"#utility.yul\":88:205   */\n    tag_204:\n        /* \"#utility.yul\":197:198   */\n      0x00\n        /* \"#utility.yul\":194:195   */\n      dup1\n        /* \"#utility.yul\":187:199   */\n      revert\n        /* \"#utility.yul\":334:460   */\n    tag_206:\n        /* \"#utility.yul\":371:378   */\n      0x00\n        /* \"#utility.yul\":411:453   */\n      0xffffffffffffffffffffffffffffffffffffffff\n        /* \"#utility.yul\":404:409   */\n      dup3\n        /* \"#utility.yul\":400:454   */\n      and\n        /* \"#utility.yul\":389:454   */\n      swap1\n      pop\n        /* \"#utility.yul\":334:460   */\n      swap2\n      swap1\n      pop\n      jump\t// out\n        /* \"#utility.yul\":466:562   */\n    tag_207:\n        /* \"#utility.yul\":503:510   */\n      0x00\n        /* \"#utility.yul\":532:556   */\n      tag_219\n        /* \"#utility.yul\":550:555   */\n      dup3\n        /* \"#utility.yul\":532:556   */\n      tag_206\n      jump\t// in\n    tag_219:\n        /* \"#utility.yul\":521:556   */\n      swap1\n      pop\n        /* \"#utility.yul\":466:562   */\n      swap2\n      swap1\n      pop\n      jump\t// out\n        /* \"#utility.yul\":568:690   */\n    tag_208:\n        /* \"#utility.yul\":641:665   */\n      tag_221\n        /* \"#utility.yul\":659:664   */\n      dup2\n        /* \"#utility.yul\":641:665   */\n      tag_207\n      jump\t// in\n    tag_221:\n        /* \"#utility.yul\":634:639   */\n      dup2\n        /* \"#utility.yul\":631:666   */\n      eq\n        /* \"#utility.yul\":621:684   */\n      tag_222\n      jumpi\n        /* \"#utility.yul\":680:681   */\n      0x00\n        /* \"#utility.yul\":677:678   */\n      dup1\n        /* \"#utility.yul\":670:682   */\n      revert\n        /* \"#utility.yul\":621:684   */\n    tag_222:\n        /* \"#utility.yul\":568:690   */\n      pop\n      jump\t// out\n        /* \"#utility.yul\":696:835   */\n    tag_209:\n        /* \"#utility.yul\":742:747   */\n      0x00\n        /* \"#utility.yul\":780:786   */\n      dup2\n        /* \"#utility.yul\":767:787   */\n      calldataload\n        /* \"#utility.yul\":758:787   */\n      swap1\n      pop\n        /* \"#utility.yul\":796:829   */\n      tag_224\n        /* \"#utility.yul\":823:828   */\n      dup2\n        /* \"#utility.yul\":796:829   */\n      tag_208\n      jump\t// in\n    tag_224:\n        /* \"#utility.yul\":696:835   */\n      swap3\n      swap2\n      pop\n      pop\n      jump\t// out\n        /* \"#utility.yul\":841:1170   */\n    tag_44:\n        /* \"#utility.yul\":900:906   */\n      0x00\n        /* \"#utility.yul\":949:951   */\n      0x20\n        /* \"#utility.yul\":937:946   */\n      dup3\n        /* \"#utility.yul\":928:935   */\n      dup5\n        /* \"#utility.yul\":924:947   */\n      sub\n        /* \"#utility.yul\":920:952   */\n      slt\n        /* \"#utility.yul\":917:1036   */\n      iszero\n      tag_226\n      jumpi\n        /* \"#utility.yul\":955:1034   */\n      tag_227\n      tag_204\n      jump\t// in\n    tag_227:\n        /* \"#utility.yul\":917:1036   */\n    tag_226:\n        /* \"#utility.yul\":1075:1076   */\n      0x00\n        /* \"#utility.yul\":1100:1153   */\n      tag_228\n        /* \"#utility.yul\":1145:1152   */\n      dup5\n        /* \"#utility.yul\":1136:1142   */\n      dup3\n        /* \"#utility.yul\":1125:1134   */\n      dup6\n        /* \"#utility.yul\":1121:1143   */\n      add\n        /* \"#utility.yul\":1100:1153   */\n      tag_209\n      jump\t// in\n    tag_228:\n        /* \"#utility.yul\":1090:1153   */\n      swap2\n      pop\n        /* \"#utility.yul\":1046:1163   */\n      pop\n        /* \"#utility.yul\":841:1170   */\n      swap3\n      swap2\n      pop\n      pop\n      jump\t// out\n        /* \"#utility.yul\":1176:1294   */\n    tag_210:\n        /* \"#utility.yul\":1263:1287   */\n      tag_230\n        /* \"#utility.yul\":1281:1286   */\n      dup2\n        /* \"#utility.yul\":1263:1287   */\n      tag_207\n      jump\t// in\n    tag_230:\n        /* \"#utility.yul\":1258:1261   */\n      dup3\n        /* \"#utility.yul\":1251:1288   */\n      mstore\n        /* \"#utility.yul\":1176:1294   */\n      pop\n      pop\n      jump\t// out\n        /* \"#utility.yul\":1300:1522   */\n    tag_49:\n        /* \"#utility.yul\":1393:1397   */\n      0x00\n        /* \"#utility.yul\":1431:1433   */\n      0x20\n        /* \"#utility.yul\":1420:1429   */\n      dup3\n        /* \"#utility.yul\":1416:1434   */\n      add\n        /* \"#utility.yul\":1408:1434   */\n      swap1\n      pop\n        /* \"#utility.yul\":1444:1515   */\n      tag_232\n        /* \"#utility.yul\":1512:1513   */\n      0x00\n        /* \"#utility.yul\":1501:1510   */\n      dup4\n        /* \"#utility.yul\":1497:1514   */\n      add\n        /* \"#utility.yul\":1488:1494   */\n      dup5\n        /* \"#utility.yul\":1444:1515   */\n      tag_210\n      jump\t// in\n    tag_232:\n        /* \"#utility.yul\":1300:1522   */\n      swap3\n      swap2\n      pop\n      pop\n      jump\t// out\n        /* \"#utility.yul\":1528:1618   */\n    tag_211:\n        /* \"#utility.yul\":1562:1569   */\n      0x00\n        /* \"#utility.yul\":1605:1610   */\n      dup2\n        /* \"#utility.yul\":1598:1611   */\n      iszero\n        /* \"#utility.yul\":1591:1612   */\n      iszero\n        /* \"#utility.yul\":1580:1612   */\n      swap1\n      pop\n        /* \"#utility.yul\":1528:1618   */\n      swap2\n      swap1\n      pop\n      jump\t// out\n        /* \"#utility.yul\":1624:1733   */\n    tag_212:\n        /* \"#utility.yul\":1705:1726   */\n      tag_235\n        /* \"#utility.yul\":1720:1725   */\n      dup2\n        /* \"#utility.yul\":1705:1726   */\n      tag_211\n      jump\t// in\n    tag_235:\n        /* \"#utility.yul\":1700:1703   */\n      dup3\n        /* \"#utility.yul\":1693:1727   */\n      mstore\n        /* \"#utility.yul\":1624:1733   */\n      pop\n      pop\n      jump\t// out\n        /* \"#utility.yul\":1739:1949   */\n    tag_56:\n        /* \"#utility.yul\":1826:1830   */\n      0x00\n        /* \"#utility.yul\":1864:1866   */\n      0x20\n        /* \"#utility.yul\":1853:1862   */\n      dup3\n        /* \"#utility.yul\":1849:1867   */\n      add\n        /* \"#utility.yul\":1841:1867   */\n      swap1\n      pop\n        /* \"#utility.yul\":1877:1942   */\n      tag_237\n        /* \"#utility.yul\":1939:1940   */\n      0x00\n        /* \"#utility.yul\":1928:1937   */\n      dup4\n        /* \"#utility.yul\":1924:1941   */\n      add\n        /* \"#utility.yul\":1915:1921   */\n      dup5\n        /* \"#utility.yul\":1877:1942   */\n      tag_212\n      jump\t// in\n    tag_237:\n        /* \"#utility.yul\":1739:1949   */\n      swap3\n      swap2\n      pop\n      pop\n      jump\t// out\n\n    auxdata: 0xa2646970667358221220fc9ee7b9fbfac5eae37728469f8d38304d0b3661bf50ea57303e21c89187d71064736f6c63430008100033\n}\n",
				"bytecode": {
					"linkReferences": {},
					"object": "6080604052604051806102000160405280600015158152602001600015158152602001600015158152602001600015158152602001600015158152602001600073ffffffffffffffffffffffffffffffffffffffff168152602001600073ffffffffffffffffffffffffffffffffffffffff168152602001600073ffffffffffffffffffffffffffffffffffffffff168152602001600073ffffffffffffffffffffffffffffffffffffffff168152602001600073ffffffffffffffffffffffffffffffffffffffff168152602001600073ffffffffffffffffffffffffffffffffffffffff168152602001600073ffffffffffffffffffffffffffffffffffffffff168152602001600073ffffffffffffffffffffffffffffffffffffffff168152602001600073ffffffffffffffffffffffffffffffffffffffff168152602001600073ffffffffffffffffffffffffffffffffffffffff168152602001600073ffffffffffffffffffffffffffffffffffffffff16815250600160008201518160000160006101000a81548160ff02191690831515021790555060208201518160000160016101000a81548160ff02191690831515021790555060408201518160000160026101000a81548160ff02191690831515021790555060608201518160000160036101000a81548160ff02191690831515021790555060808201518160000160046101000a81548160ff02191690831515021790555060a08201518160000160056101000a81548173ffffffffffffffffffffffffffffffffffffffff021916908373ffffffffffffffffffffffffffffffffffffffff16021790555060c08201518160010160006101000a81548173ffffffffffffffffffffffffffffffffffffffff021916908373ffffffffffffffffffffffffffffffffffffffff16021790555060e08201518160020160006101000a81548173ffffffffffffffffffffffffffffffffffffffff021916908373ffffffffffffffffffffffffffffffffffffffff1602179055506101008201518160030160006101000a81548173ffffffffffffffffffffffffffffffffffffffff021916908373ffffffffffffffffffffffffffffffffffffffff1602179055506101208201518160040160006101000a81548173ffffffffffffffffffffffffffffffffffffffff021916908373ffffffffffffffffffffffffffffffffffffffff1602179055506101408201518160050160006101000a81548173ffffffffffffffffffffffffffffffffffffffff021916908373ffffffffffffffffffffffffffffffffffffffff1602179055506101608201518160060160006101000a81548173ffffffffffffffffffffffffffffffffffffffff021916908373ffffffffffffffffffffffffffffffffffffffff1602179055506101808201518160070160006101000a81548173ffffffffffffffffffffffffffffffffffffffff021916908373ffffffffffffffffffffffffffffffffffffffff1602179055506101a08201518160080160006101000a81548173ffffffffffffffffffffffffffffffffffffffff021916908373ffffffffffffffffffffffffffffffffffffffff1602179055506101c08201518160090160006101000a81548173ffffffffffffffffffffffffffffffffffffffff021916908373ffffffffffffffffffffffffffffffffffffffff1602179055506101e082015181600a0160006101000a81548173ffffffffffffffffffffffffffffffffffffffff021916908373ffffffffffffffffffffffffffffffffffffffff160217905550505034801561053f57600080fd5b50336000806101000a81548173ffffffffffffffffffffffffffffffffffffffff021916908373ffffffffffffffffffffffffffffffffffffffff1602179055506113cd8061058f6000396000f3fe608060405234801561001057600080fd5b50600436106101f05760003560e01c80637a22890a1161010f578063a87a86aa116100a2578063c461089c11610071578063c461089c146104d9578063d2871723146104f7578063e2c6cc7a14610501578063fa0d08ec1461051f576101f0565b8063a87a86aa14610467578063b985accb14610485578063ba08d5e1146104a1578063c1b2456d146104bd576101f0565b8063941e32b6116100de578063941e32b6146103f157806394d5bdff1461040f57806397cf27b81461042d578063a775088b1461044b576101f0565b80637a22890a146103a3578063860249e4146103ad57806388f8a9a3146103c95780638991e441146103d3576101f0565b806349e8216a11610187578063545841991161015657806354584199146103315780635d246bad1461034d5780636ae730381461036957806379f760a714610387576101f0565b806349e8216a146102b95780634a2690b9146102d757806350b8f5eb146102f557806352bac07714610313576101f0565b80631fae9693116101c35780631fae96931461026b57806335d355ab146102895780633c49c63e1461029357806341daf6ba1461029d576101f0565b8063097ee368146101f55780630d19de6f146102115780631c7ac31b1461022f5780631dd287821461024d575b600080fd5b61020f600480360381019061020a919061130a565b61053b565b005b6102196105da565b6040516102269190611346565b60405180910390f35b61023761060c565b6040516102449190611346565b60405180910390f35b61025561063e565b604051610262919061137c565b60405180910390f35b61027361065d565b604051610280919061137c565b60405180910390f35b61029161067c565b005b61029b610706565b005b6102b760048036038101906102b2919061130a565b6108b5565b005b6102c1610954565b6040516102ce919061137c565b60405180910390f35b6102df610973565b6040516102ec9190611346565b60405180910390f35b6102fd6109a5565b60405161030a9190611346565b60405180910390f35b61031b6109d7565b604051610328919061137c565b60405180910390f35b61034b6004803603810190610346919061130a565b6109f6565b005b6103676004803603810190610362919061130a565b610a95565b005b610371610b34565b60405161037e9190611346565b60405180910390f35b6103a1600480360381019061039c919061130a565b610b66565b005b6103ab610c05565b005b6103c760048036038101906103c2919061130a565b610c8f565b005b6103d1610d2e565b005b6103db610db8565b6040516103e89190611346565b60405180910390f35b6103f9610dea565b604051610406919061137c565b60405180910390f35b610417610e09565b6040516104249190611346565b60405180910390f35b610435610e3b565b6040516104429190611346565b60405180910390f35b6104656004803603810190610460919061130a565b610e6d565b005b61046f610f0c565b60405161047c9190611346565b60405180910390f35b61049f600480360381019061049a919061130a565b610f3e565b005b6104bb60048036038101906104b6919061130a565b610fdd565b005b6104d760048036038101906104d2919061130a565b61107b565b005b6104e161111a565b6040516104ee9190611346565b60405180910390f35b6104ff61114c565b005b6105096111d6565b6040516105169190611346565b60405180910390f35b6105396004803603810190610534919061130a565b611208565b005b60008054906101000a900473ffffffffffffffffffffffffffffffffffffffff1673ffffffffffffffffffffffffffffffffffffffff163373ffffffffffffffffffffffffffffffffffffffff161461059357600080fd5b80600160020160006101000a81548173ffffffffffffffffffffffffffffffffffffffff021916908373ffffffffffffffffffffffffffffffffffffffff16021790555050565b600080600190508060090160009054906101000a900473ffffffffffffffffffffffffffffffffffffffff1691505090565b600080600190508060060160009054906101000a900473ffffffffffffffffffffffffffffffffffffffff1691505090565b600080600190508060000160009054906101000a900460ff1691505090565b600080600190508060000160039054906101000a900460ff1691505090565b60008054906101000a900473ffffffffffffffffffffffffffffffffffffffff1673ffffffffffffffffffffffffffffffffffffffff163373ffffffffffffffffffffffffffffffffffffffff16146106d457600080fd5b600160000160029054906101000a900460ff1615600160000160026101000a81548160ff021916908315150217905550565b60008054906101000a900473ffffffffffffffffffffffffffffffffffffffff1673ffffffffffffffffffffffffffffffffffffffff163373ffffffffffffffffffffffffffffffffffffffff161461075e57600080fd5b60001515600160000160049054906101000a900460ff1615150361080957600160000160049054906101000a900460ff1615600160000160046101000a81548160ff02191690831515021790555060018060000160036101000a81548160ff0219169083151502179055506000600160000160016101000a81548160ff02191690831515021790555060018060000160026101000a81548160ff0219169083151502179055506108b3565b60011515600160000160049054906101000a900460ff161515036108b257600160000160049054906101000a900460ff1615600160000160046101000a81548160ff0219169083151502179055506000600160000160036101000a81548160ff0219169083151502179055506000600160000160016101000a81548160ff0219169083151502179055506000600160000160026101000a81548160ff0219169083151502179055505b5b565b60008054906101000a900473ffffffffffffffffffffffffffffffffffffffff1673ffffffffffffffffffffffffffffffffffffffff163373ffffffffffffffffffffffffffffffffffffffff161461090d57600080fd5b80600160060160006101000a81548173ffffffffffffffffffffffffffffffffffffffff021916908373ffffffffffffffffffffffffffffffffffffffff16021790555050565b600080600190508060000160019054906101000a900460ff1691505090565b600080600190508060050160009054906101000a900473ffffffffffffffffffffffffffffffffffffffff1691505090565b600080600190508060010160009054906101000a900473ffffffffffffffffffffffffffffffffffffffff1691505090565b600080600190508060000160029054906101000a900460ff1691505090565b60008054906101000a900473ffffffffffffffffffffffffffffffffffffffff1673ffffffffffffffffffffffffffffffffffffffff163373ffffffffffffffffffffffffffffffffffffffff1614610a4e57600080fd5b80600160090160006101000a81548173ffffffffffffffffffffffffffffffffffffffff021916908373ffffffffffffffffffffffffffffffffffffffff16021790555050565b60008054906101000a900473ffffffffffffffffffffffffffffffffffffffff1673ffffffffffffffffffffffffffffffffffffffff163373ffffffffffffffffffffffffffffffffffffffff1614610aed57600080fd5b80600160070160006101000a81548173ffffffffffffffffffffffffffffffffffffffff021916908373ffffffffffffffffffffffffffffffffffffffff16021790555050565b600080600190508060080160009054906101000a900473ffffffffffffffffffffffffffffffffffffffff1691505090565b60008054906101000a900473ffffffffffffffffffffffffffffffffffffffff1673ffffffffffffffffffffffffffffffffffffffff163373ffffffffffffffffffffffffffffffffffffffff1614610bbe57600080fd5b80600160080160006101000a81548173ffffffffffffffffffffffffffffffffffffffff021916908373ffffffffffffffffffffffffffffffffffffffff16021790555050565b60008054906101000a900473ffffffffffffffffffffffffffffffffffffffff1673ffffffffffffffffffffffffffffffffffffffff163373ffffffffffffffffffffffffffffffffffffffff1614610c5d57600080fd5b600160000160039054906101000a900460ff1615600160000160036101000a81548160ff021916908315150217905550565b60008054906101000a900473ffffffffffffffffffffffffffffffffffffffff1673ffffffffffffffffffffffffffffffffffffffff163373ffffffffffffffffffffffffffffffffffffffff1614610ce757600080fd5b80600160000160056101000a81548173ffffffffffffffffffffffffffffffffffffffff021916908373ffffffffffffffffffffffffffffffffffffffff16021790555050565b60008054906101000a900473ffffffffffffffffffffffffffffffffffffffff1673ffffffffffffffffffffffffffffffffffffffff163373ffffffffffffffffffffffffffffffffffffffff1614610d8657600080fd5b600160000160009054906101000a900460ff1615600160000160006101000a81548160ff021916908315150217905550565b600080600190508060020160009054906101000a900473ffffffffffffffffffffffffffffffffffffffff1691505090565b600080600190508060000160049054906101000a900460ff1691505090565b600080600190508060040160009054906101000a900473ffffffffffffffffffffffffffffffffffffffff1691505090565b600080600190508060030160009054906101000a900473ffffffffffffffffffffffffffffffffffffffff1691505090565b60008054906101000a900473ffffffffffffffffffffffffffffffffffffffff1673ffffffffffffffffffffffffffffffffffffffff163373ffffffffffffffffffffffffffffffffffffffff1614610ec557600080fd5b806001600a0160006101000a81548173ffffffffffffffffffffffffffffffffffffffff021916908373ffffffffffffffffffffffffffffffffffffffff16021790555050565b6000806001905080600a0160009054906101000a900473ffffffffffffffffffffffffffffffffffffffff1691505090565b60008054906101000a900473ffffffffffffffffffffffffffffffffffffffff1673ffffffffffffffffffffffffffffffffffffffff163373ffffffffffffffffffffffffffffffffffffffff1614610f9657600080fd5b80600160050160006101000a81548173ffffffffffffffffffffffffffffffffffffffff021916908373ffffffffffffffffffffffffffffffffffffffff16021790555050565b60008054906101000a900473ffffffffffffffffffffffffffffffffffffffff1673ffffffffffffffffffffffffffffffffffffffff163373ffffffffffffffffffffffffffffffffffffffff161461103557600080fd5b806001800160006101000a81548173ffffffffffffffffffffffffffffffffffffffff021916908373ffffffffffffffffffffffffffffffffffffffff16021790555050565b60008054906101000a900473ffffffffffffffffffffffffffffffffffffffff1673ffffffffffffffffffffffffffffffffffffffff163373ffffffffffffffffffffffffffffffffffffffff16146110d357600080fd5b80600160040160006101000a81548173ffffffffffffffffffffffffffffffffffffffff021916908373ffffffffffffffffffffffffffffffffffffffff16021790555050565b600080600190508060000160059054906101000a900473ffffffffffffffffffffffffffffffffffffffff1691505090565b60008054906101000a900473ffffffffffffffffffffffffffffffffffffffff1673ffffffffffffffffffffffffffffffffffffffff163373ffffffffffffffffffffffffffffffffffffffff16146111a457600080fd5b600160000160019054906101000a900460ff1615600160000160016101000a81548160ff021916908315150217905550565b600080600190508060070160009054906101000a900473ffffffffffffffffffffffffffffffffffffffff1691505090565b60008054906101000a900473ffffffffffffffffffffffffffffffffffffffff1673ffffffffffffffffffffffffffffffffffffffff163373ffffffffffffffffffffffffffffffffffffffff161461126057600080fd5b80600160030160006101000a81548173ffffffffffffffffffffffffffffffffffffffff021916908373ffffffffffffffffffffffffffffffffffffffff16021790555050565b600080fd5b600073ffffffffffffffffffffffffffffffffffffffff82169050919050565b60006112d7826112ac565b9050919050565b6112e7816112cc565b81146112f257600080fd5b50565b600081359050611304816112de565b92915050565b6000602082840312156113205761131f6112a7565b5b600061132e848285016112f5565b91505092915050565b611340816112cc565b82525050565b600060208201905061135b6000830184611337565b92915050565b60008115159050919050565b61137681611361565b82525050565b6000602082019050611391600083018461136d565b9291505056fea2646970667358221220fc9ee7b9fbfac5eae37728469f8d38304d0b3661bf50ea57303e21c89187d71064736f6c63430008100033",
					"opcodes": "PUSH1 0x80 PUSH1 0x40 MSTORE PUSH1 0x40 MLOAD DUP1 PUSH2 0x200 ADD PUSH1 0x40 MSTORE DUP1 PUSH1 0x0 ISZERO ISZERO DUP2 MSTORE PUSH1 0x20 ADD PUSH1 0x0 ISZERO ISZERO DUP2 MSTORE PUSH1 0x20 ADD PUSH1 0x0 ISZERO ISZERO DUP2 MSTORE PUSH1 0x20 ADD PUSH1 0x0 ISZERO ISZERO DUP2 MSTORE PUSH1 0x20 ADD PUSH1 0x0 ISZERO ISZERO DUP2 MSTORE PUSH1 0x20 ADD PUSH1 0x0 PUSH20 0xFFFFFFFFFFFFFFFFFFFFFFFFFFFFFFFFFFFFFFFF AND DUP2 MSTORE PUSH1 0x20 ADD PUSH1 0x0 PUSH20 0xFFFFFFFFFFFFFFFFFFFFFFFFFFFFFFFFFFFFFFFF AND DUP2 MSTORE PUSH1 0x20 ADD PUSH1 0x0 PUSH20 0xFFFFFFFFFFFFFFFFFFFFFFFFFFFFFFFFFFFFFFFF AND DUP2 MSTORE PUSH1 0x20 ADD PUSH1 0x0 PUSH20 0xFFFFFFFFFFFFFFFFFFFFFFFFFFFFFFFFFFFFFFFF AND DUP2 MSTORE PUSH1 0x20 ADD PUSH1 0x0 PUSH20 0xFFFFFFFFFFFFFFFFFFFFFFFFFFFFFFFFFFFFFFFF AND DUP2 MSTORE PUSH1 0x20 ADD PUSH1 0x0 PUSH20 0xFFFFFFFFFFFFFFFFFFFFFFFFFFFFFFFFFFFFFFFF AND DUP2 MSTORE PUSH1 0x20 ADD PUSH1 0x0 PUSH20 0xFFFFFFFFFFFFFFFFFFFFFFFFFFFFFFFFFFFFFFFF AND DUP2 MSTORE PUSH1 0x20 ADD PUSH1 0x0 PUSH20 0xFFFFFFFFFFFFFFFFFFFFFFFFFFFFFFFFFFFFFFFF AND DUP2 MSTORE PUSH1 0x20 ADD PUSH1 0x0 PUSH20 0xFFFFFFFFFFFFFFFFFFFFFFFFFFFFFFFFFFFFFFFF AND DUP2 MSTORE PUSH1 0x20 ADD PUSH1 0x0 PUSH20 0xFFFFFFFFFFFFFFFFFFFFFFFFFFFFFFFFFFFFFFFF AND DUP2 MSTORE PUSH1 0x20 ADD PUSH1 0x0 PUSH20 0xFFFFFFFFFFFFFFFFFFFFFFFFFFFFFFFFFFFFFFFF AND DUP2 MSTORE POP PUSH1 0x1 PUSH1 0x0 DUP3 ADD MLOAD DUP2 PUSH1 0x0 ADD PUSH1 0x0 PUSH2 0x100 EXP DUP2 SLOAD DUP2 PUSH1 0xFF MUL NOT AND SWAP1 DUP4 ISZERO ISZERO MUL OR SWAP1 SSTORE POP PUSH1 0x20 DUP3 ADD MLOAD DUP2 PUSH1 0x0 ADD PUSH1 0x1 PUSH2 0x100 EXP DUP2 SLOAD DUP2 PUSH1 0xFF MUL NOT AND SWAP1 DUP4 ISZERO ISZERO MUL OR SWAP1 SSTORE POP PUSH1 0x40 DUP3 ADD MLOAD DUP2 PUSH1 0x0 ADD PUSH1 0x2 PUSH2 0x100 EXP DUP2 SLOAD DUP2 PUSH1 0xFF MUL NOT AND SWAP1 DUP4 ISZERO ISZERO MUL OR SWAP1 SSTORE POP PUSH1 0x60 DUP3 ADD MLOAD DUP2 PUSH1 0x0 ADD PUSH1 0x3 PUSH2 0x100 EXP DUP2 SLOAD DUP2 PUSH1 0xFF MUL NOT AND SWAP1 DUP4 ISZERO ISZERO MUL OR SWAP1 SSTORE POP PUSH1 0x80 DUP3 ADD MLOAD DUP2 PUSH1 0x0 ADD PUSH1 0x4 PUSH2 0x100 EXP DUP2 SLOAD DUP2 PUSH1 0xFF MUL NOT AND SWAP1 DUP4 ISZERO ISZERO MUL OR SWAP1 SSTORE POP PUSH1 0xA0 DUP3 ADD MLOAD DUP2 PUSH1 0x0 ADD PUSH1 0x5 PUSH2 0x100 EXP DUP2 SLOAD DUP2 PUSH20 0xFFFFFFFFFFFFFFFFFFFFFFFFFFFFFFFFFFFFFFFF MUL NOT AND SWAP1 DUP4 PUSH20 0xFFFFFFFFFFFFFFFFFFFFFFFFFFFFFFFFFFFFFFFF AND MUL OR SWAP1 SSTORE POP PUSH1 0xC0 DUP3 ADD MLOAD DUP2 PUSH1 0x1 ADD PUSH1 0x0 PUSH2 0x100 EXP DUP2 SLOAD DUP2 PUSH20 0xFFFFFFFFFFFFFFFFFFFFFFFFFFFFFFFFFFFFFFFF MUL NOT AND SWAP1 DUP4 PUSH20 0xFFFFFFFFFFFFFFFFFFFFFFFFFFFFFFFFFFFFFFFF AND MUL OR SWAP1 SSTORE POP PUSH1 0xE0 DUP3 ADD MLOAD DUP2 PUSH1 0x2 ADD PUSH1 0x0 PUSH2 0x100 EXP DUP2 SLOAD DUP2 PUSH20 0xFFFFFFFFFFFFFFFFFFFFFFFFFFFFFFFFFFFFFFFF MUL NOT AND SWAP1 DUP4 PUSH20 0xFFFFFFFFFFFFFFFFFFFFFFFFFFFFFFFFFFFFFFFF AND MUL OR SWAP1 SSTORE POP PUSH2 0x100 DUP3 ADD MLOAD DUP2 PUSH1 0x3 ADD PUSH1 0x0 PUSH2 0x100 EXP DUP2 SLOAD DUP2 PUSH20 0xFFFFFFFFFFFFFFFFFFFFFFFFFFFFFFFFFFFFFFFF MUL NOT AND SWAP1 DUP4 PUSH20 0xFFFFFFFFFFFFFFFFFFFFFFFFFFFFFFFFFFFFFFFF AND MUL OR SWAP1 SSTORE POP PUSH2 0x120 DUP3 ADD MLOAD DUP2 PUSH1 0x4 ADD PUSH1 0x0 PUSH2 0x100 EXP DUP2 SLOAD DUP2 PUSH20 0xFFFFFFFFFFFFFFFFFFFFFFFFFFFFFFFFFFFFFFFF MUL NOT AND SWAP1 DUP4 PUSH20 0xFFFFFFFFFFFFFFFFFFFFFFFFFFFFFFFFFFFFFFFF AND MUL OR SWAP1 SSTORE POP PUSH2 0x140 DUP3 ADD MLOAD DUP2 PUSH1 0x5 ADD PUSH1 0x0 PUSH2 0x100 EXP DUP2 SLOAD DUP2 PUSH20 0xFFFFFFFFFFFFFFFFFFFFFFFFFFFFFFFFFFFFFFFF MUL NOT AND SWAP1 DUP4 PUSH20 0xFFFFFFFFFFFFFFFFFFFFFFFFFFFFFFFFFFFFFFFF AND MUL OR SWAP1 SSTORE POP PUSH2 0x160 DUP3 ADD MLOAD DUP2 PUSH1 0x6 ADD PUSH1 0x0 PUSH2 0x100 EXP DUP2 SLOAD DUP2 PUSH20 0xFFFFFFFFFFFFFFFFFFFFFFFFFFFFFFFFFFFFFFFF MUL NOT AND SWAP1 DUP4 PUSH20 0xFFFFFFFFFFFFFFFFFFFFFFFFFFFFFFFFFFFFFFFF AND MUL OR SWAP1 SSTORE POP PUSH2 0x180 DUP3 ADD MLOAD DUP2 PUSH1 0x7 ADD PUSH1 0x0 PUSH2 0x100 EXP DUP2 SLOAD DUP2 PUSH20 0xFFFFFFFFFFFFFFFFFFFFFFFFFFFFFFFFFFFFFFFF MUL NOT AND SWAP1 DUP4 PUSH20 0xFFFFFFFFFFFFFFFFFFFFFFFFFFFFFFFFFFFFFFFF AND MUL OR SWAP1 SSTORE POP PUSH2 0x1A0 DUP3 ADD MLOAD DUP2 PUSH1 0x8 ADD PUSH1 0x0 PUSH2 0x100 EXP DUP2 SLOAD DUP2 PUSH20 0xFFFFFFFFFFFFFFFFFFFFFFFFFFFFFFFFFFFFFFFF MUL NOT AND SWAP1 DUP4 PUSH20 0xFFFFFFFFFFFFFFFFFFFFFFFFFFFFFFFFFFFFFFFF AND MUL OR SWAP1 SSTORE POP PUSH2 0x1C0 DUP3 ADD MLOAD DUP2 PUSH1 0x9 ADD PUSH1 0x0 PUSH2 0x100 EXP DUP2 SLOAD DUP2 PUSH20 0xFFFFFFFFFFFFFFFFFFFFFFFFFFFFFFFFFFFFFFFF MUL NOT AND SWAP1 DUP4 PUSH20 0xFFFFFFFFFFFFFFFFFFFFFFFFFFFFFFFFFFFFFFFF AND MUL OR SWAP1 SSTORE POP PUSH2 0x1E0 DUP3 ADD MLOAD DUP2 PUSH1 0xA ADD PUSH1 0x0 PUSH2 0x100 EXP DUP2 SLOAD DUP2 PUSH20 0xFFFFFFFFFFFFFFFFFFFFFFFFFFFFFFFFFFFFFFFF MUL NOT AND SWAP1 DUP4 PUSH20 0xFFFFFFFFFFFFFFFFFFFFFFFFFFFFFFFFFFFFFFFF AND MUL OR SWAP1 SSTORE POP POP POP CALLVALUE DUP1 ISZERO PUSH2 0x53F JUMPI PUSH1 0x0 DUP1 REVERT JUMPDEST POP CALLER PUSH1 0x0 DUP1 PUSH2 0x100 EXP DUP2 SLOAD DUP2 PUSH20 0xFFFFFFFFFFFFFFFFFFFFFFFFFFFFFFFFFFFFFFFF MUL NOT AND SWAP1 DUP4 PUSH20 0xFFFFFFFFFFFFFFFFFFFFFFFFFFFFFFFFFFFFFFFF AND MUL OR SWAP1 SSTORE POP PUSH2 0x13CD DUP1 PUSH2 0x58F PUSH1 0x0 CODECOPY PUSH1 0x0 RETURN INVALID PUSH1 0x80 PUSH1 0x40 MSTORE CALLVALUE DUP1 ISZERO PUSH2 0x10 JUMPI PUSH1 0x0 DUP1 REVERT JUMPDEST POP PUSH1 0x4 CALLDATASIZE LT PUSH2 0x1F0 JUMPI PUSH1 0x0 CALLDATALOAD PUSH1 0xE0 SHR DUP1 PUSH4 0x7A22890A GT PUSH2 0x10F JUMPI DUP1 PUSH4 0xA87A86AA GT PUSH2 0xA2 JUMPI DUP1 PUSH4 0xC461089C GT PUSH2 0x71 JUMPI DUP1 PUSH4 0xC461089C EQ PUSH2 0x4D9 JUMPI DUP1 PUSH4 0xD2871723 EQ PUSH2 0x4F7 JUMPI DUP1 PUSH4 0xE2C6CC7A EQ PUSH2 0x501 JUMPI DUP1 PUSH4 0xFA0D08EC EQ PUSH2 0x51F JUMPI PUSH2 0x1F0 JUMP JUMPDEST DUP1 PUSH4 0xA87A86AA EQ PUSH2 0x467 JUMPI DUP1 PUSH4 0xB985ACCB EQ PUSH2 0x485 JUMPI DUP1 PUSH4 0xBA08D5E1 EQ PUSH2 0x4A1 JUMPI DUP1 PUSH4 0xC1B2456D EQ PUSH2 0x4BD JUMPI PUSH2 0x1F0 JUMP JUMPDEST DUP1 PUSH4 0x941E32B6 GT PUSH2 0xDE JUMPI DUP1 PUSH4 0x941E32B6 EQ PUSH2 0x3F1 JUMPI DUP1 PUSH4 0x94D5BDFF EQ PUSH2 0x40F JUMPI DUP1 PUSH4 0x97CF27B8 EQ PUSH2 0x42D JUMPI DUP1 PUSH4 0xA775088B EQ PUSH2 0x44B JUMPI PUSH2 0x1F0 JUMP JUMPDEST DUP1 PUSH4 0x7A22890A EQ PUSH2 0x3A3 JUMPI DUP1 PUSH4 0x860249E4 EQ PUSH2 0x3AD JUMPI DUP1 PUSH4 0x88F8A9A3 EQ PUSH2 0x3C9 JUMPI DUP1 PUSH4 0x8991E441 EQ PUSH2 0x3D3 JUMPI PUSH2 0x1F0 JUMP JUMPDEST DUP1 PUSH4 0x49E8216A GT PUSH2 0x187 JUMPI DUP1 PUSH4 0x54584199 GT PUSH2 0x156 JUMPI DUP1 PUSH4 0x54584199 EQ PUSH2 0x331 JUMPI DUP1 PUSH4 0x5D246BAD EQ PUSH2 0x34D JUMPI DUP1 PUSH4 0x6AE73038 EQ PUSH2 0x369 JUMPI DUP1 PUSH4 0x79F760A7 EQ PUSH2 0x387 JUMPI PUSH2 0x1F0 JUMP JUMPDEST DUP1 PUSH4 0x49E8216A EQ PUSH2 0x2B9 JUMPI DUP1 PUSH4 0x4A2690B9 EQ PUSH2 0x2D7 JUMPI DUP1 PUSH4 0x50B8F5EB EQ PUSH2 0x2F5 JUMPI DUP1 PUSH4 0x52BAC077 EQ PUSH2 0x313 JUMPI PUSH2 0x1F0 JUMP JUMPDEST DUP1 PUSH4 0x1FAE9693 GT PUSH2 0x1C3 JUMPI DUP1 PUSH4 0x1FAE9693 EQ PUSH2 0x26B JUMPI DUP1 PUSH4 0x35D355AB EQ PUSH2 0x289 JUMPI DUP1 PUSH4 0x3C49C63E EQ PUSH2 0x293 JUMPI DUP1 PUSH4 0x41DAF6BA EQ PUSH2 0x29D JUMPI PUSH2 0x1F0 JUMP JUMPDEST DUP1 PUSH4 0x97EE368 EQ PUSH2 0x1F5 JUMPI DUP1 PUSH4 0xD19DE6F EQ PUSH2 0x211 JUMPI DUP1 PUSH4 0x1C7AC31B EQ PUSH2 0x22F JUMPI DUP1 PUSH4 0x1DD28782 EQ PUSH2 0x24D JUMPI JUMPDEST PUSH1 0x0 DUP1 REVERT JUMPDEST PUSH2 0x20F PUSH1 0x4 DUP1 CALLDATASIZE SUB DUP2 ADD SWAP1 PUSH2 0x20A SWAP2 SWAP1 PUSH2 0x130A JUMP JUMPDEST PUSH2 0x53B JUMP JUMPDEST STOP JUMPDEST PUSH2 0x219 PUSH2 0x5DA JUMP JUMPDEST PUSH1 0x40 MLOAD PUSH2 0x226 SWAP2 SWAP1 PUSH2 0x1346 JUMP JUMPDEST PUSH1 0x40 MLOAD DUP1 SWAP2 SUB SWAP1 RETURN JUMPDEST PUSH2 0x237 PUSH2 0x60C JUMP JUMPDEST PUSH1 0x40 MLOAD PUSH2 0x244 SWAP2 SWAP1 PUSH2 0x1346 JUMP JUMPDEST PUSH1 0x40 MLOAD DUP1 SWAP2 SUB SWAP1 RETURN JUMPDEST PUSH2 0x255 PUSH2 0x63E JUMP JUMPDEST PUSH1 0x40 MLOAD PUSH2 0x262 SWAP2 SWAP1 PUSH2 0x137C JUMP JUMPDEST PUSH1 0x40 MLOAD DUP1 SWAP2 SUB SWAP1 RETURN JUMPDEST PUSH2 0x273 PUSH2 0x65D JUMP JUMPDEST PUSH1 0x40 MLOAD PUSH2 0x280 SWAP2 SWAP1 PUSH2 0x137C JUMP JUMPDEST PUSH1 0x40 MLOAD DUP1 SWAP2 SUB SWAP1 RETURN JUMPDEST PUSH2 0x291 PUSH2 0x67C JUMP JUMPDEST STOP JUMPDEST PUSH2 0x29B PUSH2 0x706 JUMP JUMPDEST STOP JUMPDEST PUSH2 0x2B7 PUSH1 0x4 DUP1 CALLDATASIZE SUB DUP2 ADD SWAP1 PUSH2 0x2B2 SWAP2 SWAP1 PUSH2 0x130A JUMP JUMPDEST PUSH2 0x8B5 JUMP JUMPDEST STOP JUMPDEST PUSH2 0x2C1 PUSH2 0x954 JUMP JUMPDEST PUSH1 0x40 MLOAD PUSH2 0x2CE SWAP2 SWAP1 PUSH2 0x137C JUMP JUMPDEST PUSH1 0x40 MLOAD DUP1 SWAP2 SUB SWAP1 RETURN JUMPDEST PUSH2 0x2DF PUSH2 0x973 JUMP JUMPDEST PUSH1 0x40 MLOAD PUSH2 0x2EC SWAP2 SWAP1 PUSH2 0x1346 JUMP JUMPDEST PUSH1 0x40 MLOAD DUP1 SWAP2 SUB SWAP1 RETURN JUMPDEST PUSH2 0x2FD PUSH2 0x9A5 JUMP JUMPDEST PUSH1 0x40 MLOAD PUSH2 0x30A SWAP2 SWAP1 PUSH2 0x1346 JUMP JUMPDEST PUSH1 0x40 MLOAD DUP1 SWAP2 SUB SWAP1 RETURN JUMPDEST PUSH2 0x31B PUSH2 0x9D7 JUMP JUMPDEST PUSH1 0x40 MLOAD PUSH2 0x328 SWAP2 SWAP1 PUSH2 0x137C JUMP JUMPDEST PUSH1 0x40 MLOAD DUP1 SWAP2 SUB SWAP1 RETURN JUMPDEST PUSH2 0x34B PUSH1 0x4 DUP1 CALLDATASIZE SUB DUP2 ADD SWAP1 PUSH2 0x346 SWAP2 SWAP1 PUSH2 0x130A JUMP JUMPDEST PUSH2 0x9F6 JUMP JUMPDEST STOP JUMPDEST PUSH2 0x367 PUSH1 0x4 DUP1 CALLDATASIZE SUB DUP2 ADD SWAP1 PUSH2 0x362 SWAP2 SWAP1 PUSH2 0x130A JUMP JUMPDEST PUSH2 0xA95 JUMP JUMPDEST STOP JUMPDEST PUSH2 0x371 PUSH2 0xB34 JUMP JUMPDEST PUSH1 0x40 MLOAD PUSH2 0x37E SWAP2 SWAP1 PUSH2 0x1346 JUMP JUMPDEST PUSH1 0x40 MLOAD DUP1 SWAP2 SUB SWAP1 RETURN JUMPDEST PUSH2 0x3A1 PUSH1 0x4 DUP1 CALLDATASIZE SUB DUP2 ADD SWAP1 PUSH2 0x39C SWAP2 SWAP1 PUSH2 0x130A JUMP JUMPDEST PUSH2 0xB66 JUMP JUMPDEST STOP JUMPDEST PUSH2 0x3AB PUSH2 0xC05 JUMP JUMPDEST STOP JUMPDEST PUSH2 0x3C7 PUSH1 0x4 DUP1 CALLDATASIZE SUB DUP2 ADD SWAP1 PUSH2 0x3C2 SWAP2 SWAP1 PUSH2 0x130A JUMP JUMPDEST PUSH2 0xC8F JUMP JUMPDEST STOP JUMPDEST PUSH2 0x3D1 PUSH2 0xD2E JUMP JUMPDEST STOP JUMPDEST PUSH2 0x3DB PUSH2 0xDB8 JUMP JUMPDEST PUSH1 0x40 MLOAD PUSH2 0x3E8 SWAP2 SWAP1 PUSH2 0x1346 JUMP JUMPDEST PUSH1 0x40 MLOAD DUP1 SWAP2 SUB SWAP1 RETURN JUMPDEST PUSH2 0x3F9 PUSH2 0xDEA JUMP JUMPDEST PUSH1 0x40 MLOAD PUSH2 0x406 SWAP2 SWAP1 PUSH2 0x137C JUMP JUMPDEST PUSH1 0x40 MLOAD DUP1 SWAP2 SUB SWAP1 RETURN JUMPDEST PUSH2 0x417 PUSH2 0xE09 JUMP JUMPDEST PUSH1 0x40 MLOAD PUSH2 0x424 SWAP2 SWAP1 PUSH2 0x1346 JUMP JUMPDEST PUSH1 0x40 MLOAD DUP1 SWAP2 SUB SWAP1 RETURN JUMPDEST PUSH2 0x435 PUSH2 0xE3B JUMP JUMPDEST PUSH1 0x40 MLOAD PUSH2 0x442 SWAP2 SWAP1 PUSH2 0x1346 JUMP JUMPDEST PUSH1 0x40 MLOAD DUP1 SWAP2 SUB SWAP1 RETURN JUMPDEST PUSH2 0x465 PUSH1 0x4 DUP1 CALLDATASIZE SUB DUP2 ADD SWAP1 PUSH2 0x460 SWAP2 SWAP1 PUSH2 0x130A JUMP JUMPDEST PUSH2 0xE6D JUMP JUMPDEST STOP JUMPDEST PUSH2 0x46F PUSH2 0xF0C JUMP JUMPDEST PUSH1 0x40 MLOAD PUSH2 0x47C SWAP2 SWAP1 PUSH2 0x1346 JUMP JUMPDEST PUSH1 0x40 MLOAD DUP1 SWAP2 SUB SWAP1 RETURN JUMPDEST PUSH2 0x49F PUSH1 0x4 DUP1 CALLDATASIZE SUB DUP2 ADD SWAP1 PUSH2 0x49A SWAP2 SWAP1 PUSH2 0x130A JUMP JUMPDEST PUSH2 0xF3E JUMP JUMPDEST STOP JUMPDEST PUSH2 0x4BB PUSH1 0x4 DUP1 CALLDATASIZE SUB DUP2 ADD SWAP1 PUSH2 0x4B6 SWAP2 SWAP1 PUSH2 0x130A JUMP JUMPDEST PUSH2 0xFDD JUMP JUMPDEST STOP JUMPDEST PUSH2 0x4D7 PUSH1 0x4 DUP1 CALLDATASIZE SUB DUP2 ADD SWAP1 PUSH2 0x4D2 SWAP2 SWAP1 PUSH2 0x130A JUMP JUMPDEST PUSH2 0x107B JUMP JUMPDEST STOP JUMPDEST PUSH2 0x4E1 PUSH2 0x111A JUMP JUMPDEST PUSH1 0x40 MLOAD PUSH2 0x4EE SWAP2 SWAP1 PUSH2 0x1346 JUMP JUMPDEST PUSH1 0x40 MLOAD DUP1 SWAP2 SUB SWAP1 RETURN JUMPDEST PUSH2 0x4FF PUSH2 0x114C JUMP JUMPDEST STOP JUMPDEST PUSH2 0x509 PUSH2 0x11D6 JUMP JUMPDEST PUSH1 0x40 MLOAD PUSH2 0x516 SWAP2 SWAP1 PUSH2 0x1346 JUMP JUMPDEST PUSH1 0x40 MLOAD DUP1 SWAP2 SUB SWAP1 RETURN JUMPDEST PUSH2 0x539 PUSH1 0x4 DUP1 CALLDATASIZE SUB DUP2 ADD SWAP1 PUSH2 0x534 SWAP2 SWAP1 PUSH2 0x130A JUMP JUMPDEST PUSH2 0x1208 JUMP JUMPDEST STOP JUMPDEST PUSH1 0x0 DUP1 SLOAD SWAP1 PUSH2 0x100 EXP SWAP1 DIV PUSH20 0xFFFFFFFFFFFFFFFFFFFFFFFFFFFFFFFFFFFFFFFF AND PUSH20 0xFFFFFFFFFFFFFFFFFFFFFFFFFFFFFFFFFFFFFFFF AND CALLER PUSH20 0xFFFFFFFFFFFFFFFFFFFFFFFFFFFFFFFFFFFFFFFF AND EQ PUSH2 0x593 JUMPI PUSH1 0x0 DUP1 REVERT JUMPDEST DUP1 PUSH1 0x1 PUSH1 0x2 ADD PUSH1 0x0 PUSH2 0x100 EXP DUP2 SLOAD DUP2 PUSH20 0xFFFFFFFFFFFFFFFFFFFFFFFFFFFFFFFFFFFFFFFF MUL NOT AND SWAP1 DUP4 PUSH20 0xFFFFFFFFFFFFFFFFFFFFFFFFFFFFFFFFFFFFFFFF AND MUL OR SWAP1 SSTORE POP POP JUMP JUMPDEST PUSH1 0x0 DUP1 PUSH1 0x1 SWAP1 POP DUP1 PUSH1 0x9 ADD PUSH1 0x0 SWAP1 SLOAD SWAP1 PUSH2 0x100 EXP SWAP1 DIV PUSH20 0xFFFFFFFFFFFFFFFFFFFFFFFFFFFFFFFFFFFFFFFF AND SWAP2 POP POP SWAP1 JUMP JUMPDEST PUSH1 0x0 DUP1 PUSH1 0x1 SWAP1 POP DUP1 PUSH1 0x6 ADD PUSH1 0x0 SWAP1 SLOAD SWAP1 PUSH2 0x100 EXP SWAP1 DIV PUSH20 0xFFFFFFFFFFFFFFFFFFFFFFFFFFFFFFFFFFFFFFFF AND SWAP2 POP POP SWAP1 JUMP JUMPDEST PUSH1 0x0 DUP1 PUSH1 0x1 SWAP1 POP DUP1 PUSH1 0x0 ADD PUSH1 0x0 SWAP1 SLOAD SWAP1 PUSH2 0x100 EXP SWAP1 DIV PUSH1 0xFF AND SWAP2 POP POP SWAP1 JUMP JUMPDEST PUSH1 0x0 DUP1 PUSH1 0x1 SWAP1 POP DUP1 PUSH1 0x0 ADD PUSH1 0x3 SWAP1 SLOAD SWAP1 PUSH2 0x100 EXP SWAP1 DIV PUSH1 0xFF AND SWAP2 POP POP SWAP1 JUMP JUMPDEST PUSH1 0x0 DUP1 SLOAD SWAP1 PUSH2 0x100 EXP SWAP1 DIV PUSH20 0xFFFFFFFFFFFFFFFFFFFFFFFFFFFFFFFFFFFFFFFF AND PUSH20 0xFFFFFFFFFFFFFFFFFFFFFFFFFFFFFFFFFFFFFFFF AND CALLER PUSH20 0xFFFFFFFFFFFFFFFFFFFFFFFFFFFFFFFFFFFFFFFF AND EQ PUSH2 0x6D4 JUMPI PUSH1 0x0 DUP1 REVERT JUMPDEST PUSH1 0x1 PUSH1 0x0 ADD PUSH1 0x2 SWAP1 SLOAD SWAP1 PUSH2 0x100 EXP SWAP1 DIV PUSH1 0xFF AND ISZERO PUSH1 0x1 PUSH1 0x0 ADD PUSH1 0x2 PUSH2 0x100 EXP DUP2 SLOAD DUP2 PUSH1 0xFF MUL NOT AND SWAP1 DUP4 ISZERO ISZERO MUL OR SWAP1 SSTORE POP JUMP JUMPDEST PUSH1 0x0 DUP1 SLOAD SWAP1 PUSH2 0x100 EXP SWAP1 DIV PUSH20 0xFFFFFFFFFFFFFFFFFFFFFFFFFFFFFFFFFFFFFFFF AND PUSH20 0xFFFFFFFFFFFFFFFFFFFFFFFFFFFFFFFFFFFFFFFF AND CALLER PUSH20 0xFFFFFFFFFFFFFFFFFFFFFFFFFFFFFFFFFFFFFFFF AND EQ PUSH2 0x75E JUMPI PUSH1 0x0 DUP1 REVERT JUMPDEST PUSH1 0x0 ISZERO ISZERO PUSH1 0x1 PUSH1 0x0 ADD PUSH1 0x4 SWAP1 SLOAD SWAP1 PUSH2 0x100 EXP SWAP1 DIV PUSH1 0xFF AND ISZERO ISZERO SUB PUSH2 0x809 JUMPI PUSH1 0x1 PUSH1 0x0 ADD PUSH1 0x4 SWAP1 SLOAD SWAP1 PUSH2 0x100 EXP SWAP1 DIV PUSH1 0xFF AND ISZERO PUSH1 0x1 PUSH1 0x0 ADD PUSH1 0x4 PUSH2 0x100 EXP DUP2 SLOAD DUP2 PUSH1 0xFF MUL NOT AND SWAP1 DUP4 ISZERO ISZERO MUL OR SWAP1 SSTORE POP PUSH1 0x1 DUP1 PUSH1 0x0 ADD PUSH1 0x3 PUSH2 0x100 EXP DUP2 SLOAD DUP2 PUSH1 0xFF MUL NOT AND SWAP1 DUP4 ISZERO ISZERO MUL OR SWAP1 SSTORE POP PUSH1 0x0 PUSH1 0x1 PUSH1 0x0 ADD PUSH1 0x1 PUSH2 0x100 EXP DUP2 SLOAD DUP2 PUSH1 0xFF MUL NOT AND SWAP1 DUP4 ISZERO ISZERO MUL OR SWAP1 SSTORE POP PUSH1 0x1 DUP1 PUSH1 0x0 ADD PUSH1 0x2 PUSH2 0x100 EXP DUP2 SLOAD DUP2 PUSH1 0xFF MUL NOT AND SWAP1 DUP4 ISZERO ISZERO MUL OR SWAP1 SSTORE POP PUSH2 0x8B3 JUMP JUMPDEST PUSH1 0x1 ISZERO ISZERO PUSH1 0x1 PUSH1 0x0 ADD PUSH1 0x4 SWAP1 SLOAD SWAP1 PUSH2 0x100 EXP SWAP1 DIV PUSH1 0xFF AND ISZERO ISZERO SUB PUSH2 0x8B2 JUMPI PUSH1 0x1 PUSH1 0x0 ADD PUSH1 0x4 SWAP1 SLOAD SWAP1 PUSH2 0x100 EXP SWAP1 DIV PUSH1 0xFF AND ISZERO PUSH1 0x1 PUSH1 0x0 ADD PUSH1 0x4 PUSH2 0x100 EXP DUP2 SLOAD DUP2 PUSH1 0xFF MUL NOT AND SWAP1 DUP4 ISZERO ISZERO MUL OR SWAP1 SSTORE POP PUSH1 0x0 PUSH1 0x1 PUSH1 0x0 ADD PUSH1 0x3 PUSH2 0x100 EXP DUP2 SLOAD DUP2 PUSH1 0xFF MUL NOT AND SWAP1 DUP4 ISZERO ISZERO MUL OR SWAP1 SSTORE POP PUSH1 0x0 PUSH1 0x1 PUSH1 0x0 ADD PUSH1 0x1 PUSH2 0x100 EXP DUP2 SLOAD DUP2 PUSH1 0xFF MUL NOT AND SWAP1 DUP4 ISZERO ISZERO MUL OR SWAP1 SSTORE POP PUSH1 0x0 PUSH1 0x1 PUSH1 0x0 ADD PUSH1 0x2 PUSH2 0x100 EXP DUP2 SLOAD DUP2 PUSH1 0xFF MUL NOT AND SWAP1 DUP4 ISZERO ISZERO MUL OR SWAP1 SSTORE POP JUMPDEST JUMPDEST JUMP JUMPDEST PUSH1 0x0 DUP1 SLOAD SWAP1 PUSH2 0x100 EXP SWAP1 DIV PUSH20 0xFFFFFFFFFFFFFFFFFFFFFFFFFFFFFFFFFFFFFFFF AND PUSH20 0xFFFFFFFFFFFFFFFFFFFFFFFFFFFFFFFFFFFFFFFF AND CALLER PUSH20 0xFFFFFFFFFFFFFFFFFFFFFFFFFFFFFFFFFFFFFFFF AND EQ PUSH2 0x90D JUMPI PUSH1 0x0 DUP1 REVERT JUMPDEST DUP1 PUSH1 0x1 PUSH1 0x6 ADD PUSH1 0x0 PUSH2 0x100 EXP DUP2 SLOAD DUP2 PUSH20 0xFFFFFFFFFFFFFFFFFFFFFFFFFFFFFFFFFFFFFFFF MUL NOT AND SWAP1 DUP4 PUSH20 0xFFFFFFFFFFFFFFFFFFFFFFFFFFFFFFFFFFFFFFFF AND MUL OR SWAP1 SSTORE POP POP JUMP JUMPDEST PUSH1 0x0 DUP1 PUSH1 0x1 SWAP1 POP DUP1 PUSH1 0x0 ADD PUSH1 0x1 SWAP1 SLOAD SWAP1 PUSH2 0x100 EXP SWAP1 DIV PUSH1 0xFF AND SWAP2 POP POP SWAP1 JUMP JUMPDEST PUSH1 0x0 DUP1 PUSH1 0x1 SWAP1 POP DUP1 PUSH1 0x5 ADD PUSH1 0x0 SWAP1 SLOAD SWAP1 PUSH2 0x100 EXP SWAP1 DIV PUSH20 0xFFFFFFFFFFFFFFFFFFFFFFFFFFFFFFFFFFFFFFFF AND SWAP2 POP POP SWAP1 JUMP JUMPDEST PUSH1 0x0 DUP1 PUSH1 0x1 SWAP1 POP DUP1 PUSH1 0x1 ADD PUSH1 0x0 SWAP1 SLOAD SWAP1 PUSH2 0x100 EXP SWAP1 DIV PUSH20 0xFFFFFFFFFFFFFFFFFFFFFFFFFFFFFFFFFFFFFFFF AND SWAP2 POP POP SWAP1 JUMP JUMPDEST PUSH1 0x0 DUP1 PUSH1 0x1 SWAP1 POP DUP1 PUSH1 0x0 ADD PUSH1 0x2 SWAP1 SLOAD SWAP1 PUSH2 0x100 EXP SWAP1 DIV PUSH1 0xFF AND SWAP2 POP POP SWAP1 JUMP JUMPDEST PUSH1 0x0 DUP1 SLOAD SWAP1 PUSH2 0x100 EXP SWAP1 DIV PUSH20 0xFFFFFFFFFFFFFFFFFFFFFFFFFFFFFFFFFFFFFFFF AND PUSH20 0xFFFFFFFFFFFFFFFFFFFFFFFFFFFFFFFFFFFFFFFF AND CALLER PUSH20 0xFFFFFFFFFFFFFFFFFFFFFFFFFFFFFFFFFFFFFFFF AND EQ PUSH2 0xA4E JUMPI PUSH1 0x0 DUP1 REVERT JUMPDEST DUP1 PUSH1 0x1 PUSH1 0x9 ADD PUSH1 0x0 PUSH2 0x100 EXP DUP2 SLOAD DUP2 PUSH20 0xFFFFFFFFFFFFFFFFFFFFFFFFFFFFFFFFFFFFFFFF MUL NOT AND SWAP1 DUP4 PUSH20 0xFFFFFFFFFFFFFFFFFFFFFFFFFFFFFFFFFFFFFFFF AND MUL OR SWAP1 SSTORE POP POP JUMP JUMPDEST PUSH1 0x0 DUP1 SLOAD SWAP1 PUSH2 0x100 EXP SWAP1 DIV PUSH20 0xFFFFFFFFFFFFFFFFFFFFFFFFFFFFFFFFFFFFFFFF AND PUSH20 0xFFFFFFFFFFFFFFFFFFFFFFFFFFFFFFFFFFFFFFFF AND CALLER PUSH20 0xFFFFFFFFFFFFFFFFFFFFFFFFFFFFFFFFFFFFFFFF AND EQ PUSH2 0xAED JUMPI PUSH1 0x0 DUP1 REVERT JUMPDEST DUP1 PUSH1 0x1 PUSH1 0x7 ADD PUSH1 0x0 PUSH2 0x100 EXP DUP2 SLOAD DUP2 PUSH20 0xFFFFFFFFFFFFFFFFFFFFFFFFFFFFFFFFFFFFFFFF MUL NOT AND SWAP1 DUP4 PUSH20 0xFFFFFFFFFFFFFFFFFFFFFFFFFFFFFFFFFFFFFFFF AND MUL OR SWAP1 SSTORE POP POP JUMP JUMPDEST PUSH1 0x0 DUP1 PUSH1 0x1 SWAP1 POP DUP1 PUSH1 0x8 ADD PUSH1 0x0 SWAP1 SLOAD SWAP1 PUSH2 0x100 EXP SWAP1 DIV PUSH20 0xFFFFFFFFFFFFFFFFFFFFFFFFFFFFFFFFFFFFFFFF AND SWAP2 POP POP SWAP1 JUMP JUMPDEST PUSH1 0x0 DUP1 SLOAD SWAP1 PUSH2 0x100 EXP SWAP1 DIV PUSH20 0xFFFFFFFFFFFFFFFFFFFFFFFFFFFFFFFFFFFFFFFF AND PUSH20 0xFFFFFFFFFFFFFFFFFFFFFFFFFFFFFFFFFFFFFFFF AND CALLER PUSH20 0xFFFFFFFFFFFFFFFFFFFFFFFFFFFFFFFFFFFFFFFF AND EQ PUSH2 0xBBE JUMPI PUSH1 0x0 DUP1 REVERT JUMPDEST DUP1 PUSH1 0x1 PUSH1 0x8 ADD PUSH1 0x0 PUSH2 0x100 EXP DUP2 SLOAD DUP2 PUSH20 0xFFFFFFFFFFFFFFFFFFFFFFFFFFFFFFFFFFFFFFFF MUL NOT AND SWAP1 DUP4 PUSH20 0xFFFFFFFFFFFFFFFFFFFFFFFFFFFFFFFFFFFFFFFF AND MUL OR SWAP1 SSTORE POP POP JUMP JUMPDEST PUSH1 0x0 DUP1 SLOAD SWAP1 PUSH2 0x100 EXP SWAP1 DIV PUSH20 0xFFFFFFFFFFFFFFFFFFFFFFFFFFFFFFFFFFFFFFFF AND PUSH20 0xFFFFFFFFFFFFFFFFFFFFFFFFFFFFFFFFFFFFFFFF AND CALLER PUSH20 0xFFFFFFFFFFFFFFFFFFFFFFFFFFFFFFFFFFFFFFFF AND EQ PUSH2 0xC5D JUMPI PUSH1 0x0 DUP1 REVERT JUMPDEST PUSH1 0x1 PUSH1 0x0 ADD PUSH1 0x3 SWAP1 SLOAD SWAP1 PUSH2 0x100 EXP SWAP1 DIV PUSH1 0xFF AND ISZERO PUSH1 0x1 PUSH1 0x0 ADD PUSH1 0x3 PUSH2 0x100 EXP DUP2 SLOAD DUP2 PUSH1 0xFF MUL NOT AND SWAP1 DUP4 ISZERO ISZERO MUL OR SWAP1 SSTORE POP JUMP JUMPDEST PUSH1 0x0 DUP1 SLOAD SWAP1 PUSH2 0x100 EXP SWAP1 DIV PUSH20 0xFFFFFFFFFFFFFFFFFFFFFFFFFFFFFFFFFFFFFFFF AND PUSH20 0xFFFFFFFFFFFFFFFFFFFFFFFFFFFFFFFFFFFFFFFF AND CALLER PUSH20 0xFFFFFFFFFFFFFFFFFFFFFFFFFFFFFFFFFFFFFFFF AND EQ PUSH2 0xCE7 JUMPI PUSH1 0x0 DUP1 REVERT JUMPDEST DUP1 PUSH1 0x1 PUSH1 0x0 ADD PUSH1 0x5 PUSH2 0x100 EXP DUP2 SLOAD DUP2 PUSH20 0xFFFFFFFFFFFFFFFFFFFFFFFFFFFFFFFFFFFFFFFF MUL NOT AND SWAP1 DUP4 PUSH20 0xFFFFFFFFFFFFFFFFFFFFFFFFFFFFFFFFFFFFFFFF AND MUL OR SWAP1 SSTORE POP POP JUMP JUMPDEST PUSH1 0x0 DUP1 SLOAD SWAP1 PUSH2 0x100 EXP SWAP1 DIV PUSH20 0xFFFFFFFFFFFFFFFFFFFFFFFFFFFFFFFFFFFFFFFF AND PUSH20 0xFFFFFFFFFFFFFFFFFFFFFFFFFFFFFFFFFFFFFFFF AND CALLER PUSH20 0xFFFFFFFFFFFFFFFFFFFFFFFFFFFFFFFFFFFFFFFF AND EQ PUSH2 0xD86 JUMPI PUSH1 0x0 DUP1 REVERT JUMPDEST PUSH1 0x1 PUSH1 0x0 ADD PUSH1 0x0 SWAP1 SLOAD SWAP1 PUSH2 0x100 EXP SWAP1 DIV PUSH1 0xFF AND ISZERO PUSH1 0x1 PUSH1 0x0 ADD PUSH1 0x0 PUSH2 0x100 EXP DUP2 SLOAD DUP2 PUSH1 0xFF MUL NOT AND SWAP1 DUP4 ISZERO ISZERO MUL OR SWAP1 SSTORE POP JUMP JUMPDEST PUSH1 0x0 DUP1 PUSH1 0x1 SWAP1 POP DUP1 PUSH1 0x2 ADD PUSH1 0x0 SWAP1 SLOAD SWAP1 PUSH2 0x100 EXP SWAP1 DIV PUSH20 0xFFFFFFFFFFFFFFFFFFFFFFFFFFFFFFFFFFFFFFFF AND SWAP2 POP POP SWAP1 JUMP JUMPDEST PUSH1 0x0 DUP1 PUSH1 0x1 SWAP1 POP DUP1 PUSH1 0x0 ADD PUSH1 0x4 SWAP1 SLOAD SWAP1 PUSH2 0x100 EXP SWAP1 DIV PUSH1 0xFF AND SWAP2 POP POP SWAP1 JUMP JUMPDEST PUSH1 0x0 DUP1 PUSH1 0x1 SWAP1 POP DUP1 PUSH1 0x4 ADD PUSH1 0x0 SWAP1 SLOAD SWAP1 PUSH2 0x100 EXP SWAP1 DIV PUSH20 0xFFFFFFFFFFFFFFFFFFFFFFFFFFFFFFFFFFFFFFFF AND SWAP2 POP POP SWAP1 JUMP JUMPDEST PUSH1 0x0 DUP1 PUSH1 0x1 SWAP1 POP DUP1 PUSH1 0x3 ADD PUSH1 0x0 SWAP1 SLOAD SWAP1 PUSH2 0x100 EXP SWAP1 DIV PUSH20 0xFFFFFFFFFFFFFFFFFFFFFFFFFFFFFFFFFFFFFFFF AND SWAP2 POP POP SWAP1 JUMP JUMPDEST PUSH1 0x0 DUP1 SLOAD SWAP1 PUSH2 0x100 EXP SWAP1 DIV PUSH20 0xFFFFFFFFFFFFFFFFFFFFFFFFFFFFFFFFFFFFFFFF AND PUSH20 0xFFFFFFFFFFFFFFFFFFFFFFFFFFFFFFFFFFFFFFFF AND CALLER PUSH20 0xFFFFFFFFFFFFFFFFFFFFFFFFFFFFFFFFFFFFFFFF AND EQ PUSH2 0xEC5 JUMPI PUSH1 0x0 DUP1 REVERT JUMPDEST DUP1 PUSH1 0x1 PUSH1 0xA ADD PUSH1 0x0 PUSH2 0x100 EXP DUP2 SLOAD DUP2 PUSH20 0xFFFFFFFFFFFFFFFFFFFFFFFFFFFFFFFFFFFFFFFF MUL NOT AND SWAP1 DUP4 PUSH20 0xFFFFFFFFFFFFFFFFFFFFFFFFFFFFFFFFFFFFFFFF AND MUL OR SWAP1 SSTORE POP POP JUMP JUMPDEST PUSH1 0x0 DUP1 PUSH1 0x1 SWAP1 POP DUP1 PUSH1 0xA ADD PUSH1 0x0 SWAP1 SLOAD SWAP1 PUSH2 0x100 EXP SWAP1 DIV PUSH20 0xFFFFFFFFFFFFFFFFFFFFFFFFFFFFFFFFFFFFFFFF AND SWAP2 POP POP SWAP1 JUMP JUMPDEST PUSH1 0x0 DUP1 SLOAD SWAP1 PUSH2 0x100 EXP SWAP1 DIV PUSH20 0xFFFFFFFFFFFFFFFFFFFFFFFFFFFFFFFFFFFFFFFF AND PUSH20 0xFFFFFFFFFFFFFFFFFFFFFFFFFFFFFFFFFFFFFFFF AND CALLER PUSH20 0xFFFFFFFFFFFFFFFFFFFFFFFFFFFFFFFFFFFFFFFF AND EQ PUSH2 0xF96 JUMPI PUSH1 0x0 DUP1 REVERT JUMPDEST DUP1 PUSH1 0x1 PUSH1 0x5 ADD PUSH1 0x0 PUSH2 0x100 EXP DUP2 SLOAD DUP2 PUSH20 0xFFFFFFFFFFFFFFFFFFFFFFFFFFFFFFFFFFFFFFFF MUL NOT AND SWAP1 DUP4 PUSH20 0xFFFFFFFFFFFFFFFFFFFFFFFFFFFFFFFFFFFFFFFF AND MUL OR SWAP1 SSTORE POP POP JUMP JUMPDEST PUSH1 0x0 DUP1 SLOAD SWAP1 PUSH2 0x100 EXP SWAP1 DIV PUSH20 0xFFFFFFFFFFFFFFFFFFFFFFFFFFFFFFFFFFFFFFFF AND PUSH20 0xFFFFFFFFFFFFFFFFFFFFFFFFFFFFFFFFFFFFFFFF AND CALLER PUSH20 0xFFFFFFFFFFFFFFFFFFFFFFFFFFFFFFFFFFFFFFFF AND EQ PUSH2 0x1035 JUMPI PUSH1 0x0 DUP1 REVERT JUMPDEST DUP1 PUSH1 0x1 DUP1 ADD PUSH1 0x0 PUSH2 0x100 EXP DUP2 SLOAD DUP2 PUSH20 0xFFFFFFFFFFFFFFFFFFFFFFFFFFFFFFFFFFFFFFFF MUL NOT AND SWAP1 DUP4 PUSH20 0xFFFFFFFFFFFFFFFFFFFFFFFFFFFFFFFFFFFFFFFF AND MUL OR SWAP1 SSTORE POP POP JUMP JUMPDEST PUSH1 0x0 DUP1 SLOAD SWAP1 PUSH2 0x100 EXP SWAP1 DIV PUSH20 0xFFFFFFFFFFFFFFFFFFFFFFFFFFFFFFFFFFFFFFFF AND PUSH20 0xFFFFFFFFFFFFFFFFFFFFFFFFFFFFFFFFFFFFFFFF AND CALLER PUSH20 0xFFFFFFFFFFFFFFFFFFFFFFFFFFFFFFFFFFFFFFFF AND EQ PUSH2 0x10D3 JUMPI PUSH1 0x0 DUP1 REVERT JUMPDEST DUP1 PUSH1 0x1 PUSH1 0x4 ADD PUSH1 0x0 PUSH2 0x100 EXP DUP2 SLOAD DUP2 PUSH20 0xFFFFFFFFFFFFFFFFFFFFFFFFFFFFFFFFFFFFFFFF MUL NOT AND SWAP1 DUP4 PUSH20 0xFFFFFFFFFFFFFFFFFFFFFFFFFFFFFFFFFFFFFFFF AND MUL OR SWAP1 SSTORE POP POP JUMP JUMPDEST PUSH1 0x0 DUP1 PUSH1 0x1 SWAP1 POP DUP1 PUSH1 0x0 ADD PUSH1 0x5 SWAP1 SLOAD SWAP1 PUSH2 0x100 EXP SWAP1 DIV PUSH20 0xFFFFFFFFFFFFFFFFFFFFFFFFFFFFFFFFFFFFFFFF AND SWAP2 POP POP SWAP1 JUMP JUMPDEST PUSH1 0x0 DUP1 SLOAD SWAP1 PUSH2 0x100 EXP SWAP1 DIV PUSH20 0xFFFFFFFFFFFFFFFFFFFFFFFFFFFFFFFFFFFFFFFF AND PUSH20 0xFFFFFFFFFFFFFFFFFFFFFFFFFFFFFFFFFFFFFFFF AND CALLER PUSH20 0xFFFFFFFFFFFFFFFFFFFFFFFFFFFFFFFFFFFFFFFF AND EQ PUSH2 0x11A4 JUMPI PUSH1 0x0 DUP1 REVERT JUMPDEST PUSH1 0x1 PUSH1 0x0 ADD PUSH1 0x1 SWAP1 SLOAD SWAP1 PUSH2 0x100 EXP SWAP1 DIV PUSH1 0xFF AND ISZERO PUSH1 0x1 PUSH1 0x0 ADD PUSH1 0x1 PUSH2 0x100 EXP DUP2 SLOAD DUP2 PUSH1 0xFF MUL NOT AND SWAP1 DUP4 ISZERO ISZERO MUL OR SWAP1 SSTORE POP JUMP JUMPDEST PUSH1 0x0 DUP1 PUSH1 0x1 SWAP1 POP DUP1 PUSH1 0x7 ADD PUSH1 0x0 SWAP1 SLOAD SWAP1 PUSH2 0x100 EXP SWAP1 DIV PUSH20 0xFFFFFFFFFFFFFFFFFFFFFFFFFFFFFFFFFFFFFFFF AND SWAP2 POP POP SWAP1 JUMP JUMPDEST PUSH1 0x0 DUP1 SLOAD SWAP1 PUSH2 0x100 EXP SWAP1 DIV PUSH20 0xFFFFFFFFFFFFFFFFFFFFFFFFFFFFFFFFFFFFFFFF AND PUSH20 0xFFFFFFFFFFFFFFFFFFFFFFFFFFFFFFFFFFFFFFFF AND CALLER PUSH20 0xFFFFFFFFFFFFFFFFFFFFFFFFFFFFFFFFFFFFFFFF AND EQ PUSH2 0x1260 JUMPI PUSH1 0x0 DUP1 REVERT JUMPDEST DUP1 PUSH1 0x1 PUSH1 0x3 ADD PUSH1 0x0 PUSH2 0x100 EXP DUP2 SLOAD DUP2 PUSH20 0xFFFFFFFFFFFFFFFFFFFFFFFFFFFFFFFFFFFFFFFF MUL NOT AND SWAP1 DUP4 PUSH20 0xFFFFFFFFFFFFFFFFFFFFFFFFFFFFFFFFFFFFFFFF AND MUL OR SWAP1 SSTORE POP POP JUMP JUMPDEST PUSH1 0x0 DUP1 REVERT JUMPDEST PUSH1 0x0 PUSH20 0xFFFFFFFFFFFFFFFFFFFFFFFFFFFFFFFFFFFFFFFF DUP3 AND SWAP1 POP SWAP2 SWAP1 POP JUMP JUMPDEST PUSH1 0x0 PUSH2 0x12D7 DUP3 PUSH2 0x12AC JUMP JUMPDEST SWAP1 POP SWAP2 SWAP1 POP JUMP JUMPDEST PUSH2 0x12E7 DUP2 PUSH2 0x12CC JUMP JUMPDEST DUP2 EQ PUSH2 0x12F2 JUMPI PUSH1 0x0 DUP1 REVERT JUMPDEST POP JUMP JUMPDEST PUSH1 0x0 DUP2 CALLDATALOAD SWAP1 POP PUSH2 0x1304 DUP2 PUSH2 0x12DE JUMP JUMPDEST SWAP3 SWAP2 POP POP JUMP JUMPDEST PUSH1 0x0 PUSH1 0x20 DUP3 DUP5 SUB SLT ISZERO PUSH2 0x1320 JUMPI PUSH2 0x131F PUSH2 0x12A7 JUMP JUMPDEST JUMPDEST PUSH1 0x0 PUSH2 0x132E DUP5 DUP3 DUP6 ADD PUSH2 0x12F5 JUMP JUMPDEST SWAP2 POP POP SWAP3 SWAP2 POP POP JUMP JUMPDEST PUSH2 0x1340 DUP2 PUSH2 0x12CC JUMP JUMPDEST DUP3 MSTORE POP POP JUMP JUMPDEST PUSH1 0x0 PUSH1 0x20 DUP3 ADD SWAP1 POP PUSH2 0x135B PUSH1 0x0 DUP4 ADD DUP5 PUSH2 0x1337 JUMP JUMPDEST SWAP3 SWAP2 POP POP JUMP JUMPDEST PUSH1 0x0 DUP2 ISZERO ISZERO SWAP1 POP SWAP2 SWAP1 POP JUMP JUMPDEST PUSH2 0x1376 DUP2 PUSH2 0x1361 JUMP JUMPDEST DUP3 MSTORE POP POP JUMP JUMPDEST PUSH1 0x0 PUSH1 0x20 DUP3 ADD SWAP1 POP PUSH2 0x1391 PUSH1 0x0 DUP4 ADD DUP5 PUSH2 0x136D JUMP JUMPDEST SWAP3 SWAP2 POP POP JUMP INVALID LOG2 PUSH5 0x6970667358 0x22 SLT KECCAK256 0xFC SWAP15 0xE7 0xB9 0xFB STATICCALL 0xC5 0xEA 0xE3 PUSH24 0x28469F8D38304D0B3661BF50EA57303E21C89187D7106473 PUSH16 0x6C634300081000330000000000000000 "
				},
				"gasEstimates": {
					"creation": {
						"codeDepositCost": "1013800",
						"executionCost": "414445",
						"totalCost": "1428245"
					},
					"external": {
						"gameprofitsExperimentSettings()": "2631",
						"gameprofitsFairPlaySettings()": "2632",
						"gameprofitsFairSoulsActSettings()": "2630",
						"gameprofitsFairValueSettings()": "2629",
						"gameprofitsGoverenenceSettings()": "2653",
						"gameprofitsIchoroniumTableSettings()": "2630",
						"gameprofitsMasterVideoGamesSettings()": "2586",
						"gameprofitsMetaVerseSettings()": "2608",
						"gameprofitsMetaVerseUniverseItems()": "2609",
						"gameprofitsPremiumExchangeTraderSettings()": "2610",
						"gameprofitsfinanceSettings()": "2635",
						"isgameNetworkActive()": "2611",
						"isgamesAreCoolingDown()": "2594",
						"isgamesAreDeactivated()": "2660",
						"isgamesAreOn()": "2594",
						"isgamesKillSwitch()": "2593",
						"switchgameNetworkActive()": "28819",
						"switchgameprofitsExperimentSettings(address)": "26984",
						"switchgameprofitsFairPlaySettings(address)": "27007",
						"switchgameprofitsFairSoulsActSettings(address)": "27006",
						"switchgameprofitsFairValueSettings(address)": "26962",
						"switchgameprofitsGoverenenceSettings(address)": "26942",
						"switchgameprofitsIchoroniumTableSettings(address)": "27005",
						"switchgameprofitsMasterVideoGamesSettings(address)": "27006",
						"switchgameprofitsMetaVerseSettings(address)": "27006",
						"switchgameprofitsMetaVerseUniverseItems(address)": "26962",
						"switchgameprofitsPremiumExchangeTraderSettings(address)": "26940",
						"switchgameprofitsfinanceSettings(address)": "27013",
						"switchgamesAreCoolingDown()": "28875",
						"switchgamesAreDeactivated()": "28897",
						"switchgamesAreOn()": "28895",
						"switchgamesKillSwitch()": "106343"
					}
				},
				"methodIdentifiers": {
					"gameprofitsExperimentSettings()": "50b8f5eb",
					"gameprofitsFairPlaySettings()": "1c7ac31b",
					"gameprofitsFairSoulsActSettings()": "6ae73038",
					"gameprofitsFairValueSettings()": "e2c6cc7a",
					"gameprofitsGoverenenceSettings()": "8991e441",
					"gameprofitsIchoroniumTableSettings()": "97cf27b8",
					"gameprofitsMasterVideoGamesSettings()": "a87a86aa",
					"gameprofitsMetaVerseSettings()": "94d5bdff",
					"gameprofitsMetaVerseUniverseItems()": "4a2690b9",
					"gameprofitsPremiumExchangeTraderSettings()": "0d19de6f",
					"gameprofitsfinanceSettings()": "c461089c",
					"isgameNetworkActive()": "1dd28782",
					"isgamesAreCoolingDown()": "1fae9693",
					"isgamesAreDeactivated()": "52bac077",
					"isgamesAreOn()": "49e8216a",
					"isgamesKillSwitch()": "941e32b6",
					"switchgameNetworkActive()": "88f8a9a3",
					"switchgameprofitsExperimentSettings(address)": "ba08d5e1",
					"switchgameprofitsFairPlaySettings(address)": "41daf6ba",
					"switchgameprofitsFairSoulsActSettings(address)": "79f760a7",
					"switchgameprofitsFairValueSettings(address)": "5d246bad",
					"switchgameprofitsGoverenenceSettings(address)": "097ee368",
					"switchgameprofitsIchoroniumTableSettings(address)": "fa0d08ec",
					"switchgameprofitsMasterVideoGamesSettings(address)": "a775088b",
					"switchgameprofitsMetaVerseSettings(address)": "c1b2456d",
					"switchgameprofitsMetaVerseUniverseItems(address)": "b985accb",
					"switchgameprofitsPremiumExchangeTraderSettings(address)": "54584199",
					"switchgameprofitsfinanceSettings(address)": "860249e4",
					"switchgamesAreCoolingDown()": "7a22890a",
					"switchgamesAreDeactivated()": "35d355ab",
					"switchgamesAreOn()": "d2871723",
					"switchgamesKillSwitch()": "3c49c63e"
				}
			},
			"storageLayout": {
				"storage": [
					{
						"astId": 3,
						"contract": "gameprofits-galactic-spdgcs-contracts/governence/gameProfitsGalacticNetworkSettings.sol:gameprofitsGalacticNetworkSettings",
						"label": "owner",
						"offset": 0,
						"slot": "0",
						"type": "t_address"
					},
					{
						"astId": 57,
						"contract": "gameprofits-galactic-spdgcs-contracts/governence/gameProfitsGalacticNetworkSettings.sol:gameprofitsGalacticNetworkSettings",
						"label": "gameprofitsNetworkSettings",
						"offset": 0,
						"slot": "1",
						"type": "t_struct(gameprofitsSettings)36_storage"
					}
				],
				"types": {
					"t_address": {
						"encoding": "inplace",
						"label": "address",
						"numberOfBytes": "20"
					},
					"t_bool": {
						"encoding": "inplace",
						"label": "bool",
						"numberOfBytes": "1"
					},
					"t_struct(gameprofitsSettings)36_storage": {
						"encoding": "inplace",
						"label": "struct gameprofitsGalacticNetworkSettings.gameprofitsSettings",
						"members": [
							{
								"astId": 5,
								"contract": "gameprofits-galactic-spdgcs-contracts/governence/gameProfitsGalacticNetworkSettings.sol:gameprofitsGalacticNetworkSettings",
								"label": "gameNetworkActive",
								"offset": 0,
								"slot": "0",
								"type": "t_bool"
							},
							{
								"astId": 7,
								"contract": "gameprofits-galactic-spdgcs-contracts/governence/gameProfitsGalacticNetworkSettings.sol:gameprofitsGalacticNetworkSettings",
								"label": "gamesAreOn",
								"offset": 1,
								"slot": "0",
								"type": "t_bool"
							},
							{
								"astId": 9,
								"contract": "gameprofits-galactic-spdgcs-contracts/governence/gameProfitsGalacticNetworkSettings.sol:gameprofitsGalacticNetworkSettings",
								"label": "gamesAreDeactivated",
								"offset": 2,
								"slot": "0",
								"type": "t_bool"
							},
							{
								"astId": 11,
								"contract": "gameprofits-galactic-spdgcs-contracts/governence/gameProfitsGalacticNetworkSettings.sol:gameprofitsGalacticNetworkSettings",
								"label": "gamesAreCoolingDown",
								"offset": 3,
								"slot": "0",
								"type": "t_bool"
							},
							{
								"astId": 13,
								"contract": "gameprofits-galactic-spdgcs-contracts/governence/gameProfitsGalacticNetworkSettings.sol:gameprofitsGalacticNetworkSettings",
								"label": "gamesKillSwitch",
								"offset": 4,
								"slot": "0",
								"type": "t_bool"
							},
							{
								"astId": 15,
								"contract": "gameprofits-galactic-spdgcs-contracts/governence/gameProfitsGalacticNetworkSettings.sol:gameprofitsGalacticNetworkSettings",
								"label": "gameprofitsfinanceSettings",
								"offset": 5,
								"slot": "0",
								"type": "t_address"
							},
							{
								"astId": 17,
								"contract": "gameprofits-galactic-spdgcs-contracts/governence/gameProfitsGalacticNetworkSettings.sol:gameprofitsGalacticNetworkSettings",
								"label": "gameprofitsExperimentSettings",
								"offset": 0,
								"slot": "1",
								"type": "t_address"
							},
							{
								"astId": 19,
								"contract": "gameprofits-galactic-spdgcs-contracts/governence/gameProfitsGalacticNetworkSettings.sol:gameprofitsGalacticNetworkSettings",
								"label": "gameprofitsGoverenenceSettings",
								"offset": 0,
								"slot": "2",
								"type": "t_address"
							},
							{
								"astId": 21,
								"contract": "gameprofits-galactic-spdgcs-contracts/governence/gameProfitsGalacticNetworkSettings.sol:gameprofitsGalacticNetworkSettings",
								"label": "gameprofitsIchoroniumTableSettings",
								"offset": 0,
								"slot": "3",
								"type": "t_address"
							},
							{
								"astId": 23,
								"contract": "gameprofits-galactic-spdgcs-contracts/governence/gameProfitsGalacticNetworkSettings.sol:gameprofitsGalacticNetworkSettings",
								"label": "gameprofitsMetaVerseSettings",
								"offset": 0,
								"slot": "4",
								"type": "t_address"
							},
							{
								"astId": 25,
								"contract": "gameprofits-galactic-spdgcs-contracts/governence/gameProfitsGalacticNetworkSettings.sol:gameprofitsGalacticNetworkSettings",
								"label": "gameprofitsMetaVerseUniverseItems",
								"offset": 0,
								"slot": "5",
								"type": "t_address"
							},
							{
								"astId": 27,
								"contract": "gameprofits-galactic-spdgcs-contracts/governence/gameProfitsGalacticNetworkSettings.sol:gameprofitsGalacticNetworkSettings",
								"label": "gameprofitsFairPlaySettings",
								"offset": 0,
								"slot": "6",
								"type": "t_address"
							},
							{
								"astId": 29,
								"contract": "gameprofits-galactic-spdgcs-contracts/governence/gameProfitsGalacticNetworkSettings.sol:gameprofitsGalacticNetworkSettings",
								"label": "gameprofitsFairValueSettings",
								"offset": 0,
								"slot": "7",
								"type": "t_address"
							},
							{
								"astId": 31,
								"contract": "gameprofits-galactic-spdgcs-contracts/governence/gameProfitsGalacticNetworkSettings.sol:gameprofitsGalacticNetworkSettings",
								"label": "gameprofitsFairSoulsActSettings",
								"offset": 0,
								"slot": "8",
								"type": "t_address"
							},
							{
								"astId": 33,
								"contract": "gameprofits-galactic-spdgcs-contracts/governence/gameProfitsGalacticNetworkSettings.sol:gameprofitsGalacticNetworkSettings",
								"label": "gameprofitsPremiumExchangeTraderSettings",
								"offset": 0,
								"slot": "9",
								"type": "t_address"
							},
							{
								"astId": 35,
								"contract": "gameprofits-galactic-spdgcs-contracts/governence/gameProfitsGalacticNetworkSettings.sol:gameprofitsGalacticNetworkSettings",
								"label": "gameprofitsMasterVideoGamesSettings",
								"offset": 0,
								"slot": "10",
								"type": "t_address"
							}
						],
						"numberOfBytes": "352"
					}
				}
			},
			"userdoc": {
				"kind": "user",
				"methods": {},
				"version": 1
			}
		}
	}
}