{
	"gameprofits-galactic-spdgcs-contracts/governence/gameProfitsGalacticNetworkSettings.sol": {
		"gameprofitsGalacticNetworkSettings": {
			"abi": [
				{
					"inputs": [],
					"stateMutability": "nonpayable",
					"type": "constructor"
				},
				{
					"inputs": [],
					"name": "gameprofitsExperimentSettings",
					"outputs": [
						{
							"internalType": "address",
							"name": "",
							"type": "address"
						}
					],
					"stateMutability": "view",
					"type": "function"
				},
				{
					"inputs": [],
					"name": "gameprofitsFairPlaySettings",
					"outputs": [
						{
							"internalType": "address",
							"name": "",
							"type": "address"
						}
					],
					"stateMutability": "view",
					"type": "function"
				},
				{
					"inputs": [],
					"name": "gameprofitsFairSoulsActSettings",
					"outputs": [
						{
							"internalType": "address",
							"name": "",
							"type": "address"
						}
					],
					"stateMutability": "view",
					"type": "function"
				},
				{
					"inputs": [],
					"name": "gameprofitsFairValueSettings",
					"outputs": [
						{
							"internalType": "address",
							"name": "",
							"type": "address"
						}
					],
					"stateMutability": "view",
					"type": "function"
				},
				{
					"inputs": [],
					"name": "gameprofitsGoverenenceSettings",
					"outputs": [
						{
							"internalType": "address",
							"name": "",
							"type": "address"
						}
					],
					"stateMutability": "view",
					"type": "function"
				},
				{
					"inputs": [],
					"name": "gameprofitsIchoroniumTableSettings",
					"outputs": [
						{
							"internalType": "address",
							"name": "",
							"type": "address"
						}
					],
					"stateMutability": "view",
					"type": "function"
				},
				{
					"inputs": [],
					"name": "gameprofitsMasterVideoGamesSettings",
					"outputs": [
						{
							"internalType": "address",
							"name": "",
							"type": "address"
						}
					],
					"stateMutability": "view",
					"type": "function"
				},
				{
					"inputs": [],
					"name": "gameprofitsMetaVerseSettings",
					"outputs": [
						{
							"internalType": "address",
							"name": "",
							"type": "address"
						}
					],
					"stateMutability": "view",
					"type": "function"
				},
				{
					"inputs": [],
					"name": "gameprofitsMetaVerseUniverseItems",
					"outputs": [
						{
							"internalType": "address",
							"name": "",
							"type": "address"
						}
					],
					"stateMutability": "view",
					"type": "function"
				},
				{
					"inputs": [],
					"name": "gameprofitsPremiumExchangeTraderSettings",
					"outputs": [
						{
							"internalType": "address",
							"name": "",
							"type": "address"
						}
					],
					"stateMutability": "view",
					"type": "function"
				},
				{
					"inputs": [],
					"name": "gameprofitsfinanceSettings",
					"outputs": [
						{
							"internalType": "address",
							"name": "",
							"type": "address"
						}
					],
					"stateMutability": "view",
					"type": "function"
				},
				{
					"inputs": [],
					"name": "isgameNetworkActive",
					"outputs": [
						{
							"internalType": "bool",
							"name": "",
							"type": "bool"
						}
					],
					"stateMutability": "view",
					"type": "function"
				},
				{
					"inputs": [],
					"name": "isgamesAreCoolingDown",
					"outputs": [
						{
							"internalType": "bool",
							"name": "",
							"type": "bool"
						}
					],
					"stateMutability": "view",
					"type": "function"
				},
				{
					"inputs": [],
					"name": "isgamesAreDeactivated",
					"outputs": [
						{
							"internalType": "bool",
							"name": "",
							"type": "bool"
						}
					],
					"stateMutability": "view",
					"type": "function"
				},
				{
					"inputs": [],
					"name": "isgamesAreOn",
					"outputs": [
						{
							"internalType": "bool",
							"name": "",
							"type": "bool"
						}
					],
					"stateMutability": "view",
					"type": "function"
				},
				{
					"inputs": [],
					"name": "isgamesKillSwitch",
					"outputs": [
						{
							"internalType": "bool",
							"name": "",
							"type": "bool"
						}
					],
					"stateMutability": "view",
					"type": "function"
				},
				{
					"inputs": [],
					"name": "switchgameNetworkActive",
					"outputs": [],
					"stateMutability": "nonpayable",
					"type": "function"
				},
				{
					"inputs": [
						{
							"internalType": "address",
							"name": "newSetting",
							"type": "address"
						}
					],
					"name": "switchgameprofitsfinanceSettings",
					"outputs": [],
					"stateMutability": "nonpayable",
					"type": "function"
				},
				{
					"inputs": [],
					"name": "switchgamesAreCoolingDown",
					"outputs": [],
					"stateMutability": "nonpayable",
					"type": "function"
				},
				{
					"inputs": [],
					"name": "switchgamesAreDeactivated",
					"outputs": [],
					"stateMutability": "nonpayable",
					"type": "function"
				},
				{
					"inputs": [],
					"name": "switchgamesAreOn",
					"outputs": [],
					"stateMutability": "nonpayable",
					"type": "function"
				},
				{
					"inputs": [],
					"name": "switchgamesKillSwitch",
					"outputs": [],
					"stateMutability": "nonpayable",
					"type": "function"
				}
			],
			"devdoc": {
				"kind": "dev",
				"methods": {},
				"version": 1
			},
			"evm": {
				"assembly": "    /* \"gameprofits-galactic-spdgcs-contracts/governence/gameProfitsGalacticNetworkSettings.sol\":87:7455  contract gameprofitsGalacticNetworkSettings {... */\n  mstore(0x40, 0x80)\n    /* \"gameprofits-galactic-spdgcs-contracts/governence/gameProfitsGalacticNetworkSettings.sol\":822:1345  gameprofitsSettings(false,false,false,false,false,0x0000000000000000000000000000000000000000,0x0000000000000000000000000000000000000000,0x0000000000000000000000000000000000000000,0x0000000000000000000000000000000000000000,0x0000000000000000000000000000000000000000,0x0000000000000000000000000000000000000000,0x0000000000000000000000000000000000000000,0x0000000000000000000000000000000000000000,0x0000000000000000000000000000000000000000,0x0000000000000000000000000000000000000000,0x0000000000000000000000000000000000000000) */\n  mload(0x40)\n  dup1\n  0x0200\n  add\n  0x40\n  mstore\n  dup1\n    /* \"gameprofits-galactic-spdgcs-contracts/governence/gameProfitsGalacticNetworkSettings.sol\":842:847  false */\n  0x00\n    /* \"gameprofits-galactic-spdgcs-contracts/governence/gameProfitsGalacticNetworkSettings.sol\":822:1345  gameprofitsSettings(false,false,false,false,false,0x0000000000000000000000000000000000000000,0x0000000000000000000000000000000000000000,0x0000000000000000000000000000000000000000,0x0000000000000000000000000000000000000000,0x0000000000000000000000000000000000000000,0x0000000000000000000000000000000000000000,0x0000000000000000000000000000000000000000,0x0000000000000000000000000000000000000000,0x0000000000000000000000000000000000000000,0x0000000000000000000000000000000000000000,0x0000000000000000000000000000000000000000) */\n  iszero\n  iszero\n  dup2\n  mstore\n  0x20\n  add\n    /* \"gameprofits-galactic-spdgcs-contracts/governence/gameProfitsGalacticNetworkSettings.sol\":848:853  false */\n  0x00\n    /* \"gameprofits-galactic-spdgcs-contracts/governence/gameProfitsGalacticNetworkSettings.sol\":822:1345  gameprofitsSettings(false,false,false,false,false,0x0000000000000000000000000000000000000000,0x0000000000000000000000000000000000000000,0x0000000000000000000000000000000000000000,0x0000000000000000000000000000000000000000,0x0000000000000000000000000000000000000000,0x0000000000000000000000000000000000000000,0x0000000000000000000000000000000000000000,0x0000000000000000000000000000000000000000,0x0000000000000000000000000000000000000000,0x0000000000000000000000000000000000000000,0x0000000000000000000000000000000000000000) */\n  iszero\n  iszero\n  dup2\n  mstore\n  0x20\n  add\n    /* \"gameprofits-galactic-spdgcs-contracts/governence/gameProfitsGalacticNetworkSettings.sol\":854:859  false */\n  0x00\n    /* \"gameprofits-galactic-spdgcs-contracts/governence/gameProfitsGalacticNetworkSettings.sol\":822:1345  gameprofitsSettings(false,false,false,false,false,0x0000000000000000000000000000000000000000,0x0000000000000000000000000000000000000000,0x0000000000000000000000000000000000000000,0x0000000000000000000000000000000000000000,0x0000000000000000000000000000000000000000,0x0000000000000000000000000000000000000000,0x0000000000000000000000000000000000000000,0x0000000000000000000000000000000000000000,0x0000000000000000000000000000000000000000,0x0000000000000000000000000000000000000000,0x0000000000000000000000000000000000000000) */\n  iszero\n  iszero\n  dup2\n  mstore\n  0x20\n  add\n    /* \"gameprofits-galactic-spdgcs-contracts/governence/gameProfitsGalacticNetworkSettings.sol\":860:865  false */\n  0x00\n    /* \"gameprofits-galactic-spdgcs-contracts/governence/gameProfitsGalacticNetworkSettings.sol\":822:1345  gameprofitsSettings(false,false,false,false,false,0x0000000000000000000000000000000000000000,0x0000000000000000000000000000000000000000,0x0000000000000000000000000000000000000000,0x0000000000000000000000000000000000000000,0x0000000000000000000000000000000000000000,0x0000000000000000000000000000000000000000,0x0000000000000000000000000000000000000000,0x0000000000000000000000000000000000000000,0x0000000000000000000000000000000000000000,0x0000000000000000000000000000000000000000,0x0000000000000000000000000000000000000000) */\n  iszero\n  iszero\n  dup2\n  mstore\n  0x20\n  add\n    /* \"gameprofits-galactic-spdgcs-contracts/governence/gameProfitsGalacticNetworkSettings.sol\":866:871  false */\n  0x00\n    /* \"gameprofits-galactic-spdgcs-contracts/governence/gameProfitsGalacticNetworkSettings.sol\":822:1345  gameprofitsSettings(false,false,false,false,false,0x0000000000000000000000000000000000000000,0x0000000000000000000000000000000000000000,0x0000000000000000000000000000000000000000,0x0000000000000000000000000000000000000000,0x0000000000000000000000000000000000000000,0x0000000000000000000000000000000000000000,0x0000000000000000000000000000000000000000,0x0000000000000000000000000000000000000000,0x0000000000000000000000000000000000000000,0x0000000000000000000000000000000000000000,0x0000000000000000000000000000000000000000) */\n  iszero\n  iszero\n  dup2\n  mstore\n  0x20\n  add\n    /* \"gameprofits-galactic-spdgcs-contracts/governence/gameProfitsGalacticNetworkSettings.sol\":872:914  0x0000000000000000000000000000000000000000 */\n  0x00\n    /* \"gameprofits-galactic-spdgcs-contracts/governence/gameProfitsGalacticNetworkSettings.sol\":822:1345  gameprofitsSettings(false,false,false,false,false,0x0000000000000000000000000000000000000000,0x0000000000000000000000000000000000000000,0x0000000000000000000000000000000000000000,0x0000000000000000000000000000000000000000,0x0000000000000000000000000000000000000000,0x0000000000000000000000000000000000000000,0x0000000000000000000000000000000000000000,0x0000000000000000000000000000000000000000,0x0000000000000000000000000000000000000000,0x0000000000000000000000000000000000000000,0x0000000000000000000000000000000000000000) */\n  0xffffffffffffffffffffffffffffffffffffffff\n  and\n  dup2\n  mstore\n  0x20\n  add\n    /* \"gameprofits-galactic-spdgcs-contracts/governence/gameProfitsGalacticNetworkSettings.sol\":915:957  0x0000000000000000000000000000000000000000 */\n  0x00\n    /* \"gameprofits-galactic-spdgcs-contracts/governence/gameProfitsGalacticNetworkSettings.sol\":822:1345  gameprofitsSettings(false,false,false,false,false,0x0000000000000000000000000000000000000000,0x0000000000000000000000000000000000000000,0x0000000000000000000000000000000000000000,0x0000000000000000000000000000000000000000,0x0000000000000000000000000000000000000000,0x0000000000000000000000000000000000000000,0x0000000000000000000000000000000000000000,0x0000000000000000000000000000000000000000,0x0000000000000000000000000000000000000000,0x0000000000000000000000000000000000000000,0x0000000000000000000000000000000000000000) */\n  0xffffffffffffffffffffffffffffffffffffffff\n  and\n  dup2\n  mstore\n  0x20\n  add\n    /* \"gameprofits-galactic-spdgcs-contracts/governence/gameProfitsGalacticNetworkSettings.sol\":958:1000  0x0000000000000000000000000000000000000000 */\n  0x00\n    /* \"gameprofits-galactic-spdgcs-contracts/governence/gameProfitsGalacticNetworkSettings.sol\":822:1345  gameprofitsSettings(false,false,false,false,false,0x0000000000000000000000000000000000000000,0x0000000000000000000000000000000000000000,0x0000000000000000000000000000000000000000,0x0000000000000000000000000000000000000000,0x0000000000000000000000000000000000000000,0x0000000000000000000000000000000000000000,0x0000000000000000000000000000000000000000,0x0000000000000000000000000000000000000000,0x0000000000000000000000000000000000000000,0x0000000000000000000000000000000000000000,0x0000000000000000000000000000000000000000) */\n  0xffffffffffffffffffffffffffffffffffffffff\n  and\n  dup2\n  mstore\n  0x20\n  add\n    /* \"gameprofits-galactic-spdgcs-contracts/governence/gameProfitsGalacticNetworkSettings.sol\":1001:1043  0x0000000000000000000000000000000000000000 */\n  0x00\n    /* \"gameprofits-galactic-spdgcs-contracts/governence/gameProfitsGalacticNetworkSettings.sol\":822:1345  gameprofitsSettings(false,false,false,false,false,0x0000000000000000000000000000000000000000,0x0000000000000000000000000000000000000000,0x0000000000000000000000000000000000000000,0x0000000000000000000000000000000000000000,0x0000000000000000000000000000000000000000,0x0000000000000000000000000000000000000000,0x0000000000000000000000000000000000000000,0x0000000000000000000000000000000000000000,0x0000000000000000000000000000000000000000,0x0000000000000000000000000000000000000000,0x0000000000000000000000000000000000000000) */\n  0xffffffffffffffffffffffffffffffffffffffff\n  and\n  dup2\n  mstore\n  0x20\n  add\n    /* \"gameprofits-galactic-spdgcs-contracts/governence/gameProfitsGalacticNetworkSettings.sol\":1044:1086  0x0000000000000000000000000000000000000000 */\n  0x00\n    /* \"gameprofits-galactic-spdgcs-contracts/governence/gameProfitsGalacticNetworkSettings.sol\":822:1345  gameprofitsSettings(false,false,false,false,false,0x0000000000000000000000000000000000000000,0x0000000000000000000000000000000000000000,0x0000000000000000000000000000000000000000,0x0000000000000000000000000000000000000000,0x0000000000000000000000000000000000000000,0x0000000000000000000000000000000000000000,0x0000000000000000000000000000000000000000,0x0000000000000000000000000000000000000000,0x0000000000000000000000000000000000000000,0x0000000000000000000000000000000000000000,0x0000000000000000000000000000000000000000) */\n  0xffffffffffffffffffffffffffffffffffffffff\n  and\n  dup2\n  mstore\n  0x20\n  add\n    /* \"gameprofits-galactic-spdgcs-contracts/governence/gameProfitsGalacticNetworkSettings.sol\":1087:1129  0x0000000000000000000000000000000000000000 */\n  0x00\n    /* \"gameprofits-galactic-spdgcs-contracts/governence/gameProfitsGalacticNetworkSettings.sol\":822:1345  gameprofitsSettings(false,false,false,false,false,0x0000000000000000000000000000000000000000,0x0000000000000000000000000000000000000000,0x0000000000000000000000000000000000000000,0x0000000000000000000000000000000000000000,0x0000000000000000000000000000000000000000,0x0000000000000000000000000000000000000000,0x0000000000000000000000000000000000000000,0x0000000000000000000000000000000000000000,0x0000000000000000000000000000000000000000,0x0000000000000000000000000000000000000000,0x0000000000000000000000000000000000000000) */\n  0xffffffffffffffffffffffffffffffffffffffff\n  and\n  dup2\n  mstore\n  0x20\n  add\n    /* \"gameprofits-galactic-spdgcs-contracts/governence/gameProfitsGalacticNetworkSettings.sol\":1130:1172  0x0000000000000000000000000000000000000000 */\n  0x00\n    /* \"gameprofits-galactic-spdgcs-contracts/governence/gameProfitsGalacticNetworkSettings.sol\":822:1345  gameprofitsSettings(false,false,false,false,false,0x0000000000000000000000000000000000000000,0x0000000000000000000000000000000000000000,0x0000000000000000000000000000000000000000,0x0000000000000000000000000000000000000000,0x0000000000000000000000000000000000000000,0x0000000000000000000000000000000000000000,0x0000000000000000000000000000000000000000,0x0000000000000000000000000000000000000000,0x0000000000000000000000000000000000000000,0x0000000000000000000000000000000000000000,0x0000000000000000000000000000000000000000) */\n  0xffffffffffffffffffffffffffffffffffffffff\n  and\n  dup2\n  mstore\n  0x20\n  add\n    /* \"gameprofits-galactic-spdgcs-contracts/governence/gameProfitsGalacticNetworkSettings.sol\":1173:1215  0x0000000000000000000000000000000000000000 */\n  0x00\n    /* \"gameprofits-galactic-spdgcs-contracts/governence/gameProfitsGalacticNetworkSettings.sol\":822:1345  gameprofitsSettings(false,false,false,false,false,0x0000000000000000000000000000000000000000,0x0000000000000000000000000000000000000000,0x0000000000000000000000000000000000000000,0x0000000000000000000000000000000000000000,0x0000000000000000000000000000000000000000,0x0000000000000000000000000000000000000000,0x0000000000000000000000000000000000000000,0x0000000000000000000000000000000000000000,0x0000000000000000000000000000000000000000,0x0000000000000000000000000000000000000000,0x0000000000000000000000000000000000000000) */\n  0xffffffffffffffffffffffffffffffffffffffff\n  and\n  dup2\n  mstore\n  0x20\n  add\n    /* \"gameprofits-galactic-spdgcs-contracts/governence/gameProfitsGalacticNetworkSettings.sol\":1216:1258  0x0000000000000000000000000000000000000000 */\n  0x00\n    /* \"gameprofits-galactic-spdgcs-contracts/governence/gameProfitsGalacticNetworkSettings.sol\":822:1345  gameprofitsSettings(false,false,false,false,false,0x0000000000000000000000000000000000000000,0x0000000000000000000000000000000000000000,0x0000000000000000000000000000000000000000,0x0000000000000000000000000000000000000000,0x0000000000000000000000000000000000000000,0x0000000000000000000000000000000000000000,0x0000000000000000000000000000000000000000,0x0000000000000000000000000000000000000000,0x0000000000000000000000000000000000000000,0x0000000000000000000000000000000000000000,0x0000000000000000000000000000000000000000) */\n  0xffffffffffffffffffffffffffffffffffffffff\n  and\n  dup2\n  mstore\n  0x20\n  add\n    /* \"gameprofits-galactic-spdgcs-contracts/governence/gameProfitsGalacticNetworkSettings.sol\":1259:1301  0x0000000000000000000000000000000000000000 */\n  0x00\n    /* \"gameprofits-galactic-spdgcs-contracts/governence/gameProfitsGalacticNetworkSettings.sol\":822:1345  gameprofitsSettings(false,false,false,false,false,0x0000000000000000000000000000000000000000,0x0000000000000000000000000000000000000000,0x0000000000000000000000000000000000000000,0x0000000000000000000000000000000000000000,0x0000000000000000000000000000000000000000,0x0000000000000000000000000000000000000000,0x0000000000000000000000000000000000000000,0x0000000000000000000000000000000000000000,0x0000000000000000000000000000000000000000,0x0000000000000000000000000000000000000000,0x0000000000000000000000000000000000000000) */\n  0xffffffffffffffffffffffffffffffffffffffff\n  and\n  dup2\n  mstore\n  0x20\n  add\n    /* \"gameprofits-galactic-spdgcs-contracts/governence/gameProfitsGalacticNetworkSettings.sol\":1302:1344  0x0000000000000000000000000000000000000000 */\n  0x00\n    /* \"gameprofits-galactic-spdgcs-contracts/governence/gameProfitsGalacticNetworkSettings.sol\":822:1345  gameprofitsSettings(false,false,false,false,false,0x0000000000000000000000000000000000000000,0x0000000000000000000000000000000000000000,0x0000000000000000000000000000000000000000,0x0000000000000000000000000000000000000000,0x0000000000000000000000000000000000000000,0x0000000000000000000000000000000000000000,0x0000000000000000000000000000000000000000,0x0000000000000000000000000000000000000000,0x0000000000000000000000000000000000000000,0x0000000000000000000000000000000000000000,0x0000000000000000000000000000000000000000) */\n  0xffffffffffffffffffffffffffffffffffffffff\n  and\n  dup2\n  mstore\n  pop\n    /* \"gameprofits-galactic-spdgcs-contracts/governence/gameProfitsGalacticNetworkSettings.sol\":772:1345  gameprofitsSettings  gameprofitsNetworkSettings = gameprofitsSettings(false,false,false,false,false,0x0000000000000000000000000000000000000000,0x0000000000000000000000000000000000000000,0x0000000000000000000000000000000000000000,0x0000000000000000000000000000000000000000,0x0000000000000000000000000000000000000000,0x0000000000000000000000000000000000000000,0x0000000000000000000000000000000000000000,0x0000000000000000000000000000000000000000,0x0000000000000000000000000000000000000000,0x0000000000000000000000000000000000000000,0x0000000000000000000000000000000000000000) */\n  0x01\n  0x00\n  dup3\n  add\n  mload\n  dup2\n  0x00\n  add\n  exp(0x0100, 0x00)\n  dup2\n  sload\n  dup2\n  0xff\n  mul\n  not\n  and\n  swap1\n  dup4\n  iszero\n  iszero\n  mul\n  or\n  swap1\n  sstore\n  pop\n  0x20\n  dup3\n  add\n  mload\n  dup2\n  0x00\n  add\n  exp(0x0100, 0x01)\n  dup2\n  sload\n  dup2\n  0xff\n  mul\n  not\n  and\n  swap1\n  dup4\n  iszero\n  iszero\n  mul\n  or\n  swap1\n  sstore\n  pop\n  0x40\n  dup3\n  add\n  mload\n  dup2\n  0x00\n  add\n  exp(0x0100, 0x02)\n  dup2\n  sload\n  dup2\n  0xff\n  mul\n  not\n  and\n  swap1\n  dup4\n  iszero\n  iszero\n  mul\n  or\n  swap1\n  sstore\n  pop\n  0x60\n  dup3\n  add\n  mload\n  dup2\n  0x00\n  add\n  exp(0x0100, 0x03)\n  dup2\n  sload\n  dup2\n  0xff\n  mul\n  not\n  and\n  swap1\n  dup4\n  iszero\n  iszero\n  mul\n  or\n  swap1\n  sstore\n  pop\n  0x80\n  dup3\n  add\n  mload\n  dup2\n  0x00\n  add\n  exp(0x0100, 0x04)\n  dup2\n  sload\n  dup2\n  0xff\n  mul\n  not\n  and\n  swap1\n  dup4\n  iszero\n  iszero\n  mul\n  or\n  swap1\n  sstore\n  pop\n  0xa0\n  dup3\n  add\n  mload\n  dup2\n  0x00\n  add\n  exp(0x0100, 0x05)\n  dup2\n  sload\n  dup2\n  0xffffffffffffffffffffffffffffffffffffffff\n  mul\n  not\n  and\n  swap1\n  dup4\n  0xffffffffffffffffffffffffffffffffffffffff\n  and\n  mul\n  or\n  swap1\n  sstore\n  pop\n  0xc0\n  dup3\n  add\n  mload\n  dup2\n  0x01\n  add\n  exp(0x0100, 0x00)\n  dup2\n  sload\n  dup2\n  0xffffffffffffffffffffffffffffffffffffffff\n  mul\n  not\n  and\n  swap1\n  dup4\n  0xffffffffffffffffffffffffffffffffffffffff\n  and\n  mul\n  or\n  swap1\n  sstore\n  pop\n  0xe0\n  dup3\n  add\n  mload\n  dup2\n  0x02\n  add\n  exp(0x0100, 0x00)\n  dup2\n  sload\n  dup2\n  0xffffffffffffffffffffffffffffffffffffffff\n  mul\n  not\n  and\n  swap1\n  dup4\n  0xffffffffffffffffffffffffffffffffffffffff\n  and\n  mul\n  or\n  swap1\n  sstore\n  pop\n  0x0100\n  dup3\n  add\n  mload\n  dup2\n  0x03\n  add\n  exp(0x0100, 0x00)\n  dup2\n  sload\n  dup2\n  0xffffffffffffffffffffffffffffffffffffffff\n  mul\n  not\n  and\n  swap1\n  dup4\n  0xffffffffffffffffffffffffffffffffffffffff\n  and\n  mul\n  or\n  swap1\n  sstore\n  pop\n  0x0120\n  dup3\n  add\n  mload\n  dup2\n  0x04\n  add\n  exp(0x0100, 0x00)\n  dup2\n  sload\n  dup2\n  0xffffffffffffffffffffffffffffffffffffffff\n  mul\n  not\n  and\n  swap1\n  dup4\n  0xffffffffffffffffffffffffffffffffffffffff\n  and\n  mul\n  or\n  swap1\n  sstore\n  pop\n  0x0140\n  dup3\n  add\n  mload\n  dup2\n  0x05\n  add\n  exp(0x0100, 0x00)\n  dup2\n  sload\n  dup2\n  0xffffffffffffffffffffffffffffffffffffffff\n  mul\n  not\n  and\n  swap1\n  dup4\n  0xffffffffffffffffffffffffffffffffffffffff\n  and\n  mul\n  or\n  swap1\n  sstore\n  pop\n  0x0160\n  dup3\n  add\n  mload\n  dup2\n  0x06\n  add\n  exp(0x0100, 0x00)\n  dup2\n  sload\n  dup2\n  0xffffffffffffffffffffffffffffffffffffffff\n  mul\n  not\n  and\n  swap1\n  dup4\n  0xffffffffffffffffffffffffffffffffffffffff\n  and\n  mul\n  or\n  swap1\n  sstore\n  pop\n  0x0180\n  dup3\n  add\n  mload\n  dup2\n  0x07\n  add\n  exp(0x0100, 0x00)\n  dup2\n  sload\n  dup2\n  0xffffffffffffffffffffffffffffffffffffffff\n  mul\n  not\n  and\n  swap1\n  dup4\n  0xffffffffffffffffffffffffffffffffffffffff\n  and\n  mul\n  or\n  swap1\n  sstore\n  pop\n  0x01a0\n  dup3\n  add\n  mload\n  dup2\n  0x08\n  add\n  exp(0x0100, 0x00)\n  dup2\n  sload\n  dup2\n  0xffffffffffffffffffffffffffffffffffffffff\n  mul\n  not\n  and\n  swap1\n  dup4\n  0xffffffffffffffffffffffffffffffffffffffff\n  and\n  mul\n  or\n  swap1\n  sstore\n  pop\n  0x01c0\n  dup3\n  add\n  mload\n  dup2\n  0x09\n  add\n  exp(0x0100, 0x00)\n  dup2\n  sload\n  dup2\n  0xffffffffffffffffffffffffffffffffffffffff\n  mul\n  not\n  and\n  swap1\n  dup4\n  0xffffffffffffffffffffffffffffffffffffffff\n  and\n  mul\n  or\n  swap1\n  sstore\n  pop\n  0x01e0\n  dup3\n  add\n  mload\n  dup2\n  0x0a\n  add\n  exp(0x0100, 0x00)\n  dup2\n  sload\n  dup2\n  0xffffffffffffffffffffffffffffffffffffffff\n  mul\n  not\n  and\n  swap1\n  dup4\n  0xffffffffffffffffffffffffffffffffffffffff\n  and\n  mul\n  or\n  swap1\n  sstore\n  pop\n  pop\n  pop\n    /* \"gameprofits-galactic-spdgcs-contracts/governence/gameProfitsGalacticNetworkSettings.sol\":7338:7442  constructor() public... */\n  callvalue\n  dup1\n  iszero\n  tag_1\n  jumpi\n  0x00\n  dup1\n  revert\ntag_1:\n  pop\n    /* \"gameprofits-galactic-spdgcs-contracts/governence/gameProfitsGalacticNetworkSettings.sol\":7403:7413  msg.sender */\n  caller\n    /* \"gameprofits-galactic-spdgcs-contracts/governence/gameProfitsGalacticNetworkSettings.sol\":7395:7400  owner */\n  0x00\n  dup1\n    /* \"gameprofits-galactic-spdgcs-contracts/governence/gameProfitsGalacticNetworkSettings.sol\":7395:7413  owner = msg.sender */\n  0x0100\n  exp\n  dup2\n  sload\n  dup2\n  0xffffffffffffffffffffffffffffffffffffffff\n  mul\n  not\n  and\n  swap1\n  dup4\n  0xffffffffffffffffffffffffffffffffffffffff\n  and\n  mul\n  or\n  swap1\n  sstore\n  pop\n    /* \"gameprofits-galactic-spdgcs-contracts/governence/gameProfitsGalacticNetworkSettings.sol\":87:7455  contract gameprofitsGalacticNetworkSettings {... */\n  dataSize(sub_0)\n  dup1\n  dataOffset(sub_0)\n  0x00\n  codecopy\n  0x00\n  return\nstop\n\nsub_0: assembly {\n        /* \"gameprofits-galactic-spdgcs-contracts/governence/gameProfitsGalacticNetworkSettings.sol\":87:7455  contract gameprofitsGalacticNetworkSettings {... */\n      mstore(0x40, 0x80)\n      callvalue\n      dup1\n      iszero\n      tag_1\n      jumpi\n      0x00\n      dup1\n      revert\n    tag_1:\n      pop\n      jumpi(tag_2, lt(calldatasize, 0x04))\n      shr(0xe0, calldataload(0x00))\n      dup1\n      0x7a22890a\n      gt\n      tag_25\n      jumpi\n      dup1\n      0x94d5bdff\n      gt\n      tag_26\n      jumpi\n      dup1\n      0x94d5bdff\n      eq\n      tag_19\n      jumpi\n      dup1\n      0x97cf27b8\n      eq\n      tag_20\n      jumpi\n      dup1\n      0xa87a86aa\n      eq\n      tag_21\n      jumpi\n      dup1\n      0xc461089c\n      eq\n      tag_22\n      jumpi\n      dup1\n      0xd2871723\n      eq\n      tag_23\n      jumpi\n      dup1\n      0xe2c6cc7a\n      eq\n      tag_24\n      jumpi\n      jump(tag_2)\n    tag_26:\n      dup1\n      0x7a22890a\n      eq\n      tag_14\n      jumpi\n      dup1\n      0x860249e4\n      eq\n      tag_15\n      jumpi\n      dup1\n      0x88f8a9a3\n      eq\n      tag_16\n      jumpi\n      dup1\n      0x8991e441\n      eq\n      tag_17\n      jumpi\n      dup1\n      0x941e32b6\n      eq\n      tag_18\n      jumpi\n      jump(tag_2)\n    tag_25:\n      dup1\n      0x3c49c63e\n      gt\n      tag_27\n      jumpi\n      dup1\n      0x3c49c63e\n      eq\n      tag_8\n      jumpi\n      dup1\n      0x49e8216a\n      eq\n      tag_9\n      jumpi\n      dup1\n      0x4a2690b9\n      eq\n      tag_10\n      jumpi\n      dup1\n      0x50b8f5eb\n      eq\n      tag_11\n      jumpi\n      dup1\n      0x52bac077\n      eq\n      tag_12\n      jumpi\n      dup1\n      0x6ae73038\n      eq\n      tag_13\n      jumpi\n      jump(tag_2)\n    tag_27:\n      dup1\n      0x0d19de6f\n      eq\n      tag_3\n      jumpi\n      dup1\n      0x1c7ac31b\n      eq\n      tag_4\n      jumpi\n      dup1\n      0x1dd28782\n      eq\n      tag_5\n      jumpi\n      dup1\n      0x1fae9693\n      eq\n      tag_6\n      jumpi\n      dup1\n      0x35d355ab\n      eq\n      tag_7\n      jumpi\n    tag_2:\n      0x00\n      dup1\n      revert\n        /* \"gameprofits-galactic-spdgcs-contracts/governence/gameProfitsGalacticNetworkSettings.sol\":4428:4673  function gameprofitsPremiumExchangeTraderSettings() public view returns (address) {... */\n    tag_3:\n      tag_28\n      tag_29\n      jump\t// in\n    tag_28:\n      mload(0x40)\n      tag_30\n      swap2\n      swap1\n      tag_31\n      jump\t// in\n    tag_30:\n      mload(0x40)\n      dup1\n      swap2\n      sub\n      swap1\n      return\n        /* \"gameprofits-galactic-spdgcs-contracts/governence/gameProfitsGalacticNetworkSettings.sol\":3744:3963  function gameprofitsFairPlaySettings() public view returns (address) {... */\n    tag_4:\n      tag_32\n      tag_33\n      jump\t// in\n    tag_32:\n      mload(0x40)\n      tag_34\n      swap2\n      swap1\n      tag_31\n      jump\t// in\n    tag_34:\n      mload(0x40)\n      dup1\n      swap2\n      sub\n      swap1\n      return\n        /* \"gameprofits-galactic-spdgcs-contracts/governence/gameProfitsGalacticNetworkSettings.sol\":1352:1550  function isgameNetworkActive() public view returns (bool) {... */\n    tag_5:\n      tag_35\n      tag_36\n      jump\t// in\n    tag_35:\n      mload(0x40)\n      tag_37\n      swap2\n      swap1\n      tag_38\n      jump\t// in\n    tag_37:\n      mload(0x40)\n      dup1\n      swap2\n      sub\n      swap1\n      return\n        /* \"gameprofits-galactic-spdgcs-contracts/governence/gameProfitsGalacticNetworkSettings.sol\":1954:2156  function isgamesAreCoolingDown() public view returns (bool) {... */\n    tag_6:\n      tag_39\n      tag_40\n      jump\t// in\n    tag_39:\n      mload(0x40)\n      tag_41\n      swap2\n      swap1\n      tag_38\n      jump\t// in\n    tag_41:\n      mload(0x40)\n      dup1\n      swap2\n      sub\n      swap1\n      return\n        /* \"gameprofits-galactic-spdgcs-contracts/governence/gameProfitsGalacticNetworkSettings.sol\":5689:5955  function switchgamesAreDeactivated(... */\n    tag_7:\n      tag_42\n      tag_43\n      jump\t// in\n    tag_42:\n      stop\n        /* \"gameprofits-galactic-spdgcs-contracts/governence/gameProfitsGalacticNetworkSettings.sol\":6225:7251  function switchgamesKillSwitch(... */\n    tag_8:\n      tag_44\n      tag_45\n      jump\t// in\n    tag_44:\n      stop\n        /* \"gameprofits-galactic-spdgcs-contracts/governence/gameProfitsGalacticNetworkSettings.sol\":1554:1738  function isgamesAreOn() public view returns (bool) {... */\n    tag_9:\n      tag_46\n      tag_47\n      jump\t// in\n    tag_46:\n      mload(0x40)\n      tag_48\n      swap2\n      swap1\n      tag_38\n      jump\t// in\n    tag_48:\n      mload(0x40)\n      dup1\n      swap2\n      sub\n      swap1\n      return\n        /* \"gameprofits-galactic-spdgcs-contracts/governence/gameProfitsGalacticNetworkSettings.sol\":3507:3738  function gameprofitsMetaVerseUniverseItems() public view returns (address) {... */\n    tag_10:\n      tag_49\n      tag_50\n      jump\t// in\n    tag_49:\n      mload(0x40)\n      tag_51\n      swap2\n      swap1\n      tag_31\n      jump\t// in\n    tag_51:\n      mload(0x40)\n      dup1\n      swap2\n      sub\n      swap1\n      return\n        /* \"gameprofits-galactic-spdgcs-contracts/governence/gameProfitsGalacticNetworkSettings.sol\":2581:2804  function gameprofitsExperimentSettings() public view returns (address) {... */\n    tag_11:\n      tag_52\n      tag_53\n      jump\t// in\n    tag_52:\n      mload(0x40)\n      tag_54\n      swap2\n      swap1\n      tag_31\n      jump\t// in\n    tag_54:\n      mload(0x40)\n      dup1\n      swap2\n      sub\n      swap1\n      return\n        /* \"gameprofits-galactic-spdgcs-contracts/governence/gameProfitsGalacticNetworkSettings.sol\":1744:1946  function isgamesAreDeactivated() public view returns (bool) {... */\n    tag_12:\n      tag_55\n      tag_56\n      jump\t// in\n    tag_55:\n      mload(0x40)\n      tag_57\n      swap2\n      swap1\n      tag_38\n      jump\t// in\n    tag_57:\n      mload(0x40)\n      dup1\n      swap2\n      sub\n      swap1\n      return\n        /* \"gameprofits-galactic-spdgcs-contracts/governence/gameProfitsGalacticNetworkSettings.sol\":4195:4422  function gameprofitsFairSoulsActSettings() public view returns (address) {... */\n    tag_13:\n      tag_58\n      tag_59\n      jump\t// in\n    tag_58:\n      mload(0x40)\n      tag_60\n      swap2\n      swap1\n      tag_31\n      jump\t// in\n    tag_60:\n      mload(0x40)\n      dup1\n      swap2\n      sub\n      swap1\n      return\n        /* \"gameprofits-galactic-spdgcs-contracts/governence/gameProfitsGalacticNetworkSettings.sol\":5957:6223  function switchgamesAreCoolingDown(... */\n    tag_14:\n      tag_61\n      tag_62\n      jump\t// in\n    tag_61:\n      stop\n        /* \"gameprofits-galactic-spdgcs-contracts/governence/gameProfitsGalacticNetworkSettings.sol\":4916:5182  function switchgameprofitsfinanceSettings(address newSetting... */\n    tag_15:\n      tag_63\n      0x04\n      dup1\n      calldatasize\n      sub\n      dup2\n      add\n      swap1\n      tag_64\n      swap2\n      swap1\n      tag_65\n      jump\t// in\n    tag_64:\n      tag_66\n      jump\t// in\n    tag_63:\n      stop\n        /* \"gameprofits-galactic-spdgcs-contracts/governence/gameProfitsGalacticNetworkSettings.sol\":5186:5446  function switchgameNetworkActive(... */\n    tag_16:\n      tag_67\n      tag_68\n      jump\t// in\n    tag_67:\n      stop\n        /* \"gameprofits-galactic-spdgcs-contracts/governence/gameProfitsGalacticNetworkSettings.sol\":2810:3035  function gameprofitsGoverenenceSettings() public view returns (address) {... */\n    tag_17:\n      tag_69\n      tag_70\n      jump\t// in\n    tag_69:\n      mload(0x40)\n      tag_71\n      swap2\n      swap1\n      tag_31\n      jump\t// in\n    tag_71:\n      mload(0x40)\n      dup1\n      swap2\n      sub\n      swap1\n      return\n        /* \"gameprofits-galactic-spdgcs-contracts/governence/gameProfitsGalacticNetworkSettings.sol\":2160:2354  function isgamesKillSwitch() public view returns (bool) {... */\n    tag_18:\n      tag_72\n      tag_73\n      jump\t// in\n    tag_72:\n      mload(0x40)\n      tag_74\n      swap2\n      swap1\n      tag_38\n      jump\t// in\n    tag_74:\n      mload(0x40)\n      dup1\n      swap2\n      sub\n      swap1\n      return\n        /* \"gameprofits-galactic-spdgcs-contracts/governence/gameProfitsGalacticNetworkSettings.sol\":3280:3501  function gameprofitsMetaVerseSettings() public view returns (address) {... */\n    tag_19:\n      tag_75\n      tag_76\n      jump\t// in\n    tag_75:\n      mload(0x40)\n      tag_77\n      swap2\n      swap1\n      tag_31\n      jump\t// in\n    tag_77:\n      mload(0x40)\n      dup1\n      swap2\n      sub\n      swap1\n      return\n        /* \"gameprofits-galactic-spdgcs-contracts/governence/gameProfitsGalacticNetworkSettings.sol\":3041:3274  function gameprofitsIchoroniumTableSettings() public view returns (address) {... */\n    tag_20:\n      tag_78\n      tag_79\n      jump\t// in\n    tag_78:\n      mload(0x40)\n      tag_80\n      swap2\n      swap1\n      tag_31\n      jump\t// in\n    tag_80:\n      mload(0x40)\n      dup1\n      swap2\n      sub\n      swap1\n      return\n        /* \"gameprofits-galactic-spdgcs-contracts/governence/gameProfitsGalacticNetworkSettings.sol\":4679:4914  function gameprofitsMasterVideoGamesSettings() public view returns (address) {... */\n    tag_21:\n      tag_81\n      tag_82\n      jump\t// in\n    tag_81:\n      mload(0x40)\n      tag_83\n      swap2\n      swap1\n      tag_31\n      jump\t// in\n    tag_83:\n      mload(0x40)\n      dup1\n      swap2\n      sub\n      swap1\n      return\n        /* \"gameprofits-galactic-spdgcs-contracts/governence/gameProfitsGalacticNetworkSettings.sol\":2358:2575  function gameprofitsfinanceSettings() public view returns (address) {... */\n    tag_22:\n      tag_84\n      tag_85\n      jump\t// in\n    tag_84:\n      mload(0x40)\n      tag_86\n      swap2\n      swap1\n      tag_31\n      jump\t// in\n    tag_86:\n      mload(0x40)\n      dup1\n      swap2\n      sub\n      swap1\n      return\n        /* \"gameprofits-galactic-spdgcs-contracts/governence/gameProfitsGalacticNetworkSettings.sol\":5448:5687  function switchgamesAreOn(... */\n    tag_23:\n      tag_87\n      tag_88\n      jump\t// in\n    tag_87:\n      stop\n        /* \"gameprofits-galactic-spdgcs-contracts/governence/gameProfitsGalacticNetworkSettings.sol\":3969:4190  function gameprofitsFairValueSettings() public view returns (address) {... */\n    tag_24:\n      tag_89\n      tag_90\n      jump\t// in\n    tag_89:\n      mload(0x40)\n      tag_91\n      swap2\n      swap1\n      tag_31\n      jump\t// in\n    tag_91:\n      mload(0x40)\n      dup1\n      swap2\n      sub\n      swap1\n      return\n        /* \"gameprofits-galactic-spdgcs-contracts/governence/gameProfitsGalacticNetworkSettings.sol\":4428:4673  function gameprofitsPremiumExchangeTraderSettings() public view returns (address) {... */\n    tag_29:\n        /* \"gameprofits-galactic-spdgcs-contracts/governence/gameProfitsGalacticNetworkSettings.sol\":4501:4508  address */\n      0x00\n        /* \"gameprofits-galactic-spdgcs-contracts/governence/gameProfitsGalacticNetworkSettings.sol\":4521:4563  gameprofitsSettings storage networksetting */\n      dup1\n        /* \"gameprofits-galactic-spdgcs-contracts/governence/gameProfitsGalacticNetworkSettings.sol\":4566:4592  gameprofitsNetworkSettings */\n      0x01\n        /* \"gameprofits-galactic-spdgcs-contracts/governence/gameProfitsGalacticNetworkSettings.sol\":4521:4592  gameprofitsSettings storage networksetting = gameprofitsNetworkSettings */\n      swap1\n      pop\n        /* \"gameprofits-galactic-spdgcs-contracts/governence/gameProfitsGalacticNetworkSettings.sol\":4610:4624  networksetting */\n      dup1\n        /* \"gameprofits-galactic-spdgcs-contracts/governence/gameProfitsGalacticNetworkSettings.sol\":4610:4665  networksetting.gameprofitsPremiumExchangeTraderSettings */\n      0x09\n      add\n      0x00\n      swap1\n      sload\n      swap1\n      0x0100\n      exp\n      swap1\n      div\n      0xffffffffffffffffffffffffffffffffffffffff\n      and\n        /* \"gameprofits-galactic-spdgcs-contracts/governence/gameProfitsGalacticNetworkSettings.sol\":4603:4665  return networksetting.gameprofitsPremiumExchangeTraderSettings */\n      swap2\n      pop\n      pop\n        /* \"gameprofits-galactic-spdgcs-contracts/governence/gameProfitsGalacticNetworkSettings.sol\":4428:4673  function gameprofitsPremiumExchangeTraderSettings() public view returns (address) {... */\n      swap1\n      jump\t// out\n        /* \"gameprofits-galactic-spdgcs-contracts/governence/gameProfitsGalacticNetworkSettings.sol\":3744:3963  function gameprofitsFairPlaySettings() public view returns (address) {... */\n    tag_33:\n        /* \"gameprofits-galactic-spdgcs-contracts/governence/gameProfitsGalacticNetworkSettings.sol\":3804:3811  address */\n      0x00\n        /* \"gameprofits-galactic-spdgcs-contracts/governence/gameProfitsGalacticNetworkSettings.sol\":3824:3866  gameprofitsSettings storage networksetting */\n      dup1\n        /* \"gameprofits-galactic-spdgcs-contracts/governence/gameProfitsGalacticNetworkSettings.sol\":3869:3895  gameprofitsNetworkSettings */\n      0x01\n        /* \"gameprofits-galactic-spdgcs-contracts/governence/gameProfitsGalacticNetworkSettings.sol\":3824:3895  gameprofitsSettings storage networksetting = gameprofitsNetworkSettings */\n      swap1\n      pop\n        /* \"gameprofits-galactic-spdgcs-contracts/governence/gameProfitsGalacticNetworkSettings.sol\":3913:3927  networksetting */\n      dup1\n        /* \"gameprofits-galactic-spdgcs-contracts/governence/gameProfitsGalacticNetworkSettings.sol\":3913:3955  networksetting.gameprofitsFairPlaySettings */\n      0x06\n      add\n      0x00\n      swap1\n      sload\n      swap1\n      0x0100\n      exp\n      swap1\n      div\n      0xffffffffffffffffffffffffffffffffffffffff\n      and\n        /* \"gameprofits-galactic-spdgcs-contracts/governence/gameProfitsGalacticNetworkSettings.sol\":3906:3955  return networksetting.gameprofitsFairPlaySettings */\n      swap2\n      pop\n      pop\n        /* \"gameprofits-galactic-spdgcs-contracts/governence/gameProfitsGalacticNetworkSettings.sol\":3744:3963  function gameprofitsFairPlaySettings() public view returns (address) {... */\n      swap1\n      jump\t// out\n        /* \"gameprofits-galactic-spdgcs-contracts/governence/gameProfitsGalacticNetworkSettings.sol\":1352:1550  function isgameNetworkActive() public view returns (bool) {... */\n    tag_36:\n        /* \"gameprofits-galactic-spdgcs-contracts/governence/gameProfitsGalacticNetworkSettings.sol\":1404:1408  bool */\n      0x00\n        /* \"gameprofits-galactic-spdgcs-contracts/governence/gameProfitsGalacticNetworkSettings.sol\":1421:1463  gameprofitsSettings storage networksetting */\n      dup1\n        /* \"gameprofits-galactic-spdgcs-contracts/governence/gameProfitsGalacticNetworkSettings.sol\":1466:1492  gameprofitsNetworkSettings */\n      0x01\n        /* \"gameprofits-galactic-spdgcs-contracts/governence/gameProfitsGalacticNetworkSettings.sol\":1421:1492  gameprofitsSettings storage networksetting = gameprofitsNetworkSettings */\n      swap1\n      pop\n        /* \"gameprofits-galactic-spdgcs-contracts/governence/gameProfitsGalacticNetworkSettings.sol\":1510:1524  networksetting */\n      dup1\n        /* \"gameprofits-galactic-spdgcs-contracts/governence/gameProfitsGalacticNetworkSettings.sol\":1510:1542  networksetting.gameNetworkActive */\n      0x00\n      add\n      0x00\n      swap1\n      sload\n      swap1\n      0x0100\n      exp\n      swap1\n      div\n      0xff\n      and\n        /* \"gameprofits-galactic-spdgcs-contracts/governence/gameProfitsGalacticNetworkSettings.sol\":1503:1542  return networksetting.gameNetworkActive */\n      swap2\n      pop\n      pop\n        /* \"gameprofits-galactic-spdgcs-contracts/governence/gameProfitsGalacticNetworkSettings.sol\":1352:1550  function isgameNetworkActive() public view returns (bool) {... */\n      swap1\n      jump\t// out\n        /* \"gameprofits-galactic-spdgcs-contracts/governence/gameProfitsGalacticNetworkSettings.sol\":1954:2156  function isgamesAreCoolingDown() public view returns (bool) {... */\n    tag_40:\n        /* \"gameprofits-galactic-spdgcs-contracts/governence/gameProfitsGalacticNetworkSettings.sol\":2008:2012  bool */\n      0x00\n        /* \"gameprofits-galactic-spdgcs-contracts/governence/gameProfitsGalacticNetworkSettings.sol\":2025:2067  gameprofitsSettings storage networksetting */\n      dup1\n        /* \"gameprofits-galactic-spdgcs-contracts/governence/gameProfitsGalacticNetworkSettings.sol\":2070:2096  gameprofitsNetworkSettings */\n      0x01\n        /* \"gameprofits-galactic-spdgcs-contracts/governence/gameProfitsGalacticNetworkSettings.sol\":2025:2096  gameprofitsSettings storage networksetting = gameprofitsNetworkSettings */\n      swap1\n      pop\n        /* \"gameprofits-galactic-spdgcs-contracts/governence/gameProfitsGalacticNetworkSettings.sol\":2114:2128  networksetting */\n      dup1\n        /* \"gameprofits-galactic-spdgcs-contracts/governence/gameProfitsGalacticNetworkSettings.sol\":2114:2148  networksetting.gamesAreCoolingDown */\n      0x00\n      add\n      0x03\n      swap1\n      sload\n      swap1\n      0x0100\n      exp\n      swap1\n      div\n      0xff\n      and\n        /* \"gameprofits-galactic-spdgcs-contracts/governence/gameProfitsGalacticNetworkSettings.sol\":2107:2148  return networksetting.gamesAreCoolingDown */\n      swap2\n      pop\n      pop\n        /* \"gameprofits-galactic-spdgcs-contracts/governence/gameProfitsGalacticNetworkSettings.sol\":1954:2156  function isgamesAreCoolingDown() public view returns (bool) {... */\n      swap1\n      jump\t// out\n        /* \"gameprofits-galactic-spdgcs-contracts/governence/gameProfitsGalacticNetworkSettings.sol\":5689:5955  function switchgamesAreDeactivated(... */\n    tag_43:\n        /* \"gameprofits-galactic-spdgcs-contracts/governence/gameProfitsGalacticNetworkSettings.sol\":7308:7313  owner */\n      0x00\n      dup1\n      sload\n      swap1\n      0x0100\n      exp\n      swap1\n      div\n      0xffffffffffffffffffffffffffffffffffffffff\n      and\n        /* \"gameprofits-galactic-spdgcs-contracts/governence/gameProfitsGalacticNetworkSettings.sol\":7294:7313  msg.sender == owner */\n      0xffffffffffffffffffffffffffffffffffffffff\n      and\n        /* \"gameprofits-galactic-spdgcs-contracts/governence/gameProfitsGalacticNetworkSettings.sol\":7294:7304  msg.sender */\n      caller\n        /* \"gameprofits-galactic-spdgcs-contracts/governence/gameProfitsGalacticNetworkSettings.sol\":7294:7313  msg.sender == owner */\n      0xffffffffffffffffffffffffffffffffffffffff\n      and\n      eq\n        /* \"gameprofits-galactic-spdgcs-contracts/governence/gameProfitsGalacticNetworkSettings.sol\":7285:7314  require (msg.sender == owner) */\n      tag_97\n      jumpi\n      0x00\n      dup1\n      revert\n    tag_97:\n        /* \"gameprofits-galactic-spdgcs-contracts/governence/gameProfitsGalacticNetworkSettings.sol\":5891:5917  gameprofitsNetworkSettings */\n      0x01\n        /* \"gameprofits-galactic-spdgcs-contracts/governence/gameProfitsGalacticNetworkSettings.sol\":5891:5937  gameprofitsNetworkSettings.gamesAreDeactivated */\n      0x00\n      add\n      0x02\n      swap1\n      sload\n      swap1\n      0x0100\n      exp\n      swap1\n      div\n      0xff\n      and\n        /* \"gameprofits-galactic-spdgcs-contracts/governence/gameProfitsGalacticNetworkSettings.sol\":5890:5937  !gameprofitsNetworkSettings.gamesAreDeactivated */\n      iszero\n        /* \"gameprofits-galactic-spdgcs-contracts/governence/gameProfitsGalacticNetworkSettings.sol\":5841:5867  gameprofitsNetworkSettings */\n      0x01\n        /* \"gameprofits-galactic-spdgcs-contracts/governence/gameProfitsGalacticNetworkSettings.sol\":5841:5887  gameprofitsNetworkSettings.gamesAreDeactivated */\n      0x00\n      add\n      0x02\n        /* \"gameprofits-galactic-spdgcs-contracts/governence/gameProfitsGalacticNetworkSettings.sol\":5841:5937  gameprofitsNetworkSettings.gamesAreDeactivated = !gameprofitsNetworkSettings.gamesAreDeactivated */\n      0x0100\n      exp\n      dup2\n      sload\n      dup2\n      0xff\n      mul\n      not\n      and\n      swap1\n      dup4\n      iszero\n      iszero\n      mul\n      or\n      swap1\n      sstore\n      pop\n        /* \"gameprofits-galactic-spdgcs-contracts/governence/gameProfitsGalacticNetworkSettings.sol\":5689:5955  function switchgamesAreDeactivated(... */\n      jump\t// out\n        /* \"gameprofits-galactic-spdgcs-contracts/governence/gameProfitsGalacticNetworkSettings.sol\":6225:7251  function switchgamesKillSwitch(... */\n    tag_45:\n        /* \"gameprofits-galactic-spdgcs-contracts/governence/gameProfitsGalacticNetworkSettings.sol\":7308:7313  owner */\n      0x00\n      dup1\n      sload\n      swap1\n      0x0100\n      exp\n      swap1\n      div\n      0xffffffffffffffffffffffffffffffffffffffff\n      and\n        /* \"gameprofits-galactic-spdgcs-contracts/governence/gameProfitsGalacticNetworkSettings.sol\":7294:7313  msg.sender == owner */\n      0xffffffffffffffffffffffffffffffffffffffff\n      and\n        /* \"gameprofits-galactic-spdgcs-contracts/governence/gameProfitsGalacticNetworkSettings.sol\":7294:7304  msg.sender */\n      caller\n        /* \"gameprofits-galactic-spdgcs-contracts/governence/gameProfitsGalacticNetworkSettings.sol\":7294:7313  msg.sender == owner */\n      0xffffffffffffffffffffffffffffffffffffffff\n      and\n      eq\n        /* \"gameprofits-galactic-spdgcs-contracts/governence/gameProfitsGalacticNetworkSettings.sol\":7285:7314  require (msg.sender == owner) */\n      tag_100\n      jumpi\n      0x00\n      dup1\n      revert\n    tag_100:\n        /* \"gameprofits-galactic-spdgcs-contracts/governence/gameProfitsGalacticNetworkSettings.sol\":6415:6420  false */\n      0x00\n        /* \"gameprofits-galactic-spdgcs-contracts/governence/gameProfitsGalacticNetworkSettings.sol\":6371:6420  gameprofitsNetworkSettings.gamesKillSwitch==false */\n      iszero\n      iszero\n        /* \"gameprofits-galactic-spdgcs-contracts/governence/gameProfitsGalacticNetworkSettings.sol\":6371:6397  gameprofitsNetworkSettings */\n      0x01\n        /* \"gameprofits-galactic-spdgcs-contracts/governence/gameProfitsGalacticNetworkSettings.sol\":6371:6413  gameprofitsNetworkSettings.gamesKillSwitch */\n      0x00\n      add\n      0x04\n      swap1\n      sload\n      swap1\n      0x0100\n      exp\n      swap1\n      div\n      0xff\n      and\n        /* \"gameprofits-galactic-spdgcs-contracts/governence/gameProfitsGalacticNetworkSettings.sol\":6371:6420  gameprofitsNetworkSettings.gamesKillSwitch==false */\n      iszero\n      iszero\n      sub\n        /* \"gameprofits-galactic-spdgcs-contracts/governence/gameProfitsGalacticNetworkSettings.sol\":6368:7208  if(gameprofitsNetworkSettings.gamesKillSwitch==false){... */\n      tag_102\n      jumpi\n        /* \"gameprofits-galactic-spdgcs-contracts/governence/gameProfitsGalacticNetworkSettings.sol\":6491:6517  gameprofitsNetworkSettings */\n      0x01\n        /* \"gameprofits-galactic-spdgcs-contracts/governence/gameProfitsGalacticNetworkSettings.sol\":6491:6533  gameprofitsNetworkSettings.gamesKillSwitch */\n      0x00\n      add\n      0x04\n      swap1\n      sload\n      swap1\n      0x0100\n      exp\n      swap1\n      div\n      0xff\n      and\n        /* \"gameprofits-galactic-spdgcs-contracts/governence/gameProfitsGalacticNetworkSettings.sol\":6490:6533  !gameprofitsNetworkSettings.gamesKillSwitch */\n      iszero\n        /* \"gameprofits-galactic-spdgcs-contracts/governence/gameProfitsGalacticNetworkSettings.sol\":6445:6471  gameprofitsNetworkSettings */\n      0x01\n        /* \"gameprofits-galactic-spdgcs-contracts/governence/gameProfitsGalacticNetworkSettings.sol\":6445:6487  gameprofitsNetworkSettings.gamesKillSwitch */\n      0x00\n      add\n      0x04\n        /* \"gameprofits-galactic-spdgcs-contracts/governence/gameProfitsGalacticNetworkSettings.sol\":6445:6533  gameprofitsNetworkSettings.gamesKillSwitch = !gameprofitsNetworkSettings.gamesKillSwitch */\n      0x0100\n      exp\n      dup2\n      sload\n      dup2\n      0xff\n      mul\n      not\n      and\n      swap1\n      dup4\n      iszero\n      iszero\n      mul\n      or\n      swap1\n      sstore\n      pop\n        /* \"gameprofits-galactic-spdgcs-contracts/governence/gameProfitsGalacticNetworkSettings.sol\":6606:6610  true */\n      0x01\n        /* \"gameprofits-galactic-spdgcs-contracts/governence/gameProfitsGalacticNetworkSettings.sol\":6557:6583  gameprofitsNetworkSettings */\n      dup1\n        /* \"gameprofits-galactic-spdgcs-contracts/governence/gameProfitsGalacticNetworkSettings.sol\":6557:6603  gameprofitsNetworkSettings.gamesAreCoolingDown */\n      0x00\n      add\n      0x03\n        /* \"gameprofits-galactic-spdgcs-contracts/governence/gameProfitsGalacticNetworkSettings.sol\":6557:6610  gameprofitsNetworkSettings.gamesAreCoolingDown = true */\n      0x0100\n      exp\n      dup2\n      sload\n      dup2\n      0xff\n      mul\n      not\n      and\n      swap1\n      dup4\n      iszero\n      iszero\n      mul\n      or\n      swap1\n      sstore\n      pop\n        /* \"gameprofits-galactic-spdgcs-contracts/governence/gameProfitsGalacticNetworkSettings.sol\":6674:6679  false */\n      0x00\n        /* \"gameprofits-galactic-spdgcs-contracts/governence/gameProfitsGalacticNetworkSettings.sol\":6634:6660  gameprofitsNetworkSettings */\n      0x01\n        /* \"gameprofits-galactic-spdgcs-contracts/governence/gameProfitsGalacticNetworkSettings.sol\":6634:6671  gameprofitsNetworkSettings.gamesAreOn */\n      0x00\n      add\n      0x01\n        /* \"gameprofits-galactic-spdgcs-contracts/governence/gameProfitsGalacticNetworkSettings.sol\":6634:6679  gameprofitsNetworkSettings.gamesAreOn = false */\n      0x0100\n      exp\n      dup2\n      sload\n      dup2\n      0xff\n      mul\n      not\n      and\n      swap1\n      dup4\n      iszero\n      iszero\n      mul\n      or\n      swap1\n      sstore\n      pop\n        /* \"gameprofits-galactic-spdgcs-contracts/governence/gameProfitsGalacticNetworkSettings.sol\":6752:6756  true */\n      0x01\n        /* \"gameprofits-galactic-spdgcs-contracts/governence/gameProfitsGalacticNetworkSettings.sol\":6703:6729  gameprofitsNetworkSettings */\n      dup1\n        /* \"gameprofits-galactic-spdgcs-contracts/governence/gameProfitsGalacticNetworkSettings.sol\":6703:6749  gameprofitsNetworkSettings.gamesAreDeactivated */\n      0x00\n      add\n      0x02\n        /* \"gameprofits-galactic-spdgcs-contracts/governence/gameProfitsGalacticNetworkSettings.sol\":6703:6756  gameprofitsNetworkSettings.gamesAreDeactivated = true */\n      0x0100\n      exp\n      dup2\n      sload\n      dup2\n      0xff\n      mul\n      not\n      and\n      swap1\n      dup4\n      iszero\n      iszero\n      mul\n      or\n      swap1\n      sstore\n      pop\n        /* \"gameprofits-galactic-spdgcs-contracts/governence/gameProfitsGalacticNetworkSettings.sol\":6368:7208  if(gameprofitsNetworkSettings.gamesKillSwitch==false){... */\n      jump(tag_103)\n    tag_102:\n        /* \"gameprofits-galactic-spdgcs-contracts/governence/gameProfitsGalacticNetworkSettings.sol\":6846:6850  true */\n      0x01\n        /* \"gameprofits-galactic-spdgcs-contracts/governence/gameProfitsGalacticNetworkSettings.sol\":6802:6850  gameprofitsNetworkSettings.gamesKillSwitch==true */\n      iszero\n      iszero\n        /* \"gameprofits-galactic-spdgcs-contracts/governence/gameProfitsGalacticNetworkSettings.sol\":6802:6828  gameprofitsNetworkSettings */\n      0x01\n        /* \"gameprofits-galactic-spdgcs-contracts/governence/gameProfitsGalacticNetworkSettings.sol\":6802:6844  gameprofitsNetworkSettings.gamesKillSwitch */\n      0x00\n      add\n      0x04\n      swap1\n      sload\n      swap1\n      0x0100\n      exp\n      swap1\n      div\n      0xff\n      and\n        /* \"gameprofits-galactic-spdgcs-contracts/governence/gameProfitsGalacticNetworkSettings.sol\":6802:6850  gameprofitsNetworkSettings.gamesKillSwitch==true */\n      iszero\n      iszero\n      sub\n        /* \"gameprofits-galactic-spdgcs-contracts/governence/gameProfitsGalacticNetworkSettings.sol\":6799:7208  if(gameprofitsNetworkSettings.gamesKillSwitch==true){... */\n      tag_104\n      jumpi\n        /* \"gameprofits-galactic-spdgcs-contracts/governence/gameProfitsGalacticNetworkSettings.sol\":6921:6947  gameprofitsNetworkSettings */\n      0x01\n        /* \"gameprofits-galactic-spdgcs-contracts/governence/gameProfitsGalacticNetworkSettings.sol\":6921:6963  gameprofitsNetworkSettings.gamesKillSwitch */\n      0x00\n      add\n      0x04\n      swap1\n      sload\n      swap1\n      0x0100\n      exp\n      swap1\n      div\n      0xff\n      and\n        /* \"gameprofits-galactic-spdgcs-contracts/governence/gameProfitsGalacticNetworkSettings.sol\":6920:6963  !gameprofitsNetworkSettings.gamesKillSwitch */\n      iszero\n        /* \"gameprofits-galactic-spdgcs-contracts/governence/gameProfitsGalacticNetworkSettings.sol\":6875:6901  gameprofitsNetworkSettings */\n      0x01\n        /* \"gameprofits-galactic-spdgcs-contracts/governence/gameProfitsGalacticNetworkSettings.sol\":6875:6917  gameprofitsNetworkSettings.gamesKillSwitch */\n      0x00\n      add\n      0x04\n        /* \"gameprofits-galactic-spdgcs-contracts/governence/gameProfitsGalacticNetworkSettings.sol\":6875:6963  gameprofitsNetworkSettings.gamesKillSwitch = !gameprofitsNetworkSettings.gamesKillSwitch */\n      0x0100\n      exp\n      dup2\n      sload\n      dup2\n      0xff\n      mul\n      not\n      and\n      swap1\n      dup4\n      iszero\n      iszero\n      mul\n      or\n      swap1\n      sstore\n      pop\n        /* \"gameprofits-galactic-spdgcs-contracts/governence/gameProfitsGalacticNetworkSettings.sol\":7036:7041  false */\n      0x00\n        /* \"gameprofits-galactic-spdgcs-contracts/governence/gameProfitsGalacticNetworkSettings.sol\":6987:7013  gameprofitsNetworkSettings */\n      0x01\n        /* \"gameprofits-galactic-spdgcs-contracts/governence/gameProfitsGalacticNetworkSettings.sol\":6987:7033  gameprofitsNetworkSettings.gamesAreCoolingDown */\n      0x00\n      add\n      0x03\n        /* \"gameprofits-galactic-spdgcs-contracts/governence/gameProfitsGalacticNetworkSettings.sol\":6987:7041  gameprofitsNetworkSettings.gamesAreCoolingDown = false */\n      0x0100\n      exp\n      dup2\n      sload\n      dup2\n      0xff\n      mul\n      not\n      and\n      swap1\n      dup4\n      iszero\n      iszero\n      mul\n      or\n      swap1\n      sstore\n      pop\n        /* \"gameprofits-galactic-spdgcs-contracts/governence/gameProfitsGalacticNetworkSettings.sol\":7105:7110  false */\n      0x00\n        /* \"gameprofits-galactic-spdgcs-contracts/governence/gameProfitsGalacticNetworkSettings.sol\":7065:7091  gameprofitsNetworkSettings */\n      0x01\n        /* \"gameprofits-galactic-spdgcs-contracts/governence/gameProfitsGalacticNetworkSettings.sol\":7065:7102  gameprofitsNetworkSettings.gamesAreOn */\n      0x00\n      add\n      0x01\n        /* \"gameprofits-galactic-spdgcs-contracts/governence/gameProfitsGalacticNetworkSettings.sol\":7065:7110  gameprofitsNetworkSettings.gamesAreOn = false */\n      0x0100\n      exp\n      dup2\n      sload\n      dup2\n      0xff\n      mul\n      not\n      and\n      swap1\n      dup4\n      iszero\n      iszero\n      mul\n      or\n      swap1\n      sstore\n      pop\n        /* \"gameprofits-galactic-spdgcs-contracts/governence/gameProfitsGalacticNetworkSettings.sol\":7183:7188  false */\n      0x00\n        /* \"gameprofits-galactic-spdgcs-contracts/governence/gameProfitsGalacticNetworkSettings.sol\":7134:7160  gameprofitsNetworkSettings */\n      0x01\n        /* \"gameprofits-galactic-spdgcs-contracts/governence/gameProfitsGalacticNetworkSettings.sol\":7134:7180  gameprofitsNetworkSettings.gamesAreDeactivated */\n      0x00\n      add\n      0x02\n        /* \"gameprofits-galactic-spdgcs-contracts/governence/gameProfitsGalacticNetworkSettings.sol\":7134:7188  gameprofitsNetworkSettings.gamesAreDeactivated = false */\n      0x0100\n      exp\n      dup2\n      sload\n      dup2\n      0xff\n      mul\n      not\n      and\n      swap1\n      dup4\n      iszero\n      iszero\n      mul\n      or\n      swap1\n      sstore\n      pop\n        /* \"gameprofits-galactic-spdgcs-contracts/governence/gameProfitsGalacticNetworkSettings.sol\":6799:7208  if(gameprofitsNetworkSettings.gamesKillSwitch==true){... */\n    tag_104:\n        /* \"gameprofits-galactic-spdgcs-contracts/governence/gameProfitsGalacticNetworkSettings.sol\":6368:7208  if(gameprofitsNetworkSettings.gamesKillSwitch==false){... */\n    tag_103:\n        /* \"gameprofits-galactic-spdgcs-contracts/governence/gameProfitsGalacticNetworkSettings.sol\":6225:7251  function switchgamesKillSwitch(... */\n      jump\t// out\n        /* \"gameprofits-galactic-spdgcs-contracts/governence/gameProfitsGalacticNetworkSettings.sol\":1554:1738  function isgamesAreOn() public view returns (bool) {... */\n    tag_47:\n        /* \"gameprofits-galactic-spdgcs-contracts/governence/gameProfitsGalacticNetworkSettings.sol\":1599:1603  bool */\n      0x00\n        /* \"gameprofits-galactic-spdgcs-contracts/governence/gameProfitsGalacticNetworkSettings.sol\":1616:1658  gameprofitsSettings storage networksetting */\n      dup1\n        /* \"gameprofits-galactic-spdgcs-contracts/governence/gameProfitsGalacticNetworkSettings.sol\":1661:1687  gameprofitsNetworkSettings */\n      0x01\n        /* \"gameprofits-galactic-spdgcs-contracts/governence/gameProfitsGalacticNetworkSettings.sol\":1616:1687  gameprofitsSettings storage networksetting = gameprofitsNetworkSettings */\n      swap1\n      pop\n        /* \"gameprofits-galactic-spdgcs-contracts/governence/gameProfitsGalacticNetworkSettings.sol\":1705:1719  networksetting */\n      dup1\n        /* \"gameprofits-galactic-spdgcs-contracts/governence/gameProfitsGalacticNetworkSettings.sol\":1705:1730  networksetting.gamesAreOn */\n      0x00\n      add\n      0x01\n      swap1\n      sload\n      swap1\n      0x0100\n      exp\n      swap1\n      div\n      0xff\n      and\n        /* \"gameprofits-galactic-spdgcs-contracts/governence/gameProfitsGalacticNetworkSettings.sol\":1698:1730  return networksetting.gamesAreOn */\n      swap2\n      pop\n      pop\n        /* \"gameprofits-galactic-spdgcs-contracts/governence/gameProfitsGalacticNetworkSettings.sol\":1554:1738  function isgamesAreOn() public view returns (bool) {... */\n      swap1\n      jump\t// out\n        /* \"gameprofits-galactic-spdgcs-contracts/governence/gameProfitsGalacticNetworkSettings.sol\":3507:3738  function gameprofitsMetaVerseUniverseItems() public view returns (address) {... */\n    tag_50:\n        /* \"gameprofits-galactic-spdgcs-contracts/governence/gameProfitsGalacticNetworkSettings.sol\":3573:3580  address */\n      0x00\n        /* \"gameprofits-galactic-spdgcs-contracts/governence/gameProfitsGalacticNetworkSettings.sol\":3593:3635  gameprofitsSettings storage networksetting */\n      dup1\n        /* \"gameprofits-galactic-spdgcs-contracts/governence/gameProfitsGalacticNetworkSettings.sol\":3638:3664  gameprofitsNetworkSettings */\n      0x01\n        /* \"gameprofits-galactic-spdgcs-contracts/governence/gameProfitsGalacticNetworkSettings.sol\":3593:3664  gameprofitsSettings storage networksetting = gameprofitsNetworkSettings */\n      swap1\n      pop\n        /* \"gameprofits-galactic-spdgcs-contracts/governence/gameProfitsGalacticNetworkSettings.sol\":3682:3696  networksetting */\n      dup1\n        /* \"gameprofits-galactic-spdgcs-contracts/governence/gameProfitsGalacticNetworkSettings.sol\":3682:3730  networksetting.gameprofitsMetaVerseUniverseItems */\n      0x05\n      add\n      0x00\n      swap1\n      sload\n      swap1\n      0x0100\n      exp\n      swap1\n      div\n      0xffffffffffffffffffffffffffffffffffffffff\n      and\n        /* \"gameprofits-galactic-spdgcs-contracts/governence/gameProfitsGalacticNetworkSettings.sol\":3675:3730  return networksetting.gameprofitsMetaVerseUniverseItems */\n      swap2\n      pop\n      pop\n        /* \"gameprofits-galactic-spdgcs-contracts/governence/gameProfitsGalacticNetworkSettings.sol\":3507:3738  function gameprofitsMetaVerseUniverseItems() public view returns (address) {... */\n      swap1\n      jump\t// out\n        /* \"gameprofits-galactic-spdgcs-contracts/governence/gameProfitsGalacticNetworkSettings.sol\":2581:2804  function gameprofitsExperimentSettings() public view returns (address) {... */\n    tag_53:\n        /* \"gameprofits-galactic-spdgcs-contracts/governence/gameProfitsGalacticNetworkSettings.sol\":2643:2650  address */\n      0x00\n        /* \"gameprofits-galactic-spdgcs-contracts/governence/gameProfitsGalacticNetworkSettings.sol\":2663:2705  gameprofitsSettings storage networksetting */\n      dup1\n        /* \"gameprofits-galactic-spdgcs-contracts/governence/gameProfitsGalacticNetworkSettings.sol\":2708:2734  gameprofitsNetworkSettings */\n      0x01\n        /* \"gameprofits-galactic-spdgcs-contracts/governence/gameProfitsGalacticNetworkSettings.sol\":2663:2734  gameprofitsSettings storage networksetting = gameprofitsNetworkSettings */\n      swap1\n      pop\n        /* \"gameprofits-galactic-spdgcs-contracts/governence/gameProfitsGalacticNetworkSettings.sol\":2752:2766  networksetting */\n      dup1\n        /* \"gameprofits-galactic-spdgcs-contracts/governence/gameProfitsGalacticNetworkSettings.sol\":2752:2796  networksetting.gameprofitsExperimentSettings */\n      0x01\n      add\n      0x00\n      swap1\n      sload\n      swap1\n      0x0100\n      exp\n      swap1\n      div\n      0xffffffffffffffffffffffffffffffffffffffff\n      and\n        /* \"gameprofits-galactic-spdgcs-contracts/governence/gameProfitsGalacticNetworkSettings.sol\":2745:2796  return networksetting.gameprofitsExperimentSettings */\n      swap2\n      pop\n      pop\n        /* \"gameprofits-galactic-spdgcs-contracts/governence/gameProfitsGalacticNetworkSettings.sol\":2581:2804  function gameprofitsExperimentSettings() public view returns (address) {... */\n      swap1\n      jump\t// out\n        /* \"gameprofits-galactic-spdgcs-contracts/governence/gameProfitsGalacticNetworkSettings.sol\":1744:1946  function isgamesAreDeactivated() public view returns (bool) {... */\n    tag_56:\n        /* \"gameprofits-galactic-spdgcs-contracts/governence/gameProfitsGalacticNetworkSettings.sol\":1798:1802  bool */\n      0x00\n        /* \"gameprofits-galactic-spdgcs-contracts/governence/gameProfitsGalacticNetworkSettings.sol\":1815:1857  gameprofitsSettings storage networksetting */\n      dup1\n        /* \"gameprofits-galactic-spdgcs-contracts/governence/gameProfitsGalacticNetworkSettings.sol\":1860:1886  gameprofitsNetworkSettings */\n      0x01\n        /* \"gameprofits-galactic-spdgcs-contracts/governence/gameProfitsGalacticNetworkSettings.sol\":1815:1886  gameprofitsSettings storage networksetting = gameprofitsNetworkSettings */\n      swap1\n      pop\n        /* \"gameprofits-galactic-spdgcs-contracts/governence/gameProfitsGalacticNetworkSettings.sol\":1904:1918  networksetting */\n      dup1\n        /* \"gameprofits-galactic-spdgcs-contracts/governence/gameProfitsGalacticNetworkSettings.sol\":1904:1938  networksetting.gamesAreDeactivated */\n      0x00\n      add\n      0x02\n      swap1\n      sload\n      swap1\n      0x0100\n      exp\n      swap1\n      div\n      0xff\n      and\n        /* \"gameprofits-galactic-spdgcs-contracts/governence/gameProfitsGalacticNetworkSettings.sol\":1897:1938  return networksetting.gamesAreDeactivated */\n      swap2\n      pop\n      pop\n        /* \"gameprofits-galactic-spdgcs-contracts/governence/gameProfitsGalacticNetworkSettings.sol\":1744:1946  function isgamesAreDeactivated() public view returns (bool) {... */\n      swap1\n      jump\t// out\n        /* \"gameprofits-galactic-spdgcs-contracts/governence/gameProfitsGalacticNetworkSettings.sol\":4195:4422  function gameprofitsFairSoulsActSettings() public view returns (address) {... */\n    tag_59:\n        /* \"gameprofits-galactic-spdgcs-contracts/governence/gameProfitsGalacticNetworkSettings.sol\":4259:4266  address */\n      0x00\n        /* \"gameprofits-galactic-spdgcs-contracts/governence/gameProfitsGalacticNetworkSettings.sol\":4279:4321  gameprofitsSettings storage networksetting */\n      dup1\n        /* \"gameprofits-galactic-spdgcs-contracts/governence/gameProfitsGalacticNetworkSettings.sol\":4324:4350  gameprofitsNetworkSettings */\n      0x01\n        /* \"gameprofits-galactic-spdgcs-contracts/governence/gameProfitsGalacticNetworkSettings.sol\":4279:4350  gameprofitsSettings storage networksetting = gameprofitsNetworkSettings */\n      swap1\n      pop\n        /* \"gameprofits-galactic-spdgcs-contracts/governence/gameProfitsGalacticNetworkSettings.sol\":4368:4382  networksetting */\n      dup1\n        /* \"gameprofits-galactic-spdgcs-contracts/governence/gameProfitsGalacticNetworkSettings.sol\":4368:4414  networksetting.gameprofitsFairSoulsActSettings */\n      0x08\n      add\n      0x00\n      swap1\n      sload\n      swap1\n      0x0100\n      exp\n      swap1\n      div\n      0xffffffffffffffffffffffffffffffffffffffff\n      and\n        /* \"gameprofits-galactic-spdgcs-contracts/governence/gameProfitsGalacticNetworkSettings.sol\":4361:4414  return networksetting.gameprofitsFairSoulsActSettings */\n      swap2\n      pop\n      pop\n        /* \"gameprofits-galactic-spdgcs-contracts/governence/gameProfitsGalacticNetworkSettings.sol\":4195:4422  function gameprofitsFairSoulsActSettings() public view returns (address) {... */\n      swap1\n      jump\t// out\n        /* \"gameprofits-galactic-spdgcs-contracts/governence/gameProfitsGalacticNetworkSettings.sol\":5957:6223  function switchgamesAreCoolingDown(... */\n    tag_62:\n        /* \"gameprofits-galactic-spdgcs-contracts/governence/gameProfitsGalacticNetworkSettings.sol\":7308:7313  owner */\n      0x00\n      dup1\n      sload\n      swap1\n      0x0100\n      exp\n      swap1\n      div\n      0xffffffffffffffffffffffffffffffffffffffff\n      and\n        /* \"gameprofits-galactic-spdgcs-contracts/governence/gameProfitsGalacticNetworkSettings.sol\":7294:7313  msg.sender == owner */\n      0xffffffffffffffffffffffffffffffffffffffff\n      and\n        /* \"gameprofits-galactic-spdgcs-contracts/governence/gameProfitsGalacticNetworkSettings.sol\":7294:7304  msg.sender */\n      caller\n        /* \"gameprofits-galactic-spdgcs-contracts/governence/gameProfitsGalacticNetworkSettings.sol\":7294:7313  msg.sender == owner */\n      0xffffffffffffffffffffffffffffffffffffffff\n      and\n      eq\n        /* \"gameprofits-galactic-spdgcs-contracts/governence/gameProfitsGalacticNetworkSettings.sol\":7285:7314  require (msg.sender == owner) */\n      tag_111\n      jumpi\n      0x00\n      dup1\n      revert\n    tag_111:\n        /* \"gameprofits-galactic-spdgcs-contracts/governence/gameProfitsGalacticNetworkSettings.sol\":6159:6185  gameprofitsNetworkSettings */\n      0x01\n        /* \"gameprofits-galactic-spdgcs-contracts/governence/gameProfitsGalacticNetworkSettings.sol\":6159:6205  gameprofitsNetworkSettings.gamesAreCoolingDown */\n      0x00\n      add\n      0x03\n      swap1\n      sload\n      swap1\n      0x0100\n      exp\n      swap1\n      div\n      0xff\n      and\n        /* \"gameprofits-galactic-spdgcs-contracts/governence/gameProfitsGalacticNetworkSettings.sol\":6158:6205  !gameprofitsNetworkSettings.gamesAreCoolingDown */\n      iszero\n        /* \"gameprofits-galactic-spdgcs-contracts/governence/gameProfitsGalacticNetworkSettings.sol\":6109:6135  gameprofitsNetworkSettings */\n      0x01\n        /* \"gameprofits-galactic-spdgcs-contracts/governence/gameProfitsGalacticNetworkSettings.sol\":6109:6155  gameprofitsNetworkSettings.gamesAreCoolingDown */\n      0x00\n      add\n      0x03\n        /* \"gameprofits-galactic-spdgcs-contracts/governence/gameProfitsGalacticNetworkSettings.sol\":6109:6205  gameprofitsNetworkSettings.gamesAreCoolingDown = !gameprofitsNetworkSettings.gamesAreCoolingDown */\n      0x0100\n      exp\n      dup2\n      sload\n      dup2\n      0xff\n      mul\n      not\n      and\n      swap1\n      dup4\n      iszero\n      iszero\n      mul\n      or\n      swap1\n      sstore\n      pop\n        /* \"gameprofits-galactic-spdgcs-contracts/governence/gameProfitsGalacticNetworkSettings.sol\":5957:6223  function switchgamesAreCoolingDown(... */\n      jump\t// out\n        /* \"gameprofits-galactic-spdgcs-contracts/governence/gameProfitsGalacticNetworkSettings.sol\":4916:5182  function switchgameprofitsfinanceSettings(address newSetting... */\n    tag_66:\n        /* \"gameprofits-galactic-spdgcs-contracts/governence/gameProfitsGalacticNetworkSettings.sol\":7308:7313  owner */\n      0x00\n      dup1\n      sload\n      swap1\n      0x0100\n      exp\n      swap1\n      div\n      0xffffffffffffffffffffffffffffffffffffffff\n      and\n        /* \"gameprofits-galactic-spdgcs-contracts/governence/gameProfitsGalacticNetworkSettings.sol\":7294:7313  msg.sender == owner */\n      0xffffffffffffffffffffffffffffffffffffffff\n      and\n        /* \"gameprofits-galactic-spdgcs-contracts/governence/gameProfitsGalacticNetworkSettings.sol\":7294:7304  msg.sender */\n      caller\n        /* \"gameprofits-galactic-spdgcs-contracts/governence/gameProfitsGalacticNetworkSettings.sol\":7294:7313  msg.sender == owner */\n      0xffffffffffffffffffffffffffffffffffffffff\n      and\n      eq\n        /* \"gameprofits-galactic-spdgcs-contracts/governence/gameProfitsGalacticNetworkSettings.sol\":7285:7314  require (msg.sender == owner) */\n      tag_114\n      jumpi\n      0x00\n      dup1\n      revert\n    tag_114:\n        /* \"gameprofits-galactic-spdgcs-contracts/governence/gameProfitsGalacticNetworkSettings.sol\":5129:5139  newSetting */\n      dup1\n        /* \"gameprofits-galactic-spdgcs-contracts/governence/gameProfitsGalacticNetworkSettings.sol\":5073:5099  gameprofitsNetworkSettings */\n      0x01\n        /* \"gameprofits-galactic-spdgcs-contracts/governence/gameProfitsGalacticNetworkSettings.sol\":5073:5126  gameprofitsNetworkSettings.gameprofitsfinanceSettings */\n      0x00\n      add\n      0x05\n        /* \"gameprofits-galactic-spdgcs-contracts/governence/gameProfitsGalacticNetworkSettings.sol\":5073:5139  gameprofitsNetworkSettings.gameprofitsfinanceSettings = newSetting */\n      0x0100\n      exp\n      dup2\n      sload\n      dup2\n      0xffffffffffffffffffffffffffffffffffffffff\n      mul\n      not\n      and\n      swap1\n      dup4\n      0xffffffffffffffffffffffffffffffffffffffff\n      and\n      mul\n      or\n      swap1\n      sstore\n      pop\n        /* \"gameprofits-galactic-spdgcs-contracts/governence/gameProfitsGalacticNetworkSettings.sol\":4916:5182  function switchgameprofitsfinanceSettings(address newSetting... */\n      pop\n      jump\t// out\n        /* \"gameprofits-galactic-spdgcs-contracts/governence/gameProfitsGalacticNetworkSettings.sol\":5186:5446  function switchgameNetworkActive(... */\n    tag_68:\n        /* \"gameprofits-galactic-spdgcs-contracts/governence/gameProfitsGalacticNetworkSettings.sol\":7308:7313  owner */\n      0x00\n      dup1\n      sload\n      swap1\n      0x0100\n      exp\n      swap1\n      div\n      0xffffffffffffffffffffffffffffffffffffffff\n      and\n        /* \"gameprofits-galactic-spdgcs-contracts/governence/gameProfitsGalacticNetworkSettings.sol\":7294:7313  msg.sender == owner */\n      0xffffffffffffffffffffffffffffffffffffffff\n      and\n        /* \"gameprofits-galactic-spdgcs-contracts/governence/gameProfitsGalacticNetworkSettings.sol\":7294:7304  msg.sender */\n      caller\n        /* \"gameprofits-galactic-spdgcs-contracts/governence/gameProfitsGalacticNetworkSettings.sol\":7294:7313  msg.sender == owner */\n      0xffffffffffffffffffffffffffffffffffffffff\n      and\n      eq\n        /* \"gameprofits-galactic-spdgcs-contracts/governence/gameProfitsGalacticNetworkSettings.sol\":7285:7314  require (msg.sender == owner) */\n      tag_117\n      jumpi\n      0x00\n      dup1\n      revert\n    tag_117:\n        /* \"gameprofits-galactic-spdgcs-contracts/governence/gameProfitsGalacticNetworkSettings.sol\":5384:5410  gameprofitsNetworkSettings */\n      0x01\n        /* \"gameprofits-galactic-spdgcs-contracts/governence/gameProfitsGalacticNetworkSettings.sol\":5384:5428  gameprofitsNetworkSettings.gameNetworkActive */\n      0x00\n      add\n      0x00\n      swap1\n      sload\n      swap1\n      0x0100\n      exp\n      swap1\n      div\n      0xff\n      and\n        /* \"gameprofits-galactic-spdgcs-contracts/governence/gameProfitsGalacticNetworkSettings.sol\":5383:5428  !gameprofitsNetworkSettings.gameNetworkActive */\n      iszero\n        /* \"gameprofits-galactic-spdgcs-contracts/governence/gameProfitsGalacticNetworkSettings.sol\":5336:5362  gameprofitsNetworkSettings */\n      0x01\n        /* \"gameprofits-galactic-spdgcs-contracts/governence/gameProfitsGalacticNetworkSettings.sol\":5336:5380  gameprofitsNetworkSettings.gameNetworkActive */\n      0x00\n      add\n      0x00\n        /* \"gameprofits-galactic-spdgcs-contracts/governence/gameProfitsGalacticNetworkSettings.sol\":5336:5428  gameprofitsNetworkSettings.gameNetworkActive = !gameprofitsNetworkSettings.gameNetworkActive */\n      0x0100\n      exp\n      dup2\n      sload\n      dup2\n      0xff\n      mul\n      not\n      and\n      swap1\n      dup4\n      iszero\n      iszero\n      mul\n      or\n      swap1\n      sstore\n      pop\n        /* \"gameprofits-galactic-spdgcs-contracts/governence/gameProfitsGalacticNetworkSettings.sol\":5186:5446  function switchgameNetworkActive(... */\n      jump\t// out\n        /* \"gameprofits-galactic-spdgcs-contracts/governence/gameProfitsGalacticNetworkSettings.sol\":2810:3035  function gameprofitsGoverenenceSettings() public view returns (address) {... */\n    tag_70:\n        /* \"gameprofits-galactic-spdgcs-contracts/governence/gameProfitsGalacticNetworkSettings.sol\":2873:2880  address */\n      0x00\n        /* \"gameprofits-galactic-spdgcs-contracts/governence/gameProfitsGalacticNetworkSettings.sol\":2893:2935  gameprofitsSettings storage networksetting */\n      dup1\n        /* \"gameprofits-galactic-spdgcs-contracts/governence/gameProfitsGalacticNetworkSettings.sol\":2938:2964  gameprofitsNetworkSettings */\n      0x01\n        /* \"gameprofits-galactic-spdgcs-contracts/governence/gameProfitsGalacticNetworkSettings.sol\":2893:2964  gameprofitsSettings storage networksetting = gameprofitsNetworkSettings */\n      swap1\n      pop\n        /* \"gameprofits-galactic-spdgcs-contracts/governence/gameProfitsGalacticNetworkSettings.sol\":2982:2996  networksetting */\n      dup1\n        /* \"gameprofits-galactic-spdgcs-contracts/governence/gameProfitsGalacticNetworkSettings.sol\":2982:3027  networksetting.gameprofitsGoverenenceSettings */\n      0x02\n      add\n      0x00\n      swap1\n      sload\n      swap1\n      0x0100\n      exp\n      swap1\n      div\n      0xffffffffffffffffffffffffffffffffffffffff\n      and\n        /* \"gameprofits-galactic-spdgcs-contracts/governence/gameProfitsGalacticNetworkSettings.sol\":2975:3027  return networksetting.gameprofitsGoverenenceSettings */\n      swap2\n      pop\n      pop\n        /* \"gameprofits-galactic-spdgcs-contracts/governence/gameProfitsGalacticNetworkSettings.sol\":2810:3035  function gameprofitsGoverenenceSettings() public view returns (address) {... */\n      swap1\n      jump\t// out\n        /* \"gameprofits-galactic-spdgcs-contracts/governence/gameProfitsGalacticNetworkSettings.sol\":2160:2354  function isgamesKillSwitch() public view returns (bool) {... */\n    tag_73:\n        /* \"gameprofits-galactic-spdgcs-contracts/governence/gameProfitsGalacticNetworkSettings.sol\":2210:2214  bool */\n      0x00\n        /* \"gameprofits-galactic-spdgcs-contracts/governence/gameProfitsGalacticNetworkSettings.sol\":2227:2269  gameprofitsSettings storage networksetting */\n      dup1\n        /* \"gameprofits-galactic-spdgcs-contracts/governence/gameProfitsGalacticNetworkSettings.sol\":2272:2298  gameprofitsNetworkSettings */\n      0x01\n        /* \"gameprofits-galactic-spdgcs-contracts/governence/gameProfitsGalacticNetworkSettings.sol\":2227:2298  gameprofitsSettings storage networksetting = gameprofitsNetworkSettings */\n      swap1\n      pop\n        /* \"gameprofits-galactic-spdgcs-contracts/governence/gameProfitsGalacticNetworkSettings.sol\":2316:2330  networksetting */\n      dup1\n        /* \"gameprofits-galactic-spdgcs-contracts/governence/gameProfitsGalacticNetworkSettings.sol\":2316:2346  networksetting.gamesKillSwitch */\n      0x00\n      add\n      0x04\n      swap1\n      sload\n      swap1\n      0x0100\n      exp\n      swap1\n      div\n      0xff\n      and\n        /* \"gameprofits-galactic-spdgcs-contracts/governence/gameProfitsGalacticNetworkSettings.sol\":2309:2346  return networksetting.gamesKillSwitch */\n      swap2\n      pop\n      pop\n        /* \"gameprofits-galactic-spdgcs-contracts/governence/gameProfitsGalacticNetworkSettings.sol\":2160:2354  function isgamesKillSwitch() public view returns (bool) {... */\n      swap1\n      jump\t// out\n        /* \"gameprofits-galactic-spdgcs-contracts/governence/gameProfitsGalacticNetworkSettings.sol\":3280:3501  function gameprofitsMetaVerseSettings() public view returns (address) {... */\n    tag_76:\n        /* \"gameprofits-galactic-spdgcs-contracts/governence/gameProfitsGalacticNetworkSettings.sol\":3341:3348  address */\n      0x00\n        /* \"gameprofits-galactic-spdgcs-contracts/governence/gameProfitsGalacticNetworkSettings.sol\":3361:3403  gameprofitsSettings storage networksetting */\n      dup1\n        /* \"gameprofits-galactic-spdgcs-contracts/governence/gameProfitsGalacticNetworkSettings.sol\":3406:3432  gameprofitsNetworkSettings */\n      0x01\n        /* \"gameprofits-galactic-spdgcs-contracts/governence/gameProfitsGalacticNetworkSettings.sol\":3361:3432  gameprofitsSettings storage networksetting = gameprofitsNetworkSettings */\n      swap1\n      pop\n        /* \"gameprofits-galactic-spdgcs-contracts/governence/gameProfitsGalacticNetworkSettings.sol\":3450:3464  networksetting */\n      dup1\n        /* \"gameprofits-galactic-spdgcs-contracts/governence/gameProfitsGalacticNetworkSettings.sol\":3450:3493  networksetting.gameprofitsMetaVerseSettings */\n      0x04\n      add\n      0x00\n      swap1\n      sload\n      swap1\n      0x0100\n      exp\n      swap1\n      div\n      0xffffffffffffffffffffffffffffffffffffffff\n      and\n        /* \"gameprofits-galactic-spdgcs-contracts/governence/gameProfitsGalacticNetworkSettings.sol\":3443:3493  return networksetting.gameprofitsMetaVerseSettings */\n      swap2\n      pop\n      pop\n        /* \"gameprofits-galactic-spdgcs-contracts/governence/gameProfitsGalacticNetworkSettings.sol\":3280:3501  function gameprofitsMetaVerseSettings() public view returns (address) {... */\n      swap1\n      jump\t// out\n        /* \"gameprofits-galactic-spdgcs-contracts/governence/gameProfitsGalacticNetworkSettings.sol\":3041:3274  function gameprofitsIchoroniumTableSettings() public view returns (address) {... */\n    tag_79:\n        /* \"gameprofits-galactic-spdgcs-contracts/governence/gameProfitsGalacticNetworkSettings.sol\":3108:3115  address */\n      0x00\n        /* \"gameprofits-galactic-spdgcs-contracts/governence/gameProfitsGalacticNetworkSettings.sol\":3128:3170  gameprofitsSettings storage networksetting */\n      dup1\n        /* \"gameprofits-galactic-spdgcs-contracts/governence/gameProfitsGalacticNetworkSettings.sol\":3173:3199  gameprofitsNetworkSettings */\n      0x01\n        /* \"gameprofits-galactic-spdgcs-contracts/governence/gameProfitsGalacticNetworkSettings.sol\":3128:3199  gameprofitsSettings storage networksetting = gameprofitsNetworkSettings */\n      swap1\n      pop\n        /* \"gameprofits-galactic-spdgcs-contracts/governence/gameProfitsGalacticNetworkSettings.sol\":3217:3231  networksetting */\n      dup1\n        /* \"gameprofits-galactic-spdgcs-contracts/governence/gameProfitsGalacticNetworkSettings.sol\":3217:3266  networksetting.gameprofitsIchoroniumTableSettings */\n      0x03\n      add\n      0x00\n      swap1\n      sload\n      swap1\n      0x0100\n      exp\n      swap1\n      div\n      0xffffffffffffffffffffffffffffffffffffffff\n      and\n        /* \"gameprofits-galactic-spdgcs-contracts/governence/gameProfitsGalacticNetworkSettings.sol\":3210:3266  return networksetting.gameprofitsIchoroniumTableSettings */\n      swap2\n      pop\n      pop\n        /* \"gameprofits-galactic-spdgcs-contracts/governence/gameProfitsGalacticNetworkSettings.sol\":3041:3274  function gameprofitsIchoroniumTableSettings() public view returns (address) {... */\n      swap1\n      jump\t// out\n        /* \"gameprofits-galactic-spdgcs-contracts/governence/gameProfitsGalacticNetworkSettings.sol\":4679:4914  function gameprofitsMasterVideoGamesSettings() public view returns (address) {... */\n    tag_82:\n        /* \"gameprofits-galactic-spdgcs-contracts/governence/gameProfitsGalacticNetworkSettings.sol\":4747:4754  address */\n      0x00\n        /* \"gameprofits-galactic-spdgcs-contracts/governence/gameProfitsGalacticNetworkSettings.sol\":4767:4809  gameprofitsSettings storage networksetting */\n      dup1\n        /* \"gameprofits-galactic-spdgcs-contracts/governence/gameProfitsGalacticNetworkSettings.sol\":4812:4838  gameprofitsNetworkSettings */\n      0x01\n        /* \"gameprofits-galactic-spdgcs-contracts/governence/gameProfitsGalacticNetworkSettings.sol\":4767:4838  gameprofitsSettings storage networksetting = gameprofitsNetworkSettings */\n      swap1\n      pop\n        /* \"gameprofits-galactic-spdgcs-contracts/governence/gameProfitsGalacticNetworkSettings.sol\":4856:4870  networksetting */\n      dup1\n        /* \"gameprofits-galactic-spdgcs-contracts/governence/gameProfitsGalacticNetworkSettings.sol\":4856:4906  networksetting.gameprofitsMasterVideoGamesSettings */\n      0x0a\n      add\n      0x00\n      swap1\n      sload\n      swap1\n      0x0100\n      exp\n      swap1\n      div\n      0xffffffffffffffffffffffffffffffffffffffff\n      and\n        /* \"gameprofits-galactic-spdgcs-contracts/governence/gameProfitsGalacticNetworkSettings.sol\":4849:4906  return networksetting.gameprofitsMasterVideoGamesSettings */\n      swap2\n      pop\n      pop\n        /* \"gameprofits-galactic-spdgcs-contracts/governence/gameProfitsGalacticNetworkSettings.sol\":4679:4914  function gameprofitsMasterVideoGamesSettings() public view returns (address) {... */\n      swap1\n      jump\t// out\n        /* \"gameprofits-galactic-spdgcs-contracts/governence/gameProfitsGalacticNetworkSettings.sol\":2358:2575  function gameprofitsfinanceSettings() public view returns (address) {... */\n    tag_85:\n        /* \"gameprofits-galactic-spdgcs-contracts/governence/gameProfitsGalacticNetworkSettings.sol\":2417:2424  address */\n      0x00\n        /* \"gameprofits-galactic-spdgcs-contracts/governence/gameProfitsGalacticNetworkSettings.sol\":2437:2479  gameprofitsSettings storage networksetting */\n      dup1\n        /* \"gameprofits-galactic-spdgcs-contracts/governence/gameProfitsGalacticNetworkSettings.sol\":2482:2508  gameprofitsNetworkSettings */\n      0x01\n        /* \"gameprofits-galactic-spdgcs-contracts/governence/gameProfitsGalacticNetworkSettings.sol\":2437:2508  gameprofitsSettings storage networksetting = gameprofitsNetworkSettings */\n      swap1\n      pop\n        /* \"gameprofits-galactic-spdgcs-contracts/governence/gameProfitsGalacticNetworkSettings.sol\":2526:2540  networksetting */\n      dup1\n        /* \"gameprofits-galactic-spdgcs-contracts/governence/gameProfitsGalacticNetworkSettings.sol\":2526:2567  networksetting.gameprofitsfinanceSettings */\n      0x00\n      add\n      0x05\n      swap1\n      sload\n      swap1\n      0x0100\n      exp\n      swap1\n      div\n      0xffffffffffffffffffffffffffffffffffffffff\n      and\n        /* \"gameprofits-galactic-spdgcs-contracts/governence/gameProfitsGalacticNetworkSettings.sol\":2519:2567  return networksetting.gameprofitsfinanceSettings */\n      swap2\n      pop\n      pop\n        /* \"gameprofits-galactic-spdgcs-contracts/governence/gameProfitsGalacticNetworkSettings.sol\":2358:2575  function gameprofitsfinanceSettings() public view returns (address) {... */\n      swap1\n      jump\t// out\n        /* \"gameprofits-galactic-spdgcs-contracts/governence/gameProfitsGalacticNetworkSettings.sol\":5448:5687  function switchgamesAreOn(... */\n    tag_88:\n        /* \"gameprofits-galactic-spdgcs-contracts/governence/gameProfitsGalacticNetworkSettings.sol\":7308:7313  owner */\n      0x00\n      dup1\n      sload\n      swap1\n      0x0100\n      exp\n      swap1\n      div\n      0xffffffffffffffffffffffffffffffffffffffff\n      and\n        /* \"gameprofits-galactic-spdgcs-contracts/governence/gameProfitsGalacticNetworkSettings.sol\":7294:7313  msg.sender == owner */\n      0xffffffffffffffffffffffffffffffffffffffff\n      and\n        /* \"gameprofits-galactic-spdgcs-contracts/governence/gameProfitsGalacticNetworkSettings.sol\":7294:7304  msg.sender */\n      caller\n        /* \"gameprofits-galactic-spdgcs-contracts/governence/gameProfitsGalacticNetworkSettings.sol\":7294:7313  msg.sender == owner */\n      0xffffffffffffffffffffffffffffffffffffffff\n      and\n      eq\n        /* \"gameprofits-galactic-spdgcs-contracts/governence/gameProfitsGalacticNetworkSettings.sol\":7285:7314  require (msg.sender == owner) */\n      tag_126\n      jumpi\n      0x00\n      dup1\n      revert\n    tag_126:\n        /* \"gameprofits-galactic-spdgcs-contracts/governence/gameProfitsGalacticNetworkSettings.sol\":5632:5658  gameprofitsNetworkSettings */\n      0x01\n        /* \"gameprofits-galactic-spdgcs-contracts/governence/gameProfitsGalacticNetworkSettings.sol\":5632:5669  gameprofitsNetworkSettings.gamesAreOn */\n      0x00\n      add\n      0x01\n      swap1\n      sload\n      swap1\n      0x0100\n      exp\n      swap1\n      div\n      0xff\n      and\n        /* \"gameprofits-galactic-spdgcs-contracts/governence/gameProfitsGalacticNetworkSettings.sol\":5631:5669  !gameprofitsNetworkSettings.gamesAreOn */\n      iszero\n        /* \"gameprofits-galactic-spdgcs-contracts/governence/gameProfitsGalacticNetworkSettings.sol\":5591:5617  gameprofitsNetworkSettings */\n      0x01\n        /* \"gameprofits-galactic-spdgcs-contracts/governence/gameProfitsGalacticNetworkSettings.sol\":5591:5628  gameprofitsNetworkSettings.gamesAreOn */\n      0x00\n      add\n      0x01\n        /* \"gameprofits-galactic-spdgcs-contracts/governence/gameProfitsGalacticNetworkSettings.sol\":5591:5669  gameprofitsNetworkSettings.gamesAreOn = !gameprofitsNetworkSettings.gamesAreOn */\n      0x0100\n      exp\n      dup2\n      sload\n      dup2\n      0xff\n      mul\n      not\n      and\n      swap1\n      dup4\n      iszero\n      iszero\n      mul\n      or\n      swap1\n      sstore\n      pop\n        /* \"gameprofits-galactic-spdgcs-contracts/governence/gameProfitsGalacticNetworkSettings.sol\":5448:5687  function switchgamesAreOn(... */\n      jump\t// out\n        /* \"gameprofits-galactic-spdgcs-contracts/governence/gameProfitsGalacticNetworkSettings.sol\":3969:4190  function gameprofitsFairValueSettings() public view returns (address) {... */\n    tag_90:\n        /* \"gameprofits-galactic-spdgcs-contracts/governence/gameProfitsGalacticNetworkSettings.sol\":4030:4037  address */\n      0x00\n        /* \"gameprofits-galactic-spdgcs-contracts/governence/gameProfitsGalacticNetworkSettings.sol\":4050:4092  gameprofitsSettings storage networksetting */\n      dup1\n        /* \"gameprofits-galactic-spdgcs-contracts/governence/gameProfitsGalacticNetworkSettings.sol\":4095:4121  gameprofitsNetworkSettings */\n      0x01\n        /* \"gameprofits-galactic-spdgcs-contracts/governence/gameProfitsGalacticNetworkSettings.sol\":4050:4121  gameprofitsSettings storage networksetting = gameprofitsNetworkSettings */\n      swap1\n      pop\n        /* \"gameprofits-galactic-spdgcs-contracts/governence/gameProfitsGalacticNetworkSettings.sol\":4139:4153  networksetting */\n      dup1\n        /* \"gameprofits-galactic-spdgcs-contracts/governence/gameProfitsGalacticNetworkSettings.sol\":4139:4182  networksetting.gameprofitsFairValueSettings */\n      0x07\n      add\n      0x00\n      swap1\n      sload\n      swap1\n      0x0100\n      exp\n      swap1\n      div\n      0xffffffffffffffffffffffffffffffffffffffff\n      and\n        /* \"gameprofits-galactic-spdgcs-contracts/governence/gameProfitsGalacticNetworkSettings.sol\":4132:4182  return networksetting.gameprofitsFairValueSettings */\n      swap2\n      pop\n      pop\n        /* \"gameprofits-galactic-spdgcs-contracts/governence/gameProfitsGalacticNetworkSettings.sol\":3969:4190  function gameprofitsFairValueSettings() public view returns (address) {... */\n      swap1\n      jump\t// out\n        /* \"#utility.yul\":7:133   */\n    tag_129:\n        /* \"#utility.yul\":44:51   */\n      0x00\n        /* \"#utility.yul\":84:126   */\n      0xffffffffffffffffffffffffffffffffffffffff\n        /* \"#utility.yul\":77:82   */\n      dup3\n        /* \"#utility.yul\":73:127   */\n      and\n        /* \"#utility.yul\":62:127   */\n      swap1\n      pop\n        /* \"#utility.yul\":7:133   */\n      swap2\n      swap1\n      pop\n      jump\t// out\n        /* \"#utility.yul\":139:235   */\n    tag_130:\n        /* \"#utility.yul\":176:183   */\n      0x00\n        /* \"#utility.yul\":205:229   */\n      tag_142\n        /* \"#utility.yul\":223:228   */\n      dup3\n        /* \"#utility.yul\":205:229   */\n      tag_129\n      jump\t// in\n    tag_142:\n        /* \"#utility.yul\":194:229   */\n      swap1\n      pop\n        /* \"#utility.yul\":139:235   */\n      swap2\n      swap1\n      pop\n      jump\t// out\n        /* \"#utility.yul\":241:359   */\n    tag_131:\n        /* \"#utility.yul\":328:352   */\n      tag_144\n        /* \"#utility.yul\":346:351   */\n      dup2\n        /* \"#utility.yul\":328:352   */\n      tag_130\n      jump\t// in\n    tag_144:\n        /* \"#utility.yul\":323:326   */\n      dup3\n        /* \"#utility.yul\":316:353   */\n      mstore\n        /* \"#utility.yul\":241:359   */\n      pop\n      pop\n      jump\t// out\n        /* \"#utility.yul\":365:587   */\n    tag_31:\n        /* \"#utility.yul\":458:462   */\n      0x00\n        /* \"#utility.yul\":496:498   */\n      0x20\n        /* \"#utility.yul\":485:494   */\n      dup3\n        /* \"#utility.yul\":481:499   */\n      add\n        /* \"#utility.yul\":473:499   */\n      swap1\n      pop\n        /* \"#utility.yul\":509:580   */\n      tag_146\n        /* \"#utility.yul\":577:578   */\n      0x00\n        /* \"#utility.yul\":566:575   */\n      dup4\n        /* \"#utility.yul\":562:579   */\n      add\n        /* \"#utility.yul\":553:559   */\n      dup5\n        /* \"#utility.yul\":509:580   */\n      tag_131\n      jump\t// in\n    tag_146:\n        /* \"#utility.yul\":365:587   */\n      swap3\n      swap2\n      pop\n      pop\n      jump\t// out\n        /* \"#utility.yul\":593:683   */\n    tag_132:\n        /* \"#utility.yul\":627:634   */\n      0x00\n        /* \"#utility.yul\":670:675   */\n      dup2\n        /* \"#utility.yul\":663:676   */\n      iszero\n        /* \"#utility.yul\":656:677   */\n      iszero\n        /* \"#utility.yul\":645:677   */\n      swap1\n      pop\n        /* \"#utility.yul\":593:683   */\n      swap2\n      swap1\n      pop\n      jump\t// out\n        /* \"#utility.yul\":689:798   */\n    tag_133:\n        /* \"#utility.yul\":770:791   */\n      tag_149\n        /* \"#utility.yul\":785:790   */\n      dup2\n        /* \"#utility.yul\":770:791   */\n      tag_132\n      jump\t// in\n    tag_149:\n        /* \"#utility.yul\":765:768   */\n      dup3\n        /* \"#utility.yul\":758:792   */\n      mstore\n        /* \"#utility.yul\":689:798   */\n      pop\n      pop\n      jump\t// out\n        /* \"#utility.yul\":804:1014   */\n    tag_38:\n        /* \"#utility.yul\":891:895   */\n      0x00\n        /* \"#utility.yul\":929:931   */\n      0x20\n        /* \"#utility.yul\":918:927   */\n      dup3\n        /* \"#utility.yul\":914:932   */\n      add\n        /* \"#utility.yul\":906:932   */\n      swap1\n      pop\n        /* \"#utility.yul\":942:1007   */\n      tag_151\n        /* \"#utility.yul\":1004:1005   */\n      0x00\n        /* \"#utility.yul\":993:1002   */\n      dup4\n        /* \"#utility.yul\":989:1006   */\n      add\n        /* \"#utility.yul\":980:986   */\n      dup5\n        /* \"#utility.yul\":942:1007   */\n      tag_133\n      jump\t// in\n    tag_151:\n        /* \"#utility.yul\":804:1014   */\n      swap3\n      swap2\n      pop\n      pop\n      jump\t// out\n        /* \"#utility.yul\":1101:1218   */\n    tag_135:\n        /* \"#utility.yul\":1210:1211   */\n      0x00\n        /* \"#utility.yul\":1207:1208   */\n      dup1\n        /* \"#utility.yul\":1200:1212   */\n      revert\n        /* \"#utility.yul\":1347:1469   */\n    tag_137:\n        /* \"#utility.yul\":1420:1444   */\n      tag_156\n        /* \"#utility.yul\":1438:1443   */\n      dup2\n        /* \"#utility.yul\":1420:1444   */\n      tag_130\n      jump\t// in\n    tag_156:\n        /* \"#utility.yul\":1413:1418   */\n      dup2\n        /* \"#utility.yul\":1410:1445   */\n      eq\n        /* \"#utility.yul\":1400:1463   */\n      tag_157\n      jumpi\n        /* \"#utility.yul\":1459:1460   */\n      0x00\n        /* \"#utility.yul\":1456:1457   */\n      dup1\n        /* \"#utility.yul\":1449:1461   */\n      revert\n        /* \"#utility.yul\":1400:1463   */\n    tag_157:\n        /* \"#utility.yul\":1347:1469   */\n      pop\n      jump\t// out\n        /* \"#utility.yul\":1475:1614   */\n    tag_138:\n        /* \"#utility.yul\":1521:1526   */\n      0x00\n        /* \"#utility.yul\":1559:1565   */\n      dup2\n        /* \"#utility.yul\":1546:1566   */\n      calldataload\n        /* \"#utility.yul\":1537:1566   */\n      swap1\n      pop\n        /* \"#utility.yul\":1575:1608   */\n      tag_159\n        /* \"#utility.yul\":1602:1607   */\n      dup2\n        /* \"#utility.yul\":1575:1608   */\n      tag_137\n      jump\t// in\n    tag_159:\n        /* \"#utility.yul\":1475:1614   */\n      swap3\n      swap2\n      pop\n      pop\n      jump\t// out\n        /* \"#utility.yul\":1620:1949   */\n    tag_65:\n        /* \"#utility.yul\":1679:1685   */\n      0x00\n        /* \"#utility.yul\":1728:1730   */\n      0x20\n        /* \"#utility.yul\":1716:1725   */\n      dup3\n        /* \"#utility.yul\":1707:1714   */\n      dup5\n        /* \"#utility.yul\":1703:1726   */\n      sub\n        /* \"#utility.yul\":1699:1731   */\n      slt\n        /* \"#utility.yul\":1696:1815   */\n      iszero\n      tag_161\n      jumpi\n        /* \"#utility.yul\":1734:1813   */\n      tag_162\n      tag_135\n      jump\t// in\n    tag_162:\n        /* \"#utility.yul\":1696:1815   */\n    tag_161:\n        /* \"#utility.yul\":1854:1855   */\n      0x00\n        /* \"#utility.yul\":1879:1932   */\n      tag_163\n        /* \"#utility.yul\":1924:1931   */\n      dup5\n        /* \"#utility.yul\":1915:1921   */\n      dup3\n        /* \"#utility.yul\":1904:1913   */\n      dup6\n        /* \"#utility.yul\":1900:1922   */\n      add\n        /* \"#utility.yul\":1879:1932   */\n      tag_138\n      jump\t// in\n    tag_163:\n        /* \"#utility.yul\":1869:1932   */\n      swap2\n      pop\n        /* \"#utility.yul\":1825:1942   */\n      pop\n        /* \"#utility.yul\":1620:1949   */\n      swap3\n      swap2\n      pop\n      pop\n      jump\t// out\n\n    auxdata: 0xa264697066735822122028a28b115c3756c3bcc6b739a95ec8a20cbdd22e8204bb2379fd05e594813c1964736f6c63430008100033\n}\n",
				"bytecode": {
					"linkReferences": {},
					"object": "6080604052604051806102000160405280600015158152602001600015158152602001600015158152602001600015158152602001600015158152602001600073ffffffffffffffffffffffffffffffffffffffff168152602001600073ffffffffffffffffffffffffffffffffffffffff168152602001600073ffffffffffffffffffffffffffffffffffffffff168152602001600073ffffffffffffffffffffffffffffffffffffffff168152602001600073ffffffffffffffffffffffffffffffffffffffff168152602001600073ffffffffffffffffffffffffffffffffffffffff168152602001600073ffffffffffffffffffffffffffffffffffffffff168152602001600073ffffffffffffffffffffffffffffffffffffffff168152602001600073ffffffffffffffffffffffffffffffffffffffff168152602001600073ffffffffffffffffffffffffffffffffffffffff168152602001600073ffffffffffffffffffffffffffffffffffffffff16815250600160008201518160000160006101000a81548160ff02191690831515021790555060208201518160000160016101000a81548160ff02191690831515021790555060408201518160000160026101000a81548160ff02191690831515021790555060608201518160000160036101000a81548160ff02191690831515021790555060808201518160000160046101000a81548160ff02191690831515021790555060a08201518160000160056101000a81548173ffffffffffffffffffffffffffffffffffffffff021916908373ffffffffffffffffffffffffffffffffffffffff16021790555060c08201518160010160006101000a81548173ffffffffffffffffffffffffffffffffffffffff021916908373ffffffffffffffffffffffffffffffffffffffff16021790555060e08201518160020160006101000a81548173ffffffffffffffffffffffffffffffffffffffff021916908373ffffffffffffffffffffffffffffffffffffffff1602179055506101008201518160030160006101000a81548173ffffffffffffffffffffffffffffffffffffffff021916908373ffffffffffffffffffffffffffffffffffffffff1602179055506101208201518160040160006101000a81548173ffffffffffffffffffffffffffffffffffffffff021916908373ffffffffffffffffffffffffffffffffffffffff1602179055506101408201518160050160006101000a81548173ffffffffffffffffffffffffffffffffffffffff021916908373ffffffffffffffffffffffffffffffffffffffff1602179055506101608201518160060160006101000a81548173ffffffffffffffffffffffffffffffffffffffff021916908373ffffffffffffffffffffffffffffffffffffffff1602179055506101808201518160070160006101000a81548173ffffffffffffffffffffffffffffffffffffffff021916908373ffffffffffffffffffffffffffffffffffffffff1602179055506101a08201518160080160006101000a81548173ffffffffffffffffffffffffffffffffffffffff021916908373ffffffffffffffffffffffffffffffffffffffff1602179055506101c08201518160090160006101000a81548173ffffffffffffffffffffffffffffffffffffffff021916908373ffffffffffffffffffffffffffffffffffffffff1602179055506101e082015181600a0160006101000a81548173ffffffffffffffffffffffffffffffffffffffff021916908373ffffffffffffffffffffffffffffffffffffffff160217905550505034801561053f57600080fd5b50336000806101000a81548173ffffffffffffffffffffffffffffffffffffffff021916908373ffffffffffffffffffffffffffffffffffffffff160217905550610bd28061058f6000396000f3fe608060405234801561001057600080fd5b50600436106101425760003560e01c80637a22890a116100b857806394d5bdff1161007c57806394d5bdff146102d557806397cf27b8146102f3578063a87a86aa14610311578063c461089c1461032f578063d28717231461034d578063e2c6cc7a1461035757610142565b80637a22890a14610269578063860249e41461027357806388f8a9a31461028f5780638991e44114610299578063941e32b6146102b757610142565b80633c49c63e1161010a5780633c49c63e146101c957806349e8216a146101d35780634a2690b9146101f157806350b8f5eb1461020f57806352bac0771461022d5780636ae730381461024b57610142565b80630d19de6f146101475780631c7ac31b146101655780631dd28782146101835780631fae9693146101a157806335d355ab146101bf575b600080fd5b61014f610375565b60405161015c9190610aed565b60405180910390f35b61016d6103a7565b60405161017a9190610aed565b60405180910390f35b61018b6103d9565b6040516101989190610b23565b60405180910390f35b6101a96103f8565b6040516101b69190610b23565b60405180910390f35b6101c7610417565b005b6101d16104a1565b005b6101db610650565b6040516101e89190610b23565b60405180910390f35b6101f961066f565b6040516102069190610aed565b60405180910390f35b6102176106a1565b6040516102249190610aed565b60405180910390f35b6102356106d3565b6040516102429190610b23565b60405180910390f35b6102536106f2565b6040516102609190610aed565b60405180910390f35b610271610724565b005b61028d60048036038101906102889190610b6f565b6107ae565b005b61029761084d565b005b6102a16108d7565b6040516102ae9190610aed565b60405180910390f35b6102bf610909565b6040516102cc9190610b23565b60405180910390f35b6102dd610928565b6040516102ea9190610aed565b60405180910390f35b6102fb61095a565b6040516103089190610aed565b60405180910390f35b61031961098c565b6040516103269190610aed565b60405180910390f35b6103376109be565b6040516103449190610aed565b60405180910390f35b6103556109f0565b005b61035f610a7a565b60405161036c9190610aed565b60405180910390f35b600080600190508060090160009054906101000a900473ffffffffffffffffffffffffffffffffffffffff1691505090565b600080600190508060060160009054906101000a900473ffffffffffffffffffffffffffffffffffffffff1691505090565b600080600190508060000160009054906101000a900460ff1691505090565b600080600190508060000160039054906101000a900460ff1691505090565b60008054906101000a900473ffffffffffffffffffffffffffffffffffffffff1673ffffffffffffffffffffffffffffffffffffffff163373ffffffffffffffffffffffffffffffffffffffff161461046f57600080fd5b600160000160029054906101000a900460ff1615600160000160026101000a81548160ff021916908315150217905550565b60008054906101000a900473ffffffffffffffffffffffffffffffffffffffff1673ffffffffffffffffffffffffffffffffffffffff163373ffffffffffffffffffffffffffffffffffffffff16146104f957600080fd5b60001515600160000160049054906101000a900460ff161515036105a457600160000160049054906101000a900460ff1615600160000160046101000a81548160ff02191690831515021790555060018060000160036101000a81548160ff0219169083151502179055506000600160000160016101000a81548160ff02191690831515021790555060018060000160026101000a81548160ff02191690831515021790555061064e565b60011515600160000160049054906101000a900460ff1615150361064d57600160000160049054906101000a900460ff1615600160000160046101000a81548160ff0219169083151502179055506000600160000160036101000a81548160ff0219169083151502179055506000600160000160016101000a81548160ff0219169083151502179055506000600160000160026101000a81548160ff0219169083151502179055505b5b565b600080600190508060000160019054906101000a900460ff1691505090565b600080600190508060050160009054906101000a900473ffffffffffffffffffffffffffffffffffffffff1691505090565b600080600190508060010160009054906101000a900473ffffffffffffffffffffffffffffffffffffffff1691505090565b600080600190508060000160029054906101000a900460ff1691505090565b600080600190508060080160009054906101000a900473ffffffffffffffffffffffffffffffffffffffff1691505090565b60008054906101000a900473ffffffffffffffffffffffffffffffffffffffff1673ffffffffffffffffffffffffffffffffffffffff163373ffffffffffffffffffffffffffffffffffffffff161461077c57600080fd5b600160000160039054906101000a900460ff1615600160000160036101000a81548160ff021916908315150217905550565b60008054906101000a900473ffffffffffffffffffffffffffffffffffffffff1673ffffffffffffffffffffffffffffffffffffffff163373ffffffffffffffffffffffffffffffffffffffff161461080657600080fd5b80600160000160056101000a81548173ffffffffffffffffffffffffffffffffffffffff021916908373ffffffffffffffffffffffffffffffffffffffff16021790555050565b60008054906101000a900473ffffffffffffffffffffffffffffffffffffffff1673ffffffffffffffffffffffffffffffffffffffff163373ffffffffffffffffffffffffffffffffffffffff16146108a557600080fd5b600160000160009054906101000a900460ff1615600160000160006101000a81548160ff021916908315150217905550565b600080600190508060020160009054906101000a900473ffffffffffffffffffffffffffffffffffffffff1691505090565b600080600190508060000160049054906101000a900460ff1691505090565b600080600190508060040160009054906101000a900473ffffffffffffffffffffffffffffffffffffffff1691505090565b600080600190508060030160009054906101000a900473ffffffffffffffffffffffffffffffffffffffff1691505090565b6000806001905080600a0160009054906101000a900473ffffffffffffffffffffffffffffffffffffffff1691505090565b600080600190508060000160059054906101000a900473ffffffffffffffffffffffffffffffffffffffff1691505090565b60008054906101000a900473ffffffffffffffffffffffffffffffffffffffff1673ffffffffffffffffffffffffffffffffffffffff163373ffffffffffffffffffffffffffffffffffffffff1614610a4857600080fd5b600160000160019054906101000a900460ff1615600160000160016101000a81548160ff021916908315150217905550565b600080600190508060070160009054906101000a900473ffffffffffffffffffffffffffffffffffffffff1691505090565b600073ffffffffffffffffffffffffffffffffffffffff82169050919050565b6000610ad782610aac565b9050919050565b610ae781610acc565b82525050565b6000602082019050610b026000830184610ade565b92915050565b60008115159050919050565b610b1d81610b08565b82525050565b6000602082019050610b386000830184610b14565b92915050565b600080fd5b610b4c81610acc565b8114610b5757600080fd5b50565b600081359050610b6981610b43565b92915050565b600060208284031215610b8557610b84610b3e565b5b6000610b9384828501610b5a565b9150509291505056fea264697066735822122028a28b115c3756c3bcc6b739a95ec8a20cbdd22e8204bb2379fd05e594813c1964736f6c63430008100033",
					"opcodes": "PUSH1 0x80 PUSH1 0x40 MSTORE PUSH1 0x40 MLOAD DUP1 PUSH2 0x200 ADD PUSH1 0x40 MSTORE DUP1 PUSH1 0x0 ISZERO ISZERO DUP2 MSTORE PUSH1 0x20 ADD PUSH1 0x0 ISZERO ISZERO DUP2 MSTORE PUSH1 0x20 ADD PUSH1 0x0 ISZERO ISZERO DUP2 MSTORE PUSH1 0x20 ADD PUSH1 0x0 ISZERO ISZERO DUP2 MSTORE PUSH1 0x20 ADD PUSH1 0x0 ISZERO ISZERO DUP2 MSTORE PUSH1 0x20 ADD PUSH1 0x0 PUSH20 0xFFFFFFFFFFFFFFFFFFFFFFFFFFFFFFFFFFFFFFFF AND DUP2 MSTORE PUSH1 0x20 ADD PUSH1 0x0 PUSH20 0xFFFFFFFFFFFFFFFFFFFFFFFFFFFFFFFFFFFFFFFF AND DUP2 MSTORE PUSH1 0x20 ADD PUSH1 0x0 PUSH20 0xFFFFFFFFFFFFFFFFFFFFFFFFFFFFFFFFFFFFFFFF AND DUP2 MSTORE PUSH1 0x20 ADD PUSH1 0x0 PUSH20 0xFFFFFFFFFFFFFFFFFFFFFFFFFFFFFFFFFFFFFFFF AND DUP2 MSTORE PUSH1 0x20 ADD PUSH1 0x0 PUSH20 0xFFFFFFFFFFFFFFFFFFFFFFFFFFFFFFFFFFFFFFFF AND DUP2 MSTORE PUSH1 0x20 ADD PUSH1 0x0 PUSH20 0xFFFFFFFFFFFFFFFFFFFFFFFFFFFFFFFFFFFFFFFF AND DUP2 MSTORE PUSH1 0x20 ADD PUSH1 0x0 PUSH20 0xFFFFFFFFFFFFFFFFFFFFFFFFFFFFFFFFFFFFFFFF AND DUP2 MSTORE PUSH1 0x20 ADD PUSH1 0x0 PUSH20 0xFFFFFFFFFFFFFFFFFFFFFFFFFFFFFFFFFFFFFFFF AND DUP2 MSTORE PUSH1 0x20 ADD PUSH1 0x0 PUSH20 0xFFFFFFFFFFFFFFFFFFFFFFFFFFFFFFFFFFFFFFFF AND DUP2 MSTORE PUSH1 0x20 ADD PUSH1 0x0 PUSH20 0xFFFFFFFFFFFFFFFFFFFFFFFFFFFFFFFFFFFFFFFF AND DUP2 MSTORE PUSH1 0x20 ADD PUSH1 0x0 PUSH20 0xFFFFFFFFFFFFFFFFFFFFFFFFFFFFFFFFFFFFFFFF AND DUP2 MSTORE POP PUSH1 0x1 PUSH1 0x0 DUP3 ADD MLOAD DUP2 PUSH1 0x0 ADD PUSH1 0x0 PUSH2 0x100 EXP DUP2 SLOAD DUP2 PUSH1 0xFF MUL NOT AND SWAP1 DUP4 ISZERO ISZERO MUL OR SWAP1 SSTORE POP PUSH1 0x20 DUP3 ADD MLOAD DUP2 PUSH1 0x0 ADD PUSH1 0x1 PUSH2 0x100 EXP DUP2 SLOAD DUP2 PUSH1 0xFF MUL NOT AND SWAP1 DUP4 ISZERO ISZERO MUL OR SWAP1 SSTORE POP PUSH1 0x40 DUP3 ADD MLOAD DUP2 PUSH1 0x0 ADD PUSH1 0x2 PUSH2 0x100 EXP DUP2 SLOAD DUP2 PUSH1 0xFF MUL NOT AND SWAP1 DUP4 ISZERO ISZERO MUL OR SWAP1 SSTORE POP PUSH1 0x60 DUP3 ADD MLOAD DUP2 PUSH1 0x0 ADD PUSH1 0x3 PUSH2 0x100 EXP DUP2 SLOAD DUP2 PUSH1 0xFF MUL NOT AND SWAP1 DUP4 ISZERO ISZERO MUL OR SWAP1 SSTORE POP PUSH1 0x80 DUP3 ADD MLOAD DUP2 PUSH1 0x0 ADD PUSH1 0x4 PUSH2 0x100 EXP DUP2 SLOAD DUP2 PUSH1 0xFF MUL NOT AND SWAP1 DUP4 ISZERO ISZERO MUL OR SWAP1 SSTORE POP PUSH1 0xA0 DUP3 ADD MLOAD DUP2 PUSH1 0x0 ADD PUSH1 0x5 PUSH2 0x100 EXP DUP2 SLOAD DUP2 PUSH20 0xFFFFFFFFFFFFFFFFFFFFFFFFFFFFFFFFFFFFFFFF MUL NOT AND SWAP1 DUP4 PUSH20 0xFFFFFFFFFFFFFFFFFFFFFFFFFFFFFFFFFFFFFFFF AND MUL OR SWAP1 SSTORE POP PUSH1 0xC0 DUP3 ADD MLOAD DUP2 PUSH1 0x1 ADD PUSH1 0x0 PUSH2 0x100 EXP DUP2 SLOAD DUP2 PUSH20 0xFFFFFFFFFFFFFFFFFFFFFFFFFFFFFFFFFFFFFFFF MUL NOT AND SWAP1 DUP4 PUSH20 0xFFFFFFFFFFFFFFFFFFFFFFFFFFFFFFFFFFFFFFFF AND MUL OR SWAP1 SSTORE POP PUSH1 0xE0 DUP3 ADD MLOAD DUP2 PUSH1 0x2 ADD PUSH1 0x0 PUSH2 0x100 EXP DUP2 SLOAD DUP2 PUSH20 0xFFFFFFFFFFFFFFFFFFFFFFFFFFFFFFFFFFFFFFFF MUL NOT AND SWAP1 DUP4 PUSH20 0xFFFFFFFFFFFFFFFFFFFFFFFFFFFFFFFFFFFFFFFF AND MUL OR SWAP1 SSTORE POP PUSH2 0x100 DUP3 ADD MLOAD DUP2 PUSH1 0x3 ADD PUSH1 0x0 PUSH2 0x100 EXP DUP2 SLOAD DUP2 PUSH20 0xFFFFFFFFFFFFFFFFFFFFFFFFFFFFFFFFFFFFFFFF MUL NOT AND SWAP1 DUP4 PUSH20 0xFFFFFFFFFFFFFFFFFFFFFFFFFFFFFFFFFFFFFFFF AND MUL OR SWAP1 SSTORE POP PUSH2 0x120 DUP3 ADD MLOAD DUP2 PUSH1 0x4 ADD PUSH1 0x0 PUSH2 0x100 EXP DUP2 SLOAD DUP2 PUSH20 0xFFFFFFFFFFFFFFFFFFFFFFFFFFFFFFFFFFFFFFFF MUL NOT AND SWAP1 DUP4 PUSH20 0xFFFFFFFFFFFFFFFFFFFFFFFFFFFFFFFFFFFFFFFF AND MUL OR SWAP1 SSTORE POP PUSH2 0x140 DUP3 ADD MLOAD DUP2 PUSH1 0x5 ADD PUSH1 0x0 PUSH2 0x100 EXP DUP2 SLOAD DUP2 PUSH20 0xFFFFFFFFFFFFFFFFFFFFFFFFFFFFFFFFFFFFFFFF MUL NOT AND SWAP1 DUP4 PUSH20 0xFFFFFFFFFFFFFFFFFFFFFFFFFFFFFFFFFFFFFFFF AND MUL OR SWAP1 SSTORE POP PUSH2 0x160 DUP3 ADD MLOAD DUP2 PUSH1 0x6 ADD PUSH1 0x0 PUSH2 0x100 EXP DUP2 SLOAD DUP2 PUSH20 0xFFFFFFFFFFFFFFFFFFFFFFFFFFFFFFFFFFFFFFFF MUL NOT AND SWAP1 DUP4 PUSH20 0xFFFFFFFFFFFFFFFFFFFFFFFFFFFFFFFFFFFFFFFF AND MUL OR SWAP1 SSTORE POP PUSH2 0x180 DUP3 ADD MLOAD DUP2 PUSH1 0x7 ADD PUSH1 0x0 PUSH2 0x100 EXP DUP2 SLOAD DUP2 PUSH20 0xFFFFFFFFFFFFFFFFFFFFFFFFFFFFFFFFFFFFFFFF MUL NOT AND SWAP1 DUP4 PUSH20 0xFFFFFFFFFFFFFFFFFFFFFFFFFFFFFFFFFFFFFFFF AND MUL OR SWAP1 SSTORE POP PUSH2 0x1A0 DUP3 ADD MLOAD DUP2 PUSH1 0x8 ADD PUSH1 0x0 PUSH2 0x100 EXP DUP2 SLOAD DUP2 PUSH20 0xFFFFFFFFFFFFFFFFFFFFFFFFFFFFFFFFFFFFFFFF MUL NOT AND SWAP1 DUP4 PUSH20 0xFFFFFFFFFFFFFFFFFFFFFFFFFFFFFFFFFFFFFFFF AND MUL OR SWAP1 SSTORE POP PUSH2 0x1C0 DUP3 ADD MLOAD DUP2 PUSH1 0x9 ADD PUSH1 0x0 PUSH2 0x100 EXP DUP2 SLOAD DUP2 PUSH20 0xFFFFFFFFFFFFFFFFFFFFFFFFFFFFFFFFFFFFFFFF MUL NOT AND SWAP1 DUP4 PUSH20 0xFFFFFFFFFFFFFFFFFFFFFFFFFFFFFFFFFFFFFFFF AND MUL OR SWAP1 SSTORE POP PUSH2 0x1E0 DUP3 ADD MLOAD DUP2 PUSH1 0xA ADD PUSH1 0x0 PUSH2 0x100 EXP DUP2 SLOAD DUP2 PUSH20 0xFFFFFFFFFFFFFFFFFFFFFFFFFFFFFFFFFFFFFFFF MUL NOT AND SWAP1 DUP4 PUSH20 0xFFFFFFFFFFFFFFFFFFFFFFFFFFFFFFFFFFFFFFFF AND MUL OR SWAP1 SSTORE POP POP POP CALLVALUE DUP1 ISZERO PUSH2 0x53F JUMPI PUSH1 0x0 DUP1 REVERT JUMPDEST POP CALLER PUSH1 0x0 DUP1 PUSH2 0x100 EXP DUP2 SLOAD DUP2 PUSH20 0xFFFFFFFFFFFFFFFFFFFFFFFFFFFFFFFFFFFFFFFF MUL NOT AND SWAP1 DUP4 PUSH20 0xFFFFFFFFFFFFFFFFFFFFFFFFFFFFFFFFFFFFFFFF AND MUL OR SWAP1 SSTORE POP PUSH2 0xBD2 DUP1 PUSH2 0x58F PUSH1 0x0 CODECOPY PUSH1 0x0 RETURN INVALID PUSH1 0x80 PUSH1 0x40 MSTORE CALLVALUE DUP1 ISZERO PUSH2 0x10 JUMPI PUSH1 0x0 DUP1 REVERT JUMPDEST POP PUSH1 0x4 CALLDATASIZE LT PUSH2 0x142 JUMPI PUSH1 0x0 CALLDATALOAD PUSH1 0xE0 SHR DUP1 PUSH4 0x7A22890A GT PUSH2 0xB8 JUMPI DUP1 PUSH4 0x94D5BDFF GT PUSH2 0x7C JUMPI DUP1 PUSH4 0x94D5BDFF EQ PUSH2 0x2D5 JUMPI DUP1 PUSH4 0x97CF27B8 EQ PUSH2 0x2F3 JUMPI DUP1 PUSH4 0xA87A86AA EQ PUSH2 0x311 JUMPI DUP1 PUSH4 0xC461089C EQ PUSH2 0x32F JUMPI DUP1 PUSH4 0xD2871723 EQ PUSH2 0x34D JUMPI DUP1 PUSH4 0xE2C6CC7A EQ PUSH2 0x357 JUMPI PUSH2 0x142 JUMP JUMPDEST DUP1 PUSH4 0x7A22890A EQ PUSH2 0x269 JUMPI DUP1 PUSH4 0x860249E4 EQ PUSH2 0x273 JUMPI DUP1 PUSH4 0x88F8A9A3 EQ PUSH2 0x28F JUMPI DUP1 PUSH4 0x8991E441 EQ PUSH2 0x299 JUMPI DUP1 PUSH4 0x941E32B6 EQ PUSH2 0x2B7 JUMPI PUSH2 0x142 JUMP JUMPDEST DUP1 PUSH4 0x3C49C63E GT PUSH2 0x10A JUMPI DUP1 PUSH4 0x3C49C63E EQ PUSH2 0x1C9 JUMPI DUP1 PUSH4 0x49E8216A EQ PUSH2 0x1D3 JUMPI DUP1 PUSH4 0x4A2690B9 EQ PUSH2 0x1F1 JUMPI DUP1 PUSH4 0x50B8F5EB EQ PUSH2 0x20F JUMPI DUP1 PUSH4 0x52BAC077 EQ PUSH2 0x22D JUMPI DUP1 PUSH4 0x6AE73038 EQ PUSH2 0x24B JUMPI PUSH2 0x142 JUMP JUMPDEST DUP1 PUSH4 0xD19DE6F EQ PUSH2 0x147 JUMPI DUP1 PUSH4 0x1C7AC31B EQ PUSH2 0x165 JUMPI DUP1 PUSH4 0x1DD28782 EQ PUSH2 0x183 JUMPI DUP1 PUSH4 0x1FAE9693 EQ PUSH2 0x1A1 JUMPI DUP1 PUSH4 0x35D355AB EQ PUSH2 0x1BF JUMPI JUMPDEST PUSH1 0x0 DUP1 REVERT JUMPDEST PUSH2 0x14F PUSH2 0x375 JUMP JUMPDEST PUSH1 0x40 MLOAD PUSH2 0x15C SWAP2 SWAP1 PUSH2 0xAED JUMP JUMPDEST PUSH1 0x40 MLOAD DUP1 SWAP2 SUB SWAP1 RETURN JUMPDEST PUSH2 0x16D PUSH2 0x3A7 JUMP JUMPDEST PUSH1 0x40 MLOAD PUSH2 0x17A SWAP2 SWAP1 PUSH2 0xAED JUMP JUMPDEST PUSH1 0x40 MLOAD DUP1 SWAP2 SUB SWAP1 RETURN JUMPDEST PUSH2 0x18B PUSH2 0x3D9 JUMP JUMPDEST PUSH1 0x40 MLOAD PUSH2 0x198 SWAP2 SWAP1 PUSH2 0xB23 JUMP JUMPDEST PUSH1 0x40 MLOAD DUP1 SWAP2 SUB SWAP1 RETURN JUMPDEST PUSH2 0x1A9 PUSH2 0x3F8 JUMP JUMPDEST PUSH1 0x40 MLOAD PUSH2 0x1B6 SWAP2 SWAP1 PUSH2 0xB23 JUMP JUMPDEST PUSH1 0x40 MLOAD DUP1 SWAP2 SUB SWAP1 RETURN JUMPDEST PUSH2 0x1C7 PUSH2 0x417 JUMP JUMPDEST STOP JUMPDEST PUSH2 0x1D1 PUSH2 0x4A1 JUMP JUMPDEST STOP JUMPDEST PUSH2 0x1DB PUSH2 0x650 JUMP JUMPDEST PUSH1 0x40 MLOAD PUSH2 0x1E8 SWAP2 SWAP1 PUSH2 0xB23 JUMP JUMPDEST PUSH1 0x40 MLOAD DUP1 SWAP2 SUB SWAP1 RETURN JUMPDEST PUSH2 0x1F9 PUSH2 0x66F JUMP JUMPDEST PUSH1 0x40 MLOAD PUSH2 0x206 SWAP2 SWAP1 PUSH2 0xAED JUMP JUMPDEST PUSH1 0x40 MLOAD DUP1 SWAP2 SUB SWAP1 RETURN JUMPDEST PUSH2 0x217 PUSH2 0x6A1 JUMP JUMPDEST PUSH1 0x40 MLOAD PUSH2 0x224 SWAP2 SWAP1 PUSH2 0xAED JUMP JUMPDEST PUSH1 0x40 MLOAD DUP1 SWAP2 SUB SWAP1 RETURN JUMPDEST PUSH2 0x235 PUSH2 0x6D3 JUMP JUMPDEST PUSH1 0x40 MLOAD PUSH2 0x242 SWAP2 SWAP1 PUSH2 0xB23 JUMP JUMPDEST PUSH1 0x40 MLOAD DUP1 SWAP2 SUB SWAP1 RETURN JUMPDEST PUSH2 0x253 PUSH2 0x6F2 JUMP JUMPDEST PUSH1 0x40 MLOAD PUSH2 0x260 SWAP2 SWAP1 PUSH2 0xAED JUMP JUMPDEST PUSH1 0x40 MLOAD DUP1 SWAP2 SUB SWAP1 RETURN JUMPDEST PUSH2 0x271 PUSH2 0x724 JUMP JUMPDEST STOP JUMPDEST PUSH2 0x28D PUSH1 0x4 DUP1 CALLDATASIZE SUB DUP2 ADD SWAP1 PUSH2 0x288 SWAP2 SWAP1 PUSH2 0xB6F JUMP JUMPDEST PUSH2 0x7AE JUMP JUMPDEST STOP JUMPDEST PUSH2 0x297 PUSH2 0x84D JUMP JUMPDEST STOP JUMPDEST PUSH2 0x2A1 PUSH2 0x8D7 JUMP JUMPDEST PUSH1 0x40 MLOAD PUSH2 0x2AE SWAP2 SWAP1 PUSH2 0xAED JUMP JUMPDEST PUSH1 0x40 MLOAD DUP1 SWAP2 SUB SWAP1 RETURN JUMPDEST PUSH2 0x2BF PUSH2 0x909 JUMP JUMPDEST PUSH1 0x40 MLOAD PUSH2 0x2CC SWAP2 SWAP1 PUSH2 0xB23 JUMP JUMPDEST PUSH1 0x40 MLOAD DUP1 SWAP2 SUB SWAP1 RETURN JUMPDEST PUSH2 0x2DD PUSH2 0x928 JUMP JUMPDEST PUSH1 0x40 MLOAD PUSH2 0x2EA SWAP2 SWAP1 PUSH2 0xAED JUMP JUMPDEST PUSH1 0x40 MLOAD DUP1 SWAP2 SUB SWAP1 RETURN JUMPDEST PUSH2 0x2FB PUSH2 0x95A JUMP JUMPDEST PUSH1 0x40 MLOAD PUSH2 0x308 SWAP2 SWAP1 PUSH2 0xAED JUMP JUMPDEST PUSH1 0x40 MLOAD DUP1 SWAP2 SUB SWAP1 RETURN JUMPDEST PUSH2 0x319 PUSH2 0x98C JUMP JUMPDEST PUSH1 0x40 MLOAD PUSH2 0x326 SWAP2 SWAP1 PUSH2 0xAED JUMP JUMPDEST PUSH1 0x40 MLOAD DUP1 SWAP2 SUB SWAP1 RETURN JUMPDEST PUSH2 0x337 PUSH2 0x9BE JUMP JUMPDEST PUSH1 0x40 MLOAD PUSH2 0x344 SWAP2 SWAP1 PUSH2 0xAED JUMP JUMPDEST PUSH1 0x40 MLOAD DUP1 SWAP2 SUB SWAP1 RETURN JUMPDEST PUSH2 0x355 PUSH2 0x9F0 JUMP JUMPDEST STOP JUMPDEST PUSH2 0x35F PUSH2 0xA7A JUMP JUMPDEST PUSH1 0x40 MLOAD PUSH2 0x36C SWAP2 SWAP1 PUSH2 0xAED JUMP JUMPDEST PUSH1 0x40 MLOAD DUP1 SWAP2 SUB SWAP1 RETURN JUMPDEST PUSH1 0x0 DUP1 PUSH1 0x1 SWAP1 POP DUP1 PUSH1 0x9 ADD PUSH1 0x0 SWAP1 SLOAD SWAP1 PUSH2 0x100 EXP SWAP1 DIV PUSH20 0xFFFFFFFFFFFFFFFFFFFFFFFFFFFFFFFFFFFFFFFF AND SWAP2 POP POP SWAP1 JUMP JUMPDEST PUSH1 0x0 DUP1 PUSH1 0x1 SWAP1 POP DUP1 PUSH1 0x6 ADD PUSH1 0x0 SWAP1 SLOAD SWAP1 PUSH2 0x100 EXP SWAP1 DIV PUSH20 0xFFFFFFFFFFFFFFFFFFFFFFFFFFFFFFFFFFFFFFFF AND SWAP2 POP POP SWAP1 JUMP JUMPDEST PUSH1 0x0 DUP1 PUSH1 0x1 SWAP1 POP DUP1 PUSH1 0x0 ADD PUSH1 0x0 SWAP1 SLOAD SWAP1 PUSH2 0x100 EXP SWAP1 DIV PUSH1 0xFF AND SWAP2 POP POP SWAP1 JUMP JUMPDEST PUSH1 0x0 DUP1 PUSH1 0x1 SWAP1 POP DUP1 PUSH1 0x0 ADD PUSH1 0x3 SWAP1 SLOAD SWAP1 PUSH2 0x100 EXP SWAP1 DIV PUSH1 0xFF AND SWAP2 POP POP SWAP1 JUMP JUMPDEST PUSH1 0x0 DUP1 SLOAD SWAP1 PUSH2 0x100 EXP SWAP1 DIV PUSH20 0xFFFFFFFFFFFFFFFFFFFFFFFFFFFFFFFFFFFFFFFF AND PUSH20 0xFFFFFFFFFFFFFFFFFFFFFFFFFFFFFFFFFFFFFFFF AND CALLER PUSH20 0xFFFFFFFFFFFFFFFFFFFFFFFFFFFFFFFFFFFFFFFF AND EQ PUSH2 0x46F JUMPI PUSH1 0x0 DUP1 REVERT JUMPDEST PUSH1 0x1 PUSH1 0x0 ADD PUSH1 0x2 SWAP1 SLOAD SWAP1 PUSH2 0x100 EXP SWAP1 DIV PUSH1 0xFF AND ISZERO PUSH1 0x1 PUSH1 0x0 ADD PUSH1 0x2 PUSH2 0x100 EXP DUP2 SLOAD DUP2 PUSH1 0xFF MUL NOT AND SWAP1 DUP4 ISZERO ISZERO MUL OR SWAP1 SSTORE POP JUMP JUMPDEST PUSH1 0x0 DUP1 SLOAD SWAP1 PUSH2 0x100 EXP SWAP1 DIV PUSH20 0xFFFFFFFFFFFFFFFFFFFFFFFFFFFFFFFFFFFFFFFF AND PUSH20 0xFFFFFFFFFFFFFFFFFFFFFFFFFFFFFFFFFFFFFFFF AND CALLER PUSH20 0xFFFFFFFFFFFFFFFFFFFFFFFFFFFFFFFFFFFFFFFF AND EQ PUSH2 0x4F9 JUMPI PUSH1 0x0 DUP1 REVERT JUMPDEST PUSH1 0x0 ISZERO ISZERO PUSH1 0x1 PUSH1 0x0 ADD PUSH1 0x4 SWAP1 SLOAD SWAP1 PUSH2 0x100 EXP SWAP1 DIV PUSH1 0xFF AND ISZERO ISZERO SUB PUSH2 0x5A4 JUMPI PUSH1 0x1 PUSH1 0x0 ADD PUSH1 0x4 SWAP1 SLOAD SWAP1 PUSH2 0x100 EXP SWAP1 DIV PUSH1 0xFF AND ISZERO PUSH1 0x1 PUSH1 0x0 ADD PUSH1 0x4 PUSH2 0x100 EXP DUP2 SLOAD DUP2 PUSH1 0xFF MUL NOT AND SWAP1 DUP4 ISZERO ISZERO MUL OR SWAP1 SSTORE POP PUSH1 0x1 DUP1 PUSH1 0x0 ADD PUSH1 0x3 PUSH2 0x100 EXP DUP2 SLOAD DUP2 PUSH1 0xFF MUL NOT AND SWAP1 DUP4 ISZERO ISZERO MUL OR SWAP1 SSTORE POP PUSH1 0x0 PUSH1 0x1 PUSH1 0x0 ADD PUSH1 0x1 PUSH2 0x100 EXP DUP2 SLOAD DUP2 PUSH1 0xFF MUL NOT AND SWAP1 DUP4 ISZERO ISZERO MUL OR SWAP1 SSTORE POP PUSH1 0x1 DUP1 PUSH1 0x0 ADD PUSH1 0x2 PUSH2 0x100 EXP DUP2 SLOAD DUP2 PUSH1 0xFF MUL NOT AND SWAP1 DUP4 ISZERO ISZERO MUL OR SWAP1 SSTORE POP PUSH2 0x64E JUMP JUMPDEST PUSH1 0x1 ISZERO ISZERO PUSH1 0x1 PUSH1 0x0 ADD PUSH1 0x4 SWAP1 SLOAD SWAP1 PUSH2 0x100 EXP SWAP1 DIV PUSH1 0xFF AND ISZERO ISZERO SUB PUSH2 0x64D JUMPI PUSH1 0x1 PUSH1 0x0 ADD PUSH1 0x4 SWAP1 SLOAD SWAP1 PUSH2 0x100 EXP SWAP1 DIV PUSH1 0xFF AND ISZERO PUSH1 0x1 PUSH1 0x0 ADD PUSH1 0x4 PUSH2 0x100 EXP DUP2 SLOAD DUP2 PUSH1 0xFF MUL NOT AND SWAP1 DUP4 ISZERO ISZERO MUL OR SWAP1 SSTORE POP PUSH1 0x0 PUSH1 0x1 PUSH1 0x0 ADD PUSH1 0x3 PUSH2 0x100 EXP DUP2 SLOAD DUP2 PUSH1 0xFF MUL NOT AND SWAP1 DUP4 ISZERO ISZERO MUL OR SWAP1 SSTORE POP PUSH1 0x0 PUSH1 0x1 PUSH1 0x0 ADD PUSH1 0x1 PUSH2 0x100 EXP DUP2 SLOAD DUP2 PUSH1 0xFF MUL NOT AND SWAP1 DUP4 ISZERO ISZERO MUL OR SWAP1 SSTORE POP PUSH1 0x0 PUSH1 0x1 PUSH1 0x0 ADD PUSH1 0x2 PUSH2 0x100 EXP DUP2 SLOAD DUP2 PUSH1 0xFF MUL NOT AND SWAP1 DUP4 ISZERO ISZERO MUL OR SWAP1 SSTORE POP JUMPDEST JUMPDEST JUMP JUMPDEST PUSH1 0x0 DUP1 PUSH1 0x1 SWAP1 POP DUP1 PUSH1 0x0 ADD PUSH1 0x1 SWAP1 SLOAD SWAP1 PUSH2 0x100 EXP SWAP1 DIV PUSH1 0xFF AND SWAP2 POP POP SWAP1 JUMP JUMPDEST PUSH1 0x0 DUP1 PUSH1 0x1 SWAP1 POP DUP1 PUSH1 0x5 ADD PUSH1 0x0 SWAP1 SLOAD SWAP1 PUSH2 0x100 EXP SWAP1 DIV PUSH20 0xFFFFFFFFFFFFFFFFFFFFFFFFFFFFFFFFFFFFFFFF AND SWAP2 POP POP SWAP1 JUMP JUMPDEST PUSH1 0x0 DUP1 PUSH1 0x1 SWAP1 POP DUP1 PUSH1 0x1 ADD PUSH1 0x0 SWAP1 SLOAD SWAP1 PUSH2 0x100 EXP SWAP1 DIV PUSH20 0xFFFFFFFFFFFFFFFFFFFFFFFFFFFFFFFFFFFFFFFF AND SWAP2 POP POP SWAP1 JUMP JUMPDEST PUSH1 0x0 DUP1 PUSH1 0x1 SWAP1 POP DUP1 PUSH1 0x0 ADD PUSH1 0x2 SWAP1 SLOAD SWAP1 PUSH2 0x100 EXP SWAP1 DIV PUSH1 0xFF AND SWAP2 POP POP SWAP1 JUMP JUMPDEST PUSH1 0x0 DUP1 PUSH1 0x1 SWAP1 POP DUP1 PUSH1 0x8 ADD PUSH1 0x0 SWAP1 SLOAD SWAP1 PUSH2 0x100 EXP SWAP1 DIV PUSH20 0xFFFFFFFFFFFFFFFFFFFFFFFFFFFFFFFFFFFFFFFF AND SWAP2 POP POP SWAP1 JUMP JUMPDEST PUSH1 0x0 DUP1 SLOAD SWAP1 PUSH2 0x100 EXP SWAP1 DIV PUSH20 0xFFFFFFFFFFFFFFFFFFFFFFFFFFFFFFFFFFFFFFFF AND PUSH20 0xFFFFFFFFFFFFFFFFFFFFFFFFFFFFFFFFFFFFFFFF AND CALLER PUSH20 0xFFFFFFFFFFFFFFFFFFFFFFFFFFFFFFFFFFFFFFFF AND EQ PUSH2 0x77C JUMPI PUSH1 0x0 DUP1 REVERT JUMPDEST PUSH1 0x1 PUSH1 0x0 ADD PUSH1 0x3 SWAP1 SLOAD SWAP1 PUSH2 0x100 EXP SWAP1 DIV PUSH1 0xFF AND ISZERO PUSH1 0x1 PUSH1 0x0 ADD PUSH1 0x3 PUSH2 0x100 EXP DUP2 SLOAD DUP2 PUSH1 0xFF MUL NOT AND SWAP1 DUP4 ISZERO ISZERO MUL OR SWAP1 SSTORE POP JUMP JUMPDEST PUSH1 0x0 DUP1 SLOAD SWAP1 PUSH2 0x100 EXP SWAP1 DIV PUSH20 0xFFFFFFFFFFFFFFFFFFFFFFFFFFFFFFFFFFFFFFFF AND PUSH20 0xFFFFFFFFFFFFFFFFFFFFFFFFFFFFFFFFFFFFFFFF AND CALLER PUSH20 0xFFFFFFFFFFFFFFFFFFFFFFFFFFFFFFFFFFFFFFFF AND EQ PUSH2 0x806 JUMPI PUSH1 0x0 DUP1 REVERT JUMPDEST DUP1 PUSH1 0x1 PUSH1 0x0 ADD PUSH1 0x5 PUSH2 0x100 EXP DUP2 SLOAD DUP2 PUSH20 0xFFFFFFFFFFFFFFFFFFFFFFFFFFFFFFFFFFFFFFFF MUL NOT AND SWAP1 DUP4 PUSH20 0xFFFFFFFFFFFFFFFFFFFFFFFFFFFFFFFFFFFFFFFF AND MUL OR SWAP1 SSTORE POP POP JUMP JUMPDEST PUSH1 0x0 DUP1 SLOAD SWAP1 PUSH2 0x100 EXP SWAP1 DIV PUSH20 0xFFFFFFFFFFFFFFFFFFFFFFFFFFFFFFFFFFFFFFFF AND PUSH20 0xFFFFFFFFFFFFFFFFFFFFFFFFFFFFFFFFFFFFFFFF AND CALLER PUSH20 0xFFFFFFFFFFFFFFFFFFFFFFFFFFFFFFFFFFFFFFFF AND EQ PUSH2 0x8A5 JUMPI PUSH1 0x0 DUP1 REVERT JUMPDEST PUSH1 0x1 PUSH1 0x0 ADD PUSH1 0x0 SWAP1 SLOAD SWAP1 PUSH2 0x100 EXP SWAP1 DIV PUSH1 0xFF AND ISZERO PUSH1 0x1 PUSH1 0x0 ADD PUSH1 0x0 PUSH2 0x100 EXP DUP2 SLOAD DUP2 PUSH1 0xFF MUL NOT AND SWAP1 DUP4 ISZERO ISZERO MUL OR SWAP1 SSTORE POP JUMP JUMPDEST PUSH1 0x0 DUP1 PUSH1 0x1 SWAP1 POP DUP1 PUSH1 0x2 ADD PUSH1 0x0 SWAP1 SLOAD SWAP1 PUSH2 0x100 EXP SWAP1 DIV PUSH20 0xFFFFFFFFFFFFFFFFFFFFFFFFFFFFFFFFFFFFFFFF AND SWAP2 POP POP SWAP1 JUMP JUMPDEST PUSH1 0x0 DUP1 PUSH1 0x1 SWAP1 POP DUP1 PUSH1 0x0 ADD PUSH1 0x4 SWAP1 SLOAD SWAP1 PUSH2 0x100 EXP SWAP1 DIV PUSH1 0xFF AND SWAP2 POP POP SWAP1 JUMP JUMPDEST PUSH1 0x0 DUP1 PUSH1 0x1 SWAP1 POP DUP1 PUSH1 0x4 ADD PUSH1 0x0 SWAP1 SLOAD SWAP1 PUSH2 0x100 EXP SWAP1 DIV PUSH20 0xFFFFFFFFFFFFFFFFFFFFFFFFFFFFFFFFFFFFFFFF AND SWAP2 POP POP SWAP1 JUMP JUMPDEST PUSH1 0x0 DUP1 PUSH1 0x1 SWAP1 POP DUP1 PUSH1 0x3 ADD PUSH1 0x0 SWAP1 SLOAD SWAP1 PUSH2 0x100 EXP SWAP1 DIV PUSH20 0xFFFFFFFFFFFFFFFFFFFFFFFFFFFFFFFFFFFFFFFF AND SWAP2 POP POP SWAP1 JUMP JUMPDEST PUSH1 0x0 DUP1 PUSH1 0x1 SWAP1 POP DUP1 PUSH1 0xA ADD PUSH1 0x0 SWAP1 SLOAD SWAP1 PUSH2 0x100 EXP SWAP1 DIV PUSH20 0xFFFFFFFFFFFFFFFFFFFFFFFFFFFFFFFFFFFFFFFF AND SWAP2 POP POP SWAP1 JUMP JUMPDEST PUSH1 0x0 DUP1 PUSH1 0x1 SWAP1 POP DUP1 PUSH1 0x0 ADD PUSH1 0x5 SWAP1 SLOAD SWAP1 PUSH2 0x100 EXP SWAP1 DIV PUSH20 0xFFFFFFFFFFFFFFFFFFFFFFFFFFFFFFFFFFFFFFFF AND SWAP2 POP POP SWAP1 JUMP JUMPDEST PUSH1 0x0 DUP1 SLOAD SWAP1 PUSH2 0x100 EXP SWAP1 DIV PUSH20 0xFFFFFFFFFFFFFFFFFFFFFFFFFFFFFFFFFFFFFFFF AND PUSH20 0xFFFFFFFFFFFFFFFFFFFFFFFFFFFFFFFFFFFFFFFF AND CALLER PUSH20 0xFFFFFFFFFFFFFFFFFFFFFFFFFFFFFFFFFFFFFFFF AND EQ PUSH2 0xA48 JUMPI PUSH1 0x0 DUP1 REVERT JUMPDEST PUSH1 0x1 PUSH1 0x0 ADD PUSH1 0x1 SWAP1 SLOAD SWAP1 PUSH2 0x100 EXP SWAP1 DIV PUSH1 0xFF AND ISZERO PUSH1 0x1 PUSH1 0x0 ADD PUSH1 0x1 PUSH2 0x100 EXP DUP2 SLOAD DUP2 PUSH1 0xFF MUL NOT AND SWAP1 DUP4 ISZERO ISZERO MUL OR SWAP1 SSTORE POP JUMP JUMPDEST PUSH1 0x0 DUP1 PUSH1 0x1 SWAP1 POP DUP1 PUSH1 0x7 ADD PUSH1 0x0 SWAP1 SLOAD SWAP1 PUSH2 0x100 EXP SWAP1 DIV PUSH20 0xFFFFFFFFFFFFFFFFFFFFFFFFFFFFFFFFFFFFFFFF AND SWAP2 POP POP SWAP1 JUMP JUMPDEST PUSH1 0x0 PUSH20 0xFFFFFFFFFFFFFFFFFFFFFFFFFFFFFFFFFFFFFFFF DUP3 AND SWAP1 POP SWAP2 SWAP1 POP JUMP JUMPDEST PUSH1 0x0 PUSH2 0xAD7 DUP3 PUSH2 0xAAC JUMP JUMPDEST SWAP1 POP SWAP2 SWAP1 POP JUMP JUMPDEST PUSH2 0xAE7 DUP2 PUSH2 0xACC JUMP JUMPDEST DUP3 MSTORE POP POP JUMP JUMPDEST PUSH1 0x0 PUSH1 0x20 DUP3 ADD SWAP1 POP PUSH2 0xB02 PUSH1 0x0 DUP4 ADD DUP5 PUSH2 0xADE JUMP JUMPDEST SWAP3 SWAP2 POP POP JUMP JUMPDEST PUSH1 0x0 DUP2 ISZERO ISZERO SWAP1 POP SWAP2 SWAP1 POP JUMP JUMPDEST PUSH2 0xB1D DUP2 PUSH2 0xB08 JUMP JUMPDEST DUP3 MSTORE POP POP JUMP JUMPDEST PUSH1 0x0 PUSH1 0x20 DUP3 ADD SWAP1 POP PUSH2 0xB38 PUSH1 0x0 DUP4 ADD DUP5 PUSH2 0xB14 JUMP JUMPDEST SWAP3 SWAP2 POP POP JUMP JUMPDEST PUSH1 0x0 DUP1 REVERT JUMPDEST PUSH2 0xB4C DUP2 PUSH2 0xACC JUMP JUMPDEST DUP2 EQ PUSH2 0xB57 JUMPI PUSH1 0x0 DUP1 REVERT JUMPDEST POP JUMP JUMPDEST PUSH1 0x0 DUP2 CALLDATALOAD SWAP1 POP PUSH2 0xB69 DUP2 PUSH2 0xB43 JUMP JUMPDEST SWAP3 SWAP2 POP POP JUMP JUMPDEST PUSH1 0x0 PUSH1 0x20 DUP3 DUP5 SUB SLT ISZERO PUSH2 0xB85 JUMPI PUSH2 0xB84 PUSH2 0xB3E JUMP JUMPDEST JUMPDEST PUSH1 0x0 PUSH2 0xB93 DUP5 DUP3 DUP6 ADD PUSH2 0xB5A JUMP JUMPDEST SWAP2 POP POP SWAP3 SWAP2 POP POP JUMP INVALID LOG2 PUSH5 0x6970667358 0x22 SLT KECCAK256 0x28 LOG2 DUP12 GT 0x5C CALLDATACOPY JUMP 0xC3 0xBC 0xC6 0xB7 CODECOPY 0xA9 0x5E 0xC8 LOG2 0xC 0xBD 0xD2 0x2E DUP3 DIV 0xBB 0x23 PUSH26 0xFD05E594813C1964736F6C634300081000330000000000000000 "
				},
				"gasEstimates": {
					"creation": {
						"codeDepositCost": "605200",
						"executionCost": "414029",
						"totalCost": "1019229"
					},
					"external": {
						"gameprofitsExperimentSettings()": "2630",
						"gameprofitsFairPlaySettings()": "2587",
						"gameprofitsFairSoulsActSettings()": "2674",
						"gameprofitsFairValueSettings()": "2673",
						"gameprofitsGoverenenceSettings()": "2630",
						"gameprofitsIchoroniumTableSettings()": "2585",
						"gameprofitsMasterVideoGamesSettings()": "2607",
						"gameprofitsMetaVerseSettings()": "2563",
						"gameprofitsMetaVerseUniverseItems()": "2608",
						"gameprofitsPremiumExchangeTraderSettings()": "2565",
						"gameprofitsfinanceSettings()": "2679",
						"isgameNetworkActive()": "2566",
						"isgamesAreCoolingDown()": "2638",
						"isgamesAreDeactivated()": "2659",
						"isgamesAreOn()": "2593",
						"isgamesKillSwitch()": "2659",
						"switchgameNetworkActive()": "28796",
						"switchgameprofitsfinanceSettings(address)": "26990",
						"switchgamesAreCoolingDown()": "28852",
						"switchgamesAreDeactivated()": "28941",
						"switchgamesAreOn()": "28939",
						"switchgamesKillSwitch()": "106276"
					}
				},
				"methodIdentifiers": {
					"gameprofitsExperimentSettings()": "50b8f5eb",
					"gameprofitsFairPlaySettings()": "1c7ac31b",
					"gameprofitsFairSoulsActSettings()": "6ae73038",
					"gameprofitsFairValueSettings()": "e2c6cc7a",
					"gameprofitsGoverenenceSettings()": "8991e441",
					"gameprofitsIchoroniumTableSettings()": "97cf27b8",
					"gameprofitsMasterVideoGamesSettings()": "a87a86aa",
					"gameprofitsMetaVerseSettings()": "94d5bdff",
					"gameprofitsMetaVerseUniverseItems()": "4a2690b9",
					"gameprofitsPremiumExchangeTraderSettings()": "0d19de6f",
					"gameprofitsfinanceSettings()": "c461089c",
					"isgameNetworkActive()": "1dd28782",
					"isgamesAreCoolingDown()": "1fae9693",
					"isgamesAreDeactivated()": "52bac077",
					"isgamesAreOn()": "49e8216a",
					"isgamesKillSwitch()": "941e32b6",
					"switchgameNetworkActive()": "88f8a9a3",
					"switchgameprofitsfinanceSettings(address)": "860249e4",
					"switchgamesAreCoolingDown()": "7a22890a",
					"switchgamesAreDeactivated()": "35d355ab",
					"switchgamesAreOn()": "d2871723",
					"switchgamesKillSwitch()": "3c49c63e"
				}
			},
			"storageLayout": {
				"storage": [
					{
						"astId": 3,
						"contract": "gameprofits-galactic-spdgcs-contracts/governence/gameProfitsGalacticNetworkSettings.sol:gameprofitsGalacticNetworkSettings",
						"label": "owner",
						"offset": 0,
						"slot": "0",
						"type": "t_address"
					},
					{
						"astId": 57,
						"contract": "gameprofits-galactic-spdgcs-contracts/governence/gameProfitsGalacticNetworkSettings.sol:gameprofitsGalacticNetworkSettings",
						"label": "gameprofitsNetworkSettings",
						"offset": 0,
						"slot": "1",
						"type": "t_struct(gameprofitsSettings)36_storage"
					}
				],
				"types": {
					"t_address": {
						"encoding": "inplace",
						"label": "address",
						"numberOfBytes": "20"
					},
					"t_bool": {
						"encoding": "inplace",
						"label": "bool",
						"numberOfBytes": "1"
					},
					"t_struct(gameprofitsSettings)36_storage": {
						"encoding": "inplace",
						"label": "struct gameprofitsGalacticNetworkSettings.gameprofitsSettings",
						"members": [
							{
								"astId": 5,
								"contract": "gameprofits-galactic-spdgcs-contracts/governence/gameProfitsGalacticNetworkSettings.sol:gameprofitsGalacticNetworkSettings",
								"label": "gameNetworkActive",
								"offset": 0,
								"slot": "0",
								"type": "t_bool"
							},
							{
								"astId": 7,
								"contract": "gameprofits-galactic-spdgcs-contracts/governence/gameProfitsGalacticNetworkSettings.sol:gameprofitsGalacticNetworkSettings",
								"label": "gamesAreOn",
								"offset": 1,
								"slot": "0",
								"type": "t_bool"
							},
							{
								"astId": 9,
								"contract": "gameprofits-galactic-spdgcs-contracts/governence/gameProfitsGalacticNetworkSettings.sol:gameprofitsGalacticNetworkSettings",
								"label": "gamesAreDeactivated",
								"offset": 2,
								"slot": "0",
								"type": "t_bool"
							},
							{
								"astId": 11,
								"contract": "gameprofits-galactic-spdgcs-contracts/governence/gameProfitsGalacticNetworkSettings.sol:gameprofitsGalacticNetworkSettings",
								"label": "gamesAreCoolingDown",
								"offset": 3,
								"slot": "0",
								"type": "t_bool"
							},
							{
								"astId": 13,
								"contract": "gameprofits-galactic-spdgcs-contracts/governence/gameProfitsGalacticNetworkSettings.sol:gameprofitsGalacticNetworkSettings",
								"label": "gamesKillSwitch",
								"offset": 4,
								"slot": "0",
								"type": "t_bool"
							},
							{
								"astId": 15,
								"contract": "gameprofits-galactic-spdgcs-contracts/governence/gameProfitsGalacticNetworkSettings.sol:gameprofitsGalacticNetworkSettings",
								"label": "gameprofitsfinanceSettings",
								"offset": 5,
								"slot": "0",
								"type": "t_address"
							},
							{
								"astId": 17,
								"contract": "gameprofits-galactic-spdgcs-contracts/governence/gameProfitsGalacticNetworkSettings.sol:gameprofitsGalacticNetworkSettings",
								"label": "gameprofitsExperimentSettings",
								"offset": 0,
								"slot": "1",
								"type": "t_address"
							},
							{
								"astId": 19,
								"contract": "gameprofits-galactic-spdgcs-contracts/governence/gameProfitsGalacticNetworkSettings.sol:gameprofitsGalacticNetworkSettings",
								"label": "gameprofitsGoverenenceSettings",
								"offset": 0,
								"slot": "2",
								"type": "t_address"
							},
							{
								"astId": 21,
								"contract": "gameprofits-galactic-spdgcs-contracts/governence/gameProfitsGalacticNetworkSettings.sol:gameprofitsGalacticNetworkSettings",
								"label": "gameprofitsIchoroniumTableSettings",
								"offset": 0,
								"slot": "3",
								"type": "t_address"
							},
							{
								"astId": 23,
								"contract": "gameprofits-galactic-spdgcs-contracts/governence/gameProfitsGalacticNetworkSettings.sol:gameprofitsGalacticNetworkSettings",
								"label": "gameprofitsMetaVerseSettings",
								"offset": 0,
								"slot": "4",
								"type": "t_address"
							},
							{
								"astId": 25,
								"contract": "gameprofits-galactic-spdgcs-contracts/governence/gameProfitsGalacticNetworkSettings.sol:gameprofitsGalacticNetworkSettings",
								"label": "gameprofitsMetaVerseUniverseItems",
								"offset": 0,
								"slot": "5",
								"type": "t_address"
							},
							{
								"astId": 27,
								"contract": "gameprofits-galactic-spdgcs-contracts/governence/gameProfitsGalacticNetworkSettings.sol:gameprofitsGalacticNetworkSettings",
								"label": "gameprofitsFairPlaySettings",
								"offset": 0,
								"slot": "6",
								"type": "t_address"
							},
							{
								"astId": 29,
								"contract": "gameprofits-galactic-spdgcs-contracts/governence/gameProfitsGalacticNetworkSettings.sol:gameprofitsGalacticNetworkSettings",
								"label": "gameprofitsFairValueSettings",
								"offset": 0,
								"slot": "7",
								"type": "t_address"
							},
							{
								"astId": 31,
								"contract": "gameprofits-galactic-spdgcs-contracts/governence/gameProfitsGalacticNetworkSettings.sol:gameprofitsGalacticNetworkSettings",
								"label": "gameprofitsFairSoulsActSettings",
								"offset": 0,
								"slot": "8",
								"type": "t_address"
							},
							{
								"astId": 33,
								"contract": "gameprofits-galactic-spdgcs-contracts/governence/gameProfitsGalacticNetworkSettings.sol:gameprofitsGalacticNetworkSettings",
								"label": "gameprofitsPremiumExchangeTraderSettings",
								"offset": 0,
								"slot": "9",
								"type": "t_address"
							},
							{
								"astId": 35,
								"contract": "gameprofits-galactic-spdgcs-contracts/governence/gameProfitsGalacticNetworkSettings.sol:gameprofitsGalacticNetworkSettings",
								"label": "gameprofitsMasterVideoGamesSettings",
								"offset": 0,
								"slot": "10",
								"type": "t_address"
							}
						],
						"numberOfBytes": "352"
					}
				}
			},
			"userdoc": {
				"kind": "user",
				"methods": {},
				"version": 1
			}
		}
	}
}