{
	"gameprofits-galactic-spdgcs-contracts/governence/gameProfitsGalacticNetworkSettings.sol": {
		"gameprofitsGalacticNetworkSettings": {
			"abi": [
				{
					"inputs": [],
					"stateMutability": "nonpayable",
					"type": "constructor"
				},
				{
					"inputs": [],
					"name": "isgameNetworkActive",
					"outputs": [
						{
							"internalType": "bool",
							"name": "",
							"type": "bool"
						}
					],
					"stateMutability": "view",
					"type": "function"
				},
				{
					"inputs": [],
					"name": "isgamesAreDeactivated",
					"outputs": [
						{
							"internalType": "bool",
							"name": "",
							"type": "bool"
						}
					],
					"stateMutability": "view",
					"type": "function"
				},
				{
					"inputs": [],
					"name": "isgamesAreOn",
					"outputs": [
						{
							"internalType": "bool",
							"name": "",
							"type": "bool"
						}
					],
					"stateMutability": "view",
					"type": "function"
				}
			],
			"devdoc": {
				"kind": "dev",
				"methods": {},
				"version": 1
			},
			"evm": {
				"assembly": "    /* \"gameprofits-galactic-spdgcs-contracts/governence/gameProfitsGalacticNetworkSettings.sol\":87:2152  contract gameprofitsGalacticNetworkSettings {... */\n  mstore(0x40, 0x80)\n    /* \"gameprofits-galactic-spdgcs-contracts/governence/gameProfitsGalacticNetworkSettings.sol\":815:1338  gameprofitsSettings(false,false,false,false,false,0x0000000000000000000000000000000000000000,0x0000000000000000000000000000000000000000,0x0000000000000000000000000000000000000000,0x0000000000000000000000000000000000000000,0x0000000000000000000000000000000000000000,0x0000000000000000000000000000000000000000,0x0000000000000000000000000000000000000000,0x0000000000000000000000000000000000000000,0x0000000000000000000000000000000000000000,0x0000000000000000000000000000000000000000,0x0000000000000000000000000000000000000000) */\n  mload(0x40)\n  dup1\n  0x0200\n  add\n  0x40\n  mstore\n  dup1\n    /* \"gameprofits-galactic-spdgcs-contracts/governence/gameProfitsGalacticNetworkSettings.sol\":835:840  false */\n  0x00\n    /* \"gameprofits-galactic-spdgcs-contracts/governence/gameProfitsGalacticNetworkSettings.sol\":815:1338  gameprofitsSettings(false,false,false,false,false,0x0000000000000000000000000000000000000000,0x0000000000000000000000000000000000000000,0x0000000000000000000000000000000000000000,0x0000000000000000000000000000000000000000,0x0000000000000000000000000000000000000000,0x0000000000000000000000000000000000000000,0x0000000000000000000000000000000000000000,0x0000000000000000000000000000000000000000,0x0000000000000000000000000000000000000000,0x0000000000000000000000000000000000000000,0x0000000000000000000000000000000000000000) */\n  iszero\n  iszero\n  dup2\n  mstore\n  0x20\n  add\n    /* \"gameprofits-galactic-spdgcs-contracts/governence/gameProfitsGalacticNetworkSettings.sol\":841:846  false */\n  0x00\n    /* \"gameprofits-galactic-spdgcs-contracts/governence/gameProfitsGalacticNetworkSettings.sol\":815:1338  gameprofitsSettings(false,false,false,false,false,0x0000000000000000000000000000000000000000,0x0000000000000000000000000000000000000000,0x0000000000000000000000000000000000000000,0x0000000000000000000000000000000000000000,0x0000000000000000000000000000000000000000,0x0000000000000000000000000000000000000000,0x0000000000000000000000000000000000000000,0x0000000000000000000000000000000000000000,0x0000000000000000000000000000000000000000,0x0000000000000000000000000000000000000000,0x0000000000000000000000000000000000000000) */\n  iszero\n  iszero\n  dup2\n  mstore\n  0x20\n  add\n    /* \"gameprofits-galactic-spdgcs-contracts/governence/gameProfitsGalacticNetworkSettings.sol\":847:852  false */\n  0x00\n    /* \"gameprofits-galactic-spdgcs-contracts/governence/gameProfitsGalacticNetworkSettings.sol\":815:1338  gameprofitsSettings(false,false,false,false,false,0x0000000000000000000000000000000000000000,0x0000000000000000000000000000000000000000,0x0000000000000000000000000000000000000000,0x0000000000000000000000000000000000000000,0x0000000000000000000000000000000000000000,0x0000000000000000000000000000000000000000,0x0000000000000000000000000000000000000000,0x0000000000000000000000000000000000000000,0x0000000000000000000000000000000000000000,0x0000000000000000000000000000000000000000,0x0000000000000000000000000000000000000000) */\n  iszero\n  iszero\n  dup2\n  mstore\n  0x20\n  add\n    /* \"gameprofits-galactic-spdgcs-contracts/governence/gameProfitsGalacticNetworkSettings.sol\":853:858  false */\n  0x00\n    /* \"gameprofits-galactic-spdgcs-contracts/governence/gameProfitsGalacticNetworkSettings.sol\":815:1338  gameprofitsSettings(false,false,false,false,false,0x0000000000000000000000000000000000000000,0x0000000000000000000000000000000000000000,0x0000000000000000000000000000000000000000,0x0000000000000000000000000000000000000000,0x0000000000000000000000000000000000000000,0x0000000000000000000000000000000000000000,0x0000000000000000000000000000000000000000,0x0000000000000000000000000000000000000000,0x0000000000000000000000000000000000000000,0x0000000000000000000000000000000000000000,0x0000000000000000000000000000000000000000) */\n  iszero\n  iszero\n  dup2\n  mstore\n  0x20\n  add\n    /* \"gameprofits-galactic-spdgcs-contracts/governence/gameProfitsGalacticNetworkSettings.sol\":859:864  false */\n  0x00\n    /* \"gameprofits-galactic-spdgcs-contracts/governence/gameProfitsGalacticNetworkSettings.sol\":815:1338  gameprofitsSettings(false,false,false,false,false,0x0000000000000000000000000000000000000000,0x0000000000000000000000000000000000000000,0x0000000000000000000000000000000000000000,0x0000000000000000000000000000000000000000,0x0000000000000000000000000000000000000000,0x0000000000000000000000000000000000000000,0x0000000000000000000000000000000000000000,0x0000000000000000000000000000000000000000,0x0000000000000000000000000000000000000000,0x0000000000000000000000000000000000000000,0x0000000000000000000000000000000000000000) */\n  iszero\n  iszero\n  dup2\n  mstore\n  0x20\n  add\n    /* \"gameprofits-galactic-spdgcs-contracts/governence/gameProfitsGalacticNetworkSettings.sol\":865:907  0x0000000000000000000000000000000000000000 */\n  0x00\n    /* \"gameprofits-galactic-spdgcs-contracts/governence/gameProfitsGalacticNetworkSettings.sol\":815:1338  gameprofitsSettings(false,false,false,false,false,0x0000000000000000000000000000000000000000,0x0000000000000000000000000000000000000000,0x0000000000000000000000000000000000000000,0x0000000000000000000000000000000000000000,0x0000000000000000000000000000000000000000,0x0000000000000000000000000000000000000000,0x0000000000000000000000000000000000000000,0x0000000000000000000000000000000000000000,0x0000000000000000000000000000000000000000,0x0000000000000000000000000000000000000000,0x0000000000000000000000000000000000000000) */\n  0xffffffffffffffffffffffffffffffffffffffff\n  and\n  dup2\n  mstore\n  0x20\n  add\n    /* \"gameprofits-galactic-spdgcs-contracts/governence/gameProfitsGalacticNetworkSettings.sol\":908:950  0x0000000000000000000000000000000000000000 */\n  0x00\n    /* \"gameprofits-galactic-spdgcs-contracts/governence/gameProfitsGalacticNetworkSettings.sol\":815:1338  gameprofitsSettings(false,false,false,false,false,0x0000000000000000000000000000000000000000,0x0000000000000000000000000000000000000000,0x0000000000000000000000000000000000000000,0x0000000000000000000000000000000000000000,0x0000000000000000000000000000000000000000,0x0000000000000000000000000000000000000000,0x0000000000000000000000000000000000000000,0x0000000000000000000000000000000000000000,0x0000000000000000000000000000000000000000,0x0000000000000000000000000000000000000000,0x0000000000000000000000000000000000000000) */\n  0xffffffffffffffffffffffffffffffffffffffff\n  and\n  dup2\n  mstore\n  0x20\n  add\n    /* \"gameprofits-galactic-spdgcs-contracts/governence/gameProfitsGalacticNetworkSettings.sol\":951:993  0x0000000000000000000000000000000000000000 */\n  0x00\n    /* \"gameprofits-galactic-spdgcs-contracts/governence/gameProfitsGalacticNetworkSettings.sol\":815:1338  gameprofitsSettings(false,false,false,false,false,0x0000000000000000000000000000000000000000,0x0000000000000000000000000000000000000000,0x0000000000000000000000000000000000000000,0x0000000000000000000000000000000000000000,0x0000000000000000000000000000000000000000,0x0000000000000000000000000000000000000000,0x0000000000000000000000000000000000000000,0x0000000000000000000000000000000000000000,0x0000000000000000000000000000000000000000,0x0000000000000000000000000000000000000000,0x0000000000000000000000000000000000000000) */\n  0xffffffffffffffffffffffffffffffffffffffff\n  and\n  dup2\n  mstore\n  0x20\n  add\n    /* \"gameprofits-galactic-spdgcs-contracts/governence/gameProfitsGalacticNetworkSettings.sol\":994:1036  0x0000000000000000000000000000000000000000 */\n  0x00\n    /* \"gameprofits-galactic-spdgcs-contracts/governence/gameProfitsGalacticNetworkSettings.sol\":815:1338  gameprofitsSettings(false,false,false,false,false,0x0000000000000000000000000000000000000000,0x0000000000000000000000000000000000000000,0x0000000000000000000000000000000000000000,0x0000000000000000000000000000000000000000,0x0000000000000000000000000000000000000000,0x0000000000000000000000000000000000000000,0x0000000000000000000000000000000000000000,0x0000000000000000000000000000000000000000,0x0000000000000000000000000000000000000000,0x0000000000000000000000000000000000000000,0x0000000000000000000000000000000000000000) */\n  0xffffffffffffffffffffffffffffffffffffffff\n  and\n  dup2\n  mstore\n  0x20\n  add\n    /* \"gameprofits-galactic-spdgcs-contracts/governence/gameProfitsGalacticNetworkSettings.sol\":1037:1079  0x0000000000000000000000000000000000000000 */\n  0x00\n    /* \"gameprofits-galactic-spdgcs-contracts/governence/gameProfitsGalacticNetworkSettings.sol\":815:1338  gameprofitsSettings(false,false,false,false,false,0x0000000000000000000000000000000000000000,0x0000000000000000000000000000000000000000,0x0000000000000000000000000000000000000000,0x0000000000000000000000000000000000000000,0x0000000000000000000000000000000000000000,0x0000000000000000000000000000000000000000,0x0000000000000000000000000000000000000000,0x0000000000000000000000000000000000000000,0x0000000000000000000000000000000000000000,0x0000000000000000000000000000000000000000,0x0000000000000000000000000000000000000000) */\n  0xffffffffffffffffffffffffffffffffffffffff\n  and\n  dup2\n  mstore\n  0x20\n  add\n    /* \"gameprofits-galactic-spdgcs-contracts/governence/gameProfitsGalacticNetworkSettings.sol\":1080:1122  0x0000000000000000000000000000000000000000 */\n  0x00\n    /* \"gameprofits-galactic-spdgcs-contracts/governence/gameProfitsGalacticNetworkSettings.sol\":815:1338  gameprofitsSettings(false,false,false,false,false,0x0000000000000000000000000000000000000000,0x0000000000000000000000000000000000000000,0x0000000000000000000000000000000000000000,0x0000000000000000000000000000000000000000,0x0000000000000000000000000000000000000000,0x0000000000000000000000000000000000000000,0x0000000000000000000000000000000000000000,0x0000000000000000000000000000000000000000,0x0000000000000000000000000000000000000000,0x0000000000000000000000000000000000000000,0x0000000000000000000000000000000000000000) */\n  0xffffffffffffffffffffffffffffffffffffffff\n  and\n  dup2\n  mstore\n  0x20\n  add\n    /* \"gameprofits-galactic-spdgcs-contracts/governence/gameProfitsGalacticNetworkSettings.sol\":1123:1165  0x0000000000000000000000000000000000000000 */\n  0x00\n    /* \"gameprofits-galactic-spdgcs-contracts/governence/gameProfitsGalacticNetworkSettings.sol\":815:1338  gameprofitsSettings(false,false,false,false,false,0x0000000000000000000000000000000000000000,0x0000000000000000000000000000000000000000,0x0000000000000000000000000000000000000000,0x0000000000000000000000000000000000000000,0x0000000000000000000000000000000000000000,0x0000000000000000000000000000000000000000,0x0000000000000000000000000000000000000000,0x0000000000000000000000000000000000000000,0x0000000000000000000000000000000000000000,0x0000000000000000000000000000000000000000,0x0000000000000000000000000000000000000000) */\n  0xffffffffffffffffffffffffffffffffffffffff\n  and\n  dup2\n  mstore\n  0x20\n  add\n    /* \"gameprofits-galactic-spdgcs-contracts/governence/gameProfitsGalacticNetworkSettings.sol\":1166:1208  0x0000000000000000000000000000000000000000 */\n  0x00\n    /* \"gameprofits-galactic-spdgcs-contracts/governence/gameProfitsGalacticNetworkSettings.sol\":815:1338  gameprofitsSettings(false,false,false,false,false,0x0000000000000000000000000000000000000000,0x0000000000000000000000000000000000000000,0x0000000000000000000000000000000000000000,0x0000000000000000000000000000000000000000,0x0000000000000000000000000000000000000000,0x0000000000000000000000000000000000000000,0x0000000000000000000000000000000000000000,0x0000000000000000000000000000000000000000,0x0000000000000000000000000000000000000000,0x0000000000000000000000000000000000000000,0x0000000000000000000000000000000000000000) */\n  0xffffffffffffffffffffffffffffffffffffffff\n  and\n  dup2\n  mstore\n  0x20\n  add\n    /* \"gameprofits-galactic-spdgcs-contracts/governence/gameProfitsGalacticNetworkSettings.sol\":1209:1251  0x0000000000000000000000000000000000000000 */\n  0x00\n    /* \"gameprofits-galactic-spdgcs-contracts/governence/gameProfitsGalacticNetworkSettings.sol\":815:1338  gameprofitsSettings(false,false,false,false,false,0x0000000000000000000000000000000000000000,0x0000000000000000000000000000000000000000,0x0000000000000000000000000000000000000000,0x0000000000000000000000000000000000000000,0x0000000000000000000000000000000000000000,0x0000000000000000000000000000000000000000,0x0000000000000000000000000000000000000000,0x0000000000000000000000000000000000000000,0x0000000000000000000000000000000000000000,0x0000000000000000000000000000000000000000,0x0000000000000000000000000000000000000000) */\n  0xffffffffffffffffffffffffffffffffffffffff\n  and\n  dup2\n  mstore\n  0x20\n  add\n    /* \"gameprofits-galactic-spdgcs-contracts/governence/gameProfitsGalacticNetworkSettings.sol\":1252:1294  0x0000000000000000000000000000000000000000 */\n  0x00\n    /* \"gameprofits-galactic-spdgcs-contracts/governence/gameProfitsGalacticNetworkSettings.sol\":815:1338  gameprofitsSettings(false,false,false,false,false,0x0000000000000000000000000000000000000000,0x0000000000000000000000000000000000000000,0x0000000000000000000000000000000000000000,0x0000000000000000000000000000000000000000,0x0000000000000000000000000000000000000000,0x0000000000000000000000000000000000000000,0x0000000000000000000000000000000000000000,0x0000000000000000000000000000000000000000,0x0000000000000000000000000000000000000000,0x0000000000000000000000000000000000000000,0x0000000000000000000000000000000000000000) */\n  0xffffffffffffffffffffffffffffffffffffffff\n  and\n  dup2\n  mstore\n  0x20\n  add\n    /* \"gameprofits-galactic-spdgcs-contracts/governence/gameProfitsGalacticNetworkSettings.sol\":1295:1337  0x0000000000000000000000000000000000000000 */\n  0x00\n    /* \"gameprofits-galactic-spdgcs-contracts/governence/gameProfitsGalacticNetworkSettings.sol\":815:1338  gameprofitsSettings(false,false,false,false,false,0x0000000000000000000000000000000000000000,0x0000000000000000000000000000000000000000,0x0000000000000000000000000000000000000000,0x0000000000000000000000000000000000000000,0x0000000000000000000000000000000000000000,0x0000000000000000000000000000000000000000,0x0000000000000000000000000000000000000000,0x0000000000000000000000000000000000000000,0x0000000000000000000000000000000000000000,0x0000000000000000000000000000000000000000,0x0000000000000000000000000000000000000000) */\n  0xffffffffffffffffffffffffffffffffffffffff\n  and\n  dup2\n  mstore\n  pop\n    /* \"gameprofits-galactic-spdgcs-contracts/governence/gameProfitsGalacticNetworkSettings.sol\":765:1338  gameprofitsSettings  gameprofitsNetworkSettings = gameprofitsSettings(false,false,false,false,false,0x0000000000000000000000000000000000000000,0x0000000000000000000000000000000000000000,0x0000000000000000000000000000000000000000,0x0000000000000000000000000000000000000000,0x0000000000000000000000000000000000000000,0x0000000000000000000000000000000000000000,0x0000000000000000000000000000000000000000,0x0000000000000000000000000000000000000000,0x0000000000000000000000000000000000000000,0x0000000000000000000000000000000000000000,0x0000000000000000000000000000000000000000) */\n  0x01\n  0x00\n  dup3\n  add\n  mload\n  dup2\n  0x00\n  add\n  exp(0x0100, 0x00)\n  dup2\n  sload\n  dup2\n  0xff\n  mul\n  not\n  and\n  swap1\n  dup4\n  iszero\n  iszero\n  mul\n  or\n  swap1\n  sstore\n  pop\n  0x20\n  dup3\n  add\n  mload\n  dup2\n  0x00\n  add\n  exp(0x0100, 0x01)\n  dup2\n  sload\n  dup2\n  0xff\n  mul\n  not\n  and\n  swap1\n  dup4\n  iszero\n  iszero\n  mul\n  or\n  swap1\n  sstore\n  pop\n  0x40\n  dup3\n  add\n  mload\n  dup2\n  0x00\n  add\n  exp(0x0100, 0x02)\n  dup2\n  sload\n  dup2\n  0xff\n  mul\n  not\n  and\n  swap1\n  dup4\n  iszero\n  iszero\n  mul\n  or\n  swap1\n  sstore\n  pop\n  0x60\n  dup3\n  add\n  mload\n  dup2\n  0x00\n  add\n  exp(0x0100, 0x03)\n  dup2\n  sload\n  dup2\n  0xff\n  mul\n  not\n  and\n  swap1\n  dup4\n  iszero\n  iszero\n  mul\n  or\n  swap1\n  sstore\n  pop\n  0x80\n  dup3\n  add\n  mload\n  dup2\n  0x00\n  add\n  exp(0x0100, 0x04)\n  dup2\n  sload\n  dup2\n  0xff\n  mul\n  not\n  and\n  swap1\n  dup4\n  iszero\n  iszero\n  mul\n  or\n  swap1\n  sstore\n  pop\n  0xa0\n  dup3\n  add\n  mload\n  dup2\n  0x00\n  add\n  exp(0x0100, 0x05)\n  dup2\n  sload\n  dup2\n  0xffffffffffffffffffffffffffffffffffffffff\n  mul\n  not\n  and\n  swap1\n  dup4\n  0xffffffffffffffffffffffffffffffffffffffff\n  and\n  mul\n  or\n  swap1\n  sstore\n  pop\n  0xc0\n  dup3\n  add\n  mload\n  dup2\n  0x01\n  add\n  exp(0x0100, 0x00)\n  dup2\n  sload\n  dup2\n  0xffffffffffffffffffffffffffffffffffffffff\n  mul\n  not\n  and\n  swap1\n  dup4\n  0xffffffffffffffffffffffffffffffffffffffff\n  and\n  mul\n  or\n  swap1\n  sstore\n  pop\n  0xe0\n  dup3\n  add\n  mload\n  dup2\n  0x02\n  add\n  exp(0x0100, 0x00)\n  dup2\n  sload\n  dup2\n  0xffffffffffffffffffffffffffffffffffffffff\n  mul\n  not\n  and\n  swap1\n  dup4\n  0xffffffffffffffffffffffffffffffffffffffff\n  and\n  mul\n  or\n  swap1\n  sstore\n  pop\n  0x0100\n  dup3\n  add\n  mload\n  dup2\n  0x03\n  add\n  exp(0x0100, 0x00)\n  dup2\n  sload\n  dup2\n  0xffffffffffffffffffffffffffffffffffffffff\n  mul\n  not\n  and\n  swap1\n  dup4\n  0xffffffffffffffffffffffffffffffffffffffff\n  and\n  mul\n  or\n  swap1\n  sstore\n  pop\n  0x0120\n  dup3\n  add\n  mload\n  dup2\n  0x04\n  add\n  exp(0x0100, 0x00)\n  dup2\n  sload\n  dup2\n  0xffffffffffffffffffffffffffffffffffffffff\n  mul\n  not\n  and\n  swap1\n  dup4\n  0xffffffffffffffffffffffffffffffffffffffff\n  and\n  mul\n  or\n  swap1\n  sstore\n  pop\n  0x0140\n  dup3\n  add\n  mload\n  dup2\n  0x05\n  add\n  exp(0x0100, 0x00)\n  dup2\n  sload\n  dup2\n  0xffffffffffffffffffffffffffffffffffffffff\n  mul\n  not\n  and\n  swap1\n  dup4\n  0xffffffffffffffffffffffffffffffffffffffff\n  and\n  mul\n  or\n  swap1\n  sstore\n  pop\n  0x0160\n  dup3\n  add\n  mload\n  dup2\n  0x06\n  add\n  exp(0x0100, 0x00)\n  dup2\n  sload\n  dup2\n  0xffffffffffffffffffffffffffffffffffffffff\n  mul\n  not\n  and\n  swap1\n  dup4\n  0xffffffffffffffffffffffffffffffffffffffff\n  and\n  mul\n  or\n  swap1\n  sstore\n  pop\n  0x0180\n  dup3\n  add\n  mload\n  dup2\n  0x07\n  add\n  exp(0x0100, 0x00)\n  dup2\n  sload\n  dup2\n  0xffffffffffffffffffffffffffffffffffffffff\n  mul\n  not\n  and\n  swap1\n  dup4\n  0xffffffffffffffffffffffffffffffffffffffff\n  and\n  mul\n  or\n  swap1\n  sstore\n  pop\n  0x01a0\n  dup3\n  add\n  mload\n  dup2\n  0x08\n  add\n  exp(0x0100, 0x00)\n  dup2\n  sload\n  dup2\n  0xffffffffffffffffffffffffffffffffffffffff\n  mul\n  not\n  and\n  swap1\n  dup4\n  0xffffffffffffffffffffffffffffffffffffffff\n  and\n  mul\n  or\n  swap1\n  sstore\n  pop\n  0x01c0\n  dup3\n  add\n  mload\n  dup2\n  0x09\n  add\n  exp(0x0100, 0x00)\n  dup2\n  sload\n  dup2\n  0xffffffffffffffffffffffffffffffffffffffff\n  mul\n  not\n  and\n  swap1\n  dup4\n  0xffffffffffffffffffffffffffffffffffffffff\n  and\n  mul\n  or\n  swap1\n  sstore\n  pop\n  0x01e0\n  dup3\n  add\n  mload\n  dup2\n  0x0a\n  add\n  exp(0x0100, 0x00)\n  dup2\n  sload\n  dup2\n  0xffffffffffffffffffffffffffffffffffffffff\n  mul\n  not\n  and\n  swap1\n  dup4\n  0xffffffffffffffffffffffffffffffffffffffff\n  and\n  mul\n  or\n  swap1\n  sstore\n  pop\n  pop\n  pop\n    /* \"gameprofits-galactic-spdgcs-contracts/governence/gameProfitsGalacticNetworkSettings.sol\":2035:2139  constructor() public... */\n  callvalue\n  dup1\n  iszero\n  tag_1\n  jumpi\n  0x00\n  dup1\n  revert\ntag_1:\n  pop\n    /* \"gameprofits-galactic-spdgcs-contracts/governence/gameProfitsGalacticNetworkSettings.sol\":2100:2110  msg.sender */\n  caller\n    /* \"gameprofits-galactic-spdgcs-contracts/governence/gameProfitsGalacticNetworkSettings.sol\":2092:2097  owner */\n  0x00\n  dup1\n    /* \"gameprofits-galactic-spdgcs-contracts/governence/gameProfitsGalacticNetworkSettings.sol\":2092:2110  owner = msg.sender */\n  0x0100\n  exp\n  dup2\n  sload\n  dup2\n  0xffffffffffffffffffffffffffffffffffffffff\n  mul\n  not\n  and\n  swap1\n  dup4\n  0xffffffffffffffffffffffffffffffffffffffff\n  and\n  mul\n  or\n  swap1\n  sstore\n  pop\n    /* \"gameprofits-galactic-spdgcs-contracts/governence/gameProfitsGalacticNetworkSettings.sol\":87:2152  contract gameprofitsGalacticNetworkSettings {... */\n  dataSize(sub_0)\n  dup1\n  dataOffset(sub_0)\n  0x00\n  codecopy\n  0x00\n  return\nstop\n\nsub_0: assembly {\n        /* \"gameprofits-galactic-spdgcs-contracts/governence/gameProfitsGalacticNetworkSettings.sol\":87:2152  contract gameprofitsGalacticNetworkSettings {... */\n      mstore(0x40, 0x80)\n      callvalue\n      dup1\n      iszero\n      tag_1\n      jumpi\n      0x00\n      dup1\n      revert\n    tag_1:\n      pop\n      jumpi(tag_2, lt(calldatasize, 0x04))\n      shr(0xe0, calldataload(0x00))\n      dup1\n      0x1dd28782\n      eq\n      tag_3\n      jumpi\n      dup1\n      0x49e8216a\n      eq\n      tag_4\n      jumpi\n      dup1\n      0x52bac077\n      eq\n      tag_5\n      jumpi\n    tag_2:\n      0x00\n      dup1\n      revert\n        /* \"gameprofits-galactic-spdgcs-contracts/governence/gameProfitsGalacticNetworkSettings.sol\":1345:1543  function isgameNetworkActive() public view returns (bool) {... */\n    tag_3:\n      tag_6\n      tag_7\n      jump\t// in\n    tag_6:\n      mload(0x40)\n      tag_8\n      swap2\n      swap1\n      tag_9\n      jump\t// in\n    tag_8:\n      mload(0x40)\n      dup1\n      swap2\n      sub\n      swap1\n      return\n        /* \"gameprofits-galactic-spdgcs-contracts/governence/gameProfitsGalacticNetworkSettings.sol\":1547:1731  function isgamesAreOn() public view returns (bool) {... */\n    tag_4:\n      tag_10\n      tag_11\n      jump\t// in\n    tag_10:\n      mload(0x40)\n      tag_12\n      swap2\n      swap1\n      tag_9\n      jump\t// in\n    tag_12:\n      mload(0x40)\n      dup1\n      swap2\n      sub\n      swap1\n      return\n        /* \"gameprofits-galactic-spdgcs-contracts/governence/gameProfitsGalacticNetworkSettings.sol\":1741:1943  function isgamesAreDeactivated() public view returns (bool) {... */\n    tag_5:\n      tag_13\n      tag_14\n      jump\t// in\n    tag_13:\n      mload(0x40)\n      tag_15\n      swap2\n      swap1\n      tag_9\n      jump\t// in\n    tag_15:\n      mload(0x40)\n      dup1\n      swap2\n      sub\n      swap1\n      return\n        /* \"gameprofits-galactic-spdgcs-contracts/governence/gameProfitsGalacticNetworkSettings.sol\":1345:1543  function isgameNetworkActive() public view returns (bool) {... */\n    tag_7:\n        /* \"gameprofits-galactic-spdgcs-contracts/governence/gameProfitsGalacticNetworkSettings.sol\":1397:1401  bool */\n      0x00\n        /* \"gameprofits-galactic-spdgcs-contracts/governence/gameProfitsGalacticNetworkSettings.sol\":1414:1456  gameprofitsSettings storage networksetting */\n      dup1\n        /* \"gameprofits-galactic-spdgcs-contracts/governence/gameProfitsGalacticNetworkSettings.sol\":1459:1485  gameprofitsNetworkSettings */\n      0x01\n        /* \"gameprofits-galactic-spdgcs-contracts/governence/gameProfitsGalacticNetworkSettings.sol\":1414:1485  gameprofitsSettings storage networksetting = gameprofitsNetworkSettings */\n      swap1\n      pop\n        /* \"gameprofits-galactic-spdgcs-contracts/governence/gameProfitsGalacticNetworkSettings.sol\":1503:1517  networksetting */\n      dup1\n        /* \"gameprofits-galactic-spdgcs-contracts/governence/gameProfitsGalacticNetworkSettings.sol\":1503:1535  networksetting.gameNetworkActive */\n      0x00\n      add\n      0x00\n      swap1\n      sload\n      swap1\n      0x0100\n      exp\n      swap1\n      div\n      0xff\n      and\n        /* \"gameprofits-galactic-spdgcs-contracts/governence/gameProfitsGalacticNetworkSettings.sol\":1496:1535  return networksetting.gameNetworkActive */\n      swap2\n      pop\n      pop\n        /* \"gameprofits-galactic-spdgcs-contracts/governence/gameProfitsGalacticNetworkSettings.sol\":1345:1543  function isgameNetworkActive() public view returns (bool) {... */\n      swap1\n      jump\t// out\n        /* \"gameprofits-galactic-spdgcs-contracts/governence/gameProfitsGalacticNetworkSettings.sol\":1547:1731  function isgamesAreOn() public view returns (bool) {... */\n    tag_11:\n        /* \"gameprofits-galactic-spdgcs-contracts/governence/gameProfitsGalacticNetworkSettings.sol\":1592:1596  bool */\n      0x00\n        /* \"gameprofits-galactic-spdgcs-contracts/governence/gameProfitsGalacticNetworkSettings.sol\":1609:1651  gameprofitsSettings storage networksetting */\n      dup1\n        /* \"gameprofits-galactic-spdgcs-contracts/governence/gameProfitsGalacticNetworkSettings.sol\":1654:1680  gameprofitsNetworkSettings */\n      0x01\n        /* \"gameprofits-galactic-spdgcs-contracts/governence/gameProfitsGalacticNetworkSettings.sol\":1609:1680  gameprofitsSettings storage networksetting = gameprofitsNetworkSettings */\n      swap1\n      pop\n        /* \"gameprofits-galactic-spdgcs-contracts/governence/gameProfitsGalacticNetworkSettings.sol\":1698:1712  networksetting */\n      dup1\n        /* \"gameprofits-galactic-spdgcs-contracts/governence/gameProfitsGalacticNetworkSettings.sol\":1698:1723  networksetting.gamesAreOn */\n      0x00\n      add\n      0x01\n      swap1\n      sload\n      swap1\n      0x0100\n      exp\n      swap1\n      div\n      0xff\n      and\n        /* \"gameprofits-galactic-spdgcs-contracts/governence/gameProfitsGalacticNetworkSettings.sol\":1691:1723  return networksetting.gamesAreOn */\n      swap2\n      pop\n      pop\n        /* \"gameprofits-galactic-spdgcs-contracts/governence/gameProfitsGalacticNetworkSettings.sol\":1547:1731  function isgamesAreOn() public view returns (bool) {... */\n      swap1\n      jump\t// out\n        /* \"gameprofits-galactic-spdgcs-contracts/governence/gameProfitsGalacticNetworkSettings.sol\":1741:1943  function isgamesAreDeactivated() public view returns (bool) {... */\n    tag_14:\n        /* \"gameprofits-galactic-spdgcs-contracts/governence/gameProfitsGalacticNetworkSettings.sol\":1795:1799  bool */\n      0x00\n        /* \"gameprofits-galactic-spdgcs-contracts/governence/gameProfitsGalacticNetworkSettings.sol\":1812:1854  gameprofitsSettings storage networksetting */\n      dup1\n        /* \"gameprofits-galactic-spdgcs-contracts/governence/gameProfitsGalacticNetworkSettings.sol\":1857:1883  gameprofitsNetworkSettings */\n      0x01\n        /* \"gameprofits-galactic-spdgcs-contracts/governence/gameProfitsGalacticNetworkSettings.sol\":1812:1883  gameprofitsSettings storage networksetting = gameprofitsNetworkSettings */\n      swap1\n      pop\n        /* \"gameprofits-galactic-spdgcs-contracts/governence/gameProfitsGalacticNetworkSettings.sol\":1901:1915  networksetting */\n      dup1\n        /* \"gameprofits-galactic-spdgcs-contracts/governence/gameProfitsGalacticNetworkSettings.sol\":1901:1935  networksetting.gamesAreDeactivated */\n      0x00\n      add\n      0x02\n      swap1\n      sload\n      swap1\n      0x0100\n      exp\n      swap1\n      div\n      0xff\n      and\n        /* \"gameprofits-galactic-spdgcs-contracts/governence/gameProfitsGalacticNetworkSettings.sol\":1894:1935  return networksetting.gamesAreDeactivated */\n      swap2\n      pop\n      pop\n        /* \"gameprofits-galactic-spdgcs-contracts/governence/gameProfitsGalacticNetworkSettings.sol\":1741:1943  function isgamesAreDeactivated() public view returns (bool) {... */\n      swap1\n      jump\t// out\n        /* \"#utility.yul\":7:97   */\n    tag_19:\n        /* \"#utility.yul\":41:48   */\n      0x00\n        /* \"#utility.yul\":84:89   */\n      dup2\n        /* \"#utility.yul\":77:90   */\n      iszero\n        /* \"#utility.yul\":70:91   */\n      iszero\n        /* \"#utility.yul\":59:91   */\n      swap1\n      pop\n        /* \"#utility.yul\":7:97   */\n      swap2\n      swap1\n      pop\n      jump\t// out\n        /* \"#utility.yul\":103:212   */\n    tag_20:\n        /* \"#utility.yul\":184:205   */\n      tag_24\n        /* \"#utility.yul\":199:204   */\n      dup2\n        /* \"#utility.yul\":184:205   */\n      tag_19\n      jump\t// in\n    tag_24:\n        /* \"#utility.yul\":179:182   */\n      dup3\n        /* \"#utility.yul\":172:206   */\n      mstore\n        /* \"#utility.yul\":103:212   */\n      pop\n      pop\n      jump\t// out\n        /* \"#utility.yul\":218:428   */\n    tag_9:\n        /* \"#utility.yul\":305:309   */\n      0x00\n        /* \"#utility.yul\":343:345   */\n      0x20\n        /* \"#utility.yul\":332:341   */\n      dup3\n        /* \"#utility.yul\":328:346   */\n      add\n        /* \"#utility.yul\":320:346   */\n      swap1\n      pop\n        /* \"#utility.yul\":356:421   */\n      tag_26\n        /* \"#utility.yul\":418:419   */\n      0x00\n        /* \"#utility.yul\":407:416   */\n      dup4\n        /* \"#utility.yul\":403:420   */\n      add\n        /* \"#utility.yul\":394:400   */\n      dup5\n        /* \"#utility.yul\":356:421   */\n      tag_20\n      jump\t// in\n    tag_26:\n        /* \"#utility.yul\":218:428   */\n      swap3\n      swap2\n      pop\n      pop\n      jump\t// out\n\n    auxdata: 0xa2646970667358221220ba86d2747090ac1a5bd20495564a556d02ff45646116a40a68281f44eacf93b064736f6c63430008100033\n}\n",
				"bytecode": {
					"linkReferences": {},
					"object": "6080604052604051806102000160405280600015158152602001600015158152602001600015158152602001600015158152602001600015158152602001600073ffffffffffffffffffffffffffffffffffffffff168152602001600073ffffffffffffffffffffffffffffffffffffffff168152602001600073ffffffffffffffffffffffffffffffffffffffff168152602001600073ffffffffffffffffffffffffffffffffffffffff168152602001600073ffffffffffffffffffffffffffffffffffffffff168152602001600073ffffffffffffffffffffffffffffffffffffffff168152602001600073ffffffffffffffffffffffffffffffffffffffff168152602001600073ffffffffffffffffffffffffffffffffffffffff168152602001600073ffffffffffffffffffffffffffffffffffffffff168152602001600073ffffffffffffffffffffffffffffffffffffffff168152602001600073ffffffffffffffffffffffffffffffffffffffff16815250600160008201518160000160006101000a81548160ff02191690831515021790555060208201518160000160016101000a81548160ff02191690831515021790555060408201518160000160026101000a81548160ff02191690831515021790555060608201518160000160036101000a81548160ff02191690831515021790555060808201518160000160046101000a81548160ff02191690831515021790555060a08201518160000160056101000a81548173ffffffffffffffffffffffffffffffffffffffff021916908373ffffffffffffffffffffffffffffffffffffffff16021790555060c08201518160010160006101000a81548173ffffffffffffffffffffffffffffffffffffffff021916908373ffffffffffffffffffffffffffffffffffffffff16021790555060e08201518160020160006101000a81548173ffffffffffffffffffffffffffffffffffffffff021916908373ffffffffffffffffffffffffffffffffffffffff1602179055506101008201518160030160006101000a81548173ffffffffffffffffffffffffffffffffffffffff021916908373ffffffffffffffffffffffffffffffffffffffff1602179055506101208201518160040160006101000a81548173ffffffffffffffffffffffffffffffffffffffff021916908373ffffffffffffffffffffffffffffffffffffffff1602179055506101408201518160050160006101000a81548173ffffffffffffffffffffffffffffffffffffffff021916908373ffffffffffffffffffffffffffffffffffffffff1602179055506101608201518160060160006101000a81548173ffffffffffffffffffffffffffffffffffffffff021916908373ffffffffffffffffffffffffffffffffffffffff1602179055506101808201518160070160006101000a81548173ffffffffffffffffffffffffffffffffffffffff021916908373ffffffffffffffffffffffffffffffffffffffff1602179055506101a08201518160080160006101000a81548173ffffffffffffffffffffffffffffffffffffffff021916908373ffffffffffffffffffffffffffffffffffffffff1602179055506101c08201518160090160006101000a81548173ffffffffffffffffffffffffffffffffffffffff021916908373ffffffffffffffffffffffffffffffffffffffff1602179055506101e082015181600a0160006101000a81548173ffffffffffffffffffffffffffffffffffffffff021916908373ffffffffffffffffffffffffffffffffffffffff160217905550505034801561053f57600080fd5b50336000806101000a81548173ffffffffffffffffffffffffffffffffffffffff021916908373ffffffffffffffffffffffffffffffffffffffff1602179055506101698061058f6000396000f3fe608060405234801561001057600080fd5b50600436106100415760003560e01c80631dd287821461004657806349e8216a1461006457806352bac07714610082575b600080fd5b61004e6100a0565b60405161005b9190610118565b60405180910390f35b61006c6100bf565b6040516100799190610118565b60405180910390f35b61008a6100de565b6040516100979190610118565b60405180910390f35b600080600190508060000160009054906101000a900460ff1691505090565b600080600190508060000160019054906101000a900460ff1691505090565b600080600190508060000160029054906101000a900460ff1691505090565b60008115159050919050565b610112816100fd565b82525050565b600060208201905061012d6000830184610109565b9291505056fea2646970667358221220ba86d2747090ac1a5bd20495564a556d02ff45646116a40a68281f44eacf93b064736f6c63430008100033",
					"opcodes": "PUSH1 0x80 PUSH1 0x40 MSTORE PUSH1 0x40 MLOAD DUP1 PUSH2 0x200 ADD PUSH1 0x40 MSTORE DUP1 PUSH1 0x0 ISZERO ISZERO DUP2 MSTORE PUSH1 0x20 ADD PUSH1 0x0 ISZERO ISZERO DUP2 MSTORE PUSH1 0x20 ADD PUSH1 0x0 ISZERO ISZERO DUP2 MSTORE PUSH1 0x20 ADD PUSH1 0x0 ISZERO ISZERO DUP2 MSTORE PUSH1 0x20 ADD PUSH1 0x0 ISZERO ISZERO DUP2 MSTORE PUSH1 0x20 ADD PUSH1 0x0 PUSH20 0xFFFFFFFFFFFFFFFFFFFFFFFFFFFFFFFFFFFFFFFF AND DUP2 MSTORE PUSH1 0x20 ADD PUSH1 0x0 PUSH20 0xFFFFFFFFFFFFFFFFFFFFFFFFFFFFFFFFFFFFFFFF AND DUP2 MSTORE PUSH1 0x20 ADD PUSH1 0x0 PUSH20 0xFFFFFFFFFFFFFFFFFFFFFFFFFFFFFFFFFFFFFFFF AND DUP2 MSTORE PUSH1 0x20 ADD PUSH1 0x0 PUSH20 0xFFFFFFFFFFFFFFFFFFFFFFFFFFFFFFFFFFFFFFFF AND DUP2 MSTORE PUSH1 0x20 ADD PUSH1 0x0 PUSH20 0xFFFFFFFFFFFFFFFFFFFFFFFFFFFFFFFFFFFFFFFF AND DUP2 MSTORE PUSH1 0x20 ADD PUSH1 0x0 PUSH20 0xFFFFFFFFFFFFFFFFFFFFFFFFFFFFFFFFFFFFFFFF AND DUP2 MSTORE PUSH1 0x20 ADD PUSH1 0x0 PUSH20 0xFFFFFFFFFFFFFFFFFFFFFFFFFFFFFFFFFFFFFFFF AND DUP2 MSTORE PUSH1 0x20 ADD PUSH1 0x0 PUSH20 0xFFFFFFFFFFFFFFFFFFFFFFFFFFFFFFFFFFFFFFFF AND DUP2 MSTORE PUSH1 0x20 ADD PUSH1 0x0 PUSH20 0xFFFFFFFFFFFFFFFFFFFFFFFFFFFFFFFFFFFFFFFF AND DUP2 MSTORE PUSH1 0x20 ADD PUSH1 0x0 PUSH20 0xFFFFFFFFFFFFFFFFFFFFFFFFFFFFFFFFFFFFFFFF AND DUP2 MSTORE PUSH1 0x20 ADD PUSH1 0x0 PUSH20 0xFFFFFFFFFFFFFFFFFFFFFFFFFFFFFFFFFFFFFFFF AND DUP2 MSTORE POP PUSH1 0x1 PUSH1 0x0 DUP3 ADD MLOAD DUP2 PUSH1 0x0 ADD PUSH1 0x0 PUSH2 0x100 EXP DUP2 SLOAD DUP2 PUSH1 0xFF MUL NOT AND SWAP1 DUP4 ISZERO ISZERO MUL OR SWAP1 SSTORE POP PUSH1 0x20 DUP3 ADD MLOAD DUP2 PUSH1 0x0 ADD PUSH1 0x1 PUSH2 0x100 EXP DUP2 SLOAD DUP2 PUSH1 0xFF MUL NOT AND SWAP1 DUP4 ISZERO ISZERO MUL OR SWAP1 SSTORE POP PUSH1 0x40 DUP3 ADD MLOAD DUP2 PUSH1 0x0 ADD PUSH1 0x2 PUSH2 0x100 EXP DUP2 SLOAD DUP2 PUSH1 0xFF MUL NOT AND SWAP1 DUP4 ISZERO ISZERO MUL OR SWAP1 SSTORE POP PUSH1 0x60 DUP3 ADD MLOAD DUP2 PUSH1 0x0 ADD PUSH1 0x3 PUSH2 0x100 EXP DUP2 SLOAD DUP2 PUSH1 0xFF MUL NOT AND SWAP1 DUP4 ISZERO ISZERO MUL OR SWAP1 SSTORE POP PUSH1 0x80 DUP3 ADD MLOAD DUP2 PUSH1 0x0 ADD PUSH1 0x4 PUSH2 0x100 EXP DUP2 SLOAD DUP2 PUSH1 0xFF MUL NOT AND SWAP1 DUP4 ISZERO ISZERO MUL OR SWAP1 SSTORE POP PUSH1 0xA0 DUP3 ADD MLOAD DUP2 PUSH1 0x0 ADD PUSH1 0x5 PUSH2 0x100 EXP DUP2 SLOAD DUP2 PUSH20 0xFFFFFFFFFFFFFFFFFFFFFFFFFFFFFFFFFFFFFFFF MUL NOT AND SWAP1 DUP4 PUSH20 0xFFFFFFFFFFFFFFFFFFFFFFFFFFFFFFFFFFFFFFFF AND MUL OR SWAP1 SSTORE POP PUSH1 0xC0 DUP3 ADD MLOAD DUP2 PUSH1 0x1 ADD PUSH1 0x0 PUSH2 0x100 EXP DUP2 SLOAD DUP2 PUSH20 0xFFFFFFFFFFFFFFFFFFFFFFFFFFFFFFFFFFFFFFFF MUL NOT AND SWAP1 DUP4 PUSH20 0xFFFFFFFFFFFFFFFFFFFFFFFFFFFFFFFFFFFFFFFF AND MUL OR SWAP1 SSTORE POP PUSH1 0xE0 DUP3 ADD MLOAD DUP2 PUSH1 0x2 ADD PUSH1 0x0 PUSH2 0x100 EXP DUP2 SLOAD DUP2 PUSH20 0xFFFFFFFFFFFFFFFFFFFFFFFFFFFFFFFFFFFFFFFF MUL NOT AND SWAP1 DUP4 PUSH20 0xFFFFFFFFFFFFFFFFFFFFFFFFFFFFFFFFFFFFFFFF AND MUL OR SWAP1 SSTORE POP PUSH2 0x100 DUP3 ADD MLOAD DUP2 PUSH1 0x3 ADD PUSH1 0x0 PUSH2 0x100 EXP DUP2 SLOAD DUP2 PUSH20 0xFFFFFFFFFFFFFFFFFFFFFFFFFFFFFFFFFFFFFFFF MUL NOT AND SWAP1 DUP4 PUSH20 0xFFFFFFFFFFFFFFFFFFFFFFFFFFFFFFFFFFFFFFFF AND MUL OR SWAP1 SSTORE POP PUSH2 0x120 DUP3 ADD MLOAD DUP2 PUSH1 0x4 ADD PUSH1 0x0 PUSH2 0x100 EXP DUP2 SLOAD DUP2 PUSH20 0xFFFFFFFFFFFFFFFFFFFFFFFFFFFFFFFFFFFFFFFF MUL NOT AND SWAP1 DUP4 PUSH20 0xFFFFFFFFFFFFFFFFFFFFFFFFFFFFFFFFFFFFFFFF AND MUL OR SWAP1 SSTORE POP PUSH2 0x140 DUP3 ADD MLOAD DUP2 PUSH1 0x5 ADD PUSH1 0x0 PUSH2 0x100 EXP DUP2 SLOAD DUP2 PUSH20 0xFFFFFFFFFFFFFFFFFFFFFFFFFFFFFFFFFFFFFFFF MUL NOT AND SWAP1 DUP4 PUSH20 0xFFFFFFFFFFFFFFFFFFFFFFFFFFFFFFFFFFFFFFFF AND MUL OR SWAP1 SSTORE POP PUSH2 0x160 DUP3 ADD MLOAD DUP2 PUSH1 0x6 ADD PUSH1 0x0 PUSH2 0x100 EXP DUP2 SLOAD DUP2 PUSH20 0xFFFFFFFFFFFFFFFFFFFFFFFFFFFFFFFFFFFFFFFF MUL NOT AND SWAP1 DUP4 PUSH20 0xFFFFFFFFFFFFFFFFFFFFFFFFFFFFFFFFFFFFFFFF AND MUL OR SWAP1 SSTORE POP PUSH2 0x180 DUP3 ADD MLOAD DUP2 PUSH1 0x7 ADD PUSH1 0x0 PUSH2 0x100 EXP DUP2 SLOAD DUP2 PUSH20 0xFFFFFFFFFFFFFFFFFFFFFFFFFFFFFFFFFFFFFFFF MUL NOT AND SWAP1 DUP4 PUSH20 0xFFFFFFFFFFFFFFFFFFFFFFFFFFFFFFFFFFFFFFFF AND MUL OR SWAP1 SSTORE POP PUSH2 0x1A0 DUP3 ADD MLOAD DUP2 PUSH1 0x8 ADD PUSH1 0x0 PUSH2 0x100 EXP DUP2 SLOAD DUP2 PUSH20 0xFFFFFFFFFFFFFFFFFFFFFFFFFFFFFFFFFFFFFFFF MUL NOT AND SWAP1 DUP4 PUSH20 0xFFFFFFFFFFFFFFFFFFFFFFFFFFFFFFFFFFFFFFFF AND MUL OR SWAP1 SSTORE POP PUSH2 0x1C0 DUP3 ADD MLOAD DUP2 PUSH1 0x9 ADD PUSH1 0x0 PUSH2 0x100 EXP DUP2 SLOAD DUP2 PUSH20 0xFFFFFFFFFFFFFFFFFFFFFFFFFFFFFFFFFFFFFFFF MUL NOT AND SWAP1 DUP4 PUSH20 0xFFFFFFFFFFFFFFFFFFFFFFFFFFFFFFFFFFFFFFFF AND MUL OR SWAP1 SSTORE POP PUSH2 0x1E0 DUP3 ADD MLOAD DUP2 PUSH1 0xA ADD PUSH1 0x0 PUSH2 0x100 EXP DUP2 SLOAD DUP2 PUSH20 0xFFFFFFFFFFFFFFFFFFFFFFFFFFFFFFFFFFFFFFFF MUL NOT AND SWAP1 DUP4 PUSH20 0xFFFFFFFFFFFFFFFFFFFFFFFFFFFFFFFFFFFFFFFF AND MUL OR SWAP1 SSTORE POP POP POP CALLVALUE DUP1 ISZERO PUSH2 0x53F JUMPI PUSH1 0x0 DUP1 REVERT JUMPDEST POP CALLER PUSH1 0x0 DUP1 PUSH2 0x100 EXP DUP2 SLOAD DUP2 PUSH20 0xFFFFFFFFFFFFFFFFFFFFFFFFFFFFFFFFFFFFFFFF MUL NOT AND SWAP1 DUP4 PUSH20 0xFFFFFFFFFFFFFFFFFFFFFFFFFFFFFFFFFFFFFFFF AND MUL OR SWAP1 SSTORE POP PUSH2 0x169 DUP1 PUSH2 0x58F PUSH1 0x0 CODECOPY PUSH1 0x0 RETURN INVALID PUSH1 0x80 PUSH1 0x40 MSTORE CALLVALUE DUP1 ISZERO PUSH2 0x10 JUMPI PUSH1 0x0 DUP1 REVERT JUMPDEST POP PUSH1 0x4 CALLDATASIZE LT PUSH2 0x41 JUMPI PUSH1 0x0 CALLDATALOAD PUSH1 0xE0 SHR DUP1 PUSH4 0x1DD28782 EQ PUSH2 0x46 JUMPI DUP1 PUSH4 0x49E8216A EQ PUSH2 0x64 JUMPI DUP1 PUSH4 0x52BAC077 EQ PUSH2 0x82 JUMPI JUMPDEST PUSH1 0x0 DUP1 REVERT JUMPDEST PUSH2 0x4E PUSH2 0xA0 JUMP JUMPDEST PUSH1 0x40 MLOAD PUSH2 0x5B SWAP2 SWAP1 PUSH2 0x118 JUMP JUMPDEST PUSH1 0x40 MLOAD DUP1 SWAP2 SUB SWAP1 RETURN JUMPDEST PUSH2 0x6C PUSH2 0xBF JUMP JUMPDEST PUSH1 0x40 MLOAD PUSH2 0x79 SWAP2 SWAP1 PUSH2 0x118 JUMP JUMPDEST PUSH1 0x40 MLOAD DUP1 SWAP2 SUB SWAP1 RETURN JUMPDEST PUSH2 0x8A PUSH2 0xDE JUMP JUMPDEST PUSH1 0x40 MLOAD PUSH2 0x97 SWAP2 SWAP1 PUSH2 0x118 JUMP JUMPDEST PUSH1 0x40 MLOAD DUP1 SWAP2 SUB SWAP1 RETURN JUMPDEST PUSH1 0x0 DUP1 PUSH1 0x1 SWAP1 POP DUP1 PUSH1 0x0 ADD PUSH1 0x0 SWAP1 SLOAD SWAP1 PUSH2 0x100 EXP SWAP1 DIV PUSH1 0xFF AND SWAP2 POP POP SWAP1 JUMP JUMPDEST PUSH1 0x0 DUP1 PUSH1 0x1 SWAP1 POP DUP1 PUSH1 0x0 ADD PUSH1 0x1 SWAP1 SLOAD SWAP1 PUSH2 0x100 EXP SWAP1 DIV PUSH1 0xFF AND SWAP2 POP POP SWAP1 JUMP JUMPDEST PUSH1 0x0 DUP1 PUSH1 0x1 SWAP1 POP DUP1 PUSH1 0x0 ADD PUSH1 0x2 SWAP1 SLOAD SWAP1 PUSH2 0x100 EXP SWAP1 DIV PUSH1 0xFF AND SWAP2 POP POP SWAP1 JUMP JUMPDEST PUSH1 0x0 DUP2 ISZERO ISZERO SWAP1 POP SWAP2 SWAP1 POP JUMP JUMPDEST PUSH2 0x112 DUP2 PUSH2 0xFD JUMP JUMPDEST DUP3 MSTORE POP POP JUMP JUMPDEST PUSH1 0x0 PUSH1 0x20 DUP3 ADD SWAP1 POP PUSH2 0x12D PUSH1 0x0 DUP4 ADD DUP5 PUSH2 0x109 JUMP JUMPDEST SWAP3 SWAP2 POP POP JUMP INVALID LOG2 PUSH5 0x6970667358 0x22 SLT KECCAK256 0xBA DUP7 0xD2 PUSH21 0x7090AC1A5BD20495564A556D02FF45646116A40A68 0x28 0x1F DIFFICULTY 0xEA 0xCF SWAP4 0xB0 PUSH5 0x736F6C6343 STOP ADDMOD LT STOP CALLER "
				},
				"gasEstimates": {
					"creation": {
						"codeDepositCost": "72200",
						"executionCost": "413538",
						"totalCost": "485738"
					},
					"external": {
						"isgameNetworkActive()": "2476",
						"isgamesAreDeactivated()": "2570",
						"isgamesAreOn()": "2548"
					}
				},
				"methodIdentifiers": {
					"isgameNetworkActive()": "1dd28782",
					"isgamesAreDeactivated()": "52bac077",
					"isgamesAreOn()": "49e8216a"
				}
			},
			"storageLayout": {
				"storage": [
					{
						"astId": 3,
						"contract": "gameprofits-galactic-spdgcs-contracts/governence/gameProfitsGalacticNetworkSettings.sol:gameprofitsGalacticNetworkSettings",
						"label": "owner",
						"offset": 0,
						"slot": "0",
						"type": "t_address"
					},
					{
						"astId": 57,
						"contract": "gameprofits-galactic-spdgcs-contracts/governence/gameProfitsGalacticNetworkSettings.sol:gameprofitsGalacticNetworkSettings",
						"label": "gameprofitsNetworkSettings",
						"offset": 0,
						"slot": "1",
						"type": "t_struct(gameprofitsSettings)36_storage"
					}
				],
				"types": {
					"t_address": {
						"encoding": "inplace",
						"label": "address",
						"numberOfBytes": "20"
					},
					"t_bool": {
						"encoding": "inplace",
						"label": "bool",
						"numberOfBytes": "1"
					},
					"t_struct(gameprofitsSettings)36_storage": {
						"encoding": "inplace",
						"label": "struct gameprofitsGalacticNetworkSettings.gameprofitsSettings",
						"members": [
							{
								"astId": 5,
								"contract": "gameprofits-galactic-spdgcs-contracts/governence/gameProfitsGalacticNetworkSettings.sol:gameprofitsGalacticNetworkSettings",
								"label": "gameNetworkActive",
								"offset": 0,
								"slot": "0",
								"type": "t_bool"
							},
							{
								"astId": 7,
								"contract": "gameprofits-galactic-spdgcs-contracts/governence/gameProfitsGalacticNetworkSettings.sol:gameprofitsGalacticNetworkSettings",
								"label": "gamesAreOn",
								"offset": 1,
								"slot": "0",
								"type": "t_bool"
							},
							{
								"astId": 9,
								"contract": "gameprofits-galactic-spdgcs-contracts/governence/gameProfitsGalacticNetworkSettings.sol:gameprofitsGalacticNetworkSettings",
								"label": "gamesAreDeactivated",
								"offset": 2,
								"slot": "0",
								"type": "t_bool"
							},
							{
								"astId": 11,
								"contract": "gameprofits-galactic-spdgcs-contracts/governence/gameProfitsGalacticNetworkSettings.sol:gameprofitsGalacticNetworkSettings",
								"label": "gamesAreCoolingDown",
								"offset": 3,
								"slot": "0",
								"type": "t_bool"
							},
							{
								"astId": 13,
								"contract": "gameprofits-galactic-spdgcs-contracts/governence/gameProfitsGalacticNetworkSettings.sol:gameprofitsGalacticNetworkSettings",
								"label": "gamesKillSwitch",
								"offset": 4,
								"slot": "0",
								"type": "t_bool"
							},
							{
								"astId": 15,
								"contract": "gameprofits-galactic-spdgcs-contracts/governence/gameProfitsGalacticNetworkSettings.sol:gameprofitsGalacticNetworkSettings",
								"label": "gameprofitsfinanceSettings",
								"offset": 5,
								"slot": "0",
								"type": "t_address"
							},
							{
								"astId": 17,
								"contract": "gameprofits-galactic-spdgcs-contracts/governence/gameProfitsGalacticNetworkSettings.sol:gameprofitsGalacticNetworkSettings",
								"label": "gameprofitsExperimentSettings",
								"offset": 0,
								"slot": "1",
								"type": "t_address"
							},
							{
								"astId": 19,
								"contract": "gameprofits-galactic-spdgcs-contracts/governence/gameProfitsGalacticNetworkSettings.sol:gameprofitsGalacticNetworkSettings",
								"label": "gameprofitsGoverenenceSettings",
								"offset": 0,
								"slot": "2",
								"type": "t_address"
							},
							{
								"astId": 21,
								"contract": "gameprofits-galactic-spdgcs-contracts/governence/gameProfitsGalacticNetworkSettings.sol:gameprofitsGalacticNetworkSettings",
								"label": "gameprofitsIchoroniumTableSettings",
								"offset": 0,
								"slot": "3",
								"type": "t_address"
							},
							{
								"astId": 23,
								"contract": "gameprofits-galactic-spdgcs-contracts/governence/gameProfitsGalacticNetworkSettings.sol:gameprofitsGalacticNetworkSettings",
								"label": "gameprofitsMetaVerseSettings",
								"offset": 0,
								"slot": "4",
								"type": "t_address"
							},
							{
								"astId": 25,
								"contract": "gameprofits-galactic-spdgcs-contracts/governence/gameProfitsGalacticNetworkSettings.sol:gameprofitsGalacticNetworkSettings",
								"label": "gameprofitsMetaVerseUniverseItems",
								"offset": 0,
								"slot": "5",
								"type": "t_address"
							},
							{
								"astId": 27,
								"contract": "gameprofits-galactic-spdgcs-contracts/governence/gameProfitsGalacticNetworkSettings.sol:gameprofitsGalacticNetworkSettings",
								"label": "gameprofitsFairPlaySettings",
								"offset": 0,
								"slot": "6",
								"type": "t_address"
							},
							{
								"astId": 29,
								"contract": "gameprofits-galactic-spdgcs-contracts/governence/gameProfitsGalacticNetworkSettings.sol:gameprofitsGalacticNetworkSettings",
								"label": "gameprofitsFairValueSettings",
								"offset": 0,
								"slot": "7",
								"type": "t_address"
							},
							{
								"astId": 31,
								"contract": "gameprofits-galactic-spdgcs-contracts/governence/gameProfitsGalacticNetworkSettings.sol:gameprofitsGalacticNetworkSettings",
								"label": "gameprofitsSoulsSettings",
								"offset": 0,
								"slot": "8",
								"type": "t_address"
							},
							{
								"astId": 33,
								"contract": "gameprofits-galactic-spdgcs-contracts/governence/gameProfitsGalacticNetworkSettings.sol:gameprofitsGalacticNetworkSettings",
								"label": "gameprofitsPremiumExchangeTraderSettings",
								"offset": 0,
								"slot": "9",
								"type": "t_address"
							},
							{
								"astId": 35,
								"contract": "gameprofits-galactic-spdgcs-contracts/governence/gameProfitsGalacticNetworkSettings.sol:gameprofitsGalacticNetworkSettings",
								"label": "gameprofitsMasterVideoGamesSettings",
								"offset": 0,
								"slot": "10",
								"type": "t_address"
							}
						],
						"numberOfBytes": "352"
					}
				}
			},
			"userdoc": {
				"kind": "user",
				"methods": {},
				"version": 1
			}
		}
	}
}